{
  "contractName": "croSkullStaking",
  "abi": [
    {
      "inputs": [],
      "stateMutability": "nonpayable",
      "type": "constructor"
    },
    {
      "anonymous": false,
      "inputs": [
        {
          "indexed": true,
          "internalType": "address",
          "name": "user",
          "type": "address"
        },
        {
          "indexed": false,
          "internalType": "uint16",
          "name": "tokenId",
          "type": "uint16"
        }
      ],
      "name": "Stake",
      "type": "event"
    },
    {
      "anonymous": false,
      "inputs": [
        {
          "indexed": true,
          "internalType": "address",
          "name": "user",
          "type": "address"
        },
        {
          "indexed": false,
          "internalType": "uint256",
          "name": "amout",
          "type": "uint256"
        }
      ],
      "name": "Withdraw",
      "type": "event"
    },
    {
      "anonymous": false,
      "inputs": [
        {
          "indexed": true,
          "internalType": "address",
          "name": "user",
          "type": "address"
        },
        {
          "indexed": false,
          "internalType": "uint16",
          "name": "tokenId",
          "type": "uint16"
        }
      ],
      "name": "unStake",
      "type": "event"
    },
    {
      "inputs": [],
      "name": "croSkullContract",
      "outputs": [
        {
          "internalType": "contract IERC721",
          "name": "",
          "type": "address"
        }
      ],
      "stateMutability": "view",
      "type": "function",
      "constant": true
    },
    {
      "inputs": [],
      "name": "cycleInterval",
      "outputs": [
        {
          "internalType": "uint256",
          "name": "",
          "type": "uint256"
        }
      ],
      "stateMutability": "view",
      "type": "function",
      "constant": true
    },
    {
      "inputs": [],
      "name": "owner",
      "outputs": [
        {
          "internalType": "address",
          "name": "",
          "type": "address"
        }
      ],
      "stateMutability": "view",
      "type": "function",
      "constant": true
    },
    {
      "inputs": [],
      "name": "percentOperator",
      "outputs": [
        {
          "internalType": "uint256",
          "name": "",
          "type": "uint256"
        }
      ],
      "stateMutability": "view",
      "type": "function",
      "constant": true
    },
    {
      "inputs": [],
      "name": "poolRewardSupply",
      "outputs": [
        {
          "internalType": "uint256",
          "name": "",
          "type": "uint256"
        }
      ],
      "stateMutability": "view",
      "type": "function",
      "constant": true
    },
    {
      "inputs": [],
      "name": "poolWithdrawedAmount",
      "outputs": [
        {
          "internalType": "uint256",
          "name": "",
          "type": "uint256"
        }
      ],
      "stateMutability": "view",
      "type": "function",
      "constant": true
    },
    {
      "inputs": [],
      "name": "rewardToken",
      "outputs": [
        {
          "internalType": "contract IERC20",
          "name": "",
          "type": "address"
        }
      ],
      "stateMutability": "view",
      "type": "function",
      "constant": true
    },
    {
      "inputs": [
        {
          "internalType": "bytes32",
          "name": "",
          "type": "bytes32"
        }
      ],
      "name": "skullsOwner",
      "outputs": [
        {
          "internalType": "bool",
          "name": "",
          "type": "bool"
        }
      ],
      "stateMutability": "view",
      "type": "function",
      "constant": true
    },
    {
      "inputs": [],
      "name": "soulsDropInterval",
      "outputs": [
        {
          "internalType": "uint256",
          "name": "",
          "type": "uint256"
        }
      ],
      "stateMutability": "view",
      "type": "function",
      "constant": true
    },
    {
      "inputs": [],
      "name": "stakeMalusDuration",
      "outputs": [
        {
          "internalType": "uint256",
          "name": "",
          "type": "uint256"
        }
      ],
      "stateMutability": "view",
      "type": "function",
      "constant": true
    },
    {
      "inputs": [],
      "name": "stakeMalusFee",
      "outputs": [
        {
          "internalType": "uint256",
          "name": "",
          "type": "uint256"
        }
      ],
      "stateMutability": "view",
      "type": "function",
      "constant": true
    },
    {
      "inputs": [],
      "name": "stakedSkullsCount",
      "outputs": [
        {
          "internalType": "uint16",
          "name": "",
          "type": "uint16"
        }
      ],
      "stateMutability": "view",
      "type": "function",
      "constant": true
    },
    {
      "inputs": [],
      "name": "startStakeTimestamp",
      "outputs": [
        {
          "internalType": "uint256",
          "name": "",
          "type": "uint256"
        }
      ],
      "stateMutability": "view",
      "type": "function",
      "constant": true
    },
    {
      "inputs": [],
      "name": "started",
      "outputs": [
        {
          "internalType": "bool",
          "name": "",
          "type": "bool"
        }
      ],
      "stateMutability": "view",
      "type": "function",
      "constant": true
    },
    {
      "inputs": [
        {
          "internalType": "address",
          "name": "",
          "type": "address"
        }
      ],
      "name": "userDetails",
      "outputs": [
        {
          "internalType": "uint16",
          "name": "tokenCount",
          "type": "uint16"
        },
        {
          "internalType": "uint256",
          "name": "lastWithdrawTimestamp",
          "type": "uint256"
        },
        {
          "internalType": "uint256",
          "name": "startingStake",
          "type": "uint256"
        },
        {
          "internalType": "uint256",
          "name": "availableBalance",
          "type": "uint256"
        },
        {
          "internalType": "uint256",
          "name": "alreadyClaimed",
          "type": "uint256"
        },
        {
          "internalType": "bool",
          "name": "enabled",
          "type": "bool"
        }
      ],
      "stateMutability": "view",
      "type": "function",
      "constant": true
    },
    {
      "inputs": [],
      "name": "usersCount",
      "outputs": [
        {
          "internalType": "uint16",
          "name": "",
          "type": "uint16"
        }
      ],
      "stateMutability": "view",
      "type": "function",
      "constant": true
    },
    {
      "inputs": [],
      "name": "vestingDuration",
      "outputs": [
        {
          "internalType": "uint256",
          "name": "",
          "type": "uint256"
        }
      ],
      "stateMutability": "view",
      "type": "function",
      "constant": true
    },
    {
      "inputs": [],
      "name": "withdrawEnabled",
      "outputs": [
        {
          "internalType": "bool",
          "name": "",
          "type": "bool"
        }
      ],
      "stateMutability": "view",
      "type": "function",
      "constant": true
    },
    {
      "inputs": [],
      "name": "toggleWithdrawSouls",
      "outputs": [],
      "stateMutability": "nonpayable",
      "type": "function"
    },
    {
      "inputs": [],
      "name": "adminUnlock",
      "outputs": [],
      "stateMutability": "nonpayable",
      "type": "function"
    },
    {
      "inputs": [
        {
          "internalType": "uint16",
          "name": "_tokenId",
          "type": "uint16"
        },
        {
          "internalType": "address",
          "name": "_ownerOf",
          "type": "address"
        }
      ],
      "name": "adminUnstake",
      "outputs": [],
      "stateMutability": "nonpayable",
      "type": "function"
    },
    {
      "inputs": [],
      "name": "startRewards",
      "outputs": [],
      "stateMutability": "nonpayable",
      "type": "function"
    },
    {
      "inputs": [],
      "name": "fundRewardPool",
      "outputs": [],
      "stateMutability": "nonpayable",
      "type": "function"
    },
    {
      "inputs": [],
      "name": "adminBurnUnvested",
      "outputs": [],
      "stateMutability": "nonpayable",
      "type": "function"
    },
    {
      "inputs": [
        {
          "internalType": "contract IERC721",
          "name": "_nftContract",
          "type": "address"
        }
      ],
      "name": "setNFTAddress",
      "outputs": [],
      "stateMutability": "nonpayable",
      "type": "function"
    },
    {
      "inputs": [
        {
          "internalType": "contract IERC20",
          "name": "_tokenAddress",
          "type": "address"
        }
      ],
      "name": "setTokenAddress",
      "outputs": [],
      "stateMutability": "nonpayable",
      "type": "function"
    },
    {
      "inputs": [],
      "name": "_rewardPerCycles",
      "outputs": [
        {
          "internalType": "uint256",
          "name": "",
          "type": "uint256"
        }
      ],
      "stateMutability": "view",
      "type": "function",
      "constant": true
    },
    {
      "inputs": [
        {
          "internalType": "uint16[]",
          "name": "_tokenIds",
          "type": "uint16[]"
        }
      ],
      "name": "batchStakeSkulls",
      "outputs": [],
      "stateMutability": "nonpayable",
      "type": "function"
    },
    {
      "inputs": [
        {
          "internalType": "uint16[]",
          "name": "_tokenIds",
          "type": "uint16[]"
        }
      ],
      "name": "batchUnstakeSkulls",
      "outputs": [],
      "stateMutability": "nonpayable",
      "type": "function"
    },
    {
      "inputs": [
        {
          "internalType": "uint16",
          "name": "_tokenId",
          "type": "uint16"
        }
      ],
      "name": "stakeSkull",
      "outputs": [],
      "stateMutability": "nonpayable",
      "type": "function"
    },
    {
      "inputs": [
        {
          "internalType": "uint16",
          "name": "_tokenId",
          "type": "uint16"
        }
      ],
      "name": "unstakeSkull",
      "outputs": [],
      "stateMutability": "nonpayable",
      "type": "function"
    },
    {
      "inputs": [],
      "name": "withdraw",
      "outputs": [],
      "stateMutability": "nonpayable",
      "type": "function"
    },
    {
      "inputs": [],
      "name": "_tenSecCyclesPassed",
      "outputs": [
        {
          "internalType": "uint256",
          "name": "",
          "type": "uint256"
        }
      ],
      "stateMutability": "view",
      "type": "function",
      "constant": true
    },
    {
      "inputs": [],
      "name": "_tenSecCyclesPassedLastWithdraw",
      "outputs": [
        {
          "internalType": "uint256",
          "name": "",
          "type": "uint256"
        }
      ],
      "stateMutability": "view",
      "type": "function",
      "constant": true
    },
    {
      "inputs": [],
      "name": "calculateDroppedSouls",
      "outputs": [
        {
          "internalType": "uint256",
          "name": "",
          "type": "uint256"
        }
      ],
      "stateMutability": "view",
      "type": "function",
      "constant": true
    },
    {
      "inputs": [],
      "name": "daysSinceLastWithdraw",
      "outputs": [
        {
          "internalType": "uint256",
          "name": "",
          "type": "uint256"
        },
        {
          "internalType": "uint256",
          "name": "",
          "type": "uint256"
        }
      ],
      "stateMutability": "view",
      "type": "function",
      "constant": true
    },
    {
      "inputs": [],
      "name": "calculateMalusFee",
      "outputs": [
        {
          "internalType": "uint256",
          "name": "",
          "type": "uint256"
        }
      ],
      "stateMutability": "view",
      "type": "function",
      "constant": true
    },
    {
      "inputs": [],
      "name": "calculateRewardsPlusMalus",
      "outputs": [
        {
          "internalType": "uint256",
          "name": "",
          "type": "uint256"
        }
      ],
      "stateMutability": "view",
      "type": "function",
      "constant": true
    },
    {
      "inputs": [],
      "name": "calculateRewards",
      "outputs": [
        {
          "internalType": "uint256",
          "name": "",
          "type": "uint256"
        }
      ],
      "stateMutability": "view",
      "type": "function",
      "constant": true
    },
    {
      "inputs": [],
      "name": "getTokensIds",
      "outputs": [
        {
          "internalType": "uint16[]",
          "name": "",
          "type": "uint16[]"
        }
      ],
      "stateMutability": "view",
      "type": "function",
      "constant": true
    },
    {
      "inputs": [
        {
          "internalType": "uint16",
          "name": "_tokenId",
          "type": "uint16"
        }
      ],
      "name": "checkOwnership",
      "outputs": [
        {
          "internalType": "bool",
          "name": "",
          "type": "bool"
        }
      ],
      "stateMutability": "view",
      "type": "function",
      "constant": true
    },
    {
      "inputs": [
        {
          "internalType": "address",
          "name": "",
          "type": "address"
        },
        {
          "internalType": "address",
          "name": "",
          "type": "address"
        },
        {
          "internalType": "uint256",
          "name": "",
          "type": "uint256"
        },
        {
          "internalType": "bytes",
          "name": "",
          "type": "bytes"
        }
      ],
      "name": "onERC721Received",
      "outputs": [
        {
          "internalType": "bytes4",
          "name": "",
          "type": "bytes4"
        }
      ],
      "stateMutability": "nonpayable",
      "type": "function"
    },
    {
      "inputs": [],
      "name": "approvalStatus",
      "outputs": [
        {
          "internalType": "bool",
          "name": "",
          "type": "bool"
        }
      ],
      "stateMutability": "view",
      "type": "function",
      "constant": true
    },
    {
      "inputs": [
        {
          "internalType": "uint16",
          "name": "_tokenId",
          "type": "uint16"
        },
        {
          "internalType": "address",
          "name": "_from",
          "type": "address"
        }
      ],
      "name": "getTokenIndex",
      "outputs": [
        {
          "internalType": "uint256",
          "name": "",
          "type": "uint256"
        }
      ],
      "stateMutability": "view",
      "type": "function",
      "constant": true
    }
  ],
  "bytecode": "0x6080604052611a0a600260146101000a81548161ffff021916908361ffff1602179055506103e86003556305a39a80600755600a600855624f1a00600955621a5e00600a556032600b5534801561005557600080fd5b50336000806101000a81548173ffffffffffffffffffffffffffffffffffffffff021916908373ffffffffffffffffffffffffffffffffffffffff160217905550600060068190555060008060166101000a81548161ffff021916908361ffff16021790555060008060196101000a81548160ff021916908315150217905550614328806100e46000396000f3fe608060405234801561001057600080fd5b50600436106102735760003560e01c80636ba13a82116101515780639ec9f744116100c3578063cec7cf9011610087578063cec7cf90146106a2578063d7aee189146106c0578063e74feb77146106f0578063f7c618c114610720578063fde5b04f1461073e578063ffbfe1531461075c57610273565b80639ec9f744146106225780639fa5e99614610652578063a7f5730514610670578063c0f72cf21461067a578063c861d9f91461069857610273565b8063785b4a7611610115578063785b4a7614610570578063795602831461058c57806379a1cb95146105aa57806383ac5fc5146105c85780638da5cb5b146105e657806399249f821461060457610273565b80636ba13a82146104d95780636e17e3ee146104f75780636ec999a6146105155780637408fc2b14610533578063741514741461055157610273565b806335efedc3116101ea57806348dec2a7116101ae57806348dec2a7146104125780634dd6705c146104475780636145ca021461046357806363a53e4814610481578063687c4a5b1461049f57806369d03738146104bd57610273565b806335efedc3146103925780633b26156e146103ae5780633ccfd60b146103cc5780633e50de30146103d657806342d2b70f146103f457610273565b80631514617e1161023c5780631514617e146103085780631f2698ab1461032657806320828339146103445780632287e96a1461034e57806326a4e8d21461036c5780632dfd0bdc1461038857610273565b8062d799a01461027857806305320be81461029657806305715cc0146102a057806305dd7807146102bc578063150b7a02146102d8575b600080fd5b61028061077a565b60405161028d9190613282565b60405180910390f35b61029e610780565b005b6102ba60048036038101906102b59190613444565b61083a565b005b6102d660048036038101906102d1919061348d565b6109a7565b005b6102f260048036038101906102ed91906135f9565b610b8f565b6040516102ff91906136b7565b60405180910390f35b610310610ba3565b60405161031d9190613282565b60405180910390f35b61032e610ba9565b60405161033b91906136ed565b60405180910390f35b61034c610bbc565b005b610356610cee565b60405161036391906136ed565b60405180910390f35b61038660048036038101906103819190613746565b610d01565b005b610390610dd3565b005b6103ac60048036038101906103a7919061348d565b610eca565b005b6103b6610fef565b6040516103c39190613282565b60405180910390f35b6103d4610ff5565b005b6103de6113ad565b6040516103eb9190613282565b60405180910390f35b6103fc611539565b6040516104099190613282565b60405180910390f35b61042c60048036038101906104279190613773565b61153f565b60405161043e969594939291906137af565b60405180910390f35b610461600480360381019061045c9190613444565b611596565b005b61046b611739565b60405161047891906136ed565b60405180910390f35b6104896117de565b6040516104969190613810565b60405180910390f35b6104a76117f2565b6040516104b49190613282565b60405180910390f35b6104d760048036038101906104d29190613869565b6117f8565b005b6104e16118ca565b6040516104ee9190613810565b60405180910390f35b6104ff6118de565b60405161050c91906138f5565b60405180910390f35b61051d611904565b60405161052a9190613282565b60405180910390f35b61053b6119c1565b60405161054891906139ce565b60405180910390f35b610559611aff565b6040516105679291906139f0565b60405180910390f35b61058a60048036038101906105859190613a19565b611bef565b005b610594611c8b565b6040516105a19190613282565b60405180910390f35b6105b2611c91565b6040516105bf9190613282565b60405180910390f35b6105d0611c97565b6040516105dd9190613282565b60405180910390f35b6105ee611d88565b6040516105fb9190613a68565b60405180910390f35b61060c611dac565b6040516106199190613282565b60405180910390f35b61063c60048036038101906106379190613ab9565b611e6f565b60405161064991906136ed565b60405180910390f35b61065a611e8f565b6040516106679190613282565b60405180910390f35b610678611e95565b005b610682611f68565b60405161068f9190613282565b60405180910390f35b6106a0611f6e565b005b6106aa61217c565b6040516106b79190613282565b60405180910390f35b6106da60048036038101906106d5919061348d565b612309565b6040516106e791906136ed565b60405180910390f35b61070a60048036038101906107059190613a19565b612366565b6040516107179190613282565b60405180910390f35b61072861248b565b6040516107359190613b07565b60405180910390f35b6107466124b1565b6040516107539190613282565b60405180910390f35b6107646124e8565b6040516107719190613282565b60405180910390f35b60065481565b60008054906101000a900473ffffffffffffffffffffffffffffffffffffffff1673ffffffffffffffffffffffffffffffffffffffff163373ffffffffffffffffffffffffffffffffffffffff161461080e576040517f08c379a000000000000000000000000000000000000000000000000000000000815260040161080590613b7f565b60405180910390fd5b600060199054906101000a900460ff1615600060196101000a81548160ff021916908315150217905550565b610842611739565b610881576040517f08c379a000000000000000000000000000000000000000000000000000000000815260040161087890613c11565b60405180910390fd5b6000600654116108c6576040517f08c379a00000000000000000000000000000000000000000000000000000000081526004016108bd90613c7d565b60405180910390fd5b600c60009054906101000a900460ff1615610916576040517f08c379a000000000000000000000000000000000000000000000000000000000815260040161090d90613ce9565b60405180910390fd5b6001600c60006101000a81548160ff0219169083151502179055506000339050600082511161094457600080fd5b60005b8251811015610987576109748284838151811061096757610966613d09565b5b6020026020010151612628565b808061097f90613d67565b915050610947565b50506000600c60006101000a81548160ff02191690831515021790555050565b6109af611739565b6109ee576040517f08c379a00000000000000000000000000000000000000000000000000000000081526004016109e590613c11565b60405180910390fd5b600060065411610a33576040517f08c379a0000000000000000000000000000000000000000000000000000000008152600401610a2a90613c7d565b60405180910390fd5b600c60009054906101000a900460ff1615610a83576040517f08c379a0000000000000000000000000000000000000000000000000000000008152600401610a7a90613ce9565b60405180910390fd5b6001600c60006101000a81548160ff02191690831515021790555060003390506000600d60008373ffffffffffffffffffffffffffffffffffffffff1673ffffffffffffffffffffffffffffffffffffffff168152602001908152602001600020905060008160000160009054906101000a900461ffff1661ffff16905060008111610b44576040517f08c379a0000000000000000000000000000000000000000000000000000000008152600401610b3b90613dfc565b60405180910390fd5b60008260000160009054906101000a900461ffff1661ffff161115610b6e57610b6d8385612ad1565b5b5050506000600c60006101000a81548160ff02191690831515021790555050565b600063150b7a0260e01b9050949350505050565b60075481565b600060189054906101000a900460ff1681565b60008054906101000a900473ffffffffffffffffffffffffffffffffffffffff1673ffffffffffffffffffffffffffffffffffffffff163373ffffffffffffffffffffffffffffffffffffffff1614610c4a576040517f08c379a0000000000000000000000000000000000000000000000000000000008152600401610c4190613b7f565b60405180910390fd5b600160009054906101000a900473ffffffffffffffffffffffffffffffffffffffff1673ffffffffffffffffffffffffffffffffffffffff166370a08231306040518263ffffffff1660e01b8152600401610ca59190613a68565b602060405180830381865afa158015610cc2573d6000803e3d6000fd5b505050506040513d601f19601f82011682018060405250810190610ce69190613e31565b600481905550565b600060199054906101000a900460ff1681565b60008054906101000a900473ffffffffffffffffffffffffffffffffffffffff1673ffffffffffffffffffffffffffffffffffffffff163373ffffffffffffffffffffffffffffffffffffffff1614610d8f576040517f08c379a0000000000000000000000000000000000000000000000000000000008152600401610d8690613b7f565b60405180910390fd5b80600160006101000a81548173ffffffffffffffffffffffffffffffffffffffff021916908373ffffffffffffffffffffffffffffffffffffffff16021790555050565b60008054906101000a900473ffffffffffffffffffffffffffffffffffffffff1673ffffffffffffffffffffffffffffffffffffffff163373ffffffffffffffffffffffffffffffffffffffff1614610e61576040517f08c379a0000000000000000000000000000000000000000000000000000000008152600401610e5890613b7f565b60405180910390fd5b600060065414610ea6576040517f08c379a0000000000000000000000000000000000000000000000000000000008152600401610e9d90613e84565b60405180910390fd5b426006819055506001600060186101000a81548160ff021916908315150217905550565b610ed2611739565b610f11576040517f08c379a0000000000000000000000000000000000000000000000000000000008152600401610f0890613c11565b60405180910390fd5b600060065411610f56576040517f08c379a0000000000000000000000000000000000000000000000000000000008152600401610f4d90613c7d565b60405180910390fd5b600c60009054906101000a900460ff1615610fa6576040517f08c379a0000000000000000000000000000000000000000000000000000000008152600401610f9d90613ce9565b60405180910390fd5b6001600c60006101000a81548160ff0219169083151502179055506000339050610fd08183612628565b506000600c60006101000a81548160ff02191690831515021790555050565b60085481565b610ffd611739565b61103c576040517f08c379a000000000000000000000000000000000000000000000000000000000815260040161103390613c11565b60405180910390fd5b600c60009054906101000a900460ff161561108c576040517f08c379a000000000000000000000000000000000000000000000000000000000815260040161108390613ce9565b60405180910390fd5b6001600c60006101000a81548160ff02191690831515021790555060003390506000600d60008373ffffffffffffffffffffffffffffffffffffffff1673ffffffffffffffffffffffffffffffffffffffff16815260200190815260200160002060030154116110fb57600080fd5b6000611105611c97565b905080600160009054906101000a900473ffffffffffffffffffffffffffffffffffffffff1673ffffffffffffffffffffffffffffffffffffffff166370a08231306040518263ffffffff1660e01b81526004016111639190613a68565b602060405180830381865afa158015611180573d6000803e3d6000fd5b505050506040513d601f19601f820116820180604052508101906111a49190613e31565b10156111af57600080fd5b600160009054906101000a900473ffffffffffffffffffffffffffffffffffffffff1673ffffffffffffffffffffffffffffffffffffffff1663a9059cbb83836040518363ffffffff1660e01b815260040161120c929190613ea4565b6020604051808303816000875af115801561122b573d6000803e3d6000fd5b505050506040513d601f19601f8201168201806040525081019061124f9190613ef9565b61125857600080fd5b806005600082825461126a9190613f26565b9250508190555042600d60008473ffffffffffffffffffffffffffffffffffffffff1673ffffffffffffffffffffffffffffffffffffffff1681526020019081526020016000206002018190555042600d60008473ffffffffffffffffffffffffffffffffffffffff1673ffffffffffffffffffffffffffffffffffffffff1681526020019081526020016000206003018190555080600d60008473ffffffffffffffffffffffffffffffffffffffff1673ffffffffffffffffffffffffffffffffffffffff168152602001908152602001600020600501819055506000600d60008473ffffffffffffffffffffffffffffffffffffffff1673ffffffffffffffffffffffffffffffffffffffff1681526020019081526020016000206004018190555050506000600c60006101000a81548160ff021916908315150217905550565b60006113b7611739565b6113f6576040517f08c379a00000000000000000000000000000000000000000000000000000000081526004016113ed90613c11565b60405180910390fd5b60006006541161143b576040517f08c379a000000000000000000000000000000000000000000000000000000000815260040161143290613c7d565b60405180910390fd5b6000600d60003373ffffffffffffffffffffffffffffffffffffffff1673ffffffffffffffffffffffffffffffffffffffff168152602001908152602001600020905060008160000160009054906101000a900461ffff16905060008260040154905060006114a8611dac565b905060006114b46124b1565b905060006114df600260149054906101000a900461ffff1661ffff1683612e2990919063ffffffff16565b905060006114fa8661ffff1683612e3f90919063ffffffff16565b905060006115118583612e3f90919063ffffffff16565b905060006115288783612e5590919063ffffffff16565b905080995050505050505050505090565b60095481565b600d6020528060005260406000206000915090508060000160009054906101000a900461ffff16908060020154908060030154908060040154908060050154908060060160009054906101000a900460ff16905086565b61159e611739565b6115dd576040517f08c379a00000000000000000000000000000000000000000000000000000000081526004016115d490613c11565b60405180910390fd5b600060065411611622576040517f08c379a000000000000000000000000000000000000000000000000000000000815260040161161990613c7d565b60405180910390fd5b600c60009054906101000a900460ff1615611672576040517f08c379a000000000000000000000000000000000000000000000000000000000815260040161166990613ce9565b60405180910390fd5b6001600c60006101000a81548160ff021916908315150217905550600033905060008251116116d6576040517f08c379a00000000000000000000000000000000000000000000000000000000081526004016116cd90613fc8565b60405180910390fd5b60005b825181101561171957611706828483815181106116f9576116f8613d09565b5b6020026020010151612ad1565b808061171190613d67565b9150506116d9565b50506000600c60006101000a81548160ff02191690831515021790555050565b6000600260009054906101000a900473ffffffffffffffffffffffffffffffffffffffff1673ffffffffffffffffffffffffffffffffffffffff1663e985e9c533306040518363ffffffff1660e01b8152600401611798929190613fe8565b602060405180830381865afa1580156117b5573d6000803e3d6000fd5b505050506040513d601f19601f820116820180604052508101906117d99190613ef9565b905090565b600060149054906101000a900461ffff1681565b600b5481565b60008054906101000a900473ffffffffffffffffffffffffffffffffffffffff1673ffffffffffffffffffffffffffffffffffffffff163373ffffffffffffffffffffffffffffffffffffffff1614611886576040517f08c379a000000000000000000000000000000000000000000000000000000000815260040161187d90613b7f565b60405180910390fd5b80600260006101000a81548173ffffffffffffffffffffffffffffffffffffffff021916908373ffffffffffffffffffffffffffffffffffffffff16021790555050565b600060169054906101000a900461ffff1681565b600260009054906101000a900473ffffffffffffffffffffffffffffffffffffffff1681565b600061190e611739565b61194d576040517f08c379a000000000000000000000000000000000000000000000000000000000815260040161194490613c11565b60405180910390fd5b60006006541161195c57600080fd5b6000600a600d60003373ffffffffffffffffffffffffffffffffffffffff1673ffffffffffffffffffffffffffffffffffffffff16815260200190815260200160002060020154426119ae9190614011565b6119b89190614074565b90508091505090565b60606000600d60003373ffffffffffffffffffffffffffffffffffffffff1673ffffffffffffffffffffffffffffffffffffffff1681526020019081526020016000206040518060e00160405290816000820160009054906101000a900461ffff1661ffff1661ffff16815260200160018201805480602002602001604051908101604052809291908181526020018280548015611aa657602002820191906000526020600020906000905b82829054906101000a900461ffff1661ffff1681526020019060020190602082600101049283019260010382029150808411611a6d5790505b50505050508152602001600282015481526020016003820154815260200160048201548152602001600582015481526020016006820160009054906101000a900460ff1615151515815250509050806020015191505090565b600080611b0a611739565b611b49576040517f08c379a0000000000000000000000000000000000000000000000000000000008152600401611b4090613c11565b60405180910390fd5b600060065411611b8e576040517f08c379a0000000000000000000000000000000000000000000000000000000008152600401611b8590613c7d565b60405180910390fd5b6000611b98611904565b90506000611bb160085483612e3f90919063ffffffff16565b9050600081620151801115611bc95760009050611be2565b611bdf6201518083612e2990919063ffffffff16565b90505b8082945094505050509091565b60008054906101000a900473ffffffffffffffffffffffffffffffffffffffff1673ffffffffffffffffffffffffffffffffffffffff163373ffffffffffffffffffffffffffffffffffffffff1614611c7d576040517f08c379a0000000000000000000000000000000000000000000000000000000008152600401611c7490613b7f565b60405180910390fd5b611c878183612ad1565b5050565b600a5481565b60045481565b6000611ca1611739565b611ce0576040517f08c379a0000000000000000000000000000000000000000000000000000000008152600401611cd790613c11565b60405180910390fd5b600060065411611d25576040517f08c379a0000000000000000000000000000000000000000000000000000000008152600401611d1c90613c7d565b60405180910390fd5b6000611d2f61217c565b90506000611d3b6113ad565b90506000611d6583611d57606485612e2990919063ffffffff16565b612e3f90919063ffffffff16565b90506000611d7c8284612e6b90919063ffffffff16565b90508094505050505090565b60008054906101000a900473ffffffffffffffffffffffffffffffffffffffff1681565b6000611db6611739565b611df5576040517f08c379a0000000000000000000000000000000000000000000000000000000008152600401611dec90613c11565b60405180910390fd5b600060065411611e0457600080fd5b60004290506000600a600d60003373ffffffffffffffffffffffffffffffffffffffff1673ffffffffffffffffffffffffffffffffffffffff1681526020019081526020016000206003015442611e5b9190614011565b611e659190614074565b9050809250505090565b600e6020528060005260406000206000915054906101000a900460ff1681565b60035481565b60008054906101000a900473ffffffffffffffffffffffffffffffffffffffff1673ffffffffffffffffffffffffffffffffffffffff163373ffffffffffffffffffffffffffffffffffffffff1614611f23576040517f08c379a0000000000000000000000000000000000000000000000000000000008152600401611f1a90613b7f565b60405180910390fd5b600c60009054906101000a900460ff16611f3c57600080fd5b600c60009054906101000a900460ff1615600c60006101000a81548160ff021916908315150217905550565b60055481565b60008054906101000a900473ffffffffffffffffffffffffffffffffffffffff1673ffffffffffffffffffffffffffffffffffffffff163373ffffffffffffffffffffffffffffffffffffffff1614611ffc576040517f08c379a0000000000000000000000000000000000000000000000000000000008152600401611ff390613b7f565b60405180910390fd5b60006006541161200b57600080fd5b6000600160009054906101000a900473ffffffffffffffffffffffffffffffffffffffff1673ffffffffffffffffffffffffffffffffffffffff166370a08231306040518263ffffffff1660e01b81526004016120689190613a68565b602060405180830381865afa158015612085573d6000803e3d6000fd5b505050506040513d601f19601f820116820180604052508101906120a99190613e31565b9050600081116120b857600080fd5b600160009054906101000a900473ffffffffffffffffffffffffffffffffffffffff1673ffffffffffffffffffffffffffffffffffffffff1663a9059cbb60008054906101000a900473ffffffffffffffffffffffffffffffffffffffff16836040518363ffffffff1660e01b8152600401612135929190613ea4565b6020604051808303816000875af1158015612154573d6000803e3d6000fd5b505050506040513d601f19601f820116820180604052508101906121789190613ef9565b5050565b6000612186611739565b6121c5576040517f08c379a00000000000000000000000000000000000000000000000000000000081526004016121bc90613c11565b60405180910390fd5b60006006541161220a576040517f08c379a000000000000000000000000000000000000000000000000000000000815260040161220190613c7d565b60405180910390fd5b600080612215611aff565b915091506000600a5482101561230057600061223f62015180600a54612e2990919063ffffffff16565b905060006122568583612e6b90919063ffffffff16565b905060006122a860035461229a606461228c8761227e60035489612e3f90919063ffffffff16565b612e2990919063ffffffff16565b612e3f90919063ffffffff16565b612e2990919063ffffffff16565b90506122fa6003546122ec836122de60646122d0600354600b54612e3f90919063ffffffff16565b612e2990919063ffffffff16565b612e3f90919063ffffffff16565b612e2990919063ffffffff16565b93505050505b80935050505090565b600080338360405160200161231f929190614123565b6040516020818303038152906040528051906020012090506000600e600083815260200190815260200160002060009054906101000a900460ff1690508092505050919050565b600080600090506000600d60008573ffffffffffffffffffffffffffffffffffffffff1673ffffffffffffffffffffffffffffffffffffffff16815260200190815260200160002060010180548060200260200160405190810160405280929190818152602001828054801561242357602002820191906000526020600020906000905b82829054906101000a900461ffff1661ffff16815260200190600201906020826001010492830192600103820291508084116123ea5790505b5050505050905060005b815181101561247e5781818151811061244957612448613d09565b5b602002602001015161ffff168661ffff16141561246b57809350505050612485565b808061247690613d67565b91505061242d565b5081925050505b92915050565b600160009054906101000a900473ffffffffffffffffffffffffffffffffffffffff1681565b6000806124df6008546124d1600754600454612e2990919063ffffffff16565b612e3f90919063ffffffff16565b90508091505090565b60006124f2611739565b612531576040517f08c379a000000000000000000000000000000000000000000000000000000000815260040161252890613c11565b60405180910390fd5b600060065411612576576040517f08c379a000000000000000000000000000000000000000000000000000000000815260040161256d90613c7d565b60405180910390fd5b6000600d60003373ffffffffffffffffffffffffffffffffffffffff1673ffffffffffffffffffffffffffffffffffffffff168152602001908152602001600020905060008160000160009054906101000a900461ffff16905060006125ed600a6125df611904565b612e3f90919063ffffffff16565b9050600061261c8361ffff1661260e60095485612e2990919063ffffffff16565b612e3f90919063ffffffff16565b90508094505050505090565b6000828260405160200161263d929190614123565b6040516020818303038152906040528051906020012090508273ffffffffffffffffffffffffffffffffffffffff16600260009054906101000a900473ffffffffffffffffffffffffffffffffffffffff1673ffffffffffffffffffffffffffffffffffffffff16636352211e846040518263ffffffff1660e01b81526004016126c79190614180565b602060405180830381865afa1580156126e4573d6000803e3d6000fd5b505050506040513d601f19601f8201168201806040525081019061270891906141b0565b73ffffffffffffffffffffffffffffffffffffffff16146127295750612acd565b6000600d60008573ffffffffffffffffffffffffffffffffffffffff1673ffffffffffffffffffffffffffffffffffffffff168152602001908152602001600020905060008160000160009054906101000a900461ffff1661ffff1614156127fb574281600201819055506000816004018190555060018160060160006101000a81548160ff0219169083151502179055506000601681819054906101000a900461ffff16809291906127db906141dd565b91906101000a81548161ffff021916908361ffff16021790555050612812565b60006128056113ad565b9050808260040181905550505b428160030181905550806001018390806001815401808255809150506001900390600052602060002090601091828204019190066002029091909190916101000a81548161ffff021916908361ffff16021790555080600001600081819054906101000a900461ffff1680929190612889906141dd565b91906101000a81548161ffff021916908361ffff1602179055505080600d60008673ffffffffffffffffffffffffffffffffffffffff1673ffffffffffffffffffffffffffffffffffffffff1681526020019081526020016000206000820160009054906101000a900461ffff168160000160006101000a81548161ffff021916908361ffff160217905550600182018160010190805461292b9291906130e2565b50600282015481600201556003820154816003015560048201548160040155600582015481600501556006820160009054906101000a900460ff168160060160006101000a81548160ff0219169083151502179055509050506001600e600084815260200190815260200160002060006101000a81548160ff0219169083151502179055506000601481819054906101000a900461ffff16809291906129d0906141dd565b91906101000a81548161ffff021916908361ffff16021790555050600260009054906101000a900473ffffffffffffffffffffffffffffffffffffffff1673ffffffffffffffffffffffffffffffffffffffff166323b872dd8530866040518463ffffffff1660e01b8152600401612a4a93929190614208565b600060405180830381600087803b158015612a6457600080fd5b505af1158015612a78573d6000803e3d6000fd5b505050508373ffffffffffffffffffffffffffffffffffffffff167f9a2f579c219eb1955c7485729ed1260d94d6e9f49d593852f6589f9d01041ab184604051612ac29190613810565b60405180910390a250505b5050565b60008282604051602001612ae6929190614123565b604051602081830303815290604052805190602001209050600e600082815260200190815260200160002060009054906101000a900460ff1615612e24576000612b2e6113ad565b905080600d60008673ffffffffffffffffffffffffffffffffffffffff1673ffffffffffffffffffffffffffffffffffffffff16815260200190815260200160002060040181905550600d60008573ffffffffffffffffffffffffffffffffffffffff1673ffffffffffffffffffffffffffffffffffffffff168152602001908152602001600020600001600081819054906101000a900461ffff1680929190612bd79061423f565b91906101000a81548161ffff021916908361ffff1602179055505042600d60008673ffffffffffffffffffffffffffffffffffffffff1673ffffffffffffffffffffffffffffffffffffffff16815260200190815260200160002060030181905550600260009054906101000a900473ffffffffffffffffffffffffffffffffffffffff1673ffffffffffffffffffffffffffffffffffffffff166323b872dd3086866040518463ffffffff1660e01b8152600401612c9893929190614208565b600060405180830381600087803b158015612cb257600080fd5b505af1158015612cc6573d6000803e3d6000fd5b505050506000600e600084815260200190815260200160002060006101000a81548160ff0219169083151502179055506000601481819054906101000a900461ffff1680929190612d169061423f565b91906101000a81548161ffff021916908361ffff160217905550506000600d60008673ffffffffffffffffffffffffffffffffffffffff1673ffffffffffffffffffffffffffffffffffffffff16815260200190815260200160002060000160009054906101000a900461ffff1661ffff161415612dca576000601681819054906101000a900461ffff1680929190612dae9061423f565b91906101000a81548161ffff021916908361ffff160217905550505b612dd48385612e81565b8373ffffffffffffffffffffffffffffffffffffffff167f56853f8f6e1153ce606e228ce2f7f10ccf941a927cda730647d5f8006abcd93a84604051612e1a9190613810565b60405180910390a2505b505050565b60008183612e379190614074565b905092915050565b60008183612e4d9190614269565b905092915050565b60008183612e639190613f26565b905092915050565b60008183612e799190614011565b905092915050565b6000600d60008373ffffffffffffffffffffffffffffffffffffffff1673ffffffffffffffffffffffffffffffffffffffff168152602001908152602001600020600101905060018180549050148015612f1957508261ffff1681600081548110612eef57612eee613d09565b5b90600052602060002090601091828204019190066002029054906101000a900461ffff1661ffff16145b15612f7957606080600d60008573ffffffffffffffffffffffffffffffffffffffff1673ffffffffffffffffffffffffffffffffffffffff1681526020019081526020016000206001019080519060200190612f76929190613142565b50505b6000612f858484612366565b905081805490508110156130dc5760008190505b60018380549050612faa9190614011565b8110156130495782600182612fbf9190613f26565b81548110612fd057612fcf613d09565b5b90600052602060002090601091828204019190066002029054906101000a900461ffff1683828154811061300757613006613d09565b5b90600052602060002090601091828204019190066002026101000a81548161ffff021916908361ffff160217905550808061304190613d67565b915050612f99565b508180548061305b5761305a6142c3565b5b60019003818190600052602060002090601091828204019190066002026101000a81549061ffff0219169055905581600d60008573ffffffffffffffffffffffffffffffffffffffff1673ffffffffffffffffffffffffffffffffffffffff1681526020019081526020016000206001019080546130da9291906131ec565b505b50505050565b82805482825590600052602060002090600f0160109004810192821561313157600052602060002091600f016010900482015b82811115613130578254825591600101919060010190613115565b5b50905061313e919061324c565b5090565b82805482825590600052602060002090600f016010900481019282156131db5791602002820160005b838211156131ab57835183826101000a81548161ffff021916908361ffff160217905550926020019260020160208160010104928301926001030261316b565b80156131d95782816101000a81549061ffff02191690556002016020816001010492830192600103026131ab565b505b5090506131e8919061324c565b5090565b82805482825590600052602060002090600f0160109004810192821561323b57600052602060002091600f016010900482015b8281111561323a57825482559160010191906001019061321f565b5b509050613248919061324c565b5090565b5b8082111561326557600081600090555060010161324d565b5090565b6000819050919050565b61327c81613269565b82525050565b60006020820190506132976000830184613273565b92915050565b6000604051905090565b600080fd5b600080fd5b600080fd5b6000601f19601f8301169050919050565b7f4e487b7100000000000000000000000000000000000000000000000000000000600052604160045260246000fd5b6132ff826132b6565b810181811067ffffffffffffffff8211171561331e5761331d6132c7565b5b80604052505050565b600061333161329d565b905061333d82826132f6565b919050565b600067ffffffffffffffff82111561335d5761335c6132c7565b5b602082029050602081019050919050565b600080fd5b600061ffff82169050919050565b61338a81613373565b811461339557600080fd5b50565b6000813590506133a781613381565b92915050565b60006133c06133bb84613342565b613327565b905080838252602082019050602084028301858111156133e3576133e261336e565b5b835b8181101561340c57806133f88882613398565b8452602084019350506020810190506133e5565b5050509392505050565b600082601f83011261342b5761342a6132b1565b5b813561343b8482602086016133ad565b91505092915050565b60006020828403121561345a576134596132a7565b5b600082013567ffffffffffffffff811115613478576134776132ac565b5b61348484828501613416565b91505092915050565b6000602082840312156134a3576134a26132a7565b5b60006134b184828501613398565b91505092915050565b600073ffffffffffffffffffffffffffffffffffffffff82169050919050565b60006134e5826134ba565b9050919050565b6134f5816134da565b811461350057600080fd5b50565b600081359050613512816134ec565b92915050565b61352181613269565b811461352c57600080fd5b50565b60008135905061353e81613518565b92915050565b600080fd5b600067ffffffffffffffff821115613564576135636132c7565b5b61356d826132b6565b9050602081019050919050565b82818337600083830152505050565b600061359c61359784613549565b613327565b9050828152602081018484840111156135b8576135b7613544565b5b6135c384828561357a565b509392505050565b600082601f8301126135e0576135df6132b1565b5b81356135f0848260208601613589565b91505092915050565b60008060008060808587031215613613576136126132a7565b5b600061362187828801613503565b945050602061363287828801613503565b93505060406136438782880161352f565b925050606085013567ffffffffffffffff811115613664576136636132ac565b5b613670878288016135cb565b91505092959194509250565b60007fffffffff0000000000000000000000000000000000000000000000000000000082169050919050565b6136b18161367c565b82525050565b60006020820190506136cc60008301846136a8565b92915050565b60008115159050919050565b6136e7816136d2565b82525050565b600060208201905061370260008301846136de565b92915050565b6000613713826134da565b9050919050565b61372381613708565b811461372e57600080fd5b50565b6000813590506137408161371a565b92915050565b60006020828403121561375c5761375b6132a7565b5b600061376a84828501613731565b91505092915050565b600060208284031215613789576137886132a7565b5b600061379784828501613503565b91505092915050565b6137a981613373565b82525050565b600060c0820190506137c460008301896137a0565b6137d16020830188613273565b6137de6040830187613273565b6137eb6060830186613273565b6137f86080830185613273565b61380560a08301846136de565b979650505050505050565b600060208201905061382560008301846137a0565b92915050565b6000613836826134da565b9050919050565b6138468161382b565b811461385157600080fd5b50565b6000813590506138638161383d565b92915050565b60006020828403121561387f5761387e6132a7565b5b600061388d84828501613854565b91505092915050565b6000819050919050565b60006138bb6138b66138b1846134ba565b613896565b6134ba565b9050919050565b60006138cd826138a0565b9050919050565b60006138df826138c2565b9050919050565b6138ef816138d4565b82525050565b600060208201905061390a60008301846138e6565b92915050565b600081519050919050565b600082825260208201905092915050565b6000819050602082019050919050565b61394581613373565b82525050565b6000613957838361393c565b60208301905092915050565b6000602082019050919050565b600061397b82613910565b613985818561391b565b93506139908361392c565b8060005b838110156139c15781516139a8888261394b565b97506139b383613963565b925050600181019050613994565b5085935050505092915050565b600060208201905081810360008301526139e88184613970565b905092915050565b6000604082019050613a056000830185613273565b613a126020830184613273565b9392505050565b60008060408385031215613a3057613a2f6132a7565b5b6000613a3e85828601613398565b9250506020613a4f85828601613503565b9150509250929050565b613a62816134da565b82525050565b6000602082019050613a7d6000830184613a59565b92915050565b6000819050919050565b613a9681613a83565b8114613aa157600080fd5b50565b600081359050613ab381613a8d565b92915050565b600060208284031215613acf57613ace6132a7565b5b6000613add84828501613aa4565b91505092915050565b6000613af1826138c2565b9050919050565b613b0181613ae6565b82525050565b6000602082019050613b1c6000830184613af8565b92915050565b600082825260208201905092915050565b7f41646d696e20776861743f000000000000000000000000000000000000000000600082015250565b6000613b69600b83613b22565b9150613b7482613b33565b602082019050919050565b60006020820190508181036000830152613b9881613b5c565b9050919050565b7f417070726f7665207468697320636f6e7472616374206173206f70657261746f60008201527f7200000000000000000000000000000000000000000000000000000000000000602082015250565b6000613bfb602183613b22565b9150613c0682613b9f565b604082019050919050565b60006020820190508181036000830152613c2a81613bee565b9050919050565b7f5374616b696e672064697361626c656400000000000000000000000000000000600082015250565b6000613c67601083613b22565b9150613c7282613c31565b602082019050919050565b60006020820190508181036000830152613c9681613c5a565b9050919050565b7f4e6f2072652d656e7472616e6379000000000000000000000000000000000000600082015250565b6000613cd3600e83613b22565b9150613cde82613c9d565b602082019050919050565b60006020820190508181036000830152613d0281613cc6565b9050919050565b7f4e487b7100000000000000000000000000000000000000000000000000000000600052603260045260246000fd5b7f4e487b7100000000000000000000000000000000000000000000000000000000600052601160045260246000fd5b6000613d7282613269565b91507fffffffffffffffffffffffffffffffffffffffffffffffffffffffffffffffff821415613da557613da4613d38565b5b600182019050919050565b7f4e6f20736b756c6c73207374616b656400000000000000000000000000000000600082015250565b6000613de6601083613b22565b9150613df182613db0565b602082019050919050565b60006020820190508181036000830152613e1581613dd9565b9050919050565b600081519050613e2b81613518565b92915050565b600060208284031215613e4757613e466132a7565b5b6000613e5584828501613e1c565b91505092915050565b50565b6000613e6e600083613b22565b9150613e7982613e5e565b600082019050919050565b60006020820190508181036000830152613e9d81613e61565b9050919050565b6000604082019050613eb96000830185613a59565b613ec66020830184613273565b9392505050565b613ed6816136d2565b8114613ee157600080fd5b50565b600081519050613ef381613ecd565b92915050565b600060208284031215613f0f57613f0e6132a7565b5b6000613f1d84828501613ee4565b91505092915050565b6000613f3182613269565b9150613f3c83613269565b9250827fffffffffffffffffffffffffffffffffffffffffffffffffffffffffffffffff03821115613f7157613f70613d38565b5b828201905092915050565b7f73656c656374203e203020746f6b656e73000000000000000000000000000000600082015250565b6000613fb2601183613b22565b9150613fbd82613f7c565b602082019050919050565b60006020820190508181036000830152613fe181613fa5565b9050919050565b6000604082019050613ffd6000830185613a59565b61400a6020830184613a59565b9392505050565b600061401c82613269565b915061402783613269565b92508282101561403a57614039613d38565b5b828203905092915050565b7f4e487b7100000000000000000000000000000000000000000000000000000000600052601260045260246000fd5b600061407f82613269565b915061408a83613269565b92508261409a57614099614045565b5b828204905092915050565b60008160601b9050919050565b60006140bd826140a5565b9050919050565b60006140cf826140b2565b9050919050565b6140e76140e2826134da565b6140c4565b82525050565b60008160f01b9050919050565b6000614105826140ed565b9050919050565b61411d61411882613373565b6140fa565b82525050565b600061412f82856140d6565b60148201915061413f828461410c565b6002820191508190509392505050565b600061416a61416561416084613373565b613896565b613269565b9050919050565b61417a8161414f565b82525050565b60006020820190506141956000830184614171565b92915050565b6000815190506141aa816134ec565b92915050565b6000602082840312156141c6576141c56132a7565b5b60006141d48482850161419b565b91505092915050565b60006141e882613373565b915061ffff8214156141fd576141fc613d38565b5b600182019050919050565b600060608201905061421d6000830186613a59565b61422a6020830185613a59565b6142376040830184614171565b949350505050565b600061424a82613373565b9150600082141561425e5761425d613d38565b5b600182039050919050565b600061427482613269565b915061427f83613269565b9250817fffffffffffffffffffffffffffffffffffffffffffffffffffffffffffffffff04831182151516156142b8576142b7613d38565b5b828202905092915050565b7f4e487b7100000000000000000000000000000000000000000000000000000000600052603160045260246000fdfea26469706673582212201a704828d979540571b4f07300bd706ca447e78dd4fa01b8ff309357f8bc36fc64736f6c634300080b0033",
  "immutableReferences": {},
  "source": "// SPDX-License-Identifier: MIT\npragma solidity >=0.4.22 <0.9.0;\npragma abicoder v2;\n\nimport \"@openzeppelin/contracts/token/ERC20/IERC20.sol\";\nimport \"@openzeppelin/contracts/token/ERC721/IERC721.sol\";\nimport \"@openzeppelin/contracts/token/ERC721/IERC721Receiver.sol\";\nimport \"@openzeppelin/contracts/utils/math/SafeMath.sol\";\n\ncontract croSkullStaking is IERC721Receiver {\n    using SafeMath for uint;\n\n    //Mutable Main settings\n    address public owner;\n    uint16 public stakedSkullsCount;\n    uint16 public usersCount;\n    bool public started;\n    bool public withdrawEnabled;\n\n    //Contracts\n    IERC20 public rewardToken;\n    IERC721 public croSkullContract;\n\n    //NFT Supply\n    uint16 croSkullContractMaxSupply = 6666;\n\n    //Pool settings\n    uint public percentOperator = 1000;\n    uint public poolRewardSupply;\n    uint public poolWithdrawedAmount;\n    uint public startStakeTimestamp;\n    uint public vestingDuration = 3 * 365 days;\n    uint public cycleInterval = 10 seconds;\n    uint public soulsDropInterval = 60 days;\n    uint public stakeMalusDuration = 20 days;\n    uint public stakeMalusFee = 50;\n\n    bool internal locked;\n\n    mapping(address => UserInfo) public userDetails;\n\n    struct UserInfo {\n        uint16 tokenCount;\n        uint16[] tokensIds;\n        uint lastWithdrawTimestamp;\n        uint startingStake;\n        uint availableBalance;\n        uint alreadyClaimed;\n        bool enabled;\n    }\n    // [tokenId] owner\n    mapping( bytes32 => bool ) public skullsOwner;\n    //[keccka256|address:owner][keccka256|uint16:tokenId]\n    //uint256[][] private skullsOwner;\n\n\n    modifier onlyOwner() {\n        require(msg.sender == owner, \"Admin what?\");\n        _;\n    }\n\n    modifier isApproved() {\n        require( approvalStatus(), \"Approve this contract as operator\" );\n        _;\n    }\n\n    modifier isStake() {\n        require( startStakeTimestamp > 0, \"Staking disabled\" );\n        _;\n    }\n\n    modifier noReentrant() {\n        require(!locked, \"No re-entrancy\");\n        locked = true;\n        _;\n        locked = false;\n    }\n\n    event Stake(address indexed user, uint16 tokenId);\n    event unStake(address indexed user, uint16 tokenId);\n    event Withdraw(address indexed user, uint256 amout);\n\n    constructor ( ) \n    {\n        owner = msg.sender;\n        startStakeTimestamp = 0;\n        usersCount = 0;\n        withdrawEnabled = false;\n    }\n\n    /* \n        Only owner methods\n    */\n    function toggleWithdrawSouls () public onlyOwner {\n        withdrawEnabled = ! withdrawEnabled;\n    }\n\n    function adminUnlock () public onlyOwner {\n        require( locked );\n        locked = !locked;\n    }\n\n    function adminUnstake (uint16 _tokenId, address _ownerOf ) public onlyOwner {\n        _unstakeSkull( _ownerOf, _tokenId );\n    }\n\n    function startRewards() public onlyOwner {\n        require( startStakeTimestamp == 0, \"\");\n        startStakeTimestamp = block.timestamp;\n        started = true;\n    }\n\n    function fundRewardPool() public onlyOwner {\n        poolRewardSupply = rewardToken.balanceOf( address(this) );\n    }\n\n    function adminBurnUnvested () public onlyOwner {\n        require( startStakeTimestamp > 0 );\n        uint contractBalance = rewardToken.balanceOf( address(this) );\n        require( contractBalance > 0 );\n        rewardToken.transfer( owner, contractBalance );\n    }\n\n    function setNFTAddress( IERC721 _nftContract ) public onlyOwner {\n        croSkullContract = _nftContract;\n    }\n\n    function setTokenAddress( IERC20 _tokenAddress ) public onlyOwner {\n        rewardToken = _tokenAddress;\n    }\n\n    /* public view function */\n    function _rewardPerCycles() public view returns(uint) { \n        uint rewardPerCycles = poolRewardSupply\n            .div(vestingDuration)\n            .mul(cycleInterval);\n        return rewardPerCycles;\n    }\n\n    /**\n       Modifier: isApproved || isWithdraw || isStake for stakeholders public methods \n     */\n\n    function batchStakeSkulls( uint16[] memory _tokenIds ) public isApproved isStake noReentrant {\n        address _from = msg.sender;\n        require( _tokenIds.length > 0 );\n        for( uint i = 0; i < _tokenIds.length; i++ ){\n            _stakeSkull(_from, _tokenIds[i]);\n        }\n    }\n\n    function batchUnstakeSkulls( uint16[] memory _tokenIds ) public isApproved isStake noReentrant {\n        address _to = msg.sender;\n        require( _tokenIds.length > 0, \"select > 0 tokens\" );\n        for( uint i = 0; i < _tokenIds.length; i++ ){\n            _unstakeSkull( _to , _tokenIds[i] );\n        }\n    }\n\n    function stakeSkull ( uint16 _tokenId ) public isApproved isStake noReentrant {\n        address _from = msg.sender;\n        _stakeSkull(_from, _tokenId);\n    }\n\n    function unstakeSkull ( uint16 _tokenId ) public isApproved isStake noReentrant {\n        address _to = msg.sender;\n        UserInfo storage currentUser = userDetails[_to];\n        uint skullsAmount = currentUser.tokenCount;\n        require( skullsAmount > 0, \"No skulls staked\" );\n        if( currentUser.tokenCount > 0 ){\n            _unstakeSkull(_to, _tokenId);\n        }\n    }\n\n    function _stakeSkull(address _from, uint16 _tokenId  ) private {\n\n        //[keccka256|address:owner][keccka256|uint16:tokenId]\n        bytes32 tokenHash = keccak256(\n            abi.encodePacked(\n                _from,\n                _tokenId\n            )\n        );\n        if ( croSkullContract.ownerOf(_tokenId) != _from  ) // skull already staked || not owner\n            return;\n\n        UserInfo storage currentUser = userDetails[_from];\n        if( currentUser.tokenCount == 0 ) {\n            currentUser.lastWithdrawTimestamp = block.timestamp;\n            currentUser.availableBalance = 0;\n            currentUser.enabled = true;\n            usersCount++;\n        }else{\n            uint userRewards = calculateRewards();\n            currentUser.availableBalance = userRewards;\n        }\n        currentUser.startingStake = block.timestamp;\n        currentUser.tokensIds.push(_tokenId);\n        currentUser.tokenCount++;\n        userDetails[_from] = currentUser;\n        skullsOwner[tokenHash] = true;\n        stakedSkullsCount++;\n        croSkullContract.transferFrom( _from, address(this), _tokenId );\n        \n        //require( croSkullContract.ownerOf(_tokenId) == address(this), \"Staking Failed\" );\n        emit Stake(_from, _tokenId);\n    }\n\n    function _unstakeSkull(address _to, uint16 _tokenId ) private {\n        bytes32 tokenHash = keccak256(\n            abi.encodePacked(\n                _to,\n                _tokenId\n            )\n        );\n        //check previous owner and check if == _to\n        if( skullsOwner[tokenHash] ) {\n            uint userRewards = calculateRewards();\n            userDetails[_to].availableBalance = userRewards;\n            userDetails[_to].tokenCount--;\n            userDetails[_to].startingStake = block.timestamp;\n            croSkullContract.transferFrom(address(this), _to, _tokenId);\n            skullsOwner[tokenHash] = false;\n            stakedSkullsCount--;\n            if( userDetails[_to].tokenCount == 0 ) {\n                usersCount--;\n            }\n            _removeTokenId(_tokenId, _to);\n            //require( croSkullContract.ownerOf(_tokenId) == _to, \"Unstake Failed\" );\n            emit unStake(_to, _tokenId);\n        }\n    }\n\n    function withdraw () public isApproved noReentrant {\n        address _to = msg.sender;\n        require( userDetails[_to].startingStake > 0 );\n        uint userRewards = calculateRewardsPlusMalus();\n        require( rewardToken.balanceOf( address(this) ) >= userRewards );\n        require( rewardToken.transfer( _to, userRewards ) );\n        poolWithdrawedAmount += userRewards;\n        userDetails[_to].lastWithdrawTimestamp = block.timestamp;\n        userDetails[_to].startingStake = block.timestamp;\n        userDetails[_to].alreadyClaimed = userRewards;\n        userDetails[_to].availableBalance = 0;\n    }\n\n    function _tenSecCyclesPassed () public view isApproved returns(uint) {\n        require( startStakeTimestamp > 0 );\n        uint currentTimestamp = block.timestamp;\n        /*uint actualStakeMinutes = currentTimestamp\n            .sub(userDetails[msg.sender].startingStake)\n            .div(cycleInterval);*/\n        uint actualStakeMinutes = ( block.timestamp - userDetails[msg.sender].startingStake ) / 10 seconds;\n        return actualStakeMinutes;\n    }\n\n    function _tenSecCyclesPassedLastWithdraw () public view isApproved returns(uint) {\n        require( startStakeTimestamp > 0 );\n        \n        uint actualStakeMinutes = ( block.timestamp - userDetails[msg.sender].lastWithdrawTimestamp ) / 10 seconds;\n        return actualStakeMinutes;\n    }\n\n    function calculateDroppedSouls() public view isApproved isStake returns (uint) {\n        UserInfo storage tempUser = userDetails[msg.sender];\n        uint16 tokenCount = tempUser.tokenCount; // total staked nfts\n        uint totalActiveSeconds = _tenSecCyclesPassedLastWithdraw() // 1200 s\n            .mul(10);\n\n        uint totalMinedSouls = totalActiveSeconds\n            .div(soulsDropInterval)\n            .mul(tokenCount);\n\n        return totalMinedSouls;\n    }\n\n    function daysSinceLastWithdraw() public view isApproved isStake returns( uint, uint ) {\n        uint userActiveCycles = _tenSecCyclesPassedLastWithdraw(); \n        uint totalSecondsPassed = userActiveCycles // if 1728 userActive cicles\n            .mul(cycleInterval);// 1728 * 10 = 17280 s passed\n\n        uint nDaysPassed;\n        \n        if( 1 days > totalSecondsPassed ){\n            nDaysPassed = 0;\n        }else{\n            nDaysPassed = totalSecondsPassed\n            .div(1 days);// 17280 / 86480 = 2 days\n        }\n        return (\n            nDaysPassed,\n            totalSecondsPassed\n        );\n    }\n\n    function calculateMalusFee() public view isApproved isStake returns( uint ) {\n        ( uint nDaysPassed, uint totalSecondsPassed ) = daysSinceLastWithdraw();\n        uint MalusFee = 0;\n        \n        if( totalSecondsPassed < stakeMalusDuration ){ // 1700 <\n            uint stakeMalusInDays = stakeMalusDuration\n                .div(1 days);\n\n            uint malusDays = stakeMalusInDays\n                .sub(nDaysPassed); //2\n            //18\n            uint malusCoef = malusDays// 18\n                .mul(percentOperator)\n                .div(stakeMalusInDays)// 18 / 20 = 0,9\n                .mul(100)// 90\n                .div(percentOperator);\n\n            MalusFee = stakeMalusFee // 50\n                .mul(percentOperator)\n                .div(100)// 50 / 100 = 0,5\n                .mul(malusCoef) // 0,5 * 90 = 45\n                .div(percentOperator);\n        }\n        return MalusFee;\n    }\n\n    function calculateRewardsPlusMalus() public view isApproved isStake returns( uint ) {\n        uint calulcatedMalusFee = calculateMalusFee();\n        uint rewardAmount = calculateRewards();\n        uint calculatedMalus = rewardAmount // 10 000\n                .div(100) // 100\n                .mul(calulcatedMalusFee); // 5 500\n\n        uint userRewardsPlusMalus = rewardAmount // 10 000\n            .sub(calculatedMalus); // 10 000 - 5 500 = 4 500\n\n        return userRewardsPlusMalus;\n    }\n\n    function calculateRewards() public view isApproved isStake returns(uint) {\n        UserInfo storage tempUser = userDetails[msg.sender];\n        uint16 tokenCount = tempUser.tokenCount; // total staked nfts\n\n        uint availableBalance = tempUser.availableBalance;\n        uint userActiveCycles = _tenSecCyclesPassed();\n\n        // calculate time diff and retrieve days\n        uint rewardPerCycles = _rewardPerCycles();\n        // rewardPerCycles / croSkullContractMaxSupply\n        uint rewardPerSkull = rewardPerCycles\n            .div(croSkullContractMaxSupply);\n\n        // rewardPerSkull * tokenCount\n        uint userRewardPerCycle = rewardPerSkull\n            .mul(tokenCount);\n\n        // userRewardPerSkulls * userActiveCycles\n        uint generatedRewards = userRewardPerCycle\n            .mul(userActiveCycles);\n\n\n        uint totalBalance = generatedRewards\n            .add(availableBalance);\n\n        return totalBalance;\n    }\n\n    /* Token utils */\n    function getTokensIds() public view returns( uint16[] memory ) {\n        UserInfo memory currentUser = userDetails[msg.sender];\n        return currentUser.tokensIds;//tempUeser.tokensIds;\n    }\n\n    function checkOwnership( uint16 _tokenId ) public view returns( bool ) {\n        bytes32 tokenHash = keccak256(\n            abi.encodePacked(\n                msg.sender,\n                _tokenId\n            )\n        );\n        bool isStaker  = ( skullsOwner[tokenHash] );\n        return isStaker;\n    }\n\n    /* Internal utils functions */\n    function onERC721Received(address, address, uint256, bytes memory) public virtual override returns (bytes4) {\n        return this.onERC721Received.selector;\n    }\n\n    function approvalStatus() public view returns (bool) {\n        return croSkullContract.isApprovedForAll(msg.sender, address(this));\n    }\n\n    function _removeTokenId(uint16 _tokenId, address _from ) internal {\n        uint16[] storage tokens = userDetails[_from].tokensIds;\n        if( tokens.length == 1 && tokens[0] == _tokenId ){\n            uint16[] memory emptyArray;\n            userDetails[_from].tokensIds = emptyArray;\n        }\n        uint index = getTokenIndex(_tokenId, _from);\n        //remove\n        if( index < tokens.length ) {\n            for (uint i = index; i < tokens.length - 1; i++) {\n                tokens[i] = tokens[i + 1];\n            }\n            tokens.pop();\n            userDetails[_from].tokensIds = tokens;\n        }\n    }\n\n    function getTokenIndex ( uint16 _tokenId, address _from) public view returns( uint ) {\n        uint index = 0;\n        uint16[] memory tokens = userDetails[_from].tokensIds;\n        for( uint i = 0; i < tokens.length; i++) {\n            if( _tokenId == tokens[i]){\n                return i;\n            }\n        }\n        return index;\n    }\n}\n",
  "sourcePath": "/Users/alessandrodecristofaro/Desktop/DeFi Code/cryptoboys-nft-marketplace/src/contracts/croSkullStaking.sol",
  "compiler": {
    "name": "solc",
    "version": "0.8.11+commit.d7f03943.Emscripten.clang"
  },
  "schemaVersion": "3.4.3",
  "updatedAt": "2022-01-19T19:46:26.791Z",
  "networkType": "ethereum",
  "devdoc": {
    "kind": "dev",
    "methods": {},
    "version": 1
  },
  "userdoc": {
    "kind": "user",
    "methods": {
      "batchStakeSkulls(uint16[])": {
        "notice": "Modifier: isApproved || isWithdraw || isStake for stakeholders public methods "
      }
    },
    "version": 1
  }
}