{
  "contractName": "CroSkullsAmbassador",
  "abi": [
    {
      "inputs": [],
      "stateMutability": "nonpayable",
      "type": "constructor"
    },
    {
      "anonymous": false,
      "inputs": [
        {
          "indexed": true,
          "internalType": "address",
          "name": "owner",
          "type": "address"
        },
        {
          "indexed": true,
          "internalType": "address",
          "name": "approved",
          "type": "address"
        },
        {
          "indexed": true,
          "internalType": "uint256",
          "name": "tokenId",
          "type": "uint256"
        }
      ],
      "name": "Approval",
      "type": "event"
    },
    {
      "anonymous": false,
      "inputs": [
        {
          "indexed": true,
          "internalType": "address",
          "name": "owner",
          "type": "address"
        },
        {
          "indexed": true,
          "internalType": "address",
          "name": "operator",
          "type": "address"
        },
        {
          "indexed": false,
          "internalType": "bool",
          "name": "approved",
          "type": "bool"
        }
      ],
      "name": "ApprovalForAll",
      "type": "event"
    },
    {
      "anonymous": false,
      "inputs": [
        {
          "indexed": true,
          "internalType": "address",
          "name": "from",
          "type": "address"
        },
        {
          "indexed": true,
          "internalType": "address",
          "name": "to",
          "type": "address"
        },
        {
          "indexed": true,
          "internalType": "uint256",
          "name": "tokenId",
          "type": "uint256"
        }
      ],
      "name": "Transfer",
      "type": "event"
    },
    {
      "inputs": [
        {
          "internalType": "address",
          "name": "",
          "type": "address"
        }
      ],
      "name": "addressMintedBalance",
      "outputs": [
        {
          "internalType": "uint256",
          "name": "",
          "type": "uint256"
        }
      ],
      "stateMutability": "view",
      "type": "function"
    },
    {
      "inputs": [
        {
          "internalType": "uint256",
          "name": "",
          "type": "uint256"
        }
      ],
      "name": "allCroSkulls",
      "outputs": [
        {
          "internalType": "uint256",
          "name": "tokenId",
          "type": "uint256"
        },
        {
          "internalType": "address",
          "name": "mintedBy",
          "type": "address"
        },
        {
          "internalType": "address",
          "name": "currentOwner",
          "type": "address"
        },
        {
          "internalType": "address",
          "name": "previousOwner",
          "type": "address"
        }
      ],
      "stateMutability": "view",
      "type": "function"
    },
    {
      "inputs": [
        {
          "internalType": "address",
          "name": "to",
          "type": "address"
        },
        {
          "internalType": "uint256",
          "name": "tokenId",
          "type": "uint256"
        }
      ],
      "name": "approve",
      "outputs": [],
      "stateMutability": "nonpayable",
      "type": "function"
    },
    {
      "inputs": [
        {
          "internalType": "address",
          "name": "owner",
          "type": "address"
        }
      ],
      "name": "balanceOf",
      "outputs": [
        {
          "internalType": "uint256",
          "name": "",
          "type": "uint256"
        }
      ],
      "stateMutability": "view",
      "type": "function"
    },
    {
      "inputs": [],
      "name": "baseURI",
      "outputs": [
        {
          "internalType": "string",
          "name": "",
          "type": "string"
        }
      ],
      "stateMutability": "view",
      "type": "function"
    },
    {
      "inputs": [],
      "name": "collectionName",
      "outputs": [
        {
          "internalType": "string",
          "name": "",
          "type": "string"
        }
      ],
      "stateMutability": "view",
      "type": "function"
    },
    {
      "inputs": [],
      "name": "collectionNameSymbol",
      "outputs": [
        {
          "internalType": "string",
          "name": "",
          "type": "string"
        }
      ],
      "stateMutability": "view",
      "type": "function"
    },
    {
      "inputs": [],
      "name": "croSkullCounter",
      "outputs": [
        {
          "internalType": "uint256",
          "name": "",
          "type": "uint256"
        }
      ],
      "stateMutability": "view",
      "type": "function"
    },
    {
      "inputs": [
        {
          "internalType": "uint256",
          "name": "tokenId",
          "type": "uint256"
        }
      ],
      "name": "getApproved",
      "outputs": [
        {
          "internalType": "address",
          "name": "",
          "type": "address"
        }
      ],
      "stateMutability": "view",
      "type": "function"
    },
    {
      "inputs": [
        {
          "internalType": "address",
          "name": "owner",
          "type": "address"
        },
        {
          "internalType": "address",
          "name": "operator",
          "type": "address"
        }
      ],
      "name": "isApprovedForAll",
      "outputs": [
        {
          "internalType": "bool",
          "name": "",
          "type": "bool"
        }
      ],
      "stateMutability": "view",
      "type": "function"
    },
    {
      "inputs": [],
      "name": "name",
      "outputs": [
        {
          "internalType": "string",
          "name": "",
          "type": "string"
        }
      ],
      "stateMutability": "view",
      "type": "function"
    },
    {
      "inputs": [],
      "name": "owner",
      "outputs": [
        {
          "internalType": "address",
          "name": "",
          "type": "address"
        }
      ],
      "stateMutability": "view",
      "type": "function"
    },
    {
      "inputs": [
        {
          "internalType": "uint256",
          "name": "tokenId",
          "type": "uint256"
        }
      ],
      "name": "ownerOf",
      "outputs": [
        {
          "internalType": "address",
          "name": "",
          "type": "address"
        }
      ],
      "stateMutability": "view",
      "type": "function"
    },
    {
      "inputs": [
        {
          "internalType": "address",
          "name": "from",
          "type": "address"
        },
        {
          "internalType": "address",
          "name": "to",
          "type": "address"
        },
        {
          "internalType": "uint256",
          "name": "tokenId",
          "type": "uint256"
        }
      ],
      "name": "safeTransferFrom",
      "outputs": [],
      "stateMutability": "nonpayable",
      "type": "function"
    },
    {
      "inputs": [
        {
          "internalType": "address",
          "name": "from",
          "type": "address"
        },
        {
          "internalType": "address",
          "name": "to",
          "type": "address"
        },
        {
          "internalType": "uint256",
          "name": "tokenId",
          "type": "uint256"
        },
        {
          "internalType": "bytes",
          "name": "_data",
          "type": "bytes"
        }
      ],
      "name": "safeTransferFrom",
      "outputs": [],
      "stateMutability": "nonpayable",
      "type": "function"
    },
    {
      "inputs": [
        {
          "internalType": "address",
          "name": "operator",
          "type": "address"
        },
        {
          "internalType": "bool",
          "name": "approved",
          "type": "bool"
        }
      ],
      "name": "setApprovalForAll",
      "outputs": [],
      "stateMutability": "nonpayable",
      "type": "function"
    },
    {
      "inputs": [
        {
          "internalType": "bytes4",
          "name": "interfaceId",
          "type": "bytes4"
        }
      ],
      "name": "supportsInterface",
      "outputs": [
        {
          "internalType": "bool",
          "name": "",
          "type": "bool"
        }
      ],
      "stateMutability": "view",
      "type": "function"
    },
    {
      "inputs": [],
      "name": "symbol",
      "outputs": [
        {
          "internalType": "string",
          "name": "",
          "type": "string"
        }
      ],
      "stateMutability": "view",
      "type": "function"
    },
    {
      "inputs": [
        {
          "internalType": "uint256",
          "name": "index",
          "type": "uint256"
        }
      ],
      "name": "tokenByIndex",
      "outputs": [
        {
          "internalType": "uint256",
          "name": "",
          "type": "uint256"
        }
      ],
      "stateMutability": "view",
      "type": "function"
    },
    {
      "inputs": [
        {
          "internalType": "address",
          "name": "owner",
          "type": "address"
        },
        {
          "internalType": "uint256",
          "name": "index",
          "type": "uint256"
        }
      ],
      "name": "tokenOfOwnerByIndex",
      "outputs": [
        {
          "internalType": "uint256",
          "name": "",
          "type": "uint256"
        }
      ],
      "stateMutability": "view",
      "type": "function"
    },
    {
      "inputs": [
        {
          "internalType": "uint256",
          "name": "tokenId",
          "type": "uint256"
        }
      ],
      "name": "tokenURI",
      "outputs": [
        {
          "internalType": "string",
          "name": "",
          "type": "string"
        }
      ],
      "stateMutability": "view",
      "type": "function"
    },
    {
      "inputs": [],
      "name": "totalSupply",
      "outputs": [
        {
          "internalType": "uint256",
          "name": "",
          "type": "uint256"
        }
      ],
      "stateMutability": "view",
      "type": "function"
    },
    {
      "inputs": [
        {
          "internalType": "address",
          "name": "from",
          "type": "address"
        },
        {
          "internalType": "address",
          "name": "to",
          "type": "address"
        },
        {
          "internalType": "uint256",
          "name": "tokenId",
          "type": "uint256"
        }
      ],
      "name": "transferFrom",
      "outputs": [],
      "stateMutability": "nonpayable",
      "type": "function"
    },
    {
      "inputs": [
        {
          "internalType": "string",
          "name": "baseURI",
          "type": "string"
        }
      ],
      "name": "setBaseURI",
      "outputs": [],
      "stateMutability": "nonpayable",
      "type": "function"
    },
    {
      "inputs": [
        {
          "internalType": "uint256",
          "name": "_mintAmount",
          "type": "uint256"
        },
        {
          "internalType": "address",
          "name": "_to",
          "type": "address"
        }
      ],
      "name": "adminMintCroSkull",
      "outputs": [],
      "stateMutability": "nonpayable",
      "type": "function"
    },
    {
      "inputs": [],
      "name": "getOwner",
      "outputs": [
        {
          "internalType": "address",
          "name": "",
          "type": "address"
        }
      ],
      "stateMutability": "view",
      "type": "function"
    },
    {
      "inputs": [
        {
          "internalType": "uint256",
          "name": "_tokenId",
          "type": "uint256"
        }
      ],
      "name": "getTokenOwner",
      "outputs": [
        {
          "internalType": "address",
          "name": "",
          "type": "address"
        }
      ],
      "stateMutability": "view",
      "type": "function"
    },
    {
      "inputs": [
        {
          "internalType": "uint256",
          "name": "_tokenId",
          "type": "uint256"
        }
      ],
      "name": "getTokenMetaData",
      "outputs": [
        {
          "internalType": "string",
          "name": "",
          "type": "string"
        }
      ],
      "stateMutability": "view",
      "type": "function"
    },
    {
      "inputs": [],
      "name": "getNumberOfTokensMinted",
      "outputs": [
        {
          "internalType": "uint256",
          "name": "",
          "type": "uint256"
        }
      ],
      "stateMutability": "view",
      "type": "function"
    },
    {
      "inputs": [
        {
          "internalType": "address",
          "name": "_owner",
          "type": "address"
        }
      ],
      "name": "getTotalNumberOfTokensOwnedByAnAddress",
      "outputs": [
        {
          "internalType": "uint256",
          "name": "",
          "type": "uint256"
        }
      ],
      "stateMutability": "view",
      "type": "function"
    },
    {
      "inputs": [
        {
          "internalType": "uint256",
          "name": "_tokenId",
          "type": "uint256"
        }
      ],
      "name": "getTokenExists",
      "outputs": [
        {
          "internalType": "bool",
          "name": "",
          "type": "bool"
        }
      ],
      "stateMutability": "view",
      "type": "function"
    }
  ],
  "bytecode": "0x60806040523480156200001157600080fd5b506040518060400160405280601281526020017f43524f536b756c6c416d6261737361646f7200000000000000000000000000008152506040518060400160405280600381526020017f4352410000000000000000000000000000000000000000000000000000000000815250620000966301ffc9a760e01b620001a960201b60201c565b8160069080519060200190620000ae929190620003b5565b508060079080519060200190620000c7929190620003b5565b50620000e06380ac58cd60e01b620001a960201b60201c565b620000f8635b5e139f60e01b620001a960201b60201c565b6200011063780e9d6360e01b620001a960201b60201c565b505033600d60006101000a81548173ffffffffffffffffffffffffffffffffffffffff021916908373ffffffffffffffffffffffffffffffffffffffff160217905550620001636200028160201b60201c565b600a90805190602001906200017a929190620003b5565b506200018b6200031b60201b60201c565b600b9080519060200190620001a2929190620003b5565b506200053f565b63ffffffff60e01b817bffffffffffffffffffffffffffffffffffffffffffffffffffffffff1916141562000215576040517f08c379a00000000000000000000000000000000000000000000000000000000081526004016200020c90620004a7565b60405180910390fd5b6001600080837bffffffffffffffffffffffffffffffffffffffffffffffffffffffff19167bffffffffffffffffffffffffffffffffffffffffffffffffffffffff1916815260200190815260200160002060006101000a81548160ff02191690831515021790555050565b6060600680546200029290620004da565b80601f0160208091040260200160405190810160405280929190818152602001828054620002c090620004da565b8015620003115780601f10620002e55761010080835404028352916020019162000311565b820191906000526020600020905b815481529060010190602001808311620002f357829003601f168201915b5050505050905090565b6060600780546200032c90620004da565b80601f01602080910402602001604051908101604052809291908181526020018280546200035a90620004da565b8015620003ab5780601f106200037f57610100808354040283529160200191620003ab565b820191906000526020600020905b8154815290600101906020018083116200038d57829003601f168201915b5050505050905090565b828054620003c390620004da565b90600052602060002090601f016020900481019282620003e7576000855562000433565b82601f106200040257805160ff191683800117855562000433565b8280016001018555821562000433579182015b828111156200043257825182559160200191906001019062000415565b5b50905062000442919062000446565b5090565b5b808211156200046157600081600090555060010162000447565b5090565b600062000474601c83620004c9565b91507f4552433136353a20696e76616c696420696e74657266616365206964000000006000830152602082019050919050565b60006020820190508181036000830152620004c28162000465565b9050919050565b600082825260208201905092915050565b60006002820490506001821680620004f357607f821691505b602082108114156200050a576200050962000510565b5b50919050565b7f4e487b7100000000000000000000000000000000000000000000000000000000600052602260045260246000fd5b613b01806200054f6000396000f3fe608060405234801561001057600080fd5b50600436106101e55760003560e01c806367c623cf1161010f578063a22cb465116100a2578063cc151f3a11610071578063cc151f3a146105f3578063d34f6ecb14610611578063e5326ab11461062f578063e985e9c51461064d576101e5565b8063a22cb4651461055b578063a5cd761f14610577578063b88d4fde146105a7578063c87b56dd146105c3576101e5565b8063893d20e8116100de578063893d20e8146104ce5780638da5cb5b146104ec57806395d89b411461050a5780639a59758f14610528576101e5565b806367c623cf146104325780636c0360eb146104625780636f9507f91461048057806370a082311461049e576101e5565b806323b872dd116101875780634944ec5e116101565780634944ec5e1461039a5780634f6ccce7146103b657806355f804b3146103e65780636352211e14610402576101e5565b806323b872dd146103025780632f745c591461031e57806342842e0e1461034e578063439028501461036a576101e5565b8063095ea7b3116101c3578063095ea7b314610268578063142687f31461028457806318160ddd146102b457806318cae269146102d2576101e5565b806301ffc9a7146101ea57806306fdde031461021a578063081812fc14610238575b600080fd5b61020460048036038101906101ff9190612a9b565b61067d565b6040516102119190613364565b60405180910390f35b6102226106e4565b60405161022f919061337f565b60405180910390f35b610252600480360381019061024d9190612b2e565b610776565b60405161025f91906132fd565b60405180910390f35b610282600480360381019061027d9190612a5f565b6107fb565b005b61029e60048036038101906102999190612b2e565b610913565b6040516102ab9190613364565b60405180910390f35b6102bc61092a565b6040516102c991906135c1565b60405180910390f35b6102ec60048036038101906102e791906128f4565b61093b565b6040516102f991906135c1565b60405180910390f35b61031c60048036038101906103179190612959565b610953565b005b61033860048036038101906103339190612a5f565b6109b3565b60405161034591906135c1565b60405180910390f35b61036860048036038101906103639190612959565b610a0e565b005b610384600480360381019061037f91906128f4565b610a2e565b60405161039191906135c1565b60405180910390f35b6103b460048036038101906103af9190612b57565b610a45565b005b6103d060048036038101906103cb9190612b2e565b610d0a565b6040516103dd91906135c1565b60405180910390f35b61040060048036038101906103fb9190612aed565b610d2d565b005b61041c60048036038101906104179190612b2e565b610d93565b60405161042991906132fd565b60405180910390f35b61044c60048036038101906104479190612b2e565b610dca565b604051610459919061337f565b60405180910390f35b61046a610de2565b604051610477919061337f565b60405180910390f35b610488610e74565b604051610495919061337f565b60405180910390f35b6104b860048036038101906104b391906128f4565b610f02565b6040516104c591906135c1565b60405180910390f35b6104d6610fc1565b6040516104e391906132fd565b60405180910390f35b6104f4610feb565b60405161050191906132fd565b60405180910390f35b610512611011565b60405161051f919061337f565b60405180910390f35b610542600480360381019061053d9190612b2e565b6110a3565b60405161055294939291906135dc565b60405180910390f35b61057560048036038101906105709190612a23565b611133565b005b610591600480360381019061058c9190612b2e565b6112b4565b60405161059e91906132fd565b60405180910390f35b6105c160048036038101906105bc91906129a8565b6112cb565b005b6105dd60048036038101906105d89190612b2e565b61132d565b6040516105ea919061337f565b60405180910390f35b6105fb6114a0565b60405161060891906135c1565b60405180910390f35b6106196114b4565b60405161062691906135c1565b60405180910390f35b6106376114ba565b604051610644919061337f565b60405180910390f35b6106676004803603810190610662919061291d565b611548565b6040516106749190613364565b60405180910390f35b6000806000837bffffffffffffffffffffffffffffffffffffffffffffffffffffffff19167bffffffffffffffffffffffffffffffffffffffffffffffffffffffff1916815260200190815260200160002060009054906101000a900460ff169050919050565b6060600680546106f39061389b565b80601f016020809104026020016040519081016040528092919081815260200182805461071f9061389b565b801561076c5780601f106107415761010080835404028352916020019161076c565b820191906000526020600020905b81548152906001019060200180831161074f57829003601f168201915b5050505050905090565b6000610781826115dc565b6107c0576040517f08c379a00000000000000000000000000000000000000000000000000000000081526004016107b790613501565b60405180910390fd5b6004600083815260200190815260200160002060009054906101000a900473ffffffffffffffffffffffffffffffffffffffff169050919050565b600061080682610d93565b90508073ffffffffffffffffffffffffffffffffffffffff168373ffffffffffffffffffffffffffffffffffffffff161415610877576040517f08c379a000000000000000000000000000000000000000000000000000000000815260040161086e90613561565b60405180910390fd5b8073ffffffffffffffffffffffffffffffffffffffff166108966115f9565b73ffffffffffffffffffffffffffffffffffffffff1614806108c557506108c4816108bf6115f9565b611548565b5b610904576040517f08c379a00000000000000000000000000000000000000000000000000000000081526004016108fb90613481565b60405180910390fd5b61090e8383611601565b505050565b60008061091f836115dc565b905080915050919050565b600061093660026116ba565b905090565b600f6020528060005260406000206000915090505481565b61096461095e6115f9565b826116cf565b6109a3576040517f08c379a000000000000000000000000000000000000000000000000000000000815260040161099a90613581565b60405180910390fd5b6109ae8383836117ad565b505050565b6000610a0682600160008673ffffffffffffffffffffffffffffffffffffffff1673ffffffffffffffffffffffffffffffffffffffff1681526020019081526020016000206119c490919063ffffffff16565b905092915050565b610a29838383604051806020016040528060008152506112cb565b505050565b600080610a3a83610f02565b905080915050919050565b600d60009054906101000a900473ffffffffffffffffffffffffffffffffffffffff1673ffffffffffffffffffffffffffffffffffffffff163373ffffffffffffffffffffffffffffffffffffffff1614610a9f57600080fd5b600073ffffffffffffffffffffffffffffffffffffffff168173ffffffffffffffffffffffffffffffffffffffff161415610ad957600080fd5b60008211610ae657600080fd5b6000610af061092a565b90506000600190505b838111610d0457600c6000815480929190610b13906138cd565b9190505550610b23600c546115dc565b15610b2d57600080fd5b600f60008473ffffffffffffffffffffffffffffffffffffffff1673ffffffffffffffffffffffffffffffffffffffff1681526020019081526020016000206000815480929190610b7d906138cd565b9190505550610b8e83600c546119de565b60006040518060800160405280600c5481526020013373ffffffffffffffffffffffffffffffffffffffff1681526020018573ffffffffffffffffffffffffffffffffffffffff168152602001600073ffffffffffffffffffffffffffffffffffffffff16815250905080600e6000600c5481526020019081526020016000206000820151816000015560208201518160010160006101000a81548173ffffffffffffffffffffffffffffffffffffffff021916908373ffffffffffffffffffffffffffffffffffffffff16021790555060408201518160020160006101000a81548173ffffffffffffffffffffffffffffffffffffffff021916908373ffffffffffffffffffffffffffffffffffffffff16021790555060608201518160030160006101000a81548173ffffffffffffffffffffffffffffffffffffffff021916908373ffffffffffffffffffffffffffffffffffffffff160217905550905050508080610cfc906138cd565b915050610af9565b50505050565b600080610d21836002611b6c90919063ffffffff16565b50905080915050919050565b600d60009054906101000a900473ffffffffffffffffffffffffffffffffffffffff1673ffffffffffffffffffffffffffffffffffffffff163373ffffffffffffffffffffffffffffffffffffffff1614610d8757600080fd5b610d9081611b98565b50565b6000610dc382604051806060016040528060298152602001613aa3602991396002611bb29092919063ffffffff16565b9050919050565b60606000610dd78361132d565b905080915050919050565b606060098054610df19061389b565b80601f0160208091040260200160405190810160405280929190818152602001828054610e1d9061389b565b8015610e6a5780601f10610e3f57610100808354040283529160200191610e6a565b820191906000526020600020905b815481529060010190602001808311610e4d57829003601f168201915b5050505050905090565b600b8054610e819061389b565b80601f0160208091040260200160405190810160405280929190818152602001828054610ead9061389b565b8015610efa5780601f10610ecf57610100808354040283529160200191610efa565b820191906000526020600020905b815481529060010190602001808311610edd57829003601f168201915b505050505081565b60008073ffffffffffffffffffffffffffffffffffffffff168273ffffffffffffffffffffffffffffffffffffffff161415610f73576040517f08c379a0000000000000000000000000000000000000000000000000000000008152600401610f6a906134a1565b60405180910390fd5b610fba600160008473ffffffffffffffffffffffffffffffffffffffff1673ffffffffffffffffffffffffffffffffffffffff168152602001908152602001600020611bd1565b9050919050565b6000600d60009054906101000a900473ffffffffffffffffffffffffffffffffffffffff16905090565b600d60009054906101000a900473ffffffffffffffffffffffffffffffffffffffff1681565b6060600780546110209061389b565b80601f016020809104026020016040519081016040528092919081815260200182805461104c9061389b565b80156110995780601f1061106e57610100808354040283529160200191611099565b820191906000526020600020905b81548152906001019060200180831161107c57829003601f168201915b5050505050905090565b600e6020528060005260406000206000915090508060000154908060010160009054906101000a900473ffffffffffffffffffffffffffffffffffffffff16908060020160009054906101000a900473ffffffffffffffffffffffffffffffffffffffff16908060030160009054906101000a900473ffffffffffffffffffffffffffffffffffffffff16905084565b61113b6115f9565b73ffffffffffffffffffffffffffffffffffffffff168273ffffffffffffffffffffffffffffffffffffffff1614156111a9576040517f08c379a00000000000000000000000000000000000000000000000000000000081526004016111a090613421565b60405180910390fd5b80600560006111b66115f9565b73ffffffffffffffffffffffffffffffffffffffff1673ffffffffffffffffffffffffffffffffffffffff16815260200190815260200160002060008473ffffffffffffffffffffffffffffffffffffffff1673ffffffffffffffffffffffffffffffffffffffff16815260200190815260200160002060006101000a81548160ff0219169083151502179055508173ffffffffffffffffffffffffffffffffffffffff166112636115f9565b73ffffffffffffffffffffffffffffffffffffffff167f17307eab39ab6107e8899845ad3d59bd9653f200f220920489ca2b5937696c31836040516112a89190613364565b60405180910390a35050565b6000806112c083610d93565b905080915050919050565b6112dc6112d66115f9565b836116cf565b61131b576040517f08c379a000000000000000000000000000000000000000000000000000000000815260040161131290613581565b60405180910390fd5b61132784848484611be6565b50505050565b6060611338826115dc565b611377576040517f08c379a000000000000000000000000000000000000000000000000000000000815260040161136e90613541565b60405180910390fd5b60006008600084815260200190815260200160002080546113979061389b565b80601f01602080910402602001604051908101604052809291908181526020018280546113c39061389b565b80156114105780601f106113e557610100808354040283529160200191611410565b820191906000526020600020905b8154815290600101906020018083116113f357829003601f168201915b505050505090506000611421610de2565b905060008151141561143757819250505061149b565b60008251111561146c5780826040516020016114549291906132d9565b6040516020818303038152906040529250505061149b565b8061147685611c42565b6040516020016114879291906132d9565b604051602081830303815290604052925050505b919050565b6000806114ab61092a565b90508091505090565b600c5481565b600a80546114c79061389b565b80601f01602080910402602001604051908101604052809291908181526020018280546114f39061389b565b80156115405780601f1061151557610100808354040283529160200191611540565b820191906000526020600020905b81548152906001019060200180831161152357829003601f168201915b505050505081565b6000600560008473ffffffffffffffffffffffffffffffffffffffff1673ffffffffffffffffffffffffffffffffffffffff16815260200190815260200160002060008373ffffffffffffffffffffffffffffffffffffffff1673ffffffffffffffffffffffffffffffffffffffff16815260200190815260200160002060009054906101000a900460ff16905092915050565b60006115f2826002611e0190919063ffffffff16565b9050919050565b600033905090565b816004600083815260200190815260200160002060006101000a81548173ffffffffffffffffffffffffffffffffffffffff021916908373ffffffffffffffffffffffffffffffffffffffff160217905550808273ffffffffffffffffffffffffffffffffffffffff1661167483610d93565b73ffffffffffffffffffffffffffffffffffffffff167f8c5be1e5ebec7d5bd14f71427d1e84f3dd0314c0f7b2291e5b200ac8c7c3b92560405160405180910390a45050565b60006116c882600001611e1b565b9050919050565b60006116da826115dc565b611719576040517f08c379a000000000000000000000000000000000000000000000000000000000815260040161171090613461565b60405180910390fd5b600061172483610d93565b90508073ffffffffffffffffffffffffffffffffffffffff168473ffffffffffffffffffffffffffffffffffffffff16148061179357508373ffffffffffffffffffffffffffffffffffffffff1661177b84610776565b73ffffffffffffffffffffffffffffffffffffffff16145b806117a457506117a38185611548565b5b91505092915050565b8273ffffffffffffffffffffffffffffffffffffffff166117cd82610d93565b73ffffffffffffffffffffffffffffffffffffffff1614611823576040517f08c379a000000000000000000000000000000000000000000000000000000000815260040161181a90613521565b60405180910390fd5b600073ffffffffffffffffffffffffffffffffffffffff168273ffffffffffffffffffffffffffffffffffffffff161415611893576040517f08c379a000000000000000000000000000000000000000000000000000000000815260040161188a90613401565b60405180910390fd5b61189e838383611e2c565b6118a9600082611601565b6118fa81600160008673ffffffffffffffffffffffffffffffffffffffff1673ffffffffffffffffffffffffffffffffffffffff168152602001908152602001600020611e3190919063ffffffff16565b5061194c81600160008573ffffffffffffffffffffffffffffffffffffffff1673ffffffffffffffffffffffffffffffffffffffff168152602001908152602001600020611e4b90919063ffffffff16565b5061196381836002611e659092919063ffffffff16565b50808273ffffffffffffffffffffffffffffffffffffffff168473ffffffffffffffffffffffffffffffffffffffff167fddf252ad1be2c89b69c2b068fc378daa952ba7f163c4a11628f55a4df523b3ef60405160405180910390a4505050565b60006119d38360000183611e9a565b60001c905092915050565b600073ffffffffffffffffffffffffffffffffffffffff168273ffffffffffffffffffffffffffffffffffffffff161415611a4e576040517f08c379a0000000000000000000000000000000000000000000000000000000008152600401611a45906134e1565b60405180910390fd5b611a57816115dc565b15611a97576040517f08c379a0000000000000000000000000000000000000000000000000000000008152600401611a8e906133e1565b60405180910390fd5b611aa360008383611e2c565b611af481600160008573ffffffffffffffffffffffffffffffffffffffff1673ffffffffffffffffffffffffffffffffffffffff168152602001908152602001600020611e4b90919063ffffffff16565b50611b0b81836002611e659092919063ffffffff16565b50808273ffffffffffffffffffffffffffffffffffffffff16600073ffffffffffffffffffffffffffffffffffffffff167fddf252ad1be2c89b69c2b068fc378daa952ba7f163c4a11628f55a4df523b3ef60405160405180910390a45050565b600080600080611b7f8660000186611f34565b915091508160001c8160001c9350935050509250929050565b8060099080519060200190611bae929190612718565b5050565b6000611bc5846000018460001b84611fe4565b60001c90509392505050565b6000611bdf826000016120ab565b9050919050565b611bf18484846117ad565b611bfd848484846120bc565b611c3c576040517f08c379a0000000000000000000000000000000000000000000000000000000008152600401611c33906133c1565b60405180910390fd5b50505050565b60606000821415611c8a576040518060400160405280600181526020017f30000000000000000000000000000000000000000000000000000000000000008152509050611dfc565b600082905060005b60008214611cbc578080611ca5906138cd565b915050600a82611cb59190613756565b9150611c92565b60008167ffffffffffffffff811115611cfe577f4e487b7100000000000000000000000000000000000000000000000000000000600052604160045260246000fd5b6040519080825280601f01601f191660200182016040528015611d305781602001600182028036833780820191505090505b5090506000600183611d429190613787565b90508593505b60008414611df457600a84611d5d9190613916565b6030611d699190613700565b60f81b828280611d7890613871565b935081518110611db1577f4e487b7100000000000000000000000000000000000000000000000000000000600052603260045260246000fd5b60200101907effffffffffffffffffffffffffffffffffffffffffffffffffffffffffffff1916908160001a905350600a84611ded9190613756565b9350611d48565b819450505050505b919050565b6000611e13836000018360001b612220565b905092915050565b600081600001805490509050919050565b505050565b6000611e43836000018360001b612243565b905092915050565b6000611e5d836000018360001b6123cd565b905092915050565b6000611e91846000018460001b8473ffffffffffffffffffffffffffffffffffffffff1660001b61243d565b90509392505050565b600081836000018054905011611ee5576040517f08c379a0000000000000000000000000000000000000000000000000000000008152600401611edc906133a1565b60405180910390fd5b826000018281548110611f21577f4e487b7100000000000000000000000000000000000000000000000000000000600052603260045260246000fd5b9060005260206000200154905092915050565b60008082846000018054905011611f80576040517f08c379a0000000000000000000000000000000000000000000000000000000008152600401611f77906134c1565b60405180910390fd5b6000846000018481548110611fbe577f4e487b7100000000000000000000000000000000000000000000000000000000600052603260045260246000fd5b906000526020600020906002020190508060000154816001015492509250509250929050565b60008084600101600085815260200190815260200160002054905060008114158390612046576040517f08c379a000000000000000000000000000000000000000000000000000000000815260040161203d919061337f565b60405180910390fd5b50846000016001826120589190613787565b8154811061208f577f4e487b7100000000000000000000000000000000000000000000000000000000600052603260045260246000fd5b9060005260206000209060020201600101549150509392505050565b600081600001805490509050919050565b60006120dd8473ffffffffffffffffffffffffffffffffffffffff1661254f565b6120ea5760019050612218565b60006121b163150b7a0260e01b6120ff6115f9565b8887876040516024016121159493929190613318565b604051602081830303815290604052907bffffffffffffffffffffffffffffffffffffffffffffffffffffffff19166020820180517bffffffffffffffffffffffffffffffffffffffffffffffffffffffff8381831617835250505050604051806060016040528060328152602001613a71603291398773ffffffffffffffffffffffffffffffffffffffff166125629092919063ffffffff16565b90506000818060200190518101906121c99190612ac4565b905063150b7a0260e01b7bffffffffffffffffffffffffffffffffffffffffffffffffffffffff1916817bffffffffffffffffffffffffffffffffffffffffffffffffffffffff191614925050505b949350505050565b600080836001016000848152602001908152602001600020541415905092915050565b600080836001016000848152602001908152602001600020549050600081146123c15760006001826122759190613787565b905060006001866000018054905061228d9190613787565b905060008660000182815481106122cd577f4e487b7100000000000000000000000000000000000000000000000000000000600052603260045260246000fd5b9060005260206000200154905080876000018481548110612317577f4e487b7100000000000000000000000000000000000000000000000000000000600052603260045260246000fd5b90600052602060002001819055506001836123329190613700565b8760010160008381526020019081526020016000208190555086600001805480612385577f4e487b7100000000000000000000000000000000000000000000000000000000600052603160045260246000fd5b600190038181906000526020600020016000905590558660010160008781526020019081526020016000206000905560019450505050506123c7565b60009150505b92915050565b60006123d9838361257a565b612432578260000182908060018154018082558091505060019003906000526020600020016000909190919091505582600001805490508360010160008481526020019081526020016000208190555060019050612437565b600090505b92915050565b60008084600101600085815260200190815260200160002054905060008114156124e457846000016040518060400160405280868152602001858152509080600181540180825580915050600190039060005260206000209060020201600090919091909150600082015181600001556020820151816001015550508460000180549050856001016000868152602001908152602001600020819055506001915050612548565b82856000016001836124f69190613787565b8154811061252d577f4e487b7100000000000000000000000000000000000000000000000000000000600052603260045260246000fd5b90600052602060002090600202016001018190555060009150505b9392505050565b600080823b905060008111915050919050565b6060612571848460008561259d565b90509392505050565b600080836001016000848152602001908152602001600020541415905092915050565b6060824710156125e2576040517f08c379a00000000000000000000000000000000000000000000000000000000081526004016125d990613441565b60405180910390fd5b6125eb8561254f565b61262a576040517f08c379a0000000000000000000000000000000000000000000000000000000008152600401612621906135a1565b60405180910390fd5b6000808673ffffffffffffffffffffffffffffffffffffffff16858760405161265391906132c2565b60006040518083038185875af1925050503d8060008114612690576040519150601f19603f3d011682016040523d82523d6000602084013e612695565b606091505b50915091506126a58282866126b1565b92505050949350505050565b606083156126c157829050612711565b6000835111156126d45782518084602001fd5b816040517f08c379a0000000000000000000000000000000000000000000000000000000008152600401612708919061337f565b60405180910390fd5b9392505050565b8280546127249061389b565b90600052602060002090601f016020900481019282612746576000855561278d565b82601f1061275f57805160ff191683800117855561278d565b8280016001018555821561278d579182015b8281111561278c578251825591602001919060010190612771565b5b50905061279a919061279e565b5090565b5b808211156127b757600081600090555060010161279f565b5090565b60006127ce6127c984613652565b613621565b9050828152602081018484840111156127e657600080fd5b6127f184828561382f565b509392505050565b600061280c61280784613682565b613621565b90508281526020810184848401111561282457600080fd5b61282f84828561382f565b509392505050565b60008135905061284681613a14565b92915050565b60008135905061285b81613a2b565b92915050565b60008135905061287081613a42565b92915050565b60008151905061288581613a42565b92915050565b600082601f83011261289c57600080fd5b81356128ac8482602086016127bb565b91505092915050565b600082601f8301126128c657600080fd5b81356128d68482602086016127f9565b91505092915050565b6000813590506128ee81613a59565b92915050565b60006020828403121561290657600080fd5b600061291484828501612837565b91505092915050565b6000806040838503121561293057600080fd5b600061293e85828601612837565b925050602061294f85828601612837565b9150509250929050565b60008060006060848603121561296e57600080fd5b600061297c86828701612837565b935050602061298d86828701612837565b925050604061299e868287016128df565b9150509250925092565b600080600080608085870312156129be57600080fd5b60006129cc87828801612837565b94505060206129dd87828801612837565b93505060406129ee878288016128df565b925050606085013567ffffffffffffffff811115612a0b57600080fd5b612a178782880161288b565b91505092959194509250565b60008060408385031215612a3657600080fd5b6000612a4485828601612837565b9250506020612a558582860161284c565b9150509250929050565b60008060408385031215612a7257600080fd5b6000612a8085828601612837565b9250506020612a91858286016128df565b9150509250929050565b600060208284031215612aad57600080fd5b6000612abb84828501612861565b91505092915050565b600060208284031215612ad657600080fd5b6000612ae484828501612876565b91505092915050565b600060208284031215612aff57600080fd5b600082013567ffffffffffffffff811115612b1957600080fd5b612b25848285016128b5565b91505092915050565b600060208284031215612b4057600080fd5b6000612b4e848285016128df565b91505092915050565b60008060408385031215612b6a57600080fd5b6000612b78858286016128df565b9250506020612b8985828601612837565b9150509250929050565b612b9c816137bb565b82525050565b612bab816137cd565b82525050565b6000612bbc826136b2565b612bc681856136c8565b9350612bd681856020860161383e565b612bdf81613a03565b840191505092915050565b6000612bf5826136b2565b612bff81856136d9565b9350612c0f81856020860161383e565b80840191505092915050565b6000612c26826136bd565b612c3081856136e4565b9350612c4081856020860161383e565b612c4981613a03565b840191505092915050565b6000612c5f826136bd565b612c6981856136f5565b9350612c7981856020860161383e565b80840191505092915050565b6000612c926022836136e4565b91507f456e756d657261626c655365743a20696e646578206f7574206f6620626f756e60008301527f64730000000000000000000000000000000000000000000000000000000000006020830152604082019050919050565b6000612cf86032836136e4565b91507f4552433732313a207472616e7366657220746f206e6f6e20455243373231526560008301527f63656976657220696d706c656d656e74657200000000000000000000000000006020830152604082019050919050565b6000612d5e601c836136e4565b91507f4552433732313a20746f6b656e20616c7265616479206d696e746564000000006000830152602082019050919050565b6000612d9e6024836136e4565b91507f4552433732313a207472616e7366657220746f20746865207a65726f2061646460008301527f72657373000000000000000000000000000000000000000000000000000000006020830152604082019050919050565b6000612e046019836136e4565b91507f4552433732313a20617070726f766520746f2063616c6c6572000000000000006000830152602082019050919050565b6000612e446026836136e4565b91507f416464726573733a20696e73756666696369656e742062616c616e636520666f60008301527f722063616c6c00000000000000000000000000000000000000000000000000006020830152604082019050919050565b6000612eaa602c836136e4565b91507f4552433732313a206f70657261746f7220717565727920666f72206e6f6e657860008301527f697374656e7420746f6b656e00000000000000000000000000000000000000006020830152604082019050919050565b6000612f106038836136e4565b91507f4552433732313a20617070726f76652063616c6c6572206973206e6f74206f7760008301527f6e6572206e6f7220617070726f76656420666f7220616c6c00000000000000006020830152604082019050919050565b6000612f76602a836136e4565b91507f4552433732313a2062616c616e636520717565727920666f7220746865207a6560008301527f726f2061646472657373000000000000000000000000000000000000000000006020830152604082019050919050565b6000612fdc6022836136e4565b91507f456e756d657261626c654d61703a20696e646578206f7574206f6620626f756e60008301527f64730000000000000000000000000000000000000000000000000000000000006020830152604082019050919050565b60006130426020836136e4565b91507f4552433732313a206d696e7420746f20746865207a65726f20616464726573736000830152602082019050919050565b6000613082602c836136e4565b91507f4552433732313a20617070726f76656420717565727920666f72206e6f6e657860008301527f697374656e7420746f6b656e00000000000000000000000000000000000000006020830152604082019050919050565b60006130e86029836136e4565b91507f4552433732313a207472616e73666572206f6620746f6b656e2074686174206960008301527f73206e6f74206f776e00000000000000000000000000000000000000000000006020830152604082019050919050565b600061314e602f836136e4565b91507f4552433732314d657461646174613a2055524920717565727920666f72206e6f60008301527f6e6578697374656e7420746f6b656e00000000000000000000000000000000006020830152604082019050919050565b60006131b46021836136e4565b91507f4552433732313a20617070726f76616c20746f2063757272656e74206f776e6560008301527f72000000000000000000000000000000000000000000000000000000000000006020830152604082019050919050565b600061321a6031836136e4565b91507f4552433732313a207472616e736665722063616c6c6572206973206e6f74206f60008301527f776e6572206e6f7220617070726f7665640000000000000000000000000000006020830152604082019050919050565b6000613280601d836136e4565b91507f416464726573733a2063616c6c20746f206e6f6e2d636f6e74726163740000006000830152602082019050919050565b6132bc81613825565b82525050565b60006132ce8284612bea565b915081905092915050565b60006132e58285612c54565b91506132f18284612c54565b91508190509392505050565b60006020820190506133126000830184612b93565b92915050565b600060808201905061332d6000830187612b93565b61333a6020830186612b93565b61334760408301856132b3565b81810360608301526133598184612bb1565b905095945050505050565b60006020820190506133796000830184612ba2565b92915050565b600060208201905081810360008301526133998184612c1b565b905092915050565b600060208201905081810360008301526133ba81612c85565b9050919050565b600060208201905081810360008301526133da81612ceb565b9050919050565b600060208201905081810360008301526133fa81612d51565b9050919050565b6000602082019050818103600083015261341a81612d91565b9050919050565b6000602082019050818103600083015261343a81612df7565b9050919050565b6000602082019050818103600083015261345a81612e37565b9050919050565b6000602082019050818103600083015261347a81612e9d565b9050919050565b6000602082019050818103600083015261349a81612f03565b9050919050565b600060208201905081810360008301526134ba81612f69565b9050919050565b600060208201905081810360008301526134da81612fcf565b9050919050565b600060208201905081810360008301526134fa81613035565b9050919050565b6000602082019050818103600083015261351a81613075565b9050919050565b6000602082019050818103600083015261353a816130db565b9050919050565b6000602082019050818103600083015261355a81613141565b9050919050565b6000602082019050818103600083015261357a816131a7565b9050919050565b6000602082019050818103600083015261359a8161320d565b9050919050565b600060208201905081810360008301526135ba81613273565b9050919050565b60006020820190506135d660008301846132b3565b92915050565b60006080820190506135f160008301876132b3565b6135fe6020830186612b93565b61360b6040830185612b93565b6136186060830184612b93565b95945050505050565b6000604051905081810181811067ffffffffffffffff82111715613648576136476139d4565b5b8060405250919050565b600067ffffffffffffffff82111561366d5761366c6139d4565b5b601f19601f8301169050602081019050919050565b600067ffffffffffffffff82111561369d5761369c6139d4565b5b601f19601f8301169050602081019050919050565b600081519050919050565b600081519050919050565b600082825260208201905092915050565b600081905092915050565b600082825260208201905092915050565b600081905092915050565b600061370b82613825565b915061371683613825565b9250827fffffffffffffffffffffffffffffffffffffffffffffffffffffffffffffffff0382111561374b5761374a613947565b5b828201905092915050565b600061376182613825565b915061376c83613825565b92508261377c5761377b613976565b5b828204905092915050565b600061379282613825565b915061379d83613825565b9250828210156137b0576137af613947565b5b828203905092915050565b60006137c682613805565b9050919050565b60008115159050919050565b60007fffffffff0000000000000000000000000000000000000000000000000000000082169050919050565b600073ffffffffffffffffffffffffffffffffffffffff82169050919050565b6000819050919050565b82818337600083830152505050565b60005b8381101561385c578082015181840152602081019050613841565b8381111561386b576000848401525b50505050565b600061387c82613825565b915060008214156138905761388f613947565b5b600182039050919050565b600060028204905060018216806138b357607f821691505b602082108114156138c7576138c66139a5565b5b50919050565b60006138d882613825565b91507fffffffffffffffffffffffffffffffffffffffffffffffffffffffffffffffff82141561390b5761390a613947565b5b600182019050919050565b600061392182613825565b915061392c83613825565b92508261393c5761393b613976565b5b828206905092915050565b7f4e487b7100000000000000000000000000000000000000000000000000000000600052601160045260246000fd5b7f4e487b7100000000000000000000000000000000000000000000000000000000600052601260045260246000fd5b7f4e487b7100000000000000000000000000000000000000000000000000000000600052602260045260246000fd5b7f4e487b7100000000000000000000000000000000000000000000000000000000600052604160045260246000fd5b6000601f19601f8301169050919050565b613a1d816137bb565b8114613a2857600080fd5b50565b613a34816137cd565b8114613a3f57600080fd5b50565b613a4b816137d9565b8114613a5657600080fd5b50565b613a6281613825565b8114613a6d57600080fd5b5056fe4552433732313a207472616e7366657220746f206e6f6e20455243373231526563656976657220696d706c656d656e7465724552433732313a206f776e657220717565727920666f72206e6f6e6578697374656e7420746f6b656ea26469706673582212201ac53389b2078b4291469c6d8667449a2d9e6be1f9d62419779c8fae488e457a64736f6c63430008000033",
  "immutableReferences": {},
  "source": "// SPDX-License-Identifier: MIT\npragma solidity >=0.8.0;\npragma abicoder v2;\n\n// import ERC721 iterface\nimport \"./ERC721.sol\";\n\n// CroSkulls smart contract inherits ERC721 interface\ncontract CroSkullsAmbassador is ERC721 {\n  using SafeMath for uint256;\n\n  string public collectionName;\n  string public collectionNameSymbol;\n  uint256 public croSkullCounter;\n  address public owner;\n\n  mapping(uint256 => CroSkull) public allCroSkulls;\n  mapping(address => uint256) public addressMintedBalance;\n\n  struct CroSkull {\n    uint256 tokenId;\n    address mintedBy;\n    address currentOwner;\n    address previousOwner;\n  }\n\n  modifier onlyOwner() {\n    require(msg.sender == owner);\n    _;\n  }\n\n  // initialize contract while deployment with contract's collection name and token\n  constructor( ) ERC721(\"CROSkullAmbassador\", \"CRA\") {\n    owner = msg.sender;\n    collectionName = name();\n    collectionNameSymbol = symbol();\n  }\n\n  function setBaseURI( string memory baseURI ) public onlyOwner {\n    _setBaseURI(baseURI);\n  }\n\n  // mint a new crypto boy\n  function adminMintCroSkull(uint256 _mintAmount, address _to ) onlyOwner external {\n    require(_to != address(0));\n    require(_mintAmount > 0);\n\n    uint256 supply = totalSupply();\n    \n    for (uint256 i = 1; i <= _mintAmount; i++) {\n      croSkullCounter++;\n      require(!_exists(croSkullCounter));\n\n      addressMintedBalance[_to]++;\n      _mint(_to, croSkullCounter);\n      CroSkull memory newCroSkull = CroSkull(\n        croSkullCounter,\n        msg.sender,\n        _to,\n        address(0)\n      );\n      allCroSkulls[croSkullCounter] = newCroSkull;\n    }\n  }\n\n  function getOwner() public view returns(address) {\n    return owner;\n  }\n\n  function getTokenOwner(uint256 _tokenId) public view returns(address) {\n    address _tokenOwner = ownerOf(_tokenId);\n    return _tokenOwner;\n  }\n\n  function getTokenMetaData(uint _tokenId) public view returns(string memory) {\n    string memory tokenMetaData = tokenURI(_tokenId);\n    return tokenMetaData;\n  }\n\n  function getNumberOfTokensMinted() public view returns(uint256) {\n    uint256 totalNumberOfTokensMinted = totalSupply();\n    return totalNumberOfTokensMinted;\n  }\n\n  function getTotalNumberOfTokensOwnedByAnAddress(address _owner) public view returns(uint256) {\n    uint256 totalNumberOfTokensOwned = balanceOf(_owner);\n    return totalNumberOfTokensOwned;\n  }\n\n  function getTokenExists(uint256 _tokenId) public view returns(bool) {\n    bool tokenExists = _exists(_tokenId);\n    return tokenExists;\n  }\n}",
  "sourcePath": "/Users/alessandrodecristofaro/Desktop/DeFi Code/cryptoboys-nft-marketplace/src/contracts/CroSkullsAmbassador.sol",
  "compiler": {
    "name": "solc",
    "version": "0.8.0+commit.c7dfd78e.Emscripten.clang"
  },
  "schemaVersion": "3.4.3",
  "updatedAt": "2022-02-09T15:26:05.791Z",
  "devdoc": {
    "kind": "dev",
    "methods": {
      "approve(address,uint256)": {
        "details": "See {IERC721-approve}."
      },
      "balanceOf(address)": {
        "details": "See {IERC721-balanceOf}."
      },
      "baseURI()": {
        "details": "Returns the base URI set via {_setBaseURI}. This will be automatically added as a prefix in {tokenURI} to each token's URI, or to the token ID if no specific URI is set for that token ID."
      },
      "getApproved(uint256)": {
        "details": "See {IERC721-getApproved}."
      },
      "isApprovedForAll(address,address)": {
        "details": "See {IERC721-isApprovedForAll}."
      },
      "name()": {
        "details": "See {IERC721Metadata-name}."
      },
      "ownerOf(uint256)": {
        "details": "See {IERC721-ownerOf}."
      },
      "safeTransferFrom(address,address,uint256)": {
        "details": "See {IERC721-safeTransferFrom}."
      },
      "safeTransferFrom(address,address,uint256,bytes)": {
        "details": "See {IERC721-safeTransferFrom}."
      },
      "setApprovalForAll(address,bool)": {
        "details": "See {IERC721-setApprovalForAll}."
      },
      "supportsInterface(bytes4)": {
        "details": "See {IERC165-supportsInterface}. Time complexity O(1), guaranteed to always use less than 30 000 gas."
      },
      "symbol()": {
        "details": "See {IERC721Metadata-symbol}."
      },
      "tokenByIndex(uint256)": {
        "details": "See {IERC721Enumerable-tokenByIndex}."
      },
      "tokenOfOwnerByIndex(address,uint256)": {
        "details": "See {IERC721Enumerable-tokenOfOwnerByIndex}."
      },
      "tokenURI(uint256)": {
        "details": "See {IERC721Metadata-tokenURI}."
      },
      "totalSupply()": {
        "details": "See {IERC721Enumerable-totalSupply}."
      },
      "transferFrom(address,address,uint256)": {
        "details": "See {IERC721-transferFrom}."
      }
    },
    "version": 1
  },
  "userdoc": {
    "kind": "user",
    "methods": {},
    "version": 1
  }
}