{
  "contractName": "croSkullStaking",
  "abi": [
    {
      "inputs": [],
      "stateMutability": "nonpayable",
      "type": "constructor"
    },
    {
      "anonymous": false,
      "inputs": [
        {
          "indexed": true,
          "internalType": "address",
          "name": "user",
          "type": "address"
        },
        {
          "indexed": false,
          "internalType": "uint16",
          "name": "tokenId",
          "type": "uint16"
        }
      ],
      "name": "Stake",
      "type": "event"
    },
    {
      "anonymous": false,
      "inputs": [
        {
          "indexed": true,
          "internalType": "address",
          "name": "user",
          "type": "address"
        },
        {
          "indexed": false,
          "internalType": "uint256",
          "name": "amout",
          "type": "uint256"
        }
      ],
      "name": "Withdraw",
      "type": "event"
    },
    {
      "anonymous": false,
      "inputs": [
        {
          "indexed": true,
          "internalType": "address",
          "name": "user",
          "type": "address"
        },
        {
          "indexed": false,
          "internalType": "uint16",
          "name": "tokenId",
          "type": "uint16"
        }
      ],
      "name": "unStake",
      "type": "event"
    },
    {
      "inputs": [],
      "name": "croSkullContract",
      "outputs": [
        {
          "internalType": "contract IERC721",
          "name": "",
          "type": "address"
        }
      ],
      "stateMutability": "view",
      "type": "function"
    },
    {
      "inputs": [],
      "name": "cycleInterval",
      "outputs": [
        {
          "internalType": "uint256",
          "name": "",
          "type": "uint256"
        }
      ],
      "stateMutability": "view",
      "type": "function"
    },
    {
      "inputs": [],
      "name": "endStakeTimestamp",
      "outputs": [
        {
          "internalType": "uint256",
          "name": "",
          "type": "uint256"
        }
      ],
      "stateMutability": "view",
      "type": "function"
    },
    {
      "inputs": [],
      "name": "owner",
      "outputs": [
        {
          "internalType": "address",
          "name": "",
          "type": "address"
        }
      ],
      "stateMutability": "view",
      "type": "function"
    },
    {
      "inputs": [],
      "name": "percentOperator",
      "outputs": [
        {
          "internalType": "uint256",
          "name": "",
          "type": "uint256"
        }
      ],
      "stateMutability": "view",
      "type": "function"
    },
    {
      "inputs": [],
      "name": "poolRewardSupply",
      "outputs": [
        {
          "internalType": "uint256",
          "name": "",
          "type": "uint256"
        }
      ],
      "stateMutability": "view",
      "type": "function"
    },
    {
      "inputs": [],
      "name": "poolWithdrawedAmount",
      "outputs": [
        {
          "internalType": "uint256",
          "name": "",
          "type": "uint256"
        }
      ],
      "stateMutability": "view",
      "type": "function"
    },
    {
      "inputs": [],
      "name": "poolWithdrawedSouls",
      "outputs": [
        {
          "internalType": "uint256",
          "name": "",
          "type": "uint256"
        }
      ],
      "stateMutability": "view",
      "type": "function"
    },
    {
      "inputs": [],
      "name": "rewardToken",
      "outputs": [
        {
          "internalType": "contract IERC20Burnable",
          "name": "",
          "type": "address"
        }
      ],
      "stateMutability": "view",
      "type": "function"
    },
    {
      "inputs": [],
      "name": "safeMaxUnstake",
      "outputs": [
        {
          "internalType": "uint256",
          "name": "",
          "type": "uint256"
        }
      ],
      "stateMutability": "view",
      "type": "function"
    },
    {
      "inputs": [
        {
          "internalType": "bytes32",
          "name": "",
          "type": "bytes32"
        }
      ],
      "name": "skullsOwner",
      "outputs": [
        {
          "internalType": "bool",
          "name": "",
          "type": "bool"
        }
      ],
      "stateMutability": "view",
      "type": "function"
    },
    {
      "inputs": [],
      "name": "soulToken",
      "outputs": [
        {
          "internalType": "contract IERC20",
          "name": "",
          "type": "address"
        }
      ],
      "stateMutability": "view",
      "type": "function"
    },
    {
      "inputs": [],
      "name": "soulsDropInterval",
      "outputs": [
        {
          "internalType": "uint256",
          "name": "",
          "type": "uint256"
        }
      ],
      "stateMutability": "view",
      "type": "function"
    },
    {
      "inputs": [],
      "name": "stakeMalusDuration",
      "outputs": [
        {
          "internalType": "uint256",
          "name": "",
          "type": "uint256"
        }
      ],
      "stateMutability": "view",
      "type": "function"
    },
    {
      "inputs": [],
      "name": "stakeMalusFee",
      "outputs": [
        {
          "internalType": "uint256",
          "name": "",
          "type": "uint256"
        }
      ],
      "stateMutability": "view",
      "type": "function"
    },
    {
      "inputs": [],
      "name": "stakedSkullsCount",
      "outputs": [
        {
          "internalType": "uint16",
          "name": "",
          "type": "uint16"
        }
      ],
      "stateMutability": "view",
      "type": "function"
    },
    {
      "inputs": [],
      "name": "startStakeTimestamp",
      "outputs": [
        {
          "internalType": "uint256",
          "name": "",
          "type": "uint256"
        }
      ],
      "stateMutability": "view",
      "type": "function"
    },
    {
      "inputs": [],
      "name": "started",
      "outputs": [
        {
          "internalType": "bool",
          "name": "",
          "type": "bool"
        }
      ],
      "stateMutability": "view",
      "type": "function"
    },
    {
      "inputs": [
        {
          "internalType": "address",
          "name": "",
          "type": "address"
        }
      ],
      "name": "userDetails",
      "outputs": [
        {
          "internalType": "uint16",
          "name": "tokenCount",
          "type": "uint16"
        },
        {
          "internalType": "uint256",
          "name": "lastWithdrawTimestamp",
          "type": "uint256"
        },
        {
          "internalType": "uint256",
          "name": "startingStake",
          "type": "uint256"
        },
        {
          "internalType": "uint256",
          "name": "availableBalance",
          "type": "uint256"
        },
        {
          "internalType": "uint256",
          "name": "alreadyClaimed",
          "type": "uint256"
        },
        {
          "internalType": "bool",
          "name": "enabled",
          "type": "bool"
        }
      ],
      "stateMutability": "view",
      "type": "function"
    },
    {
      "inputs": [],
      "name": "vestingDuration",
      "outputs": [
        {
          "internalType": "uint256",
          "name": "",
          "type": "uint256"
        }
      ],
      "stateMutability": "view",
      "type": "function"
    },
    {
      "inputs": [],
      "name": "adminUnlock",
      "outputs": [],
      "stateMutability": "nonpayable",
      "type": "function"
    },
    {
      "inputs": [],
      "name": "adminLock",
      "outputs": [],
      "stateMutability": "nonpayable",
      "type": "function"
    },
    {
      "inputs": [],
      "name": "adminEndStake",
      "outputs": [],
      "stateMutability": "nonpayable",
      "type": "function"
    },
    {
      "inputs": [
        {
          "internalType": "uint16",
          "name": "_tokenId",
          "type": "uint16"
        },
        {
          "internalType": "address",
          "name": "_ownerOf",
          "type": "address"
        }
      ],
      "name": "adminUnstake",
      "outputs": [],
      "stateMutability": "nonpayable",
      "type": "function"
    },
    {
      "inputs": [],
      "name": "startRewards",
      "outputs": [],
      "stateMutability": "nonpayable",
      "type": "function"
    },
    {
      "inputs": [],
      "name": "fundRewardPool",
      "outputs": [],
      "stateMutability": "nonpayable",
      "type": "function"
    },
    {
      "inputs": [],
      "name": "adminBurnUnvested",
      "outputs": [],
      "stateMutability": "nonpayable",
      "type": "function"
    },
    {
      "inputs": [
        {
          "internalType": "contract IERC721",
          "name": "_nftContract",
          "type": "address"
        }
      ],
      "name": "setNFTAddress",
      "outputs": [],
      "stateMutability": "nonpayable",
      "type": "function"
    },
    {
      "inputs": [
        {
          "internalType": "contract IERC20Burnable",
          "name": "_tokenAddress",
          "type": "address"
        }
      ],
      "name": "setTokenAddress",
      "outputs": [],
      "stateMutability": "nonpayable",
      "type": "function"
    },
    {
      "inputs": [
        {
          "internalType": "contract IERC20",
          "name": "_soulToken",
          "type": "address"
        }
      ],
      "name": "setSoulToken",
      "outputs": [],
      "stateMutability": "nonpayable",
      "type": "function"
    },
    {
      "inputs": [],
      "name": "_rewardPerCycles",
      "outputs": [
        {
          "internalType": "uint256",
          "name": "",
          "type": "uint256"
        }
      ],
      "stateMutability": "view",
      "type": "function"
    },
    {
      "inputs": [
        {
          "internalType": "uint16[]",
          "name": "_tokenIds",
          "type": "uint16[]"
        }
      ],
      "name": "batchStakeSkulls",
      "outputs": [],
      "stateMutability": "nonpayable",
      "type": "function"
    },
    {
      "inputs": [
        {
          "internalType": "uint16[]",
          "name": "_tokenIds",
          "type": "uint16[]"
        }
      ],
      "name": "batchUnstakeSkulls",
      "outputs": [],
      "stateMutability": "nonpayable",
      "type": "function"
    },
    {
      "inputs": [
        {
          "internalType": "uint16",
          "name": "_tokenId",
          "type": "uint16"
        }
      ],
      "name": "stakeSkull",
      "outputs": [],
      "stateMutability": "nonpayable",
      "type": "function"
    },
    {
      "inputs": [
        {
          "internalType": "uint16",
          "name": "_tokenId",
          "type": "uint16"
        }
      ],
      "name": "unstakeSkull",
      "outputs": [],
      "stateMutability": "nonpayable",
      "type": "function"
    },
    {
      "inputs": [],
      "name": "withdraw",
      "outputs": [],
      "stateMutability": "nonpayable",
      "type": "function"
    },
    {
      "inputs": [],
      "name": "_tenSecCyclesPassed",
      "outputs": [
        {
          "internalType": "uint256",
          "name": "",
          "type": "uint256"
        }
      ],
      "stateMutability": "view",
      "type": "function"
    },
    {
      "inputs": [],
      "name": "_tenSecCyclesPassedLastWithdraw",
      "outputs": [
        {
          "internalType": "uint256",
          "name": "",
          "type": "uint256"
        }
      ],
      "stateMutability": "view",
      "type": "function"
    },
    {
      "inputs": [],
      "name": "calculateDroppedSouls",
      "outputs": [
        {
          "internalType": "uint256",
          "name": "",
          "type": "uint256"
        }
      ],
      "stateMutability": "view",
      "type": "function"
    },
    {
      "inputs": [],
      "name": "daysSinceLastWithdraw",
      "outputs": [
        {
          "internalType": "uint256",
          "name": "",
          "type": "uint256"
        },
        {
          "internalType": "uint256",
          "name": "",
          "type": "uint256"
        }
      ],
      "stateMutability": "view",
      "type": "function"
    },
    {
      "inputs": [],
      "name": "calculateMalusFee",
      "outputs": [
        {
          "internalType": "uint256",
          "name": "",
          "type": "uint256"
        }
      ],
      "stateMutability": "view",
      "type": "function"
    },
    {
      "inputs": [],
      "name": "calculateRewardsPlusMalus",
      "outputs": [
        {
          "internalType": "uint256",
          "name": "",
          "type": "uint256"
        },
        {
          "internalType": "uint256",
          "name": "",
          "type": "uint256"
        }
      ],
      "stateMutability": "view",
      "type": "function"
    },
    {
      "inputs": [],
      "name": "calculateRewards",
      "outputs": [
        {
          "internalType": "uint256",
          "name": "",
          "type": "uint256"
        }
      ],
      "stateMutability": "view",
      "type": "function"
    },
    {
      "inputs": [],
      "name": "getTokensIds",
      "outputs": [
        {
          "internalType": "uint16[]",
          "name": "",
          "type": "uint16[]"
        }
      ],
      "stateMutability": "view",
      "type": "function"
    },
    {
      "inputs": [
        {
          "internalType": "address",
          "name": "_ownerOf",
          "type": "address"
        }
      ],
      "name": "getUserTokensIds",
      "outputs": [
        {
          "internalType": "uint16[]",
          "name": "",
          "type": "uint16[]"
        }
      ],
      "stateMutability": "view",
      "type": "function"
    },
    {
      "inputs": [
        {
          "internalType": "uint16",
          "name": "_tokenId",
          "type": "uint16"
        }
      ],
      "name": "checkOwnership",
      "outputs": [
        {
          "internalType": "bool",
          "name": "",
          "type": "bool"
        }
      ],
      "stateMutability": "view",
      "type": "function"
    },
    {
      "inputs": [
        {
          "internalType": "address",
          "name": "",
          "type": "address"
        },
        {
          "internalType": "address",
          "name": "",
          "type": "address"
        },
        {
          "internalType": "uint256",
          "name": "",
          "type": "uint256"
        },
        {
          "internalType": "bytes",
          "name": "",
          "type": "bytes"
        }
      ],
      "name": "onERC721Received",
      "outputs": [
        {
          "internalType": "bytes4",
          "name": "",
          "type": "bytes4"
        }
      ],
      "stateMutability": "nonpayable",
      "type": "function"
    },
    {
      "inputs": [],
      "name": "approvalStatus",
      "outputs": [
        {
          "internalType": "bool",
          "name": "",
          "type": "bool"
        }
      ],
      "stateMutability": "view",
      "type": "function"
    },
    {
      "inputs": [
        {
          "internalType": "uint16",
          "name": "_tokenId",
          "type": "uint16"
        },
        {
          "internalType": "address",
          "name": "_from",
          "type": "address"
        }
      ],
      "name": "getTokenIndex",
      "outputs": [
        {
          "internalType": "uint256",
          "name": "",
          "type": "uint256"
        }
      ],
      "stateMutability": "view",
      "type": "function"
    }
  ],
  "bytecode": "0x6080604052611a0a600360146101000a81548161ffff021916908361ffff1602179055506103e86004556283d600600a55600a600b5562278d00600c55622a3000600d556050600e556032600f5534801561005957600080fd5b50336000806101000a81548173ffffffffffffffffffffffffffffffffffffffff021916908373ffffffffffffffffffffffffffffffffffffffff1602179055506000600881905550614ba8806100b16000396000f3fe608060405234801561001057600080fd5b50600436106102ba5760003560e01c80636145ca02116101825780638da5cb5b116100e9578063c861d9f9116100a2578063e74feb771161007c578063e74feb77146107ca578063f7c618c1146107fa578063fde5b04f14610818578063ffbfe15314610836576102ba565b8063c861d9f914610772578063cec7cf901461077c578063d7aee1891461079a576102ba565b80638da5cb5b146106c057806399249f82146106de5780639ec9f744146106fc5780639fa5e9961461072c578063a7f573051461074a578063c0f72cf214610754576102ba565b80637408fc2b1161013b5780637408fc2b1461060c578063741514741461062a578063785b4a7614610649578063795602831461066557806379a1cb951461068357806383ac5fc5146106a1576102ba565b80636145ca021461055a57806363a53e4814610578578063687c4a5b1461059657806369d03738146105b45780636e17e3ee146105d05780636ec999a6146105ee576102ba565b80632dfd0bdc116102265780633e50de30116101df5780633e50de301461049157806342d2b70f146104af57806348dec2a7146104cd5780634b933765146105025780634dd6705c146105205780635d20211a1461053c576102ba565b80632dfd0bdc1461041d578063341eee991461042757806335efedc31461043157806337951d8f1461044d5780633b26156e146104695780633ccfd60b14610487576102ba565b80631514617e116102785780631514617e1461037f5780631f2698ab1461039d5780631fb5daf5146103bb57806320828339146103d957806326a4e8d2146103e35780632d5f4a1e146103ff576102ba565b8062d799a0146102bf578063027cdf45146102dd57806305715cc0146102e757806305dd78071461030357806315022a0e1461031f578063150b7a021461034f575b600080fd5b6102c7610854565b6040516102d491906145c0565b60405180910390f35b6102e561085a565b005b61030160048036038101906102fc9190613d7a565b61091f565b005b61031d60048036038101906103189190613e88565b610b3f565b005b61033960048036038101906103349190613cad565b610d27565b6040516103469190614360565b60405180910390f35b61036960048036038101906103649190613cff565b610e67565b604051610376919061439d565b60405180910390f35b610387610e7b565b60405161039491906145c0565b60405180910390f35b6103a5610e81565b6040516103b29190614382565b60405180910390f35b6103c3610e94565b6040516103d091906145c0565b60405180910390f35b6103e1610e9a565b005b6103fd60048036038101906103f89190613e0d565b610fdb565b005b6104076110ad565b60405161041491906143d3565b60405180910390f35b6104256110d3565b005b61042f6111e7565b005b61044b60048036038101906104469190613e88565b61127e565b005b61046760048036038101906104629190613e36565b6113e8565b005b6104716114ba565b60405161047e91906145c0565b60405180910390f35b61048f6114c0565b005b610499611aef565b6040516104a691906145c0565b60405180910390f35b6104b7611c7b565b6040516104c491906145c0565b60405180910390f35b6104e760048036038101906104e29190613cad565b611c81565b6040516104f99695949392919061455f565b60405180910390f35b61050a611cd8565b60405161051791906145c0565b60405180910390f35b61053a60048036038101906105359190613d7a565b611cde565b005b610544611eef565b60405161055191906145c0565b60405180910390f35b610562611ef5565b60405161056f9190614382565b60405180910390f35b610580611fa9565b60405161058d9190614529565b60405180910390f35b61059e611fbd565b6040516105ab91906145c0565b60405180910390f35b6105ce60048036038101906105c99190613e5f565b611fc3565b005b6105d8612095565b6040516105e591906143ee565b60405180910390f35b6105f66120bb565b60405161060391906145c0565b60405180910390f35b6106146121a8565b6040516106219190614360565b60405180910390f35b6106326122e6565b6040516106409291906145db565b60405180910390f35b610663600480360381019061065e9190613eb1565b6123d6565b005b61066d612472565b60405161067a91906145c0565b60405180910390f35b61068b612478565b60405161069891906145c0565b60405180910390f35b6106a961247e565b6040516106b79291906145db565b60405180910390f35b6106c8612574565b6040516106d591906142bc565b60405180910390f35b6106e6612598565b6040516106f391906145c0565b60405180910390f35b61071660048036038101906107119190613de4565b612685565b6040516107239190614382565b60405180910390f35b6107346126a5565b60405161074191906145c0565b60405180910390f35b6107526126ab565b005b61075c61277e565b60405161076991906145c0565b60405180910390f35b61077a612784565b005b6107846129b0565b60405161079191906145c0565b60405180910390f35b6107b460048036038101906107af9190613e88565b612b3d565b6040516107c19190614382565b60405180910390f35b6107e460048036038101906107df9190613eb1565b612b9a565b6040516107f191906145c0565b60405180910390f35b610802612ce5565b60405161080f91906143b8565b60405180910390f35b610820612d0b565b60405161082d91906145c0565b60405180910390f35b61083e612d42565b60405161084b91906145c0565b60405180910390f35b60085481565b60008054906101000a900473ffffffffffffffffffffffffffffffffffffffff1673ffffffffffffffffffffffffffffffffffffffff163373ffffffffffffffffffffffffffffffffffffffff16146108e8576040517f08c379a00000000000000000000000000000000000000000000000000000000081526004016108df90614429565b60405180910390fd5b601060009054906101000a900460ff161561090257600080fd5b6001601060006101000a81548160ff021916908315150217905550565b610927611ef5565b610966576040517f08c379a000000000000000000000000000000000000000000000000000000000815260040161095d90614409565b60405180910390fd5b6000600854116109ab576040517f08c379a00000000000000000000000000000000000000000000000000000000081526004016109a290614489565b60405180910390fd5b6009544211156109f0576040517f08c379a00000000000000000000000000000000000000000000000000000000081526004016109e7906144a9565b60405180910390fd5b8051600f54811115610a37576040517f08c379a0000000000000000000000000000000000000000000000000000000008152600401610a2e90614449565b60405180910390fd5b601060009054906101000a900460ff1615610a87576040517f08c379a0000000000000000000000000000000000000000000000000000000008152600401610a7e906144c9565b60405180910390fd5b6001601060006101000a81548160ff02191690831515021790555060003390506000835111610ab557600080fd5b60005b8351811015610b1e57610b0b82858381518110610afe577f4e487b7100000000000000000000000000000000000000000000000000000000600052603260045260246000fd5b6020026020010151612e82565b8080610b1690614994565b915050610ab8565b50506000601060006101000a81548160ff0219169083151502179055505050565b610b47611ef5565b610b86576040517f08c379a0000000000000000000000000000000000000000000000000000000008152600401610b7d90614409565b60405180910390fd5b600060085411610bcb576040517f08c379a0000000000000000000000000000000000000000000000000000000008152600401610bc290614489565b60405180910390fd5b601060009054906101000a900460ff1615610c1b576040517f08c379a0000000000000000000000000000000000000000000000000000000008152600401610c12906144c9565b60405180910390fd5b6001601060006101000a81548160ff02191690831515021790555060003390506000601160008373ffffffffffffffffffffffffffffffffffffffff1673ffffffffffffffffffffffffffffffffffffffff168152602001908152602001600020905060008160000160009054906101000a900461ffff1661ffff16905060008111610cdc576040517f08c379a0000000000000000000000000000000000000000000000000000000008152600401610cd3906144e9565b60405180910390fd5b60008260000160009054906101000a900461ffff1661ffff161115610d0657610d05838561331d565b5b5050506000601060006101000a81548160ff02191690831515021790555050565b60606000601160008473ffffffffffffffffffffffffffffffffffffffff1673ffffffffffffffffffffffffffffffffffffffff1681526020019081526020016000206040518060e00160405290816000820160009054906101000a900461ffff1661ffff1661ffff16815260200160018201805480602002602001604051908101604052809291908181526020018280548015610e0c57602002820191906000526020600020906000905b82829054906101000a900461ffff1661ffff1681526020019060020190602082600101049283019260010382029150808411610dd35790505b50505050508152602001600282015481526020016003820154815260200160048201548152602001600582015481526020016006820160009054906101000a900460ff16151515158152505090508060200151915050919050565b600063150b7a0260e01b9050949350505050565b600a5481565b600060169054906101000a900460ff1681565b60095481565b60008054906101000a900473ffffffffffffffffffffffffffffffffffffffff1673ffffffffffffffffffffffffffffffffffffffff163373ffffffffffffffffffffffffffffffffffffffff1614610f28576040517f08c379a0000000000000000000000000000000000000000000000000000000008152600401610f1f90614429565b60405180910390fd5b600160009054906101000a900473ffffffffffffffffffffffffffffffffffffffff1673ffffffffffffffffffffffffffffffffffffffff166370a08231306040518263ffffffff1660e01b8152600401610f8391906142bc565b60206040518083038186803b158015610f9b57600080fd5b505afa158015610faf573d6000803e3d6000fd5b505050506040513d601f19601f82011682018060405250810190610fd39190613eed565b600581905550565b60008054906101000a900473ffffffffffffffffffffffffffffffffffffffff1673ffffffffffffffffffffffffffffffffffffffff163373ffffffffffffffffffffffffffffffffffffffff1614611069576040517f08c379a000000000000000000000000000000000000000000000000000000000815260040161106090614429565b60405180910390fd5b80600160006101000a81548173ffffffffffffffffffffffffffffffffffffffff021916908373ffffffffffffffffffffffffffffffffffffffff16021790555050565b600260009054906101000a900473ffffffffffffffffffffffffffffffffffffffff1681565b60008054906101000a900473ffffffffffffffffffffffffffffffffffffffff1673ffffffffffffffffffffffffffffffffffffffff163373ffffffffffffffffffffffffffffffffffffffff1614611161576040517f08c379a000000000000000000000000000000000000000000000000000000000815260040161115890614429565b60405180910390fd5b6000600854146111a6576040517f08c379a000000000000000000000000000000000000000000000000000000000815260040161119d90614509565b60405180910390fd5b426008819055506111c4600a546008546135e390919063ffffffff16565b6009819055506001600060166101000a81548160ff021916908315150217905550565b60008054906101000a900473ffffffffffffffffffffffffffffffffffffffff1673ffffffffffffffffffffffffffffffffffffffff163373ffffffffffffffffffffffffffffffffffffffff1614611275576040517f08c379a000000000000000000000000000000000000000000000000000000000815260040161126c90614429565b60405180910390fd5b42600981905550565b611286611ef5565b6112c5576040517f08c379a00000000000000000000000000000000000000000000000000000000081526004016112bc90614409565b60405180910390fd5b60006008541161130a576040517f08c379a000000000000000000000000000000000000000000000000000000000815260040161130190614489565b60405180910390fd5b60095442111561134f576040517f08c379a0000000000000000000000000000000000000000000000000000000008152600401611346906144a9565b60405180910390fd5b601060009054906101000a900460ff161561139f576040517f08c379a0000000000000000000000000000000000000000000000000000000008152600401611396906144c9565b60405180910390fd5b6001601060006101000a81548160ff02191690831515021790555060003390506113c98183612e82565b506000601060006101000a81548160ff02191690831515021790555050565b60008054906101000a900473ffffffffffffffffffffffffffffffffffffffff1673ffffffffffffffffffffffffffffffffffffffff163373ffffffffffffffffffffffffffffffffffffffff1614611476576040517f08c379a000000000000000000000000000000000000000000000000000000000815260040161146d90614429565b60405180910390fd5b80600260006101000a81548173ffffffffffffffffffffffffffffffffffffffff021916908373ffffffffffffffffffffffffffffffffffffffff16021790555050565b600b5481565b6114c8611ef5565b611507576040517f08c379a00000000000000000000000000000000000000000000000000000000081526004016114fe90614409565b60405180910390fd5b601060009054906101000a900460ff1615611557576040517f08c379a000000000000000000000000000000000000000000000000000000000815260040161154e906144c9565b60405180910390fd5b6001601060006101000a81548160ff02191690831515021790555060003390506000601160008373ffffffffffffffffffffffffffffffffffffffff1673ffffffffffffffffffffffffffffffffffffffff16815260200190815260200160002060030154116115c657600080fd5b6000806115d161247e565b915091506000821115611acf5781600160009054906101000a900473ffffffffffffffffffffffffffffffffffffffff1673ffffffffffffffffffffffffffffffffffffffff166370a08231306040518263ffffffff1660e01b815260040161163a91906142bc565b60206040518083038186803b15801561165257600080fd5b505afa158015611666573d6000803e3d6000fd5b505050506040513d601f19601f8201168201806040525081019061168a9190613eed565b101561169557600080fd5b600160009054906101000a900473ffffffffffffffffffffffffffffffffffffffff1673ffffffffffffffffffffffffffffffffffffffff1663a9059cbb84846040518363ffffffff1660e01b81526004016116f2929190614337565b602060405180830381600087803b15801561170c57600080fd5b505af1158015611720573d6000803e3d6000fd5b505050506040513d601f19601f820116820180604052508101906117449190613dbb565b61174d57600080fd5b600160009054906101000a900473ffffffffffffffffffffffffffffffffffffffff1673ffffffffffffffffffffffffffffffffffffffff166342966c68826040518263ffffffff1660e01b81526004016117a891906145c0565b600060405180830381600087803b1580156117c257600080fd5b505af11580156117d6573d6000803e3d6000fd5b5050505060006117e4612d42565b905060008111156119785780600260009054906101000a900473ffffffffffffffffffffffffffffffffffffffff1673ffffffffffffffffffffffffffffffffffffffff166370a08231306040518263ffffffff1660e01b815260040161184b91906142bc565b60206040518083038186803b15801561186357600080fd5b505afa158015611877573d6000803e3d6000fd5b505050506040513d601f19601f8201168201806040525081019061189b9190613eed565b10156118a657600080fd5b600260009054906101000a900473ffffffffffffffffffffffffffffffffffffffff1673ffffffffffffffffffffffffffffffffffffffff1663a9059cbb85836040518363ffffffff1660e01b8152600401611903929190614337565b602060405180830381600087803b15801561191d57600080fd5b505af1158015611931573d6000803e3d6000fd5b505050506040513d601f19601f820116820180604052508101906119559190613dbb565b61195e57600080fd5b806007600082825461197091906146db565b925050819055505b826006600082825461198a91906146db565b92505081905550600061199b6135f9565b905080601160008773ffffffffffffffffffffffffffffffffffffffff1673ffffffffffffffffffffffffffffffffffffffff1681526020019081526020016000206002018190555080601160008773ffffffffffffffffffffffffffffffffffffffff1673ffffffffffffffffffffffffffffffffffffffff1681526020019081526020016000206003018190555083601160008773ffffffffffffffffffffffffffffffffffffffff1673ffffffffffffffffffffffffffffffffffffffff1681526020019081526020016000206005016000828254611a7d91906146db565b925050819055506000601160008773ffffffffffffffffffffffffffffffffffffffff1673ffffffffffffffffffffffffffffffffffffffff1681526020019081526020016000206004018190555050505b5050506000601060006101000a81548160ff021916908315150217905550565b6000611af9611ef5565b611b38576040517f08c379a0000000000000000000000000000000000000000000000000000000008152600401611b2f90614409565b60405180910390fd5b600060085411611b7d576040517f08c379a0000000000000000000000000000000000000000000000000000000008152600401611b7490614489565b60405180910390fd5b6000601160003373ffffffffffffffffffffffffffffffffffffffff1673ffffffffffffffffffffffffffffffffffffffff168152602001908152602001600020905060008160000160009054906101000a900461ffff1690506000826004015490506000611bea612598565b90506000611bf6612d0b565b90506000611c21600360149054906101000a900461ffff1661ffff168361361590919063ffffffff16565b90506000611c3c8661ffff168361362b90919063ffffffff16565b90506000611c53858361362b90919063ffffffff16565b90506000611c6a87836135e390919063ffffffff16565b905080995050505050505050505090565b600c5481565b60116020528060005260406000206000915090508060000160009054906101000a900461ffff16908060020154908060030154908060040154908060050154908060060160009054906101000a900460ff16905086565b600f5481565b611ce6611ef5565b611d25576040517f08c379a0000000000000000000000000000000000000000000000000000000008152600401611d1c90614409565b60405180910390fd5b600060085411611d6a576040517f08c379a0000000000000000000000000000000000000000000000000000000008152600401611d6190614489565b60405180910390fd5b8051600f54811115611db1576040517f08c379a0000000000000000000000000000000000000000000000000000000008152600401611da890614449565b60405180910390fd5b601060009054906101000a900460ff1615611e01576040517f08c379a0000000000000000000000000000000000000000000000000000000008152600401611df8906144c9565b60405180910390fd5b6001601060006101000a81548160ff02191690831515021790555060003390506000835111611e65576040517f08c379a0000000000000000000000000000000000000000000000000000000008152600401611e5c90614469565b60405180910390fd5b60005b8351811015611ece57611ebb82858381518110611eae577f4e487b7100000000000000000000000000000000000000000000000000000000600052603260045260246000fd5b602002602001015161331d565b8080611ec690614994565b915050611e68565b50506000601060006101000a81548160ff0219169083151502179055505050565b60075481565b6000600360009054906101000a900473ffffffffffffffffffffffffffffffffffffffff1673ffffffffffffffffffffffffffffffffffffffff1663e985e9c533306040518363ffffffff1660e01b8152600401611f549291906142d7565b60206040518083038186803b158015611f6c57600080fd5b505afa158015611f80573d6000803e3d6000fd5b505050506040513d601f19601f82011682018060405250810190611fa49190613dbb565b905090565b600060149054906101000a900461ffff1681565b600e5481565b60008054906101000a900473ffffffffffffffffffffffffffffffffffffffff1673ffffffffffffffffffffffffffffffffffffffff163373ffffffffffffffffffffffffffffffffffffffff1614612051576040517f08c379a000000000000000000000000000000000000000000000000000000000815260040161204890614429565b60405180910390fd5b80600360006101000a81548173ffffffffffffffffffffffffffffffffffffffff021916908373ffffffffffffffffffffffffffffffffffffffff16021790555050565b600360009054906101000a900473ffffffffffffffffffffffffffffffffffffffff1681565b60006120c5611ef5565b612104576040517f08c379a00000000000000000000000000000000000000000000000000000000081526004016120fb90614409565b60405180910390fd5b60006008541161211357600080fd5b600061211d6135f9565b90506000612176601160003373ffffffffffffffffffffffffffffffffffffffff1673ffffffffffffffffffffffffffffffffffffffff168152602001908152602001600020600201548361364190919063ffffffff16565b9050600a811061219b57612194600a8261361590919063ffffffff16565b90506121a0565b600090505b809250505090565b60606000601160003373ffffffffffffffffffffffffffffffffffffffff1673ffffffffffffffffffffffffffffffffffffffff1681526020019081526020016000206040518060e00160405290816000820160009054906101000a900461ffff1661ffff1661ffff1681526020016001820180548060200260200160405190810160405280929190818152602001828054801561228d57602002820191906000526020600020906000905b82829054906101000a900461ffff1661ffff16815260200190600201906020826001010492830192600103820291508084116122545790505b50505050508152602001600282015481526020016003820154815260200160048201548152602001600582015481526020016006820160009054906101000a900460ff1615151515815250509050806020015191505090565b6000806122f1611ef5565b612330576040517f08c379a000000000000000000000000000000000000000000000000000000000815260040161232790614409565b60405180910390fd5b600060085411612375576040517f08c379a000000000000000000000000000000000000000000000000000000000815260040161236c90614489565b60405180910390fd5b600061237f6120bb565b90506000612398600b548361362b90919063ffffffff16565b90506000816201518011156123b057600090506123c9565b6123c6620151808361361590919063ffffffff16565b90505b8082945094505050509091565b60008054906101000a900473ffffffffffffffffffffffffffffffffffffffff1673ffffffffffffffffffffffffffffffffffffffff163373ffffffffffffffffffffffffffffffffffffffff1614612464576040517f08c379a000000000000000000000000000000000000000000000000000000000815260040161245b90614429565b60405180910390fd5b61246e818361331d565b5050565b600d5481565b60055481565b600080612489611ef5565b6124c8576040517f08c379a00000000000000000000000000000000000000000000000000000000081526004016124bf90614409565b60405180910390fd5b60006008541161250d576040517f08c379a000000000000000000000000000000000000000000000000000000000815260040161250490614489565b60405180910390fd5b60006125176129b0565b90506000612523611aef565b9050600061254d8361253f60648561361590919063ffffffff16565b61362b90919063ffffffff16565b90506000612564828461364190919063ffffffff16565b9050808295509550505050509091565b60008054906101000a900473ffffffffffffffffffffffffffffffffffffffff1681565b60006125a2611ef5565b6125e1576040517f08c379a00000000000000000000000000000000000000000000000000000000081526004016125d890614409565b60405180910390fd5b6000600854116125f057600080fd5b60006125fa6135f9565b90506000612653601160003373ffffffffffffffffffffffffffffffffffffffff1673ffffffffffffffffffffffffffffffffffffffff168152602001908152602001600020600301548361364190919063ffffffff16565b9050600a811061267857612671600a8261361590919063ffffffff16565b905061267d565b600090505b809250505090565b60126020528060005260406000206000915054906101000a900460ff1681565b60045481565b60008054906101000a900473ffffffffffffffffffffffffffffffffffffffff1673ffffffffffffffffffffffffffffffffffffffff163373ffffffffffffffffffffffffffffffffffffffff1614612739576040517f08c379a000000000000000000000000000000000000000000000000000000000815260040161273090614429565b60405180910390fd5b601060009054906101000a900460ff1661275257600080fd5b601060009054906101000a900460ff1615601060006101000a81548160ff021916908315150217905550565b60065481565b60008054906101000a900473ffffffffffffffffffffffffffffffffffffffff1673ffffffffffffffffffffffffffffffffffffffff163373ffffffffffffffffffffffffffffffffffffffff1614612812576040517f08c379a000000000000000000000000000000000000000000000000000000000815260040161280990614429565b60405180910390fd5b60006008541161282157600080fd5b6000600160009054906101000a900473ffffffffffffffffffffffffffffffffffffffff1673ffffffffffffffffffffffffffffffffffffffff166370a08231306040518263ffffffff1660e01b815260040161287e91906142bc565b60206040518083038186803b15801561289657600080fd5b505afa1580156128aa573d6000803e3d6000fd5b505050506040513d601f19601f820116820180604052508101906128ce9190613eed565b9050600081116128dd57600080fd5b600160009054906101000a900473ffffffffffffffffffffffffffffffffffffffff1673ffffffffffffffffffffffffffffffffffffffff1663a9059cbb60008054906101000a900473ffffffffffffffffffffffffffffffffffffffff16836040518363ffffffff1660e01b815260040161295a929190614337565b602060405180830381600087803b15801561297457600080fd5b505af1158015612988573d6000803e3d6000fd5b505050506040513d601f19601f820116820180604052508101906129ac9190613dbb565b5050565b60006129ba611ef5565b6129f9576040517f08c379a00000000000000000000000000000000000000000000000000000000081526004016129f090614409565b60405180910390fd5b600060085411612a3e576040517f08c379a0000000000000000000000000000000000000000000000000000000008152600401612a3590614489565b60405180910390fd5b600080612a496122e6565b915091506000600d54821015612b34576000612a7362015180600d5461361590919063ffffffff16565b90506000612a8a858361364190919063ffffffff16565b90506000612adc600454612ace6064612ac087612ab26004548961362b90919063ffffffff16565b61361590919063ffffffff16565b61362b90919063ffffffff16565b61361590919063ffffffff16565b9050612b2e600454612b2083612b126064612b04600454600e5461362b90919063ffffffff16565b61361590919063ffffffff16565b61362b90919063ffffffff16565b61361590919063ffffffff16565b93505050505b80935050505090565b6000803383604051602001612b53929190614290565b60405160208183030381529060405280519060200120905060006012600083815260200190815260200160002060009054906101000a900460ff1690508092505050919050565b600080600090506000601160008573ffffffffffffffffffffffffffffffffffffffff1673ffffffffffffffffffffffffffffffffffffffff168152602001908152602001600020600101805480602002602001604051908101604052809291908181526020018280548015612c5757602002820191906000526020600020906000905b82829054906101000a900461ffff1661ffff1681526020019060020190602082600101049283019260010382029150808411612c1e5790505b5050505050905060005b8151811015612cd857818181518110612ca3577f4e487b7100000000000000000000000000000000000000000000000000000000600052603260045260246000fd5b602002602001015161ffff168661ffff161415612cc557809350505050612cdf565b8080612cd090614994565b915050612c61565b5081925050505b92915050565b600160009054906101000a900473ffffffffffffffffffffffffffffffffffffffff1681565b600080612d39600b54612d2b600a5460055461361590919063ffffffff16565b61362b90919063ffffffff16565b90508091505090565b6000612d4c611ef5565b612d8b576040517f08c379a0000000000000000000000000000000000000000000000000000000008152600401612d8290614409565b60405180910390fd5b600060085411612dd0576040517f08c379a0000000000000000000000000000000000000000000000000000000008152600401612dc790614489565b60405180910390fd5b6000601160003373ffffffffffffffffffffffffffffffffffffffff1673ffffffffffffffffffffffffffffffffffffffff168152602001908152602001600020905060008160000160009054906101000a900461ffff1690506000612e47600a612e396120bb565b61362b90919063ffffffff16565b90506000612e768361ffff16612e68600c548561361590919063ffffffff16565b61362b90919063ffffffff16565b90508094505050505090565b60008282604051602001612e97929190614290565b6040516020818303038152906040528051906020012090508273ffffffffffffffffffffffffffffffffffffffff16600360009054906101000a900473ffffffffffffffffffffffffffffffffffffffff1673ffffffffffffffffffffffffffffffffffffffff16636352211e846040518263ffffffff1660e01b8152600401612f219190614544565b60206040518083038186803b158015612f3957600080fd5b505afa158015612f4d573d6000803e3d6000fd5b505050506040513d601f19601f82011682018060405250810190612f719190613cd6565b73ffffffffffffffffffffffffffffffffffffffff1614612f925750613319565b6000601160008573ffffffffffffffffffffffffffffffffffffffff1673ffffffffffffffffffffffffffffffffffffffff168152602001908152602001600020905060008160000160009054906101000a900461ffff1661ffff16148015612fff575060008160020154145b156130405761300c6135f9565b81600201819055506000816004018190555060018160060160006101000a81548160ff021916908315150217905550613057565b600061304a611aef565b9050808260040181905550505b61305f6135f9565b8160030181905550806001018390806001815401808255809150506001900390600052602060002090601091828204019190066002029091909190916101000a81548161ffff021916908361ffff16021790555080600001600081819054906101000a900461ffff16809291906130d590614969565b91906101000a81548161ffff021916908361ffff1602179055505080601160008673ffffffffffffffffffffffffffffffffffffffff1673ffffffffffffffffffffffffffffffffffffffff1681526020019081526020016000206000820160009054906101000a900461ffff168160000160006101000a81548161ffff021916908361ffff1602179055506001820181600101908054613177929190613956565b50600282015481600201556003820154816003015560048201548160040155600582015481600501556006820160009054906101000a900460ff168160060160006101000a81548160ff02191690831515021790555090505060016012600084815260200190815260200160002060006101000a81548160ff0219169083151502179055506000601481819054906101000a900461ffff168092919061321c90614969565b91906101000a81548161ffff021916908361ffff16021790555050600360009054906101000a900473ffffffffffffffffffffffffffffffffffffffff1673ffffffffffffffffffffffffffffffffffffffff166323b872dd8530866040518463ffffffff1660e01b815260040161329693929190614300565b600060405180830381600087803b1580156132b057600080fd5b505af11580156132c4573d6000803e3d6000fd5b505050508373ffffffffffffffffffffffffffffffffffffffff167f9a2f579c219eb1955c7485729ed1260d94d6e9f49d593852f6589f9d01041ab18460405161330e9190614529565b60405180910390a250505b5050565b60008282604051602001613332929190614290565b6040516020818303038152906040528051906020012090506012600082815260200190815260200160002060009054906101000a900460ff16156135de57600061337a611aef565b905080601160008673ffffffffffffffffffffffffffffffffffffffff1673ffffffffffffffffffffffffffffffffffffffff16815260200190815260200160002060040181905550601160008573ffffffffffffffffffffffffffffffffffffffff1673ffffffffffffffffffffffffffffffffffffffff168152602001908152602001600020600001600081819054906101000a900461ffff16809291906134239061493f565b91906101000a81548161ffff021916908361ffff160217905550506134466135f9565b601160008673ffffffffffffffffffffffffffffffffffffffff1673ffffffffffffffffffffffffffffffffffffffff16815260200190815260200160002060030181905550600360009054906101000a900473ffffffffffffffffffffffffffffffffffffffff1673ffffffffffffffffffffffffffffffffffffffff166323b872dd3086866040518463ffffffff1660e01b81526004016134eb93929190614300565b600060405180830381600087803b15801561350557600080fd5b505af1158015613519573d6000803e3d6000fd5b5050505060006012600084815260200190815260200160002060006101000a81548160ff0219169083151502179055506000601481819054906101000a900461ffff16809291906135699061493f565b91906101000a81548161ffff021916908361ffff1602179055505061358e8385613657565b8373ffffffffffffffffffffffffffffffffffffffff167f56853f8f6e1153ce606e228ce2f7f10ccf941a927cda730647d5f8006abcd93a846040516135d49190614529565b60405180910390a2505b505050565b600081836135f191906146db565b905092915050565b6000600954421161360c57429050613612565b60095490505b90565b600081836136239190614731565b905092915050565b600081836136399190614762565b905092915050565b6000818361364f91906147bc565b905092915050565b6000601160008373ffffffffffffffffffffffffffffffffffffffff1673ffffffffffffffffffffffffffffffffffffffff16815260200190815260200160002060010190506001818054905014801561371557508261ffff16816000815481106136eb577f4e487b7100000000000000000000000000000000000000000000000000000000600052603260045260246000fd5b90600052602060002090601091828204019190066002029054906101000a900461ffff1661ffff16145b1561377a57606080601160008573ffffffffffffffffffffffffffffffffffffffff1673ffffffffffffffffffffffffffffffffffffffff16815260200190815260200160002060010190805190602001906137729291906139b6565b505050613952565b60006137868484612b9a565b9050818054905081101561394f5760008190505b600183805490506137ab91906147bc565b81101561389657826001826137c091906146db565b815481106137f7577f4e487b7100000000000000000000000000000000000000000000000000000000600052603260045260246000fd5b90600052602060002090601091828204019190066002029054906101000a900461ffff16838281548110613854577f4e487b7100000000000000000000000000000000000000000000000000000000600052603260045260246000fd5b90600052602060002090601091828204019190066002026101000a81548161ffff021916908361ffff160217905550808061388e90614994565b91505061379a565b50818054806138ce577f4e487b7100000000000000000000000000000000000000000000000000000000600052603160045260246000fd5b60019003818190600052602060002090601091828204019190066002026101000a81549061ffff0219169055905581601160008573ffffffffffffffffffffffffffffffffffffffff1673ffffffffffffffffffffffffffffffffffffffff16815260200190815260200160002060010190805461394d929190613a60565b505b50505b5050565b82805482825590600052602060002090600f016010900481019282156139a557600052602060002091600f016010900482015b828111156139a4578254825591600101919060010190613989565b5b5090506139b29190613ac0565b5090565b82805482825590600052602060002090600f01601090048101928215613a4f5791602002820160005b83821115613a1f57835183826101000a81548161ffff021916908361ffff16021790555092602001926002016020816001010492830192600103026139df565b8015613a4d5782816101000a81549061ffff0219169055600201602081600101049283019260010302613a1f565b505b509050613a5c9190613ac0565b5090565b82805482825590600052602060002090600f01601090048101928215613aaf57600052602060002091600f016010900482015b82811115613aae578254825591600101919060010190613a93565b5b509050613abc9190613ac0565b5090565b5b80821115613ad9576000816000905550600101613ac1565b5090565b6000613af0613aeb84614635565b614604565b90508083825260208201905082856020860282011115613b0f57600080fd5b60005b85811015613b3f5781613b258882613c6e565b845260208401935060208301925050600181019050613b12565b5050509392505050565b6000613b5c613b5784614661565b614604565b905082815260208101848484011115613b7457600080fd5b613b7f848285614930565b509392505050565b600081359050613b9681614aba565b92915050565b600081519050613bab81614aba565b92915050565b600082601f830112613bc257600080fd5b8135613bd2848260208601613add565b91505092915050565b600081519050613bea81614ad1565b92915050565b600081359050613bff81614ae8565b92915050565b600082601f830112613c1657600080fd5b8135613c26848260208601613b49565b91505092915050565b600081359050613c3e81614aff565b92915050565b600081359050613c5381614b16565b92915050565b600081359050613c6881614b2d565b92915050565b600081359050613c7d81614b44565b92915050565b600081359050613c9281614b5b565b92915050565b600081519050613ca781614b5b565b92915050565b600060208284031215613cbf57600080fd5b6000613ccd84828501613b87565b91505092915050565b600060208284031215613ce857600080fd5b6000613cf684828501613b9c565b91505092915050565b60008060008060808587031215613d1557600080fd5b6000613d2387828801613b87565b9450506020613d3487828801613b87565b9350506040613d4587828801613c83565b925050606085013567ffffffffffffffff811115613d6257600080fd5b613d6e87828801613c05565b91505092959194509250565b600060208284031215613d8c57600080fd5b600082013567ffffffffffffffff811115613da657600080fd5b613db284828501613bb1565b91505092915050565b600060208284031215613dcd57600080fd5b6000613ddb84828501613bdb565b91505092915050565b600060208284031215613df657600080fd5b6000613e0484828501613bf0565b91505092915050565b600060208284031215613e1f57600080fd5b6000613e2d84828501613c2f565b91505092915050565b600060208284031215613e4857600080fd5b6000613e5684828501613c44565b91505092915050565b600060208284031215613e7157600080fd5b6000613e7f84828501613c59565b91505092915050565b600060208284031215613e9a57600080fd5b6000613ea884828501613c6e565b91505092915050565b60008060408385031215613ec457600080fd5b6000613ed285828601613c6e565b9250506020613ee385828601613b87565b9150509250929050565b600060208284031215613eff57600080fd5b6000613f0d84828501613c98565b91505092915050565b6000613f22838361423d565b60208301905092915050565b613f37816147f0565b82525050565b613f4e613f49826147f0565b6149dd565b82525050565b6000613f5f826146a1565b613f6981856146b9565b9350613f7483614691565b8060005b83811015613fa5578151613f8c8882613f16565b9750613f97836146ac565b925050600181019050613f78565b5085935050505092915050565b613fbb81614802565b82525050565b613fca81614818565b82525050565b613fd9816148b2565b82525050565b613fe8816148d6565b82525050565b613ff7816148fa565b82525050565b600061400a6014836146ca565b91507f4552525f415050524f56455f434f4e54524143540000000000000000000000006000830152602082019050919050565b600061404a600d836146ca565b91507f4552525f4e4f545f4f574e4552000000000000000000000000000000000000006000830152602082019050919050565b600061408a6012836146ca565b91507f4552525f35305f5354414b455f4c494d495400000000000000000000000000006000830152602082019050919050565b60006140ca6016836146ca565b91507f4552525f53454c4543545f534f4d455f534b554c4c53000000000000000000006000830152602082019050919050565b600061410a6014836146ca565b91507f4552525f5354414b494e475f44495341424c45440000000000000000000000006000830152602082019050919050565b600061414a600f836146ca565b91507f4552525f5354414b455f454e44454400000000000000000000000000000000006000830152602082019050919050565b600061418a6011836146ca565b91507f4552525f4e4f5f5245454e54524e4143590000000000000000000000000000006000830152602082019050919050565b60006141ca6014836146ca565b91507f4552525f4e4f5f534b554c4c535f5354414b45440000000000000000000000006000830152602082019050919050565b600061420a6012836146ca565b91507f4552525f534541534f4e5f5354415254454400000000000000000000000000006000830152602082019050919050565b6142468161487a565b82525050565b6142558161487a565b82525050565b61426c6142678261487a565b6149ef565b82525050565b61427b8161491e565b82525050565b61428a816148a8565b82525050565b600061429c8285613f3d565b6014820191506142ac828461425b565b6002820191508190509392505050565b60006020820190506142d16000830184613f2e565b92915050565b60006040820190506142ec6000830185613f2e565b6142f96020830184613f2e565b9392505050565b60006060820190506143156000830186613f2e565b6143226020830185613f2e565b61432f6040830184614272565b949350505050565b600060408201905061434c6000830185613f2e565b6143596020830184614281565b9392505050565b6000602082019050818103600083015261437a8184613f54565b905092915050565b60006020820190506143976000830184613fb2565b92915050565b60006020820190506143b26000830184613fc1565b92915050565b60006020820190506143cd6000830184613fd0565b92915050565b60006020820190506143e86000830184613fdf565b92915050565b60006020820190506144036000830184613fee565b92915050565b6000602082019050818103600083015261442281613ffd565b9050919050565b600060208201905081810360008301526144428161403d565b9050919050565b600060208201905081810360008301526144628161407d565b9050919050565b60006020820190508181036000830152614482816140bd565b9050919050565b600060208201905081810360008301526144a2816140fd565b9050919050565b600060208201905081810360008301526144c28161413d565b9050919050565b600060208201905081810360008301526144e28161417d565b9050919050565b60006020820190508181036000830152614502816141bd565b9050919050565b60006020820190508181036000830152614522816141fd565b9050919050565b600060208201905061453e600083018461424c565b92915050565b60006020820190506145596000830184614272565b92915050565b600060c082019050614574600083018961424c565b6145816020830188614281565b61458e6040830187614281565b61459b6060830186614281565b6145a86080830185614281565b6145b560a0830184613fb2565b979650505050505050565b60006020820190506145d56000830184614281565b92915050565b60006040820190506145f06000830185614281565b6145fd6020830184614281565b9392505050565b6000604051905081810181811067ffffffffffffffff8211171561462b5761462a614a71565b5b8060405250919050565b600067ffffffffffffffff8211156146505761464f614a71565b5b602082029050602081019050919050565b600067ffffffffffffffff82111561467c5761467b614a71565b5b601f19601f8301169050602081019050919050565b6000819050602082019050919050565b600081519050919050565b6000602082019050919050565b600082825260208201905092915050565b600082825260208201905092915050565b60006146e6826148a8565b91506146f1836148a8565b9250827fffffffffffffffffffffffffffffffffffffffffffffffffffffffffffffffff0382111561472657614725614a13565b5b828201905092915050565b600061473c826148a8565b9150614747836148a8565b92508261475757614756614a42565b5b828204905092915050565b600061476d826148a8565b9150614778836148a8565b9250817fffffffffffffffffffffffffffffffffffffffffffffffffffffffffffffffff04831182151516156147b1576147b0614a13565b5b828202905092915050565b60006147c7826148a8565b91506147d2836148a8565b9250828210156147e5576147e4614a13565b5b828203905092915050565b60006147fb82614888565b9050919050565b60008115159050919050565b6000819050919050565b60007fffffffff0000000000000000000000000000000000000000000000000000000082169050919050565b600061484f826147f0565b9050919050565b6000614861826147f0565b9050919050565b6000614873826147f0565b9050919050565b600061ffff82169050919050565b600073ffffffffffffffffffffffffffffffffffffffff82169050919050565b6000819050919050565b60006148bd826148c4565b9050919050565b60006148cf82614888565b9050919050565b60006148e1826148e8565b9050919050565b60006148f382614888565b9050919050565b60006149058261490c565b9050919050565b600061491782614888565b9050919050565b60006149298261487a565b9050919050565b82818337600083830152505050565b600061494a8261487a565b9150600082141561495e5761495d614a13565b5b600182039050919050565b60006149748261487a565b915061ffff82141561498957614988614a13565b5b600182019050919050565b600061499f826148a8565b91507fffffffffffffffffffffffffffffffffffffffffffffffffffffffffffffffff8214156149d2576149d1614a13565b5b600182019050919050565b60006149e882614a01565b9050919050565b60006149fa82614aa0565b9050919050565b6000614a0c82614aad565b9050919050565b7f4e487b7100000000000000000000000000000000000000000000000000000000600052601160045260246000fd5b7f4e487b7100000000000000000000000000000000000000000000000000000000600052601260045260246000fd5b7f4e487b7100000000000000000000000000000000000000000000000000000000600052604160045260246000fd5b60008160f01b9050919050565b60008160601b9050919050565b614ac3816147f0565b8114614ace57600080fd5b50565b614ada81614802565b8114614ae557600080fd5b50565b614af18161480e565b8114614afc57600080fd5b50565b614b0881614844565b8114614b1357600080fd5b50565b614b1f81614856565b8114614b2a57600080fd5b50565b614b3681614868565b8114614b4157600080fd5b50565b614b4d8161487a565b8114614b5857600080fd5b50565b614b64816148a8565b8114614b6f57600080fd5b5056fea2646970667358221220f02769e825500a0afbd309917b1dd34f985b19d59c44bfb9f7feedc57580725464736f6c63430008000033",
  "immutableReferences": {},
  "source": "// SPDX-License-Identifier: MIT\npragma solidity >=0.4.22 <0.9.0;\npragma abicoder v2;\n\nimport \"./interface/IERC20Burnable.sol\";\nimport \"@openzeppelin/contracts/token/ERC20/IERC20.sol\";\nimport \"@openzeppelin/contracts/token/ERC721/IERC721.sol\";\nimport \"@openzeppelin/contracts/token/ERC721/IERC721Receiver.sol\";\nimport \"@openzeppelin/contracts/utils/math/SafeMath.sol\";\n\ncontract croSkullStaking is IERC721Receiver {\n    using SafeMath for uint;\n\n    //Mutable Main settings\n    address public owner;\n    uint16 public stakedSkullsCount;\n    bool public started;\n\n    //Contracts\n    IERC20Burnable public rewardToken;\n    IERC20 public soulToken;\n    IERC721 public croSkullContract;\n\n    //NFT Supply\n    uint16 croSkullContractMaxSupply = 6666;\n\n    //Pool settings\n    uint public percentOperator = 1000;\n    uint public poolRewardSupply;\n    uint public poolWithdrawedAmount;\n    uint public poolWithdrawedSouls;\n    uint public startStakeTimestamp;\n    uint public endStakeTimestamp;\n    uint public vestingDuration = 100 days;\n    uint public cycleInterval = 10 seconds;\n    uint public soulsDropInterval = 30 days;\n    uint public stakeMalusDuration = 32 days;\n    uint public stakeMalusFee = 80;\n    uint public safeMaxUnstake = 50;\n\n    bool internal locked;\n\n    mapping( address => UserInfo ) public userDetails;\n\n    struct UserInfo {\n        uint16 tokenCount;\n        uint16[] tokensIds;\n        uint lastWithdrawTimestamp;\n        uint startingStake;\n        uint availableBalance;\n        uint alreadyClaimed;\n        bool enabled;\n    }\n\n\n    mapping( bytes32 => bool ) public skullsOwner;\n\n    modifier onlyOwner() {\n        require(\n            msg.sender == owner, \n            \"ERR_NOT_OWNER\"\n        );\n        _;\n    }\n\n    modifier isApproved() {\n        require( \n            approvalStatus(),\n            \"ERR_APPROVE_CONTRACT\" \n        );\n        _;\n    }\n\n    modifier isStake() {\n        require( \n            startStakeTimestamp > 0,\n            \"ERR_STAKING_DISABLED\" \n        );\n        _;\n    }\n\n    modifier noReentrant() {\n        require(\n            !locked, \n            \"ERR_NO_REENTRNACY\"\n        );\n        locked = true;\n        _;\n        locked = false;\n    }\n\n    modifier isSafeStake( uint _length ) {\n        require( \n            _length <= safeMaxUnstake,\n            \"ERR_50_STAKE_LIMIT\" \n        );\n        _;\n    }\n\n    modifier notEnded() {\n        require(\n            block.timestamp <= endStakeTimestamp,\n            \"ERR_STAKE_ENDED\"\n        );\n        _;\n    }\n    event Stake(address indexed user, uint16 tokenId);\n    event unStake(address indexed user, uint16 tokenId);\n    event Withdraw(address indexed user, uint256 amout);\n\n    constructor ( ) {\n        owner = msg.sender;\n        startStakeTimestamp = 0;\n    }\n\n    /* \n        Only owner methods\n    */\n    function adminUnlock () public onlyOwner {\n        require( locked );\n        locked = !locked;\n    }\n\n    function adminLock () public onlyOwner {\n        require( !locked );\n        locked = true;\n    }\n\n    function adminEndStake() public onlyOwner {\n        endStakeTimestamp = block.timestamp;\n    }\n\n    function adminUnstake (uint16 _tokenId, address _ownerOf ) public onlyOwner {\n        _unstakeSkull( _ownerOf, _tokenId );\n    }\n\n    function startRewards() public onlyOwner {\n        require( startStakeTimestamp == 0, \"ERR_SEASON_STARTED\");\n        startStakeTimestamp = block.timestamp;\n        endStakeTimestamp = startStakeTimestamp.add( vestingDuration );\n        started = true;\n    }\n\n    function fundRewardPool() public onlyOwner {\n        poolRewardSupply = rewardToken.balanceOf( address(this) );\n    }\n\n    function adminBurnUnvested () public onlyOwner {\n        require( startStakeTimestamp > 0 );\n        uint contractBalance = rewardToken.balanceOf( address(this) );\n        require( contractBalance > 0 );\n        rewardToken.transfer( owner, contractBalance );\n    }\n\n    function setNFTAddress( IERC721 _nftContract ) public onlyOwner {\n        croSkullContract = _nftContract;\n    }\n\n    function setTokenAddress( IERC20Burnable _tokenAddress ) public onlyOwner {\n        rewardToken = _tokenAddress;\n    }\n\n    function setSoulToken( IERC20 _soulToken ) public onlyOwner {\n        soulToken = _soulToken;\n    }\n\n    /* public view function */\n    function _rewardPerCycles() public view returns(uint) { \n        uint rewardPerCycles = poolRewardSupply\n            .div(vestingDuration)\n            .mul(cycleInterval);\n        return rewardPerCycles;\n    }\n\n    /**\n       Modifier: isApproved || isWithdraw || isStake for stakeholders public methods \n     */\n\n    function batchStakeSkulls( uint16[] memory _tokenIds ) public isApproved isStake notEnded isSafeStake( _tokenIds.length ) noReentrant {\n        address _from = msg.sender;\n        require( _tokenIds.length > 0 );\n        for( uint i = 0; i < _tokenIds.length; i++ ){\n            _stakeSkull(_from, _tokenIds[i]);\n        }\n    }\n\n    function batchUnstakeSkulls( uint16[] memory _tokenIds ) public isApproved isStake isSafeStake( _tokenIds.length ) noReentrant {\n        address _to = msg.sender;\n        require( _tokenIds.length > 0, \"ERR_SELECT_SOME_SKULLS\" );\n        for( uint i = 0; i < _tokenIds.length; i++ ){\n            _unstakeSkull( _to , _tokenIds[i] );\n        }\n    }\n\n\n    function stakeSkull ( uint16 _tokenId ) public isApproved isStake notEnded noReentrant {\n        address _from = msg.sender;\n        _stakeSkull(_from, _tokenId);\n    }\n\n    function unstakeSkull ( uint16 _tokenId ) public isApproved isStake noReentrant {\n        address _to = msg.sender;\n        UserInfo storage currentUser = userDetails[_to];\n        uint skullsAmount = currentUser.tokenCount;\n        require( skullsAmount > 0, \"ERR_NO_SKULLS_STAKED\" );\n        if( currentUser.tokenCount > 0 ){\n            _unstakeSkull(_to, _tokenId);\n        }\n    }\n\n    function _stakeSkull(address _from, uint16 _tokenId  ) private {\n        //[keccka256|address:owner][keccka256|uint16:tokenId]\n        bytes32 tokenHash = keccak256(\n            abi.encodePacked(\n                _from,\n                _tokenId\n            )\n        );\n        if ( croSkullContract.ownerOf(_tokenId) != _from  ) // skull already staked || not owner\n            return;\n\n        UserInfo storage currentUser = userDetails[_from];\n        if( currentUser.tokenCount == 0 && currentUser.lastWithdrawTimestamp == 0 ) {\n            currentUser.lastWithdrawTimestamp = _currentTimestamp();\n            currentUser.availableBalance = 0;\n            currentUser.enabled = true;\n        }else{\n            uint userRewards = calculateRewards();\n            currentUser.availableBalance = userRewards;\n        }\n\n        currentUser.startingStake = _currentTimestamp();\n        currentUser.tokensIds.push(_tokenId);\n        currentUser.tokenCount++;\n        userDetails[_from] = currentUser;\n        skullsOwner[tokenHash] = true;\n        stakedSkullsCount++;\n        croSkullContract.transferFrom( _from, address(this), _tokenId );\n        \n        emit Stake(_from, _tokenId);\n    }\n\n    function _currentTimestamp() internal view returns(uint) {\n        if( block.timestamp <= endStakeTimestamp ) {\n            return block.timestamp;\n        }else{\n            return endStakeTimestamp;\n        }\n    }\n\n    function _unstakeSkull(address _to, uint16 _tokenId ) private {\n        bytes32 tokenHash = keccak256(\n            abi.encodePacked(\n                _to,\n                _tokenId\n            )\n        );\n        if( skullsOwner[tokenHash] ) {\n            uint userRewards = calculateRewards();\n            userDetails[_to].availableBalance = userRewards;\n            userDetails[_to].tokenCount--;\n            userDetails[_to].startingStake = _currentTimestamp();\n            croSkullContract.transferFrom(address(this), _to, _tokenId);\n            skullsOwner[tokenHash] = false;\n            stakedSkullsCount--;\n            _removeTokenId(_tokenId, _to);\n            emit unStake(_to, _tokenId);\n        }\n    }\n\n    function withdraw () public isApproved noReentrant {\n        address _to = msg.sender;\n        require( userDetails[_to].startingStake > 0 );\n        (uint userRewards, uint calculatedMalus ) = calculateRewardsPlusMalus();\n        if( userRewards > 0 ){\n            require( rewardToken.balanceOf( address(this) ) >= userRewards );\n            require( rewardToken.transfer( _to, userRewards ) );\n            rewardToken.burn( calculatedMalus );\n            uint droppedSouls = calculateDroppedSouls();\n            if( droppedSouls > 0 ){\n                require( soulToken.balanceOf( address(this) ) >= droppedSouls );\n                require( soulToken.transfer( _to, droppedSouls ) );\n                poolWithdrawedSouls += droppedSouls;\n            }\n            poolWithdrawedAmount += userRewards;\n            uint currentTimestamp = _currentTimestamp();\n            userDetails[_to].lastWithdrawTimestamp = currentTimestamp;\n            userDetails[_to].startingStake = currentTimestamp;\n            userDetails[_to].alreadyClaimed += userRewards;\n            userDetails[_to].availableBalance = 0;\n        }\n    }\n\n    function _tenSecCyclesPassed () public view isApproved returns(uint) {\n        require( startStakeTimestamp > 0 );\n        uint currentTimestamp = _currentTimestamp();\n        uint actualStakeMinutes = currentTimestamp\n            .sub(userDetails[msg.sender].startingStake);\n\n        if( actualStakeMinutes >= 10 ){\n            actualStakeMinutes = actualStakeMinutes\n                .div( 10 seconds );\n        }else{\n            actualStakeMinutes = 0;\n        }\n        //( _currentTimestamp() - userDetails[msg.sender].startingStake ) / 10 seconds;\n        return actualStakeMinutes;\n    }\n\n    function _tenSecCyclesPassedLastWithdraw () public view isApproved returns(uint) {\n        require( startStakeTimestamp > 0 );\n        uint currentTimestamp = _currentTimestamp();\n        uint actualStakeMinutes = currentTimestamp\n            .sub(userDetails[msg.sender].lastWithdrawTimestamp);\n\n        if( actualStakeMinutes >= 10 ){\n            actualStakeMinutes = actualStakeMinutes\n                .div( 10 seconds );\n        }else{\n            actualStakeMinutes = 0;\n        }\n        //( currentTimestamp - userDetails[msg.sender].lastWithdrawTimestamp ) / 10 seconds;\n        return actualStakeMinutes;\n    }\n\n    function calculateDroppedSouls() public view isApproved isStake returns (uint) {\n        UserInfo storage tempUser = userDetails[msg.sender];\n        uint16 tokenCount = tempUser.tokenCount; // total staked nfts\n\n        uint totalActiveSeconds = _tenSecCyclesPassedLastWithdraw() // 1200 s\n            .mul(10);\n\n        uint totalMinedSouls = totalActiveSeconds\n            .div(soulsDropInterval)\n            .mul(tokenCount);\n\n        return totalMinedSouls;\n    }\n\n    function daysSinceLastWithdraw() public view isApproved isStake returns( uint, uint ) {\n        uint userActiveCycles = _tenSecCyclesPassedLastWithdraw(); \n        uint totalSecondsPassed = userActiveCycles\n            .mul(cycleInterval);\n\n        uint nDaysPassed;\n        \n        if( 1 days > totalSecondsPassed ){\n            nDaysPassed = 0;\n        }else{\n            nDaysPassed = totalSecondsPassed\n                .div(1 days);\n        }\n        return (\n            nDaysPassed,\n            totalSecondsPassed\n        );\n    }\n\n    function calculateMalusFee() public view isApproved isStake returns( uint ) {\n        ( uint nDaysPassed, uint totalSecondsPassed ) = daysSinceLastWithdraw();\n        uint MalusFee = 0;\n        \n        if( totalSecondsPassed < stakeMalusDuration ){\n            uint stakeMalusInDays = stakeMalusDuration\n                .div(1 days);\n\n            uint malusDays = stakeMalusInDays\n                .sub(nDaysPassed); \n\n            uint malusCoef = malusDays\n                .mul(percentOperator)\n                .div(stakeMalusInDays)\n                .mul(100)\n                .div(percentOperator);\n\n            MalusFee = stakeMalusFee\n                .mul(percentOperator)\n                .div(100)\n                .mul(malusCoef)\n                .div(percentOperator);\n        }\n        return MalusFee;\n    }\n\n    function calculateRewardsPlusMalus() public view isApproved isStake returns( uint, uint ) {\n        uint calulcatedMalusFee = calculateMalusFee();\n        uint rewardAmount = calculateRewards();\n        uint calculatedMalus = rewardAmount\n                .div(100)\n                .mul(calulcatedMalusFee);\n\n        uint userRewardsPlusMalus = rewardAmount\n            .sub(calculatedMalus);\n\n        return (userRewardsPlusMalus, calculatedMalus );\n    }\n\n    function calculateRewards() public view isApproved isStake returns(uint) {\n        UserInfo storage tempUser = userDetails[msg.sender];\n        uint16 tokenCount = tempUser.tokenCount;\n\n        uint availableBalance = tempUser.availableBalance;\n        uint userActiveCycles = _tenSecCyclesPassed();\n\n        uint rewardPerCycles = _rewardPerCycles();\n        uint rewardPerSkull = rewardPerCycles\n            .div(croSkullContractMaxSupply);\n\n        uint userRewardPerCycle = rewardPerSkull\n            .mul(tokenCount);\n\n        uint generatedRewards = userRewardPerCycle\n            .mul(userActiveCycles);\n\n        uint totalBalance = generatedRewards\n            .add(availableBalance);\n\n        return totalBalance;\n    }\n\n    /* Token utils */\n    function getTokensIds() public view returns( uint16[] memory ) {\n        UserInfo memory currentUser = userDetails[msg.sender];\n        return currentUser.tokensIds;\n    }\n\n    function getUserTokensIds( address _ownerOf ) public view returns( uint16[] memory ) {\n        UserInfo memory currentUser = userDetails[_ownerOf];\n        return currentUser.tokensIds;\n    }\n\n\n    function checkOwnership( uint16 _tokenId ) public view returns( bool ) {\n        bytes32 tokenHash = keccak256(\n            abi.encodePacked(\n                msg.sender,\n                _tokenId\n            )\n        );\n        bool isStaker  = ( skullsOwner[tokenHash] );\n        return isStaker;\n    }\n\n    /* Internal utils functions */\n    function onERC721Received(address, address, uint256, bytes memory) public virtual override returns (bytes4) {\n        return this.onERC721Received.selector;\n    }\n\n    function approvalStatus() public view returns (bool) {\n        return croSkullContract.isApprovedForAll(msg.sender, address(this));\n    }\n\n    function _removeTokenId(uint16 _tokenId, address _from ) internal {\n        uint16[] storage tokens = userDetails[_from].tokensIds;\n        if( tokens.length == 1 && tokens[0] == _tokenId ){\n            uint16[] memory emptyArray;\n            userDetails[_from].tokensIds = emptyArray;\n            return;\n        }\n        uint index = getTokenIndex(_tokenId, _from);\n        //remove\n        if( index < tokens.length ) {\n            for (uint i = index; i < tokens.length - 1; i++) {\n                tokens[i] = tokens[i + 1];\n            }\n            tokens.pop();\n            userDetails[_from].tokensIds = tokens;\n        }\n    }\n\n    function getTokenIndex ( uint16 _tokenId, address _from) public view returns( uint ) {\n        uint index = 0;\n        uint16[] memory tokens = userDetails[_from].tokensIds;\n        for( uint i = 0; i < tokens.length; i++) {\n            if( _tokenId == tokens[i]){\n                return i;\n            }\n        }\n        return index;\n    }\n}",
  "sourcePath": "/Users/alessandrodecristofaro/Desktop/DeFi Code/croskull-repo/src/contracts/croSkullStaking.sol",
  "compiler": {
    "name": "solc",
    "version": "0.8.0+commit.c7dfd78e.Emscripten.clang"
  },
  "schemaVersion": "3.4.3",
  "updatedAt": "2022-03-03T18:07:06.069Z",
  "devdoc": {
    "kind": "dev",
    "methods": {},
    "version": 1
  },
  "userdoc": {
    "kind": "user",
    "methods": {
      "batchStakeSkulls(uint16[])": {
        "notice": "Modifier: isApproved || isWithdraw || isStake for stakeholders public methods "
      }
    },
    "version": 1
  }
}