{
  "contractName": "croSkullStaking",
  "abi": [
    {
      "inputs": [],
      "stateMutability": "nonpayable",
      "type": "constructor"
    },
    {
      "anonymous": false,
      "inputs": [
        {
          "indexed": true,
          "internalType": "address",
          "name": "user",
          "type": "address"
        },
        {
          "indexed": false,
          "internalType": "uint16",
          "name": "tokenId",
          "type": "uint16"
        }
      ],
      "name": "Stake",
      "type": "event"
    },
    {
      "anonymous": false,
      "inputs": [
        {
          "indexed": true,
          "internalType": "address",
          "name": "user",
          "type": "address"
        },
        {
          "indexed": false,
          "internalType": "uint256",
          "name": "amout",
          "type": "uint256"
        }
      ],
      "name": "Withdraw",
      "type": "event"
    },
    {
      "anonymous": false,
      "inputs": [
        {
          "indexed": true,
          "internalType": "address",
          "name": "user",
          "type": "address"
        },
        {
          "indexed": false,
          "internalType": "uint16",
          "name": "tokenId",
          "type": "uint16"
        }
      ],
      "name": "unStake",
      "type": "event"
    },
    {
      "inputs": [],
      "name": "croSkullContract",
      "outputs": [
        {
          "internalType": "contract IERC721",
          "name": "",
          "type": "address"
        }
      ],
      "stateMutability": "view",
      "type": "function"
    },
    {
      "inputs": [],
      "name": "cycleInterval",
      "outputs": [
        {
          "internalType": "uint256",
          "name": "",
          "type": "uint256"
        }
      ],
      "stateMutability": "view",
      "type": "function"
    },
    {
      "inputs": [],
      "name": "endStakeTimestamp",
      "outputs": [
        {
          "internalType": "uint256",
          "name": "",
          "type": "uint256"
        }
      ],
      "stateMutability": "view",
      "type": "function"
    },
    {
      "inputs": [],
      "name": "owner",
      "outputs": [
        {
          "internalType": "address",
          "name": "",
          "type": "address"
        }
      ],
      "stateMutability": "view",
      "type": "function"
    },
    {
      "inputs": [],
      "name": "percentOperator",
      "outputs": [
        {
          "internalType": "uint256",
          "name": "",
          "type": "uint256"
        }
      ],
      "stateMutability": "view",
      "type": "function"
    },
    {
      "inputs": [],
      "name": "poolRewardSupply",
      "outputs": [
        {
          "internalType": "uint256",
          "name": "",
          "type": "uint256"
        }
      ],
      "stateMutability": "view",
      "type": "function"
    },
    {
      "inputs": [],
      "name": "poolWithdrawedAmount",
      "outputs": [
        {
          "internalType": "uint256",
          "name": "",
          "type": "uint256"
        }
      ],
      "stateMutability": "view",
      "type": "function"
    },
    {
      "inputs": [],
      "name": "poolWithdrawedSouls",
      "outputs": [
        {
          "internalType": "uint256",
          "name": "",
          "type": "uint256"
        }
      ],
      "stateMutability": "view",
      "type": "function"
    },
    {
      "inputs": [],
      "name": "rewardToken",
      "outputs": [
        {
          "internalType": "contract IERC20",
          "name": "",
          "type": "address"
        }
      ],
      "stateMutability": "view",
      "type": "function"
    },
    {
      "inputs": [
        {
          "internalType": "bytes32",
          "name": "",
          "type": "bytes32"
        }
      ],
      "name": "skullsOwner",
      "outputs": [
        {
          "internalType": "bool",
          "name": "",
          "type": "bool"
        }
      ],
      "stateMutability": "view",
      "type": "function"
    },
    {
      "inputs": [],
      "name": "soulToken",
      "outputs": [
        {
          "internalType": "contract IERC20",
          "name": "",
          "type": "address"
        }
      ],
      "stateMutability": "view",
      "type": "function"
    },
    {
      "inputs": [],
      "name": "soulsDropInterval",
      "outputs": [
        {
          "internalType": "uint256",
          "name": "",
          "type": "uint256"
        }
      ],
      "stateMutability": "view",
      "type": "function"
    },
    {
      "inputs": [],
      "name": "stakeMalusDuration",
      "outputs": [
        {
          "internalType": "uint256",
          "name": "",
          "type": "uint256"
        }
      ],
      "stateMutability": "view",
      "type": "function"
    },
    {
      "inputs": [],
      "name": "stakeMalusFee",
      "outputs": [
        {
          "internalType": "uint256",
          "name": "",
          "type": "uint256"
        }
      ],
      "stateMutability": "view",
      "type": "function"
    },
    {
      "inputs": [],
      "name": "stakedSkullsCount",
      "outputs": [
        {
          "internalType": "uint16",
          "name": "",
          "type": "uint16"
        }
      ],
      "stateMutability": "view",
      "type": "function"
    },
    {
      "inputs": [],
      "name": "startStakeTimestamp",
      "outputs": [
        {
          "internalType": "uint256",
          "name": "",
          "type": "uint256"
        }
      ],
      "stateMutability": "view",
      "type": "function"
    },
    {
      "inputs": [],
      "name": "started",
      "outputs": [
        {
          "internalType": "bool",
          "name": "",
          "type": "bool"
        }
      ],
      "stateMutability": "view",
      "type": "function"
    },
    {
      "inputs": [
        {
          "internalType": "address",
          "name": "",
          "type": "address"
        }
      ],
      "name": "userDetails",
      "outputs": [
        {
          "internalType": "uint16",
          "name": "tokenCount",
          "type": "uint16"
        },
        {
          "internalType": "uint256",
          "name": "lastWithdrawTimestamp",
          "type": "uint256"
        },
        {
          "internalType": "uint256",
          "name": "startingStake",
          "type": "uint256"
        },
        {
          "internalType": "uint256",
          "name": "availableBalance",
          "type": "uint256"
        },
        {
          "internalType": "uint256",
          "name": "alreadyClaimed",
          "type": "uint256"
        },
        {
          "internalType": "bool",
          "name": "enabled",
          "type": "bool"
        }
      ],
      "stateMutability": "view",
      "type": "function"
    },
    {
      "inputs": [],
      "name": "usersCount",
      "outputs": [
        {
          "internalType": "uint16",
          "name": "",
          "type": "uint16"
        }
      ],
      "stateMutability": "view",
      "type": "function"
    },
    {
      "inputs": [],
      "name": "vestingDuration",
      "outputs": [
        {
          "internalType": "uint256",
          "name": "",
          "type": "uint256"
        }
      ],
      "stateMutability": "view",
      "type": "function"
    },
    {
      "inputs": [],
      "name": "adminUnlock",
      "outputs": [],
      "stateMutability": "nonpayable",
      "type": "function"
    },
    {
      "inputs": [
        {
          "internalType": "uint16",
          "name": "_tokenId",
          "type": "uint16"
        },
        {
          "internalType": "address",
          "name": "_ownerOf",
          "type": "address"
        }
      ],
      "name": "adminUnstake",
      "outputs": [],
      "stateMutability": "nonpayable",
      "type": "function"
    },
    {
      "inputs": [],
      "name": "startRewards",
      "outputs": [],
      "stateMutability": "nonpayable",
      "type": "function"
    },
    {
      "inputs": [],
      "name": "fundRewardPool",
      "outputs": [],
      "stateMutability": "nonpayable",
      "type": "function"
    },
    {
      "inputs": [],
      "name": "adminBurnUnvested",
      "outputs": [],
      "stateMutability": "nonpayable",
      "type": "function"
    },
    {
      "inputs": [
        {
          "internalType": "contract IERC721",
          "name": "_nftContract",
          "type": "address"
        }
      ],
      "name": "setNFTAddress",
      "outputs": [],
      "stateMutability": "nonpayable",
      "type": "function"
    },
    {
      "inputs": [
        {
          "internalType": "contract IERC20",
          "name": "_tokenAddress",
          "type": "address"
        }
      ],
      "name": "setTokenAddress",
      "outputs": [],
      "stateMutability": "nonpayable",
      "type": "function"
    },
    {
      "inputs": [
        {
          "internalType": "contract IERC20",
          "name": "_soulToken",
          "type": "address"
        }
      ],
      "name": "setSoulToken",
      "outputs": [],
      "stateMutability": "nonpayable",
      "type": "function"
    },
    {
      "inputs": [],
      "name": "_rewardPerCycles",
      "outputs": [
        {
          "internalType": "uint256",
          "name": "",
          "type": "uint256"
        }
      ],
      "stateMutability": "view",
      "type": "function"
    },
    {
      "inputs": [
        {
          "internalType": "uint16[]",
          "name": "_tokenIds",
          "type": "uint16[]"
        }
      ],
      "name": "batchStakeSkulls",
      "outputs": [],
      "stateMutability": "nonpayable",
      "type": "function"
    },
    {
      "inputs": [
        {
          "internalType": "uint16[]",
          "name": "_tokenIds",
          "type": "uint16[]"
        }
      ],
      "name": "batchUnstakeSkulls",
      "outputs": [],
      "stateMutability": "nonpayable",
      "type": "function"
    },
    {
      "inputs": [
        {
          "internalType": "uint16",
          "name": "_tokenId",
          "type": "uint16"
        }
      ],
      "name": "stakeSkull",
      "outputs": [],
      "stateMutability": "nonpayable",
      "type": "function"
    },
    {
      "inputs": [
        {
          "internalType": "uint16",
          "name": "_tokenId",
          "type": "uint16"
        }
      ],
      "name": "unstakeSkull",
      "outputs": [],
      "stateMutability": "nonpayable",
      "type": "function"
    },
    {
      "inputs": [],
      "name": "withdraw",
      "outputs": [],
      "stateMutability": "nonpayable",
      "type": "function"
    },
    {
      "inputs": [],
      "name": "_tenSecCyclesPassed",
      "outputs": [
        {
          "internalType": "uint256",
          "name": "",
          "type": "uint256"
        }
      ],
      "stateMutability": "view",
      "type": "function"
    },
    {
      "inputs": [],
      "name": "_tenSecCyclesPassedLastWithdraw",
      "outputs": [
        {
          "internalType": "uint256",
          "name": "",
          "type": "uint256"
        }
      ],
      "stateMutability": "view",
      "type": "function"
    },
    {
      "inputs": [],
      "name": "calculateDroppedSouls",
      "outputs": [
        {
          "internalType": "uint256",
          "name": "",
          "type": "uint256"
        }
      ],
      "stateMutability": "view",
      "type": "function"
    },
    {
      "inputs": [],
      "name": "daysSinceLastWithdraw",
      "outputs": [
        {
          "internalType": "uint256",
          "name": "",
          "type": "uint256"
        },
        {
          "internalType": "uint256",
          "name": "",
          "type": "uint256"
        }
      ],
      "stateMutability": "view",
      "type": "function"
    },
    {
      "inputs": [],
      "name": "calculateMalusFee",
      "outputs": [
        {
          "internalType": "uint256",
          "name": "",
          "type": "uint256"
        }
      ],
      "stateMutability": "view",
      "type": "function"
    },
    {
      "inputs": [],
      "name": "calculateRewardsPlusMalus",
      "outputs": [
        {
          "internalType": "uint256",
          "name": "",
          "type": "uint256"
        }
      ],
      "stateMutability": "view",
      "type": "function"
    },
    {
      "inputs": [],
      "name": "calculateRewards",
      "outputs": [
        {
          "internalType": "uint256",
          "name": "",
          "type": "uint256"
        }
      ],
      "stateMutability": "view",
      "type": "function"
    },
    {
      "inputs": [],
      "name": "getTokensIds",
      "outputs": [
        {
          "internalType": "uint16[]",
          "name": "",
          "type": "uint16[]"
        }
      ],
      "stateMutability": "view",
      "type": "function"
    },
    {
      "inputs": [
        {
          "internalType": "uint16",
          "name": "_tokenId",
          "type": "uint16"
        }
      ],
      "name": "checkOwnership",
      "outputs": [
        {
          "internalType": "bool",
          "name": "",
          "type": "bool"
        }
      ],
      "stateMutability": "view",
      "type": "function"
    },
    {
      "inputs": [
        {
          "internalType": "address",
          "name": "",
          "type": "address"
        },
        {
          "internalType": "address",
          "name": "",
          "type": "address"
        },
        {
          "internalType": "uint256",
          "name": "",
          "type": "uint256"
        },
        {
          "internalType": "bytes",
          "name": "",
          "type": "bytes"
        }
      ],
      "name": "onERC721Received",
      "outputs": [
        {
          "internalType": "bytes4",
          "name": "",
          "type": "bytes4"
        }
      ],
      "stateMutability": "nonpayable",
      "type": "function"
    },
    {
      "inputs": [],
      "name": "approvalStatus",
      "outputs": [
        {
          "internalType": "bool",
          "name": "",
          "type": "bool"
        }
      ],
      "stateMutability": "view",
      "type": "function"
    },
    {
      "inputs": [
        {
          "internalType": "uint16",
          "name": "_tokenId",
          "type": "uint16"
        },
        {
          "internalType": "address",
          "name": "_from",
          "type": "address"
        }
      ],
      "name": "getTokenIndex",
      "outputs": [
        {
          "internalType": "uint256",
          "name": "",
          "type": "uint256"
        }
      ],
      "stateMutability": "view",
      "type": "function"
    }
  ],
  "bytecode": "0x6080604052611a0a600360146101000a81548161ffff021916908361ffff1602179055506103e8600455620d2f00600a55600a600b556203f480600c556203f480600d556050600e5534801561005457600080fd5b50336000806101000a81548173ffffffffffffffffffffffffffffffffffffffff021916908373ffffffffffffffffffffffffffffffffffffffff160217905550600060088190555060008060166101000a81548161ffff021916908361ffff160217905550614522806100c96000396000f3fe608060405234801561001057600080fd5b50600436106102895760003560e01c806369d037381161015c57806399249f82116100ce578063cec7cf9011610087578063cec7cf9014610706578063d7aee18914610724578063e74feb7714610754578063f7c618c114610784578063fde5b04f146107a2578063ffbfe153146107c057610289565b806399249f82146106685780639ec9f744146106865780639fa5e996146106b6578063a7f57305146106d4578063c0f72cf2146106de578063c861d9f9146106fc57610289565b8063741514741161012057806374151474146105b5578063785b4a76146105d457806379560283146105f057806379a1cb951461060e57806383ac5fc51461062c5780638da5cb5b1461064a57610289565b806369d03738146105215780636ba13a821461053d5780636e17e3ee1461055b5780636ec999a6146105795780637408fc2b1461059757610289565b806335efedc31161020057806348dec2a7116101b957806348dec2a7146104585780634dd6705c1461048d5780635d20211a146104a95780636145ca02146104c757806363a53e48146104e5578063687c4a5b1461050357610289565b806335efedc3146103bc57806337951d8f146103d85780633b26156e146103f45780633ccfd60b146104125780633e50de301461041c57806342d2b70f1461043a57610289565b80631f2698ab116102525780631f2698ab146103325780631fb5daf514610350578063208283391461036e57806326a4e8d2146103785780632d5f4a1e146103945780632dfd0bdc146103b257610289565b8062d799a01461028e57806305715cc0146102ac57806305dd7807146102c8578063150b7a02146102e45780631514617e14610314575b600080fd5b6102966107de565b6040516102a39190613f87565b60405180910390f35b6102c660048036038101906102c19190613854565b6107e4565b005b6102e260048036038101906102dd9190613939565b610977565b005b6102fe60048036038101906102f991906137d9565b610b5f565b60405161030b9190613dbf565b60405180910390f35b61031c610b73565b6040516103299190613f87565b60405180910390f35b61033a610b79565b6040516103479190613da4565b60405180910390f35b610358610b8c565b6040516103659190613f87565b60405180910390f35b610376610b92565b005b610392600480360381019061038d91906138e7565b610cd3565b005b61039c610da5565b6040516103a99190613dda565b60405180910390f35b6103ba610dcb565b005b6103d660048036038101906103d19190613939565b610edf565b005b6103f260048036038101906103ed91906138e7565b611004565b005b6103fc6110d6565b6040516104099190613f87565b60405180910390f35b61041a6110dc565b005b6104246115ac565b6040516104319190613f87565b60405180910390f35b610442611738565b60405161044f9190613f87565b60405180910390f35b610472600480360381019061046d9190613787565b61173e565b60405161048496959493929190613f26565b60405180910390f35b6104a760048036038101906104a29190613854565b611795565b005b6104b161195e565b6040516104be9190613f87565b60405180910390f35b6104cf611964565b6040516104dc9190613da4565b60405180910390f35b6104ed611a18565b6040516104fa9190613ef0565b60405180910390f35b61050b611a2c565b6040516105189190613f87565b60405180910390f35b61053b60048036038101906105369190613910565b611a32565b005b610545611b04565b6040516105529190613ef0565b60405180910390f35b610563611b18565b6040516105709190613df5565b60405180910390f35b610581611b3e565b60405161058e9190613f87565b60405180910390f35b61059f611c15565b6040516105ac9190613d82565b60405180910390f35b6105bd611d53565b6040516105cb929190613fa2565b60405180910390f35b6105ee60048036038101906105e99190613962565b611e43565b005b6105f8611edf565b6040516106059190613f87565b60405180910390f35b610616611ee5565b6040516106239190613f87565b60405180910390f35b610634611eeb565b6040516106419190613f87565b60405180910390f35b610652611fdc565b60405161065f9190613cde565b60405180910390f35b610670612000565b60405161067d9190613f87565b60405180910390f35b6106a0600480360381019061069b91906138be565b6120d7565b6040516106ad9190613da4565b60405180910390f35b6106be6120f7565b6040516106cb9190613f87565b60405180910390f35b6106dc6120fd565b005b6106e66121d0565b6040516106f39190613f87565b60405180910390f35b6107046121d6565b005b61070e612402565b60405161071b9190613f87565b60405180910390f35b61073e60048036038101906107399190613939565b61258f565b60405161074b9190613da4565b60405180910390f35b61076e60048036038101906107699190613962565b6125ec565b60405161077b9190613f87565b60405180910390f35b61078c612737565b6040516107999190613dda565b60405180910390f35b6107aa61275d565b6040516107b79190613f87565b60405180910390f35b6107c8612794565b6040516107d59190613f87565b60405180910390f35b60085481565b6107ec611964565b61082b576040517f08c379a000000000000000000000000000000000000000000000000000000000815260040161082290613e10565b60405180910390fd5b600060085411610870576040517f08c379a000000000000000000000000000000000000000000000000000000000815260040161086790613ed0565b60405180910390fd5b600f60009054906101000a900460ff16156108c0576040517f08c379a00000000000000000000000000000000000000000000000000000000081526004016108b790613e70565b60405180910390fd5b6001600f60006101000a81548160ff021916908315150217905550600033905060008251116108ee57600080fd5b60005b82518110156109575761094482848381518110610937577f4e487b7100000000000000000000000000000000000000000000000000000000600052603260045260246000fd5b60200260200101516128d4565b808061094f90614325565b9150506108f1565b50506000600f60006101000a81548160ff02191690831515021790555050565b61097f611964565b6109be576040517f08c379a00000000000000000000000000000000000000000000000000000000081526004016109b590613e10565b60405180910390fd5b600060085411610a03576040517f08c379a00000000000000000000000000000000000000000000000000000000081526004016109fa90613ed0565b60405180910390fd5b600f60009054906101000a900460ff1615610a53576040517f08c379a0000000000000000000000000000000000000000000000000000000008152600401610a4a90613e70565b60405180910390fd5b6001600f60006101000a81548160ff02191690831515021790555060003390506000601060008373ffffffffffffffffffffffffffffffffffffffff1673ffffffffffffffffffffffffffffffffffffffff168152602001908152602001600020905060008160000160009054906101000a900461ffff1661ffff16905060008111610b14576040517f08c379a0000000000000000000000000000000000000000000000000000000008152600401610b0b90613e90565b60405180910390fd5b60008260000160009054906101000a900461ffff1661ffff161115610b3e57610b3d8385612d9c565b5b5050506000600f60006101000a81548160ff02191690831515021790555050565b600063150b7a0260e01b9050949350505050565b600a5481565b600060189054906101000a900460ff1681565b60095481565b60008054906101000a900473ffffffffffffffffffffffffffffffffffffffff1673ffffffffffffffffffffffffffffffffffffffff163373ffffffffffffffffffffffffffffffffffffffff1614610c20576040517f08c379a0000000000000000000000000000000000000000000000000000000008152600401610c1790613e30565b60405180910390fd5b600160009054906101000a900473ffffffffffffffffffffffffffffffffffffffff1673ffffffffffffffffffffffffffffffffffffffff166370a08231306040518263ffffffff1660e01b8152600401610c7b9190613cde565b60206040518083038186803b158015610c9357600080fd5b505afa158015610ca7573d6000803e3d6000fd5b505050506040513d601f19601f82011682018060405250810190610ccb919061399e565b600581905550565b60008054906101000a900473ffffffffffffffffffffffffffffffffffffffff1673ffffffffffffffffffffffffffffffffffffffff163373ffffffffffffffffffffffffffffffffffffffff1614610d61576040517f08c379a0000000000000000000000000000000000000000000000000000000008152600401610d5890613e30565b60405180910390fd5b80600160006101000a81548173ffffffffffffffffffffffffffffffffffffffff021916908373ffffffffffffffffffffffffffffffffffffffff16021790555050565b600260009054906101000a900473ffffffffffffffffffffffffffffffffffffffff1681565b60008054906101000a900473ffffffffffffffffffffffffffffffffffffffff1673ffffffffffffffffffffffffffffffffffffffff163373ffffffffffffffffffffffffffffffffffffffff1614610e59576040517f08c379a0000000000000000000000000000000000000000000000000000000008152600401610e5090613e30565b60405180910390fd5b600060085414610e9e576040517f08c379a0000000000000000000000000000000000000000000000000000000008152600401610e9590613eb0565b60405180910390fd5b42600881905550610ebc600a546008546130f490919063ffffffff16565b6009819055506001600060186101000a81548160ff021916908315150217905550565b610ee7611964565b610f26576040517f08c379a0000000000000000000000000000000000000000000000000000000008152600401610f1d90613e10565b60405180910390fd5b600060085411610f6b576040517f08c379a0000000000000000000000000000000000000000000000000000000008152600401610f6290613ed0565b60405180910390fd5b600f60009054906101000a900460ff1615610fbb576040517f08c379a0000000000000000000000000000000000000000000000000000000008152600401610fb290613e70565b60405180910390fd5b6001600f60006101000a81548160ff0219169083151502179055506000339050610fe581836128d4565b506000600f60006101000a81548160ff02191690831515021790555050565b60008054906101000a900473ffffffffffffffffffffffffffffffffffffffff1673ffffffffffffffffffffffffffffffffffffffff163373ffffffffffffffffffffffffffffffffffffffff1614611092576040517f08c379a000000000000000000000000000000000000000000000000000000000815260040161108990613e30565b60405180910390fd5b80600260006101000a81548173ffffffffffffffffffffffffffffffffffffffff021916908373ffffffffffffffffffffffffffffffffffffffff16021790555050565b600b5481565b6110e4611964565b611123576040517f08c379a000000000000000000000000000000000000000000000000000000000815260040161111a90613e10565b60405180910390fd5b600f60009054906101000a900460ff1615611173576040517f08c379a000000000000000000000000000000000000000000000000000000000815260040161116a90613e70565b60405180910390fd5b6001600f60006101000a81548160ff02191690831515021790555060003390506000601060008373ffffffffffffffffffffffffffffffffffffffff1673ffffffffffffffffffffffffffffffffffffffff16815260200190815260200160002060030154116111e257600080fd5b60006111ec611eeb565b905080600160009054906101000a900473ffffffffffffffffffffffffffffffffffffffff1673ffffffffffffffffffffffffffffffffffffffff166370a08231306040518263ffffffff1660e01b815260040161124a9190613cde565b60206040518083038186803b15801561126257600080fd5b505afa158015611276573d6000803e3d6000fd5b505050506040513d601f19601f8201168201806040525081019061129a919061399e565b10156112a557600080fd5b600160009054906101000a900473ffffffffffffffffffffffffffffffffffffffff1673ffffffffffffffffffffffffffffffffffffffff1663a9059cbb83836040518363ffffffff1660e01b8152600401611302929190613d59565b602060405180830381600087803b15801561131c57600080fd5b505af1158015611330573d6000803e3d6000fd5b505050506040513d601f19601f820116820180604052508101906113549190613895565b61135d57600080fd5b6000611367612794565b9050600081111561144457600260009054906101000a900473ffffffffffffffffffffffffffffffffffffffff1673ffffffffffffffffffffffffffffffffffffffff1663a9059cbb84836040518363ffffffff1660e01b81526004016113cf929190613d59565b602060405180830381600087803b1580156113e957600080fd5b505af11580156113fd573d6000803e3d6000fd5b505050506040513d601f19601f820116820180604052508101906114219190613895565b61142a57600080fd5b806007600082825461143c91906140a2565b925050819055505b816006600082825461145691906140a2565b9250508190555042601060008573ffffffffffffffffffffffffffffffffffffffff1673ffffffffffffffffffffffffffffffffffffffff1681526020019081526020016000206002018190555042601060008573ffffffffffffffffffffffffffffffffffffffff1673ffffffffffffffffffffffffffffffffffffffff1681526020019081526020016000206003018190555081601060008573ffffffffffffffffffffffffffffffffffffffff1673ffffffffffffffffffffffffffffffffffffffff168152602001908152602001600020600501600082825461153d91906140a2565b925050819055506000601060008573ffffffffffffffffffffffffffffffffffffffff1673ffffffffffffffffffffffffffffffffffffffff168152602001908152602001600020600401819055505050506000600f60006101000a81548160ff021916908315150217905550565b60006115b6611964565b6115f5576040517f08c379a00000000000000000000000000000000000000000000000000000000081526004016115ec90613e10565b60405180910390fd5b60006008541161163a576040517f08c379a000000000000000000000000000000000000000000000000000000000815260040161163190613ed0565b60405180910390fd5b6000601060003373ffffffffffffffffffffffffffffffffffffffff1673ffffffffffffffffffffffffffffffffffffffff168152602001908152602001600020905060008160000160009054906101000a900461ffff16905060008260040154905060006116a7612000565b905060006116b361275d565b905060006116de600360149054906101000a900461ffff1661ffff168361310a90919063ffffffff16565b905060006116f98661ffff168361312090919063ffffffff16565b90506000611710858361312090919063ffffffff16565b9050600061172787836130f490919063ffffffff16565b905080995050505050505050505090565b600c5481565b60106020528060005260406000206000915090508060000160009054906101000a900461ffff16908060020154908060030154908060040154908060050154908060060160009054906101000a900460ff16905086565b61179d611964565b6117dc576040517f08c379a00000000000000000000000000000000000000000000000000000000081526004016117d390613e10565b60405180910390fd5b600060085411611821576040517f08c379a000000000000000000000000000000000000000000000000000000000815260040161181890613ed0565b60405180910390fd5b600f60009054906101000a900460ff1615611871576040517f08c379a000000000000000000000000000000000000000000000000000000000815260040161186890613e70565b60405180910390fd5b6001600f60006101000a81548160ff021916908315150217905550600033905060008251116118d5576040517f08c379a00000000000000000000000000000000000000000000000000000000081526004016118cc90613e50565b60405180910390fd5b60005b825181101561193e5761192b8284838151811061191e577f4e487b7100000000000000000000000000000000000000000000000000000000600052603260045260246000fd5b6020026020010151612d9c565b808061193690614325565b9150506118d8565b50506000600f60006101000a81548160ff02191690831515021790555050565b60075481565b6000600360009054906101000a900473ffffffffffffffffffffffffffffffffffffffff1673ffffffffffffffffffffffffffffffffffffffff1663e985e9c533306040518363ffffffff1660e01b81526004016119c3929190613cf9565b60206040518083038186803b1580156119db57600080fd5b505afa1580156119ef573d6000803e3d6000fd5b505050506040513d601f19601f82011682018060405250810190611a139190613895565b905090565b600060149054906101000a900461ffff1681565b600e5481565b60008054906101000a900473ffffffffffffffffffffffffffffffffffffffff1673ffffffffffffffffffffffffffffffffffffffff163373ffffffffffffffffffffffffffffffffffffffff1614611ac0576040517f08c379a0000000000000000000000000000000000000000000000000000000008152600401611ab790613e30565b60405180910390fd5b80600360006101000a81548173ffffffffffffffffffffffffffffffffffffffff021916908373ffffffffffffffffffffffffffffffffffffffff16021790555050565b600060169054906101000a900461ffff1681565b600360009054906101000a900473ffffffffffffffffffffffffffffffffffffffff1681565b6000611b48611964565b611b87576040517f08c379a0000000000000000000000000000000000000000000000000000000008152600401611b7e90613e10565b60405180910390fd5b600060085411611b9657600080fd5b60006009544211611ba957429050611baf565b60095490505b6000600a601060003373ffffffffffffffffffffffffffffffffffffffff1673ffffffffffffffffffffffffffffffffffffffff1681526020019081526020016000206002015483611c019190614183565b611c0b91906140f8565b9050809250505090565b60606000601060003373ffffffffffffffffffffffffffffffffffffffff1673ffffffffffffffffffffffffffffffffffffffff1681526020019081526020016000206040518060e00160405290816000820160009054906101000a900461ffff1661ffff1661ffff16815260200160018201805480602002602001604051908101604052809291908181526020018280548015611cfa57602002820191906000526020600020906000905b82829054906101000a900461ffff1661ffff1681526020019060020190602082600101049283019260010382029150808411611cc15790505b50505050508152602001600282015481526020016003820154815260200160048201548152602001600582015481526020016006820160009054906101000a900460ff1615151515815250509050806020015191505090565b600080611d5e611964565b611d9d576040517f08c379a0000000000000000000000000000000000000000000000000000000008152600401611d9490613e10565b60405180910390fd5b600060085411611de2576040517f08c379a0000000000000000000000000000000000000000000000000000000008152600401611dd990613ed0565b60405180910390fd5b6000611dec611b3e565b90506000611e05600b548361312090919063ffffffff16565b9050600081620151801115611e1d5760009050611e36565b611e33620151808361310a90919063ffffffff16565b90505b8082945094505050509091565b60008054906101000a900473ffffffffffffffffffffffffffffffffffffffff1673ffffffffffffffffffffffffffffffffffffffff163373ffffffffffffffffffffffffffffffffffffffff1614611ed1576040517f08c379a0000000000000000000000000000000000000000000000000000000008152600401611ec890613e30565b60405180910390fd5b611edb8183612d9c565b5050565b600d5481565b60055481565b6000611ef5611964565b611f34576040517f08c379a0000000000000000000000000000000000000000000000000000000008152600401611f2b90613e10565b60405180910390fd5b600060085411611f79576040517f08c379a0000000000000000000000000000000000000000000000000000000008152600401611f7090613ed0565b60405180910390fd5b6000611f83612402565b90506000611f8f6115ac565b90506000611fb983611fab60648561310a90919063ffffffff16565b61312090919063ffffffff16565b90506000611fd0828461313690919063ffffffff16565b90508094505050505090565b60008054906101000a900473ffffffffffffffffffffffffffffffffffffffff1681565b600061200a611964565b612049576040517f08c379a000000000000000000000000000000000000000000000000000000000815260040161204090613e10565b60405180910390fd5b60006008541161205857600080fd5b6000600954421161206b57429050612071565b60095490505b6000600a601060003373ffffffffffffffffffffffffffffffffffffffff1673ffffffffffffffffffffffffffffffffffffffff16815260200190815260200160002060030154836120c39190614183565b6120cd91906140f8565b9050809250505090565b60116020528060005260406000206000915054906101000a900460ff1681565b60045481565b60008054906101000a900473ffffffffffffffffffffffffffffffffffffffff1673ffffffffffffffffffffffffffffffffffffffff163373ffffffffffffffffffffffffffffffffffffffff161461218b576040517f08c379a000000000000000000000000000000000000000000000000000000000815260040161218290613e30565b60405180910390fd5b600f60009054906101000a900460ff166121a457600080fd5b600f60009054906101000a900460ff1615600f60006101000a81548160ff021916908315150217905550565b60065481565b60008054906101000a900473ffffffffffffffffffffffffffffffffffffffff1673ffffffffffffffffffffffffffffffffffffffff163373ffffffffffffffffffffffffffffffffffffffff1614612264576040517f08c379a000000000000000000000000000000000000000000000000000000000815260040161225b90613e30565b60405180910390fd5b60006008541161227357600080fd5b6000600160009054906101000a900473ffffffffffffffffffffffffffffffffffffffff1673ffffffffffffffffffffffffffffffffffffffff166370a08231306040518263ffffffff1660e01b81526004016122d09190613cde565b60206040518083038186803b1580156122e857600080fd5b505afa1580156122fc573d6000803e3d6000fd5b505050506040513d601f19601f82011682018060405250810190612320919061399e565b90506000811161232f57600080fd5b600160009054906101000a900473ffffffffffffffffffffffffffffffffffffffff1673ffffffffffffffffffffffffffffffffffffffff1663a9059cbb60008054906101000a900473ffffffffffffffffffffffffffffffffffffffff16836040518363ffffffff1660e01b81526004016123ac929190613d59565b602060405180830381600087803b1580156123c657600080fd5b505af11580156123da573d6000803e3d6000fd5b505050506040513d601f19601f820116820180604052508101906123fe9190613895565b5050565b600061240c611964565b61244b576040517f08c379a000000000000000000000000000000000000000000000000000000000815260040161244290613e10565b60405180910390fd5b600060085411612490576040517f08c379a000000000000000000000000000000000000000000000000000000000815260040161248790613ed0565b60405180910390fd5b60008061249b611d53565b915091506000600d548210156125865760006124c562015180600d5461310a90919063ffffffff16565b905060006124dc858361313690919063ffffffff16565b9050600061252e6004546125206064612512876125046004548961312090919063ffffffff16565b61310a90919063ffffffff16565b61312090919063ffffffff16565b61310a90919063ffffffff16565b9050612580600454612572836125646064612556600454600e5461312090919063ffffffff16565b61310a90919063ffffffff16565b61312090919063ffffffff16565b61310a90919063ffffffff16565b93505050505b80935050505090565b60008033836040516020016125a5929190613cb2565b60405160208183030381529060405280519060200120905060006011600083815260200190815260200160002060009054906101000a900460ff1690508092505050919050565b600080600090506000601060008573ffffffffffffffffffffffffffffffffffffffff1673ffffffffffffffffffffffffffffffffffffffff1681526020019081526020016000206001018054806020026020016040519081016040528092919081815260200182805480156126a957602002820191906000526020600020906000905b82829054906101000a900461ffff1661ffff16815260200190600201906020826001010492830192600103820291508084116126705790505b5050505050905060005b815181101561272a578181815181106126f5577f4e487b7100000000000000000000000000000000000000000000000000000000600052603260045260246000fd5b602002602001015161ffff168661ffff16141561271757809350505050612731565b808061272290614325565b9150506126b3565b5081925050505b92915050565b600160009054906101000a900473ffffffffffffffffffffffffffffffffffffffff1681565b60008061278b600b5461277d600a5460055461310a90919063ffffffff16565b61312090919063ffffffff16565b90508091505090565b600061279e611964565b6127dd576040517f08c379a00000000000000000000000000000000000000000000000000000000081526004016127d490613e10565b60405180910390fd5b600060085411612822576040517f08c379a000000000000000000000000000000000000000000000000000000000815260040161281990613ed0565b60405180910390fd5b6000601060003373ffffffffffffffffffffffffffffffffffffffff1673ffffffffffffffffffffffffffffffffffffffff168152602001908152602001600020905060008160000160009054906101000a900461ffff1690506000612899600a61288b611b3e565b61312090919063ffffffff16565b905060006128c88361ffff166128ba600c548561310a90919063ffffffff16565b61312090919063ffffffff16565b90508094505050505090565b600082826040516020016128e9929190613cb2565b6040516020818303038152906040528051906020012090508273ffffffffffffffffffffffffffffffffffffffff16600360009054906101000a900473ffffffffffffffffffffffffffffffffffffffff1673ffffffffffffffffffffffffffffffffffffffff16636352211e846040518263ffffffff1660e01b81526004016129739190613f0b565b60206040518083038186803b15801561298b57600080fd5b505afa15801561299f573d6000803e3d6000fd5b505050506040513d601f19601f820116820180604052508101906129c391906137b0565b73ffffffffffffffffffffffffffffffffffffffff16146129e45750612d98565b6000601060008573ffffffffffffffffffffffffffffffffffffffff1673ffffffffffffffffffffffffffffffffffffffff168152602001908152602001600020905060008160000160009054906101000a900461ffff1661ffff16148015612a51575060008160020154145b15612ac6574281600201819055506000816004018190555060018160060160006101000a81548160ff0219169083151502179055506000601681819054906101000a900461ffff1680929190612aa6906142fa565b91906101000a81548161ffff021916908361ffff16021790555050612add565b6000612ad06115ac565b9050808260040181905550505b428160030181905550806001018390806001815401808255809150506001900390600052602060002090601091828204019190066002029091909190916101000a81548161ffff021916908361ffff16021790555080600001600081819054906101000a900461ffff1680929190612b54906142fa565b91906101000a81548161ffff021916908361ffff1602179055505080601060008673ffffffffffffffffffffffffffffffffffffffff1673ffffffffffffffffffffffffffffffffffffffff1681526020019081526020016000206000820160009054906101000a900461ffff168160000160006101000a81548161ffff021916908361ffff1602179055506001820181600101908054612bf6929190613445565b50600282015481600201556003820154816003015560048201548160040155600582015481600501556006820160009054906101000a900460ff168160060160006101000a81548160ff02191690831515021790555090505060016011600084815260200190815260200160002060006101000a81548160ff0219169083151502179055506000601481819054906101000a900461ffff1680929190612c9b906142fa565b91906101000a81548161ffff021916908361ffff16021790555050600360009054906101000a900473ffffffffffffffffffffffffffffffffffffffff1673ffffffffffffffffffffffffffffffffffffffff166323b872dd8530866040518463ffffffff1660e01b8152600401612d1593929190613d22565b600060405180830381600087803b158015612d2f57600080fd5b505af1158015612d43573d6000803e3d6000fd5b505050508373ffffffffffffffffffffffffffffffffffffffff167f9a2f579c219eb1955c7485729ed1260d94d6e9f49d593852f6589f9d01041ab184604051612d8d9190613ef0565b60405180910390a250505b5050565b60008282604051602001612db1929190613cb2565b6040516020818303038152906040528051906020012090506011600082815260200190815260200160002060009054906101000a900460ff16156130ef576000612df96115ac565b905080601060008673ffffffffffffffffffffffffffffffffffffffff1673ffffffffffffffffffffffffffffffffffffffff16815260200190815260200160002060040181905550601060008573ffffffffffffffffffffffffffffffffffffffff1673ffffffffffffffffffffffffffffffffffffffff168152602001908152602001600020600001600081819054906101000a900461ffff1680929190612ea2906142d0565b91906101000a81548161ffff021916908361ffff1602179055505042601060008673ffffffffffffffffffffffffffffffffffffffff1673ffffffffffffffffffffffffffffffffffffffff16815260200190815260200160002060030181905550600360009054906101000a900473ffffffffffffffffffffffffffffffffffffffff1673ffffffffffffffffffffffffffffffffffffffff166323b872dd3086866040518463ffffffff1660e01b8152600401612f6393929190613d22565b600060405180830381600087803b158015612f7d57600080fd5b505af1158015612f91573d6000803e3d6000fd5b5050505060006011600084815260200190815260200160002060006101000a81548160ff0219169083151502179055506000601481819054906101000a900461ffff1680929190612fe1906142d0565b91906101000a81548161ffff021916908361ffff160217905550506000601060008673ffffffffffffffffffffffffffffffffffffffff1673ffffffffffffffffffffffffffffffffffffffff16815260200190815260200160002060000160009054906101000a900461ffff1661ffff161415613095576000601681819054906101000a900461ffff1680929190613079906142d0565b91906101000a81548161ffff021916908361ffff160217905550505b61309f838561314c565b8373ffffffffffffffffffffffffffffffffffffffff167f56853f8f6e1153ce606e228ce2f7f10ccf941a927cda730647d5f8006abcd93a846040516130e59190613ef0565b60405180910390a2505b505050565b6000818361310291906140a2565b905092915050565b6000818361311891906140f8565b905092915050565b6000818361312e9190614129565b905092915050565b600081836131449190614183565b905092915050565b6000601060008373ffffffffffffffffffffffffffffffffffffffff1673ffffffffffffffffffffffffffffffffffffffff16815260200190815260200160002060010190506001818054905014801561320a57508261ffff16816000815481106131e0577f4e487b7100000000000000000000000000000000000000000000000000000000600052603260045260246000fd5b90600052602060002090601091828204019190066002029054906101000a900461ffff1661ffff16145b1561326a57606080601060008573ffffffffffffffffffffffffffffffffffffffff1673ffffffffffffffffffffffffffffffffffffffff16815260200190815260200160002060010190805190602001906132679291906134a5565b50505b600061327684846125ec565b9050818054905081101561343f5760008190505b6001838054905061329b9190614183565b81101561338657826001826132b091906140a2565b815481106132e7577f4e487b7100000000000000000000000000000000000000000000000000000000600052603260045260246000fd5b90600052602060002090601091828204019190066002029054906101000a900461ffff16838281548110613344577f4e487b7100000000000000000000000000000000000000000000000000000000600052603260045260246000fd5b90600052602060002090601091828204019190066002026101000a81548161ffff021916908361ffff160217905550808061337e90614325565b91505061328a565b50818054806133be577f4e487b7100000000000000000000000000000000000000000000000000000000600052603160045260246000fd5b60019003818190600052602060002090601091828204019190066002026101000a81549061ffff0219169055905581601060008573ffffffffffffffffffffffffffffffffffffffff1673ffffffffffffffffffffffffffffffffffffffff16815260200190815260200160002060010190805461343d92919061354f565b505b50505050565b82805482825590600052602060002090600f0160109004810192821561349457600052602060002091600f016010900482015b82811115613493578254825591600101919060010190613478565b5b5090506134a191906135af565b5090565b82805482825590600052602060002090600f0160109004810192821561353e5791602002820160005b8382111561350e57835183826101000a81548161ffff021916908361ffff16021790555092602001926002016020816001010492830192600103026134ce565b801561353c5782816101000a81549061ffff021916905560020160208160010104928301926001030261350e565b505b50905061354b91906135af565b5090565b82805482825590600052602060002090600f0160109004810192821561359e57600052602060002091600f016010900482015b8281111561359d578254825591600101919060010190613582565b5b5090506135ab91906135af565b5090565b5b808211156135c85760008160009055506001016135b0565b5090565b60006135df6135da84613ffc565b613fcb565b905080838252602082019050828560208602820111156135fe57600080fd5b60005b8581101561362e57816136148882613748565b845260208401935060208301925050600181019050613601565b5050509392505050565b600061364b61364684614028565b613fcb565b90508281526020810184848401111561366357600080fd5b61366e8482856142c1565b509392505050565b6000813590506136858161444b565b92915050565b60008151905061369a8161444b565b92915050565b600082601f8301126136b157600080fd5b81356136c18482602086016135cc565b91505092915050565b6000815190506136d981614462565b92915050565b6000813590506136ee81614479565b92915050565b600082601f83011261370557600080fd5b8135613715848260208601613638565b91505092915050565b60008135905061372d81614490565b92915050565b600081359050613742816144a7565b92915050565b600081359050613757816144be565b92915050565b60008135905061376c816144d5565b92915050565b600081519050613781816144d5565b92915050565b60006020828403121561379957600080fd5b60006137a784828501613676565b91505092915050565b6000602082840312156137c257600080fd5b60006137d08482850161368b565b91505092915050565b600080600080608085870312156137ef57600080fd5b60006137fd87828801613676565b945050602061380e87828801613676565b935050604061381f8782880161375d565b925050606085013567ffffffffffffffff81111561383c57600080fd5b613848878288016136f4565b91505092959194509250565b60006020828403121561386657600080fd5b600082013567ffffffffffffffff81111561388057600080fd5b61388c848285016136a0565b91505092915050565b6000602082840312156138a757600080fd5b60006138b5848285016136ca565b91505092915050565b6000602082840312156138d057600080fd5b60006138de848285016136df565b91505092915050565b6000602082840312156138f957600080fd5b60006139078482850161371e565b91505092915050565b60006020828403121561392257600080fd5b600061393084828501613733565b91505092915050565b60006020828403121561394b57600080fd5b600061395984828501613748565b91505092915050565b6000806040838503121561397557600080fd5b600061398385828601613748565b925050602061399485828601613676565b9150509250929050565b6000602082840312156139b057600080fd5b60006139be84828501613772565b91505092915050565b60006139d38383613c5f565b60208301905092915050565b6139e8816141b7565b82525050565b6139ff6139fa826141b7565b61436e565b82525050565b6000613a1082614068565b613a1a8185614080565b9350613a2583614058565b8060005b83811015613a56578151613a3d88826139c7565b9750613a4883614073565b925050600181019050613a29565b5085935050505092915050565b613a6c816141c9565b82525050565b613a7b816141df565b82525050565b613a8a81614267565b82525050565b613a998161428b565b82525050565b6000613aac601483614091565b91507f4552525f415050524f56455f434f4e54524143540000000000000000000000006000830152602082019050919050565b6000613aec600d83614091565b91507f4552525f4e4f545f4f574e4552000000000000000000000000000000000000006000830152602082019050919050565b6000613b2c601683614091565b91507f4552525f53454c4543545f534f4d455f534b554c4c53000000000000000000006000830152602082019050919050565b6000613b6c601183614091565b91507f4552525f4e4f5f5245454e54524e4143590000000000000000000000000000006000830152602082019050919050565b6000613bac601483614091565b91507f4552525f4e4f5f534b554c4c535f5354414b45440000000000000000000000006000830152602082019050919050565b6000613bec601283614091565b91507f4552525f534541534f4e5f5354415254454400000000000000000000000000006000830152602082019050919050565b6000613c2c601083614091565b91507f5374616b696e672064697361626c6564000000000000000000000000000000006000830152602082019050919050565b613c688161422f565b82525050565b613c778161422f565b82525050565b613c8e613c898261422f565b614380565b82525050565b613c9d816142af565b82525050565b613cac8161425d565b82525050565b6000613cbe82856139ee565b601482019150613cce8284613c7d565b6002820191508190509392505050565b6000602082019050613cf360008301846139df565b92915050565b6000604082019050613d0e60008301856139df565b613d1b60208301846139df565b9392505050565b6000606082019050613d3760008301866139df565b613d4460208301856139df565b613d516040830184613c94565b949350505050565b6000604082019050613d6e60008301856139df565b613d7b6020830184613ca3565b9392505050565b60006020820190508181036000830152613d9c8184613a05565b905092915050565b6000602082019050613db96000830184613a63565b92915050565b6000602082019050613dd46000830184613a72565b92915050565b6000602082019050613def6000830184613a81565b92915050565b6000602082019050613e0a6000830184613a90565b92915050565b60006020820190508181036000830152613e2981613a9f565b9050919050565b60006020820190508181036000830152613e4981613adf565b9050919050565b60006020820190508181036000830152613e6981613b1f565b9050919050565b60006020820190508181036000830152613e8981613b5f565b9050919050565b60006020820190508181036000830152613ea981613b9f565b9050919050565b60006020820190508181036000830152613ec981613bdf565b9050919050565b60006020820190508181036000830152613ee981613c1f565b9050919050565b6000602082019050613f056000830184613c6e565b92915050565b6000602082019050613f206000830184613c94565b92915050565b600060c082019050613f3b6000830189613c6e565b613f486020830188613ca3565b613f556040830187613ca3565b613f626060830186613ca3565b613f6f6080830185613ca3565b613f7c60a0830184613a63565b979650505050505050565b6000602082019050613f9c6000830184613ca3565b92915050565b6000604082019050613fb76000830185613ca3565b613fc46020830184613ca3565b9392505050565b6000604051905081810181811067ffffffffffffffff82111715613ff257613ff1614402565b5b8060405250919050565b600067ffffffffffffffff82111561401757614016614402565b5b602082029050602081019050919050565b600067ffffffffffffffff82111561404357614042614402565b5b601f19601f8301169050602081019050919050565b6000819050602082019050919050565b600081519050919050565b6000602082019050919050565b600082825260208201905092915050565b600082825260208201905092915050565b60006140ad8261425d565b91506140b88361425d565b9250827fffffffffffffffffffffffffffffffffffffffffffffffffffffffffffffffff038211156140ed576140ec6143a4565b5b828201905092915050565b60006141038261425d565b915061410e8361425d565b92508261411e5761411d6143d3565b5b828204905092915050565b60006141348261425d565b915061413f8361425d565b9250817fffffffffffffffffffffffffffffffffffffffffffffffffffffffffffffffff0483118215151615614178576141776143a4565b5b828202905092915050565b600061418e8261425d565b91506141998361425d565b9250828210156141ac576141ab6143a4565b5b828203905092915050565b60006141c28261423d565b9050919050565b60008115159050919050565b6000819050919050565b60007fffffffff0000000000000000000000000000000000000000000000000000000082169050919050565b6000614216826141b7565b9050919050565b6000614228826141b7565b9050919050565b600061ffff82169050919050565b600073ffffffffffffffffffffffffffffffffffffffff82169050919050565b6000819050919050565b600061427282614279565b9050919050565b60006142848261423d565b9050919050565b60006142968261429d565b9050919050565b60006142a88261423d565b9050919050565b60006142ba8261422f565b9050919050565b82818337600083830152505050565b60006142db8261422f565b915060008214156142ef576142ee6143a4565b5b600182039050919050565b60006143058261422f565b915061ffff82141561431a576143196143a4565b5b600182019050919050565b60006143308261425d565b91507fffffffffffffffffffffffffffffffffffffffffffffffffffffffffffffffff821415614363576143626143a4565b5b600182019050919050565b600061437982614392565b9050919050565b600061438b82614431565b9050919050565b600061439d8261443e565b9050919050565b7f4e487b7100000000000000000000000000000000000000000000000000000000600052601160045260246000fd5b7f4e487b7100000000000000000000000000000000000000000000000000000000600052601260045260246000fd5b7f4e487b7100000000000000000000000000000000000000000000000000000000600052604160045260246000fd5b60008160f01b9050919050565b60008160601b9050919050565b614454816141b7565b811461445f57600080fd5b50565b61446b816141c9565b811461447657600080fd5b50565b614482816141d5565b811461448d57600080fd5b50565b6144998161420b565b81146144a457600080fd5b50565b6144b08161421d565b81146144bb57600080fd5b50565b6144c78161422f565b81146144d257600080fd5b50565b6144de8161425d565b81146144e957600080fd5b5056fea2646970667358221220a4f87826350d24e60f9ea0e10ba1aeb107085a3bf48941f3753339a5fe8be8d564736f6c63430008000033",
  "immutableReferences": {},
  "source": "// SPDX-License-Identifier: MIT\npragma solidity >=0.4.22 <0.9.0;\npragma abicoder v2;\n\nimport \"@openzeppelin/contracts/token/ERC20/IERC20.sol\";\nimport \"@openzeppelin/contracts/token/ERC721/IERC721.sol\";\nimport \"@openzeppelin/contracts/token/ERC721/IERC721Receiver.sol\";\nimport \"@openzeppelin/contracts/utils/math/SafeMath.sol\";\n\ncontract croSkullStaking is IERC721Receiver {\n    using SafeMath for uint;\n\n    //Mutable Main settings\n    address public owner;\n    uint16 public stakedSkullsCount;\n    uint16 public usersCount;\n    bool public started;\n\n    //Contracts\n    IERC20 public rewardToken;\n    IERC20 public soulToken;\n    IERC721 public croSkullContract;\n\n    //NFT Supply\n    uint16 croSkullContractMaxSupply = 6666;\n\n    //Pool settings\n    uint public percentOperator = 1000;\n    uint public poolRewardSupply;\n    uint public poolWithdrawedAmount;\n    uint public poolWithdrawedSouls;\n    uint public startStakeTimestamp;\n    uint public endStakeTimestamp;\n    uint public vestingDuration = 10 days;// normal duration 100 days\n    uint public cycleInterval = 10 seconds;\n    uint public soulsDropInterval = 3 days;// soul drop interval 3 days - default = 30 days\n    uint public stakeMalusDuration = 3 days;// stake malus duration 3 days - default = 32 days\n    uint public stakeMalusFee = 80;\n\n    bool internal locked;\n\n    mapping( address => UserInfo ) public userDetails;\n\n    struct UserInfo {\n        uint16 tokenCount;\n        uint16[] tokensIds;\n        uint lastWithdrawTimestamp;\n        uint startingStake;\n        uint availableBalance;\n        uint alreadyClaimed;\n        bool enabled;\n    }\n\n\n    mapping( bytes32 => bool ) public skullsOwner;\n\n    modifier onlyOwner() {\n        require(msg.sender == owner, \"ERR_NOT_OWNER\");\n        _;\n    }\n\n    modifier isApproved() {\n        require( approvalStatus(), \"ERR_APPROVE_CONTRACT\" );\n        _;\n    }\n\n    modifier isStake() {\n        require( \n            startStakeTimestamp > 0,\n            \"Staking disabled\" \n        );\n        _;\n    }\n\n    modifier noReentrant() {\n        require(!locked, \"ERR_NO_REENTRNACY\");\n        locked = true;\n        _;\n        locked = false;\n    }\n\n    event Stake(address indexed user, uint16 tokenId);\n    event unStake(address indexed user, uint16 tokenId);\n    event Withdraw(address indexed user, uint256 amout);\n\n    constructor ( ) {\n        owner = msg.sender;\n        startStakeTimestamp = 0;\n        usersCount = 0;\n    }\n\n    /* \n        Only owner methods\n    */\n    function adminUnlock () public onlyOwner {\n        require( locked );\n        locked = !locked;\n    }\n\n    function adminUnstake (uint16 _tokenId, address _ownerOf ) public onlyOwner {\n        _unstakeSkull( _ownerOf, _tokenId );\n    }\n\n    function startRewards() public onlyOwner {\n        require( startStakeTimestamp == 0, \"ERR_SEASON_STARTED\");\n        startStakeTimestamp = block.timestamp;\n        endStakeTimestamp = startStakeTimestamp.add( vestingDuration );\n        started = true;\n    }\n\n    function fundRewardPool() public onlyOwner {\n        poolRewardSupply = rewardToken.balanceOf( address(this) );\n    }\n\n    function adminBurnUnvested () public onlyOwner {\n        require( startStakeTimestamp > 0 );\n        uint contractBalance = rewardToken.balanceOf( address(this) );\n        require( contractBalance > 0 );\n        rewardToken.transfer( owner, contractBalance );\n    }\n\n    function setNFTAddress( IERC721 _nftContract ) public onlyOwner {\n        croSkullContract = _nftContract;\n    }\n\n    function setTokenAddress( IERC20 _tokenAddress ) public onlyOwner {\n        rewardToken = _tokenAddress;\n    }\n\n    function setSoulToken( IERC20 _soulToken ) public onlyOwner {\n        soulToken = _soulToken;\n    }\n\n    /* public view function */\n    function _rewardPerCycles() public view returns(uint) { \n        uint rewardPerCycles = poolRewardSupply\n            .div(vestingDuration)\n            .mul(cycleInterval);\n        return rewardPerCycles;\n    }\n\n    /**\n       Modifier: isApproved || isWithdraw || isStake for stakeholders public methods \n     */\n\n    function batchStakeSkulls( uint16[] memory _tokenIds ) public isApproved isStake noReentrant {\n        address _from = msg.sender;\n        require( _tokenIds.length > 0 );\n        for( uint i = 0; i < _tokenIds.length; i++ ){\n            _stakeSkull(_from, _tokenIds[i]);\n        }\n    }\n\n    function batchUnstakeSkulls( uint16[] memory _tokenIds ) public isApproved isStake noReentrant {\n        address _to = msg.sender;\n        require( _tokenIds.length > 0, \"ERR_SELECT_SOME_SKULLS\" );\n        for( uint i = 0; i < _tokenIds.length; i++ ){\n            _unstakeSkull( _to , _tokenIds[i] );\n        }\n    }\n\n    function stakeSkull ( uint16 _tokenId ) public isApproved isStake noReentrant {\n        address _from = msg.sender;\n        _stakeSkull(_from, _tokenId);\n    }\n\n    function unstakeSkull ( uint16 _tokenId ) public isApproved isStake noReentrant {\n        address _to = msg.sender;\n        UserInfo storage currentUser = userDetails[_to];\n        uint skullsAmount = currentUser.tokenCount;\n        require( skullsAmount > 0, \"ERR_NO_SKULLS_STAKED\" );\n        if( currentUser.tokenCount > 0 ){\n            _unstakeSkull(_to, _tokenId);\n        }\n    }\n\n    function _stakeSkull(address _from, uint16 _tokenId  ) private {\n        //[keccka256|address:owner][keccka256|uint16:tokenId]\n        bytes32 tokenHash = keccak256(\n            abi.encodePacked(\n                _from,\n                _tokenId\n            )\n        );\n        if ( croSkullContract.ownerOf(_tokenId) != _from  ) // skull already staked || not owner\n            return;\n\n        UserInfo storage currentUser = userDetails[_from];\n        if( currentUser.tokenCount == 0 && currentUser.lastWithdrawTimestamp == 0 ) {\n            currentUser.lastWithdrawTimestamp = block.timestamp;\n            currentUser.availableBalance = 0;\n            currentUser.enabled = true;\n            usersCount++;\n        }else{\n            uint userRewards = calculateRewards();\n            currentUser.availableBalance = userRewards;\n        }\n        currentUser.startingStake = block.timestamp;\n        currentUser.tokensIds.push(_tokenId);\n        currentUser.tokenCount++;\n        userDetails[_from] = currentUser;\n        skullsOwner[tokenHash] = true;\n        stakedSkullsCount++;\n        croSkullContract.transferFrom( _from, address(this), _tokenId );\n        \n        emit Stake(_from, _tokenId);\n    }\n\n    function _unstakeSkull(address _to, uint16 _tokenId ) private {\n        bytes32 tokenHash = keccak256(\n            abi.encodePacked(\n                _to,\n                _tokenId\n            )\n        );\n        //check previous owner and check if == _to\n        if( skullsOwner[tokenHash] ) {\n            uint userRewards = calculateRewards();\n            userDetails[_to].availableBalance = userRewards;\n            userDetails[_to].tokenCount--;\n            userDetails[_to].startingStake = block.timestamp;\n            croSkullContract.transferFrom(address(this), _to, _tokenId);\n            skullsOwner[tokenHash] = false;\n            stakedSkullsCount--;\n            if( userDetails[_to].tokenCount == 0 ) {\n                usersCount--;\n            }\n            _removeTokenId(_tokenId, _to);\n            //require( croSkullContract.ownerOf(_tokenId) == _to, \"Unstake Failed\" );\n            emit unStake(_to, _tokenId);\n        }\n    }\n\n    function withdraw () public isApproved noReentrant {\n        address _to = msg.sender;\n        require( userDetails[_to].startingStake > 0 );\n        uint userRewards = calculateRewardsPlusMalus();\n        require( rewardToken.balanceOf( address(this) ) >= userRewards );\n        require( rewardToken.transfer( _to, userRewards ) );\n        uint droppedSouls = calculateDroppedSouls();\n        if( droppedSouls > 0 ){\n            require( soulToken.transfer( _to, droppedSouls ) );\n            poolWithdrawedSouls += droppedSouls;\n        }\n        poolWithdrawedAmount += userRewards;\n        userDetails[_to].lastWithdrawTimestamp = block.timestamp;\n        userDetails[_to].startingStake = block.timestamp;\n        userDetails[_to].alreadyClaimed += userRewards;\n        userDetails[_to].availableBalance = 0;\n    }\n\n    function _tenSecCyclesPassed () public view isApproved returns(uint) {\n        require( startStakeTimestamp > 0 );\n        uint currentTimestamp;\n        if( block.timestamp <= endStakeTimestamp ) {\n            currentTimestamp = block.timestamp;\n        }else{\n            currentTimestamp = endStakeTimestamp;\n        }\n        uint actualStakeMinutes = ( currentTimestamp - userDetails[msg.sender].startingStake ) / 10 seconds;\n        return actualStakeMinutes;\n    }\n\n    function _tenSecCyclesPassedLastWithdraw () public view isApproved returns(uint) {\n        require( startStakeTimestamp > 0 );\n        uint currentTimestamp;\n        if( block.timestamp <= endStakeTimestamp ) {\n            currentTimestamp = block.timestamp;\n        }else{\n            currentTimestamp = endStakeTimestamp;\n        }\n        uint actualStakeMinutes = ( currentTimestamp - userDetails[msg.sender].lastWithdrawTimestamp ) / 10 seconds;\n        return actualStakeMinutes;\n    }\n\n    function calculateDroppedSouls() public view isApproved isStake returns (uint) {\n        UserInfo storage tempUser = userDetails[msg.sender];\n        uint16 tokenCount = tempUser.tokenCount; // total staked nfts\n\n        uint totalActiveSeconds = _tenSecCyclesPassedLastWithdraw() // 1200 s\n            .mul(10);\n\n        uint totalMinedSouls = totalActiveSeconds\n            .div(soulsDropInterval)\n            .mul(tokenCount);\n\n        return totalMinedSouls;\n    }\n\n    function daysSinceLastWithdraw() public view isApproved isStake returns( uint, uint ) {\n        uint userActiveCycles = _tenSecCyclesPassedLastWithdraw(); \n        uint totalSecondsPassed = userActiveCycles // if 1728 userActive cicles\n            .mul(cycleInterval);// 1728 * 10 = 17280 s passed\n\n        uint nDaysPassed;\n        \n        if( 1 days > totalSecondsPassed ){\n            nDaysPassed = 0;\n        }else{\n            nDaysPassed = totalSecondsPassed\n            .div(1 days);// 17280 / 86480 = 2 days\n        }\n        return (\n            nDaysPassed,\n            totalSecondsPassed\n        );\n    }\n\n    function calculateMalusFee() public view isApproved isStake returns( uint ) {\n        ( uint nDaysPassed, uint totalSecondsPassed ) = daysSinceLastWithdraw();\n        uint MalusFee = 0;\n        \n        if( totalSecondsPassed < stakeMalusDuration ){ // 1700 <\n            uint stakeMalusInDays = stakeMalusDuration\n                .div(1 days);\n\n            uint malusDays = stakeMalusInDays\n                .sub(nDaysPassed); //2\n            //18\n            uint malusCoef = malusDays// 18\n                .mul(percentOperator)\n                .div(stakeMalusInDays)// 18 / 20 = 0,9\n                .mul(100)// 90\n                .div(percentOperator);\n\n            MalusFee = stakeMalusFee // 50\n                .mul(percentOperator)\n                .div(100)// 50 / 100 = 0,5\n                .mul(malusCoef) // 0,5 * 90 = 45\n                .div(percentOperator);\n        }\n        return MalusFee;\n    }\n\n    function calculateRewardsPlusMalus() public view isApproved isStake returns( uint ) {\n        uint calulcatedMalusFee = calculateMalusFee();\n        uint rewardAmount = calculateRewards();\n        uint calculatedMalus = rewardAmount // 10 000\n                .div(100) // 100\n                .mul(calulcatedMalusFee); // 5 500\n\n        uint userRewardsPlusMalus = rewardAmount // 10 000\n            .sub(calculatedMalus); // 10 000 - 5 500 = 4 500\n\n        return userRewardsPlusMalus;\n    }\n\n    function calculateRewards() public view isApproved isStake returns(uint) {\n        UserInfo storage tempUser = userDetails[msg.sender];\n        uint16 tokenCount = tempUser.tokenCount; // total staked nfts\n\n        uint availableBalance = tempUser.availableBalance;\n        uint userActiveCycles = _tenSecCyclesPassed();\n\n        // calculate time diff and retrieve days\n        uint rewardPerCycles = _rewardPerCycles();\n        // rewardPerCycles / croSkullContractMaxSupply\n        uint rewardPerSkull = rewardPerCycles\n            .div(croSkullContractMaxSupply);\n\n        // rewardPerSkull * tokenCount\n        uint userRewardPerCycle = rewardPerSkull\n            .mul(tokenCount);\n\n        // userRewardPerSkulls * userActiveCycles\n        uint generatedRewards = userRewardPerCycle\n            .mul(userActiveCycles);\n\n\n        uint totalBalance = generatedRewards\n            .add(availableBalance);\n\n        return totalBalance;\n    }\n\n    /* Token utils */\n    function getTokensIds() public view returns( uint16[] memory ) {\n        UserInfo memory currentUser = userDetails[msg.sender];\n        return currentUser.tokensIds;//tempUeser.tokensIds;\n    }\n\n    function checkOwnership( uint16 _tokenId ) public view returns( bool ) {\n        bytes32 tokenHash = keccak256(\n            abi.encodePacked(\n                msg.sender,\n                _tokenId\n            )\n        );\n        bool isStaker  = ( skullsOwner[tokenHash] );\n        return isStaker;\n    }\n\n    /* Internal utils functions */\n    function onERC721Received(address, address, uint256, bytes memory) public virtual override returns (bytes4) {\n        return this.onERC721Received.selector;\n    }\n\n    function approvalStatus() public view returns (bool) {\n        return croSkullContract.isApprovedForAll(msg.sender, address(this));\n    }\n\n    function _removeTokenId(uint16 _tokenId, address _from ) internal {\n        uint16[] storage tokens = userDetails[_from].tokensIds;\n        if( tokens.length == 1 && tokens[0] == _tokenId ){\n            uint16[] memory emptyArray;\n            userDetails[_from].tokensIds = emptyArray;\n        }\n        uint index = getTokenIndex(_tokenId, _from);\n        //remove\n        if( index < tokens.length ) {\n            for (uint i = index; i < tokens.length - 1; i++) {\n                tokens[i] = tokens[i + 1];\n            }\n            tokens.pop();\n            userDetails[_from].tokensIds = tokens;\n        }\n    }\n\n    function getTokenIndex ( uint16 _tokenId, address _from) public view returns( uint ) {\n        uint index = 0;\n        uint16[] memory tokens = userDetails[_from].tokensIds;\n        for( uint i = 0; i < tokens.length; i++) {\n            if( _tokenId == tokens[i]){\n                return i;\n            }\n        }\n        return index;\n    }\n}",
  "sourcePath": "/Users/alessandrodecristofaro/Desktop/DeFi Code/croskull-repo/src/contracts/croSkullStaking.sol",
  "compiler": {
    "name": "solc",
    "version": "0.8.0+commit.c7dfd78e.Emscripten.clang"
  },
  "schemaVersion": "3.4.3",
  "updatedAt": "2022-02-22T16:27:28.457Z",
  "devdoc": {
    "kind": "dev",
    "methods": {},
    "version": 1
  },
  "userdoc": {
    "kind": "user",
    "methods": {
      "batchStakeSkulls(uint16[])": {
        "notice": "Modifier: isApproved || isWithdraw || isStake for stakeholders public methods "
      }
    },
    "version": 1
  }
}