{
  "contractName": "CroSkulls",
  "abi": [
    {
      "inputs": [
        {
          "internalType": "bool",
          "name": "_isMarketplace",
          "type": "bool"
        },
        {
          "internalType": "bool",
          "name": "_isWhitelist",
          "type": "bool"
        },
        {
          "internalType": "bool",
          "name": "_isWithdraw",
          "type": "bool"
        }
      ],
      "stateMutability": "nonpayable",
      "type": "constructor"
    },
    {
      "anonymous": false,
      "inputs": [
        {
          "indexed": true,
          "internalType": "address",
          "name": "owner",
          "type": "address"
        },
        {
          "indexed": true,
          "internalType": "address",
          "name": "approved",
          "type": "address"
        },
        {
          "indexed": true,
          "internalType": "uint256",
          "name": "tokenId",
          "type": "uint256"
        }
      ],
      "name": "Approval",
      "type": "event"
    },
    {
      "anonymous": false,
      "inputs": [
        {
          "indexed": true,
          "internalType": "address",
          "name": "owner",
          "type": "address"
        },
        {
          "indexed": true,
          "internalType": "address",
          "name": "operator",
          "type": "address"
        },
        {
          "indexed": false,
          "internalType": "bool",
          "name": "approved",
          "type": "bool"
        }
      ],
      "name": "ApprovalForAll",
      "type": "event"
    },
    {
      "anonymous": false,
      "inputs": [
        {
          "indexed": true,
          "internalType": "address",
          "name": "from",
          "type": "address"
        },
        {
          "indexed": true,
          "internalType": "address",
          "name": "to",
          "type": "address"
        },
        {
          "indexed": true,
          "internalType": "uint256",
          "name": "tokenId",
          "type": "uint256"
        }
      ],
      "name": "Transfer",
      "type": "event"
    },
    {
      "inputs": [
        {
          "internalType": "address",
          "name": "",
          "type": "address"
        }
      ],
      "name": "addressMintedBalance",
      "outputs": [
        {
          "internalType": "uint256",
          "name": "",
          "type": "uint256"
        }
      ],
      "stateMutability": "view",
      "type": "function"
    },
    {
      "inputs": [
        {
          "internalType": "uint256",
          "name": "",
          "type": "uint256"
        }
      ],
      "name": "allCroSkulls",
      "outputs": [
        {
          "internalType": "uint256",
          "name": "tokenId",
          "type": "uint256"
        },
        {
          "internalType": "address payable",
          "name": "mintedBy",
          "type": "address"
        },
        {
          "internalType": "address payable",
          "name": "currentOwner",
          "type": "address"
        },
        {
          "internalType": "address payable",
          "name": "previousOwner",
          "type": "address"
        },
        {
          "internalType": "uint256",
          "name": "price",
          "type": "uint256"
        },
        {
          "internalType": "uint256",
          "name": "numberOfTransfers",
          "type": "uint256"
        },
        {
          "internalType": "bool",
          "name": "forSale",
          "type": "bool"
        }
      ],
      "stateMutability": "view",
      "type": "function"
    },
    {
      "inputs": [
        {
          "internalType": "address",
          "name": "to",
          "type": "address"
        },
        {
          "internalType": "uint256",
          "name": "tokenId",
          "type": "uint256"
        }
      ],
      "name": "approve",
      "outputs": [],
      "stateMutability": "nonpayable",
      "type": "function"
    },
    {
      "inputs": [
        {
          "internalType": "address",
          "name": "owner",
          "type": "address"
        }
      ],
      "name": "balanceOf",
      "outputs": [
        {
          "internalType": "uint256",
          "name": "",
          "type": "uint256"
        }
      ],
      "stateMutability": "view",
      "type": "function"
    },
    {
      "inputs": [],
      "name": "baseURI",
      "outputs": [
        {
          "internalType": "string",
          "name": "",
          "type": "string"
        }
      ],
      "stateMutability": "view",
      "type": "function"
    },
    {
      "inputs": [],
      "name": "collectionName",
      "outputs": [
        {
          "internalType": "string",
          "name": "",
          "type": "string"
        }
      ],
      "stateMutability": "view",
      "type": "function"
    },
    {
      "inputs": [],
      "name": "collectionNameSymbol",
      "outputs": [
        {
          "internalType": "string",
          "name": "",
          "type": "string"
        }
      ],
      "stateMutability": "view",
      "type": "function"
    },
    {
      "inputs": [],
      "name": "cost",
      "outputs": [
        {
          "internalType": "uint256",
          "name": "",
          "type": "uint256"
        }
      ],
      "stateMutability": "view",
      "type": "function"
    },
    {
      "inputs": [],
      "name": "croSkullCounter",
      "outputs": [
        {
          "internalType": "uint256",
          "name": "",
          "type": "uint256"
        }
      ],
      "stateMutability": "view",
      "type": "function"
    },
    {
      "inputs": [
        {
          "internalType": "uint256",
          "name": "tokenId",
          "type": "uint256"
        }
      ],
      "name": "getApproved",
      "outputs": [
        {
          "internalType": "address",
          "name": "",
          "type": "address"
        }
      ],
      "stateMutability": "view",
      "type": "function"
    },
    {
      "inputs": [
        {
          "internalType": "address",
          "name": "owner",
          "type": "address"
        },
        {
          "internalType": "address",
          "name": "operator",
          "type": "address"
        }
      ],
      "name": "isApprovedForAll",
      "outputs": [
        {
          "internalType": "bool",
          "name": "",
          "type": "bool"
        }
      ],
      "stateMutability": "view",
      "type": "function"
    },
    {
      "inputs": [],
      "name": "manager",
      "outputs": [
        {
          "internalType": "address",
          "name": "",
          "type": "address"
        }
      ],
      "stateMutability": "view",
      "type": "function"
    },
    {
      "inputs": [],
      "name": "marketplaceFee",
      "outputs": [
        {
          "internalType": "uint256",
          "name": "",
          "type": "uint256"
        }
      ],
      "stateMutability": "view",
      "type": "function"
    },
    {
      "inputs": [],
      "name": "maxMintAmount",
      "outputs": [
        {
          "internalType": "uint256",
          "name": "",
          "type": "uint256"
        }
      ],
      "stateMutability": "view",
      "type": "function"
    },
    {
      "inputs": [],
      "name": "maxSupply",
      "outputs": [
        {
          "internalType": "uint256",
          "name": "",
          "type": "uint256"
        }
      ],
      "stateMutability": "view",
      "type": "function"
    },
    {
      "inputs": [],
      "name": "name",
      "outputs": [
        {
          "internalType": "string",
          "name": "",
          "type": "string"
        }
      ],
      "stateMutability": "view",
      "type": "function"
    },
    {
      "inputs": [],
      "name": "nftPerAddressLimit",
      "outputs": [
        {
          "internalType": "uint256",
          "name": "",
          "type": "uint256"
        }
      ],
      "stateMutability": "view",
      "type": "function"
    },
    {
      "inputs": [],
      "name": "owner",
      "outputs": [
        {
          "internalType": "address",
          "name": "",
          "type": "address"
        }
      ],
      "stateMutability": "view",
      "type": "function"
    },
    {
      "inputs": [
        {
          "internalType": "uint256",
          "name": "tokenId",
          "type": "uint256"
        }
      ],
      "name": "ownerOf",
      "outputs": [
        {
          "internalType": "address",
          "name": "",
          "type": "address"
        }
      ],
      "stateMutability": "view",
      "type": "function"
    },
    {
      "inputs": [],
      "name": "rewardPoolsCounter",
      "outputs": [
        {
          "internalType": "uint256",
          "name": "",
          "type": "uint256"
        }
      ],
      "stateMutability": "view",
      "type": "function"
    },
    {
      "inputs": [
        {
          "internalType": "address",
          "name": "",
          "type": "address"
        }
      ],
      "name": "rewardableUsers",
      "outputs": [
        {
          "internalType": "uint256",
          "name": "",
          "type": "uint256"
        }
      ],
      "stateMutability": "view",
      "type": "function"
    },
    {
      "inputs": [
        {
          "internalType": "address",
          "name": "from",
          "type": "address"
        },
        {
          "internalType": "address",
          "name": "to",
          "type": "address"
        },
        {
          "internalType": "uint256",
          "name": "tokenId",
          "type": "uint256"
        }
      ],
      "name": "safeTransferFrom",
      "outputs": [],
      "stateMutability": "nonpayable",
      "type": "function"
    },
    {
      "inputs": [
        {
          "internalType": "address",
          "name": "from",
          "type": "address"
        },
        {
          "internalType": "address",
          "name": "to",
          "type": "address"
        },
        {
          "internalType": "uint256",
          "name": "tokenId",
          "type": "uint256"
        },
        {
          "internalType": "bytes",
          "name": "_data",
          "type": "bytes"
        }
      ],
      "name": "safeTransferFrom",
      "outputs": [],
      "stateMutability": "nonpayable",
      "type": "function"
    },
    {
      "inputs": [
        {
          "internalType": "address",
          "name": "operator",
          "type": "address"
        },
        {
          "internalType": "bool",
          "name": "approved",
          "type": "bool"
        }
      ],
      "name": "setApprovalForAll",
      "outputs": [],
      "stateMutability": "nonpayable",
      "type": "function"
    },
    {
      "inputs": [
        {
          "internalType": "string",
          "name": "",
          "type": "string"
        }
      ],
      "name": "settings",
      "outputs": [
        {
          "internalType": "bool",
          "name": "",
          "type": "bool"
        }
      ],
      "stateMutability": "view",
      "type": "function"
    },
    {
      "inputs": [
        {
          "internalType": "bytes4",
          "name": "interfaceId",
          "type": "bytes4"
        }
      ],
      "name": "supportsInterface",
      "outputs": [
        {
          "internalType": "bool",
          "name": "",
          "type": "bool"
        }
      ],
      "stateMutability": "view",
      "type": "function"
    },
    {
      "inputs": [],
      "name": "symbol",
      "outputs": [
        {
          "internalType": "string",
          "name": "",
          "type": "string"
        }
      ],
      "stateMutability": "view",
      "type": "function"
    },
    {
      "inputs": [
        {
          "internalType": "uint256",
          "name": "index",
          "type": "uint256"
        }
      ],
      "name": "tokenByIndex",
      "outputs": [
        {
          "internalType": "uint256",
          "name": "",
          "type": "uint256"
        }
      ],
      "stateMutability": "view",
      "type": "function"
    },
    {
      "inputs": [
        {
          "internalType": "address",
          "name": "owner",
          "type": "address"
        },
        {
          "internalType": "uint256",
          "name": "index",
          "type": "uint256"
        }
      ],
      "name": "tokenOfOwnerByIndex",
      "outputs": [
        {
          "internalType": "uint256",
          "name": "",
          "type": "uint256"
        }
      ],
      "stateMutability": "view",
      "type": "function"
    },
    {
      "inputs": [
        {
          "internalType": "uint256",
          "name": "tokenId",
          "type": "uint256"
        }
      ],
      "name": "tokenURI",
      "outputs": [
        {
          "internalType": "string",
          "name": "",
          "type": "string"
        }
      ],
      "stateMutability": "view",
      "type": "function"
    },
    {
      "inputs": [
        {
          "internalType": "string",
          "name": "",
          "type": "string"
        }
      ],
      "name": "tokenURIExists",
      "outputs": [
        {
          "internalType": "bool",
          "name": "",
          "type": "bool"
        }
      ],
      "stateMutability": "view",
      "type": "function"
    },
    {
      "inputs": [],
      "name": "totalCROReward",
      "outputs": [
        {
          "internalType": "uint256",
          "name": "",
          "type": "uint256"
        }
      ],
      "stateMutability": "view",
      "type": "function"
    },
    {
      "inputs": [],
      "name": "totalRewardPercent",
      "outputs": [
        {
          "internalType": "uint256",
          "name": "",
          "type": "uint256"
        }
      ],
      "stateMutability": "view",
      "type": "function"
    },
    {
      "inputs": [],
      "name": "totalSupply",
      "outputs": [
        {
          "internalType": "uint256",
          "name": "",
          "type": "uint256"
        }
      ],
      "stateMutability": "view",
      "type": "function"
    },
    {
      "inputs": [],
      "name": "totalVolume",
      "outputs": [
        {
          "internalType": "uint256",
          "name": "",
          "type": "uint256"
        }
      ],
      "stateMutability": "view",
      "type": "function"
    },
    {
      "inputs": [
        {
          "internalType": "address",
          "name": "from",
          "type": "address"
        },
        {
          "internalType": "address",
          "name": "to",
          "type": "address"
        },
        {
          "internalType": "uint256",
          "name": "tokenId",
          "type": "uint256"
        }
      ],
      "name": "transferFrom",
      "outputs": [],
      "stateMutability": "nonpayable",
      "type": "function"
    },
    {
      "inputs": [
        {
          "internalType": "address",
          "name": "",
          "type": "address"
        }
      ],
      "name": "whitelist",
      "outputs": [
        {
          "internalType": "bool",
          "name": "",
          "type": "bool"
        }
      ],
      "stateMutability": "view",
      "type": "function"
    },
    {
      "inputs": [
        {
          "internalType": "string",
          "name": "baseURI",
          "type": "string"
        }
      ],
      "name": "setBaseURI",
      "outputs": [],
      "stateMutability": "nonpayable",
      "type": "function"
    },
    {
      "inputs": [],
      "name": "getMaxSupply",
      "outputs": [
        {
          "internalType": "uint256",
          "name": "",
          "type": "uint256"
        }
      ],
      "stateMutability": "view",
      "type": "function"
    },
    {
      "inputs": [],
      "name": "getCost",
      "outputs": [
        {
          "internalType": "uint256",
          "name": "",
          "type": "uint256"
        }
      ],
      "stateMutability": "view",
      "type": "function"
    },
    {
      "inputs": [
        {
          "internalType": "address",
          "name": "_address",
          "type": "address"
        }
      ],
      "name": "addToWhitelist",
      "outputs": [],
      "stateMutability": "nonpayable",
      "type": "function"
    },
    {
      "inputs": [
        {
          "internalType": "uint256",
          "name": "_mintAmount",
          "type": "uint256"
        }
      ],
      "name": "mintCroSkull",
      "outputs": [],
      "stateMutability": "payable",
      "type": "function"
    },
    {
      "inputs": [],
      "name": "getOwner",
      "outputs": [
        {
          "internalType": "address",
          "name": "",
          "type": "address"
        }
      ],
      "stateMutability": "view",
      "type": "function"
    },
    {
      "inputs": [],
      "name": "getManager",
      "outputs": [
        {
          "internalType": "address",
          "name": "",
          "type": "address"
        }
      ],
      "stateMutability": "view",
      "type": "function"
    },
    {
      "inputs": [
        {
          "internalType": "address",
          "name": "_manager",
          "type": "address"
        }
      ],
      "name": "setManager",
      "outputs": [],
      "stateMutability": "nonpayable",
      "type": "function"
    },
    {
      "inputs": [
        {
          "internalType": "uint256",
          "name": "_tokenId",
          "type": "uint256"
        }
      ],
      "name": "getTokenOwner",
      "outputs": [
        {
          "internalType": "address",
          "name": "",
          "type": "address"
        }
      ],
      "stateMutability": "view",
      "type": "function"
    },
    {
      "inputs": [
        {
          "internalType": "uint256",
          "name": "_tokenId",
          "type": "uint256"
        }
      ],
      "name": "getTokenMetaData",
      "outputs": [
        {
          "internalType": "string",
          "name": "",
          "type": "string"
        }
      ],
      "stateMutability": "view",
      "type": "function"
    },
    {
      "inputs": [],
      "name": "getNumberOfTokensMinted",
      "outputs": [
        {
          "internalType": "uint256",
          "name": "",
          "type": "uint256"
        }
      ],
      "stateMutability": "view",
      "type": "function"
    },
    {
      "inputs": [
        {
          "internalType": "address",
          "name": "_owner",
          "type": "address"
        }
      ],
      "name": "getTotalNumberOfTokensOwnedByAnAddress",
      "outputs": [
        {
          "internalType": "uint256",
          "name": "",
          "type": "uint256"
        }
      ],
      "stateMutability": "view",
      "type": "function"
    },
    {
      "inputs": [
        {
          "internalType": "uint256",
          "name": "_tokenId",
          "type": "uint256"
        }
      ],
      "name": "getTokenExists",
      "outputs": [
        {
          "internalType": "bool",
          "name": "",
          "type": "bool"
        }
      ],
      "stateMutability": "view",
      "type": "function"
    },
    {
      "inputs": [
        {
          "internalType": "uint256",
          "name": "_tokenId",
          "type": "uint256"
        }
      ],
      "name": "buyToken",
      "outputs": [],
      "stateMutability": "payable",
      "type": "function"
    },
    {
      "inputs": [
        {
          "internalType": "uint256",
          "name": "_tokenId",
          "type": "uint256"
        },
        {
          "internalType": "uint256",
          "name": "_newPrice",
          "type": "uint256"
        }
      ],
      "name": "changeTokenPrice",
      "outputs": [],
      "stateMutability": "nonpayable",
      "type": "function"
    },
    {
      "inputs": [
        {
          "internalType": "uint256",
          "name": "_tokenId",
          "type": "uint256"
        }
      ],
      "name": "toggleForSale",
      "outputs": [],
      "stateMutability": "nonpayable",
      "type": "function"
    },
    {
      "inputs": [
        {
          "internalType": "string",
          "name": "_settings",
          "type": "string"
        }
      ],
      "name": "toggleSetting",
      "outputs": [],
      "stateMutability": "nonpayable",
      "type": "function"
    },
    {
      "inputs": [
        {
          "internalType": "uint256",
          "name": "_limit",
          "type": "uint256"
        }
      ],
      "name": "setNftPerAddressLimit",
      "outputs": [],
      "stateMutability": "nonpayable",
      "type": "function"
    },
    {
      "inputs": [
        {
          "internalType": "uint256",
          "name": "_newCost",
          "type": "uint256"
        }
      ],
      "name": "setCost",
      "outputs": [],
      "stateMutability": "nonpayable",
      "type": "function"
    },
    {
      "inputs": [
        {
          "internalType": "uint256",
          "name": "_newmaxMintAmount",
          "type": "uint256"
        }
      ],
      "name": "setmaxMintAmount",
      "outputs": [],
      "stateMutability": "nonpayable",
      "type": "function"
    },
    {
      "inputs": [
        {
          "internalType": "address",
          "name": "_rewardableAddress",
          "type": "address"
        },
        {
          "internalType": "uint256",
          "name": "percent",
          "type": "uint256"
        }
      ],
      "name": "addRewardable",
      "outputs": [],
      "stateMutability": "nonpayable",
      "type": "function"
    },
    {
      "inputs": [
        {
          "internalType": "address",
          "name": "_rewardableAddress",
          "type": "address"
        }
      ],
      "name": "disableReward",
      "outputs": [],
      "stateMutability": "nonpayable",
      "type": "function"
    },
    {
      "inputs": [],
      "name": "withdrawReward",
      "outputs": [],
      "stateMutability": "payable",
      "type": "function"
    },
    {
      "inputs": [],
      "name": "getRewardValue",
      "outputs": [
        {
          "internalType": "uint256",
          "name": "",
          "type": "uint256"
        }
      ],
      "stateMutability": "view",
      "type": "function"
    },
    {
      "inputs": [],
      "name": "getRewardFee",
      "outputs": [
        {
          "internalType": "uint256",
          "name": "",
          "type": "uint256"
        }
      ],
      "stateMutability": "view",
      "type": "function"
    }
  ],
  "bytecode": "0x6080604052670de0b6b3a7640000600d55611a0a600e556005600f5560646010556004601555600060165560006017553480156200003c57600080fd5b5060405162006712380380620067128339818101604052810190620000629190620005c0565b6040518060400160405280600881526020017f43524f536b756c6c0000000000000000000000000000000000000000000000008152506040518060400160405280600381526020017f4352530000000000000000000000000000000000000000000000000000000000815250620000e66301ffc9a760e01b6200029e60201b60201c565b8160069080519060200190620000fe929190620004f3565b50806007908051906020019062000117929190620004f3565b50620001306380ac58cd60e01b6200029e60201b60201c565b62000148635b5e139f60e01b6200029e60201b60201c565b6200016063780e9d6360e01b6200029e60201b60201c565b505033601360006101000a81548173ffffffffffffffffffffffffffffffffffffffff021916908373ffffffffffffffffffffffffffffffffffffffff160217905550620001b3620003a760201b60201c565b600a9080519060200190620001ca929190620004f3565b50620001db6200044d60201b60201c565b600b9080519060200190620001f2929190620004f3565b5082601b60405162000204906200070a565b908152602001604051809103902060006101000a81548160ff02191690831515021790555081601b6040516200023a90620006dc565b908152602001604051809103902060006101000a81548160ff02191690831515021790555080601b6040516200027090620006f3565b908152602001604051809103902060006101000a81548160ff02191690831515021790555050505062000752565b63ffffffff60e01b817bffffffffffffffffffffffffffffffffffffffffffffffffffffffff191614156200033b576040517f08c379a000000000000000000000000000000000000000000000000000000000815260040180806020018281038252601c8152602001807f4552433136353a20696e76616c696420696e746572666163652069640000000081525060200191505060405180910390fd5b6001600080837bffffffffffffffffffffffffffffffffffffffffffffffffffffffff19167bffffffffffffffffffffffffffffffffffffffffffffffffffffffff1916815260200190815260200160002060006101000a81548160ff02191690831515021790555050565b606060068054600181600116156101000203166002900480601f016020809104026020016040519081016040528092919081815260200182805460018160011615610100020316600290048015620004435780601f10620004175761010080835404028352916020019162000443565b820191906000526020600020905b8154815290600101906020018083116200042557829003601f168201915b5050505050905090565b606060078054600181600116156101000203166002900480601f016020809104026020016040519081016040528092919081815260200182805460018160011615610100020316600290048015620004e95780601f10620004bd57610100808354040283529160200191620004e9565b820191906000526020600020905b815481529060010190602001808311620004cb57829003601f168201915b5050505050905090565b828054600181600116156101000203166002900490600052602060002090601f0160209004810192826200052b576000855562000577565b82601f106200054657805160ff191683800117855562000577565b8280016001018555821562000577579182015b828111156200057657825182559160200191906001019062000559565b5b5090506200058691906200058a565b5090565b5b80821115620005a55760008160009055506001016200058b565b5090565b600081519050620005ba8162000738565b92915050565b600080600060608486031215620005d657600080fd5b6000620005e686828701620005a9565b9350506020620005f986828701620005a9565b92505060406200060c86828701620005a9565b9150509250925092565b600062000625600b8362000721565b91507f697357686974656c6973740000000000000000000000000000000000000000006000830152600b82019050919050565b600062000667600a8362000721565b91507f69735769746864726177000000000000000000000000000000000000000000006000830152600a82019050919050565b6000620006a9600d8362000721565b91507f69734d61726b6574706c616365000000000000000000000000000000000000006000830152600d82019050919050565b6000620006e98262000616565b9150819050919050565b6000620007008262000658565b9150819050919050565b600062000717826200069a565b9150819050919050565b600081905092915050565b60008115159050919050565b62000743816200072c565b81146200074f57600080fd5b50565b615fb080620007626000396000f3fe6080604052600436106103ad5760003560e01c806370a08231116101e7578063b88d4fde1161010d578063d34f6ecb116100a0578063e5326ab11161006f578063e5326ab114610e4b578063e985e9c514610e76578063f42dc03a14610eb3578063fb39990f14610edc576103ad565b8063d34f6ecb14610da1578063d500958414610dcc578063d5abeb0114610df7578063e43252d714610e22576103ad565b8063c885bc58116100dc578063c885bc5814610d1a578063cc151f3a14610d24578063d0eb26b014610d4f578063d0ebdbe714610d78576103ad565b8063b88d4fde14610c5e578063ba7d2c7614610c87578063bd3e19d414610cb2578063c87b56dd14610cdd576103ad565b80638da5cb5b11610185578063a22cb46511610154578063a22cb46514610ba4578063a32018b914610bcd578063a5cd761f14610bf6578063b46fcf6d14610c33576103ad565b80638da5cb5b14610ace57806395d89b4114610af95780639a59758f14610b245780639b19251a14610b67576103ad565b80637f00c7a6116101c15780637f00c7a614610a26578063857891b914610a4f578063893d20e814610a7a5780638b84eaad14610aa5576103ad565b806370a0823114610995578063710559ac146109d257806376289f38146109fb576103ad565b806343902850116102d757806362e8e8ac1161026a5780636a166964116102395780636a166964146108d75780636c0360eb146109025780636d7ad3951461092d5780636f9507f91461096a576103ad565b806362e8e8ac146108185780636352211e1461084157806367c623cf1461087e5780636943ed94146108bb576103ad565b80634c0f38c2116102a65780634c0f38c21461075c5780634f6ccce71461078757806355f804b3146107c45780635f81a57c146107ed576103ad565b8063439028501461068e57806343d32ae7146106cb57806344a0d68a14610708578063481c6a7514610731576103ad565b806318160ddd1161034f5780632d296bf11161031e5780632d296bf1146105cf5780632f745c59146105eb5780633687a4411461062857806342842e0e14610665576103ad565b806318160ddd1461051357806318cae2691461053e578063239c70ae1461057b57806323b872dd146105a6576103ad565b8063095ea7b31161038b578063095ea7b3146104575780630f2bdef61461048057806313faede6146104ab578063142687f3146104d6576103ad565b806301ffc9a7146103b257806306fdde03146103ef578063081812fc1461041a575b600080fd5b3480156103be57600080fd5b506103d960048036038101906103d49190615506565b610f07565b6040516103e691906159ab565b60405180910390f35b3480156103fb57600080fd5b50610404610f6e565b60405161041191906159c6565b60405180910390f35b34801561042657600080fd5b50610441600480360381019061043c91906155b5565b611010565b60405161044e9190615990565b60405180910390f35b34801561046357600080fd5b5061047e600480360381019061047991906154ca565b6110ab565b005b34801561048c57600080fd5b506104956111ef565b6040516104a29190615a88565b60405180910390f35b3480156104b757600080fd5b506104c06112f2565b6040516104cd9190615a88565b60405180910390f35b3480156104e257600080fd5b506104fd60048036038101906104f891906155b5565b6112f8565b60405161050a91906159ab565b60405180910390f35b34801561051f57600080fd5b5061052861130f565b6040516105359190615a88565b60405180910390f35b34801561054a57600080fd5b506105656004803603810190610560919061535f565b611320565b6040516105729190615a88565b60405180910390f35b34801561058757600080fd5b50610590611338565b60405161059d9190615a88565b60405180910390f35b3480156105b257600080fd5b506105cd60048036038101906105c891906153c4565b61133e565b005b6105e960048036038101906105e491906155b5565b6113b4565b005b3480156105f757600080fd5b50610612600480360381019061060d91906154ca565b611948565b60405161061f9190615a88565b60405180910390f35b34801561063457600080fd5b5061064f600480360381019061064a919061535f565b6119a3565b60405161065c9190615a88565b60405180910390f35b34801561067157600080fd5b5061068c600480360381019061068791906153c4565b6119bb565b005b34801561069a57600080fd5b506106b560048036038101906106b0919061535f565b6119db565b6040516106c29190615a88565b60405180910390f35b3480156106d757600080fd5b506106f260048036038101906106ed9190615574565b6119f2565b6040516106ff91906159ab565b60405180910390f35b34801561071457600080fd5b5061072f600480360381019061072a91906155b5565b611a28565b005b34801561073d57600080fd5b50610746611b18565b6040516107539190615990565b60405180910390f35b34801561076857600080fd5b50610771611b3e565b60405161077e9190615a88565b60405180910390f35b34801561079357600080fd5b506107ae60048036038101906107a991906155b5565b611b48565b6040516107bb9190615a88565b60405180910390f35b3480156107d057600080fd5b506107eb60048036038101906107e69190615574565b611b6b565b005b3480156107f957600080fd5b50610802611bd1565b60405161080f9190615a88565b60405180910390f35b34801561082457600080fd5b5061083f600480360381019061083a91906155de565b611bd7565b005b34801561084d57600080fd5b50610868600480360381019061086391906155b5565b611f68565b6040516108759190615990565b60405180910390f35b34801561088a57600080fd5b506108a560048036038101906108a091906155b5565b611f9f565b6040516108b291906159c6565b60405180910390f35b6108d560048036038101906108d091906155b5565b611fb7565b005b3480156108e357600080fd5b506108ec6123b4565b6040516108f99190615a88565b60405180910390f35b34801561090e57600080fd5b506109176123ba565b60405161092491906159c6565b60405180910390f35b34801561093957600080fd5b50610954600480360381019061094f9190615574565b61245c565b60405161096191906159ab565b60405180910390f35b34801561097657600080fd5b5061097f612492565b60405161098c91906159c6565b60405180910390f35b3480156109a157600080fd5b506109bc60048036038101906109b7919061535f565b612530565b6040516109c99190615a88565b60405180910390f35b3480156109de57600080fd5b506109f960048036038101906109f4919061552f565b612605565b005b348015610a0757600080fd5b50610a10612755565b604051610a1d9190615a88565b60405180910390f35b348015610a3257600080fd5b50610a4d6004803603810190610a4891906155b5565b61281d565b005b348015610a5b57600080fd5b50610a6461290d565b604051610a719190615a88565b60405180910390f35b348015610a8657600080fd5b50610a8f612913565b604051610a9c9190615990565b60405180910390f35b348015610ab157600080fd5b50610acc6004803603810190610ac791906154ca565b61293d565b005b348015610ada57600080fd5b50610ae3612a4c565b604051610af09190615990565b60405180910390f35b348015610b0557600080fd5b50610b0e612a72565b604051610b1b91906159c6565b60405180910390f35b348015610b3057600080fd5b50610b4b6004803603810190610b4691906155b5565b612b14565b604051610b5e9796959493929190615aa3565b60405180910390f35b348015610b7357600080fd5b50610b8e6004803603810190610b89919061535f565b612bc3565b604051610b9b91906159ab565b60405180910390f35b348015610bb057600080fd5b50610bcb6004803603810190610bc6919061548e565b612be3565b005b348015610bd957600080fd5b50610bf46004803603810190610bef91906155b5565b612d99565b005b348015610c0257600080fd5b50610c1d6004803603810190610c1891906155b5565b613151565b604051610c2a9190615990565b60405180910390f35b348015610c3f57600080fd5b50610c48613168565b604051610c559190615a88565b60405180910390f35b348015610c6a57600080fd5b50610c856004803603810190610c809190615413565b61316e565b005b348015610c9357600080fd5b50610c9c6131e6565b604051610ca99190615a88565b60405180910390f35b348015610cbe57600080fd5b50610cc76131ec565b604051610cd49190615a88565b60405180910390f35b348015610ce957600080fd5b50610d046004803603810190610cff91906155b5565b6131f6565b604051610d1191906159c6565b60405180910390f35b610d226134c7565b005b348015610d3057600080fd5b50610d39613650565b604051610d469190615a88565b60405180910390f35b348015610d5b57600080fd5b50610d766004803603810190610d7191906155b5565b613664565b005b348015610d8457600080fd5b50610d9f6004803603810190610d9a919061535f565b613754565b005b348015610dad57600080fd5b50610db6613887565b604051610dc39190615a88565b60405180910390f35b348015610dd857600080fd5b50610de161388d565b604051610dee9190615990565b60405180910390f35b348015610e0357600080fd5b50610e0c6138b7565b604051610e199190615a88565b60405180910390f35b348015610e2e57600080fd5b50610e496004803603810190610e44919061535f565b6138bd565b005b348015610e5757600080fd5b50610e60613a88565b604051610e6d91906159c6565b60405180910390f35b348015610e8257600080fd5b50610e9d6004803603810190610e989190615388565b613b26565b604051610eaa91906159ab565b60405180910390f35b348015610ebf57600080fd5b50610eda6004803603810190610ed5919061535f565b613bba565b005b348015610ee857600080fd5b50610ef1613c20565b604051610efe9190615a88565b60405180910390f35b6000806000837bffffffffffffffffffffffffffffffffffffffffffffffffffffffff19167bffffffffffffffffffffffffffffffffffffffffffffffffffffffff1916815260200190815260200160002060009054906101000a900460ff169050919050565b606060068054600181600116156101000203166002900480601f0160208091040260200160405190810160405280929190818152602001828054600181600116156101000203166002900480156110065780601f10610fdb57610100808354040283529160200191611006565b820191906000526020600020905b815481529060010190602001808311610fe957829003601f168201915b5050505050905090565b600061101b82613c26565b611070576040517f08c379a000000000000000000000000000000000000000000000000000000000815260040180806020018281038252602c815260200180615ea5602c913960400191505060405180910390fd5b6004600083815260200190815260200160002060009054906101000a900473ffffffffffffffffffffffffffffffffffffffff169050919050565b60006110b682611f68565b90508073ffffffffffffffffffffffffffffffffffffffff168373ffffffffffffffffffffffffffffffffffffffff16141561113d576040517f08c379a0000000000000000000000000000000000000000000000000000000008152600401808060200182810382526021815260200180615f296021913960400191505060405180910390fd5b8073ffffffffffffffffffffffffffffffffffffffff1661115c613c43565b73ffffffffffffffffffffffffffffffffffffffff16148061118b575061118a81611185613c43565b613b26565b5b6111e0576040517f08c379a0000000000000000000000000000000000000000000000000000000008152600401808060200182810382526038815260200180615dd76038913960400191505060405180910390fd5b6111ea8383613c4b565b505050565b600080601c60003373ffffffffffffffffffffffffffffffffffffffff1673ffffffffffffffffffffffffffffffffffffffff1681526020019081526020016000205411611272576040517f08c379a000000000000000000000000000000000000000000000000000000000815260040161126990615a28565b60405180910390fd5b6000601c60003373ffffffffffffffffffffffffffffffffffffffff1673ffffffffffffffffffffffffffffffffffffffff168152602001908152602001600020549050600081116112c357600080fd5b6112ec816112de6103e8601754613d0490919063ffffffff16565b613d8d90919063ffffffff16565b91505090565b600d5481565b60008061130483613c26565b905080915050919050565b600061131b6002613e13565b905090565b60196020528060005260406000206000915090505481565b600f5481565b61134f611349613c43565b82613e28565b6113a4576040517f08c379a0000000000000000000000000000000000000000000000000000000008152600401808060200182810382526031815260200180615f4a6031913960400191505060405180910390fd5b6113af838383613f1c565b505050565b601b6040516113c29061597b565b908152602001604051809103902060009054906101000a900460ff1661141d576040517f08c379a000000000000000000000000000000000000000000000000000000000815260040161141490615a08565b60405180910390fd5b601b60405161142b9061597b565b908152602001604051809103902060009054906101000a900460ff1661145057600080fd5b600073ffffffffffffffffffffffffffffffffffffffff163373ffffffffffffffffffffffffffffffffffffffff16141561148a57600080fd5b61149381613c26565b61149c57600080fd5b60006114a782611f68565b9050600073ffffffffffffffffffffffffffffffffffffffff168173ffffffffffffffffffffffffffffffffffffffff1614156114e357600080fd5b3373ffffffffffffffffffffffffffffffffffffffff168173ffffffffffffffffffffffffffffffffffffffff16141561151c57600080fd5b6000601860008481526020019081526020016000206040518060e0016040529081600082015481526020016001820160009054906101000a900473ffffffffffffffffffffffffffffffffffffffff1673ffffffffffffffffffffffffffffffffffffffff1673ffffffffffffffffffffffffffffffffffffffff1681526020016002820160009054906101000a900473ffffffffffffffffffffffffffffffffffffffff1673ffffffffffffffffffffffffffffffffffffffff1673ffffffffffffffffffffffffffffffffffffffff1681526020016003820160009054906101000a900473ffffffffffffffffffffffffffffffffffffffff1673ffffffffffffffffffffffffffffffffffffffff1673ffffffffffffffffffffffffffffffffffffffff16815260200160048201548152602001600582015481526020016006820160009054906101000a900460ff1615151515815250509050806080015134101561168a57600080fd5b8060c0015161169857600080fd5b6116a3823385613f1c565b60008160400151905060006116d560646116c7605e34613d8d90919063ffffffff16565b613d0490919063ffffffff16565b90508173ffffffffffffffffffffffffffffffffffffffff166108fc829081150290604051600060405180830381858888f1935050505015801561171d573d6000803e3d6000fd5b508260400151836060019073ffffffffffffffffffffffffffffffffffffffff16908173ffffffffffffffffffffffffffffffffffffffff168152505033836040019073ffffffffffffffffffffffffffffffffffffffff16908173ffffffffffffffffffffffffffffffffffffffff168152505060018360a001818151019150818152505060008360c001901515908115158152505082601860008781526020019081526020016000206000820151816000015560208201518160010160006101000a81548173ffffffffffffffffffffffffffffffffffffffff021916908373ffffffffffffffffffffffffffffffffffffffff16021790555060408201518160020160006101000a81548173ffffffffffffffffffffffffffffffffffffffff021916908373ffffffffffffffffffffffffffffffffffffffff16021790555060608201518160030160006101000a81548173ffffffffffffffffffffffffffffffffffffffff021916908373ffffffffffffffffffffffffffffffffffffffff1602179055506080820151816004015560a0820151816005015560c08201518160060160006101000a81548160ff0219169083151502179055509050506119056118f4823461415f90919063ffffffff16565b6016546141e290919063ffffffff16565b60168190555050505050601b60405161191d90615966565b908152602001604051809103902060009054906101000a900460ff1661194557476017819055505b50565b600061199b82600160008673ffffffffffffffffffffffffffffffffffffffff1673ffffffffffffffffffffffffffffffffffffffff16815260200190815260200160002061426a90919063ffffffff16565b905092915050565b601c6020528060005260406000206000915090505481565b6119d68383836040518060200160405280600081525061316e565b505050565b6000806119e783612530565b905080915050919050565b601a818051602081018201805184825260208301602085012081835280955050505050506000915054906101000a900460ff1681565b601360009054906101000a900473ffffffffffffffffffffffffffffffffffffffff1673ffffffffffffffffffffffffffffffffffffffff163373ffffffffffffffffffffffffffffffffffffffff1614611b0e57601460009054906101000a900473ffffffffffffffffffffffffffffffffffffffff1673ffffffffffffffffffffffffffffffffffffffff163373ffffffffffffffffffffffffffffffffffffffff1614611b0d576040517f08c379a0000000000000000000000000000000000000000000000000000000008152600401611b0490615a68565b60405180910390fd5b5b80600d8190555050565b601460009054906101000a900473ffffffffffffffffffffffffffffffffffffffff1681565b6000600e54905090565b600080611b5f83600261428490919063ffffffff16565b50905080915050919050565b601360009054906101000a900473ffffffffffffffffffffffffffffffffffffffff1673ffffffffffffffffffffffffffffffffffffffff163373ffffffffffffffffffffffffffffffffffffffff1614611bc557600080fd5b611bce816142b0565b50565b60165481565b601b604051611be59061597b565b908152602001604051809103902060009054906101000a900460ff16611c40576040517f08c379a0000000000000000000000000000000000000000000000000000000008152600401611c3790615a08565b60405180910390fd5b600073ffffffffffffffffffffffffffffffffffffffff163373ffffffffffffffffffffffffffffffffffffffff161415611c7a57600080fd5b611c8382613c26565b611c8c57600080fd5b6000611c9783611f68565b90503373ffffffffffffffffffffffffffffffffffffffff168173ffffffffffffffffffffffffffffffffffffffff1614611cd157600080fd5b6000601860008581526020019081526020016000206040518060e0016040529081600082015481526020016001820160009054906101000a900473ffffffffffffffffffffffffffffffffffffffff1673ffffffffffffffffffffffffffffffffffffffff1673ffffffffffffffffffffffffffffffffffffffff1681526020016002820160009054906101000a900473ffffffffffffffffffffffffffffffffffffffff1673ffffffffffffffffffffffffffffffffffffffff1673ffffffffffffffffffffffffffffffffffffffff1681526020016003820160009054906101000a900473ffffffffffffffffffffffffffffffffffffffff1673ffffffffffffffffffffffffffffffffffffffff1673ffffffffffffffffffffffffffffffffffffffff16815260200160048201548152602001600582015481526020016006820160009054906101000a900460ff16151515158152505090508281608001818152505080601860008681526020019081526020016000206000820151816000015560208201518160010160006101000a81548173ffffffffffffffffffffffffffffffffffffffff021916908373ffffffffffffffffffffffffffffffffffffffff16021790555060408201518160020160006101000a81548173ffffffffffffffffffffffffffffffffffffffff021916908373ffffffffffffffffffffffffffffffffffffffff16021790555060608201518160030160006101000a81548173ffffffffffffffffffffffffffffffffffffffff021916908373ffffffffffffffffffffffffffffffffffffffff1602179055506080820151816004015560a0820151816005015560c08201518160060160006101000a81548160ff02191690831515021790555090505050505050565b6000611f9882604051806060016040528060298152602001615e396029913960026142ca9092919063ffffffff16565b9050919050565b60606000611fac836131f6565b905080915050919050565b601b604051611fc590615927565b908152602001604051809103902060009054906101000a900460ff161561207357601d60003373ffffffffffffffffffffffffffffffffffffffff1673ffffffffffffffffffffffffffffffffffffffff16815260200190815260200160002060009054906101000a900460ff16612072576040517f08c379a000000000000000000000000000000000000000000000000000000000815260040161206990615a48565b60405180910390fd5b5b600073ffffffffffffffffffffffffffffffffffffffff163373ffffffffffffffffffffffffffffffffffffffff1614156120ad57600080fd5b600081116120ba57600080fd5b600f548111156120c957600080fd5b80600d54023410156120da57600080fd5b60006120e461130f565b9050600e5482820111156120f757600080fd5b61210c346016546141e290919063ffffffff16565b6016819055506000600190505b82811161235e57600c6000815480929190600101919050555061213d600c54613c26565b1561214757600080fd5b601960003373ffffffffffffffffffffffffffffffffffffffff1673ffffffffffffffffffffffffffffffffffffffff168152602001908152602001600020600081548092919060010191905055506121a233600c546142e9565b60006040518060e00160405280600c5481526020013373ffffffffffffffffffffffffffffffffffffffff1681526020013373ffffffffffffffffffffffffffffffffffffffff168152602001600073ffffffffffffffffffffffffffffffffffffffff168152602001600d548152602001600081526020016000151581525090508060186000600c5481526020019081526020016000206000820151816000015560208201518160010160006101000a81548173ffffffffffffffffffffffffffffffffffffffff021916908373ffffffffffffffffffffffffffffffffffffffff16021790555060408201518160020160006101000a81548173ffffffffffffffffffffffffffffffffffffffff021916908373ffffffffffffffffffffffffffffffffffffffff16021790555060608201518160030160006101000a81548173ffffffffffffffffffffffffffffffffffffffff021916908373ffffffffffffffffffffffffffffffffffffffff1602179055506080820151816004015560a0820151816005015560c08201518160060160006101000a81548160ff021916908315150217905550905050508080600101915050612119565b50612374346016546141e290919063ffffffff16565b60168190555050601b60405161238990615966565b908152602001604051809103902060009054906101000a900460ff166123b157476017819055505b50565b60155481565b606060098054600181600116156101000203166002900480601f0160208091040260200160405190810160405280929190818152602001828054600181600116156101000203166002900480156124525780601f1061242757610100808354040283529160200191612452565b820191906000526020600020905b81548152906001019060200180831161243557829003601f168201915b5050505050905090565b601b818051602081018201805184825260208301602085012081835280955050505050506000915054906101000a900460ff1681565b600b8054600181600116156101000203166002900480601f0160208091040260200160405190810160405280929190818152602001828054600181600116156101000203166002900480156125285780601f106124fd57610100808354040283529160200191612528565b820191906000526020600020905b81548152906001019060200180831161250b57829003601f168201915b505050505081565b60008073ffffffffffffffffffffffffffffffffffffffff168273ffffffffffffffffffffffffffffffffffffffff1614156125b7576040517f08c379a000000000000000000000000000000000000000000000000000000000815260040180806020018281038252602a815260200180615e0f602a913960400191505060405180910390fd5b6125fe600160008473ffffffffffffffffffffffffffffffffffffffff1673ffffffffffffffffffffffffffffffffffffffff1681526020019081526020016000206144dd565b9050919050565b601360009054906101000a900473ffffffffffffffffffffffffffffffffffffffff1673ffffffffffffffffffffffffffffffffffffffff163373ffffffffffffffffffffffffffffffffffffffff16146126eb57601460009054906101000a900473ffffffffffffffffffffffffffffffffffffffff1673ffffffffffffffffffffffffffffffffffffffff163373ffffffffffffffffffffffffffffffffffffffff16146126ea576040517f08c379a00000000000000000000000000000000000000000000000000000000081526004016126e190615a68565b60405180910390fd5b5b601b82826040516126fd92919061590e565b908152602001604051809103902060009054906101000a900460ff1615601b838360405161272c92919061590e565b908152602001604051809103902060006101000a81548160ff0219169083151502179055505050565b600080601c60003373ffffffffffffffffffffffffffffffffffffffff1673ffffffffffffffffffffffffffffffffffffffff16815260200190815260200160002054116127d8576040517f08c379a00000000000000000000000000000000000000000000000000000000081526004016127cf90615a28565b60405180910390fd5b601c60003373ffffffffffffffffffffffffffffffffffffffff1673ffffffffffffffffffffffffffffffffffffffff16815260200190815260200160002054905090565b601360009054906101000a900473ffffffffffffffffffffffffffffffffffffffff1673ffffffffffffffffffffffffffffffffffffffff163373ffffffffffffffffffffffffffffffffffffffff161461290357601460009054906101000a900473ffffffffffffffffffffffffffffffffffffffff1673ffffffffffffffffffffffffffffffffffffffff163373ffffffffffffffffffffffffffffffffffffffff1614612902576040517f08c379a00000000000000000000000000000000000000000000000000000000081526004016128f990615a68565b60405180910390fd5b5b80600f8190555050565b60175481565b6000601360009054906101000a900473ffffffffffffffffffffffffffffffffffffffff16905090565b601360009054906101000a900473ffffffffffffffffffffffffffffffffffffffff1673ffffffffffffffffffffffffffffffffffffffff163373ffffffffffffffffffffffffffffffffffffffff161461299757600080fd5b6000601c60008473ffffffffffffffffffffffffffffffffffffffff1673ffffffffffffffffffffffffffffffffffffffff1681526020019081526020016000205411156129e457600080fd5b6103e8816012540111156129f757600080fd5b60e78110612a0457600080fd5b80601c60008473ffffffffffffffffffffffffffffffffffffffff1673ffffffffffffffffffffffffffffffffffffffff168152602001908152602001600020819055505050565b601360009054906101000a900473ffffffffffffffffffffffffffffffffffffffff1681565b606060078054600181600116156101000203166002900480601f016020809104026020016040519081016040528092919081815260200182805460018160011615610100020316600290048015612b0a5780601f10612adf57610100808354040283529160200191612b0a565b820191906000526020600020905b815481529060010190602001808311612aed57829003601f168201915b5050505050905090565b60186020528060005260406000206000915090508060000154908060010160009054906101000a900473ffffffffffffffffffffffffffffffffffffffff16908060020160009054906101000a900473ffffffffffffffffffffffffffffffffffffffff16908060030160009054906101000a900473ffffffffffffffffffffffffffffffffffffffff16908060040154908060050154908060060160009054906101000a900460ff16905087565b601d6020528060005260406000206000915054906101000a900460ff1681565b612beb613c43565b73ffffffffffffffffffffffffffffffffffffffff168273ffffffffffffffffffffffffffffffffffffffff161415612c8c576040517f08c379a00000000000000000000000000000000000000000000000000000000081526004018080602001828103825260198152602001807f4552433732313a20617070726f766520746f2063616c6c65720000000000000081525060200191505060405180910390fd5b8060056000612c99613c43565b73ffffffffffffffffffffffffffffffffffffffff1673ffffffffffffffffffffffffffffffffffffffff16815260200190815260200160002060008473ffffffffffffffffffffffffffffffffffffffff1673ffffffffffffffffffffffffffffffffffffffff16815260200190815260200160002060006101000a81548160ff0219169083151502179055508173ffffffffffffffffffffffffffffffffffffffff16612d46613c43565b73ffffffffffffffffffffffffffffffffffffffff167f17307eab39ab6107e8899845ad3d59bd9653f200f220920489ca2b5937696c318360405180821515815260200191505060405180910390a35050565b601b604051612da79061597b565b908152602001604051809103902060009054906101000a900460ff16612e02576040517f08c379a0000000000000000000000000000000000000000000000000000000008152600401612df990615a08565b60405180910390fd5b600073ffffffffffffffffffffffffffffffffffffffff163373ffffffffffffffffffffffffffffffffffffffff161415612e3c57600080fd5b612e4581613c26565b612e4e57600080fd5b6000612e5982611f68565b90503373ffffffffffffffffffffffffffffffffffffffff168173ffffffffffffffffffffffffffffffffffffffff1614612e9357600080fd5b6000601860008481526020019081526020016000206040518060e0016040529081600082015481526020016001820160009054906101000a900473ffffffffffffffffffffffffffffffffffffffff1673ffffffffffffffffffffffffffffffffffffffff1673ffffffffffffffffffffffffffffffffffffffff1681526020016002820160009054906101000a900473ffffffffffffffffffffffffffffffffffffffff1673ffffffffffffffffffffffffffffffffffffffff1673ffffffffffffffffffffffffffffffffffffffff1681526020016003820160009054906101000a900473ffffffffffffffffffffffffffffffffffffffff1673ffffffffffffffffffffffffffffffffffffffff1673ffffffffffffffffffffffffffffffffffffffff16815260200160048201548152602001600582015481526020016006820160009054906101000a900460ff16151515158152505090508060c00151156130105760008160c0019015159081151581525050613022565b60018160c00190151590811515815250505b80601860008581526020019081526020016000206000820151816000015560208201518160010160006101000a81548173ffffffffffffffffffffffffffffffffffffffff021916908373ffffffffffffffffffffffffffffffffffffffff16021790555060408201518160020160006101000a81548173ffffffffffffffffffffffffffffffffffffffff021916908373ffffffffffffffffffffffffffffffffffffffff16021790555060608201518160030160006101000a81548173ffffffffffffffffffffffffffffffffffffffff021916908373ffffffffffffffffffffffffffffffffffffffff1602179055506080820151816004015560a0820151816005015560c08201518160060160006101000a81548160ff021916908315150217905550905050505050565b60008061315d83611f68565b905080915050919050565b60125481565b61317f613179613c43565b83613e28565b6131d4576040517f08c379a0000000000000000000000000000000000000000000000000000000008152600401808060200182810382526031815260200180615f4a6031913960400191505060405180910390fd5b6131e0848484846144f2565b50505050565b60105481565b6000600d54905090565b606061320182613c26565b613256576040517f08c379a000000000000000000000000000000000000000000000000000000000815260040180806020018281038252602f815260200180615efa602f913960400191505060405180910390fd5b6000600860008481526020019081526020016000208054600181600116156101000203166002900480601f0160208091040260200160405190810160405280929190818152602001828054600181600116156101000203166002900480156132ff5780601f106132d4576101008083540402835291602001916132ff565b820191906000526020600020905b8154815290600101906020018083116132e257829003601f168201915b5050505050905060006133106123ba565b90506000815114156133265781925050506134c2565b6000825111156133f75780826040516020018083805190602001908083835b602083106133685780518252602082019150602081019050602083039250613345565b6001836020036101000a03801982511681845116808217855250505050505090500182805190602001908083835b602083106133b95780518252602082019150602081019050602083039250613396565b6001836020036101000a03801982511681845116808217855250505050505090500192505050604051602081830303815290604052925050506134c2565b8061340185614564565b6040516020018083805190602001908083835b602083106134375780518252602082019150602081019050602083039250613414565b6001836020036101000a03801982511681845116808217855250505050505090500182805190602001908083835b602083106134885780518252602082019150602081019050602083039250613465565b6001836020036101000a03801982511681845116808217855250505050505090500192505050604051602081830303815290604052925050505b919050565b6000601c60003373ffffffffffffffffffffffffffffffffffffffff1673ffffffffffffffffffffffffffffffffffffffff1681526020019081526020016000205411613549576040517f08c379a000000000000000000000000000000000000000000000000000000000815260040161354090615a28565b60405180910390fd5b601b6040516135579061593c565b908152602001604051809103902060009054906101000a900460ff166135b2576040517f08c379a00000000000000000000000000000000000000000000000000000000081526004016135a9906159e8565b60405180910390fd5b60006135bc6111ef565b90506017548111156135cd57600080fd5b6135d6336146ab565b60003373ffffffffffffffffffffffffffffffffffffffff16826040516135fc90615951565b60006040518083038185875af1925050503d8060008114613639576040519150601f19603f3d011682016040523d82523d6000602084013e61363e565b606091505b505090508061364c57600080fd5b5050565b60008061365b61130f565b90508091505090565b601360009054906101000a900473ffffffffffffffffffffffffffffffffffffffff1673ffffffffffffffffffffffffffffffffffffffff163373ffffffffffffffffffffffffffffffffffffffff161461374a57601460009054906101000a900473ffffffffffffffffffffffffffffffffffffffff1673ffffffffffffffffffffffffffffffffffffffff163373ffffffffffffffffffffffffffffffffffffffff1614613749576040517f08c379a000000000000000000000000000000000000000000000000000000000815260040161374090615a68565b60405180910390fd5b5b8060108190555050565b601360009054906101000a900473ffffffffffffffffffffffffffffffffffffffff1673ffffffffffffffffffffffffffffffffffffffff163373ffffffffffffffffffffffffffffffffffffffff16146137ae57600080fd5b600073ffffffffffffffffffffffffffffffffffffffff168173ffffffffffffffffffffffffffffffffffffffff1614156137e857600080fd5b601460009054906101000a900473ffffffffffffffffffffffffffffffffffffffff1673ffffffffffffffffffffffffffffffffffffffff168173ffffffffffffffffffffffffffffffffffffffff16141561384357600080fd5b80601460006101000a81548173ffffffffffffffffffffffffffffffffffffffff021916908373ffffffffffffffffffffffffffffffffffffffff16021790555050565b600c5481565b6000601460009054906101000a900473ffffffffffffffffffffffffffffffffffffffff16905090565b600e5481565b601360009054906101000a900473ffffffffffffffffffffffffffffffffffffffff1673ffffffffffffffffffffffffffffffffffffffff163373ffffffffffffffffffffffffffffffffffffffff16146139a357601460009054906101000a900473ffffffffffffffffffffffffffffffffffffffff1673ffffffffffffffffffffffffffffffffffffffff163373ffffffffffffffffffffffffffffffffffffffff16146139a2576040517f08c379a000000000000000000000000000000000000000000000000000000000815260040161399990615a68565b60405180910390fd5b5b601b6040516139b190615927565b908152602001604051809103902060009054906101000a900460ff166139d657600080fd5b601d60008273ffffffffffffffffffffffffffffffffffffffff1673ffffffffffffffffffffffffffffffffffffffff16815260200190815260200160002060009054906101000a900460ff1615613a2d57600080fd5b6001601d60008373ffffffffffffffffffffffffffffffffffffffff1673ffffffffffffffffffffffffffffffffffffffff16815260200190815260200160002060006101000a81548160ff02191690831515021790555050565b600a8054600181600116156101000203166002900480601f016020809104026020016040519081016040528092919081815260200182805460018160011615610100020316600290048015613b1e5780601f10613af357610100808354040283529160200191613b1e565b820191906000526020600020905b815481529060010190602001808311613b0157829003601f168201915b505050505081565b6000600560008473ffffffffffffffffffffffffffffffffffffffff1673ffffffffffffffffffffffffffffffffffffffff16815260200190815260200160002060008373ffffffffffffffffffffffffffffffffffffffff1673ffffffffffffffffffffffffffffffffffffffff16815260200190815260200160002060009054906101000a900460ff16905092915050565b601360009054906101000a900473ffffffffffffffffffffffffffffffffffffffff1673ffffffffffffffffffffffffffffffffffffffff163373ffffffffffffffffffffffffffffffffffffffff1614613c1457600080fd5b613c1d816146ab565b50565b60115481565b6000613c3c82600261475890919063ffffffff16565b9050919050565b600033905090565b816004600083815260200190815260200160002060006101000a81548173ffffffffffffffffffffffffffffffffffffffff021916908373ffffffffffffffffffffffffffffffffffffffff160217905550808273ffffffffffffffffffffffffffffffffffffffff16613cbe83611f68565b73ffffffffffffffffffffffffffffffffffffffff167f8c5be1e5ebec7d5bd14f71427d1e84f3dd0314c0f7b2291e5b200ac8c7c3b92560405160405180910390a45050565b6000808211613d7b576040517f08c379a000000000000000000000000000000000000000000000000000000000815260040180806020018281038252601a8152602001807f536166654d6174683a206469766973696f6e206279207a65726f00000000000081525060200191505060405180910390fd5b818381613d8457fe5b04905092915050565b600080831415613da05760009050613e0d565b6000828402905082848281613db157fe5b0414613e08576040517f08c379a0000000000000000000000000000000000000000000000000000000008152600401808060200182810382526021815260200180615e846021913960400191505060405180910390fd5b809150505b92915050565b6000613e2182600001614772565b9050919050565b6000613e3382613c26565b613e88576040517f08c379a000000000000000000000000000000000000000000000000000000000815260040180806020018281038252602c815260200180615dab602c913960400191505060405180910390fd5b6000613e9383611f68565b90508073ffffffffffffffffffffffffffffffffffffffff168473ffffffffffffffffffffffffffffffffffffffff161480613f0257508373ffffffffffffffffffffffffffffffffffffffff16613eea84611010565b73ffffffffffffffffffffffffffffffffffffffff16145b80613f135750613f128185613b26565b5b91505092915050565b8273ffffffffffffffffffffffffffffffffffffffff16613f3c82611f68565b73ffffffffffffffffffffffffffffffffffffffff1614613fa8576040517f08c379a0000000000000000000000000000000000000000000000000000000008152600401808060200182810382526029815260200180615ed16029913960400191505060405180910390fd5b600073ffffffffffffffffffffffffffffffffffffffff168273ffffffffffffffffffffffffffffffffffffffff16141561402e576040517f08c379a0000000000000000000000000000000000000000000000000000000008152600401808060200182810382526024815260200180615d616024913960400191505060405180910390fd5b614039838383614783565b614044600082613c4b565b61409581600160008673ffffffffffffffffffffffffffffffffffffffff1673ffffffffffffffffffffffffffffffffffffffff16815260200190815260200160002061478890919063ffffffff16565b506140e781600160008573ffffffffffffffffffffffffffffffffffffffff1673ffffffffffffffffffffffffffffffffffffffff1681526020019081526020016000206147a290919063ffffffff16565b506140fe818360026147bc9092919063ffffffff16565b50808273ffffffffffffffffffffffffffffffffffffffff168473ffffffffffffffffffffffffffffffffffffffff167fddf252ad1be2c89b69c2b068fc378daa952ba7f163c4a11628f55a4df523b3ef60405160405180910390a4505050565b6000828211156141d7576040517f08c379a000000000000000000000000000000000000000000000000000000000815260040180806020018281038252601e8152602001807f536166654d6174683a207375627472616374696f6e206f766572666c6f77000081525060200191505060405180910390fd5b818303905092915050565b600080828401905083811015614260576040517f08c379a000000000000000000000000000000000000000000000000000000000815260040180806020018281038252601b8152602001807f536166654d6174683a206164646974696f6e206f766572666c6f77000000000081525060200191505060405180910390fd5b8091505092915050565b600061427983600001836147f1565b60001c905092915050565b6000806000806142978660000186614874565b915091508160001c8160001c9350935050509250929050565b80600990805190602001906142c6929190615146565b5050565b60006142dd846000018460001b8461490d565b60001c90509392505050565b600073ffffffffffffffffffffffffffffffffffffffff168273ffffffffffffffffffffffffffffffffffffffff16141561438c576040517f08c379a00000000000000000000000000000000000000000000000000000000081526004018080602001828103825260208152602001807f4552433732313a206d696e7420746f20746865207a65726f206164647265737381525060200191505060405180910390fd5b61439581613c26565b15614408576040517f08c379a000000000000000000000000000000000000000000000000000000000815260040180806020018281038252601c8152602001807f4552433732313a20746f6b656e20616c7265616479206d696e7465640000000081525060200191505060405180910390fd5b61441460008383614783565b61446581600160008573ffffffffffffffffffffffffffffffffffffffff1673ffffffffffffffffffffffffffffffffffffffff1681526020019081526020016000206147a290919063ffffffff16565b5061447c818360026147bc9092919063ffffffff16565b50808273ffffffffffffffffffffffffffffffffffffffff16600073ffffffffffffffffffffffffffffffffffffffff167fddf252ad1be2c89b69c2b068fc378daa952ba7f163c4a11628f55a4df523b3ef60405160405180910390a45050565b60006144eb82600001614a03565b9050919050565b6144fd848484613f1c565b61450984848484614a14565b61455e576040517f08c379a0000000000000000000000000000000000000000000000000000000008152600401808060200182810382526032815260200180615d2f6032913960400191505060405180910390fd5b50505050565b606060008214156145ac576040518060400160405280600181526020017f300000000000000000000000000000000000000000000000000000000000000081525090506146a6565b600082905060005b600082146145d6578080600101915050600a82816145ce57fe5b0491506145b4565b60008167ffffffffffffffff811180156145ef57600080fd5b506040519080825280601f01601f1916602001820160405280156146225781602001600182028036833780820191505090505b50905060006001830390508593505b6000841461469e57600a848161464357fe5b0660300160f81b8282806001900393508151811061465d57fe5b60200101907effffffffffffffffffffffffffffffffffffffffffffffffffffffffffffff1916908160001a905350600a848161469657fe5b049350614631565b819450505050505b919050565b6000601c60008373ffffffffffffffffffffffffffffffffffffffff1673ffffffffffffffffffffffffffffffffffffffff16815260200190815260200160002054905060008110156146fd57600080fd5b60008160125403101561470f57600080fd5b6000601c60008473ffffffffffffffffffffffffffffffffffffffff1673ffffffffffffffffffffffffffffffffffffffff168152602001908152602001600020819055505050565b600061476a836000018360001b614c2d565b905092915050565b600081600001805490509050919050565b505050565b600061479a836000018360001b614c50565b905092915050565b60006147b4836000018360001b614d38565b905092915050565b60006147e8846000018460001b8473ffffffffffffffffffffffffffffffffffffffff1660001b614da8565b90509392505050565b600081836000018054905011614852576040517f08c379a0000000000000000000000000000000000000000000000000000000008152600401808060200182810382526022815260200180615d0d6022913960400191505060405180910390fd5b82600001828154811061486157fe5b9060005260206000200154905092915050565b600080828460000180549050116148d6576040517f08c379a0000000000000000000000000000000000000000000000000000000008152600401808060200182810382526022815260200180615e626022913960400191505060405180910390fd5b60008460000184815481106148e757fe5b906000526020600020906002020190508060000154816001015492509250509250929050565b600080846001016000858152602001908152602001600020549050600081141583906149d4576040517f08c379a00000000000000000000000000000000000000000000000000000000081526004018080602001828103825283818151815260200191508051906020019080838360005b8381101561499957808201518184015260208101905061497e565b50505050905090810190601f1680156149c65780820380516001836020036101000a031916815260200191505b509250505060405180910390fd5b508460000160018203815481106149e757fe5b9060005260206000209060020201600101549150509392505050565b600081600001805490509050919050565b6000614a358473ffffffffffffffffffffffffffffffffffffffff16614e84565b614a425760019050614c25565b6000614bac63150b7a0260e01b614a57613c43565b888787604051602401808573ffffffffffffffffffffffffffffffffffffffff1681526020018473ffffffffffffffffffffffffffffffffffffffff16815260200183815260200180602001828103825283818151815260200191508051906020019080838360005b83811015614adb578082015181840152602081019050614ac0565b50505050905090810190601f168015614b085780820380516001836020036101000a031916815260200191505b5095505050505050604051602081830303815290604052907bffffffffffffffffffffffffffffffffffffffffffffffffffffffff19166020820180517bffffffffffffffffffffffffffffffffffffffffffffffffffffffff8381831617835250505050604051806060016040528060328152602001615d2f603291398773ffffffffffffffffffffffffffffffffffffffff16614e979092919063ffffffff16565b90506000818060200190516020811015614bc557600080fd5b8101908080519060200190929190505050905063150b7a0260e01b7bffffffffffffffffffffffffffffffffffffffffffffffffffffffff1916817bffffffffffffffffffffffffffffffffffffffffffffffffffffffff191614925050505b949350505050565b600080836001016000848152602001908152602001600020541415905092915050565b60008083600101600084815260200190815260200160002054905060008114614d2c5760006001820390506000600186600001805490500390506000866000018281548110614c9b57fe5b9060005260206000200154905080876000018481548110614cb857fe5b9060005260206000200181905550600183018760010160008381526020019081526020016000208190555086600001805480614cf057fe5b60019003818190600052602060002001600090559055866001016000878152602001908152602001600020600090556001945050505050614d32565b60009150505b92915050565b6000614d448383614eaf565b614d9d578260000182908060018154018082558091505060019003906000526020600020016000909190919091505582600001805490508360010160008481526020019081526020016000208190555060019050614da2565b600090505b92915050565b6000808460010160008581526020019081526020016000205490506000811415614e4f57846000016040518060400160405280868152602001858152509080600181540180825580915050600190039060005260206000209060020201600090919091909150600082015181600001556020820151816001015550508460000180549050856001016000868152602001908152602001600020819055506001915050614e7d565b82856000016001830381548110614e6257fe5b90600052602060002090600202016001018190555060009150505b9392505050565b600080823b905060008111915050919050565b6060614ea68484600085614ed2565b90509392505050565b600080836001016000848152602001908152602001600020541415905092915050565b606082471015614f2d576040517f08c379a0000000000000000000000000000000000000000000000000000000008152600401808060200182810382526026815260200180615d856026913960400191505060405180910390fd5b614f3685614e84565b614fa8576040517f08c379a000000000000000000000000000000000000000000000000000000000815260040180806020018281038252601d8152602001807f416464726573733a2063616c6c20746f206e6f6e2d636f6e747261637400000081525060200191505060405180910390fd5b6000808673ffffffffffffffffffffffffffffffffffffffff1685876040518082805190602001908083835b60208310614ff75780518252602082019150602081019050602083039250614fd4565b6001836020036101000a03801982511681845116808217855250505050505090500191505060006040518083038185875af1925050503d8060008114615059576040519150601f19603f3d011682016040523d82523d6000602084013e61505e565b606091505b509150915061506e82828661507a565b92505050949350505050565b6060831561508a5782905061513f565b60008351111561509d5782518084602001fd5b816040517f08c379a00000000000000000000000000000000000000000000000000000000081526004018080602001828103825283818151815260200191508051906020019080838360005b838110156151045780820151818401526020810190506150e9565b50505050905090810190601f1680156151315780820380516001836020036101000a031916815260200191505b509250505060405180910390fd5b9392505050565b828054600181600116156101000203166002900490600052602060002090601f01602090048101928261517c57600085556151c3565b82601f1061519557805160ff19168380011785556151c3565b828001600101855582156151c3579182015b828111156151c25782518255916020019190600101906151a7565b5b5090506151d091906151d4565b5090565b5b808211156151ed5760008160009055506001016151d5565b5090565b60006152046151ff84615b43565b615b12565b90508281526020810184848401111561521c57600080fd5b615227848285615c5b565b509392505050565b600061524261523d84615b73565b615b12565b90508281526020810184848401111561525a57600080fd5b615265848285615c5b565b509392505050565b60008135905061527c81615cb0565b92915050565b60008135905061529181615cc7565b92915050565b6000813590506152a681615cde565b92915050565b600082601f8301126152bd57600080fd5b81356152cd8482602086016151f1565b91505092915050565b60008083601f8401126152e857600080fd5b8235905067ffffffffffffffff81111561530157600080fd5b60208301915083600182028301111561531957600080fd5b9250929050565b600082601f83011261533157600080fd5b813561534184826020860161522f565b91505092915050565b60008135905061535981615cf5565b92915050565b60006020828403121561537157600080fd5b600061537f8482850161526d565b91505092915050565b6000806040838503121561539b57600080fd5b60006153a98582860161526d565b92505060206153ba8582860161526d565b9150509250929050565b6000806000606084860312156153d957600080fd5b60006153e78682870161526d565b93505060206153f88682870161526d565b92505060406154098682870161534a565b9150509250925092565b6000806000806080858703121561542957600080fd5b60006154378782880161526d565b94505060206154488782880161526d565b93505060406154598782880161534a565b925050606085013567ffffffffffffffff81111561547657600080fd5b615482878288016152ac565b91505092959194509250565b600080604083850312156154a157600080fd5b60006154af8582860161526d565b92505060206154c085828601615282565b9150509250929050565b600080604083850312156154dd57600080fd5b60006154eb8582860161526d565b92505060206154fc8582860161534a565b9150509250929050565b60006020828403121561551857600080fd5b600061552684828501615297565b91505092915050565b6000806020838503121561554257600080fd5b600083013567ffffffffffffffff81111561555c57600080fd5b615568858286016152d6565b92509250509250929050565b60006020828403121561558657600080fd5b600082013567ffffffffffffffff8111156155a057600080fd5b6155ac84828501615320565b91505092915050565b6000602082840312156155c757600080fd5b60006155d58482850161534a565b91505092915050565b600080604083850312156155f157600080fd5b60006155ff8582860161534a565b92505060206156108582860161534a565b9150509250929050565b61562381615be7565b82525050565b61563281615bd5565b82525050565b61564181615bf9565b82525050565b60006156538385615bca565b9350615660838584615c5b565b82840190509392505050565b600061567782615ba3565b6156818185615bb9565b9350615691818560208601615c6a565b61569a81615c9f565b840191505092915050565b60006156b2600b83615bca565b91507f697357686974656c6973740000000000000000000000000000000000000000006000830152600b82019050919050565b60006156f2601183615bb9565b91507f57697468647261772064697361626c65640000000000000000000000000000006000830152602082019050919050565b6000615732601583615bb9565b91507f4d61726b6574706c6163652064697361626c65642e00000000000000000000006000830152602082019050919050565b6000615772600a83615bca565b91507f69735769746864726177000000000000000000000000000000000000000000006000830152600a82019050919050565b60006157b2600f83615bb9565b91507f63616e6e6f7420776974686472617700000000000000000000000000000000006000830152602082019050919050565b60006157f2600083615bae565b9150600082019050919050565b600061580c601083615bb9565b91507f206e6f742077686974656c6973746564000000000000000000000000000000006000830152602082019050919050565b600061584c600a83615bca565b91507f69735768697464726177000000000000000000000000000000000000000000006000830152600a82019050919050565b600061588c600d83615bca565b91507f69734d61726b6574706c616365000000000000000000000000000000000000006000830152600d82019050919050565b60006158cc600d83615bb9565b91507f6e6f742061206d616e61676572000000000000000000000000000000000000006000830152602082019050919050565b61590881615c51565b82525050565b600061591b828486615647565b91508190509392505050565b6000615932826156a5565b9150819050919050565b600061594782615765565b9150819050919050565b600061595c826157e5565b9150819050919050565b60006159718261583f565b9150819050919050565b60006159868261587f565b9150819050919050565b60006020820190506159a56000830184615629565b92915050565b60006020820190506159c06000830184615638565b92915050565b600060208201905081810360008301526159e0818461566c565b905092915050565b60006020820190508181036000830152615a01816156e5565b9050919050565b60006020820190508181036000830152615a2181615725565b9050919050565b60006020820190508181036000830152615a41816157a5565b9050919050565b60006020820190508181036000830152615a61816157ff565b9050919050565b60006020820190508181036000830152615a81816158bf565b9050919050565b6000602082019050615a9d60008301846158ff565b92915050565b600060e082019050615ab8600083018a6158ff565b615ac5602083018961561a565b615ad2604083018861561a565b615adf606083018761561a565b615aec60808301866158ff565b615af960a08301856158ff565b615b0660c0830184615638565b98975050505050505050565b6000604051905081810181811067ffffffffffffffff82111715615b3957615b38615c9d565b5b8060405250919050565b600067ffffffffffffffff821115615b5e57615b5d615c9d565b5b601f19601f8301169050602081019050919050565b600067ffffffffffffffff821115615b8e57615b8d615c9d565b5b601f19601f8301169050602081019050919050565b600081519050919050565b600081905092915050565b600082825260208201905092915050565b600081905092915050565b6000615be082615c31565b9050919050565b6000615bf282615c31565b9050919050565b60008115159050919050565b60007fffffffff0000000000000000000000000000000000000000000000000000000082169050919050565b600073ffffffffffffffffffffffffffffffffffffffff82169050919050565b6000819050919050565b82818337600083830152505050565b60005b83811015615c88578082015181840152602081019050615c6d565b83811115615c97576000848401525b50505050565bfe5b6000601f19601f8301169050919050565b615cb981615bd5565b8114615cc457600080fd5b50565b615cd081615bf9565b8114615cdb57600080fd5b50565b615ce781615c05565b8114615cf257600080fd5b50565b615cfe81615c51565b8114615d0957600080fd5b5056fe456e756d657261626c655365743a20696e646578206f7574206f6620626f756e64734552433732313a207472616e7366657220746f206e6f6e20455243373231526563656976657220696d706c656d656e7465724552433732313a207472616e7366657220746f20746865207a65726f2061646472657373416464726573733a20696e73756666696369656e742062616c616e636520666f722063616c6c4552433732313a206f70657261746f7220717565727920666f72206e6f6e6578697374656e7420746f6b656e4552433732313a20617070726f76652063616c6c6572206973206e6f74206f776e6572206e6f7220617070726f76656420666f7220616c6c4552433732313a2062616c616e636520717565727920666f7220746865207a65726f20616464726573734552433732313a206f776e657220717565727920666f72206e6f6e6578697374656e7420746f6b656e456e756d657261626c654d61703a20696e646578206f7574206f6620626f756e6473536166654d6174683a206d756c7469706c69636174696f6e206f766572666c6f774552433732313a20617070726f76656420717565727920666f72206e6f6e6578697374656e7420746f6b656e4552433732313a207472616e73666572206f6620746f6b656e2074686174206973206e6f74206f776e4552433732314d657461646174613a2055524920717565727920666f72206e6f6e6578697374656e7420746f6b656e4552433732313a20617070726f76616c20746f2063757272656e74206f776e65724552433732313a207472616e736665722063616c6c6572206973206e6f74206f776e6572206e6f7220617070726f766564a26469706673582212209e240d657bc14873625e6e242db37f81962765957c02a4d97641008b0e6bc88f64736f6c63430007060033",
  "immutableReferences": {},
  "source": "// SPDX-License-Identifier: MIT\npragma solidity <0.8.0;\npragma abicoder v2;\n\n// import ERC721 iterface\nimport \"./ERC721.sol\";\n\n// CroSkulls smart contract inherits ERC721 interface\ncontract CroSkulls is ERC721 {\n  using SafeMath for uint256;\n\n  string public collectionName;\n  string public collectionNameSymbol;\n  uint256 public croSkullCounter;\n  uint256 public cost = 1 ether;\n  uint256 public maxSupply = 6666;\n  uint256 public maxMintAmount = 5;\n  uint256 public nftPerAddressLimit = 100;\n  uint256 public rewardPoolsCounter;\n  uint256 public totalRewardPercent;\n  address public owner;\n  address public manager;\n  uint256 public marketplaceFee = 4;\n  //diego\n  uint256 public totalVolume = 0;\n  uint256 public totalCROReward = 0;\n\n  mapping(uint256 => CroSkull) public allCroSkulls;\n  mapping(address => uint256) public addressMintedBalance;\n  mapping(string => bool) public tokenURIExists;\n  mapping(string => bool) public settings;\n  mapping(address => uint256) public rewardableUsers;\n  mapping(address => bool) public whitelist;\n\n  struct CroSkull {\n    uint256 tokenId;\n    address payable mintedBy;\n    address payable currentOwner;\n    address payable previousOwner;\n    uint256 price;\n    uint256 numberOfTransfers;\n    bool forSale;\n  }\n\n  modifier onlyRewardable() {\n    require(rewardableUsers[msg.sender] > 0, \"cannot withdraw\");\n    _;\n  }\n\n  modifier updateRewards( ) {\n    _;\n    if( ! settings['isWhitdraw'] ){\n      totalCROReward = address(this).balance;\n    }\n  }\n\n  modifier isWithdrable() {\n    require(settings['isWithdraw'], \"Withdraw disabled\");\n    _;\n  }\n\n  modifier onlyManager() {\n    if( msg.sender != owner ){\n      require(msg.sender == manager, \"not a manager\");\n    }\n    _;\n  }\n\n  modifier onlyOwner() {\n    require(msg.sender == owner);\n    _;\n  }\n\n  modifier isWhitelisted() {\n    if( settings['isWhitelist'] ){\n      require( whitelist[msg.sender], \" not whitelisted\" );\n    }\n    _;\n  }\n\n  modifier marketplaceEnabled() {\n    require( settings['isMarketplace'], \"Marketplace disabled.\");\n    _;\n  }\n\n  // initialize contract while deployment with contract's collection name and token\n  constructor( bool _isMarketplace, bool _isWhitelist, bool _isWithdraw ) ERC721(\"CROSkull\", \"CRS\") {\n    owner = msg.sender;\n    collectionName = name();\n    collectionNameSymbol = symbol();\n    settings['isMarketplace'] = _isMarketplace;\n    settings['isWhitelist'] = _isWhitelist;\n    settings['isWithdraw'] = _isWithdraw;\n  }\n\n  function setBaseURI( string memory baseURI ) public onlyOwner {\n    _setBaseURI(baseURI);\n  }\n\n  //retunr allowed max supply\n  function getMaxSupply( ) public view returns(uint256){\n    return maxSupply;\n  }\n\n  function getCost() public view returns(uint256){\n    return cost;\n  }\n\n  function addToWhitelist( address _address ) public onlyManager {\n    require( settings['isWhitelist'] );\n    require( ! whitelist[_address]);\n    whitelist[_address] = true;\n  }\n\n  // mint a new crypto boy\n  function mintCroSkull(uint256 _mintAmount ) isWhitelisted updateRewards payable external {\n    require(msg.sender != address(0));\n    require(_mintAmount > 0);\n    require(_mintAmount <= maxMintAmount);\n    require(msg.value >= cost * _mintAmount);\n\n\n    uint256 supply = totalSupply();\n    require(supply + _mintAmount <= maxSupply);\n    \n    totalVolume = totalVolume.add(msg.value);\n    for (uint256 i = 1; i <= _mintAmount; i++) {\n      croSkullCounter++;\n      require(!_exists(croSkullCounter));\n\n      addressMintedBalance[msg.sender]++;\n      _mint(msg.sender, croSkullCounter);\n      CroSkull memory newCroSkull = CroSkull(\n        croSkullCounter,\n        msg.sender,\n        msg.sender,\n        address(0),\n        cost,\n        0,\n        false\n      );\n      allCroSkulls[croSkullCounter] = newCroSkull;\n    }\n    totalVolume = totalVolume.add(msg.value );\n  }\n\n  function getOwner() public view returns(address) {\n    return owner;\n  }\n\n  function getManager() public view returns(address) {\n    return manager;\n  }\n\n  function setManager(address _manager) public onlyOwner() {\n    require(_manager != address(0));\n    require(_manager != manager);\n    manager = _manager;\n  }\n  function getTokenOwner(uint256 _tokenId) public view returns(address) {\n    address _tokenOwner = ownerOf(_tokenId);\n    return _tokenOwner;\n  }\n\n  function getTokenMetaData(uint _tokenId) public view returns(string memory) {\n    string memory tokenMetaData = tokenURI(_tokenId);\n    return tokenMetaData;\n  }\n\n  function getNumberOfTokensMinted() public view returns(uint256) {\n    uint256 totalNumberOfTokensMinted = totalSupply();\n    return totalNumberOfTokensMinted;\n  }\n\n  function getTotalNumberOfTokensOwnedByAnAddress(address _owner) public view returns(uint256) {\n    uint256 totalNumberOfTokensOwned = balanceOf(_owner);\n    return totalNumberOfTokensOwned;\n  }\n  function getTokenExists(uint256 _tokenId) public view returns(bool) {\n    bool tokenExists = _exists(_tokenId);\n    return tokenExists;\n  }\n  function buyToken(uint256 _tokenId) public marketplaceEnabled updateRewards payable {\n    require( settings['isMarketplace']);\n    require(msg.sender != address(0));\n    require(_exists(_tokenId));\n\n    address tokenOwner = ownerOf(_tokenId);\n\n    require(tokenOwner != address(0));\n    require(tokenOwner != msg.sender);\n\n    CroSkull memory croskull = allCroSkulls[_tokenId];\n\n    require(msg.value >= croskull.price);\n    require(croskull.forSale);\n\n    _transfer(tokenOwner, msg.sender, _tokenId);\n    address payable sendTo = croskull.currentOwner;\n    uint256 sellerAmout = msg.value\n      .mul(94)\n      .div(100);\n    sendTo.transfer(sellerAmout);\n    croskull.previousOwner = croskull.currentOwner;\n    croskull.currentOwner = msg.sender;\n    croskull.numberOfTransfers += 1;\n    croskull.forSale = false;\n    allCroSkulls[_tokenId] = croskull;\n    totalVolume = totalVolume.add( msg.value.sub(sellerAmout) );\n  }\n\n  function changeTokenPrice(uint256 _tokenId, uint256 _newPrice) public marketplaceEnabled {\n    require(msg.sender != address(0));\n    require(_exists(_tokenId));\n    address tokenOwner = ownerOf(_tokenId);\n    require(tokenOwner == msg.sender);\n    CroSkull memory croskull = allCroSkulls[_tokenId];\n    croskull.price = _newPrice;\n    allCroSkulls[_tokenId] = croskull;\n  }\n\n  function toggleForSale(uint256 _tokenId) public marketplaceEnabled {\n    require(msg.sender != address(0));\n    require(_exists(_tokenId));\n    address tokenOwner = ownerOf(_tokenId);\n    require(tokenOwner == msg.sender);\n    CroSkull memory croskull = allCroSkulls[_tokenId];\n    if(croskull.forSale) {\n      croskull.forSale = false;\n    } else {\n      croskull.forSale = true;\n    }\n    allCroSkulls[_tokenId] = croskull;\n  }\n\n  function toggleSetting( string calldata _settings) public onlyManager {\n    settings[_settings] = !settings[_settings];\n  }\n\n  function setNftPerAddressLimit(uint256 _limit) public onlyManager {\n    nftPerAddressLimit = _limit;\n  }\n  \n  function setCost(uint256 _newCost) public onlyManager {\n    cost = _newCost;\n  }\n\n  function setmaxMintAmount(uint256 _newmaxMintAmount) public onlyManager {\n    maxMintAmount = _newmaxMintAmount;\n  }\n\n  function addRewardable(address _rewardableAddress, uint256 percent) public onlyOwner {\n    require( rewardableUsers[_rewardableAddress] <= 0 );\n    require( totalRewardPercent + percent <= 1000 );\n    require( percent < 231);\n    rewardableUsers[_rewardableAddress] = percent;\n  }\n\n  function disableReward(address _rewardableAddress) public onlyOwner {\n    _disableReward(_rewardableAddress);\n  }\n\n  function _disableReward(address _rewardableAddress ) internal {\n    uint256 fee = rewardableUsers[_rewardableAddress];\n    require( fee >= 0);\n    require( totalRewardPercent - fee >= 0);\n    rewardableUsers[_rewardableAddress] = 0;\n  }\n\n  function withdrawReward() public payable onlyRewardable isWithdrable {\n    uint256 calculatedReward = getRewardValue();\n    require( calculatedReward <= totalCROReward );\n\n    _disableReward(msg.sender);\n    (bool os, ) = payable(msg.sender).call{value: calculatedReward}(\"\");\n    require(os);\n  }\n\n  function getRewardValue() public view onlyRewardable returns(uint256){\n    uint256 fee = rewardableUsers[msg.sender];\n    require( fee > 0);\n    return totalCROReward\n      .div(1000)\n      .mul(fee);\n  }\n\n  function getRewardFee() public view onlyRewardable returns(uint256){\n    return rewardableUsers[msg.sender];\n  }\n}",
  "sourcePath": "/Users/alessandrodecristofaro/Desktop/DeFi Code/cryptoboys-nft-marketplace/src/contracts/CroSkulls.sol",
  "compiler": {
    "name": "solc",
    "version": "0.7.6+commit.7338295f.Emscripten.clang"
  },
  "schemaVersion": "3.4.3",
  "updatedAt": "2021-12-24T18:12:29.620Z",
  "devdoc": {
    "kind": "dev",
    "methods": {
      "approve(address,uint256)": {
        "details": "See {IERC721-approve}."
      },
      "balanceOf(address)": {
        "details": "See {IERC721-balanceOf}."
      },
      "baseURI()": {
        "details": "Returns the base URI set via {_setBaseURI}. This will be automatically added as a prefix in {tokenURI} to each token's URI, or to the token ID if no specific URI is set for that token ID."
      },
      "getApproved(uint256)": {
        "details": "See {IERC721-getApproved}."
      },
      "isApprovedForAll(address,address)": {
        "details": "See {IERC721-isApprovedForAll}."
      },
      "name()": {
        "details": "See {IERC721Metadata-name}."
      },
      "ownerOf(uint256)": {
        "details": "See {IERC721-ownerOf}."
      },
      "safeTransferFrom(address,address,uint256)": {
        "details": "See {IERC721-safeTransferFrom}."
      },
      "safeTransferFrom(address,address,uint256,bytes)": {
        "details": "See {IERC721-safeTransferFrom}."
      },
      "setApprovalForAll(address,bool)": {
        "details": "See {IERC721-setApprovalForAll}."
      },
      "supportsInterface(bytes4)": {
        "details": "See {IERC165-supportsInterface}. Time complexity O(1), guaranteed to always use less than 30 000 gas."
      },
      "symbol()": {
        "details": "See {IERC721Metadata-symbol}."
      },
      "tokenByIndex(uint256)": {
        "details": "See {IERC721Enumerable-tokenByIndex}."
      },
      "tokenOfOwnerByIndex(address,uint256)": {
        "details": "See {IERC721Enumerable-tokenOfOwnerByIndex}."
      },
      "tokenURI(uint256)": {
        "details": "See {IERC721Metadata-tokenURI}."
      },
      "totalSupply()": {
        "details": "See {IERC721Enumerable-totalSupply}."
      },
      "transferFrom(address,address,uint256)": {
        "details": "See {IERC721-transferFrom}."
      }
    },
    "version": 1
  },
  "userdoc": {
    "kind": "user",
    "methods": {},
    "version": 1
  }
}