{
  "contractName": "CroSkullsRedPotions",
  "abi": [
    {
      "inputs": [],
      "stateMutability": "nonpayable",
      "type": "constructor"
    },
    {
      "anonymous": false,
      "inputs": [
        {
          "indexed": true,
          "internalType": "address",
          "name": "owner",
          "type": "address"
        },
        {
          "indexed": true,
          "internalType": "address",
          "name": "approved",
          "type": "address"
        },
        {
          "indexed": true,
          "internalType": "uint256",
          "name": "tokenId",
          "type": "uint256"
        }
      ],
      "name": "Approval",
      "type": "event"
    },
    {
      "anonymous": false,
      "inputs": [
        {
          "indexed": true,
          "internalType": "address",
          "name": "owner",
          "type": "address"
        },
        {
          "indexed": true,
          "internalType": "address",
          "name": "operator",
          "type": "address"
        },
        {
          "indexed": false,
          "internalType": "bool",
          "name": "approved",
          "type": "bool"
        }
      ],
      "name": "ApprovalForAll",
      "type": "event"
    },
    {
      "anonymous": false,
      "inputs": [
        {
          "indexed": true,
          "internalType": "address",
          "name": "from",
          "type": "address"
        },
        {
          "indexed": true,
          "internalType": "address",
          "name": "to",
          "type": "address"
        },
        {
          "indexed": true,
          "internalType": "uint256",
          "name": "tokenId",
          "type": "uint256"
        }
      ],
      "name": "Transfer",
      "type": "event"
    },
    {
      "inputs": [
        {
          "internalType": "address",
          "name": "to",
          "type": "address"
        },
        {
          "internalType": "uint256",
          "name": "tokenId",
          "type": "uint256"
        }
      ],
      "name": "approve",
      "outputs": [],
      "stateMutability": "nonpayable",
      "type": "function"
    },
    {
      "inputs": [
        {
          "internalType": "address",
          "name": "owner",
          "type": "address"
        }
      ],
      "name": "balanceOf",
      "outputs": [
        {
          "internalType": "uint256",
          "name": "",
          "type": "uint256"
        }
      ],
      "stateMutability": "view",
      "type": "function"
    },
    {
      "inputs": [],
      "name": "baseURI",
      "outputs": [
        {
          "internalType": "string",
          "name": "",
          "type": "string"
        }
      ],
      "stateMutability": "view",
      "type": "function"
    },
    {
      "inputs": [],
      "name": "collectionName",
      "outputs": [
        {
          "internalType": "string",
          "name": "",
          "type": "string"
        }
      ],
      "stateMutability": "view",
      "type": "function"
    },
    {
      "inputs": [],
      "name": "collectionNameSymbol",
      "outputs": [
        {
          "internalType": "string",
          "name": "",
          "type": "string"
        }
      ],
      "stateMutability": "view",
      "type": "function"
    },
    {
      "inputs": [
        {
          "internalType": "uint256",
          "name": "tokenId",
          "type": "uint256"
        }
      ],
      "name": "getApproved",
      "outputs": [
        {
          "internalType": "address",
          "name": "",
          "type": "address"
        }
      ],
      "stateMutability": "view",
      "type": "function"
    },
    {
      "inputs": [
        {
          "internalType": "address",
          "name": "owner",
          "type": "address"
        },
        {
          "internalType": "address",
          "name": "operator",
          "type": "address"
        }
      ],
      "name": "isApprovedForAll",
      "outputs": [
        {
          "internalType": "bool",
          "name": "",
          "type": "bool"
        }
      ],
      "stateMutability": "view",
      "type": "function"
    },
    {
      "inputs": [],
      "name": "name",
      "outputs": [
        {
          "internalType": "string",
          "name": "",
          "type": "string"
        }
      ],
      "stateMutability": "view",
      "type": "function"
    },
    {
      "inputs": [],
      "name": "owner",
      "outputs": [
        {
          "internalType": "address",
          "name": "",
          "type": "address"
        }
      ],
      "stateMutability": "view",
      "type": "function"
    },
    {
      "inputs": [
        {
          "internalType": "uint256",
          "name": "tokenId",
          "type": "uint256"
        }
      ],
      "name": "ownerOf",
      "outputs": [
        {
          "internalType": "address",
          "name": "",
          "type": "address"
        }
      ],
      "stateMutability": "view",
      "type": "function"
    },
    {
      "inputs": [],
      "name": "potionsCounter",
      "outputs": [
        {
          "internalType": "uint256",
          "name": "",
          "type": "uint256"
        }
      ],
      "stateMutability": "view",
      "type": "function"
    },
    {
      "inputs": [
        {
          "internalType": "address",
          "name": "from",
          "type": "address"
        },
        {
          "internalType": "address",
          "name": "to",
          "type": "address"
        },
        {
          "internalType": "uint256",
          "name": "tokenId",
          "type": "uint256"
        }
      ],
      "name": "safeTransferFrom",
      "outputs": [],
      "stateMutability": "nonpayable",
      "type": "function"
    },
    {
      "inputs": [
        {
          "internalType": "address",
          "name": "from",
          "type": "address"
        },
        {
          "internalType": "address",
          "name": "to",
          "type": "address"
        },
        {
          "internalType": "uint256",
          "name": "tokenId",
          "type": "uint256"
        },
        {
          "internalType": "bytes",
          "name": "_data",
          "type": "bytes"
        }
      ],
      "name": "safeTransferFrom",
      "outputs": [],
      "stateMutability": "nonpayable",
      "type": "function"
    },
    {
      "inputs": [
        {
          "internalType": "address",
          "name": "operator",
          "type": "address"
        },
        {
          "internalType": "bool",
          "name": "approved",
          "type": "bool"
        }
      ],
      "name": "setApprovalForAll",
      "outputs": [],
      "stateMutability": "nonpayable",
      "type": "function"
    },
    {
      "inputs": [
        {
          "internalType": "bytes4",
          "name": "interfaceId",
          "type": "bytes4"
        }
      ],
      "name": "supportsInterface",
      "outputs": [
        {
          "internalType": "bool",
          "name": "",
          "type": "bool"
        }
      ],
      "stateMutability": "view",
      "type": "function"
    },
    {
      "inputs": [],
      "name": "symbol",
      "outputs": [
        {
          "internalType": "string",
          "name": "",
          "type": "string"
        }
      ],
      "stateMutability": "view",
      "type": "function"
    },
    {
      "inputs": [
        {
          "internalType": "uint256",
          "name": "index",
          "type": "uint256"
        }
      ],
      "name": "tokenByIndex",
      "outputs": [
        {
          "internalType": "uint256",
          "name": "",
          "type": "uint256"
        }
      ],
      "stateMutability": "view",
      "type": "function"
    },
    {
      "inputs": [
        {
          "internalType": "address",
          "name": "owner",
          "type": "address"
        },
        {
          "internalType": "uint256",
          "name": "index",
          "type": "uint256"
        }
      ],
      "name": "tokenOfOwnerByIndex",
      "outputs": [
        {
          "internalType": "uint256",
          "name": "",
          "type": "uint256"
        }
      ],
      "stateMutability": "view",
      "type": "function"
    },
    {
      "inputs": [
        {
          "internalType": "uint256",
          "name": "tokenId",
          "type": "uint256"
        }
      ],
      "name": "tokenURI",
      "outputs": [
        {
          "internalType": "string",
          "name": "",
          "type": "string"
        }
      ],
      "stateMutability": "view",
      "type": "function"
    },
    {
      "inputs": [],
      "name": "totalSupply",
      "outputs": [
        {
          "internalType": "uint256",
          "name": "",
          "type": "uint256"
        }
      ],
      "stateMutability": "view",
      "type": "function"
    },
    {
      "inputs": [
        {
          "internalType": "address",
          "name": "from",
          "type": "address"
        },
        {
          "internalType": "address",
          "name": "to",
          "type": "address"
        },
        {
          "internalType": "uint256",
          "name": "tokenId",
          "type": "uint256"
        }
      ],
      "name": "transferFrom",
      "outputs": [],
      "stateMutability": "nonpayable",
      "type": "function"
    },
    {
      "inputs": [
        {
          "internalType": "string",
          "name": "baseURI",
          "type": "string"
        }
      ],
      "name": "setBaseURI",
      "outputs": [],
      "stateMutability": "nonpayable",
      "type": "function"
    },
    {
      "inputs": [
        {
          "internalType": "address[]",
          "name": "_to",
          "type": "address[]"
        }
      ],
      "name": "adminMintCroSkull",
      "outputs": [],
      "stateMutability": "nonpayable",
      "type": "function"
    },
    {
      "inputs": [],
      "name": "getOwner",
      "outputs": [
        {
          "internalType": "address",
          "name": "",
          "type": "address"
        }
      ],
      "stateMutability": "view",
      "type": "function"
    },
    {
      "inputs": [
        {
          "internalType": "uint256",
          "name": "_tokenId",
          "type": "uint256"
        }
      ],
      "name": "getTokenOwner",
      "outputs": [
        {
          "internalType": "address",
          "name": "",
          "type": "address"
        }
      ],
      "stateMutability": "view",
      "type": "function"
    },
    {
      "inputs": [
        {
          "internalType": "uint256",
          "name": "_tokenId",
          "type": "uint256"
        }
      ],
      "name": "getTokenMetaData",
      "outputs": [
        {
          "internalType": "string",
          "name": "",
          "type": "string"
        }
      ],
      "stateMutability": "view",
      "type": "function"
    },
    {
      "inputs": [],
      "name": "getNumberOfTokensMinted",
      "outputs": [
        {
          "internalType": "uint256",
          "name": "",
          "type": "uint256"
        }
      ],
      "stateMutability": "view",
      "type": "function"
    },
    {
      "inputs": [
        {
          "internalType": "address",
          "name": "_owner",
          "type": "address"
        }
      ],
      "name": "getTotalNumberOfTokensOwnedByAnAddress",
      "outputs": [
        {
          "internalType": "uint256",
          "name": "",
          "type": "uint256"
        }
      ],
      "stateMutability": "view",
      "type": "function"
    },
    {
      "inputs": [
        {
          "internalType": "uint256",
          "name": "_tokenId",
          "type": "uint256"
        }
      ],
      "name": "getTokenExists",
      "outputs": [
        {
          "internalType": "bool",
          "name": "",
          "type": "bool"
        }
      ],
      "stateMutability": "view",
      "type": "function"
    }
  ],
  "bytecode": "0x60806040523480156200001157600080fd5b506040518060400160405280601381526020017f43726f536b756c6c73526564506f74696f6e73000000000000000000000000008152506040518060400160405280600481526020017f4353525000000000000000000000000000000000000000000000000000000000815250620000966301ffc9a760e01b620001a960201b60201c565b8160069080519060200190620000ae929190620003b5565b508060079080519060200190620000c7929190620003b5565b50620000e06380ac58cd60e01b620001a960201b60201c565b620000f8635b5e139f60e01b620001a960201b60201c565b6200011063780e9d6360e01b620001a960201b60201c565b505033600d60006101000a81548173ffffffffffffffffffffffffffffffffffffffff021916908373ffffffffffffffffffffffffffffffffffffffff160217905550620001636200028160201b60201c565b600a90805190602001906200017a929190620003b5565b506200018b6200031b60201b60201c565b600b9080519060200190620001a2929190620003b5565b506200053f565b63ffffffff60e01b817bffffffffffffffffffffffffffffffffffffffffffffffffffffffff1916141562000215576040517f08c379a00000000000000000000000000000000000000000000000000000000081526004016200020c90620004a7565b60405180910390fd5b6001600080837bffffffffffffffffffffffffffffffffffffffffffffffffffffffff19167bffffffffffffffffffffffffffffffffffffffffffffffffffffffff1916815260200190815260200160002060006101000a81548160ff02191690831515021790555050565b6060600680546200029290620004da565b80601f0160208091040260200160405190810160405280929190818152602001828054620002c090620004da565b8015620003115780601f10620002e55761010080835404028352916020019162000311565b820191906000526020600020905b815481529060010190602001808311620002f357829003601f168201915b5050505050905090565b6060600780546200032c90620004da565b80601f01602080910402602001604051908101604052809291908181526020018280546200035a90620004da565b8015620003ab5780601f106200037f57610100808354040283529160200191620003ab565b820191906000526020600020905b8154815290600101906020018083116200038d57829003601f168201915b5050505050905090565b828054620003c390620004da565b90600052602060002090601f016020900481019282620003e7576000855562000433565b82601f106200040257805160ff191683800117855562000433565b8280016001018555821562000433579182015b828111156200043257825182559160200191906001019062000415565b5b50905062000442919062000446565b5090565b5b808211156200046157600081600090555060010162000447565b5090565b600062000474601c83620004c9565b91507f4552433136353a20696e76616c696420696e74657266616365206964000000006000830152602082019050919050565b60006020820190508181036000830152620004c28162000465565b9050919050565b600082825260208201905092915050565b60006002820490506001821680620004f357607f821691505b602082108114156200050a576200050962000510565b5b50919050565b7f4e487b7100000000000000000000000000000000000000000000000000000000600052602260045260246000fd5b61389e806200054f6000396000f3fe608060405234801561001057600080fd5b50600436106101cf5760003560e01c80636c0360eb11610104578063a22cb465116100a2578063c87b56dd11610071578063c87b56dd14610568578063cc151f3a14610598578063e5326ab1146105b6578063e985e9c5146105d4576101cf565b8063a22cb465146104e4578063a4674cbc14610500578063a5cd761f1461051c578063b88d4fde1461054c576101cf565b806387310f62116100de57806387310f621461046c578063893d20e81461048a5780638da5cb5b146104a857806395d89b41146104c6576101cf565b80636c0360eb146104005780636f9507f91461041e57806370a082311461043c576101cf565b80632f745c59116101715780634f6ccce71161014b5780634f6ccce71461035457806355f804b3146103845780636352211e146103a057806367c623cf146103d0576101cf565b80632f745c59146102d857806342842e0e146103085780634390285014610324576101cf565b8063095ea7b3116101ad578063095ea7b314610252578063142687f31461026e57806318160ddd1461029e57806323b872dd146102bc576101cf565b806301ffc9a7146101d457806306fdde0314610204578063081812fc14610222575b600080fd5b6101ee60048036038101906101e9919061288d565b610604565b6040516101fb919061311a565b60405180910390f35b61020c61066b565b6040516102199190613135565b60405180910390f35b61023c60048036038101906102379190612920565b6106fd565b60405161024991906130b3565b60405180910390f35b61026c60048036038101906102679190612810565b610782565b005b61028860048036038101906102839190612920565b61089a565b604051610295919061311a565b60405180910390f35b6102a66108b1565b6040516102b39190613377565b60405180910390f35b6102d660048036038101906102d1919061270a565b6108c2565b005b6102f260048036038101906102ed9190612810565b610922565b6040516102ff9190613377565b60405180910390f35b610322600480360381019061031d919061270a565b61097d565b005b61033e600480360381019061033991906126a5565b61099d565b60405161034b9190613377565b60405180910390f35b61036e60048036038101906103699190612920565b6109b4565b60405161037b9190613377565b60405180910390f35b61039e600480360381019061039991906128df565b6109d7565b005b6103ba60048036038101906103b59190612920565b610a3d565b6040516103c791906130b3565b60405180910390f35b6103ea60048036038101906103e59190612920565b610a74565b6040516103f79190613135565b60405180910390f35b610408610a8c565b6040516104159190613135565b60405180910390f35b610426610b1e565b6040516104339190613135565b60405180910390f35b610456600480360381019061045191906126a5565b610bac565b6040516104639190613377565b60405180910390f35b610474610c6b565b6040516104819190613377565b60405180910390f35b610492610c71565b60405161049f91906130b3565b60405180910390f35b6104b0610c9b565b6040516104bd91906130b3565b60405180910390f35b6104ce610cc1565b6040516104db9190613135565b60405180910390f35b6104fe60048036038101906104f991906127d4565b610d53565b005b61051a6004803603810190610515919061284c565b610ed4565b005b61053660048036038101906105319190612920565b610fd5565b60405161054391906130b3565b60405180910390f35b61056660048036038101906105619190612759565b610fec565b005b610582600480360381019061057d9190612920565b61104e565b60405161058f9190613135565b60405180910390f35b6105a06111c1565b6040516105ad9190613377565b60405180910390f35b6105be6111d5565b6040516105cb9190613135565b60405180910390f35b6105ee60048036038101906105e991906126ce565b611263565b6040516105fb919061311a565b60405180910390f35b6000806000837bffffffffffffffffffffffffffffffffffffffffffffffffffffffff19167bffffffffffffffffffffffffffffffffffffffffffffffffffffffff1916815260200190815260200160002060009054906101000a900460ff169050919050565b60606006805461067a90613638565b80601f01602080910402602001604051908101604052809291908181526020018280546106a690613638565b80156106f35780601f106106c8576101008083540402835291602001916106f3565b820191906000526020600020905b8154815290600101906020018083116106d657829003601f168201915b5050505050905090565b6000610708826112f7565b610747576040517f08c379a000000000000000000000000000000000000000000000000000000000815260040161073e906132b7565b60405180910390fd5b6004600083815260200190815260200160002060009054906101000a900473ffffffffffffffffffffffffffffffffffffffff169050919050565b600061078d82610a3d565b90508073ffffffffffffffffffffffffffffffffffffffff168373ffffffffffffffffffffffffffffffffffffffff1614156107fe576040517f08c379a00000000000000000000000000000000000000000000000000000000081526004016107f590613317565b60405180910390fd5b8073ffffffffffffffffffffffffffffffffffffffff1661081d611314565b73ffffffffffffffffffffffffffffffffffffffff16148061084c575061084b81610846611314565b611263565b5b61088b576040517f08c379a000000000000000000000000000000000000000000000000000000000815260040161088290613237565b60405180910390fd5b610895838361131c565b505050565b6000806108a6836112f7565b905080915050919050565b60006108bd60026113d5565b905090565b6108d36108cd611314565b826113ea565b610912576040517f08c379a000000000000000000000000000000000000000000000000000000000815260040161090990613337565b60405180910390fd5b61091d8383836114c8565b505050565b600061097582600160008673ffffffffffffffffffffffffffffffffffffffff1673ffffffffffffffffffffffffffffffffffffffff1681526020019081526020016000206116df90919063ffffffff16565b905092915050565b61099883838360405180602001604052806000815250610fec565b505050565b6000806109a983610bac565b905080915050919050565b6000806109cb8360026116f990919063ffffffff16565b50905080915050919050565b600d60009054906101000a900473ffffffffffffffffffffffffffffffffffffffff1673ffffffffffffffffffffffffffffffffffffffff163373ffffffffffffffffffffffffffffffffffffffff1614610a3157600080fd5b610a3a81611725565b50565b6000610a6d8260405180606001604052806029815260200161384060299139600261173f9092919063ffffffff16565b9050919050565b60606000610a818361104e565b905080915050919050565b606060098054610a9b90613638565b80601f0160208091040260200160405190810160405280929190818152602001828054610ac790613638565b8015610b145780601f10610ae957610100808354040283529160200191610b14565b820191906000526020600020905b815481529060010190602001808311610af757829003601f168201915b5050505050905090565b600b8054610b2b90613638565b80601f0160208091040260200160405190810160405280929190818152602001828054610b5790613638565b8015610ba45780601f10610b7957610100808354040283529160200191610ba4565b820191906000526020600020905b815481529060010190602001808311610b8757829003601f168201915b505050505081565b60008073ffffffffffffffffffffffffffffffffffffffff168273ffffffffffffffffffffffffffffffffffffffff161415610c1d576040517f08c379a0000000000000000000000000000000000000000000000000000000008152600401610c1490613257565b60405180910390fd5b610c64600160008473ffffffffffffffffffffffffffffffffffffffff1673ffffffffffffffffffffffffffffffffffffffff16815260200190815260200160002061175e565b9050919050565b600c5481565b6000600d60009054906101000a900473ffffffffffffffffffffffffffffffffffffffff16905090565b600d60009054906101000a900473ffffffffffffffffffffffffffffffffffffffff1681565b606060078054610cd090613638565b80601f0160208091040260200160405190810160405280929190818152602001828054610cfc90613638565b8015610d495780601f10610d1e57610100808354040283529160200191610d49565b820191906000526020600020905b815481529060010190602001808311610d2c57829003601f168201915b5050505050905090565b610d5b611314565b73ffffffffffffffffffffffffffffffffffffffff168273ffffffffffffffffffffffffffffffffffffffff161415610dc9576040517f08c379a0000000000000000000000000000000000000000000000000000000008152600401610dc0906131d7565b60405180910390fd5b8060056000610dd6611314565b73ffffffffffffffffffffffffffffffffffffffff1673ffffffffffffffffffffffffffffffffffffffff16815260200190815260200160002060008473ffffffffffffffffffffffffffffffffffffffff1673ffffffffffffffffffffffffffffffffffffffff16815260200190815260200160002060006101000a81548160ff0219169083151502179055508173ffffffffffffffffffffffffffffffffffffffff16610e83611314565b73ffffffffffffffffffffffffffffffffffffffff167f17307eab39ab6107e8899845ad3d59bd9653f200f220920489ca2b5937696c3183604051610ec8919061311a565b60405180910390a35050565b600d60009054906101000a900473ffffffffffffffffffffffffffffffffffffffff1673ffffffffffffffffffffffffffffffffffffffff163373ffffffffffffffffffffffffffffffffffffffff1614610f2e57600080fd5b60005b60018251610f3f9190613524565b8111610fd157600c6000815480929190610f589061366a565b9190505550610f68600c546112f7565b15610f7257600080fd5b610fbe828281518110610fae577f4e487b7100000000000000000000000000000000000000000000000000000000600052603260045260246000fd5b6020026020010151600c54611773565b8080610fc99061366a565b915050610f31565b5050565b600080610fe183610a3d565b905080915050919050565b610ffd610ff7611314565b836113ea565b61103c576040517f08c379a000000000000000000000000000000000000000000000000000000000815260040161103390613337565b60405180910390fd5b61104884848484611901565b50505050565b6060611059826112f7565b611098576040517f08c379a000000000000000000000000000000000000000000000000000000000815260040161108f906132f7565b60405180910390fd5b60006008600084815260200190815260200160002080546110b890613638565b80601f01602080910402602001604051908101604052809291908181526020018280546110e490613638565b80156111315780601f1061110657610100808354040283529160200191611131565b820191906000526020600020905b81548152906001019060200180831161111457829003601f168201915b505050505090506000611142610a8c565b90506000815114156111585781925050506111bc565b60008251111561118d57808260405160200161117592919061308f565b604051602081830303815290604052925050506111bc565b806111978561195d565b6040516020016111a892919061308f565b604051602081830303815290604052925050505b919050565b6000806111cc6108b1565b90508091505090565b600a80546111e290613638565b80601f016020809104026020016040519081016040528092919081815260200182805461120e90613638565b801561125b5780601f106112305761010080835404028352916020019161125b565b820191906000526020600020905b81548152906001019060200180831161123e57829003601f168201915b505050505081565b6000600560008473ffffffffffffffffffffffffffffffffffffffff1673ffffffffffffffffffffffffffffffffffffffff16815260200190815260200160002060008373ffffffffffffffffffffffffffffffffffffffff1673ffffffffffffffffffffffffffffffffffffffff16815260200190815260200160002060009054906101000a900460ff16905092915050565b600061130d826002611b1c90919063ffffffff16565b9050919050565b600033905090565b816004600083815260200190815260200160002060006101000a81548173ffffffffffffffffffffffffffffffffffffffff021916908373ffffffffffffffffffffffffffffffffffffffff160217905550808273ffffffffffffffffffffffffffffffffffffffff1661138f83610a3d565b73ffffffffffffffffffffffffffffffffffffffff167f8c5be1e5ebec7d5bd14f71427d1e84f3dd0314c0f7b2291e5b200ac8c7c3b92560405160405180910390a45050565b60006113e382600001611b36565b9050919050565b60006113f5826112f7565b611434576040517f08c379a000000000000000000000000000000000000000000000000000000000815260040161142b90613217565b60405180910390fd5b600061143f83610a3d565b90508073ffffffffffffffffffffffffffffffffffffffff168473ffffffffffffffffffffffffffffffffffffffff1614806114ae57508373ffffffffffffffffffffffffffffffffffffffff16611496846106fd565b73ffffffffffffffffffffffffffffffffffffffff16145b806114bf57506114be8185611263565b5b91505092915050565b8273ffffffffffffffffffffffffffffffffffffffff166114e882610a3d565b73ffffffffffffffffffffffffffffffffffffffff161461153e576040517f08c379a0000000000000000000000000000000000000000000000000000000008152600401611535906132d7565b60405180910390fd5b600073ffffffffffffffffffffffffffffffffffffffff168273ffffffffffffffffffffffffffffffffffffffff1614156115ae576040517f08c379a00000000000000000000000000000000000000000000000000000000081526004016115a5906131b7565b60405180910390fd5b6115b9838383611b47565b6115c460008261131c565b61161581600160008673ffffffffffffffffffffffffffffffffffffffff1673ffffffffffffffffffffffffffffffffffffffff168152602001908152602001600020611b4c90919063ffffffff16565b5061166781600160008573ffffffffffffffffffffffffffffffffffffffff1673ffffffffffffffffffffffffffffffffffffffff168152602001908152602001600020611b6690919063ffffffff16565b5061167e81836002611b809092919063ffffffff16565b50808273ffffffffffffffffffffffffffffffffffffffff168473ffffffffffffffffffffffffffffffffffffffff167fddf252ad1be2c89b69c2b068fc378daa952ba7f163c4a11628f55a4df523b3ef60405160405180910390a4505050565b60006116ee8360000183611bb5565b60001c905092915050565b60008060008061170c8660000186611c4f565b915091508160001c8160001c9350935050509250929050565b806009908051906020019061173b929190612433565b5050565b6000611752846000018460001b84611cff565b60001c90509392505050565b600061176c82600001611dc6565b9050919050565b600073ffffffffffffffffffffffffffffffffffffffff168273ffffffffffffffffffffffffffffffffffffffff1614156117e3576040517f08c379a00000000000000000000000000000000000000000000000000000000081526004016117da90613297565b60405180910390fd5b6117ec816112f7565b1561182c576040517f08c379a000000000000000000000000000000000000000000000000000000000815260040161182390613197565b60405180910390fd5b61183860008383611b47565b61188981600160008573ffffffffffffffffffffffffffffffffffffffff1673ffffffffffffffffffffffffffffffffffffffff168152602001908152602001600020611b6690919063ffffffff16565b506118a081836002611b809092919063ffffffff16565b50808273ffffffffffffffffffffffffffffffffffffffff16600073ffffffffffffffffffffffffffffffffffffffff167fddf252ad1be2c89b69c2b068fc378daa952ba7f163c4a11628f55a4df523b3ef60405160405180910390a45050565b61190c8484846114c8565b61191884848484611dd7565b611957576040517f08c379a000000000000000000000000000000000000000000000000000000000815260040161194e90613177565b60405180910390fd5b50505050565b606060008214156119a5576040518060400160405280600181526020017f30000000000000000000000000000000000000000000000000000000000000008152509050611b17565b600082905060005b600082146119d75780806119c09061366a565b915050600a826119d091906134f3565b91506119ad565b60008167ffffffffffffffff811115611a19577f4e487b7100000000000000000000000000000000000000000000000000000000600052604160045260246000fd5b6040519080825280601f01601f191660200182016040528015611a4b5781602001600182028036833780820191505090505b5090506000600183611a5d9190613524565b90508593505b60008414611b0f57600a84611a7891906136b3565b6030611a84919061349d565b60f81b828280611a939061360e565b935081518110611acc577f4e487b7100000000000000000000000000000000000000000000000000000000600052603260045260246000fd5b60200101907effffffffffffffffffffffffffffffffffffffffffffffffffffffffffffff1916908160001a905350600a84611b0891906134f3565b9350611a63565b819450505050505b919050565b6000611b2e836000018360001b611f3b565b905092915050565b600081600001805490509050919050565b505050565b6000611b5e836000018360001b611f5e565b905092915050565b6000611b78836000018360001b6120e8565b905092915050565b6000611bac846000018460001b8473ffffffffffffffffffffffffffffffffffffffff1660001b612158565b90509392505050565b600081836000018054905011611c00576040517f08c379a0000000000000000000000000000000000000000000000000000000008152600401611bf790613157565b60405180910390fd5b826000018281548110611c3c577f4e487b7100000000000000000000000000000000000000000000000000000000600052603260045260246000fd5b9060005260206000200154905092915050565b60008082846000018054905011611c9b576040517f08c379a0000000000000000000000000000000000000000000000000000000008152600401611c9290613277565b60405180910390fd5b6000846000018481548110611cd9577f4e487b7100000000000000000000000000000000000000000000000000000000600052603260045260246000fd5b906000526020600020906002020190508060000154816001015492509250509250929050565b60008084600101600085815260200190815260200160002054905060008114158390611d61576040517f08c379a0000000000000000000000000000000000000000000000000000000008152600401611d589190613135565b60405180910390fd5b5084600001600182611d739190613524565b81548110611daa577f4e487b7100000000000000000000000000000000000000000000000000000000600052603260045260246000fd5b9060005260206000209060020201600101549150509392505050565b600081600001805490509050919050565b6000611df88473ffffffffffffffffffffffffffffffffffffffff1661226a565b611e055760019050611f33565b6000611ecc63150b7a0260e01b611e1a611314565b888787604051602401611e3094939291906130ce565b604051602081830303815290604052907bffffffffffffffffffffffffffffffffffffffffffffffffffffffff19166020820180517bffffffffffffffffffffffffffffffffffffffffffffffffffffffff838183161783525050505060405180606001604052806032815260200161380e603291398773ffffffffffffffffffffffffffffffffffffffff1661227d9092919063ffffffff16565b9050600081806020019051810190611ee491906128b6565b905063150b7a0260e01b7bffffffffffffffffffffffffffffffffffffffffffffffffffffffff1916817bffffffffffffffffffffffffffffffffffffffffffffffffffffffff191614925050505b949350505050565b600080836001016000848152602001908152602001600020541415905092915050565b600080836001016000848152602001908152602001600020549050600081146120dc576000600182611f909190613524565b9050600060018660000180549050611fa89190613524565b90506000866000018281548110611fe8577f4e487b7100000000000000000000000000000000000000000000000000000000600052603260045260246000fd5b9060005260206000200154905080876000018481548110612032577f4e487b7100000000000000000000000000000000000000000000000000000000600052603260045260246000fd5b906000526020600020018190555060018361204d919061349d565b87600101600083815260200190815260200160002081905550866000018054806120a0577f4e487b7100000000000000000000000000000000000000000000000000000000600052603160045260246000fd5b600190038181906000526020600020016000905590558660010160008781526020019081526020016000206000905560019450505050506120e2565b60009150505b92915050565b60006120f48383612295565b61214d578260000182908060018154018082558091505060019003906000526020600020016000909190919091505582600001805490508360010160008481526020019081526020016000208190555060019050612152565b600090505b92915050565b60008084600101600085815260200190815260200160002054905060008114156121ff57846000016040518060400160405280868152602001858152509080600181540180825580915050600190039060005260206000209060020201600090919091909150600082015181600001556020820151816001015550508460000180549050856001016000868152602001908152602001600020819055506001915050612263565b82856000016001836122119190613524565b81548110612248577f4e487b7100000000000000000000000000000000000000000000000000000000600052603260045260246000fd5b90600052602060002090600202016001018190555060009150505b9392505050565b600080823b905060008111915050919050565b606061228c84846000856122b8565b90509392505050565b600080836001016000848152602001908152602001600020541415905092915050565b6060824710156122fd576040517f08c379a00000000000000000000000000000000000000000000000000000000081526004016122f4906131f7565b60405180910390fd5b6123068561226a565b612345576040517f08c379a000000000000000000000000000000000000000000000000000000000815260040161233c90613357565b60405180910390fd5b6000808673ffffffffffffffffffffffffffffffffffffffff16858760405161236e9190613078565b60006040518083038185875af1925050503d80600081146123ab576040519150601f19603f3d011682016040523d82523d6000602084013e6123b0565b606091505b50915091506123c08282866123cc565b92505050949350505050565b606083156123dc5782905061242c565b6000835111156123ef5782518084602001fd5b816040517f08c379a00000000000000000000000000000000000000000000000000000000081526004016124239190613135565b60405180910390fd5b9392505050565b82805461243f90613638565b90600052602060002090601f01602090048101928261246157600085556124a8565b82601f1061247a57805160ff19168380011785556124a8565b828001600101855582156124a8579182015b828111156124a757825182559160200191906001019061248c565b5b5090506124b591906124b9565b5090565b5b808211156124d25760008160009055506001016124ba565b5090565b60006124e96124e4846133c3565b613392565b9050808382526020820190508285602086028201111561250857600080fd5b60005b85811015612538578161251e88826125be565b84526020840193506020830192505060018101905061250b565b5050509392505050565b6000612555612550846133ef565b613392565b90508281526020810184848401111561256d57600080fd5b6125788482856135cc565b509392505050565b600061259361258e8461341f565b613392565b9050828152602081018484840111156125ab57600080fd5b6125b68482856135cc565b509392505050565b6000813590506125cd816137b1565b92915050565b600082601f8301126125e457600080fd5b81356125f48482602086016124d6565b91505092915050565b60008135905061260c816137c8565b92915050565b600081359050612621816137df565b92915050565b600081519050612636816137df565b92915050565b600082601f83011261264d57600080fd5b813561265d848260208601612542565b91505092915050565b600082601f83011261267757600080fd5b8135612687848260208601612580565b91505092915050565b60008135905061269f816137f6565b92915050565b6000602082840312156126b757600080fd5b60006126c5848285016125be565b91505092915050565b600080604083850312156126e157600080fd5b60006126ef858286016125be565b9250506020612700858286016125be565b9150509250929050565b60008060006060848603121561271f57600080fd5b600061272d868287016125be565b935050602061273e868287016125be565b925050604061274f86828701612690565b9150509250925092565b6000806000806080858703121561276f57600080fd5b600061277d878288016125be565b945050602061278e878288016125be565b935050604061279f87828801612690565b925050606085013567ffffffffffffffff8111156127bc57600080fd5b6127c88782880161263c565b91505092959194509250565b600080604083850312156127e757600080fd5b60006127f5858286016125be565b9250506020612806858286016125fd565b9150509250929050565b6000806040838503121561282357600080fd5b6000612831858286016125be565b925050602061284285828601612690565b9150509250929050565b60006020828403121561285e57600080fd5b600082013567ffffffffffffffff81111561287857600080fd5b612884848285016125d3565b91505092915050565b60006020828403121561289f57600080fd5b60006128ad84828501612612565b91505092915050565b6000602082840312156128c857600080fd5b60006128d684828501612627565b91505092915050565b6000602082840312156128f157600080fd5b600082013567ffffffffffffffff81111561290b57600080fd5b61291784828501612666565b91505092915050565b60006020828403121561293257600080fd5b600061294084828501612690565b91505092915050565b61295281613558565b82525050565b6129618161356a565b82525050565b60006129728261344f565b61297c8185613465565b935061298c8185602086016135db565b612995816137a0565b840191505092915050565b60006129ab8261344f565b6129b58185613476565b93506129c58185602086016135db565b80840191505092915050565b60006129dc8261345a565b6129e68185613481565b93506129f68185602086016135db565b6129ff816137a0565b840191505092915050565b6000612a158261345a565b612a1f8185613492565b9350612a2f8185602086016135db565b80840191505092915050565b6000612a48602283613481565b91507f456e756d657261626c655365743a20696e646578206f7574206f6620626f756e60008301527f64730000000000000000000000000000000000000000000000000000000000006020830152604082019050919050565b6000612aae603283613481565b91507f4552433732313a207472616e7366657220746f206e6f6e20455243373231526560008301527f63656976657220696d706c656d656e74657200000000000000000000000000006020830152604082019050919050565b6000612b14601c83613481565b91507f4552433732313a20746f6b656e20616c7265616479206d696e746564000000006000830152602082019050919050565b6000612b54602483613481565b91507f4552433732313a207472616e7366657220746f20746865207a65726f2061646460008301527f72657373000000000000000000000000000000000000000000000000000000006020830152604082019050919050565b6000612bba601983613481565b91507f4552433732313a20617070726f766520746f2063616c6c6572000000000000006000830152602082019050919050565b6000612bfa602683613481565b91507f416464726573733a20696e73756666696369656e742062616c616e636520666f60008301527f722063616c6c00000000000000000000000000000000000000000000000000006020830152604082019050919050565b6000612c60602c83613481565b91507f4552433732313a206f70657261746f7220717565727920666f72206e6f6e657860008301527f697374656e7420746f6b656e00000000000000000000000000000000000000006020830152604082019050919050565b6000612cc6603883613481565b91507f4552433732313a20617070726f76652063616c6c6572206973206e6f74206f7760008301527f6e6572206e6f7220617070726f76656420666f7220616c6c00000000000000006020830152604082019050919050565b6000612d2c602a83613481565b91507f4552433732313a2062616c616e636520717565727920666f7220746865207a6560008301527f726f2061646472657373000000000000000000000000000000000000000000006020830152604082019050919050565b6000612d92602283613481565b91507f456e756d657261626c654d61703a20696e646578206f7574206f6620626f756e60008301527f64730000000000000000000000000000000000000000000000000000000000006020830152604082019050919050565b6000612df8602083613481565b91507f4552433732313a206d696e7420746f20746865207a65726f20616464726573736000830152602082019050919050565b6000612e38602c83613481565b91507f4552433732313a20617070726f76656420717565727920666f72206e6f6e657860008301527f697374656e7420746f6b656e00000000000000000000000000000000000000006020830152604082019050919050565b6000612e9e602983613481565b91507f4552433732313a207472616e73666572206f6620746f6b656e2074686174206960008301527f73206e6f74206f776e00000000000000000000000000000000000000000000006020830152604082019050919050565b6000612f04602f83613481565b91507f4552433732314d657461646174613a2055524920717565727920666f72206e6f60008301527f6e6578697374656e7420746f6b656e00000000000000000000000000000000006020830152604082019050919050565b6000612f6a602183613481565b91507f4552433732313a20617070726f76616c20746f2063757272656e74206f776e6560008301527f72000000000000000000000000000000000000000000000000000000000000006020830152604082019050919050565b6000612fd0603183613481565b91507f4552433732313a207472616e736665722063616c6c6572206973206e6f74206f60008301527f776e6572206e6f7220617070726f7665640000000000000000000000000000006020830152604082019050919050565b6000613036601d83613481565b91507f416464726573733a2063616c6c20746f206e6f6e2d636f6e74726163740000006000830152602082019050919050565b613072816135c2565b82525050565b600061308482846129a0565b915081905092915050565b600061309b8285612a0a565b91506130a78284612a0a565b91508190509392505050565b60006020820190506130c86000830184612949565b92915050565b60006080820190506130e36000830187612949565b6130f06020830186612949565b6130fd6040830185613069565b818103606083015261310f8184612967565b905095945050505050565b600060208201905061312f6000830184612958565b92915050565b6000602082019050818103600083015261314f81846129d1565b905092915050565b6000602082019050818103600083015261317081612a3b565b9050919050565b6000602082019050818103600083015261319081612aa1565b9050919050565b600060208201905081810360008301526131b081612b07565b9050919050565b600060208201905081810360008301526131d081612b47565b9050919050565b600060208201905081810360008301526131f081612bad565b9050919050565b6000602082019050818103600083015261321081612bed565b9050919050565b6000602082019050818103600083015261323081612c53565b9050919050565b6000602082019050818103600083015261325081612cb9565b9050919050565b6000602082019050818103600083015261327081612d1f565b9050919050565b6000602082019050818103600083015261329081612d85565b9050919050565b600060208201905081810360008301526132b081612deb565b9050919050565b600060208201905081810360008301526132d081612e2b565b9050919050565b600060208201905081810360008301526132f081612e91565b9050919050565b6000602082019050818103600083015261331081612ef7565b9050919050565b6000602082019050818103600083015261333081612f5d565b9050919050565b6000602082019050818103600083015261335081612fc3565b9050919050565b6000602082019050818103600083015261337081613029565b9050919050565b600060208201905061338c6000830184613069565b92915050565b6000604051905081810181811067ffffffffffffffff821117156133b9576133b8613771565b5b8060405250919050565b600067ffffffffffffffff8211156133de576133dd613771565b5b602082029050602081019050919050565b600067ffffffffffffffff82111561340a57613409613771565b5b601f19601f8301169050602081019050919050565b600067ffffffffffffffff82111561343a57613439613771565b5b601f19601f8301169050602081019050919050565b600081519050919050565b600081519050919050565b600082825260208201905092915050565b600081905092915050565b600082825260208201905092915050565b600081905092915050565b60006134a8826135c2565b91506134b3836135c2565b9250827fffffffffffffffffffffffffffffffffffffffffffffffffffffffffffffffff038211156134e8576134e76136e4565b5b828201905092915050565b60006134fe826135c2565b9150613509836135c2565b92508261351957613518613713565b5b828204905092915050565b600061352f826135c2565b915061353a836135c2565b92508282101561354d5761354c6136e4565b5b828203905092915050565b6000613563826135a2565b9050919050565b60008115159050919050565b60007fffffffff0000000000000000000000000000000000000000000000000000000082169050919050565b600073ffffffffffffffffffffffffffffffffffffffff82169050919050565b6000819050919050565b82818337600083830152505050565b60005b838110156135f95780820151818401526020810190506135de565b83811115613608576000848401525b50505050565b6000613619826135c2565b9150600082141561362d5761362c6136e4565b5b600182039050919050565b6000600282049050600182168061365057607f821691505b6020821081141561366457613663613742565b5b50919050565b6000613675826135c2565b91507fffffffffffffffffffffffffffffffffffffffffffffffffffffffffffffffff8214156136a8576136a76136e4565b5b600182019050919050565b60006136be826135c2565b91506136c9836135c2565b9250826136d9576136d8613713565b5b828206905092915050565b7f4e487b7100000000000000000000000000000000000000000000000000000000600052601160045260246000fd5b7f4e487b7100000000000000000000000000000000000000000000000000000000600052601260045260246000fd5b7f4e487b7100000000000000000000000000000000000000000000000000000000600052602260045260246000fd5b7f4e487b7100000000000000000000000000000000000000000000000000000000600052604160045260246000fd5b6000601f19601f8301169050919050565b6137ba81613558565b81146137c557600080fd5b50565b6137d18161356a565b81146137dc57600080fd5b50565b6137e881613576565b81146137f357600080fd5b50565b6137ff816135c2565b811461380a57600080fd5b5056fe4552433732313a207472616e7366657220746f206e6f6e20455243373231526563656976657220696d706c656d656e7465724552433732313a206f776e657220717565727920666f72206e6f6e6578697374656e7420746f6b656ea2646970667358221220260f7df10c55a01abf4b6dcf9189a21a27e02ba9ff2ce28301935148f590229264736f6c63430008000033",
  "immutableReferences": {},
  "source": "// SPDX-License-Identifier: MIT\npragma solidity >=0.8.0;\npragma abicoder v2;\n\n// import ERC721 iterface\nimport \"./ERC721.sol\";\n\n// CroSkulls smart contract inherits ERC721 interface\ncontract CroSkullsRedPotions is ERC721 {\n  using SafeMath for uint256;\n\n  string public collectionName;\n  string public collectionNameSymbol;\n  uint256 public potionsCounter;\n  address public owner;\n\n  modifier onlyOwner() {\n    require(msg.sender == owner);\n    _;\n  }\n\n  // initialize contract while deployment with contract's collection name and token\n  constructor( ) ERC721(\"CroSkullsRedPotions\", \"CSRP\") {\n    owner = msg.sender;\n    collectionName = name();\n    collectionNameSymbol = symbol();\n  }\n\n  function setBaseURI( string memory baseURI ) public onlyOwner {\n    _setBaseURI(baseURI);\n  }\n\n  // mint a new crypto boy\n  function adminMintCroSkull(address[] memory  _to) onlyOwner external {\n    for (uint256 i = 0; i <= _to.length - 1; i++) {\n      potionsCounter++;\n      require(!_exists(potionsCounter));\n      _mint(_to[i], potionsCounter);\n    }\n  }\n\n  function getOwner() public view returns(address) {\n    return owner;\n  }\n\n  function getTokenOwner(uint256 _tokenId) public view returns(address) {\n    address _tokenOwner = ownerOf(_tokenId);\n    return _tokenOwner;\n  }\n\n  function getTokenMetaData(uint _tokenId) public view returns(string memory) {\n    string memory tokenMetaData = tokenURI(_tokenId);\n    return tokenMetaData;\n  }\n\n  function getNumberOfTokensMinted() public view returns(uint256) {\n    uint256 totalNumberOfTokensMinted = totalSupply();\n    return totalNumberOfTokensMinted;\n  }\n\n  function getTotalNumberOfTokensOwnedByAnAddress(address _owner) public view returns(uint256) {\n    uint256 totalNumberOfTokensOwned = balanceOf(_owner);\n    return totalNumberOfTokensOwned;\n  }\n\n  function getTokenExists(uint256 _tokenId) public view returns(bool) {\n    bool tokenExists = _exists(_tokenId);\n    return tokenExists;\n  }\n}",
  "sourcePath": "/Users/alessandrodecristofaro/Desktop/DeFi Code/cryptoboys-nft-marketplace/src/contracts/RedPostions.sol",
  "compiler": {
    "name": "solc",
    "version": "0.8.0+commit.c7dfd78e.Emscripten.clang"
  },
  "schemaVersion": "3.4.3",
  "updatedAt": "2022-02-09T15:26:06.344Z",
  "devdoc": {
    "kind": "dev",
    "methods": {
      "approve(address,uint256)": {
        "details": "See {IERC721-approve}."
      },
      "balanceOf(address)": {
        "details": "See {IERC721-balanceOf}."
      },
      "baseURI()": {
        "details": "Returns the base URI set via {_setBaseURI}. This will be automatically added as a prefix in {tokenURI} to each token's URI, or to the token ID if no specific URI is set for that token ID."
      },
      "getApproved(uint256)": {
        "details": "See {IERC721-getApproved}."
      },
      "isApprovedForAll(address,address)": {
        "details": "See {IERC721-isApprovedForAll}."
      },
      "name()": {
        "details": "See {IERC721Metadata-name}."
      },
      "ownerOf(uint256)": {
        "details": "See {IERC721-ownerOf}."
      },
      "safeTransferFrom(address,address,uint256)": {
        "details": "See {IERC721-safeTransferFrom}."
      },
      "safeTransferFrom(address,address,uint256,bytes)": {
        "details": "See {IERC721-safeTransferFrom}."
      },
      "setApprovalForAll(address,bool)": {
        "details": "See {IERC721-setApprovalForAll}."
      },
      "supportsInterface(bytes4)": {
        "details": "See {IERC165-supportsInterface}. Time complexity O(1), guaranteed to always use less than 30 000 gas."
      },
      "symbol()": {
        "details": "See {IERC721Metadata-symbol}."
      },
      "tokenByIndex(uint256)": {
        "details": "See {IERC721Enumerable-tokenByIndex}."
      },
      "tokenOfOwnerByIndex(address,uint256)": {
        "details": "See {IERC721Enumerable-tokenOfOwnerByIndex}."
      },
      "tokenURI(uint256)": {
        "details": "See {IERC721Metadata-tokenURI}."
      },
      "totalSupply()": {
        "details": "See {IERC721Enumerable-totalSupply}."
      },
      "transferFrom(address,address,uint256)": {
        "details": "See {IERC721-transferFrom}."
      }
    },
    "version": 1
  },
  "userdoc": {
    "kind": "user",
    "methods": {},
    "version": 1
  }
}