{
  "contractName": "CroSkullsAmbassador",
  "abi": [
    {
      "inputs": [],
      "stateMutability": "nonpayable",
      "type": "constructor"
    },
    {
      "anonymous": false,
      "inputs": [
        {
          "indexed": true,
          "internalType": "address",
          "name": "owner",
          "type": "address"
        },
        {
          "indexed": true,
          "internalType": "address",
          "name": "approved",
          "type": "address"
        },
        {
          "indexed": true,
          "internalType": "uint256",
          "name": "tokenId",
          "type": "uint256"
        }
      ],
      "name": "Approval",
      "type": "event"
    },
    {
      "anonymous": false,
      "inputs": [
        {
          "indexed": true,
          "internalType": "address",
          "name": "owner",
          "type": "address"
        },
        {
          "indexed": true,
          "internalType": "address",
          "name": "operator",
          "type": "address"
        },
        {
          "indexed": false,
          "internalType": "bool",
          "name": "approved",
          "type": "bool"
        }
      ],
      "name": "ApprovalForAll",
      "type": "event"
    },
    {
      "anonymous": false,
      "inputs": [
        {
          "indexed": true,
          "internalType": "address",
          "name": "from",
          "type": "address"
        },
        {
          "indexed": true,
          "internalType": "address",
          "name": "to",
          "type": "address"
        },
        {
          "indexed": true,
          "internalType": "uint256",
          "name": "tokenId",
          "type": "uint256"
        }
      ],
      "name": "Transfer",
      "type": "event"
    },
    {
      "inputs": [
        {
          "internalType": "address",
          "name": "",
          "type": "address"
        }
      ],
      "name": "addressMintedBalance",
      "outputs": [
        {
          "internalType": "uint256",
          "name": "",
          "type": "uint256"
        }
      ],
      "stateMutability": "view",
      "type": "function"
    },
    {
      "inputs": [
        {
          "internalType": "uint256",
          "name": "",
          "type": "uint256"
        }
      ],
      "name": "allCroSkulls",
      "outputs": [
        {
          "internalType": "uint256",
          "name": "tokenId",
          "type": "uint256"
        },
        {
          "internalType": "address",
          "name": "mintedBy",
          "type": "address"
        },
        {
          "internalType": "address",
          "name": "currentOwner",
          "type": "address"
        },
        {
          "internalType": "address",
          "name": "previousOwner",
          "type": "address"
        }
      ],
      "stateMutability": "view",
      "type": "function"
    },
    {
      "inputs": [
        {
          "internalType": "address",
          "name": "to",
          "type": "address"
        },
        {
          "internalType": "uint256",
          "name": "tokenId",
          "type": "uint256"
        }
      ],
      "name": "approve",
      "outputs": [],
      "stateMutability": "nonpayable",
      "type": "function"
    },
    {
      "inputs": [
        {
          "internalType": "address",
          "name": "owner",
          "type": "address"
        }
      ],
      "name": "balanceOf",
      "outputs": [
        {
          "internalType": "uint256",
          "name": "",
          "type": "uint256"
        }
      ],
      "stateMutability": "view",
      "type": "function"
    },
    {
      "inputs": [],
      "name": "baseURI",
      "outputs": [
        {
          "internalType": "string",
          "name": "",
          "type": "string"
        }
      ],
      "stateMutability": "view",
      "type": "function"
    },
    {
      "inputs": [],
      "name": "collectionName",
      "outputs": [
        {
          "internalType": "string",
          "name": "",
          "type": "string"
        }
      ],
      "stateMutability": "view",
      "type": "function"
    },
    {
      "inputs": [],
      "name": "collectionNameSymbol",
      "outputs": [
        {
          "internalType": "string",
          "name": "",
          "type": "string"
        }
      ],
      "stateMutability": "view",
      "type": "function"
    },
    {
      "inputs": [],
      "name": "croSkullCounter",
      "outputs": [
        {
          "internalType": "uint256",
          "name": "",
          "type": "uint256"
        }
      ],
      "stateMutability": "view",
      "type": "function"
    },
    {
      "inputs": [
        {
          "internalType": "uint256",
          "name": "tokenId",
          "type": "uint256"
        }
      ],
      "name": "getApproved",
      "outputs": [
        {
          "internalType": "address",
          "name": "",
          "type": "address"
        }
      ],
      "stateMutability": "view",
      "type": "function"
    },
    {
      "inputs": [
        {
          "internalType": "address",
          "name": "owner",
          "type": "address"
        },
        {
          "internalType": "address",
          "name": "operator",
          "type": "address"
        }
      ],
      "name": "isApprovedForAll",
      "outputs": [
        {
          "internalType": "bool",
          "name": "",
          "type": "bool"
        }
      ],
      "stateMutability": "view",
      "type": "function"
    },
    {
      "inputs": [],
      "name": "name",
      "outputs": [
        {
          "internalType": "string",
          "name": "",
          "type": "string"
        }
      ],
      "stateMutability": "view",
      "type": "function"
    },
    {
      "inputs": [],
      "name": "owner",
      "outputs": [
        {
          "internalType": "address",
          "name": "",
          "type": "address"
        }
      ],
      "stateMutability": "view",
      "type": "function"
    },
    {
      "inputs": [
        {
          "internalType": "uint256",
          "name": "tokenId",
          "type": "uint256"
        }
      ],
      "name": "ownerOf",
      "outputs": [
        {
          "internalType": "address",
          "name": "",
          "type": "address"
        }
      ],
      "stateMutability": "view",
      "type": "function"
    },
    {
      "inputs": [
        {
          "internalType": "address",
          "name": "from",
          "type": "address"
        },
        {
          "internalType": "address",
          "name": "to",
          "type": "address"
        },
        {
          "internalType": "uint256",
          "name": "tokenId",
          "type": "uint256"
        }
      ],
      "name": "safeTransferFrom",
      "outputs": [],
      "stateMutability": "nonpayable",
      "type": "function"
    },
    {
      "inputs": [
        {
          "internalType": "address",
          "name": "from",
          "type": "address"
        },
        {
          "internalType": "address",
          "name": "to",
          "type": "address"
        },
        {
          "internalType": "uint256",
          "name": "tokenId",
          "type": "uint256"
        },
        {
          "internalType": "bytes",
          "name": "_data",
          "type": "bytes"
        }
      ],
      "name": "safeTransferFrom",
      "outputs": [],
      "stateMutability": "nonpayable",
      "type": "function"
    },
    {
      "inputs": [
        {
          "internalType": "address",
          "name": "operator",
          "type": "address"
        },
        {
          "internalType": "bool",
          "name": "approved",
          "type": "bool"
        }
      ],
      "name": "setApprovalForAll",
      "outputs": [],
      "stateMutability": "nonpayable",
      "type": "function"
    },
    {
      "inputs": [
        {
          "internalType": "bytes4",
          "name": "interfaceId",
          "type": "bytes4"
        }
      ],
      "name": "supportsInterface",
      "outputs": [
        {
          "internalType": "bool",
          "name": "",
          "type": "bool"
        }
      ],
      "stateMutability": "view",
      "type": "function"
    },
    {
      "inputs": [],
      "name": "symbol",
      "outputs": [
        {
          "internalType": "string",
          "name": "",
          "type": "string"
        }
      ],
      "stateMutability": "view",
      "type": "function"
    },
    {
      "inputs": [
        {
          "internalType": "uint256",
          "name": "index",
          "type": "uint256"
        }
      ],
      "name": "tokenByIndex",
      "outputs": [
        {
          "internalType": "uint256",
          "name": "",
          "type": "uint256"
        }
      ],
      "stateMutability": "view",
      "type": "function"
    },
    {
      "inputs": [
        {
          "internalType": "address",
          "name": "owner",
          "type": "address"
        },
        {
          "internalType": "uint256",
          "name": "index",
          "type": "uint256"
        }
      ],
      "name": "tokenOfOwnerByIndex",
      "outputs": [
        {
          "internalType": "uint256",
          "name": "",
          "type": "uint256"
        }
      ],
      "stateMutability": "view",
      "type": "function"
    },
    {
      "inputs": [
        {
          "internalType": "uint256",
          "name": "tokenId",
          "type": "uint256"
        }
      ],
      "name": "tokenURI",
      "outputs": [
        {
          "internalType": "string",
          "name": "",
          "type": "string"
        }
      ],
      "stateMutability": "view",
      "type": "function"
    },
    {
      "inputs": [],
      "name": "totalSupply",
      "outputs": [
        {
          "internalType": "uint256",
          "name": "",
          "type": "uint256"
        }
      ],
      "stateMutability": "view",
      "type": "function"
    },
    {
      "inputs": [
        {
          "internalType": "address",
          "name": "from",
          "type": "address"
        },
        {
          "internalType": "address",
          "name": "to",
          "type": "address"
        },
        {
          "internalType": "uint256",
          "name": "tokenId",
          "type": "uint256"
        }
      ],
      "name": "transferFrom",
      "outputs": [],
      "stateMutability": "nonpayable",
      "type": "function"
    },
    {
      "inputs": [
        {
          "internalType": "string",
          "name": "baseURI",
          "type": "string"
        }
      ],
      "name": "setBaseURI",
      "outputs": [],
      "stateMutability": "nonpayable",
      "type": "function"
    },
    {
      "inputs": [
        {
          "internalType": "uint256",
          "name": "_mintAmount",
          "type": "uint256"
        },
        {
          "internalType": "address",
          "name": "_to",
          "type": "address"
        }
      ],
      "name": "adminMintCroSkull",
      "outputs": [],
      "stateMutability": "nonpayable",
      "type": "function"
    },
    {
      "inputs": [],
      "name": "getOwner",
      "outputs": [
        {
          "internalType": "address",
          "name": "",
          "type": "address"
        }
      ],
      "stateMutability": "view",
      "type": "function"
    },
    {
      "inputs": [
        {
          "internalType": "uint256",
          "name": "_tokenId",
          "type": "uint256"
        }
      ],
      "name": "getTokenOwner",
      "outputs": [
        {
          "internalType": "address",
          "name": "",
          "type": "address"
        }
      ],
      "stateMutability": "view",
      "type": "function"
    },
    {
      "inputs": [
        {
          "internalType": "uint256",
          "name": "_tokenId",
          "type": "uint256"
        }
      ],
      "name": "getTokenMetaData",
      "outputs": [
        {
          "internalType": "string",
          "name": "",
          "type": "string"
        }
      ],
      "stateMutability": "view",
      "type": "function"
    },
    {
      "inputs": [],
      "name": "getNumberOfTokensMinted",
      "outputs": [
        {
          "internalType": "uint256",
          "name": "",
          "type": "uint256"
        }
      ],
      "stateMutability": "view",
      "type": "function"
    },
    {
      "inputs": [
        {
          "internalType": "address",
          "name": "_owner",
          "type": "address"
        }
      ],
      "name": "getTotalNumberOfTokensOwnedByAnAddress",
      "outputs": [
        {
          "internalType": "uint256",
          "name": "",
          "type": "uint256"
        }
      ],
      "stateMutability": "view",
      "type": "function"
    },
    {
      "inputs": [
        {
          "internalType": "uint256",
          "name": "_tokenId",
          "type": "uint256"
        }
      ],
      "name": "getTokenExists",
      "outputs": [
        {
          "internalType": "bool",
          "name": "",
          "type": "bool"
        }
      ],
      "stateMutability": "view",
      "type": "function"
    }
  ],
  "bytecode": "0x60806040523480156200001157600080fd5b506040518060400160405280601281526020017f43524f536b756c6c416d6261737361646f7200000000000000000000000000008152506040518060400160405280600381526020017f4352410000000000000000000000000000000000000000000000000000000000815250620000966301ffc9a760e01b620001a960201b60201c565b8160069080519060200190620000ae929190620003b5565b508060079080519060200190620000c7929190620003b5565b50620000e06380ac58cd60e01b620001a960201b60201c565b620000f8635b5e139f60e01b620001a960201b60201c565b6200011063780e9d6360e01b620001a960201b60201c565b505033600d60006101000a81548173ffffffffffffffffffffffffffffffffffffffff021916908373ffffffffffffffffffffffffffffffffffffffff160217905550620001636200028160201b60201c565b600a90805190602001906200017a929190620003b5565b506200018b6200031b60201b60201c565b600b9080519060200190620001a2929190620003b5565b506200054d565b63ffffffff60e01b817bffffffffffffffffffffffffffffffffffffffffffffffffffffffff1916141562000215576040517f08c379a00000000000000000000000000000000000000000000000000000000081526004016200020c90620004c6565b60405180910390fd5b6001600080837bffffffffffffffffffffffffffffffffffffffffffffffffffffffff19167bffffffffffffffffffffffffffffffffffffffffffffffffffffffff1916815260200190815260200160002060006101000a81548160ff02191690831515021790555050565b606060068054620002929062000517565b80601f0160208091040260200160405190810160405280929190818152602001828054620002c09062000517565b8015620003115780601f10620002e55761010080835404028352916020019162000311565b820191906000526020600020905b815481529060010190602001808311620002f357829003601f168201915b5050505050905090565b6060600780546200032c9062000517565b80601f01602080910402602001604051908101604052809291908181526020018280546200035a9062000517565b8015620003ab5780601f106200037f57610100808354040283529160200191620003ab565b820191906000526020600020905b8154815290600101906020018083116200038d57829003601f168201915b5050505050905090565b828054620003c39062000517565b90600052602060002090601f016020900481019282620003e7576000855562000433565b82601f106200040257805160ff191683800117855562000433565b8280016001018555821562000433579182015b828111156200043257825182559160200191906001019062000415565b5b50905062000442919062000446565b5090565b5b808211156200046157600081600090555060010162000447565b5090565b600082825260208201905092915050565b7f4552433136353a20696e76616c696420696e7465726661636520696400000000600082015250565b6000620004ae601c8362000465565b9150620004bb8262000476565b602082019050919050565b60006020820190508181036000830152620004e1816200049f565b9050919050565b7f4e487b7100000000000000000000000000000000000000000000000000000000600052602260045260246000fd5b600060028204905060018216806200053057607f821691505b60208210811415620005475762000546620004e8565b5b50919050565b613b54806200055d6000396000f3fe608060405234801561001057600080fd5b50600436106101e55760003560e01c806367c623cf1161010f578063a22cb465116100a2578063cc151f3a11610071578063cc151f3a146105f3578063d34f6ecb14610611578063e5326ab11461062f578063e985e9c51461064d576101e5565b8063a22cb4651461055b578063a5cd761f14610577578063b88d4fde146105a7578063c87b56dd146105c3576101e5565b8063893d20e8116100de578063893d20e8146104ce5780638da5cb5b146104ec57806395d89b411461050a5780639a59758f14610528576101e5565b806367c623cf146104325780636c0360eb146104625780636f9507f91461048057806370a082311461049e576101e5565b806323b872dd116101875780634944ec5e116101565780634944ec5e1461039a5780634f6ccce7146103b657806355f804b3146103e65780636352211e14610402576101e5565b806323b872dd146103025780632f745c591461031e57806342842e0e1461034e578063439028501461036a576101e5565b8063095ea7b3116101c3578063095ea7b314610268578063142687f31461028457806318160ddd146102b457806318cae269146102d2576101e5565b806301ffc9a7146101ea57806306fdde031461021a578063081812fc14610238575b600080fd5b61020460048036038101906101ff91906126d1565b61067d565b6040516102119190612719565b60405180910390f35b6102226106e4565b60405161022f91906127cd565b60405180910390f35b610252600480360381019061024d9190612825565b610776565b60405161025f9190612893565b60405180910390f35b610282600480360381019061027d91906128da565b6107fb565b005b61029e60048036038101906102999190612825565b610913565b6040516102ab9190612719565b60405180910390f35b6102bc61092a565b6040516102c99190612929565b60405180910390f35b6102ec60048036038101906102e79190612944565b61093b565b6040516102f99190612929565b60405180910390f35b61031c60048036038101906103179190612971565b610953565b005b610338600480360381019061033391906128da565b6109b3565b6040516103459190612929565b60405180910390f35b61036860048036038101906103639190612971565b610a0e565b005b610384600480360381019061037f9190612944565b610a2e565b6040516103919190612929565b60405180910390f35b6103b460048036038101906103af91906129c4565b610a45565b005b6103d060048036038101906103cb9190612825565b610d0a565b6040516103dd9190612929565b60405180910390f35b61040060048036038101906103fb9190612b39565b610d2d565b005b61041c60048036038101906104179190612825565b610d93565b6040516104299190612893565b60405180910390f35b61044c60048036038101906104479190612825565b610dca565b60405161045991906127cd565b60405180910390f35b61046a610de2565b60405161047791906127cd565b60405180910390f35b610488610e74565b60405161049591906127cd565b60405180910390f35b6104b860048036038101906104b39190612944565b610f02565b6040516104c59190612929565b60405180910390f35b6104d6610fc1565b6040516104e39190612893565b60405180910390f35b6104f4610feb565b6040516105019190612893565b60405180910390f35b610512611011565b60405161051f91906127cd565b60405180910390f35b610542600480360381019061053d9190612825565b6110a3565b6040516105529493929190612b82565b60405180910390f35b61057560048036038101906105709190612bf3565b611133565b005b610591600480360381019061058c9190612825565b6112b4565b60405161059e9190612893565b60405180910390f35b6105c160048036038101906105bc9190612cd4565b6112cb565b005b6105dd60048036038101906105d89190612825565b61132d565b6040516105ea91906127cd565b60405180910390f35b6105fb6114a0565b6040516106089190612929565b60405180910390f35b6106196114b4565b6040516106269190612929565b60405180910390f35b6106376114ba565b60405161064491906127cd565b60405180910390f35b61066760048036038101906106629190612d57565b611548565b6040516106749190612719565b60405180910390f35b6000806000837bffffffffffffffffffffffffffffffffffffffffffffffffffffffff19167bffffffffffffffffffffffffffffffffffffffffffffffffffffffff1916815260200190815260200160002060009054906101000a900460ff169050919050565b6060600680546106f390612dc6565b80601f016020809104026020016040519081016040528092919081815260200182805461071f90612dc6565b801561076c5780601f106107415761010080835404028352916020019161076c565b820191906000526020600020905b81548152906001019060200180831161074f57829003601f168201915b5050505050905090565b6000610781826115dc565b6107c0576040517f08c379a00000000000000000000000000000000000000000000000000000000081526004016107b790612e6a565b60405180910390fd5b6004600083815260200190815260200160002060009054906101000a900473ffffffffffffffffffffffffffffffffffffffff169050919050565b600061080682610d93565b90508073ffffffffffffffffffffffffffffffffffffffff168373ffffffffffffffffffffffffffffffffffffffff161415610877576040517f08c379a000000000000000000000000000000000000000000000000000000000815260040161086e90612efc565b60405180910390fd5b8073ffffffffffffffffffffffffffffffffffffffff166108966115f9565b73ffffffffffffffffffffffffffffffffffffffff1614806108c557506108c4816108bf6115f9565b611548565b5b610904576040517f08c379a00000000000000000000000000000000000000000000000000000000081526004016108fb90612f8e565b60405180910390fd5b61090e8383611601565b505050565b60008061091f836115dc565b905080915050919050565b600061093660026116ba565b905090565b600f6020528060005260406000206000915090505481565b61096461095e6115f9565b826116cf565b6109a3576040517f08c379a000000000000000000000000000000000000000000000000000000000815260040161099a90613020565b60405180910390fd5b6109ae8383836117ad565b505050565b6000610a0682600160008673ffffffffffffffffffffffffffffffffffffffff1673ffffffffffffffffffffffffffffffffffffffff1681526020019081526020016000206119c490919063ffffffff16565b905092915050565b610a29838383604051806020016040528060008152506112cb565b505050565b600080610a3a83610f02565b905080915050919050565b600d60009054906101000a900473ffffffffffffffffffffffffffffffffffffffff1673ffffffffffffffffffffffffffffffffffffffff163373ffffffffffffffffffffffffffffffffffffffff1614610a9f57600080fd5b600073ffffffffffffffffffffffffffffffffffffffff168173ffffffffffffffffffffffffffffffffffffffff161415610ad957600080fd5b60008211610ae657600080fd5b6000610af061092a565b90506000600190505b838111610d0457600c6000815480929190610b139061306f565b9190505550610b23600c546115dc565b15610b2d57600080fd5b600f60008473ffffffffffffffffffffffffffffffffffffffff1673ffffffffffffffffffffffffffffffffffffffff1681526020019081526020016000206000815480929190610b7d9061306f565b9190505550610b8e83600c546119de565b60006040518060800160405280600c5481526020013373ffffffffffffffffffffffffffffffffffffffff1681526020018573ffffffffffffffffffffffffffffffffffffffff168152602001600073ffffffffffffffffffffffffffffffffffffffff16815250905080600e6000600c5481526020019081526020016000206000820151816000015560208201518160010160006101000a81548173ffffffffffffffffffffffffffffffffffffffff021916908373ffffffffffffffffffffffffffffffffffffffff16021790555060408201518160020160006101000a81548173ffffffffffffffffffffffffffffffffffffffff021916908373ffffffffffffffffffffffffffffffffffffffff16021790555060608201518160030160006101000a81548173ffffffffffffffffffffffffffffffffffffffff021916908373ffffffffffffffffffffffffffffffffffffffff160217905550905050508080610cfc9061306f565b915050610af9565b50505050565b600080610d21836002611b6c90919063ffffffff16565b50905080915050919050565b600d60009054906101000a900473ffffffffffffffffffffffffffffffffffffffff1673ffffffffffffffffffffffffffffffffffffffff163373ffffffffffffffffffffffffffffffffffffffff1614610d8757600080fd5b610d9081611b98565b50565b6000610dc382604051806060016040528060298152602001613af6602991396002611bb29092919063ffffffff16565b9050919050565b60606000610dd78361132d565b905080915050919050565b606060098054610df190612dc6565b80601f0160208091040260200160405190810160405280929190818152602001828054610e1d90612dc6565b8015610e6a5780601f10610e3f57610100808354040283529160200191610e6a565b820191906000526020600020905b815481529060010190602001808311610e4d57829003601f168201915b5050505050905090565b600b8054610e8190612dc6565b80601f0160208091040260200160405190810160405280929190818152602001828054610ead90612dc6565b8015610efa5780601f10610ecf57610100808354040283529160200191610efa565b820191906000526020600020905b815481529060010190602001808311610edd57829003601f168201915b505050505081565b60008073ffffffffffffffffffffffffffffffffffffffff168273ffffffffffffffffffffffffffffffffffffffff161415610f73576040517f08c379a0000000000000000000000000000000000000000000000000000000008152600401610f6a9061312a565b60405180910390fd5b610fba600160008473ffffffffffffffffffffffffffffffffffffffff1673ffffffffffffffffffffffffffffffffffffffff168152602001908152602001600020611bd1565b9050919050565b6000600d60009054906101000a900473ffffffffffffffffffffffffffffffffffffffff16905090565b600d60009054906101000a900473ffffffffffffffffffffffffffffffffffffffff1681565b60606007805461102090612dc6565b80601f016020809104026020016040519081016040528092919081815260200182805461104c90612dc6565b80156110995780601f1061106e57610100808354040283529160200191611099565b820191906000526020600020905b81548152906001019060200180831161107c57829003601f168201915b5050505050905090565b600e6020528060005260406000206000915090508060000154908060010160009054906101000a900473ffffffffffffffffffffffffffffffffffffffff16908060020160009054906101000a900473ffffffffffffffffffffffffffffffffffffffff16908060030160009054906101000a900473ffffffffffffffffffffffffffffffffffffffff16905084565b61113b6115f9565b73ffffffffffffffffffffffffffffffffffffffff168273ffffffffffffffffffffffffffffffffffffffff1614156111a9576040517f08c379a00000000000000000000000000000000000000000000000000000000081526004016111a090613196565b60405180910390fd5b80600560006111b66115f9565b73ffffffffffffffffffffffffffffffffffffffff1673ffffffffffffffffffffffffffffffffffffffff16815260200190815260200160002060008473ffffffffffffffffffffffffffffffffffffffff1673ffffffffffffffffffffffffffffffffffffffff16815260200190815260200160002060006101000a81548160ff0219169083151502179055508173ffffffffffffffffffffffffffffffffffffffff166112636115f9565b73ffffffffffffffffffffffffffffffffffffffff167f17307eab39ab6107e8899845ad3d59bd9653f200f220920489ca2b5937696c31836040516112a89190612719565b60405180910390a35050565b6000806112c083610d93565b905080915050919050565b6112dc6112d66115f9565b836116cf565b61131b576040517f08c379a000000000000000000000000000000000000000000000000000000000815260040161131290613020565b60405180910390fd5b61132784848484611be6565b50505050565b6060611338826115dc565b611377576040517f08c379a000000000000000000000000000000000000000000000000000000000815260040161136e90613228565b60405180910390fd5b600060086000848152602001908152602001600020805461139790612dc6565b80601f01602080910402602001604051908101604052809291908181526020018280546113c390612dc6565b80156114105780601f106113e557610100808354040283529160200191611410565b820191906000526020600020905b8154815290600101906020018083116113f357829003601f168201915b505050505090506000611421610de2565b905060008151141561143757819250505061149b565b60008251111561146c578082604051602001611454929190613284565b6040516020818303038152906040529250505061149b565b8061147685611c42565b604051602001611487929190613284565b604051602081830303815290604052925050505b919050565b6000806114ab61092a565b90508091505090565b600c5481565b600a80546114c790612dc6565b80601f01602080910402602001604051908101604052809291908181526020018280546114f390612dc6565b80156115405780601f1061151557610100808354040283529160200191611540565b820191906000526020600020905b81548152906001019060200180831161152357829003601f168201915b505050505081565b6000600560008473ffffffffffffffffffffffffffffffffffffffff1673ffffffffffffffffffffffffffffffffffffffff16815260200190815260200160002060008373ffffffffffffffffffffffffffffffffffffffff1673ffffffffffffffffffffffffffffffffffffffff16815260200190815260200160002060009054906101000a900460ff16905092915050565b60006115f2826002611db590919063ffffffff16565b9050919050565b600033905090565b816004600083815260200190815260200160002060006101000a81548173ffffffffffffffffffffffffffffffffffffffff021916908373ffffffffffffffffffffffffffffffffffffffff160217905550808273ffffffffffffffffffffffffffffffffffffffff1661167483610d93565b73ffffffffffffffffffffffffffffffffffffffff167f8c5be1e5ebec7d5bd14f71427d1e84f3dd0314c0f7b2291e5b200ac8c7c3b92560405160405180910390a45050565b60006116c882600001611dcf565b9050919050565b60006116da826115dc565b611719576040517f08c379a00000000000000000000000000000000000000000000000000000000081526004016117109061331a565b60405180910390fd5b600061172483610d93565b90508073ffffffffffffffffffffffffffffffffffffffff168473ffffffffffffffffffffffffffffffffffffffff16148061179357508373ffffffffffffffffffffffffffffffffffffffff1661177b84610776565b73ffffffffffffffffffffffffffffffffffffffff16145b806117a457506117a38185611548565b5b91505092915050565b8273ffffffffffffffffffffffffffffffffffffffff166117cd82610d93565b73ffffffffffffffffffffffffffffffffffffffff1614611823576040517f08c379a000000000000000000000000000000000000000000000000000000000815260040161181a906133ac565b60405180910390fd5b600073ffffffffffffffffffffffffffffffffffffffff168273ffffffffffffffffffffffffffffffffffffffff161415611893576040517f08c379a000000000000000000000000000000000000000000000000000000000815260040161188a9061343e565b60405180910390fd5b61189e838383611de0565b6118a9600082611601565b6118fa81600160008673ffffffffffffffffffffffffffffffffffffffff1673ffffffffffffffffffffffffffffffffffffffff168152602001908152602001600020611de590919063ffffffff16565b5061194c81600160008573ffffffffffffffffffffffffffffffffffffffff1673ffffffffffffffffffffffffffffffffffffffff168152602001908152602001600020611dff90919063ffffffff16565b5061196381836002611e199092919063ffffffff16565b50808273ffffffffffffffffffffffffffffffffffffffff168473ffffffffffffffffffffffffffffffffffffffff167fddf252ad1be2c89b69c2b068fc378daa952ba7f163c4a11628f55a4df523b3ef60405160405180910390a4505050565b60006119d38360000183611e4e565b60001c905092915050565b600073ffffffffffffffffffffffffffffffffffffffff168273ffffffffffffffffffffffffffffffffffffffff161415611a4e576040517f08c379a0000000000000000000000000000000000000000000000000000000008152600401611a45906134aa565b60405180910390fd5b611a57816115dc565b15611a97576040517f08c379a0000000000000000000000000000000000000000000000000000000008152600401611a8e90613516565b60405180910390fd5b611aa360008383611de0565b611af481600160008573ffffffffffffffffffffffffffffffffffffffff1673ffffffffffffffffffffffffffffffffffffffff168152602001908152602001600020611dff90919063ffffffff16565b50611b0b81836002611e199092919063ffffffff16565b50808273ffffffffffffffffffffffffffffffffffffffff16600073ffffffffffffffffffffffffffffffffffffffff167fddf252ad1be2c89b69c2b068fc378daa952ba7f163c4a11628f55a4df523b3ef60405160405180910390a45050565b600080600080611b7f8660000186611ec2565b915091508160001c8160001c9350935050509250929050565b8060099080519060200190611bae9291906125c2565b5050565b6000611bc5846000018460001b84611f4c565b60001c90509392505050565b6000611bdf82600001611fed565b9050919050565b611bf18484846117ad565b611bfd84848484611ffe565b611c3c576040517f08c379a0000000000000000000000000000000000000000000000000000000008152600401611c33906135a8565b60405180910390fd5b50505050565b60606000821415611c8a576040518060400160405280600181526020017f30000000000000000000000000000000000000000000000000000000000000008152509050611db0565b600082905060005b60008214611cbc578080611ca59061306f565b915050600a82611cb591906135f7565b9150611c92565b60008167ffffffffffffffff811115611cd857611cd7612a0e565b5b6040519080825280601f01601f191660200182016040528015611d0a5781602001600182028036833780820191505090505b5090506000600183611d1c9190613628565b90508593505b60008414611da857600a84611d37919061365c565b6030611d43919061368d565b60f81b828280611d52906136e3565b935081518110611d6557611d6461370d565b5b60200101907effffffffffffffffffffffffffffffffffffffffffffffffffffffffffffff1916908160001a905350600a84611da191906135f7565b9350611d22565b819450505050505b919050565b6000611dc7836000018360001b612162565b905092915050565b600081600001805490509050919050565b505050565b6000611df7836000018360001b612185565b905092915050565b6000611e11836000018360001b61229d565b905092915050565b6000611e45846000018460001b8473ffffffffffffffffffffffffffffffffffffffff1660001b61230d565b90509392505050565b600081836000018054905011611e99576040517f08c379a0000000000000000000000000000000000000000000000000000000008152600401611e90906137ae565b60405180910390fd5b826000018281548110611eaf57611eae61370d565b5b9060005260206000200154905092915050565b60008082846000018054905011611f0e576040517f08c379a0000000000000000000000000000000000000000000000000000000008152600401611f0590613840565b60405180910390fd5b6000846000018481548110611f2657611f2561370d565b5b906000526020600020906002020190508060000154816001015492509250509250929050565b60008084600101600085815260200190815260200160002054905060008114158390611fae576040517f08c379a0000000000000000000000000000000000000000000000000000000008152600401611fa591906127cd565b60405180910390fd5b5084600001600182611fc09190613628565b81548110611fd157611fd061370d565b5b9060005260206000209060020201600101549150509392505050565b600081600001805490509050919050565b600061201f8473ffffffffffffffffffffffffffffffffffffffff166123f9565b61202c576001905061215a565b60006120f363150b7a0260e01b6120416115f9565b88878760405160240161205794939291906138b5565b604051602081830303815290604052907bffffffffffffffffffffffffffffffffffffffffffffffffffffffff19166020820180517bffffffffffffffffffffffffffffffffffffffffffffffffffffffff8381831617835250505050604051806060016040528060328152602001613ac4603291398773ffffffffffffffffffffffffffffffffffffffff1661240c9092919063ffffffff16565b905060008180602001905181019061210b9190613916565b905063150b7a0260e01b7bffffffffffffffffffffffffffffffffffffffffffffffffffffffff1916817bffffffffffffffffffffffffffffffffffffffffffffffffffffffff191614925050505b949350505050565b600080836001016000848152602001908152602001600020541415905092915050565b600080836001016000848152602001908152602001600020549050600081146122915760006001826121b79190613628565b90506000600186600001805490506121cf9190613628565b905060008660000182815481106121e9576121e861370d565b5b906000526020600020015490508087600001848154811061220d5761220c61370d565b5b9060005260206000200181905550600183612228919061368d565b876001016000838152602001908152602001600020819055508660000180548061225557612254613943565b5b60019003818190600052602060002001600090559055866001016000878152602001908152602001600020600090556001945050505050612297565b60009150505b92915050565b60006122a98383612424565b612302578260000182908060018154018082558091505060019003906000526020600020016000909190919091505582600001805490508360010160008481526020019081526020016000208190555060019050612307565b600090505b92915050565b60008084600101600085815260200190815260200160002054905060008114156123b4578460000160405180604001604052808681526020018581525090806001815401808255809150506001900390600052602060002090600202016000909190919091506000820151816000015560208201518160010155505084600001805490508560010160008681526020019081526020016000208190555060019150506123f2565b82856000016001836123c69190613628565b815481106123d7576123d661370d565b5b90600052602060002090600202016001018190555060009150505b9392505050565b600080823b905060008111915050919050565b606061241b8484600085612447565b90509392505050565b600080836001016000848152602001908152602001600020541415905092915050565b60608247101561248c576040517f08c379a0000000000000000000000000000000000000000000000000000000008152600401612483906139e4565b60405180910390fd5b612495856123f9565b6124d4576040517f08c379a00000000000000000000000000000000000000000000000000000000081526004016124cb90613a50565b60405180910390fd5b6000808673ffffffffffffffffffffffffffffffffffffffff1685876040516124fd9190613aac565b60006040518083038185875af1925050503d806000811461253a576040519150601f19603f3d011682016040523d82523d6000602084013e61253f565b606091505b509150915061254f82828661255b565b92505050949350505050565b6060831561256b578290506125bb565b60008351111561257e5782518084602001fd5b816040517f08c379a00000000000000000000000000000000000000000000000000000000081526004016125b291906127cd565b60405180910390fd5b9392505050565b8280546125ce90612dc6565b90600052602060002090601f0160209004810192826125f05760008555612637565b82601f1061260957805160ff1916838001178555612637565b82800160010185558215612637579182015b8281111561263657825182559160200191906001019061261b565b5b5090506126449190612648565b5090565b5b80821115612661576000816000905550600101612649565b5090565b6000604051905090565b600080fd5b600080fd5b60007fffffffff0000000000000000000000000000000000000000000000000000000082169050919050565b6126ae81612679565b81146126b957600080fd5b50565b6000813590506126cb816126a5565b92915050565b6000602082840312156126e7576126e661266f565b5b60006126f5848285016126bc565b91505092915050565b60008115159050919050565b612713816126fe565b82525050565b600060208201905061272e600083018461270a565b92915050565b600081519050919050565b600082825260208201905092915050565b60005b8381101561276e578082015181840152602081019050612753565b8381111561277d576000848401525b50505050565b6000601f19601f8301169050919050565b600061279f82612734565b6127a9818561273f565b93506127b9818560208601612750565b6127c281612783565b840191505092915050565b600060208201905081810360008301526127e78184612794565b905092915050565b6000819050919050565b612802816127ef565b811461280d57600080fd5b50565b60008135905061281f816127f9565b92915050565b60006020828403121561283b5761283a61266f565b5b600061284984828501612810565b91505092915050565b600073ffffffffffffffffffffffffffffffffffffffff82169050919050565b600061287d82612852565b9050919050565b61288d81612872565b82525050565b60006020820190506128a86000830184612884565b92915050565b6128b781612872565b81146128c257600080fd5b50565b6000813590506128d4816128ae565b92915050565b600080604083850312156128f1576128f061266f565b5b60006128ff858286016128c5565b925050602061291085828601612810565b9150509250929050565b612923816127ef565b82525050565b600060208201905061293e600083018461291a565b92915050565b60006020828403121561295a5761295961266f565b5b6000612968848285016128c5565b91505092915050565b60008060006060848603121561298a5761298961266f565b5b6000612998868287016128c5565b93505060206129a9868287016128c5565b92505060406129ba86828701612810565b9150509250925092565b600080604083850312156129db576129da61266f565b5b60006129e985828601612810565b92505060206129fa858286016128c5565b9150509250929050565b600080fd5b600080fd5b7f4e487b7100000000000000000000000000000000000000000000000000000000600052604160045260246000fd5b612a4682612783565b810181811067ffffffffffffffff82111715612a6557612a64612a0e565b5b80604052505050565b6000612a78612665565b9050612a848282612a3d565b919050565b600067ffffffffffffffff821115612aa457612aa3612a0e565b5b612aad82612783565b9050602081019050919050565b82818337600083830152505050565b6000612adc612ad784612a89565b612a6e565b905082815260208101848484011115612af857612af7612a09565b5b612b03848285612aba565b509392505050565b600082601f830112612b2057612b1f612a04565b5b8135612b30848260208601612ac9565b91505092915050565b600060208284031215612b4f57612b4e61266f565b5b600082013567ffffffffffffffff811115612b6d57612b6c612674565b5b612b7984828501612b0b565b91505092915050565b6000608082019050612b97600083018761291a565b612ba46020830186612884565b612bb16040830185612884565b612bbe6060830184612884565b95945050505050565b612bd0816126fe565b8114612bdb57600080fd5b50565b600081359050612bed81612bc7565b92915050565b60008060408385031215612c0a57612c0961266f565b5b6000612c18858286016128c5565b9250506020612c2985828601612bde565b9150509250929050565b600067ffffffffffffffff821115612c4e57612c4d612a0e565b5b612c5782612783565b9050602081019050919050565b6000612c77612c7284612c33565b612a6e565b905082815260208101848484011115612c9357612c92612a09565b5b612c9e848285612aba565b509392505050565b600082601f830112612cbb57612cba612a04565b5b8135612ccb848260208601612c64565b91505092915050565b60008060008060808587031215612cee57612ced61266f565b5b6000612cfc878288016128c5565b9450506020612d0d878288016128c5565b9350506040612d1e87828801612810565b925050606085013567ffffffffffffffff811115612d3f57612d3e612674565b5b612d4b87828801612ca6565b91505092959194509250565b60008060408385031215612d6e57612d6d61266f565b5b6000612d7c858286016128c5565b9250506020612d8d858286016128c5565b9150509250929050565b7f4e487b7100000000000000000000000000000000000000000000000000000000600052602260045260246000fd5b60006002820490506001821680612dde57607f821691505b60208210811415612df257612df1612d97565b5b50919050565b7f4552433732313a20617070726f76656420717565727920666f72206e6f6e657860008201527f697374656e7420746f6b656e0000000000000000000000000000000000000000602082015250565b6000612e54602c8361273f565b9150612e5f82612df8565b604082019050919050565b60006020820190508181036000830152612e8381612e47565b9050919050565b7f4552433732313a20617070726f76616c20746f2063757272656e74206f776e6560008201527f7200000000000000000000000000000000000000000000000000000000000000602082015250565b6000612ee660218361273f565b9150612ef182612e8a565b604082019050919050565b60006020820190508181036000830152612f1581612ed9565b9050919050565b7f4552433732313a20617070726f76652063616c6c6572206973206e6f74206f7760008201527f6e6572206e6f7220617070726f76656420666f7220616c6c0000000000000000602082015250565b6000612f7860388361273f565b9150612f8382612f1c565b604082019050919050565b60006020820190508181036000830152612fa781612f6b565b9050919050565b7f4552433732313a207472616e736665722063616c6c6572206973206e6f74206f60008201527f776e6572206e6f7220617070726f766564000000000000000000000000000000602082015250565b600061300a60318361273f565b915061301582612fae565b604082019050919050565b6000602082019050818103600083015261303981612ffd565b9050919050565b7f4e487b7100000000000000000000000000000000000000000000000000000000600052601160045260246000fd5b600061307a826127ef565b91507fffffffffffffffffffffffffffffffffffffffffffffffffffffffffffffffff8214156130ad576130ac613040565b5b600182019050919050565b7f4552433732313a2062616c616e636520717565727920666f7220746865207a6560008201527f726f206164647265737300000000000000000000000000000000000000000000602082015250565b6000613114602a8361273f565b915061311f826130b8565b604082019050919050565b6000602082019050818103600083015261314381613107565b9050919050565b7f4552433732313a20617070726f766520746f2063616c6c657200000000000000600082015250565b600061318060198361273f565b915061318b8261314a565b602082019050919050565b600060208201905081810360008301526131af81613173565b9050919050565b7f4552433732314d657461646174613a2055524920717565727920666f72206e6f60008201527f6e6578697374656e7420746f6b656e0000000000000000000000000000000000602082015250565b6000613212602f8361273f565b915061321d826131b6565b604082019050919050565b6000602082019050818103600083015261324181613205565b9050919050565b600081905092915050565b600061325e82612734565b6132688185613248565b9350613278818560208601612750565b80840191505092915050565b60006132908285613253565b915061329c8284613253565b91508190509392505050565b7f4552433732313a206f70657261746f7220717565727920666f72206e6f6e657860008201527f697374656e7420746f6b656e0000000000000000000000000000000000000000602082015250565b6000613304602c8361273f565b915061330f826132a8565b604082019050919050565b60006020820190508181036000830152613333816132f7565b9050919050565b7f4552433732313a207472616e73666572206f6620746f6b656e2074686174206960008201527f73206e6f74206f776e0000000000000000000000000000000000000000000000602082015250565b600061339660298361273f565b91506133a18261333a565b604082019050919050565b600060208201905081810360008301526133c581613389565b9050919050565b7f4552433732313a207472616e7366657220746f20746865207a65726f2061646460008201527f7265737300000000000000000000000000000000000000000000000000000000602082015250565b600061342860248361273f565b9150613433826133cc565b604082019050919050565b600060208201905081810360008301526134578161341b565b9050919050565b7f4552433732313a206d696e7420746f20746865207a65726f2061646472657373600082015250565b600061349460208361273f565b915061349f8261345e565b602082019050919050565b600060208201905081810360008301526134c381613487565b9050919050565b7f4552433732313a20746f6b656e20616c7265616479206d696e74656400000000600082015250565b6000613500601c8361273f565b915061350b826134ca565b602082019050919050565b6000602082019050818103600083015261352f816134f3565b9050919050565b7f4552433732313a207472616e7366657220746f206e6f6e20455243373231526560008201527f63656976657220696d706c656d656e7465720000000000000000000000000000602082015250565b600061359260328361273f565b915061359d82613536565b604082019050919050565b600060208201905081810360008301526135c181613585565b9050919050565b7f4e487b7100000000000000000000000000000000000000000000000000000000600052601260045260246000fd5b6000613602826127ef565b915061360d836127ef565b92508261361d5761361c6135c8565b5b828204905092915050565b6000613633826127ef565b915061363e836127ef565b92508282101561365157613650613040565b5b828203905092915050565b6000613667826127ef565b9150613672836127ef565b925082613682576136816135c8565b5b828206905092915050565b6000613698826127ef565b91506136a3836127ef565b9250827fffffffffffffffffffffffffffffffffffffffffffffffffffffffffffffffff038211156136d8576136d7613040565b5b828201905092915050565b60006136ee826127ef565b9150600082141561370257613701613040565b5b600182039050919050565b7f4e487b7100000000000000000000000000000000000000000000000000000000600052603260045260246000fd5b7f456e756d657261626c655365743a20696e646578206f7574206f6620626f756e60008201527f6473000000000000000000000000000000000000000000000000000000000000602082015250565b600061379860228361273f565b91506137a38261373c565b604082019050919050565b600060208201905081810360008301526137c78161378b565b9050919050565b7f456e756d657261626c654d61703a20696e646578206f7574206f6620626f756e60008201527f6473000000000000000000000000000000000000000000000000000000000000602082015250565b600061382a60228361273f565b9150613835826137ce565b604082019050919050565b600060208201905081810360008301526138598161381d565b9050919050565b600081519050919050565b600082825260208201905092915050565b600061388782613860565b613891818561386b565b93506138a1818560208601612750565b6138aa81612783565b840191505092915050565b60006080820190506138ca6000830187612884565b6138d76020830186612884565b6138e4604083018561291a565b81810360608301526138f6818461387c565b905095945050505050565b600081519050613910816126a5565b92915050565b60006020828403121561392c5761392b61266f565b5b600061393a84828501613901565b91505092915050565b7f4e487b7100000000000000000000000000000000000000000000000000000000600052603160045260246000fd5b7f416464726573733a20696e73756666696369656e742062616c616e636520666f60008201527f722063616c6c0000000000000000000000000000000000000000000000000000602082015250565b60006139ce60268361273f565b91506139d982613972565b604082019050919050565b600060208201905081810360008301526139fd816139c1565b9050919050565b7f416464726573733a2063616c6c20746f206e6f6e2d636f6e7472616374000000600082015250565b6000613a3a601d8361273f565b9150613a4582613a04565b602082019050919050565b60006020820190508181036000830152613a6981613a2d565b9050919050565b600081905092915050565b6000613a8682613860565b613a908185613a70565b9350613aa0818560208601612750565b80840191505092915050565b6000613ab88284613a7b565b91508190509291505056fe4552433732313a207472616e7366657220746f206e6f6e20455243373231526563656976657220696d706c656d656e7465724552433732313a206f776e657220717565727920666f72206e6f6e6578697374656e7420746f6b656ea26469706673582212207a46efa5265500e2b934b8a0fd974697f53f82d1b8e3ea6edc7b828ccbab307d64736f6c634300080b0033",
  "immutableReferences": {},
  "source": "// SPDX-License-Identifier: MIT\npragma solidity >=0.8.0;\npragma abicoder v2;\n\n// import ERC721 iterface\nimport \"./ERC721.sol\";\n\n// CroSkulls smart contract inherits ERC721 interface\ncontract CroSkullsAmbassador is ERC721 {\n  using SafeMath for uint256;\n\n  string public collectionName;\n  string public collectionNameSymbol;\n  uint256 public croSkullCounter;\n  address public owner;\n\n  mapping(uint256 => CroSkull) public allCroSkulls;\n  mapping(address => uint256) public addressMintedBalance;\n\n  struct CroSkull {\n    uint256 tokenId;\n    address mintedBy;\n    address currentOwner;\n    address previousOwner;\n  }\n\n  modifier onlyOwner() {\n    require(msg.sender == owner);\n    _;\n  }\n\n  // initialize contract while deployment with contract's collection name and token\n  constructor( ) ERC721(\"CROSkullAmbassador\", \"CRA\") {\n    owner = msg.sender;\n    collectionName = name();\n    collectionNameSymbol = symbol();\n  }\n\n  function setBaseURI( string memory baseURI ) public onlyOwner {\n    _setBaseURI(baseURI);\n  }\n\n  // mint a new crypto boy\n  function adminMintCroSkull(uint256 _mintAmount, address _to ) onlyOwner external {\n    require(_to != address(0));\n    require(_mintAmount > 0);\n\n    uint256 supply = totalSupply();\n    \n    for (uint256 i = 1; i <= _mintAmount; i++) {\n      croSkullCounter++;\n      require(!_exists(croSkullCounter));\n\n      addressMintedBalance[_to]++;\n      _mint(_to, croSkullCounter);\n      CroSkull memory newCroSkull = CroSkull(\n        croSkullCounter,\n        msg.sender,\n        _to,\n        address(0)\n      );\n      allCroSkulls[croSkullCounter] = newCroSkull;\n    }\n  }\n\n  function getOwner() public view returns(address) {\n    return owner;\n  }\n\n  function getTokenOwner(uint256 _tokenId) public view returns(address) {\n    address _tokenOwner = ownerOf(_tokenId);\n    return _tokenOwner;\n  }\n\n  function getTokenMetaData(uint _tokenId) public view returns(string memory) {\n    string memory tokenMetaData = tokenURI(_tokenId);\n    return tokenMetaData;\n  }\n\n  function getNumberOfTokensMinted() public view returns(uint256) {\n    uint256 totalNumberOfTokensMinted = totalSupply();\n    return totalNumberOfTokensMinted;\n  }\n\n  function getTotalNumberOfTokensOwnedByAnAddress(address _owner) public view returns(uint256) {\n    uint256 totalNumberOfTokensOwned = balanceOf(_owner);\n    return totalNumberOfTokensOwned;\n  }\n\n  function getTokenExists(uint256 _tokenId) public view returns(bool) {\n    bool tokenExists = _exists(_tokenId);\n    return tokenExists;\n  }\n}",
  "sourcePath": "/Users/alessandrodecristofaro/Desktop/DeFi Code/cryptoboys-nft-marketplace/src/contracts/CroSkullsAmbassador.sol",
  "compiler": {
    "name": "solc",
    "version": "0.8.11+commit.d7f03943.Emscripten.clang"
  },
  "schemaVersion": "3.4.3",
  "updatedAt": "2022-02-03T13:01:50.015Z",
  "networkType": "ethereum",
  "devdoc": {
    "kind": "dev",
    "methods": {
      "approve(address,uint256)": {
        "details": "See {IERC721-approve}."
      },
      "balanceOf(address)": {
        "details": "See {IERC721-balanceOf}."
      },
      "baseURI()": {
        "details": "Returns the base URI set via {_setBaseURI}. This will be automatically added as a prefix in {tokenURI} to each token's URI, or to the token ID if no specific URI is set for that token ID."
      },
      "getApproved(uint256)": {
        "details": "See {IERC721-getApproved}."
      },
      "isApprovedForAll(address,address)": {
        "details": "See {IERC721-isApprovedForAll}."
      },
      "name()": {
        "details": "See {IERC721Metadata-name}."
      },
      "ownerOf(uint256)": {
        "details": "See {IERC721-ownerOf}."
      },
      "safeTransferFrom(address,address,uint256)": {
        "details": "See {IERC721-safeTransferFrom}."
      },
      "safeTransferFrom(address,address,uint256,bytes)": {
        "details": "See {IERC721-safeTransferFrom}."
      },
      "setApprovalForAll(address,bool)": {
        "details": "See {IERC721-setApprovalForAll}."
      },
      "supportsInterface(bytes4)": {
        "details": "See {IERC165-supportsInterface}. Time complexity O(1), guaranteed to always use less than 30 000 gas."
      },
      "symbol()": {
        "details": "See {IERC721Metadata-symbol}."
      },
      "tokenByIndex(uint256)": {
        "details": "See {IERC721Enumerable-tokenByIndex}."
      },
      "tokenOfOwnerByIndex(address,uint256)": {
        "details": "See {IERC721Enumerable-tokenOfOwnerByIndex}."
      },
      "tokenURI(uint256)": {
        "details": "See {IERC721Metadata-tokenURI}."
      },
      "totalSupply()": {
        "details": "See {IERC721Enumerable-totalSupply}."
      },
      "transferFrom(address,address,uint256)": {
        "details": "See {IERC721-transferFrom}."
      }
    },
    "version": 1
  },
  "userdoc": {
    "kind": "user",
    "methods": {},
    "version": 1
  }
}