{
  "contractName": "croSkullStaking",
  "abi": [
    {
      "inputs": [],
      "stateMutability": "nonpayable",
      "type": "constructor"
    },
    {
      "anonymous": false,
      "inputs": [
        {
          "indexed": true,
          "internalType": "address",
          "name": "user",
          "type": "address"
        },
        {
          "indexed": false,
          "internalType": "uint16",
          "name": "tokenId",
          "type": "uint16"
        }
      ],
      "name": "Stake",
      "type": "event"
    },
    {
      "anonymous": false,
      "inputs": [
        {
          "indexed": true,
          "internalType": "address",
          "name": "user",
          "type": "address"
        },
        {
          "indexed": false,
          "internalType": "uint256",
          "name": "amout",
          "type": "uint256"
        }
      ],
      "name": "Withdraw",
      "type": "event"
    },
    {
      "anonymous": false,
      "inputs": [
        {
          "indexed": true,
          "internalType": "address",
          "name": "user",
          "type": "address"
        },
        {
          "indexed": false,
          "internalType": "uint16",
          "name": "tokenId",
          "type": "uint16"
        }
      ],
      "name": "unStake",
      "type": "event"
    },
    {
      "inputs": [],
      "name": "croSkullContract",
      "outputs": [
        {
          "internalType": "contract IERC721",
          "name": "",
          "type": "address"
        }
      ],
      "stateMutability": "view",
      "type": "function",
      "constant": true
    },
    {
      "inputs": [],
      "name": "cycleInterval",
      "outputs": [
        {
          "internalType": "uint256",
          "name": "",
          "type": "uint256"
        }
      ],
      "stateMutability": "view",
      "type": "function",
      "constant": true
    },
    {
      "inputs": [],
      "name": "owner",
      "outputs": [
        {
          "internalType": "address",
          "name": "",
          "type": "address"
        }
      ],
      "stateMutability": "view",
      "type": "function",
      "constant": true
    },
    {
      "inputs": [],
      "name": "percentOperator",
      "outputs": [
        {
          "internalType": "uint256",
          "name": "",
          "type": "uint256"
        }
      ],
      "stateMutability": "view",
      "type": "function",
      "constant": true
    },
    {
      "inputs": [],
      "name": "poolRewardSupply",
      "outputs": [
        {
          "internalType": "uint256",
          "name": "",
          "type": "uint256"
        }
      ],
      "stateMutability": "view",
      "type": "function",
      "constant": true
    },
    {
      "inputs": [],
      "name": "poolWithdrawedAmount",
      "outputs": [
        {
          "internalType": "uint256",
          "name": "",
          "type": "uint256"
        }
      ],
      "stateMutability": "view",
      "type": "function",
      "constant": true
    },
    {
      "inputs": [],
      "name": "rewardToken",
      "outputs": [
        {
          "internalType": "contract IERC20",
          "name": "",
          "type": "address"
        }
      ],
      "stateMutability": "view",
      "type": "function",
      "constant": true
    },
    {
      "inputs": [
        {
          "internalType": "bytes32",
          "name": "",
          "type": "bytes32"
        }
      ],
      "name": "skullsOwner",
      "outputs": [
        {
          "internalType": "bool",
          "name": "",
          "type": "bool"
        }
      ],
      "stateMutability": "view",
      "type": "function",
      "constant": true
    },
    {
      "inputs": [],
      "name": "soulsDropInterval",
      "outputs": [
        {
          "internalType": "uint256",
          "name": "",
          "type": "uint256"
        }
      ],
      "stateMutability": "view",
      "type": "function",
      "constant": true
    },
    {
      "inputs": [],
      "name": "stakeMalusDuration",
      "outputs": [
        {
          "internalType": "uint256",
          "name": "",
          "type": "uint256"
        }
      ],
      "stateMutability": "view",
      "type": "function",
      "constant": true
    },
    {
      "inputs": [],
      "name": "stakeMalusFee",
      "outputs": [
        {
          "internalType": "uint256",
          "name": "",
          "type": "uint256"
        }
      ],
      "stateMutability": "view",
      "type": "function",
      "constant": true
    },
    {
      "inputs": [],
      "name": "stakedSkullsCount",
      "outputs": [
        {
          "internalType": "uint16",
          "name": "",
          "type": "uint16"
        }
      ],
      "stateMutability": "view",
      "type": "function",
      "constant": true
    },
    {
      "inputs": [],
      "name": "startStakeTimestamp",
      "outputs": [
        {
          "internalType": "uint256",
          "name": "",
          "type": "uint256"
        }
      ],
      "stateMutability": "view",
      "type": "function",
      "constant": true
    },
    {
      "inputs": [],
      "name": "started",
      "outputs": [
        {
          "internalType": "bool",
          "name": "",
          "type": "bool"
        }
      ],
      "stateMutability": "view",
      "type": "function",
      "constant": true
    },
    {
      "inputs": [
        {
          "internalType": "address",
          "name": "",
          "type": "address"
        }
      ],
      "name": "userDetails",
      "outputs": [
        {
          "internalType": "uint16",
          "name": "tokenCount",
          "type": "uint16"
        },
        {
          "internalType": "uint256",
          "name": "lastWithdrawTimestamp",
          "type": "uint256"
        },
        {
          "internalType": "uint256",
          "name": "startingStake",
          "type": "uint256"
        },
        {
          "internalType": "uint256",
          "name": "availableBalance",
          "type": "uint256"
        },
        {
          "internalType": "uint256",
          "name": "alreadyClaimed",
          "type": "uint256"
        },
        {
          "internalType": "bool",
          "name": "enabled",
          "type": "bool"
        }
      ],
      "stateMutability": "view",
      "type": "function",
      "constant": true
    },
    {
      "inputs": [],
      "name": "usersCount",
      "outputs": [
        {
          "internalType": "uint16",
          "name": "",
          "type": "uint16"
        }
      ],
      "stateMutability": "view",
      "type": "function",
      "constant": true
    },
    {
      "inputs": [],
      "name": "vestingDuration",
      "outputs": [
        {
          "internalType": "uint256",
          "name": "",
          "type": "uint256"
        }
      ],
      "stateMutability": "view",
      "type": "function",
      "constant": true
    },
    {
      "inputs": [],
      "name": "withdrawEnabled",
      "outputs": [
        {
          "internalType": "bool",
          "name": "",
          "type": "bool"
        }
      ],
      "stateMutability": "view",
      "type": "function",
      "constant": true
    },
    {
      "inputs": [],
      "name": "toggleWithdrawSouls",
      "outputs": [],
      "stateMutability": "nonpayable",
      "type": "function"
    },
    {
      "inputs": [],
      "name": "adminUnlock",
      "outputs": [],
      "stateMutability": "nonpayable",
      "type": "function"
    },
    {
      "inputs": [
        {
          "internalType": "uint16",
          "name": "_tokenId",
          "type": "uint16"
        },
        {
          "internalType": "address",
          "name": "_ownerOf",
          "type": "address"
        }
      ],
      "name": "adminUnstake",
      "outputs": [],
      "stateMutability": "nonpayable",
      "type": "function"
    },
    {
      "inputs": [],
      "name": "startRewards",
      "outputs": [],
      "stateMutability": "nonpayable",
      "type": "function"
    },
    {
      "inputs": [],
      "name": "fundRewardPool",
      "outputs": [],
      "stateMutability": "nonpayable",
      "type": "function"
    },
    {
      "inputs": [],
      "name": "adminBurnUnvested",
      "outputs": [],
      "stateMutability": "nonpayable",
      "type": "function"
    },
    {
      "inputs": [
        {
          "internalType": "contract IERC721",
          "name": "_nftContract",
          "type": "address"
        }
      ],
      "name": "setNFTAddress",
      "outputs": [],
      "stateMutability": "nonpayable",
      "type": "function"
    },
    {
      "inputs": [
        {
          "internalType": "contract IERC20",
          "name": "_tokenAddress",
          "type": "address"
        }
      ],
      "name": "setTokenAddress",
      "outputs": [],
      "stateMutability": "nonpayable",
      "type": "function"
    },
    {
      "inputs": [],
      "name": "_rewardPerCycles",
      "outputs": [
        {
          "internalType": "uint256",
          "name": "",
          "type": "uint256"
        }
      ],
      "stateMutability": "view",
      "type": "function",
      "constant": true
    },
    {
      "inputs": [
        {
          "internalType": "uint16[]",
          "name": "_tokenIds",
          "type": "uint16[]"
        }
      ],
      "name": "batchStakeSkulls",
      "outputs": [],
      "stateMutability": "nonpayable",
      "type": "function"
    },
    {
      "inputs": [
        {
          "internalType": "uint16[]",
          "name": "_tokenIds",
          "type": "uint16[]"
        }
      ],
      "name": "batchUnstakeSkulls",
      "outputs": [],
      "stateMutability": "nonpayable",
      "type": "function"
    },
    {
      "inputs": [
        {
          "internalType": "uint16",
          "name": "_tokenId",
          "type": "uint16"
        }
      ],
      "name": "stakeSkull",
      "outputs": [],
      "stateMutability": "nonpayable",
      "type": "function"
    },
    {
      "inputs": [
        {
          "internalType": "uint16",
          "name": "_tokenId",
          "type": "uint16"
        }
      ],
      "name": "unstakeSkull",
      "outputs": [],
      "stateMutability": "nonpayable",
      "type": "function"
    },
    {
      "inputs": [],
      "name": "withdraw",
      "outputs": [],
      "stateMutability": "nonpayable",
      "type": "function"
    },
    {
      "inputs": [],
      "name": "_tenSecCyclesPassed",
      "outputs": [
        {
          "internalType": "uint256",
          "name": "",
          "type": "uint256"
        }
      ],
      "stateMutability": "view",
      "type": "function",
      "constant": true
    },
    {
      "inputs": [],
      "name": "_tenSecCyclesPassedLastWithdraw",
      "outputs": [
        {
          "internalType": "uint256",
          "name": "",
          "type": "uint256"
        }
      ],
      "stateMutability": "view",
      "type": "function",
      "constant": true
    },
    {
      "inputs": [],
      "name": "calculateDroppedSouls",
      "outputs": [
        {
          "internalType": "uint256",
          "name": "",
          "type": "uint256"
        }
      ],
      "stateMutability": "view",
      "type": "function",
      "constant": true
    },
    {
      "inputs": [],
      "name": "daysSinceLastWithdraw",
      "outputs": [
        {
          "internalType": "uint256",
          "name": "",
          "type": "uint256"
        },
        {
          "internalType": "uint256",
          "name": "",
          "type": "uint256"
        }
      ],
      "stateMutability": "view",
      "type": "function",
      "constant": true
    },
    {
      "inputs": [],
      "name": "calculateMalusFee",
      "outputs": [
        {
          "internalType": "uint256",
          "name": "",
          "type": "uint256"
        }
      ],
      "stateMutability": "view",
      "type": "function",
      "constant": true
    },
    {
      "inputs": [],
      "name": "calculateRewardsPlusMalus",
      "outputs": [
        {
          "internalType": "uint256",
          "name": "",
          "type": "uint256"
        }
      ],
      "stateMutability": "view",
      "type": "function",
      "constant": true
    },
    {
      "inputs": [],
      "name": "calculateRewards",
      "outputs": [
        {
          "internalType": "uint256",
          "name": "",
          "type": "uint256"
        }
      ],
      "stateMutability": "view",
      "type": "function",
      "constant": true
    },
    {
      "inputs": [],
      "name": "getTokensIds",
      "outputs": [
        {
          "internalType": "uint16[]",
          "name": "",
          "type": "uint16[]"
        }
      ],
      "stateMutability": "view",
      "type": "function",
      "constant": true
    },
    {
      "inputs": [
        {
          "internalType": "uint16",
          "name": "_tokenId",
          "type": "uint16"
        }
      ],
      "name": "checkOwnership",
      "outputs": [
        {
          "internalType": "bool",
          "name": "",
          "type": "bool"
        }
      ],
      "stateMutability": "view",
      "type": "function",
      "constant": true
    },
    {
      "inputs": [
        {
          "internalType": "address",
          "name": "",
          "type": "address"
        },
        {
          "internalType": "address",
          "name": "",
          "type": "address"
        },
        {
          "internalType": "uint256",
          "name": "",
          "type": "uint256"
        },
        {
          "internalType": "bytes",
          "name": "",
          "type": "bytes"
        }
      ],
      "name": "onERC721Received",
      "outputs": [
        {
          "internalType": "bytes4",
          "name": "",
          "type": "bytes4"
        }
      ],
      "stateMutability": "nonpayable",
      "type": "function"
    },
    {
      "inputs": [],
      "name": "approvalStatus",
      "outputs": [
        {
          "internalType": "bool",
          "name": "",
          "type": "bool"
        }
      ],
      "stateMutability": "view",
      "type": "function",
      "constant": true
    },
    {
      "inputs": [
        {
          "internalType": "uint16",
          "name": "_tokenId",
          "type": "uint16"
        },
        {
          "internalType": "address",
          "name": "_from",
          "type": "address"
        }
      ],
      "name": "getTokenIndex",
      "outputs": [
        {
          "internalType": "uint256",
          "name": "",
          "type": "uint256"
        }
      ],
      "stateMutability": "view",
      "type": "function",
      "constant": true
    }
  ],
  "bytecode": "0x6080604052611a0a600260146101000a81548161ffff021916908361ffff1602179055506103e86003556283d600600755600a60085562278d00600955622a3000600a556050600b5534801561005457600080fd5b50336000806101000a81548173ffffffffffffffffffffffffffffffffffffffff021916908373ffffffffffffffffffffffffffffffffffffffff160217905550600060068190555060008060166101000a81548161ffff021916908361ffff16021790555060008060196101000a81548160ff02191690831515021790555061434a806100e36000396000f3fe608060405234801561001057600080fd5b50600436106102735760003560e01c80636ba13a82116101515780639ec9f744116100c3578063cec7cf9011610087578063cec7cf90146106a2578063d7aee189146106c0578063e74feb77146106f0578063f7c618c114610720578063fde5b04f1461073e578063ffbfe1531461075c57610273565b80639ec9f744146106225780639fa5e99614610652578063a7f5730514610670578063c0f72cf21461067a578063c861d9f91461069857610273565b8063785b4a7611610115578063785b4a7614610570578063795602831461058c57806379a1cb95146105aa57806383ac5fc5146105c85780638da5cb5b146105e657806399249f821461060457610273565b80636ba13a82146104d95780636e17e3ee146104f75780636ec999a6146105155780637408fc2b14610533578063741514741461055157610273565b806335efedc3116101ea57806348dec2a7116101ae57806348dec2a7146104125780634dd6705c146104475780636145ca021461046357806363a53e4814610481578063687c4a5b1461049f57806369d03738146104bd57610273565b806335efedc3146103925780633b26156e146103ae5780633ccfd60b146103cc5780633e50de30146103d657806342d2b70f146103f457610273565b80631514617e1161023c5780631514617e146103085780631f2698ab1461032657806320828339146103445780632287e96a1461034e57806326a4e8d21461036c5780632dfd0bdc1461038857610273565b8062d799a01461027857806305320be81461029657806305715cc0146102a057806305dd7807146102bc578063150b7a02146102d8575b600080fd5b61028061077a565b60405161028d91906132a4565b60405180910390f35b61029e610780565b005b6102ba60048036038101906102b59190613466565b61083a565b005b6102d660048036038101906102d191906134af565b6109a7565b005b6102f260048036038101906102ed919061361b565b610b8f565b6040516102ff91906136d9565b60405180910390f35b610310610ba3565b60405161031d91906132a4565b60405180910390f35b61032e610ba9565b60405161033b919061370f565b60405180910390f35b61034c610bbc565b005b610356610cee565b604051610363919061370f565b60405180910390f35b61038660048036038101906103819190613768565b610d01565b005b610390610dd3565b005b6103ac60048036038101906103a791906134af565b610eca565b005b6103b6610fef565b6040516103c391906132a4565b60405180910390f35b6103d4610ff5565b005b6103de6113bf565b6040516103eb91906132a4565b60405180910390f35b6103fc61154b565b60405161040991906132a4565b60405180910390f35b61042c60048036038101906104279190613795565b611551565b60405161043e969594939291906137d1565b60405180910390f35b610461600480360381019061045c9190613466565b6115a8565b005b61046b61174b565b604051610478919061370f565b60405180910390f35b6104896117f0565b6040516104969190613832565b60405180910390f35b6104a7611804565b6040516104b491906132a4565b60405180910390f35b6104d760048036038101906104d2919061388b565b61180a565b005b6104e16118dc565b6040516104ee9190613832565b60405180910390f35b6104ff6118f0565b60405161050c9190613917565b60405180910390f35b61051d611916565b60405161052a91906132a4565b60405180910390f35b61053b6119d3565b60405161054891906139f0565b60405180910390f35b610559611b11565b604051610567929190613a12565b60405180910390f35b61058a60048036038101906105859190613a3b565b611c01565b005b610594611c9d565b6040516105a191906132a4565b60405180910390f35b6105b2611ca3565b6040516105bf91906132a4565b60405180910390f35b6105d0611ca9565b6040516105dd91906132a4565b60405180910390f35b6105ee611d9a565b6040516105fb9190613a8a565b60405180910390f35b61060c611dbe565b60405161061991906132a4565b60405180910390f35b61063c60048036038101906106379190613adb565b611e81565b604051610649919061370f565b60405180910390f35b61065a611ea1565b60405161066791906132a4565b60405180910390f35b610678611ea7565b005b610682611f7a565b60405161068f91906132a4565b60405180910390f35b6106a0611f80565b005b6106aa61218e565b6040516106b791906132a4565b60405180910390f35b6106da60048036038101906106d591906134af565b61231b565b6040516106e7919061370f565b60405180910390f35b61070a60048036038101906107059190613a3b565b612378565b60405161071791906132a4565b60405180910390f35b61072861249d565b6040516107359190613b29565b60405180910390f35b6107466124c3565b60405161075391906132a4565b60405180910390f35b6107646124fa565b60405161077191906132a4565b60405180910390f35b60065481565b60008054906101000a900473ffffffffffffffffffffffffffffffffffffffff1673ffffffffffffffffffffffffffffffffffffffff163373ffffffffffffffffffffffffffffffffffffffff161461080e576040517f08c379a000000000000000000000000000000000000000000000000000000000815260040161080590613ba1565b60405180910390fd5b600060199054906101000a900460ff1615600060196101000a81548160ff021916908315150217905550565b61084261174b565b610881576040517f08c379a000000000000000000000000000000000000000000000000000000000815260040161087890613c33565b60405180910390fd5b6000600654116108c6576040517f08c379a00000000000000000000000000000000000000000000000000000000081526004016108bd90613c9f565b60405180910390fd5b600c60009054906101000a900460ff1615610916576040517f08c379a000000000000000000000000000000000000000000000000000000000815260040161090d90613d0b565b60405180910390fd5b6001600c60006101000a81548160ff0219169083151502179055506000339050600082511161094457600080fd5b60005b8251811015610987576109748284838151811061096757610966613d2b565b5b602002602001015161263a565b808061097f90613d89565b915050610947565b50506000600c60006101000a81548160ff02191690831515021790555050565b6109af61174b565b6109ee576040517f08c379a00000000000000000000000000000000000000000000000000000000081526004016109e590613c33565b60405180910390fd5b600060065411610a33576040517f08c379a0000000000000000000000000000000000000000000000000000000008152600401610a2a90613c9f565b60405180910390fd5b600c60009054906101000a900460ff1615610a83576040517f08c379a0000000000000000000000000000000000000000000000000000000008152600401610a7a90613d0b565b60405180910390fd5b6001600c60006101000a81548160ff02191690831515021790555060003390506000600d60008373ffffffffffffffffffffffffffffffffffffffff1673ffffffffffffffffffffffffffffffffffffffff168152602001908152602001600020905060008160000160009054906101000a900461ffff1661ffff16905060008111610b44576040517f08c379a0000000000000000000000000000000000000000000000000000000008152600401610b3b90613e1e565b60405180910390fd5b60008260000160009054906101000a900461ffff1661ffff161115610b6e57610b6d8385612af3565b5b5050506000600c60006101000a81548160ff02191690831515021790555050565b600063150b7a0260e01b9050949350505050565b60075481565b600060189054906101000a900460ff1681565b60008054906101000a900473ffffffffffffffffffffffffffffffffffffffff1673ffffffffffffffffffffffffffffffffffffffff163373ffffffffffffffffffffffffffffffffffffffff1614610c4a576040517f08c379a0000000000000000000000000000000000000000000000000000000008152600401610c4190613ba1565b60405180910390fd5b600160009054906101000a900473ffffffffffffffffffffffffffffffffffffffff1673ffffffffffffffffffffffffffffffffffffffff166370a08231306040518263ffffffff1660e01b8152600401610ca59190613a8a565b602060405180830381865afa158015610cc2573d6000803e3d6000fd5b505050506040513d601f19601f82011682018060405250810190610ce69190613e53565b600481905550565b600060199054906101000a900460ff1681565b60008054906101000a900473ffffffffffffffffffffffffffffffffffffffff1673ffffffffffffffffffffffffffffffffffffffff163373ffffffffffffffffffffffffffffffffffffffff1614610d8f576040517f08c379a0000000000000000000000000000000000000000000000000000000008152600401610d8690613ba1565b60405180910390fd5b80600160006101000a81548173ffffffffffffffffffffffffffffffffffffffff021916908373ffffffffffffffffffffffffffffffffffffffff16021790555050565b60008054906101000a900473ffffffffffffffffffffffffffffffffffffffff1673ffffffffffffffffffffffffffffffffffffffff163373ffffffffffffffffffffffffffffffffffffffff1614610e61576040517f08c379a0000000000000000000000000000000000000000000000000000000008152600401610e5890613ba1565b60405180910390fd5b600060065414610ea6576040517f08c379a0000000000000000000000000000000000000000000000000000000008152600401610e9d90613ea6565b60405180910390fd5b426006819055506001600060186101000a81548160ff021916908315150217905550565b610ed261174b565b610f11576040517f08c379a0000000000000000000000000000000000000000000000000000000008152600401610f0890613c33565b60405180910390fd5b600060065411610f56576040517f08c379a0000000000000000000000000000000000000000000000000000000008152600401610f4d90613c9f565b60405180910390fd5b600c60009054906101000a900460ff1615610fa6576040517f08c379a0000000000000000000000000000000000000000000000000000000008152600401610f9d90613d0b565b60405180910390fd5b6001600c60006101000a81548160ff0219169083151502179055506000339050610fd0818361263a565b506000600c60006101000a81548160ff02191690831515021790555050565b60085481565b610ffd61174b565b61103c576040517f08c379a000000000000000000000000000000000000000000000000000000000815260040161103390613c33565b60405180910390fd5b600c60009054906101000a900460ff161561108c576040517f08c379a000000000000000000000000000000000000000000000000000000000815260040161108390613d0b565b60405180910390fd5b6001600c60006101000a81548160ff02191690831515021790555060003390506000600d60008373ffffffffffffffffffffffffffffffffffffffff1673ffffffffffffffffffffffffffffffffffffffff16815260200190815260200160002060030154116110fb57600080fd5b6000611105611ca9565b905080600160009054906101000a900473ffffffffffffffffffffffffffffffffffffffff1673ffffffffffffffffffffffffffffffffffffffff166370a08231306040518263ffffffff1660e01b81526004016111639190613a8a565b602060405180830381865afa158015611180573d6000803e3d6000fd5b505050506040513d601f19601f820116820180604052508101906111a49190613e53565b10156111af57600080fd5b600160009054906101000a900473ffffffffffffffffffffffffffffffffffffffff1673ffffffffffffffffffffffffffffffffffffffff1663a9059cbb83836040518363ffffffff1660e01b815260040161120c929190613ec6565b6020604051808303816000875af115801561122b573d6000803e3d6000fd5b505050506040513d601f19601f8201168201806040525081019061124f9190613f1b565b61125857600080fd5b806005600082825461126a9190613f48565b9250508190555042600d60008473ffffffffffffffffffffffffffffffffffffffff1673ffffffffffffffffffffffffffffffffffffffff1681526020019081526020016000206002018190555042600d60008473ffffffffffffffffffffffffffffffffffffffff1673ffffffffffffffffffffffffffffffffffffffff1681526020019081526020016000206003018190555080600d60008473ffffffffffffffffffffffffffffffffffffffff1673ffffffffffffffffffffffffffffffffffffffff16815260200190815260200160002060050160008282546113519190613f48565b925050819055506000600d60008473ffffffffffffffffffffffffffffffffffffffff1673ffffffffffffffffffffffffffffffffffffffff1681526020019081526020016000206004018190555050506000600c60006101000a81548160ff021916908315150217905550565b60006113c961174b565b611408576040517f08c379a00000000000000000000000000000000000000000000000000000000081526004016113ff90613c33565b60405180910390fd5b60006006541161144d576040517f08c379a000000000000000000000000000000000000000000000000000000000815260040161144490613c9f565b60405180910390fd5b6000600d60003373ffffffffffffffffffffffffffffffffffffffff1673ffffffffffffffffffffffffffffffffffffffff168152602001908152602001600020905060008160000160009054906101000a900461ffff16905060008260040154905060006114ba611dbe565b905060006114c66124c3565b905060006114f1600260149054906101000a900461ffff1661ffff1683612e4b90919063ffffffff16565b9050600061150c8661ffff1683612e6190919063ffffffff16565b905060006115238583612e6190919063ffffffff16565b9050600061153a8783612e7790919063ffffffff16565b905080995050505050505050505090565b60095481565b600d6020528060005260406000206000915090508060000160009054906101000a900461ffff16908060020154908060030154908060040154908060050154908060060160009054906101000a900460ff16905086565b6115b061174b565b6115ef576040517f08c379a00000000000000000000000000000000000000000000000000000000081526004016115e690613c33565b60405180910390fd5b600060065411611634576040517f08c379a000000000000000000000000000000000000000000000000000000000815260040161162b90613c9f565b60405180910390fd5b600c60009054906101000a900460ff1615611684576040517f08c379a000000000000000000000000000000000000000000000000000000000815260040161167b90613d0b565b60405180910390fd5b6001600c60006101000a81548160ff021916908315150217905550600033905060008251116116e8576040517f08c379a00000000000000000000000000000000000000000000000000000000081526004016116df90613fea565b60405180910390fd5b60005b825181101561172b576117188284838151811061170b5761170a613d2b565b5b6020026020010151612af3565b808061172390613d89565b9150506116eb565b50506000600c60006101000a81548160ff02191690831515021790555050565b6000600260009054906101000a900473ffffffffffffffffffffffffffffffffffffffff1673ffffffffffffffffffffffffffffffffffffffff1663e985e9c533306040518363ffffffff1660e01b81526004016117aa92919061400a565b602060405180830381865afa1580156117c7573d6000803e3d6000fd5b505050506040513d601f19601f820116820180604052508101906117eb9190613f1b565b905090565b600060149054906101000a900461ffff1681565b600b5481565b60008054906101000a900473ffffffffffffffffffffffffffffffffffffffff1673ffffffffffffffffffffffffffffffffffffffff163373ffffffffffffffffffffffffffffffffffffffff1614611898576040517f08c379a000000000000000000000000000000000000000000000000000000000815260040161188f90613ba1565b60405180910390fd5b80600260006101000a81548173ffffffffffffffffffffffffffffffffffffffff021916908373ffffffffffffffffffffffffffffffffffffffff16021790555050565b600060169054906101000a900461ffff1681565b600260009054906101000a900473ffffffffffffffffffffffffffffffffffffffff1681565b600061192061174b565b61195f576040517f08c379a000000000000000000000000000000000000000000000000000000000815260040161195690613c33565b60405180910390fd5b60006006541161196e57600080fd5b6000600a600d60003373ffffffffffffffffffffffffffffffffffffffff1673ffffffffffffffffffffffffffffffffffffffff16815260200190815260200160002060020154426119c09190614033565b6119ca9190614096565b90508091505090565b60606000600d60003373ffffffffffffffffffffffffffffffffffffffff1673ffffffffffffffffffffffffffffffffffffffff1681526020019081526020016000206040518060e00160405290816000820160009054906101000a900461ffff1661ffff1661ffff16815260200160018201805480602002602001604051908101604052809291908181526020018280548015611ab857602002820191906000526020600020906000905b82829054906101000a900461ffff1661ffff1681526020019060020190602082600101049283019260010382029150808411611a7f5790505b50505050508152602001600282015481526020016003820154815260200160048201548152602001600582015481526020016006820160009054906101000a900460ff1615151515815250509050806020015191505090565b600080611b1c61174b565b611b5b576040517f08c379a0000000000000000000000000000000000000000000000000000000008152600401611b5290613c33565b60405180910390fd5b600060065411611ba0576040517f08c379a0000000000000000000000000000000000000000000000000000000008152600401611b9790613c9f565b60405180910390fd5b6000611baa611916565b90506000611bc360085483612e6190919063ffffffff16565b9050600081620151801115611bdb5760009050611bf4565b611bf16201518083612e4b90919063ffffffff16565b90505b8082945094505050509091565b60008054906101000a900473ffffffffffffffffffffffffffffffffffffffff1673ffffffffffffffffffffffffffffffffffffffff163373ffffffffffffffffffffffffffffffffffffffff1614611c8f576040517f08c379a0000000000000000000000000000000000000000000000000000000008152600401611c8690613ba1565b60405180910390fd5b611c998183612af3565b5050565b600a5481565b60045481565b6000611cb361174b565b611cf2576040517f08c379a0000000000000000000000000000000000000000000000000000000008152600401611ce990613c33565b60405180910390fd5b600060065411611d37576040517f08c379a0000000000000000000000000000000000000000000000000000000008152600401611d2e90613c9f565b60405180910390fd5b6000611d4161218e565b90506000611d4d6113bf565b90506000611d7783611d69606485612e4b90919063ffffffff16565b612e6190919063ffffffff16565b90506000611d8e8284612e8d90919063ffffffff16565b90508094505050505090565b60008054906101000a900473ffffffffffffffffffffffffffffffffffffffff1681565b6000611dc861174b565b611e07576040517f08c379a0000000000000000000000000000000000000000000000000000000008152600401611dfe90613c33565b60405180910390fd5b600060065411611e1657600080fd5b60004290506000600a600d60003373ffffffffffffffffffffffffffffffffffffffff1673ffffffffffffffffffffffffffffffffffffffff1681526020019081526020016000206003015442611e6d9190614033565b611e779190614096565b9050809250505090565b600e6020528060005260406000206000915054906101000a900460ff1681565b60035481565b60008054906101000a900473ffffffffffffffffffffffffffffffffffffffff1673ffffffffffffffffffffffffffffffffffffffff163373ffffffffffffffffffffffffffffffffffffffff1614611f35576040517f08c379a0000000000000000000000000000000000000000000000000000000008152600401611f2c90613ba1565b60405180910390fd5b600c60009054906101000a900460ff16611f4e57600080fd5b600c60009054906101000a900460ff1615600c60006101000a81548160ff021916908315150217905550565b60055481565b60008054906101000a900473ffffffffffffffffffffffffffffffffffffffff1673ffffffffffffffffffffffffffffffffffffffff163373ffffffffffffffffffffffffffffffffffffffff161461200e576040517f08c379a000000000000000000000000000000000000000000000000000000000815260040161200590613ba1565b60405180910390fd5b60006006541161201d57600080fd5b6000600160009054906101000a900473ffffffffffffffffffffffffffffffffffffffff1673ffffffffffffffffffffffffffffffffffffffff166370a08231306040518263ffffffff1660e01b815260040161207a9190613a8a565b602060405180830381865afa158015612097573d6000803e3d6000fd5b505050506040513d601f19601f820116820180604052508101906120bb9190613e53565b9050600081116120ca57600080fd5b600160009054906101000a900473ffffffffffffffffffffffffffffffffffffffff1673ffffffffffffffffffffffffffffffffffffffff1663a9059cbb60008054906101000a900473ffffffffffffffffffffffffffffffffffffffff16836040518363ffffffff1660e01b8152600401612147929190613ec6565b6020604051808303816000875af1158015612166573d6000803e3d6000fd5b505050506040513d601f19601f8201168201806040525081019061218a9190613f1b565b5050565b600061219861174b565b6121d7576040517f08c379a00000000000000000000000000000000000000000000000000000000081526004016121ce90613c33565b60405180910390fd5b60006006541161221c576040517f08c379a000000000000000000000000000000000000000000000000000000000815260040161221390613c9f565b60405180910390fd5b600080612227611b11565b915091506000600a5482101561231257600061225162015180600a54612e4b90919063ffffffff16565b905060006122688583612e8d90919063ffffffff16565b905060006122ba6003546122ac606461229e8761229060035489612e6190919063ffffffff16565b612e4b90919063ffffffff16565b612e6190919063ffffffff16565b612e4b90919063ffffffff16565b905061230c6003546122fe836122f060646122e2600354600b54612e6190919063ffffffff16565b612e4b90919063ffffffff16565b612e6190919063ffffffff16565b612e4b90919063ffffffff16565b93505050505b80935050505090565b6000803383604051602001612331929190614145565b6040516020818303038152906040528051906020012090506000600e600083815260200190815260200160002060009054906101000a900460ff1690508092505050919050565b600080600090506000600d60008573ffffffffffffffffffffffffffffffffffffffff1673ffffffffffffffffffffffffffffffffffffffff16815260200190815260200160002060010180548060200260200160405190810160405280929190818152602001828054801561243557602002820191906000526020600020906000905b82829054906101000a900461ffff1661ffff16815260200190600201906020826001010492830192600103820291508084116123fc5790505b5050505050905060005b81518110156124905781818151811061245b5761245a613d2b565b5b602002602001015161ffff168661ffff16141561247d57809350505050612497565b808061248890613d89565b91505061243f565b5081925050505b92915050565b600160009054906101000a900473ffffffffffffffffffffffffffffffffffffffff1681565b6000806124f16008546124e3600754600454612e4b90919063ffffffff16565b612e6190919063ffffffff16565b90508091505090565b600061250461174b565b612543576040517f08c379a000000000000000000000000000000000000000000000000000000000815260040161253a90613c33565b60405180910390fd5b600060065411612588576040517f08c379a000000000000000000000000000000000000000000000000000000000815260040161257f90613c9f565b60405180910390fd5b6000600d60003373ffffffffffffffffffffffffffffffffffffffff1673ffffffffffffffffffffffffffffffffffffffff168152602001908152602001600020905060008160000160009054906101000a900461ffff16905060006125ff600a6125f1611916565b612e6190919063ffffffff16565b9050600061262e8361ffff1661262060095485612e4b90919063ffffffff16565b612e6190919063ffffffff16565b90508094505050505090565b6000828260405160200161264f929190614145565b6040516020818303038152906040528051906020012090508273ffffffffffffffffffffffffffffffffffffffff16600260009054906101000a900473ffffffffffffffffffffffffffffffffffffffff1673ffffffffffffffffffffffffffffffffffffffff16636352211e846040518263ffffffff1660e01b81526004016126d991906141a2565b602060405180830381865afa1580156126f6573d6000803e3d6000fd5b505050506040513d601f19601f8201168201806040525081019061271a91906141d2565b73ffffffffffffffffffffffffffffffffffffffff161461273b5750612aef565b6000600d60008573ffffffffffffffffffffffffffffffffffffffff1673ffffffffffffffffffffffffffffffffffffffff168152602001908152602001600020905060008160000160009054906101000a900461ffff1661ffff161480156127a8575060008160020154145b1561281d574281600201819055506000816004018190555060018160060160006101000a81548160ff0219169083151502179055506000601681819054906101000a900461ffff16809291906127fd906141ff565b91906101000a81548161ffff021916908361ffff16021790555050612834565b60006128276113bf565b9050808260040181905550505b428160030181905550806001018390806001815401808255809150506001900390600052602060002090601091828204019190066002029091909190916101000a81548161ffff021916908361ffff16021790555080600001600081819054906101000a900461ffff16809291906128ab906141ff565b91906101000a81548161ffff021916908361ffff1602179055505080600d60008673ffffffffffffffffffffffffffffffffffffffff1673ffffffffffffffffffffffffffffffffffffffff1681526020019081526020016000206000820160009054906101000a900461ffff168160000160006101000a81548161ffff021916908361ffff160217905550600182018160010190805461294d929190613104565b50600282015481600201556003820154816003015560048201548160040155600582015481600501556006820160009054906101000a900460ff168160060160006101000a81548160ff0219169083151502179055509050506001600e600084815260200190815260200160002060006101000a81548160ff0219169083151502179055506000601481819054906101000a900461ffff16809291906129f2906141ff565b91906101000a81548161ffff021916908361ffff16021790555050600260009054906101000a900473ffffffffffffffffffffffffffffffffffffffff1673ffffffffffffffffffffffffffffffffffffffff166323b872dd8530866040518463ffffffff1660e01b8152600401612a6c9392919061422a565b600060405180830381600087803b158015612a8657600080fd5b505af1158015612a9a573d6000803e3d6000fd5b505050508373ffffffffffffffffffffffffffffffffffffffff167f9a2f579c219eb1955c7485729ed1260d94d6e9f49d593852f6589f9d01041ab184604051612ae49190613832565b60405180910390a250505b5050565b60008282604051602001612b08929190614145565b604051602081830303815290604052805190602001209050600e600082815260200190815260200160002060009054906101000a900460ff1615612e46576000612b506113bf565b905080600d60008673ffffffffffffffffffffffffffffffffffffffff1673ffffffffffffffffffffffffffffffffffffffff16815260200190815260200160002060040181905550600d60008573ffffffffffffffffffffffffffffffffffffffff1673ffffffffffffffffffffffffffffffffffffffff168152602001908152602001600020600001600081819054906101000a900461ffff1680929190612bf990614261565b91906101000a81548161ffff021916908361ffff1602179055505042600d60008673ffffffffffffffffffffffffffffffffffffffff1673ffffffffffffffffffffffffffffffffffffffff16815260200190815260200160002060030181905550600260009054906101000a900473ffffffffffffffffffffffffffffffffffffffff1673ffffffffffffffffffffffffffffffffffffffff166323b872dd3086866040518463ffffffff1660e01b8152600401612cba9392919061422a565b600060405180830381600087803b158015612cd457600080fd5b505af1158015612ce8573d6000803e3d6000fd5b505050506000600e600084815260200190815260200160002060006101000a81548160ff0219169083151502179055506000601481819054906101000a900461ffff1680929190612d3890614261565b91906101000a81548161ffff021916908361ffff160217905550506000600d60008673ffffffffffffffffffffffffffffffffffffffff1673ffffffffffffffffffffffffffffffffffffffff16815260200190815260200160002060000160009054906101000a900461ffff1661ffff161415612dec576000601681819054906101000a900461ffff1680929190612dd090614261565b91906101000a81548161ffff021916908361ffff160217905550505b612df68385612ea3565b8373ffffffffffffffffffffffffffffffffffffffff167f56853f8f6e1153ce606e228ce2f7f10ccf941a927cda730647d5f8006abcd93a84604051612e3c9190613832565b60405180910390a2505b505050565b60008183612e599190614096565b905092915050565b60008183612e6f919061428b565b905092915050565b60008183612e859190613f48565b905092915050565b60008183612e9b9190614033565b905092915050565b6000600d60008373ffffffffffffffffffffffffffffffffffffffff1673ffffffffffffffffffffffffffffffffffffffff168152602001908152602001600020600101905060018180549050148015612f3b57508261ffff1681600081548110612f1157612f10613d2b565b5b90600052602060002090601091828204019190066002029054906101000a900461ffff1661ffff16145b15612f9b57606080600d60008573ffffffffffffffffffffffffffffffffffffffff1673ffffffffffffffffffffffffffffffffffffffff1681526020019081526020016000206001019080519060200190612f98929190613164565b50505b6000612fa78484612378565b905081805490508110156130fe5760008190505b60018380549050612fcc9190614033565b81101561306b5782600182612fe19190613f48565b81548110612ff257612ff1613d2b565b5b90600052602060002090601091828204019190066002029054906101000a900461ffff1683828154811061302957613028613d2b565b5b90600052602060002090601091828204019190066002026101000a81548161ffff021916908361ffff160217905550808061306390613d89565b915050612fbb565b508180548061307d5761307c6142e5565b5b60019003818190600052602060002090601091828204019190066002026101000a81549061ffff0219169055905581600d60008573ffffffffffffffffffffffffffffffffffffffff1673ffffffffffffffffffffffffffffffffffffffff1681526020019081526020016000206001019080546130fc92919061320e565b505b50505050565b82805482825590600052602060002090600f0160109004810192821561315357600052602060002091600f016010900482015b82811115613152578254825591600101919060010190613137565b5b509050613160919061326e565b5090565b82805482825590600052602060002090600f016010900481019282156131fd5791602002820160005b838211156131cd57835183826101000a81548161ffff021916908361ffff160217905550926020019260020160208160010104928301926001030261318d565b80156131fb5782816101000a81549061ffff02191690556002016020816001010492830192600103026131cd565b505b50905061320a919061326e565b5090565b82805482825590600052602060002090600f0160109004810192821561325d57600052602060002091600f016010900482015b8281111561325c578254825591600101919060010190613241565b5b50905061326a919061326e565b5090565b5b8082111561328757600081600090555060010161326f565b5090565b6000819050919050565b61329e8161328b565b82525050565b60006020820190506132b96000830184613295565b92915050565b6000604051905090565b600080fd5b600080fd5b600080fd5b6000601f19601f8301169050919050565b7f4e487b7100000000000000000000000000000000000000000000000000000000600052604160045260246000fd5b613321826132d8565b810181811067ffffffffffffffff821117156133405761333f6132e9565b5b80604052505050565b60006133536132bf565b905061335f8282613318565b919050565b600067ffffffffffffffff82111561337f5761337e6132e9565b5b602082029050602081019050919050565b600080fd5b600061ffff82169050919050565b6133ac81613395565b81146133b757600080fd5b50565b6000813590506133c9816133a3565b92915050565b60006133e26133dd84613364565b613349565b9050808382526020820190506020840283018581111561340557613404613390565b5b835b8181101561342e578061341a88826133ba565b845260208401935050602081019050613407565b5050509392505050565b600082601f83011261344d5761344c6132d3565b5b813561345d8482602086016133cf565b91505092915050565b60006020828403121561347c5761347b6132c9565b5b600082013567ffffffffffffffff81111561349a576134996132ce565b5b6134a684828501613438565b91505092915050565b6000602082840312156134c5576134c46132c9565b5b60006134d3848285016133ba565b91505092915050565b600073ffffffffffffffffffffffffffffffffffffffff82169050919050565b6000613507826134dc565b9050919050565b613517816134fc565b811461352257600080fd5b50565b6000813590506135348161350e565b92915050565b6135438161328b565b811461354e57600080fd5b50565b6000813590506135608161353a565b92915050565b600080fd5b600067ffffffffffffffff821115613586576135856132e9565b5b61358f826132d8565b9050602081019050919050565b82818337600083830152505050565b60006135be6135b98461356b565b613349565b9050828152602081018484840111156135da576135d9613566565b5b6135e584828561359c565b509392505050565b600082601f830112613602576136016132d3565b5b81356136128482602086016135ab565b91505092915050565b60008060008060808587031215613635576136346132c9565b5b600061364387828801613525565b945050602061365487828801613525565b935050604061366587828801613551565b925050606085013567ffffffffffffffff811115613686576136856132ce565b5b613692878288016135ed565b91505092959194509250565b60007fffffffff0000000000000000000000000000000000000000000000000000000082169050919050565b6136d38161369e565b82525050565b60006020820190506136ee60008301846136ca565b92915050565b60008115159050919050565b613709816136f4565b82525050565b60006020820190506137246000830184613700565b92915050565b6000613735826134fc565b9050919050565b6137458161372a565b811461375057600080fd5b50565b6000813590506137628161373c565b92915050565b60006020828403121561377e5761377d6132c9565b5b600061378c84828501613753565b91505092915050565b6000602082840312156137ab576137aa6132c9565b5b60006137b984828501613525565b91505092915050565b6137cb81613395565b82525050565b600060c0820190506137e660008301896137c2565b6137f36020830188613295565b6138006040830187613295565b61380d6060830186613295565b61381a6080830185613295565b61382760a0830184613700565b979650505050505050565b600060208201905061384760008301846137c2565b92915050565b6000613858826134fc565b9050919050565b6138688161384d565b811461387357600080fd5b50565b6000813590506138858161385f565b92915050565b6000602082840312156138a1576138a06132c9565b5b60006138af84828501613876565b91505092915050565b6000819050919050565b60006138dd6138d86138d3846134dc565b6138b8565b6134dc565b9050919050565b60006138ef826138c2565b9050919050565b6000613901826138e4565b9050919050565b613911816138f6565b82525050565b600060208201905061392c6000830184613908565b92915050565b600081519050919050565b600082825260208201905092915050565b6000819050602082019050919050565b61396781613395565b82525050565b6000613979838361395e565b60208301905092915050565b6000602082019050919050565b600061399d82613932565b6139a7818561393d565b93506139b28361394e565b8060005b838110156139e35781516139ca888261396d565b97506139d583613985565b9250506001810190506139b6565b5085935050505092915050565b60006020820190508181036000830152613a0a8184613992565b905092915050565b6000604082019050613a276000830185613295565b613a346020830184613295565b9392505050565b60008060408385031215613a5257613a516132c9565b5b6000613a60858286016133ba565b9250506020613a7185828601613525565b9150509250929050565b613a84816134fc565b82525050565b6000602082019050613a9f6000830184613a7b565b92915050565b6000819050919050565b613ab881613aa5565b8114613ac357600080fd5b50565b600081359050613ad581613aaf565b92915050565b600060208284031215613af157613af06132c9565b5b6000613aff84828501613ac6565b91505092915050565b6000613b13826138e4565b9050919050565b613b2381613b08565b82525050565b6000602082019050613b3e6000830184613b1a565b92915050565b600082825260208201905092915050565b7f41646d696e20776861743f000000000000000000000000000000000000000000600082015250565b6000613b8b600b83613b44565b9150613b9682613b55565b602082019050919050565b60006020820190508181036000830152613bba81613b7e565b9050919050565b7f417070726f7665207468697320636f6e7472616374206173206f70657261746f60008201527f7200000000000000000000000000000000000000000000000000000000000000602082015250565b6000613c1d602183613b44565b9150613c2882613bc1565b604082019050919050565b60006020820190508181036000830152613c4c81613c10565b9050919050565b7f5374616b696e672064697361626c656400000000000000000000000000000000600082015250565b6000613c89601083613b44565b9150613c9482613c53565b602082019050919050565b60006020820190508181036000830152613cb881613c7c565b9050919050565b7f4e6f2072652d656e7472616e6379000000000000000000000000000000000000600082015250565b6000613cf5600e83613b44565b9150613d0082613cbf565b602082019050919050565b60006020820190508181036000830152613d2481613ce8565b9050919050565b7f4e487b7100000000000000000000000000000000000000000000000000000000600052603260045260246000fd5b7f4e487b7100000000000000000000000000000000000000000000000000000000600052601160045260246000fd5b6000613d948261328b565b91507fffffffffffffffffffffffffffffffffffffffffffffffffffffffffffffffff821415613dc757613dc6613d5a565b5b600182019050919050565b7f4e6f20736b756c6c73207374616b656400000000000000000000000000000000600082015250565b6000613e08601083613b44565b9150613e1382613dd2565b602082019050919050565b60006020820190508181036000830152613e3781613dfb565b9050919050565b600081519050613e4d8161353a565b92915050565b600060208284031215613e6957613e686132c9565b5b6000613e7784828501613e3e565b91505092915050565b50565b6000613e90600083613b44565b9150613e9b82613e80565b600082019050919050565b60006020820190508181036000830152613ebf81613e83565b9050919050565b6000604082019050613edb6000830185613a7b565b613ee86020830184613295565b9392505050565b613ef8816136f4565b8114613f0357600080fd5b50565b600081519050613f1581613eef565b92915050565b600060208284031215613f3157613f306132c9565b5b6000613f3f84828501613f06565b91505092915050565b6000613f538261328b565b9150613f5e8361328b565b9250827fffffffffffffffffffffffffffffffffffffffffffffffffffffffffffffffff03821115613f9357613f92613d5a565b5b828201905092915050565b7f73656c656374203e203020746f6b656e73000000000000000000000000000000600082015250565b6000613fd4601183613b44565b9150613fdf82613f9e565b602082019050919050565b6000602082019050818103600083015261400381613fc7565b9050919050565b600060408201905061401f6000830185613a7b565b61402c6020830184613a7b565b9392505050565b600061403e8261328b565b91506140498361328b565b92508282101561405c5761405b613d5a565b5b828203905092915050565b7f4e487b7100000000000000000000000000000000000000000000000000000000600052601260045260246000fd5b60006140a18261328b565b91506140ac8361328b565b9250826140bc576140bb614067565b5b828204905092915050565b60008160601b9050919050565b60006140df826140c7565b9050919050565b60006140f1826140d4565b9050919050565b614109614104826134fc565b6140e6565b82525050565b60008160f01b9050919050565b60006141278261410f565b9050919050565b61413f61413a82613395565b61411c565b82525050565b600061415182856140f8565b601482019150614161828461412e565b6002820191508190509392505050565b600061418c61418761418284613395565b6138b8565b61328b565b9050919050565b61419c81614171565b82525050565b60006020820190506141b76000830184614193565b92915050565b6000815190506141cc8161350e565b92915050565b6000602082840312156141e8576141e76132c9565b5b60006141f6848285016141bd565b91505092915050565b600061420a82613395565b915061ffff82141561421f5761421e613d5a565b5b600182019050919050565b600060608201905061423f6000830186613a7b565b61424c6020830185613a7b565b6142596040830184614193565b949350505050565b600061426c82613395565b915060008214156142805761427f613d5a565b5b600182039050919050565b60006142968261328b565b91506142a18361328b565b9250817fffffffffffffffffffffffffffffffffffffffffffffffffffffffffffffffff04831182151516156142da576142d9613d5a565b5b828202905092915050565b7f4e487b7100000000000000000000000000000000000000000000000000000000600052603160045260246000fdfea2646970667358221220c8f61eea8eda16cc6be1ca42b289a5d963081553fdf10050fcc8e544eea3890e64736f6c634300080b0033",
  "immutableReferences": {},
  "source": "// SPDX-License-Identifier: MIT\npragma solidity >=0.4.22 <0.9.0;\npragma abicoder v2;\n\nimport \"@openzeppelin/contracts/token/ERC20/IERC20.sol\";\nimport \"@openzeppelin/contracts/token/ERC721/IERC721.sol\";\nimport \"@openzeppelin/contracts/token/ERC721/IERC721Receiver.sol\";\nimport \"@openzeppelin/contracts/utils/math/SafeMath.sol\";\n\ncontract croSkullStaking is IERC721Receiver {\n    using SafeMath for uint;\n\n    //Mutable Main settings\n    address public owner;\n    uint16 public stakedSkullsCount;\n    uint16 public usersCount;\n    bool public started;\n    bool public withdrawEnabled;\n\n    //Contracts\n    IERC20 public rewardToken;\n    IERC721 public croSkullContract;\n\n    //NFT Supply\n    uint16 croSkullContractMaxSupply = 6666;\n\n    //Pool settings\n    uint public percentOperator = 1000;\n    uint public poolRewardSupply;\n    uint public poolWithdrawedAmount;\n    uint public startStakeTimestamp;\n    uint public vestingDuration = 100 days;\n    uint public cycleInterval = 10 seconds;\n    uint public soulsDropInterval = 30 days;\n    uint public stakeMalusDuration = 32 days;\n    uint public stakeMalusFee = 80;\n\n    bool internal locked;\n\n    mapping(address => UserInfo) public userDetails;\n\n    struct UserInfo {\n        uint16 tokenCount;\n        uint16[] tokensIds;\n        uint lastWithdrawTimestamp;\n        uint startingStake;\n        uint availableBalance;\n        uint alreadyClaimed;\n        bool enabled;\n    }\n    // [tokenId] owner\n    mapping( bytes32 => bool ) public skullsOwner;\n    //[keccka256|address:owner][keccka256|uint16:tokenId]\n    //uint256[][] private skullsOwner;\n\n\n    modifier onlyOwner() {\n        require(msg.sender == owner, \"Admin what?\");\n        _;\n    }\n\n    modifier isApproved() {\n        require( approvalStatus(), \"Approve this contract as operator\" );\n        _;\n    }\n\n    modifier isStake() {\n        require( startStakeTimestamp > 0, \"Staking disabled\" );\n        _;\n    }\n\n    modifier noReentrant() {\n        require(!locked, \"No re-entrancy\");\n        locked = true;\n        _;\n        locked = false;\n    }\n\n    event Stake(address indexed user, uint16 tokenId);\n    event unStake(address indexed user, uint16 tokenId);\n    event Withdraw(address indexed user, uint256 amout);\n\n    constructor ( ) \n    {\n        owner = msg.sender;\n        startStakeTimestamp = 0;\n        usersCount = 0;\n        withdrawEnabled = false;\n    }\n\n    /* \n        Only owner methods\n    */\n    function toggleWithdrawSouls () public onlyOwner {\n        withdrawEnabled = ! withdrawEnabled;\n    }\n\n    function adminUnlock () public onlyOwner {\n        require( locked );\n        locked = !locked;\n    }\n\n    function adminUnstake (uint16 _tokenId, address _ownerOf ) public onlyOwner {\n        _unstakeSkull( _ownerOf, _tokenId );\n    }\n\n    function startRewards() public onlyOwner {\n        require( startStakeTimestamp == 0, \"\");\n        startStakeTimestamp = block.timestamp;\n        started = true;\n    }\n\n    function fundRewardPool() public onlyOwner {\n        poolRewardSupply = rewardToken.balanceOf( address(this) );\n    }\n\n    function adminBurnUnvested () public onlyOwner {\n        require( startStakeTimestamp > 0 );\n        uint contractBalance = rewardToken.balanceOf( address(this) );\n        require( contractBalance > 0 );\n        rewardToken.transfer( owner, contractBalance );\n    }\n\n    function setNFTAddress( IERC721 _nftContract ) public onlyOwner {\n        croSkullContract = _nftContract;\n    }\n\n    function setTokenAddress( IERC20 _tokenAddress ) public onlyOwner {\n        rewardToken = _tokenAddress;\n    }\n\n    /* public view function */\n    function _rewardPerCycles() public view returns(uint) { \n        uint rewardPerCycles = poolRewardSupply\n            .div(vestingDuration)\n            .mul(cycleInterval);\n        return rewardPerCycles;\n    }\n\n    /**\n       Modifier: isApproved || isWithdraw || isStake for stakeholders public methods \n     */\n\n    function batchStakeSkulls( uint16[] memory _tokenIds ) public isApproved isStake noReentrant {\n        address _from = msg.sender;\n        require( _tokenIds.length > 0 );\n        for( uint i = 0; i < _tokenIds.length; i++ ){\n            _stakeSkull(_from, _tokenIds[i]);\n        }\n    }\n\n    function batchUnstakeSkulls( uint16[] memory _tokenIds ) public isApproved isStake noReentrant {\n        address _to = msg.sender;\n        require( _tokenIds.length > 0, \"select > 0 tokens\" );\n        for( uint i = 0; i < _tokenIds.length; i++ ){\n            _unstakeSkull( _to , _tokenIds[i] );\n        }\n    }\n\n    function stakeSkull ( uint16 _tokenId ) public isApproved isStake noReentrant {\n        address _from = msg.sender;\n        _stakeSkull(_from, _tokenId);\n    }\n\n    function unstakeSkull ( uint16 _tokenId ) public isApproved isStake noReentrant {\n        address _to = msg.sender;\n        UserInfo storage currentUser = userDetails[_to];\n        uint skullsAmount = currentUser.tokenCount;\n        require( skullsAmount > 0, \"No skulls staked\" );\n        if( currentUser.tokenCount > 0 ){\n            _unstakeSkull(_to, _tokenId);\n        }\n    }\n\n    function _stakeSkull(address _from, uint16 _tokenId  ) private {\n\n        //[keccka256|address:owner][keccka256|uint16:tokenId]\n        bytes32 tokenHash = keccak256(\n            abi.encodePacked(\n                _from,\n                _tokenId\n            )\n        );\n        if ( croSkullContract.ownerOf(_tokenId) != _from  ) // skull already staked || not owner\n            return;\n\n        UserInfo storage currentUser = userDetails[_from];\n        if( currentUser.tokenCount == 0 && currentUser.lastWithdrawTimestamp == 0 ) {\n            currentUser.lastWithdrawTimestamp = block.timestamp;\n            currentUser.availableBalance = 0;\n            currentUser.enabled = true;\n            usersCount++;\n        }else{\n            uint userRewards = calculateRewards();\n            currentUser.availableBalance = userRewards;\n        }\n        currentUser.startingStake = block.timestamp;\n        currentUser.tokensIds.push(_tokenId);\n        currentUser.tokenCount++;\n        userDetails[_from] = currentUser;\n        skullsOwner[tokenHash] = true;\n        stakedSkullsCount++;\n        croSkullContract.transferFrom( _from, address(this), _tokenId );\n        \n        //require( croSkullContract.ownerOf(_tokenId) == address(this), \"Staking Failed\" );\n        emit Stake(_from, _tokenId);\n    }\n\n    function _unstakeSkull(address _to, uint16 _tokenId ) private {\n        bytes32 tokenHash = keccak256(\n            abi.encodePacked(\n                _to,\n                _tokenId\n            )\n        );\n        //check previous owner and check if == _to\n        if( skullsOwner[tokenHash] ) {\n            uint userRewards = calculateRewards();\n            userDetails[_to].availableBalance = userRewards;\n            userDetails[_to].tokenCount--;\n            userDetails[_to].startingStake = block.timestamp;\n            croSkullContract.transferFrom(address(this), _to, _tokenId);\n            skullsOwner[tokenHash] = false;\n            stakedSkullsCount--;\n            if( userDetails[_to].tokenCount == 0 ) {\n                usersCount--;\n            }\n            _removeTokenId(_tokenId, _to);\n            //require( croSkullContract.ownerOf(_tokenId) == _to, \"Unstake Failed\" );\n            emit unStake(_to, _tokenId);\n        }\n    }\n\n    function withdraw () public isApproved noReentrant {\n        address _to = msg.sender;\n        require( userDetails[_to].startingStake > 0 );\n        uint userRewards = calculateRewardsPlusMalus();\n        require( rewardToken.balanceOf( address(this) ) >= userRewards );\n        require( rewardToken.transfer( _to, userRewards ) );\n        poolWithdrawedAmount += userRewards;\n        userDetails[_to].lastWithdrawTimestamp = block.timestamp;\n        userDetails[_to].startingStake = block.timestamp;\n        userDetails[_to].alreadyClaimed += userRewards;\n        userDetails[_to].availableBalance = 0;\n    }\n\n    function _tenSecCyclesPassed () public view isApproved returns(uint) {\n        require( startStakeTimestamp > 0 );\n        uint currentTimestamp = block.timestamp;\n        /*uint actualStakeMinutes = currentTimestamp\n            .sub(userDetails[msg.sender].startingStake)\n            .div(cycleInterval);*/\n        uint actualStakeMinutes = ( block.timestamp - userDetails[msg.sender].startingStake ) / 10 seconds;\n        return actualStakeMinutes;\n    }\n\n    function _tenSecCyclesPassedLastWithdraw () public view isApproved returns(uint) {\n        require( startStakeTimestamp > 0 );\n        \n        uint actualStakeMinutes = ( block.timestamp - userDetails[msg.sender].lastWithdrawTimestamp ) / 10 seconds;\n        return actualStakeMinutes;\n    }\n\n    function calculateDroppedSouls() public view isApproved isStake returns (uint) {\n        UserInfo storage tempUser = userDetails[msg.sender];\n        uint16 tokenCount = tempUser.tokenCount; // total staked nfts\n        uint totalActiveSeconds = _tenSecCyclesPassedLastWithdraw() // 1200 s\n            .mul(10);\n\n        uint totalMinedSouls = totalActiveSeconds\n            .div(soulsDropInterval)\n            .mul(tokenCount);\n\n        return totalMinedSouls;\n    }\n\n    function daysSinceLastWithdraw() public view isApproved isStake returns( uint, uint ) {\n        uint userActiveCycles = _tenSecCyclesPassedLastWithdraw(); \n        uint totalSecondsPassed = userActiveCycles // if 1728 userActive cicles\n            .mul(cycleInterval);// 1728 * 10 = 17280 s passed\n\n        uint nDaysPassed;\n        \n        if( 1 days > totalSecondsPassed ){\n            nDaysPassed = 0;\n        }else{\n            nDaysPassed = totalSecondsPassed\n            .div(1 days);// 17280 / 86480 = 2 days\n        }\n        return (\n            nDaysPassed,\n            totalSecondsPassed\n        );\n    }\n\n    function calculateMalusFee() public view isApproved isStake returns( uint ) {\n        ( uint nDaysPassed, uint totalSecondsPassed ) = daysSinceLastWithdraw();\n        uint MalusFee = 0;\n        \n        if( totalSecondsPassed < stakeMalusDuration ){ // 1700 <\n            uint stakeMalusInDays = stakeMalusDuration\n                .div(1 days);\n\n            uint malusDays = stakeMalusInDays\n                .sub(nDaysPassed); //2\n            //18\n            uint malusCoef = malusDays// 18\n                .mul(percentOperator)\n                .div(stakeMalusInDays)// 18 / 20 = 0,9\n                .mul(100)// 90\n                .div(percentOperator);\n\n            MalusFee = stakeMalusFee // 50\n                .mul(percentOperator)\n                .div(100)// 50 / 100 = 0,5\n                .mul(malusCoef) // 0,5 * 90 = 45\n                .div(percentOperator);\n        }\n        return MalusFee;\n    }\n\n    function calculateRewardsPlusMalus() public view isApproved isStake returns( uint ) {\n        uint calulcatedMalusFee = calculateMalusFee();\n        uint rewardAmount = calculateRewards();\n        uint calculatedMalus = rewardAmount // 10 000\n                .div(100) // 100\n                .mul(calulcatedMalusFee); // 5 500\n\n        uint userRewardsPlusMalus = rewardAmount // 10 000\n            .sub(calculatedMalus); // 10 000 - 5 500 = 4 500\n\n        return userRewardsPlusMalus;\n    }\n\n    function calculateRewards() public view isApproved isStake returns(uint) {\n        UserInfo storage tempUser = userDetails[msg.sender];\n        uint16 tokenCount = tempUser.tokenCount; // total staked nfts\n\n        uint availableBalance = tempUser.availableBalance;\n        uint userActiveCycles = _tenSecCyclesPassed();\n\n        // calculate time diff and retrieve days\n        uint rewardPerCycles = _rewardPerCycles();\n        // rewardPerCycles / croSkullContractMaxSupply\n        uint rewardPerSkull = rewardPerCycles\n            .div(croSkullContractMaxSupply);\n\n        // rewardPerSkull * tokenCount\n        uint userRewardPerCycle = rewardPerSkull\n            .mul(tokenCount);\n\n        // userRewardPerSkulls * userActiveCycles\n        uint generatedRewards = userRewardPerCycle\n            .mul(userActiveCycles);\n\n\n        uint totalBalance = generatedRewards\n            .add(availableBalance);\n\n        return totalBalance;\n    }\n\n    /* Token utils */\n    function getTokensIds() public view returns( uint16[] memory ) {\n        UserInfo memory currentUser = userDetails[msg.sender];\n        return currentUser.tokensIds;//tempUeser.tokensIds;\n    }\n\n    function checkOwnership( uint16 _tokenId ) public view returns( bool ) {\n        bytes32 tokenHash = keccak256(\n            abi.encodePacked(\n                msg.sender,\n                _tokenId\n            )\n        );\n        bool isStaker  = ( skullsOwner[tokenHash] );\n        return isStaker;\n    }\n\n    /* Internal utils functions */\n    function onERC721Received(address, address, uint256, bytes memory) public virtual override returns (bytes4) {\n        return this.onERC721Received.selector;\n    }\n\n    function approvalStatus() public view returns (bool) {\n        return croSkullContract.isApprovedForAll(msg.sender, address(this));\n    }\n\n    function _removeTokenId(uint16 _tokenId, address _from ) internal {\n        uint16[] storage tokens = userDetails[_from].tokensIds;\n        if( tokens.length == 1 && tokens[0] == _tokenId ){\n            uint16[] memory emptyArray;\n            userDetails[_from].tokensIds = emptyArray;\n        }\n        uint index = getTokenIndex(_tokenId, _from);\n        //remove\n        if( index < tokens.length ) {\n            for (uint i = index; i < tokens.length - 1; i++) {\n                tokens[i] = tokens[i + 1];\n            }\n            tokens.pop();\n            userDetails[_from].tokensIds = tokens;\n        }\n    }\n\n    function getTokenIndex ( uint16 _tokenId, address _from) public view returns( uint ) {\n        uint index = 0;\n        uint16[] memory tokens = userDetails[_from].tokensIds;\n        for( uint i = 0; i < tokens.length; i++) {\n            if( _tokenId == tokens[i]){\n                return i;\n            }\n        }\n        return index;\n    }\n}\n",
  "sourcePath": "/Users/alessandrodecristofaro/Desktop/DeFi Code/cryptoboys-nft-marketplace/src/contracts/croSkullStaking.sol",
  "compiler": {
    "name": "solc",
    "version": "0.8.11+commit.d7f03943.Emscripten.clang"
  },
  "schemaVersion": "3.4.3",
  "updatedAt": "2022-02-03T13:01:50.033Z",
  "networkType": "ethereum",
  "devdoc": {
    "kind": "dev",
    "methods": {},
    "version": 1
  },
  "userdoc": {
    "kind": "user",
    "methods": {
      "batchStakeSkulls(uint16[])": {
        "notice": "Modifier: isApproved || isWithdraw || isStake for stakeholders public methods "
      }
    },
    "version": 1
  }
}