{
  "contractName": "croSkullStaking",
  "abi": [
    {
      "inputs": [],
      "stateMutability": "nonpayable",
      "type": "constructor"
    },
    {
      "anonymous": false,
      "inputs": [
        {
          "indexed": true,
          "internalType": "address",
          "name": "user",
          "type": "address"
        },
        {
          "indexed": false,
          "internalType": "uint16",
          "name": "tokenId",
          "type": "uint16"
        }
      ],
      "name": "Stake",
      "type": "event"
    },
    {
      "anonymous": false,
      "inputs": [
        {
          "indexed": true,
          "internalType": "address",
          "name": "user",
          "type": "address"
        },
        {
          "indexed": false,
          "internalType": "uint256",
          "name": "amout",
          "type": "uint256"
        }
      ],
      "name": "Withdraw",
      "type": "event"
    },
    {
      "anonymous": false,
      "inputs": [
        {
          "indexed": true,
          "internalType": "address",
          "name": "user",
          "type": "address"
        },
        {
          "indexed": false,
          "internalType": "uint16",
          "name": "tokenId",
          "type": "uint16"
        }
      ],
      "name": "unStake",
      "type": "event"
    },
    {
      "inputs": [],
      "name": "croSkullContract",
      "outputs": [
        {
          "internalType": "contract IERC721",
          "name": "",
          "type": "address"
        }
      ],
      "stateMutability": "view",
      "type": "function"
    },
    {
      "inputs": [],
      "name": "cycleInterval",
      "outputs": [
        {
          "internalType": "uint256",
          "name": "",
          "type": "uint256"
        }
      ],
      "stateMutability": "view",
      "type": "function"
    },
    {
      "inputs": [],
      "name": "endStakeTimestamp",
      "outputs": [
        {
          "internalType": "uint256",
          "name": "",
          "type": "uint256"
        }
      ],
      "stateMutability": "view",
      "type": "function"
    },
    {
      "inputs": [],
      "name": "owner",
      "outputs": [
        {
          "internalType": "address",
          "name": "",
          "type": "address"
        }
      ],
      "stateMutability": "view",
      "type": "function"
    },
    {
      "inputs": [],
      "name": "percentOperator",
      "outputs": [
        {
          "internalType": "uint256",
          "name": "",
          "type": "uint256"
        }
      ],
      "stateMutability": "view",
      "type": "function"
    },
    {
      "inputs": [],
      "name": "poolRewardSupply",
      "outputs": [
        {
          "internalType": "uint256",
          "name": "",
          "type": "uint256"
        }
      ],
      "stateMutability": "view",
      "type": "function"
    },
    {
      "inputs": [],
      "name": "poolWithdrawedAmount",
      "outputs": [
        {
          "internalType": "uint256",
          "name": "",
          "type": "uint256"
        }
      ],
      "stateMutability": "view",
      "type": "function"
    },
    {
      "inputs": [],
      "name": "poolWithdrawedSouls",
      "outputs": [
        {
          "internalType": "uint256",
          "name": "",
          "type": "uint256"
        }
      ],
      "stateMutability": "view",
      "type": "function"
    },
    {
      "inputs": [],
      "name": "rewardToken",
      "outputs": [
        {
          "internalType": "contract IERC20",
          "name": "",
          "type": "address"
        }
      ],
      "stateMutability": "view",
      "type": "function"
    },
    {
      "inputs": [
        {
          "internalType": "bytes32",
          "name": "",
          "type": "bytes32"
        }
      ],
      "name": "skullsOwner",
      "outputs": [
        {
          "internalType": "bool",
          "name": "",
          "type": "bool"
        }
      ],
      "stateMutability": "view",
      "type": "function"
    },
    {
      "inputs": [],
      "name": "soulToken",
      "outputs": [
        {
          "internalType": "contract IERC20",
          "name": "",
          "type": "address"
        }
      ],
      "stateMutability": "view",
      "type": "function"
    },
    {
      "inputs": [],
      "name": "soulsDropInterval",
      "outputs": [
        {
          "internalType": "uint256",
          "name": "",
          "type": "uint256"
        }
      ],
      "stateMutability": "view",
      "type": "function"
    },
    {
      "inputs": [],
      "name": "stakeMalusDuration",
      "outputs": [
        {
          "internalType": "uint256",
          "name": "",
          "type": "uint256"
        }
      ],
      "stateMutability": "view",
      "type": "function"
    },
    {
      "inputs": [],
      "name": "stakeMalusFee",
      "outputs": [
        {
          "internalType": "uint256",
          "name": "",
          "type": "uint256"
        }
      ],
      "stateMutability": "view",
      "type": "function"
    },
    {
      "inputs": [],
      "name": "stakedSkullsCount",
      "outputs": [
        {
          "internalType": "uint16",
          "name": "",
          "type": "uint16"
        }
      ],
      "stateMutability": "view",
      "type": "function"
    },
    {
      "inputs": [],
      "name": "startStakeTimestamp",
      "outputs": [
        {
          "internalType": "uint256",
          "name": "",
          "type": "uint256"
        }
      ],
      "stateMutability": "view",
      "type": "function"
    },
    {
      "inputs": [],
      "name": "started",
      "outputs": [
        {
          "internalType": "bool",
          "name": "",
          "type": "bool"
        }
      ],
      "stateMutability": "view",
      "type": "function"
    },
    {
      "inputs": [
        {
          "internalType": "address",
          "name": "",
          "type": "address"
        }
      ],
      "name": "userDetails",
      "outputs": [
        {
          "internalType": "uint16",
          "name": "tokenCount",
          "type": "uint16"
        },
        {
          "internalType": "uint256",
          "name": "lastWithdrawTimestamp",
          "type": "uint256"
        },
        {
          "internalType": "uint256",
          "name": "startingStake",
          "type": "uint256"
        },
        {
          "internalType": "uint256",
          "name": "availableBalance",
          "type": "uint256"
        },
        {
          "internalType": "uint256",
          "name": "alreadyClaimed",
          "type": "uint256"
        },
        {
          "internalType": "bool",
          "name": "enabled",
          "type": "bool"
        }
      ],
      "stateMutability": "view",
      "type": "function"
    },
    {
      "inputs": [],
      "name": "usersCount",
      "outputs": [
        {
          "internalType": "uint16",
          "name": "",
          "type": "uint16"
        }
      ],
      "stateMutability": "view",
      "type": "function"
    },
    {
      "inputs": [],
      "name": "vestingDuration",
      "outputs": [
        {
          "internalType": "uint256",
          "name": "",
          "type": "uint256"
        }
      ],
      "stateMutability": "view",
      "type": "function"
    },
    {
      "inputs": [],
      "name": "withdrawEnabled",
      "outputs": [
        {
          "internalType": "bool",
          "name": "",
          "type": "bool"
        }
      ],
      "stateMutability": "view",
      "type": "function"
    },
    {
      "inputs": [],
      "name": "toggleWithdrawSouls",
      "outputs": [],
      "stateMutability": "nonpayable",
      "type": "function"
    },
    {
      "inputs": [],
      "name": "adminUnlock",
      "outputs": [],
      "stateMutability": "nonpayable",
      "type": "function"
    },
    {
      "inputs": [
        {
          "internalType": "uint16",
          "name": "_tokenId",
          "type": "uint16"
        },
        {
          "internalType": "address",
          "name": "_ownerOf",
          "type": "address"
        }
      ],
      "name": "adminUnstake",
      "outputs": [],
      "stateMutability": "nonpayable",
      "type": "function"
    },
    {
      "inputs": [],
      "name": "startRewards",
      "outputs": [],
      "stateMutability": "nonpayable",
      "type": "function"
    },
    {
      "inputs": [],
      "name": "fundRewardPool",
      "outputs": [],
      "stateMutability": "nonpayable",
      "type": "function"
    },
    {
      "inputs": [],
      "name": "adminBurnUnvested",
      "outputs": [],
      "stateMutability": "nonpayable",
      "type": "function"
    },
    {
      "inputs": [
        {
          "internalType": "contract IERC721",
          "name": "_nftContract",
          "type": "address"
        }
      ],
      "name": "setNFTAddress",
      "outputs": [],
      "stateMutability": "nonpayable",
      "type": "function"
    },
    {
      "inputs": [
        {
          "internalType": "contract IERC20",
          "name": "_tokenAddress",
          "type": "address"
        }
      ],
      "name": "setTokenAddress",
      "outputs": [],
      "stateMutability": "nonpayable",
      "type": "function"
    },
    {
      "inputs": [],
      "name": "_rewardPerCycles",
      "outputs": [
        {
          "internalType": "uint256",
          "name": "",
          "type": "uint256"
        }
      ],
      "stateMutability": "view",
      "type": "function"
    },
    {
      "inputs": [
        {
          "internalType": "uint16[]",
          "name": "_tokenIds",
          "type": "uint16[]"
        }
      ],
      "name": "batchStakeSkulls",
      "outputs": [],
      "stateMutability": "nonpayable",
      "type": "function"
    },
    {
      "inputs": [
        {
          "internalType": "uint16[]",
          "name": "_tokenIds",
          "type": "uint16[]"
        }
      ],
      "name": "batchUnstakeSkulls",
      "outputs": [],
      "stateMutability": "nonpayable",
      "type": "function"
    },
    {
      "inputs": [
        {
          "internalType": "uint16",
          "name": "_tokenId",
          "type": "uint16"
        }
      ],
      "name": "stakeSkull",
      "outputs": [],
      "stateMutability": "nonpayable",
      "type": "function"
    },
    {
      "inputs": [
        {
          "internalType": "uint16",
          "name": "_tokenId",
          "type": "uint16"
        }
      ],
      "name": "unstakeSkull",
      "outputs": [],
      "stateMutability": "nonpayable",
      "type": "function"
    },
    {
      "inputs": [],
      "name": "withdraw",
      "outputs": [],
      "stateMutability": "nonpayable",
      "type": "function"
    },
    {
      "inputs": [],
      "name": "_tenSecCyclesPassed",
      "outputs": [
        {
          "internalType": "uint256",
          "name": "",
          "type": "uint256"
        }
      ],
      "stateMutability": "view",
      "type": "function"
    },
    {
      "inputs": [],
      "name": "_tenSecCyclesPassedLastWithdraw",
      "outputs": [
        {
          "internalType": "uint256",
          "name": "",
          "type": "uint256"
        }
      ],
      "stateMutability": "view",
      "type": "function"
    },
    {
      "inputs": [],
      "name": "calculateDroppedSouls",
      "outputs": [
        {
          "internalType": "uint256",
          "name": "",
          "type": "uint256"
        }
      ],
      "stateMutability": "view",
      "type": "function"
    },
    {
      "inputs": [],
      "name": "daysSinceLastWithdraw",
      "outputs": [
        {
          "internalType": "uint256",
          "name": "",
          "type": "uint256"
        },
        {
          "internalType": "uint256",
          "name": "",
          "type": "uint256"
        }
      ],
      "stateMutability": "view",
      "type": "function"
    },
    {
      "inputs": [],
      "name": "calculateMalusFee",
      "outputs": [
        {
          "internalType": "uint256",
          "name": "",
          "type": "uint256"
        }
      ],
      "stateMutability": "view",
      "type": "function"
    },
    {
      "inputs": [],
      "name": "calculateRewardsPlusMalus",
      "outputs": [
        {
          "internalType": "uint256",
          "name": "",
          "type": "uint256"
        }
      ],
      "stateMutability": "view",
      "type": "function"
    },
    {
      "inputs": [],
      "name": "calculateRewards",
      "outputs": [
        {
          "internalType": "uint256",
          "name": "",
          "type": "uint256"
        }
      ],
      "stateMutability": "view",
      "type": "function"
    },
    {
      "inputs": [],
      "name": "getTokensIds",
      "outputs": [
        {
          "internalType": "uint16[]",
          "name": "",
          "type": "uint16[]"
        }
      ],
      "stateMutability": "view",
      "type": "function"
    },
    {
      "inputs": [
        {
          "internalType": "uint16",
          "name": "_tokenId",
          "type": "uint16"
        }
      ],
      "name": "checkOwnership",
      "outputs": [
        {
          "internalType": "bool",
          "name": "",
          "type": "bool"
        }
      ],
      "stateMutability": "view",
      "type": "function"
    },
    {
      "inputs": [
        {
          "internalType": "address",
          "name": "",
          "type": "address"
        },
        {
          "internalType": "address",
          "name": "",
          "type": "address"
        },
        {
          "internalType": "uint256",
          "name": "",
          "type": "uint256"
        },
        {
          "internalType": "bytes",
          "name": "",
          "type": "bytes"
        }
      ],
      "name": "onERC721Received",
      "outputs": [
        {
          "internalType": "bytes4",
          "name": "",
          "type": "bytes4"
        }
      ],
      "stateMutability": "nonpayable",
      "type": "function"
    },
    {
      "inputs": [],
      "name": "approvalStatus",
      "outputs": [
        {
          "internalType": "bool",
          "name": "",
          "type": "bool"
        }
      ],
      "stateMutability": "view",
      "type": "function"
    },
    {
      "inputs": [
        {
          "internalType": "uint16",
          "name": "_tokenId",
          "type": "uint16"
        },
        {
          "internalType": "address",
          "name": "_from",
          "type": "address"
        }
      ],
      "name": "getTokenIndex",
      "outputs": [
        {
          "internalType": "uint256",
          "name": "",
          "type": "uint256"
        }
      ],
      "stateMutability": "view",
      "type": "function"
    }
  ],
  "bytecode": "0x6080604052611a0a600360146101000a81548161ffff021916908361ffff1602179055506103e8600455620d2f00600a55600a600b556203f480600c556203f480600d556050600e5534801561005457600080fd5b50336000806101000a81548173ffffffffffffffffffffffffffffffffffffffff021916908373ffffffffffffffffffffffffffffffffffffffff160217905550600060088190555060008060166101000a81548161ffff021916908361ffff16021790555060008060196101000a81548160ff021916908315150217905550614534806100e36000396000f3fe608060405234801561001057600080fd5b50600436106102945760003560e01c8063687c4a5b1161016757806399249f82116100ce578063cec7cf9011610087578063cec7cf901461071d578063d7aee1891461073b578063e74feb771461076b578063f7c618c11461079b578063fde5b04f146107b9578063ffbfe153146107d757610294565b806399249f821461067f5780639ec9f7441461069d5780639fa5e996146106cd578063a7f57305146106eb578063c0f72cf2146106f5578063c861d9f91461071357610294565b8063741514741161012057806374151474146105cc578063785b4a76146105eb578063795602831461060757806379a1cb951461062557806383ac5fc5146106435780638da5cb5b1461066157610294565b8063687c4a5b1461051a57806369d03738146105385780636ba13a82146105545780636e17e3ee146105725780636ec999a6146105905780637408fc2b146105ae57610294565b80632d5f4a1e1161020b57806342d2b70f116101c457806342d2b70f1461045157806348dec2a71461046f5780634dd6705c146104a45780635d20211a146104c05780636145ca02146104de57806363a53e48146104fc57610294565b80632d5f4a1e146103c75780632dfd0bdc146103e557806335efedc3146103ef5780633b26156e1461040b5780633ccfd60b146104295780633e50de301461043357610294565b80631514617e1161025d5780631514617e146103295780631f2698ab146103475780631fb5daf51461036557806320828339146103835780632287e96a1461038d57806326a4e8d2146103ab57610294565b8062d799a01461029957806305320be8146102b757806305715cc0146102c157806305dd7807146102dd578063150b7a02146102f9575b600080fd5b6102a16107f5565b6040516102ae9190613f99565b60405180910390f35b6102bf6107fb565b005b6102db60048036038101906102d69190613866565b6108b5565b005b6102f760048036038101906102f2919061394b565b610a48565b005b610313600480360381019061030e91906137eb565b610c30565b6040516103209190613dd1565b60405180910390f35b610331610c44565b60405161033e9190613f99565b60405180910390f35b61034f610c4a565b60405161035c9190613db6565b60405180910390f35b61036d610c5d565b60405161037a9190613f99565b60405180910390f35b61038b610c63565b005b610395610da4565b6040516103a29190613db6565b60405180910390f35b6103c560048036038101906103c091906138f9565b610db7565b005b6103cf610e89565b6040516103dc9190613dec565b60405180910390f35b6103ed610eaf565b005b6104096004803603810190610404919061394b565b610fc3565b005b6104136110e8565b6040516104209190613f99565b60405180910390f35b6104316110ee565b005b61043b6115be565b6040516104489190613f99565b60405180910390f35b61045961174a565b6040516104669190613f99565b60405180910390f35b61048960048036038101906104849190613799565b611750565b60405161049b96959493929190613f38565b60405180910390f35b6104be60048036038101906104b99190613866565b6117a7565b005b6104c8611970565b6040516104d59190613f99565b60405180910390f35b6104e6611976565b6040516104f39190613db6565b60405180910390f35b610504611a2a565b6040516105119190613f02565b60405180910390f35b610522611a3e565b60405161052f9190613f99565b60405180910390f35b610552600480360381019061054d9190613922565b611a44565b005b61055c611b16565b6040516105699190613f02565b60405180910390f35b61057a611b2a565b6040516105879190613e07565b60405180910390f35b610598611b50565b6040516105a59190613f99565b60405180910390f35b6105b6611c27565b6040516105c39190613d94565b60405180910390f35b6105d4611d65565b6040516105e2929190613fb4565b60405180910390f35b61060560048036038101906106009190613974565b611e55565b005b61060f611ef1565b60405161061c9190613f99565b60405180910390f35b61062d611ef7565b60405161063a9190613f99565b60405180910390f35b61064b611efd565b6040516106589190613f99565b60405180910390f35b610669611fee565b6040516106769190613cf0565b60405180910390f35b610687612012565b6040516106949190613f99565b60405180910390f35b6106b760048036038101906106b291906138d0565b6120e9565b6040516106c49190613db6565b60405180910390f35b6106d5612109565b6040516106e29190613f99565b60405180910390f35b6106f361210f565b005b6106fd6121e2565b60405161070a9190613f99565b60405180910390f35b61071b6121e8565b005b610725612414565b6040516107329190613f99565b60405180910390f35b6107556004803603810190610750919061394b565b6125a1565b6040516107629190613db6565b60405180910390f35b61078560048036038101906107809190613974565b6125fe565b6040516107929190613f99565b60405180910390f35b6107a3612749565b6040516107b09190613dec565b60405180910390f35b6107c161276f565b6040516107ce9190613f99565b60405180910390f35b6107df6127a6565b6040516107ec9190613f99565b60405180910390f35b60085481565b60008054906101000a900473ffffffffffffffffffffffffffffffffffffffff1673ffffffffffffffffffffffffffffffffffffffff163373ffffffffffffffffffffffffffffffffffffffff1614610889576040517f08c379a000000000000000000000000000000000000000000000000000000000815260040161088090613e42565b60405180910390fd5b600060199054906101000a900460ff1615600060196101000a81548160ff021916908315150217905550565b6108bd611976565b6108fc576040517f08c379a00000000000000000000000000000000000000000000000000000000081526004016108f390613e22565b60405180910390fd5b600060085411610941576040517f08c379a000000000000000000000000000000000000000000000000000000000815260040161093890613ee2565b60405180910390fd5b600f60009054906101000a900460ff1615610991576040517f08c379a000000000000000000000000000000000000000000000000000000000815260040161098890613e82565b60405180910390fd5b6001600f60006101000a81548160ff021916908315150217905550600033905060008251116109bf57600080fd5b60005b8251811015610a2857610a1582848381518110610a08577f4e487b7100000000000000000000000000000000000000000000000000000000600052603260045260246000fd5b60200260200101516128e6565b8080610a2090614337565b9150506109c2565b50506000600f60006101000a81548160ff02191690831515021790555050565b610a50611976565b610a8f576040517f08c379a0000000000000000000000000000000000000000000000000000000008152600401610a8690613e22565b60405180910390fd5b600060085411610ad4576040517f08c379a0000000000000000000000000000000000000000000000000000000008152600401610acb90613ee2565b60405180910390fd5b600f60009054906101000a900460ff1615610b24576040517f08c379a0000000000000000000000000000000000000000000000000000000008152600401610b1b90613e82565b60405180910390fd5b6001600f60006101000a81548160ff02191690831515021790555060003390506000601060008373ffffffffffffffffffffffffffffffffffffffff1673ffffffffffffffffffffffffffffffffffffffff168152602001908152602001600020905060008160000160009054906101000a900461ffff1661ffff16905060008111610be5576040517f08c379a0000000000000000000000000000000000000000000000000000000008152600401610bdc90613ea2565b60405180910390fd5b60008260000160009054906101000a900461ffff1661ffff161115610c0f57610c0e8385612dae565b5b5050506000600f60006101000a81548160ff02191690831515021790555050565b600063150b7a0260e01b9050949350505050565b600a5481565b600060189054906101000a900460ff1681565b60095481565b60008054906101000a900473ffffffffffffffffffffffffffffffffffffffff1673ffffffffffffffffffffffffffffffffffffffff163373ffffffffffffffffffffffffffffffffffffffff1614610cf1576040517f08c379a0000000000000000000000000000000000000000000000000000000008152600401610ce890613e42565b60405180910390fd5b600160009054906101000a900473ffffffffffffffffffffffffffffffffffffffff1673ffffffffffffffffffffffffffffffffffffffff166370a08231306040518263ffffffff1660e01b8152600401610d4c9190613cf0565b60206040518083038186803b158015610d6457600080fd5b505afa158015610d78573d6000803e3d6000fd5b505050506040513d601f19601f82011682018060405250810190610d9c91906139b0565b600581905550565b600060199054906101000a900460ff1681565b60008054906101000a900473ffffffffffffffffffffffffffffffffffffffff1673ffffffffffffffffffffffffffffffffffffffff163373ffffffffffffffffffffffffffffffffffffffff1614610e45576040517f08c379a0000000000000000000000000000000000000000000000000000000008152600401610e3c90613e42565b60405180910390fd5b80600160006101000a81548173ffffffffffffffffffffffffffffffffffffffff021916908373ffffffffffffffffffffffffffffffffffffffff16021790555050565b600260009054906101000a900473ffffffffffffffffffffffffffffffffffffffff1681565b60008054906101000a900473ffffffffffffffffffffffffffffffffffffffff1673ffffffffffffffffffffffffffffffffffffffff163373ffffffffffffffffffffffffffffffffffffffff1614610f3d576040517f08c379a0000000000000000000000000000000000000000000000000000000008152600401610f3490613e42565b60405180910390fd5b600060085414610f82576040517f08c379a0000000000000000000000000000000000000000000000000000000008152600401610f7990613ec2565b60405180910390fd5b42600881905550610fa0600a5460085461310690919063ffffffff16565b6009819055506001600060186101000a81548160ff021916908315150217905550565b610fcb611976565b61100a576040517f08c379a000000000000000000000000000000000000000000000000000000000815260040161100190613e22565b60405180910390fd5b60006008541161104f576040517f08c379a000000000000000000000000000000000000000000000000000000000815260040161104690613ee2565b60405180910390fd5b600f60009054906101000a900460ff161561109f576040517f08c379a000000000000000000000000000000000000000000000000000000000815260040161109690613e82565b60405180910390fd5b6001600f60006101000a81548160ff02191690831515021790555060003390506110c981836128e6565b506000600f60006101000a81548160ff02191690831515021790555050565b600b5481565b6110f6611976565b611135576040517f08c379a000000000000000000000000000000000000000000000000000000000815260040161112c90613e22565b60405180910390fd5b600f60009054906101000a900460ff1615611185576040517f08c379a000000000000000000000000000000000000000000000000000000000815260040161117c90613e82565b60405180910390fd5b6001600f60006101000a81548160ff02191690831515021790555060003390506000601060008373ffffffffffffffffffffffffffffffffffffffff1673ffffffffffffffffffffffffffffffffffffffff16815260200190815260200160002060030154116111f457600080fd5b60006111fe611efd565b905080600160009054906101000a900473ffffffffffffffffffffffffffffffffffffffff1673ffffffffffffffffffffffffffffffffffffffff166370a08231306040518263ffffffff1660e01b815260040161125c9190613cf0565b60206040518083038186803b15801561127457600080fd5b505afa158015611288573d6000803e3d6000fd5b505050506040513d601f19601f820116820180604052508101906112ac91906139b0565b10156112b757600080fd5b600160009054906101000a900473ffffffffffffffffffffffffffffffffffffffff1673ffffffffffffffffffffffffffffffffffffffff1663a9059cbb83836040518363ffffffff1660e01b8152600401611314929190613d6b565b602060405180830381600087803b15801561132e57600080fd5b505af1158015611342573d6000803e3d6000fd5b505050506040513d601f19601f8201168201806040525081019061136691906138a7565b61136f57600080fd5b60006113796127a6565b9050600081111561145657600260009054906101000a900473ffffffffffffffffffffffffffffffffffffffff1673ffffffffffffffffffffffffffffffffffffffff1663a9059cbb84836040518363ffffffff1660e01b81526004016113e1929190613d6b565b602060405180830381600087803b1580156113fb57600080fd5b505af115801561140f573d6000803e3d6000fd5b505050506040513d601f19601f8201168201806040525081019061143391906138a7565b61143c57600080fd5b806007600082825461144e91906140b4565b925050819055505b816006600082825461146891906140b4565b9250508190555042601060008573ffffffffffffffffffffffffffffffffffffffff1673ffffffffffffffffffffffffffffffffffffffff1681526020019081526020016000206002018190555042601060008573ffffffffffffffffffffffffffffffffffffffff1673ffffffffffffffffffffffffffffffffffffffff1681526020019081526020016000206003018190555081601060008573ffffffffffffffffffffffffffffffffffffffff1673ffffffffffffffffffffffffffffffffffffffff168152602001908152602001600020600501600082825461154f91906140b4565b925050819055506000601060008573ffffffffffffffffffffffffffffffffffffffff1673ffffffffffffffffffffffffffffffffffffffff168152602001908152602001600020600401819055505050506000600f60006101000a81548160ff021916908315150217905550565b60006115c8611976565b611607576040517f08c379a00000000000000000000000000000000000000000000000000000000081526004016115fe90613e22565b60405180910390fd5b60006008541161164c576040517f08c379a000000000000000000000000000000000000000000000000000000000815260040161164390613ee2565b60405180910390fd5b6000601060003373ffffffffffffffffffffffffffffffffffffffff1673ffffffffffffffffffffffffffffffffffffffff168152602001908152602001600020905060008160000160009054906101000a900461ffff16905060008260040154905060006116b9612012565b905060006116c561276f565b905060006116f0600360149054906101000a900461ffff1661ffff168361311c90919063ffffffff16565b9050600061170b8661ffff168361313290919063ffffffff16565b90506000611722858361313290919063ffffffff16565b90506000611739878361310690919063ffffffff16565b905080995050505050505050505090565b600c5481565b60106020528060005260406000206000915090508060000160009054906101000a900461ffff16908060020154908060030154908060040154908060050154908060060160009054906101000a900460ff16905086565b6117af611976565b6117ee576040517f08c379a00000000000000000000000000000000000000000000000000000000081526004016117e590613e22565b60405180910390fd5b600060085411611833576040517f08c379a000000000000000000000000000000000000000000000000000000000815260040161182a90613ee2565b60405180910390fd5b600f60009054906101000a900460ff1615611883576040517f08c379a000000000000000000000000000000000000000000000000000000000815260040161187a90613e82565b60405180910390fd5b6001600f60006101000a81548160ff021916908315150217905550600033905060008251116118e7576040517f08c379a00000000000000000000000000000000000000000000000000000000081526004016118de90613e62565b60405180910390fd5b60005b82518110156119505761193d82848381518110611930577f4e487b7100000000000000000000000000000000000000000000000000000000600052603260045260246000fd5b6020026020010151612dae565b808061194890614337565b9150506118ea565b50506000600f60006101000a81548160ff02191690831515021790555050565b60075481565b6000600360009054906101000a900473ffffffffffffffffffffffffffffffffffffffff1673ffffffffffffffffffffffffffffffffffffffff1663e985e9c533306040518363ffffffff1660e01b81526004016119d5929190613d0b565b60206040518083038186803b1580156119ed57600080fd5b505afa158015611a01573d6000803e3d6000fd5b505050506040513d601f19601f82011682018060405250810190611a2591906138a7565b905090565b600060149054906101000a900461ffff1681565b600e5481565b60008054906101000a900473ffffffffffffffffffffffffffffffffffffffff1673ffffffffffffffffffffffffffffffffffffffff163373ffffffffffffffffffffffffffffffffffffffff1614611ad2576040517f08c379a0000000000000000000000000000000000000000000000000000000008152600401611ac990613e42565b60405180910390fd5b80600360006101000a81548173ffffffffffffffffffffffffffffffffffffffff021916908373ffffffffffffffffffffffffffffffffffffffff16021790555050565b600060169054906101000a900461ffff1681565b600360009054906101000a900473ffffffffffffffffffffffffffffffffffffffff1681565b6000611b5a611976565b611b99576040517f08c379a0000000000000000000000000000000000000000000000000000000008152600401611b9090613e22565b60405180910390fd5b600060085411611ba857600080fd5b60006009544211611bbb57429050611bc1565b60095490505b6000600a601060003373ffffffffffffffffffffffffffffffffffffffff1673ffffffffffffffffffffffffffffffffffffffff1681526020019081526020016000206002015483611c139190614195565b611c1d919061410a565b9050809250505090565b60606000601060003373ffffffffffffffffffffffffffffffffffffffff1673ffffffffffffffffffffffffffffffffffffffff1681526020019081526020016000206040518060e00160405290816000820160009054906101000a900461ffff1661ffff1661ffff16815260200160018201805480602002602001604051908101604052809291908181526020018280548015611d0c57602002820191906000526020600020906000905b82829054906101000a900461ffff1661ffff1681526020019060020190602082600101049283019260010382029150808411611cd35790505b50505050508152602001600282015481526020016003820154815260200160048201548152602001600582015481526020016006820160009054906101000a900460ff1615151515815250509050806020015191505090565b600080611d70611976565b611daf576040517f08c379a0000000000000000000000000000000000000000000000000000000008152600401611da690613e22565b60405180910390fd5b600060085411611df4576040517f08c379a0000000000000000000000000000000000000000000000000000000008152600401611deb90613ee2565b60405180910390fd5b6000611dfe611b50565b90506000611e17600b548361313290919063ffffffff16565b9050600081620151801115611e2f5760009050611e48565b611e45620151808361311c90919063ffffffff16565b90505b8082945094505050509091565b60008054906101000a900473ffffffffffffffffffffffffffffffffffffffff1673ffffffffffffffffffffffffffffffffffffffff163373ffffffffffffffffffffffffffffffffffffffff1614611ee3576040517f08c379a0000000000000000000000000000000000000000000000000000000008152600401611eda90613e42565b60405180910390fd5b611eed8183612dae565b5050565b600d5481565b60055481565b6000611f07611976565b611f46576040517f08c379a0000000000000000000000000000000000000000000000000000000008152600401611f3d90613e22565b60405180910390fd5b600060085411611f8b576040517f08c379a0000000000000000000000000000000000000000000000000000000008152600401611f8290613ee2565b60405180910390fd5b6000611f95612414565b90506000611fa16115be565b90506000611fcb83611fbd60648561311c90919063ffffffff16565b61313290919063ffffffff16565b90506000611fe2828461314890919063ffffffff16565b90508094505050505090565b60008054906101000a900473ffffffffffffffffffffffffffffffffffffffff1681565b600061201c611976565b61205b576040517f08c379a000000000000000000000000000000000000000000000000000000000815260040161205290613e22565b60405180910390fd5b60006008541161206a57600080fd5b6000600954421161207d57429050612083565b60095490505b6000600a601060003373ffffffffffffffffffffffffffffffffffffffff1673ffffffffffffffffffffffffffffffffffffffff16815260200190815260200160002060030154836120d59190614195565b6120df919061410a565b9050809250505090565b60116020528060005260406000206000915054906101000a900460ff1681565b60045481565b60008054906101000a900473ffffffffffffffffffffffffffffffffffffffff1673ffffffffffffffffffffffffffffffffffffffff163373ffffffffffffffffffffffffffffffffffffffff161461219d576040517f08c379a000000000000000000000000000000000000000000000000000000000815260040161219490613e42565b60405180910390fd5b600f60009054906101000a900460ff166121b657600080fd5b600f60009054906101000a900460ff1615600f60006101000a81548160ff021916908315150217905550565b60065481565b60008054906101000a900473ffffffffffffffffffffffffffffffffffffffff1673ffffffffffffffffffffffffffffffffffffffff163373ffffffffffffffffffffffffffffffffffffffff1614612276576040517f08c379a000000000000000000000000000000000000000000000000000000000815260040161226d90613e42565b60405180910390fd5b60006008541161228557600080fd5b6000600160009054906101000a900473ffffffffffffffffffffffffffffffffffffffff1673ffffffffffffffffffffffffffffffffffffffff166370a08231306040518263ffffffff1660e01b81526004016122e29190613cf0565b60206040518083038186803b1580156122fa57600080fd5b505afa15801561230e573d6000803e3d6000fd5b505050506040513d601f19601f8201168201806040525081019061233291906139b0565b90506000811161234157600080fd5b600160009054906101000a900473ffffffffffffffffffffffffffffffffffffffff1673ffffffffffffffffffffffffffffffffffffffff1663a9059cbb60008054906101000a900473ffffffffffffffffffffffffffffffffffffffff16836040518363ffffffff1660e01b81526004016123be929190613d6b565b602060405180830381600087803b1580156123d857600080fd5b505af11580156123ec573d6000803e3d6000fd5b505050506040513d601f19601f8201168201806040525081019061241091906138a7565b5050565b600061241e611976565b61245d576040517f08c379a000000000000000000000000000000000000000000000000000000000815260040161245490613e22565b60405180910390fd5b6000600854116124a2576040517f08c379a000000000000000000000000000000000000000000000000000000000815260040161249990613ee2565b60405180910390fd5b6000806124ad611d65565b915091506000600d548210156125985760006124d762015180600d5461311c90919063ffffffff16565b905060006124ee858361314890919063ffffffff16565b905060006125406004546125326064612524876125166004548961313290919063ffffffff16565b61311c90919063ffffffff16565b61313290919063ffffffff16565b61311c90919063ffffffff16565b9050612592600454612584836125766064612568600454600e5461313290919063ffffffff16565b61311c90919063ffffffff16565b61313290919063ffffffff16565b61311c90919063ffffffff16565b93505050505b80935050505090565b60008033836040516020016125b7929190613cc4565b60405160208183030381529060405280519060200120905060006011600083815260200190815260200160002060009054906101000a900460ff1690508092505050919050565b600080600090506000601060008573ffffffffffffffffffffffffffffffffffffffff1673ffffffffffffffffffffffffffffffffffffffff1681526020019081526020016000206001018054806020026020016040519081016040528092919081815260200182805480156126bb57602002820191906000526020600020906000905b82829054906101000a900461ffff1661ffff16815260200190600201906020826001010492830192600103820291508084116126825790505b5050505050905060005b815181101561273c57818181518110612707577f4e487b7100000000000000000000000000000000000000000000000000000000600052603260045260246000fd5b602002602001015161ffff168661ffff16141561272957809350505050612743565b808061273490614337565b9150506126c5565b5081925050505b92915050565b600160009054906101000a900473ffffffffffffffffffffffffffffffffffffffff1681565b60008061279d600b5461278f600a5460055461311c90919063ffffffff16565b61313290919063ffffffff16565b90508091505090565b60006127b0611976565b6127ef576040517f08c379a00000000000000000000000000000000000000000000000000000000081526004016127e690613e22565b60405180910390fd5b600060085411612834576040517f08c379a000000000000000000000000000000000000000000000000000000000815260040161282b90613ee2565b60405180910390fd5b6000601060003373ffffffffffffffffffffffffffffffffffffffff1673ffffffffffffffffffffffffffffffffffffffff168152602001908152602001600020905060008160000160009054906101000a900461ffff16905060006128ab600a61289d611b50565b61313290919063ffffffff16565b905060006128da8361ffff166128cc600c548561311c90919063ffffffff16565b61313290919063ffffffff16565b90508094505050505090565b600082826040516020016128fb929190613cc4565b6040516020818303038152906040528051906020012090508273ffffffffffffffffffffffffffffffffffffffff16600360009054906101000a900473ffffffffffffffffffffffffffffffffffffffff1673ffffffffffffffffffffffffffffffffffffffff16636352211e846040518263ffffffff1660e01b81526004016129859190613f1d565b60206040518083038186803b15801561299d57600080fd5b505afa1580156129b1573d6000803e3d6000fd5b505050506040513d601f19601f820116820180604052508101906129d591906137c2565b73ffffffffffffffffffffffffffffffffffffffff16146129f65750612daa565b6000601060008573ffffffffffffffffffffffffffffffffffffffff1673ffffffffffffffffffffffffffffffffffffffff168152602001908152602001600020905060008160000160009054906101000a900461ffff1661ffff16148015612a63575060008160020154145b15612ad8574281600201819055506000816004018190555060018160060160006101000a81548160ff0219169083151502179055506000601681819054906101000a900461ffff1680929190612ab89061430c565b91906101000a81548161ffff021916908361ffff16021790555050612aef565b6000612ae26115be565b9050808260040181905550505b428160030181905550806001018390806001815401808255809150506001900390600052602060002090601091828204019190066002029091909190916101000a81548161ffff021916908361ffff16021790555080600001600081819054906101000a900461ffff1680929190612b669061430c565b91906101000a81548161ffff021916908361ffff1602179055505080601060008673ffffffffffffffffffffffffffffffffffffffff1673ffffffffffffffffffffffffffffffffffffffff1681526020019081526020016000206000820160009054906101000a900461ffff168160000160006101000a81548161ffff021916908361ffff1602179055506001820181600101908054612c08929190613457565b50600282015481600201556003820154816003015560048201548160040155600582015481600501556006820160009054906101000a900460ff168160060160006101000a81548160ff02191690831515021790555090505060016011600084815260200190815260200160002060006101000a81548160ff0219169083151502179055506000601481819054906101000a900461ffff1680929190612cad9061430c565b91906101000a81548161ffff021916908361ffff16021790555050600360009054906101000a900473ffffffffffffffffffffffffffffffffffffffff1673ffffffffffffffffffffffffffffffffffffffff166323b872dd8530866040518463ffffffff1660e01b8152600401612d2793929190613d34565b600060405180830381600087803b158015612d4157600080fd5b505af1158015612d55573d6000803e3d6000fd5b505050508373ffffffffffffffffffffffffffffffffffffffff167f9a2f579c219eb1955c7485729ed1260d94d6e9f49d593852f6589f9d01041ab184604051612d9f9190613f02565b60405180910390a250505b5050565b60008282604051602001612dc3929190613cc4565b6040516020818303038152906040528051906020012090506011600082815260200190815260200160002060009054906101000a900460ff1615613101576000612e0b6115be565b905080601060008673ffffffffffffffffffffffffffffffffffffffff1673ffffffffffffffffffffffffffffffffffffffff16815260200190815260200160002060040181905550601060008573ffffffffffffffffffffffffffffffffffffffff1673ffffffffffffffffffffffffffffffffffffffff168152602001908152602001600020600001600081819054906101000a900461ffff1680929190612eb4906142e2565b91906101000a81548161ffff021916908361ffff1602179055505042601060008673ffffffffffffffffffffffffffffffffffffffff1673ffffffffffffffffffffffffffffffffffffffff16815260200190815260200160002060030181905550600360009054906101000a900473ffffffffffffffffffffffffffffffffffffffff1673ffffffffffffffffffffffffffffffffffffffff166323b872dd3086866040518463ffffffff1660e01b8152600401612f7593929190613d34565b600060405180830381600087803b158015612f8f57600080fd5b505af1158015612fa3573d6000803e3d6000fd5b5050505060006011600084815260200190815260200160002060006101000a81548160ff0219169083151502179055506000601481819054906101000a900461ffff1680929190612ff3906142e2565b91906101000a81548161ffff021916908361ffff160217905550506000601060008673ffffffffffffffffffffffffffffffffffffffff1673ffffffffffffffffffffffffffffffffffffffff16815260200190815260200160002060000160009054906101000a900461ffff1661ffff1614156130a7576000601681819054906101000a900461ffff168092919061308b906142e2565b91906101000a81548161ffff021916908361ffff160217905550505b6130b1838561315e565b8373ffffffffffffffffffffffffffffffffffffffff167f56853f8f6e1153ce606e228ce2f7f10ccf941a927cda730647d5f8006abcd93a846040516130f79190613f02565b60405180910390a2505b505050565b6000818361311491906140b4565b905092915050565b6000818361312a919061410a565b905092915050565b60008183613140919061413b565b905092915050565b600081836131569190614195565b905092915050565b6000601060008373ffffffffffffffffffffffffffffffffffffffff1673ffffffffffffffffffffffffffffffffffffffff16815260200190815260200160002060010190506001818054905014801561321c57508261ffff16816000815481106131f2577f4e487b7100000000000000000000000000000000000000000000000000000000600052603260045260246000fd5b90600052602060002090601091828204019190066002029054906101000a900461ffff1661ffff16145b1561327c57606080601060008573ffffffffffffffffffffffffffffffffffffffff1673ffffffffffffffffffffffffffffffffffffffff16815260200190815260200160002060010190805190602001906132799291906134b7565b50505b600061328884846125fe565b905081805490508110156134515760008190505b600183805490506132ad9190614195565b81101561339857826001826132c291906140b4565b815481106132f9577f4e487b7100000000000000000000000000000000000000000000000000000000600052603260045260246000fd5b90600052602060002090601091828204019190066002029054906101000a900461ffff16838281548110613356577f4e487b7100000000000000000000000000000000000000000000000000000000600052603260045260246000fd5b90600052602060002090601091828204019190066002026101000a81548161ffff021916908361ffff160217905550808061339090614337565b91505061329c565b50818054806133d0577f4e487b7100000000000000000000000000000000000000000000000000000000600052603160045260246000fd5b60019003818190600052602060002090601091828204019190066002026101000a81549061ffff0219169055905581601060008573ffffffffffffffffffffffffffffffffffffffff1673ffffffffffffffffffffffffffffffffffffffff16815260200190815260200160002060010190805461344f929190613561565b505b50505050565b82805482825590600052602060002090600f016010900481019282156134a657600052602060002091600f016010900482015b828111156134a557825482559160010191906001019061348a565b5b5090506134b391906135c1565b5090565b82805482825590600052602060002090600f016010900481019282156135505791602002820160005b8382111561352057835183826101000a81548161ffff021916908361ffff16021790555092602001926002016020816001010492830192600103026134e0565b801561354e5782816101000a81549061ffff0219169055600201602081600101049283019260010302613520565b505b50905061355d91906135c1565b5090565b82805482825590600052602060002090600f016010900481019282156135b057600052602060002091600f016010900482015b828111156135af578254825591600101919060010190613594565b5b5090506135bd91906135c1565b5090565b5b808211156135da5760008160009055506001016135c2565b5090565b60006135f16135ec8461400e565b613fdd565b9050808382526020820190508285602086028201111561361057600080fd5b60005b858110156136405781613626888261375a565b845260208401935060208301925050600181019050613613565b5050509392505050565b600061365d6136588461403a565b613fdd565b90508281526020810184848401111561367557600080fd5b6136808482856142d3565b509392505050565b6000813590506136978161445d565b92915050565b6000815190506136ac8161445d565b92915050565b600082601f8301126136c357600080fd5b81356136d38482602086016135de565b91505092915050565b6000815190506136eb81614474565b92915050565b6000813590506137008161448b565b92915050565b600082601f83011261371757600080fd5b813561372784826020860161364a565b91505092915050565b60008135905061373f816144a2565b92915050565b600081359050613754816144b9565b92915050565b600081359050613769816144d0565b92915050565b60008135905061377e816144e7565b92915050565b600081519050613793816144e7565b92915050565b6000602082840312156137ab57600080fd5b60006137b984828501613688565b91505092915050565b6000602082840312156137d457600080fd5b60006137e28482850161369d565b91505092915050565b6000806000806080858703121561380157600080fd5b600061380f87828801613688565b945050602061382087828801613688565b93505060406138318782880161376f565b925050606085013567ffffffffffffffff81111561384e57600080fd5b61385a87828801613706565b91505092959194509250565b60006020828403121561387857600080fd5b600082013567ffffffffffffffff81111561389257600080fd5b61389e848285016136b2565b91505092915050565b6000602082840312156138b957600080fd5b60006138c7848285016136dc565b91505092915050565b6000602082840312156138e257600080fd5b60006138f0848285016136f1565b91505092915050565b60006020828403121561390b57600080fd5b600061391984828501613730565b91505092915050565b60006020828403121561393457600080fd5b600061394284828501613745565b91505092915050565b60006020828403121561395d57600080fd5b600061396b8482850161375a565b91505092915050565b6000806040838503121561398757600080fd5b60006139958582860161375a565b92505060206139a685828601613688565b9150509250929050565b6000602082840312156139c257600080fd5b60006139d084828501613784565b91505092915050565b60006139e58383613c71565b60208301905092915050565b6139fa816141c9565b82525050565b613a11613a0c826141c9565b614380565b82525050565b6000613a228261407a565b613a2c8185614092565b9350613a378361406a565b8060005b83811015613a68578151613a4f88826139d9565b9750613a5a83614085565b925050600181019050613a3b565b5085935050505092915050565b613a7e816141db565b82525050565b613a8d816141f1565b82525050565b613a9c81614279565b82525050565b613aab8161429d565b82525050565b6000613abe6014836140a3565b91507f4552525f415050524f56455f434f4e54524143540000000000000000000000006000830152602082019050919050565b6000613afe600d836140a3565b91507f4552525f4e4f545f4f574e4552000000000000000000000000000000000000006000830152602082019050919050565b6000613b3e6016836140a3565b91507f4552525f53454c4543545f534f4d455f534b554c4c53000000000000000000006000830152602082019050919050565b6000613b7e6011836140a3565b91507f4552525f4e4f5f5245454e54524e4143590000000000000000000000000000006000830152602082019050919050565b6000613bbe6014836140a3565b91507f4552525f4e4f5f534b554c4c535f5354414b45440000000000000000000000006000830152602082019050919050565b6000613bfe6012836140a3565b91507f4552525f534541534f4e5f5354415254454400000000000000000000000000006000830152602082019050919050565b6000613c3e6010836140a3565b91507f5374616b696e672064697361626c6564000000000000000000000000000000006000830152602082019050919050565b613c7a81614241565b82525050565b613c8981614241565b82525050565b613ca0613c9b82614241565b614392565b82525050565b613caf816142c1565b82525050565b613cbe8161426f565b82525050565b6000613cd08285613a00565b601482019150613ce08284613c8f565b6002820191508190509392505050565b6000602082019050613d0560008301846139f1565b92915050565b6000604082019050613d2060008301856139f1565b613d2d60208301846139f1565b9392505050565b6000606082019050613d4960008301866139f1565b613d5660208301856139f1565b613d636040830184613ca6565b949350505050565b6000604082019050613d8060008301856139f1565b613d8d6020830184613cb5565b9392505050565b60006020820190508181036000830152613dae8184613a17565b905092915050565b6000602082019050613dcb6000830184613a75565b92915050565b6000602082019050613de66000830184613a84565b92915050565b6000602082019050613e016000830184613a93565b92915050565b6000602082019050613e1c6000830184613aa2565b92915050565b60006020820190508181036000830152613e3b81613ab1565b9050919050565b60006020820190508181036000830152613e5b81613af1565b9050919050565b60006020820190508181036000830152613e7b81613b31565b9050919050565b60006020820190508181036000830152613e9b81613b71565b9050919050565b60006020820190508181036000830152613ebb81613bb1565b9050919050565b60006020820190508181036000830152613edb81613bf1565b9050919050565b60006020820190508181036000830152613efb81613c31565b9050919050565b6000602082019050613f176000830184613c80565b92915050565b6000602082019050613f326000830184613ca6565b92915050565b600060c082019050613f4d6000830189613c80565b613f5a6020830188613cb5565b613f676040830187613cb5565b613f746060830186613cb5565b613f816080830185613cb5565b613f8e60a0830184613a75565b979650505050505050565b6000602082019050613fae6000830184613cb5565b92915050565b6000604082019050613fc96000830185613cb5565b613fd66020830184613cb5565b9392505050565b6000604051905081810181811067ffffffffffffffff8211171561400457614003614414565b5b8060405250919050565b600067ffffffffffffffff82111561402957614028614414565b5b602082029050602081019050919050565b600067ffffffffffffffff82111561405557614054614414565b5b601f19601f8301169050602081019050919050565b6000819050602082019050919050565b600081519050919050565b6000602082019050919050565b600082825260208201905092915050565b600082825260208201905092915050565b60006140bf8261426f565b91506140ca8361426f565b9250827fffffffffffffffffffffffffffffffffffffffffffffffffffffffffffffffff038211156140ff576140fe6143b6565b5b828201905092915050565b60006141158261426f565b91506141208361426f565b9250826141305761412f6143e5565b5b828204905092915050565b60006141468261426f565b91506141518361426f565b9250817fffffffffffffffffffffffffffffffffffffffffffffffffffffffffffffffff048311821515161561418a576141896143b6565b5b828202905092915050565b60006141a08261426f565b91506141ab8361426f565b9250828210156141be576141bd6143b6565b5b828203905092915050565b60006141d48261424f565b9050919050565b60008115159050919050565b6000819050919050565b60007fffffffff0000000000000000000000000000000000000000000000000000000082169050919050565b6000614228826141c9565b9050919050565b600061423a826141c9565b9050919050565b600061ffff82169050919050565b600073ffffffffffffffffffffffffffffffffffffffff82169050919050565b6000819050919050565b60006142848261428b565b9050919050565b60006142968261424f565b9050919050565b60006142a8826142af565b9050919050565b60006142ba8261424f565b9050919050565b60006142cc82614241565b9050919050565b82818337600083830152505050565b60006142ed82614241565b91506000821415614301576143006143b6565b5b600182039050919050565b600061431782614241565b915061ffff82141561432c5761432b6143b6565b5b600182019050919050565b60006143428261426f565b91507fffffffffffffffffffffffffffffffffffffffffffffffffffffffffffffffff821415614375576143746143b6565b5b600182019050919050565b600061438b826143a4565b9050919050565b600061439d82614443565b9050919050565b60006143af82614450565b9050919050565b7f4e487b7100000000000000000000000000000000000000000000000000000000600052601160045260246000fd5b7f4e487b7100000000000000000000000000000000000000000000000000000000600052601260045260246000fd5b7f4e487b7100000000000000000000000000000000000000000000000000000000600052604160045260246000fd5b60008160f01b9050919050565b60008160601b9050919050565b614466816141c9565b811461447157600080fd5b50565b61447d816141db565b811461448857600080fd5b50565b614494816141e7565b811461449f57600080fd5b50565b6144ab8161421d565b81146144b657600080fd5b50565b6144c28161422f565b81146144cd57600080fd5b50565b6144d981614241565b81146144e457600080fd5b50565b6144f08161426f565b81146144fb57600080fd5b5056fea2646970667358221220ca8a425b6a75bfc4f5cf0de82b2162e4f369e941160e8cf56efacaf94b1e3a5464736f6c63430008000033",
  "immutableReferences": {},
  "source": "// SPDX-License-Identifier: MIT\npragma solidity >=0.4.22 <0.9.0;\npragma abicoder v2;\n\nimport \"@openzeppelin/contracts/token/ERC20/IERC20.sol\";\nimport \"@openzeppelin/contracts/token/ERC721/IERC721.sol\";\nimport \"@openzeppelin/contracts/token/ERC721/IERC721Receiver.sol\";\nimport \"@openzeppelin/contracts/utils/math/SafeMath.sol\";\n\ncontract croSkullStaking is IERC721Receiver {\n    using SafeMath for uint;\n\n    //Mutable Main settings\n    address public owner;\n    uint16 public stakedSkullsCount;\n    uint16 public usersCount;\n    bool public started;\n    bool public withdrawEnabled;\n\n    //Contracts\n    IERC20 public rewardToken;\n    IERC20 public soulToken;\n    IERC721 public croSkullContract;\n\n    //NFT Supply\n    uint16 croSkullContractMaxSupply = 6666;\n\n    //Pool settings\n    uint public percentOperator = 1000;\n    uint public poolRewardSupply;\n    uint public poolWithdrawedAmount;\n    uint public poolWithdrawedSouls;\n    uint public startStakeTimestamp;\n    uint public endStakeTimestamp;\n    uint public vestingDuration = 10 days;// normal duration 100 days\n    uint public cycleInterval = 10 seconds;\n    uint public soulsDropInterval = 3 days;// soul drop interval 3 days - default = 30 days\n    uint public stakeMalusDuration = 3 days;// stake malus duration 3 days - default = 32 days\n    uint public stakeMalusFee = 80;\n\n    bool internal locked;\n\n    mapping( address => UserInfo ) public userDetails;\n\n    struct UserInfo {\n        uint16 tokenCount;\n        uint16[] tokensIds;\n        uint lastWithdrawTimestamp;\n        uint startingStake;\n        uint availableBalance;\n        uint alreadyClaimed;\n        bool enabled;\n    }\n\n\n    mapping( bytes32 => bool ) public skullsOwner;\n\n    modifier onlyOwner() {\n        require(msg.sender == owner, \"ERR_NOT_OWNER\");\n        _;\n    }\n\n    modifier isApproved() {\n        require( approvalStatus(), \"ERR_APPROVE_CONTRACT\" );\n        _;\n    }\n\n    modifier isStake() {\n        require( \n            startStakeTimestamp > 0,\n            \"Staking disabled\" \n        );\n        _;\n    }\n\n    modifier noReentrant() {\n        require(!locked, \"ERR_NO_REENTRNACY\");\n        locked = true;\n        _;\n        locked = false;\n    }\n\n    event Stake(address indexed user, uint16 tokenId);\n    event unStake(address indexed user, uint16 tokenId);\n    event Withdraw(address indexed user, uint256 amout);\n\n    constructor ( ) \n    {\n        owner = msg.sender;\n        startStakeTimestamp = 0;\n        usersCount = 0;\n        withdrawEnabled = false;\n    }\n\n    /* \n        Only owner methods\n    */\n    function toggleWithdrawSouls () public onlyOwner {\n        withdrawEnabled = ! withdrawEnabled;\n    }\n\n    function adminUnlock () public onlyOwner {\n        require( locked );\n        locked = !locked;\n    }\n\n    function adminUnstake (uint16 _tokenId, address _ownerOf ) public onlyOwner {\n        _unstakeSkull( _ownerOf, _tokenId );\n    }\n\n    function startRewards() public onlyOwner {\n        require( startStakeTimestamp == 0, \"ERR_SEASON_STARTED\");\n        startStakeTimestamp = block.timestamp;\n        endStakeTimestamp = startStakeTimestamp.add( vestingDuration );\n        started = true;\n    }\n\n    function fundRewardPool() public onlyOwner {\n        poolRewardSupply = rewardToken.balanceOf( address(this) );\n    }\n\n    function adminBurnUnvested () public onlyOwner {\n        require( startStakeTimestamp > 0 );\n        uint contractBalance = rewardToken.balanceOf( address(this) );\n        require( contractBalance > 0 );\n        rewardToken.transfer( owner, contractBalance );\n    }\n\n    function setNFTAddress( IERC721 _nftContract ) public onlyOwner {\n        croSkullContract = _nftContract;\n    }\n\n    function setTokenAddress( IERC20 _tokenAddress ) public onlyOwner {\n        rewardToken = _tokenAddress;\n    }\n\n    /* public view function */\n    function _rewardPerCycles() public view returns(uint) { \n        uint rewardPerCycles = poolRewardSupply\n            .div(vestingDuration)\n            .mul(cycleInterval);\n        return rewardPerCycles;\n    }\n\n    /**\n       Modifier: isApproved || isWithdraw || isStake for stakeholders public methods \n     */\n\n    function batchStakeSkulls( uint16[] memory _tokenIds ) public isApproved isStake noReentrant {\n        address _from = msg.sender;\n        require( _tokenIds.length > 0 );\n        for( uint i = 0; i < _tokenIds.length; i++ ){\n            _stakeSkull(_from, _tokenIds[i]);\n        }\n    }\n\n    function batchUnstakeSkulls( uint16[] memory _tokenIds ) public isApproved isStake noReentrant {\n        address _to = msg.sender;\n        require( _tokenIds.length > 0, \"ERR_SELECT_SOME_SKULLS\" );\n        for( uint i = 0; i < _tokenIds.length; i++ ){\n            _unstakeSkull( _to , _tokenIds[i] );\n        }\n    }\n\n    function stakeSkull ( uint16 _tokenId ) public isApproved isStake noReentrant {\n        address _from = msg.sender;\n        _stakeSkull(_from, _tokenId);\n    }\n\n    function unstakeSkull ( uint16 _tokenId ) public isApproved isStake noReentrant {\n        address _to = msg.sender;\n        UserInfo storage currentUser = userDetails[_to];\n        uint skullsAmount = currentUser.tokenCount;\n        require( skullsAmount > 0, \"ERR_NO_SKULLS_STAKED\" );\n        if( currentUser.tokenCount > 0 ){\n            _unstakeSkull(_to, _tokenId);\n        }\n    }\n\n    function _stakeSkull(address _from, uint16 _tokenId  ) private {\n        //[keccka256|address:owner][keccka256|uint16:tokenId]\n        bytes32 tokenHash = keccak256(\n            abi.encodePacked(\n                _from,\n                _tokenId\n            )\n        );\n        if ( croSkullContract.ownerOf(_tokenId) != _from  ) // skull already staked || not owner\n            return;\n\n        UserInfo storage currentUser = userDetails[_from];\n        if( currentUser.tokenCount == 0 && currentUser.lastWithdrawTimestamp == 0 ) {\n            currentUser.lastWithdrawTimestamp = block.timestamp;\n            currentUser.availableBalance = 0;\n            currentUser.enabled = true;\n            usersCount++;\n        }else{\n            uint userRewards = calculateRewards();\n            currentUser.availableBalance = userRewards;\n        }\n        currentUser.startingStake = block.timestamp;\n        currentUser.tokensIds.push(_tokenId);\n        currentUser.tokenCount++;\n        userDetails[_from] = currentUser;\n        skullsOwner[tokenHash] = true;\n        stakedSkullsCount++;\n        croSkullContract.transferFrom( _from, address(this), _tokenId );\n        \n        emit Stake(_from, _tokenId);\n    }\n\n    function _unstakeSkull(address _to, uint16 _tokenId ) private {\n        bytes32 tokenHash = keccak256(\n            abi.encodePacked(\n                _to,\n                _tokenId\n            )\n        );\n        //check previous owner and check if == _to\n        if( skullsOwner[tokenHash] ) {\n            uint userRewards = calculateRewards();\n            userDetails[_to].availableBalance = userRewards;\n            userDetails[_to].tokenCount--;\n            userDetails[_to].startingStake = block.timestamp;\n            croSkullContract.transferFrom(address(this), _to, _tokenId);\n            skullsOwner[tokenHash] = false;\n            stakedSkullsCount--;\n            if( userDetails[_to].tokenCount == 0 ) {\n                usersCount--;\n            }\n            _removeTokenId(_tokenId, _to);\n            //require( croSkullContract.ownerOf(_tokenId) == _to, \"Unstake Failed\" );\n            emit unStake(_to, _tokenId);\n        }\n    }\n\n    function withdraw () public isApproved noReentrant {\n        address _to = msg.sender;\n        require( userDetails[_to].startingStake > 0 );\n        uint userRewards = calculateRewardsPlusMalus();\n        require( rewardToken.balanceOf( address(this) ) >= userRewards );\n        require( rewardToken.transfer( _to, userRewards ) );\n        uint droppedSouls = calculateDroppedSouls();\n        if( droppedSouls > 0 ){\n            require( soulToken.transfer( _to, droppedSouls ) );\n            poolWithdrawedSouls += droppedSouls;\n        }\n        poolWithdrawedAmount += userRewards;\n        userDetails[_to].lastWithdrawTimestamp = block.timestamp;\n        userDetails[_to].startingStake = block.timestamp;\n        userDetails[_to].alreadyClaimed += userRewards;\n        userDetails[_to].availableBalance = 0;\n    }\n\n    function _tenSecCyclesPassed () public view isApproved returns(uint) {\n        require( startStakeTimestamp > 0 );\n        uint currentTimestamp;\n        if( block.timestamp <= endStakeTimestamp ) {\n            currentTimestamp = block.timestamp;\n        }else{\n            currentTimestamp = endStakeTimestamp;\n        }\n        uint actualStakeMinutes = ( currentTimestamp - userDetails[msg.sender].startingStake ) / 10 seconds;\n        return actualStakeMinutes;\n    }\n\n    function _tenSecCyclesPassedLastWithdraw () public view isApproved returns(uint) {\n        require( startStakeTimestamp > 0 );\n        uint currentTimestamp;\n        if( block.timestamp <= endStakeTimestamp ) {\n            currentTimestamp = block.timestamp;\n        }else{\n            currentTimestamp = endStakeTimestamp;\n        }\n        uint actualStakeMinutes = ( currentTimestamp - userDetails[msg.sender].lastWithdrawTimestamp ) / 10 seconds;\n        return actualStakeMinutes;\n    }\n\n    function calculateDroppedSouls() public view isApproved isStake returns (uint) {\n        UserInfo storage tempUser = userDetails[msg.sender];\n        uint16 tokenCount = tempUser.tokenCount; // total staked nfts\n\n        uint totalActiveSeconds = _tenSecCyclesPassedLastWithdraw() // 1200 s\n            .mul(10);\n\n        uint totalMinedSouls = totalActiveSeconds\n            .div(soulsDropInterval)\n            .mul(tokenCount);\n\n        return totalMinedSouls;\n    }\n\n    function daysSinceLastWithdraw() public view isApproved isStake returns( uint, uint ) {\n        uint userActiveCycles = _tenSecCyclesPassedLastWithdraw(); \n        uint totalSecondsPassed = userActiveCycles // if 1728 userActive cicles\n            .mul(cycleInterval);// 1728 * 10 = 17280 s passed\n\n        uint nDaysPassed;\n        \n        if( 1 days > totalSecondsPassed ){\n            nDaysPassed = 0;\n        }else{\n            nDaysPassed = totalSecondsPassed\n            .div(1 days);// 17280 / 86480 = 2 days\n        }\n        return (\n            nDaysPassed,\n            totalSecondsPassed\n        );\n    }\n\n    function calculateMalusFee() public view isApproved isStake returns( uint ) {\n        ( uint nDaysPassed, uint totalSecondsPassed ) = daysSinceLastWithdraw();\n        uint MalusFee = 0;\n        \n        if( totalSecondsPassed < stakeMalusDuration ){ // 1700 <\n            uint stakeMalusInDays = stakeMalusDuration\n                .div(1 days);\n\n            uint malusDays = stakeMalusInDays\n                .sub(nDaysPassed); //2\n            //18\n            uint malusCoef = malusDays// 18\n                .mul(percentOperator)\n                .div(stakeMalusInDays)// 18 / 20 = 0,9\n                .mul(100)// 90\n                .div(percentOperator);\n\n            MalusFee = stakeMalusFee // 50\n                .mul(percentOperator)\n                .div(100)// 50 / 100 = 0,5\n                .mul(malusCoef) // 0,5 * 90 = 45\n                .div(percentOperator);\n        }\n        return MalusFee;\n    }\n\n    function calculateRewardsPlusMalus() public view isApproved isStake returns( uint ) {\n        uint calulcatedMalusFee = calculateMalusFee();\n        uint rewardAmount = calculateRewards();\n        uint calculatedMalus = rewardAmount // 10 000\n                .div(100) // 100\n                .mul(calulcatedMalusFee); // 5 500\n\n        uint userRewardsPlusMalus = rewardAmount // 10 000\n            .sub(calculatedMalus); // 10 000 - 5 500 = 4 500\n\n        return userRewardsPlusMalus;\n    }\n\n    function calculateRewards() public view isApproved isStake returns(uint) {\n        UserInfo storage tempUser = userDetails[msg.sender];\n        uint16 tokenCount = tempUser.tokenCount; // total staked nfts\n\n        uint availableBalance = tempUser.availableBalance;\n        uint userActiveCycles = _tenSecCyclesPassed();\n\n        // calculate time diff and retrieve days\n        uint rewardPerCycles = _rewardPerCycles();\n        // rewardPerCycles / croSkullContractMaxSupply\n        uint rewardPerSkull = rewardPerCycles\n            .div(croSkullContractMaxSupply);\n\n        // rewardPerSkull * tokenCount\n        uint userRewardPerCycle = rewardPerSkull\n            .mul(tokenCount);\n\n        // userRewardPerSkulls * userActiveCycles\n        uint generatedRewards = userRewardPerCycle\n            .mul(userActiveCycles);\n\n\n        uint totalBalance = generatedRewards\n            .add(availableBalance);\n\n        return totalBalance;\n    }\n\n    /* Token utils */\n    function getTokensIds() public view returns( uint16[] memory ) {\n        UserInfo memory currentUser = userDetails[msg.sender];\n        return currentUser.tokensIds;//tempUeser.tokensIds;\n    }\n\n    function checkOwnership( uint16 _tokenId ) public view returns( bool ) {\n        bytes32 tokenHash = keccak256(\n            abi.encodePacked(\n                msg.sender,\n                _tokenId\n            )\n        );\n        bool isStaker  = ( skullsOwner[tokenHash] );\n        return isStaker;\n    }\n\n    /* Internal utils functions */\n    function onERC721Received(address, address, uint256, bytes memory) public virtual override returns (bytes4) {\n        return this.onERC721Received.selector;\n    }\n\n    function approvalStatus() public view returns (bool) {\n        return croSkullContract.isApprovedForAll(msg.sender, address(this));\n    }\n\n    function _removeTokenId(uint16 _tokenId, address _from ) internal {\n        uint16[] storage tokens = userDetails[_from].tokensIds;\n        if( tokens.length == 1 && tokens[0] == _tokenId ){\n            uint16[] memory emptyArray;\n            userDetails[_from].tokensIds = emptyArray;\n        }\n        uint index = getTokenIndex(_tokenId, _from);\n        //remove\n        if( index < tokens.length ) {\n            for (uint i = index; i < tokens.length - 1; i++) {\n                tokens[i] = tokens[i + 1];\n            }\n            tokens.pop();\n            userDetails[_from].tokensIds = tokens;\n        }\n    }\n\n    function getTokenIndex ( uint16 _tokenId, address _from) public view returns( uint ) {\n        uint index = 0;\n        uint16[] memory tokens = userDetails[_from].tokensIds;\n        for( uint i = 0; i < tokens.length; i++) {\n            if( _tokenId == tokens[i]){\n                return i;\n            }\n        }\n        return index;\n    }\n}",
  "sourcePath": "/Users/alessandrodecristofaro/Desktop/DeFi Code/cryptoboys-nft-marketplace/src/contracts/croSkullStaking.sol",
  "compiler": {
    "name": "solc",
    "version": "0.8.0+commit.c7dfd78e.Emscripten.clang"
  },
  "schemaVersion": "3.4.3",
  "updatedAt": "2022-02-14T16:55:43.523Z",
  "devdoc": {
    "kind": "dev",
    "methods": {},
    "version": 1
  },
  "userdoc": {
    "kind": "user",
    "methods": {
      "batchStakeSkulls(uint16[])": {
        "notice": "Modifier: isApproved || isWithdraw || isStake for stakeholders public methods "
      }
    },
    "version": 1
  }
}