{
  "contractName": "CroSkulls",
  "abi": [
    {
      "inputs": [
        {
          "internalType": "bool",
          "name": "_isMarketplace",
          "type": "bool"
        },
        {
          "internalType": "bool",
          "name": "_isWhitelist",
          "type": "bool"
        },
        {
          "internalType": "bool",
          "name": "_isWithdraw",
          "type": "bool"
        }
      ],
      "stateMutability": "nonpayable",
      "type": "constructor"
    },
    {
      "anonymous": false,
      "inputs": [
        {
          "indexed": true,
          "internalType": "address",
          "name": "owner",
          "type": "address"
        },
        {
          "indexed": true,
          "internalType": "address",
          "name": "approved",
          "type": "address"
        },
        {
          "indexed": true,
          "internalType": "uint256",
          "name": "tokenId",
          "type": "uint256"
        }
      ],
      "name": "Approval",
      "type": "event"
    },
    {
      "anonymous": false,
      "inputs": [
        {
          "indexed": true,
          "internalType": "address",
          "name": "owner",
          "type": "address"
        },
        {
          "indexed": true,
          "internalType": "address",
          "name": "operator",
          "type": "address"
        },
        {
          "indexed": false,
          "internalType": "bool",
          "name": "approved",
          "type": "bool"
        }
      ],
      "name": "ApprovalForAll",
      "type": "event"
    },
    {
      "anonymous": false,
      "inputs": [
        {
          "indexed": true,
          "internalType": "address",
          "name": "from",
          "type": "address"
        },
        {
          "indexed": true,
          "internalType": "address",
          "name": "to",
          "type": "address"
        },
        {
          "indexed": true,
          "internalType": "uint256",
          "name": "tokenId",
          "type": "uint256"
        }
      ],
      "name": "Transfer",
      "type": "event"
    },
    {
      "inputs": [
        {
          "internalType": "address",
          "name": "",
          "type": "address"
        }
      ],
      "name": "addressMintedBalance",
      "outputs": [
        {
          "internalType": "uint256",
          "name": "",
          "type": "uint256"
        }
      ],
      "stateMutability": "view",
      "type": "function",
      "constant": true
    },
    {
      "inputs": [
        {
          "internalType": "uint256",
          "name": "",
          "type": "uint256"
        }
      ],
      "name": "allCroSkulls",
      "outputs": [
        {
          "internalType": "uint256",
          "name": "tokenId",
          "type": "uint256"
        },
        {
          "internalType": "address payable",
          "name": "mintedBy",
          "type": "address"
        },
        {
          "internalType": "address payable",
          "name": "currentOwner",
          "type": "address"
        },
        {
          "internalType": "address payable",
          "name": "previousOwner",
          "type": "address"
        },
        {
          "internalType": "uint256",
          "name": "price",
          "type": "uint256"
        },
        {
          "internalType": "uint256",
          "name": "numberOfTransfers",
          "type": "uint256"
        },
        {
          "internalType": "bool",
          "name": "forSale",
          "type": "bool"
        }
      ],
      "stateMutability": "view",
      "type": "function",
      "constant": true
    },
    {
      "inputs": [
        {
          "internalType": "address",
          "name": "to",
          "type": "address"
        },
        {
          "internalType": "uint256",
          "name": "tokenId",
          "type": "uint256"
        }
      ],
      "name": "approve",
      "outputs": [],
      "stateMutability": "nonpayable",
      "type": "function"
    },
    {
      "inputs": [
        {
          "internalType": "address",
          "name": "owner",
          "type": "address"
        }
      ],
      "name": "balanceOf",
      "outputs": [
        {
          "internalType": "uint256",
          "name": "",
          "type": "uint256"
        }
      ],
      "stateMutability": "view",
      "type": "function",
      "constant": true
    },
    {
      "inputs": [],
      "name": "baseURI",
      "outputs": [
        {
          "internalType": "string",
          "name": "",
          "type": "string"
        }
      ],
      "stateMutability": "view",
      "type": "function",
      "constant": true
    },
    {
      "inputs": [],
      "name": "collectionName",
      "outputs": [
        {
          "internalType": "string",
          "name": "",
          "type": "string"
        }
      ],
      "stateMutability": "view",
      "type": "function",
      "constant": true
    },
    {
      "inputs": [],
      "name": "collectionNameSymbol",
      "outputs": [
        {
          "internalType": "string",
          "name": "",
          "type": "string"
        }
      ],
      "stateMutability": "view",
      "type": "function",
      "constant": true
    },
    {
      "inputs": [],
      "name": "cost",
      "outputs": [
        {
          "internalType": "uint256",
          "name": "",
          "type": "uint256"
        }
      ],
      "stateMutability": "view",
      "type": "function",
      "constant": true
    },
    {
      "inputs": [],
      "name": "croSkullCounter",
      "outputs": [
        {
          "internalType": "uint256",
          "name": "",
          "type": "uint256"
        }
      ],
      "stateMutability": "view",
      "type": "function",
      "constant": true
    },
    {
      "inputs": [
        {
          "internalType": "uint256",
          "name": "tokenId",
          "type": "uint256"
        }
      ],
      "name": "getApproved",
      "outputs": [
        {
          "internalType": "address",
          "name": "",
          "type": "address"
        }
      ],
      "stateMutability": "view",
      "type": "function",
      "constant": true
    },
    {
      "inputs": [
        {
          "internalType": "address",
          "name": "owner",
          "type": "address"
        },
        {
          "internalType": "address",
          "name": "operator",
          "type": "address"
        }
      ],
      "name": "isApprovedForAll",
      "outputs": [
        {
          "internalType": "bool",
          "name": "",
          "type": "bool"
        }
      ],
      "stateMutability": "view",
      "type": "function",
      "constant": true
    },
    {
      "inputs": [],
      "name": "manager",
      "outputs": [
        {
          "internalType": "address",
          "name": "",
          "type": "address"
        }
      ],
      "stateMutability": "view",
      "type": "function",
      "constant": true
    },
    {
      "inputs": [],
      "name": "marketplaceFee",
      "outputs": [
        {
          "internalType": "uint256",
          "name": "",
          "type": "uint256"
        }
      ],
      "stateMutability": "view",
      "type": "function",
      "constant": true
    },
    {
      "inputs": [],
      "name": "maxMintAmount",
      "outputs": [
        {
          "internalType": "uint256",
          "name": "",
          "type": "uint256"
        }
      ],
      "stateMutability": "view",
      "type": "function",
      "constant": true
    },
    {
      "inputs": [],
      "name": "maxSupply",
      "outputs": [
        {
          "internalType": "uint256",
          "name": "",
          "type": "uint256"
        }
      ],
      "stateMutability": "view",
      "type": "function",
      "constant": true
    },
    {
      "inputs": [],
      "name": "name",
      "outputs": [
        {
          "internalType": "string",
          "name": "",
          "type": "string"
        }
      ],
      "stateMutability": "view",
      "type": "function",
      "constant": true
    },
    {
      "inputs": [],
      "name": "nftPerAddressLimit",
      "outputs": [
        {
          "internalType": "uint256",
          "name": "",
          "type": "uint256"
        }
      ],
      "stateMutability": "view",
      "type": "function",
      "constant": true
    },
    {
      "inputs": [],
      "name": "owner",
      "outputs": [
        {
          "internalType": "address",
          "name": "",
          "type": "address"
        }
      ],
      "stateMutability": "view",
      "type": "function",
      "constant": true
    },
    {
      "inputs": [
        {
          "internalType": "uint256",
          "name": "tokenId",
          "type": "uint256"
        }
      ],
      "name": "ownerOf",
      "outputs": [
        {
          "internalType": "address",
          "name": "",
          "type": "address"
        }
      ],
      "stateMutability": "view",
      "type": "function",
      "constant": true
    },
    {
      "inputs": [],
      "name": "rewardPoolsCounter",
      "outputs": [
        {
          "internalType": "uint256",
          "name": "",
          "type": "uint256"
        }
      ],
      "stateMutability": "view",
      "type": "function",
      "constant": true
    },
    {
      "inputs": [
        {
          "internalType": "address",
          "name": "",
          "type": "address"
        }
      ],
      "name": "rewardableUsers",
      "outputs": [
        {
          "internalType": "uint256",
          "name": "",
          "type": "uint256"
        }
      ],
      "stateMutability": "view",
      "type": "function",
      "constant": true
    },
    {
      "inputs": [
        {
          "internalType": "address",
          "name": "from",
          "type": "address"
        },
        {
          "internalType": "address",
          "name": "to",
          "type": "address"
        },
        {
          "internalType": "uint256",
          "name": "tokenId",
          "type": "uint256"
        }
      ],
      "name": "safeTransferFrom",
      "outputs": [],
      "stateMutability": "nonpayable",
      "type": "function"
    },
    {
      "inputs": [
        {
          "internalType": "address",
          "name": "from",
          "type": "address"
        },
        {
          "internalType": "address",
          "name": "to",
          "type": "address"
        },
        {
          "internalType": "uint256",
          "name": "tokenId",
          "type": "uint256"
        },
        {
          "internalType": "bytes",
          "name": "_data",
          "type": "bytes"
        }
      ],
      "name": "safeTransferFrom",
      "outputs": [],
      "stateMutability": "nonpayable",
      "type": "function"
    },
    {
      "inputs": [
        {
          "internalType": "address",
          "name": "operator",
          "type": "address"
        },
        {
          "internalType": "bool",
          "name": "approved",
          "type": "bool"
        }
      ],
      "name": "setApprovalForAll",
      "outputs": [],
      "stateMutability": "nonpayable",
      "type": "function"
    },
    {
      "inputs": [
        {
          "internalType": "string",
          "name": "",
          "type": "string"
        }
      ],
      "name": "settings",
      "outputs": [
        {
          "internalType": "bool",
          "name": "",
          "type": "bool"
        }
      ],
      "stateMutability": "view",
      "type": "function",
      "constant": true
    },
    {
      "inputs": [
        {
          "internalType": "bytes4",
          "name": "interfaceId",
          "type": "bytes4"
        }
      ],
      "name": "supportsInterface",
      "outputs": [
        {
          "internalType": "bool",
          "name": "",
          "type": "bool"
        }
      ],
      "stateMutability": "view",
      "type": "function",
      "constant": true
    },
    {
      "inputs": [],
      "name": "symbol",
      "outputs": [
        {
          "internalType": "string",
          "name": "",
          "type": "string"
        }
      ],
      "stateMutability": "view",
      "type": "function",
      "constant": true
    },
    {
      "inputs": [
        {
          "internalType": "uint256",
          "name": "index",
          "type": "uint256"
        }
      ],
      "name": "tokenByIndex",
      "outputs": [
        {
          "internalType": "uint256",
          "name": "",
          "type": "uint256"
        }
      ],
      "stateMutability": "view",
      "type": "function",
      "constant": true
    },
    {
      "inputs": [
        {
          "internalType": "address",
          "name": "owner",
          "type": "address"
        },
        {
          "internalType": "uint256",
          "name": "index",
          "type": "uint256"
        }
      ],
      "name": "tokenOfOwnerByIndex",
      "outputs": [
        {
          "internalType": "uint256",
          "name": "",
          "type": "uint256"
        }
      ],
      "stateMutability": "view",
      "type": "function",
      "constant": true
    },
    {
      "inputs": [
        {
          "internalType": "uint256",
          "name": "tokenId",
          "type": "uint256"
        }
      ],
      "name": "tokenURI",
      "outputs": [
        {
          "internalType": "string",
          "name": "",
          "type": "string"
        }
      ],
      "stateMutability": "view",
      "type": "function",
      "constant": true
    },
    {
      "inputs": [
        {
          "internalType": "string",
          "name": "",
          "type": "string"
        }
      ],
      "name": "tokenURIExists",
      "outputs": [
        {
          "internalType": "bool",
          "name": "",
          "type": "bool"
        }
      ],
      "stateMutability": "view",
      "type": "function",
      "constant": true
    },
    {
      "inputs": [],
      "name": "totalCROVolume",
      "outputs": [
        {
          "internalType": "uint256",
          "name": "",
          "type": "uint256"
        }
      ],
      "stateMutability": "view",
      "type": "function",
      "constant": true
    },
    {
      "inputs": [],
      "name": "totalRewardPercent",
      "outputs": [
        {
          "internalType": "uint256",
          "name": "",
          "type": "uint256"
        }
      ],
      "stateMutability": "view",
      "type": "function",
      "constant": true
    },
    {
      "inputs": [],
      "name": "totalSupply",
      "outputs": [
        {
          "internalType": "uint256",
          "name": "",
          "type": "uint256"
        }
      ],
      "stateMutability": "view",
      "type": "function",
      "constant": true
    },
    {
      "inputs": [
        {
          "internalType": "address",
          "name": "from",
          "type": "address"
        },
        {
          "internalType": "address",
          "name": "to",
          "type": "address"
        },
        {
          "internalType": "uint256",
          "name": "tokenId",
          "type": "uint256"
        }
      ],
      "name": "transferFrom",
      "outputs": [],
      "stateMutability": "nonpayable",
      "type": "function"
    },
    {
      "inputs": [
        {
          "internalType": "address",
          "name": "",
          "type": "address"
        }
      ],
      "name": "userClaimedRewards",
      "outputs": [
        {
          "internalType": "uint256",
          "name": "",
          "type": "uint256"
        }
      ],
      "stateMutability": "view",
      "type": "function",
      "constant": true
    },
    {
      "inputs": [
        {
          "internalType": "address",
          "name": "",
          "type": "address"
        }
      ],
      "name": "whitelist",
      "outputs": [
        {
          "internalType": "bool",
          "name": "",
          "type": "bool"
        }
      ],
      "stateMutability": "view",
      "type": "function",
      "constant": true
    },
    {
      "inputs": [
        {
          "internalType": "string",
          "name": "baseURI",
          "type": "string"
        }
      ],
      "name": "setBaseURI",
      "outputs": [],
      "stateMutability": "nonpayable",
      "type": "function"
    },
    {
      "inputs": [],
      "name": "getMaxSupply",
      "outputs": [
        {
          "internalType": "uint256",
          "name": "",
          "type": "uint256"
        }
      ],
      "stateMutability": "view",
      "type": "function",
      "constant": true
    },
    {
      "inputs": [],
      "name": "getCost",
      "outputs": [
        {
          "internalType": "uint256",
          "name": "",
          "type": "uint256"
        }
      ],
      "stateMutability": "view",
      "type": "function",
      "constant": true
    },
    {
      "inputs": [
        {
          "internalType": "address",
          "name": "_address",
          "type": "address"
        }
      ],
      "name": "addToWhitelist",
      "outputs": [],
      "stateMutability": "nonpayable",
      "type": "function"
    },
    {
      "inputs": [
        {
          "internalType": "uint256",
          "name": "_fee",
          "type": "uint256"
        }
      ],
      "name": "setMarketplaceFee",
      "outputs": [],
      "stateMutability": "nonpayable",
      "type": "function"
    },
    {
      "inputs": [
        {
          "internalType": "uint256",
          "name": "_mintAmount",
          "type": "uint256"
        }
      ],
      "name": "mintCroSkull",
      "outputs": [],
      "stateMutability": "payable",
      "type": "function",
      "payable": true
    },
    {
      "inputs": [],
      "name": "getOwner",
      "outputs": [
        {
          "internalType": "address",
          "name": "",
          "type": "address"
        }
      ],
      "stateMutability": "view",
      "type": "function",
      "constant": true
    },
    {
      "inputs": [],
      "name": "getManager",
      "outputs": [
        {
          "internalType": "address",
          "name": "",
          "type": "address"
        }
      ],
      "stateMutability": "view",
      "type": "function",
      "constant": true
    },
    {
      "inputs": [
        {
          "internalType": "address",
          "name": "_manager",
          "type": "address"
        }
      ],
      "name": "setManager",
      "outputs": [],
      "stateMutability": "nonpayable",
      "type": "function"
    },
    {
      "inputs": [
        {
          "internalType": "uint256",
          "name": "_tokenId",
          "type": "uint256"
        }
      ],
      "name": "getTokenOwner",
      "outputs": [
        {
          "internalType": "address",
          "name": "",
          "type": "address"
        }
      ],
      "stateMutability": "view",
      "type": "function",
      "constant": true
    },
    {
      "inputs": [
        {
          "internalType": "uint256",
          "name": "_tokenId",
          "type": "uint256"
        }
      ],
      "name": "getTokenMetaData",
      "outputs": [
        {
          "internalType": "string",
          "name": "",
          "type": "string"
        }
      ],
      "stateMutability": "view",
      "type": "function",
      "constant": true
    },
    {
      "inputs": [],
      "name": "getNumberOfTokensMinted",
      "outputs": [
        {
          "internalType": "uint256",
          "name": "",
          "type": "uint256"
        }
      ],
      "stateMutability": "view",
      "type": "function",
      "constant": true
    },
    {
      "inputs": [
        {
          "internalType": "address",
          "name": "_owner",
          "type": "address"
        }
      ],
      "name": "getTotalNumberOfTokensOwnedByAnAddress",
      "outputs": [
        {
          "internalType": "uint256",
          "name": "",
          "type": "uint256"
        }
      ],
      "stateMutability": "view",
      "type": "function",
      "constant": true
    },
    {
      "inputs": [
        {
          "internalType": "uint256",
          "name": "_tokenId",
          "type": "uint256"
        }
      ],
      "name": "getTokenExists",
      "outputs": [
        {
          "internalType": "bool",
          "name": "",
          "type": "bool"
        }
      ],
      "stateMutability": "view",
      "type": "function",
      "constant": true
    },
    {
      "inputs": [
        {
          "internalType": "uint256",
          "name": "_tokenId",
          "type": "uint256"
        }
      ],
      "name": "buyToken",
      "outputs": [],
      "stateMutability": "payable",
      "type": "function",
      "payable": true
    },
    {
      "inputs": [
        {
          "internalType": "uint256",
          "name": "_tokenId",
          "type": "uint256"
        },
        {
          "internalType": "uint256",
          "name": "_newPrice",
          "type": "uint256"
        }
      ],
      "name": "changeTokenPrice",
      "outputs": [],
      "stateMutability": "nonpayable",
      "type": "function"
    },
    {
      "inputs": [
        {
          "internalType": "uint256",
          "name": "_tokenId",
          "type": "uint256"
        }
      ],
      "name": "toggleForSale",
      "outputs": [],
      "stateMutability": "nonpayable",
      "type": "function"
    },
    {
      "inputs": [
        {
          "internalType": "string",
          "name": "_settings",
          "type": "string"
        }
      ],
      "name": "toggleSetting",
      "outputs": [],
      "stateMutability": "nonpayable",
      "type": "function"
    },
    {
      "inputs": [
        {
          "internalType": "uint256",
          "name": "_limit",
          "type": "uint256"
        }
      ],
      "name": "setNftPerAddressLimit",
      "outputs": [],
      "stateMutability": "nonpayable",
      "type": "function"
    },
    {
      "inputs": [
        {
          "internalType": "uint256",
          "name": "_newCost",
          "type": "uint256"
        }
      ],
      "name": "setCost",
      "outputs": [],
      "stateMutability": "nonpayable",
      "type": "function"
    },
    {
      "inputs": [
        {
          "internalType": "uint256",
          "name": "_newmaxMintAmount",
          "type": "uint256"
        }
      ],
      "name": "setmaxMintAmount",
      "outputs": [],
      "stateMutability": "nonpayable",
      "type": "function"
    },
    {
      "inputs": [
        {
          "internalType": "address",
          "name": "_rewardableAddress",
          "type": "address"
        },
        {
          "internalType": "uint256",
          "name": "percent",
          "type": "uint256"
        }
      ],
      "name": "addRewardable",
      "outputs": [],
      "stateMutability": "nonpayable",
      "type": "function"
    },
    {
      "inputs": [],
      "name": "withdrawReward",
      "outputs": [],
      "stateMutability": "payable",
      "type": "function",
      "payable": true
    },
    {
      "inputs": [],
      "name": "getRewardValue",
      "outputs": [
        {
          "internalType": "uint256",
          "name": "",
          "type": "uint256"
        }
      ],
      "stateMutability": "view",
      "type": "function",
      "constant": true
    },
    {
      "inputs": [],
      "name": "getRewardFee",
      "outputs": [
        {
          "internalType": "uint256",
          "name": "",
          "type": "uint256"
        }
      ],
      "stateMutability": "view",
      "type": "function",
      "constant": true
    }
  ],
  "bytecode": "0x6080604052670de0b6b3a7640000600d55611a0a600e556005600f55606460105560046015556000601d553480156200003757600080fd5b50604051620065a7380380620065a783398181016040528101906200005d9190620005bb565b6040518060400160405280600881526020017f43524f536b756c6c0000000000000000000000000000000000000000000000008152506040518060400160405280600381526020017f4352530000000000000000000000000000000000000000000000000000000000815250620000e16301ffc9a760e01b6200029960201b60201c565b8160069080519060200190620000f9929190620004ee565b50806007908051906020019062000112929190620004ee565b506200012b6380ac58cd60e01b6200029960201b60201c565b62000143635b5e139f60e01b6200029960201b60201c565b6200015b63780e9d6360e01b6200029960201b60201c565b505033601360006101000a81548173ffffffffffffffffffffffffffffffffffffffff021916908373ffffffffffffffffffffffffffffffffffffffff160217905550620001ae620003a260201b60201c565b600a9080519060200190620001c5929190620004ee565b50620001d66200044860201b60201c565b600b9080519060200190620001ed929190620004ee565b50826019604051620001ff9062000705565b908152602001604051809103902060006101000a81548160ff0219169083151502179055508160196040516200023590620006d7565b908152602001604051809103902060006101000a81548160ff0219169083151502179055508060196040516200026b90620006ee565b908152602001604051809103902060006101000a81548160ff0219169083151502179055505050506200074d565b63ffffffff60e01b817bffffffffffffffffffffffffffffffffffffffffffffffffffffffff1916141562000336576040517f08c379a000000000000000000000000000000000000000000000000000000000815260040180806020018281038252601c8152602001807f4552433136353a20696e76616c696420696e746572666163652069640000000081525060200191505060405180910390fd5b6001600080837bffffffffffffffffffffffffffffffffffffffffffffffffffffffff19167bffffffffffffffffffffffffffffffffffffffffffffffffffffffff1916815260200190815260200160002060006101000a81548160ff02191690831515021790555050565b606060068054600181600116156101000203166002900480601f0160208091040260200160405190810160405280929190818152602001828054600181600116156101000203166002900480156200043e5780601f1062000412576101008083540402835291602001916200043e565b820191906000526020600020905b8154815290600101906020018083116200042057829003601f168201915b5050505050905090565b606060078054600181600116156101000203166002900480601f016020809104026020016040519081016040528092919081815260200182805460018160011615610100020316600290048015620004e45780601f10620004b857610100808354040283529160200191620004e4565b820191906000526020600020905b815481529060010190602001808311620004c657829003601f168201915b5050505050905090565b828054600181600116156101000203166002900490600052602060002090601f01602090048101928262000526576000855562000572565b82601f106200054157805160ff191683800117855562000572565b8280016001018555821562000572579182015b828111156200057157825182559160200191906001019062000554565b5b50905062000581919062000585565b5090565b5b80821115620005a057600081600090555060010162000586565b5090565b600081519050620005b58162000733565b92915050565b600080600060608486031215620005d157600080fd5b6000620005e186828701620005a4565b9350506020620005f486828701620005a4565b92505060406200060786828701620005a4565b9150509250925092565b600062000620600b836200071c565b91507f697357686974656c6973740000000000000000000000000000000000000000006000830152600b82019050919050565b600062000662600a836200071c565b91507f69735769746864726177000000000000000000000000000000000000000000006000830152600a82019050919050565b6000620006a4600d836200071c565b91507f69734d61726b6574706c616365000000000000000000000000000000000000006000830152600d82019050919050565b6000620006e48262000611565b9150819050919050565b6000620006fb8262000653565b9150819050919050565b6000620007128262000695565b9150819050919050565b600081905092915050565b60008115159050919050565b6200073e8162000727565b81146200074a57600080fd5b50565b615e4a806200075d6000396000f3fe6080604052600436106103ac5760003560e01c806370a08231116101e7578063b46fcf6d1161010d578063d0ebdbe7116100a0578063e43252d71161006f578063e43252d714610e5c578063e5326ab114610e85578063e985e9c514610eb0578063fb39990f14610eed576103ac565b8063d0ebdbe714610db2578063d34f6ecb14610ddb578063d500958414610e06578063d5abeb0114610e31576103ac565b8063c87b56dd116100dc578063c87b56dd14610d17578063c885bc5814610d54578063cc151f3a14610d5e578063d0eb26b014610d89576103ac565b8063b46fcf6d14610c6d578063b88d4fde14610c98578063ba7d2c7614610cc1578063bd3e19d414610cec576103ac565b80638da5cb5b116101855780639b19251a116101545780639b19251a14610ba1578063a22cb46514610bde578063a32018b914610c07578063a5cd761f14610c30576103ac565b80638da5cb5b14610adf5780639407ea9814610b0a57806395d89b4114610b335780639a59758f14610b5e576103ac565b80637f00c7a6116101c15780637f00c7a614610a375780637fe6303c14610a60578063893d20e814610a8b5780638b84eaad14610ab6576103ac565b806370a08231146109a6578063710559ac146109e357806376289f3814610a0c576103ac565b806342842e0e116102d757806362e8e8ac1161026a5780636a166964116102395780636a166964146108e85780636c0360eb146109135780636d7ad3951461093e5780636f9507f91461097b576103ac565b806362e8e8ac146108295780636352211e1461085257806367c623cf1461088f5780636943ed94146108cc576103ac565b8063481c6a75116102a6578063481c6a751461076d5780634c0f38c2146107985780634f6ccce7146107c357806355f804b314610800576103ac565b806342842e0e146106a157806343902850146106ca57806343d32ae71461070757806344a0d68a14610744576103ac565b8063142687f31161034f57806323b872dd1161031e57806323b872dd146105e25780632d296bf11461060b5780632f745c59146106275780633687a44114610664576103ac565b8063142687f31461051257806318160ddd1461054f57806318cae2691461057a578063239c70ae146105b7576103ac565b8063081812fc1161038b578063081812fc14610456578063095ea7b3146104935780630f2bdef6146104bc57806313faede6146104e7576103ac565b8062f1197c146103b157806301ffc9a7146103ee57806306fdde031461042b575b600080fd5b3480156103bd57600080fd5b506103d860048036038101906103d391906152ae565b610f18565b6040516103e59190615922565b60405180910390f35b3480156103fa57600080fd5b5061041560048036038101906104109190615455565b610f30565b6040516104229190615865565b60405180910390f35b34801561043757600080fd5b50610440610f97565b60405161044d9190615880565b60405180910390f35b34801561046257600080fd5b5061047d60048036038101906104789190615504565b611039565b60405161048a919061584a565b60405180910390f35b34801561049f57600080fd5b506104ba60048036038101906104b59190615419565b6110d4565b005b3480156104c857600080fd5b506104d1611218565b6040516104de9190615922565b60405180910390f35b3480156104f357600080fd5b506104fc611310565b6040516105099190615922565b60405180910390f35b34801561051e57600080fd5b5061053960048036038101906105349190615504565b611316565b6040516105469190615865565b60405180910390f35b34801561055b57600080fd5b5061056461132d565b6040516105719190615922565b60405180910390f35b34801561058657600080fd5b506105a1600480360381019061059c91906152ae565b61133e565b6040516105ae9190615922565b60405180910390f35b3480156105c357600080fd5b506105cc611356565b6040516105d99190615922565b60405180910390f35b3480156105ee57600080fd5b5061060960048036038101906106049190615313565b61135c565b005b61062560048036038101906106209190615504565b6113d2565b005b34801561063357600080fd5b5061064e60048036038101906106499190615419565b611934565b60405161065b9190615922565b60405180910390f35b34801561067057600080fd5b5061068b600480360381019061068691906152ae565b61198f565b6040516106989190615922565b60405180910390f35b3480156106ad57600080fd5b506106c860048036038101906106c39190615313565b6119a7565b005b3480156106d657600080fd5b506106f160048036038101906106ec91906152ae565b6119c7565b6040516106fe9190615922565b60405180910390f35b34801561071357600080fd5b5061072e600480360381019061072991906154c3565b6119de565b60405161073b9190615865565b60405180910390f35b34801561075057600080fd5b5061076b60048036038101906107669190615504565b611a14565b005b34801561077957600080fd5b50610782611b04565b60405161078f919061584a565b60405180910390f35b3480156107a457600080fd5b506107ad611b2a565b6040516107ba9190615922565b60405180910390f35b3480156107cf57600080fd5b506107ea60048036038101906107e59190615504565b611b34565b6040516107f79190615922565b60405180910390f35b34801561080c57600080fd5b50610827600480360381019061082291906154c3565b611b57565b005b34801561083557600080fd5b50610850600480360381019061084b919061552d565b611bbd565b005b34801561085e57600080fd5b5061087960048036038101906108749190615504565b611f4e565b604051610886919061584a565b60405180910390f35b34801561089b57600080fd5b506108b660048036038101906108b19190615504565b611f85565b6040516108c39190615880565b60405180910390f35b6108e660048036038101906108e19190615504565b611f9d565b005b3480156108f457600080fd5b506108fd612349565b60405161090a9190615922565b60405180910390f35b34801561091f57600080fd5b5061092861234f565b6040516109359190615880565b60405180910390f35b34801561094a57600080fd5b50610965600480360381019061096091906154c3565b6123f1565b6040516109729190615865565b60405180910390f35b34801561098757600080fd5b50610990612427565b60405161099d9190615880565b60405180910390f35b3480156109b257600080fd5b506109cd60048036038101906109c891906152ae565b6124c5565b6040516109da9190615922565b60405180910390f35b3480156109ef57600080fd5b50610a0a6004803603810190610a05919061547e565b61259a565b005b348015610a1857600080fd5b50610a216126ea565b604051610a2e9190615922565b60405180910390f35b348015610a4357600080fd5b50610a5e6004803603810190610a599190615504565b612731565b005b348015610a6c57600080fd5b50610a75612821565b604051610a829190615922565b60405180910390f35b348015610a9757600080fd5b50610aa0612827565b604051610aad919061584a565b60405180910390f35b348015610ac257600080fd5b50610add6004803603810190610ad89190615419565b612851565b005b348015610aeb57600080fd5b50610af46129a5565b604051610b01919061584a565b60405180910390f35b348015610b1657600080fd5b50610b316004803603810190610b2c9190615504565b6129cb565b005b348015610b3f57600080fd5b50610b48612aca565b604051610b559190615880565b60405180910390f35b348015610b6a57600080fd5b50610b856004803603810190610b809190615504565b612b6c565b604051610b98979695949392919061593d565b60405180910390f35b348015610bad57600080fd5b50610bc86004803603810190610bc391906152ae565b612c1b565b604051610bd59190615865565b60405180910390f35b348015610bea57600080fd5b50610c056004803603810190610c0091906153dd565b612c3b565b005b348015610c1357600080fd5b50610c2e6004803603810190610c299190615504565b612df1565b005b348015610c3c57600080fd5b50610c576004803603810190610c529190615504565b6131a9565b604051610c64919061584a565b60405180910390f35b348015610c7957600080fd5b50610c826131c0565b604051610c8f9190615922565b60405180910390f35b348015610ca457600080fd5b50610cbf6004803603810190610cba9190615362565b6131c6565b005b348015610ccd57600080fd5b50610cd661323e565b604051610ce39190615922565b60405180910390f35b348015610cf857600080fd5b50610d01613244565b604051610d0e9190615922565b60405180910390f35b348015610d2357600080fd5b50610d3e6004803603810190610d399190615504565b61324e565b604051610d4b9190615880565b60405180910390f35b610d5c61351f565b005b348015610d6a57600080fd5b50610d736136b2565b604051610d809190615922565b60405180910390f35b348015610d9557600080fd5b50610db06004803603810190610dab9190615504565b6136c6565b005b348015610dbe57600080fd5b50610dd96004803603810190610dd491906152ae565b6137b6565b005b348015610de757600080fd5b50610df06138e9565b604051610dfd9190615922565b60405180910390f35b348015610e1257600080fd5b50610e1b6138ef565b604051610e28919061584a565b60405180910390f35b348015610e3d57600080fd5b50610e46613919565b604051610e539190615922565b60405180910390f35b348015610e6857600080fd5b50610e836004803603810190610e7e91906152ae565b61391f565b005b348015610e9157600080fd5b50610e9a613aea565b604051610ea79190615880565b60405180910390f35b348015610ebc57600080fd5b50610ed76004803603810190610ed291906152d7565b613b88565b604051610ee49190615865565b60405180910390f35b348015610ef957600080fd5b50610f02613c1c565b604051610f0f9190615922565b60405180910390f35b601c6020528060005260406000206000915090505481565b6000806000837bffffffffffffffffffffffffffffffffffffffffffffffffffffffff19167bffffffffffffffffffffffffffffffffffffffffffffffffffffffff1916815260200190815260200160002060009054906101000a900460ff169050919050565b606060068054600181600116156101000203166002900480601f01602080910402602001604051908101604052809291908181526020018280546001816001161561010002031660029004801561102f5780601f106110045761010080835404028352916020019161102f565b820191906000526020600020905b81548152906001019060200180831161101257829003601f168201915b5050505050905090565b600061104482613c22565b611099576040517f08c379a000000000000000000000000000000000000000000000000000000000815260040180806020018281038252602c815260200180615d3f602c913960400191505060405180910390fd5b6004600083815260200190815260200160002060009054906101000a900473ffffffffffffffffffffffffffffffffffffffff169050919050565b60006110df82611f4e565b90508073ffffffffffffffffffffffffffffffffffffffff168373ffffffffffffffffffffffffffffffffffffffff161415611166576040517f08c379a0000000000000000000000000000000000000000000000000000000008152600401808060200182810382526021815260200180615dc36021913960400191505060405180910390fd5b8073ffffffffffffffffffffffffffffffffffffffff16611185613c3f565b73ffffffffffffffffffffffffffffffffffffffff1614806111b457506111b3816111ae613c3f565b613b88565b5b611209576040517f08c379a0000000000000000000000000000000000000000000000000000000008152600401808060200182810382526038815260200180615c716038913960400191505060405180910390fd5b6112138383613c47565b505050565b600080601b60003373ffffffffffffffffffffffffffffffffffffffff1673ffffffffffffffffffffffffffffffffffffffff1681526020019081526020016000205490506000811161126a57600080fd5b6000611295826112876103e8601d54613d0090919063ffffffff16565b613d8990919063ffffffff16565b90506000601c60003373ffffffffffffffffffffffffffffffffffffffff1673ffffffffffffffffffffffffffffffffffffffff16815260200190815260200160002054905060006112f08284613e0f90919063ffffffff16565b9050808310156112fc57fe5b8047101561130657fe5b8094505050505090565b600d5481565b60008061132283613c22565b905080915050919050565b60006113396002613e92565b905090565b60176020528060005260406000206000915090505481565b600f5481565b61136d611367613c3f565b82613ea7565b6113c2576040517f08c379a0000000000000000000000000000000000000000000000000000000008152600401808060200182810382526031815260200180615de46031913960400191505060405180910390fd5b6113cd838383613f9b565b505050565b60196040516113e090615835565b908152602001604051809103902060009054906101000a900460ff1661143b576040517f08c379a0000000000000000000000000000000000000000000000000000000008152600401611432906158c2565b60405180910390fd5b601960405161144990615835565b908152602001604051809103902060009054906101000a900460ff1661146e57600080fd5b600073ffffffffffffffffffffffffffffffffffffffff163373ffffffffffffffffffffffffffffffffffffffff1614156114a857600080fd5b6114b181613c22565b6114ba57600080fd5b60006114c582611f4e565b9050600073ffffffffffffffffffffffffffffffffffffffff168173ffffffffffffffffffffffffffffffffffffffff16141561150157600080fd5b3373ffffffffffffffffffffffffffffffffffffffff168173ffffffffffffffffffffffffffffffffffffffff16141561153a57600080fd5b6000601660008481526020019081526020016000206040518060e0016040529081600082015481526020016001820160009054906101000a900473ffffffffffffffffffffffffffffffffffffffff1673ffffffffffffffffffffffffffffffffffffffff1673ffffffffffffffffffffffffffffffffffffffff1681526020016002820160009054906101000a900473ffffffffffffffffffffffffffffffffffffffff1673ffffffffffffffffffffffffffffffffffffffff1673ffffffffffffffffffffffffffffffffffffffff1681526020016003820160009054906101000a900473ffffffffffffffffffffffffffffffffffffffff1673ffffffffffffffffffffffffffffffffffffffff1673ffffffffffffffffffffffffffffffffffffffff16815260200160048201548152602001600582015481526020016006820160009054906101000a900460ff161515151581525050905080608001513410156116a857600080fd5b8060c001516116b657600080fd5b6116c1823385613f9b565b60008160400151905060006116f760646116e960155460640334613d8990919063ffffffff16565b613d0090919063ffffffff16565b90508173ffffffffffffffffffffffffffffffffffffffff166108fc829081150290604051600060405180830381858888f1935050505015801561173f573d6000803e3d6000fd5b508260400151836060019073ffffffffffffffffffffffffffffffffffffffff16908173ffffffffffffffffffffffffffffffffffffffff168152505033836040019073ffffffffffffffffffffffffffffffffffffffff16908173ffffffffffffffffffffffffffffffffffffffff168152505060018360a001818151019150818152505060008360c001901515908115158152505082601660008781526020019081526020016000206000820151816000015560208201518160010160006101000a81548173ffffffffffffffffffffffffffffffffffffffff021916908373ffffffffffffffffffffffffffffffffffffffff16021790555060408201518160020160006101000a81548173ffffffffffffffffffffffffffffffffffffffff021916908373ffffffffffffffffffffffffffffffffffffffff16021790555060608201518160030160006101000a81548173ffffffffffffffffffffffffffffffffffffffff021916908373ffffffffffffffffffffffffffffffffffffffff1602179055506080820151816004015560a0820151816005015560c08201518160060160006101000a81548160ff0219169083151502179055509050506119276119168234613e0f90919063ffffffff16565b601d546141de90919063ffffffff16565b601d819055505050505050565b600061198782600160008673ffffffffffffffffffffffffffffffffffffffff1673ffffffffffffffffffffffffffffffffffffffff16815260200190815260200160002061426690919063ffffffff16565b905092915050565b601b6020528060005260406000206000915090505481565b6119c2838383604051806020016040528060008152506131c6565b505050565b6000806119d3836124c5565b905080915050919050565b6018818051602081018201805184825260208301602085012081835280955050505050506000915054906101000a900460ff1681565b601360009054906101000a900473ffffffffffffffffffffffffffffffffffffffff1673ffffffffffffffffffffffffffffffffffffffff163373ffffffffffffffffffffffffffffffffffffffff1614611afa57601460009054906101000a900473ffffffffffffffffffffffffffffffffffffffff1673ffffffffffffffffffffffffffffffffffffffff163373ffffffffffffffffffffffffffffffffffffffff1614611af9576040517f08c379a0000000000000000000000000000000000000000000000000000000008152600401611af090615902565b60405180910390fd5b5b80600d8190555050565b601460009054906101000a900473ffffffffffffffffffffffffffffffffffffffff1681565b6000600e54905090565b600080611b4b83600261428090919063ffffffff16565b50905080915050919050565b601360009054906101000a900473ffffffffffffffffffffffffffffffffffffffff1673ffffffffffffffffffffffffffffffffffffffff163373ffffffffffffffffffffffffffffffffffffffff1614611bb157600080fd5b611bba816142ac565b50565b6019604051611bcb90615835565b908152602001604051809103902060009054906101000a900460ff16611c26576040517f08c379a0000000000000000000000000000000000000000000000000000000008152600401611c1d906158c2565b60405180910390fd5b600073ffffffffffffffffffffffffffffffffffffffff163373ffffffffffffffffffffffffffffffffffffffff161415611c6057600080fd5b611c6982613c22565b611c7257600080fd5b6000611c7d83611f4e565b90503373ffffffffffffffffffffffffffffffffffffffff168173ffffffffffffffffffffffffffffffffffffffff1614611cb757600080fd5b6000601660008581526020019081526020016000206040518060e0016040529081600082015481526020016001820160009054906101000a900473ffffffffffffffffffffffffffffffffffffffff1673ffffffffffffffffffffffffffffffffffffffff1673ffffffffffffffffffffffffffffffffffffffff1681526020016002820160009054906101000a900473ffffffffffffffffffffffffffffffffffffffff1673ffffffffffffffffffffffffffffffffffffffff1673ffffffffffffffffffffffffffffffffffffffff1681526020016003820160009054906101000a900473ffffffffffffffffffffffffffffffffffffffff1673ffffffffffffffffffffffffffffffffffffffff1673ffffffffffffffffffffffffffffffffffffffff16815260200160048201548152602001600582015481526020016006820160009054906101000a900460ff16151515158152505090508281608001818152505080601660008681526020019081526020016000206000820151816000015560208201518160010160006101000a81548173ffffffffffffffffffffffffffffffffffffffff021916908373ffffffffffffffffffffffffffffffffffffffff16021790555060408201518160020160006101000a81548173ffffffffffffffffffffffffffffffffffffffff021916908373ffffffffffffffffffffffffffffffffffffffff16021790555060608201518160030160006101000a81548173ffffffffffffffffffffffffffffffffffffffff021916908373ffffffffffffffffffffffffffffffffffffffff1602179055506080820151816004015560a0820151816005015560c08201518160060160006101000a81548160ff02191690831515021790555090505050505050565b6000611f7e82604051806060016040528060298152602001615cd36029913960026142c69092919063ffffffff16565b9050919050565b60606000611f928361324e565b905080915050919050565b6019604051611fab906157f6565b908152602001604051809103902060009054906101000a900460ff161561205957601a60003373ffffffffffffffffffffffffffffffffffffffff1673ffffffffffffffffffffffffffffffffffffffff16815260200190815260200160002060009054906101000a900460ff16612058576040517f08c379a000000000000000000000000000000000000000000000000000000000815260040161204f906158e2565b60405180910390fd5b5b600073ffffffffffffffffffffffffffffffffffffffff163373ffffffffffffffffffffffffffffffffffffffff16141561209357600080fd5b600081116120a057600080fd5b600f548111156120af57600080fd5b80600d54023410156120c057600080fd5b60006120ca61132d565b9050600e5482820111156120dd57600080fd5b6000600190505b82811161232957600c60008154809291906001019190505550612108600c54613c22565b1561211257600080fd5b601760003373ffffffffffffffffffffffffffffffffffffffff1673ffffffffffffffffffffffffffffffffffffffff1681526020019081526020016000206000815480929190600101919050555061216d33600c546142e5565b60006040518060e00160405280600c5481526020013373ffffffffffffffffffffffffffffffffffffffff1681526020013373ffffffffffffffffffffffffffffffffffffffff168152602001600073ffffffffffffffffffffffffffffffffffffffff168152602001600d548152602001600081526020016000151581525090508060166000600c5481526020019081526020016000206000820151816000015560208201518160010160006101000a81548173ffffffffffffffffffffffffffffffffffffffff021916908373ffffffffffffffffffffffffffffffffffffffff16021790555060408201518160020160006101000a81548173ffffffffffffffffffffffffffffffffffffffff021916908373ffffffffffffffffffffffffffffffffffffffff16021790555060608201518160030160006101000a81548173ffffffffffffffffffffffffffffffffffffffff021916908373ffffffffffffffffffffffffffffffffffffffff1602179055506080820151816004015560a0820151816005015560c08201518160060160006101000a81548160ff0219169083151502179055509050505080806001019150506120e4565b5061233f34601d546141de90919063ffffffff16565b601d819055505050565b60155481565b606060098054600181600116156101000203166002900480601f0160208091040260200160405190810160405280929190818152602001828054600181600116156101000203166002900480156123e75780601f106123bc576101008083540402835291602001916123e7565b820191906000526020600020905b8154815290600101906020018083116123ca57829003601f168201915b5050505050905090565b6019818051602081018201805184825260208301602085012081835280955050505050506000915054906101000a900460ff1681565b600b8054600181600116156101000203166002900480601f0160208091040260200160405190810160405280929190818152602001828054600181600116156101000203166002900480156124bd5780601f10612492576101008083540402835291602001916124bd565b820191906000526020600020905b8154815290600101906020018083116124a057829003601f168201915b505050505081565b60008073ffffffffffffffffffffffffffffffffffffffff168273ffffffffffffffffffffffffffffffffffffffff16141561254c576040517f08c379a000000000000000000000000000000000000000000000000000000000815260040180806020018281038252602a815260200180615ca9602a913960400191505060405180910390fd5b612593600160008473ffffffffffffffffffffffffffffffffffffffff1673ffffffffffffffffffffffffffffffffffffffff1681526020019081526020016000206144d9565b9050919050565b601360009054906101000a900473ffffffffffffffffffffffffffffffffffffffff1673ffffffffffffffffffffffffffffffffffffffff163373ffffffffffffffffffffffffffffffffffffffff161461268057601460009054906101000a900473ffffffffffffffffffffffffffffffffffffffff1673ffffffffffffffffffffffffffffffffffffffff163373ffffffffffffffffffffffffffffffffffffffff161461267f576040517f08c379a000000000000000000000000000000000000000000000000000000000815260040161267690615902565b60405180910390fd5b5b601982826040516126929291906157dd565b908152602001604051809103902060009054906101000a900460ff1615601983836040516126c19291906157dd565b908152602001604051809103902060006101000a81548160ff0219169083151502179055505050565b6000601b60003373ffffffffffffffffffffffffffffffffffffffff1673ffffffffffffffffffffffffffffffffffffffff16815260200190815260200160002054905090565b601360009054906101000a900473ffffffffffffffffffffffffffffffffffffffff1673ffffffffffffffffffffffffffffffffffffffff163373ffffffffffffffffffffffffffffffffffffffff161461281757601460009054906101000a900473ffffffffffffffffffffffffffffffffffffffff1673ffffffffffffffffffffffffffffffffffffffff163373ffffffffffffffffffffffffffffffffffffffff1614612816576040517f08c379a000000000000000000000000000000000000000000000000000000000815260040161280d90615902565b60405180910390fd5b5b80600f8190555050565b601d5481565b6000601360009054906101000a900473ffffffffffffffffffffffffffffffffffffffff16905090565b601360009054906101000a900473ffffffffffffffffffffffffffffffffffffffff1673ffffffffffffffffffffffffffffffffffffffff163373ffffffffffffffffffffffffffffffffffffffff16146128ab57600080fd5b6000601b60008473ffffffffffffffffffffffffffffffffffffffff1673ffffffffffffffffffffffffffffffffffffffff1681526020019081526020016000205411156128f857600080fd5b6103e88160125401111561290b57600080fd5b60e7811061291857600080fd5b80601b60008473ffffffffffffffffffffffffffffffffffffffff1673ffffffffffffffffffffffffffffffffffffffff168152602001908152602001600020819055506000601c60008473ffffffffffffffffffffffffffffffffffffffff1673ffffffffffffffffffffffffffffffffffffffff168152602001908152602001600020819055505050565b601360009054906101000a900473ffffffffffffffffffffffffffffffffffffffff1681565b601360009054906101000a900473ffffffffffffffffffffffffffffffffffffffff1673ffffffffffffffffffffffffffffffffffffffff163373ffffffffffffffffffffffffffffffffffffffff1614612ab157601460009054906101000a900473ffffffffffffffffffffffffffffffffffffffff1673ffffffffffffffffffffffffffffffffffffffff163373ffffffffffffffffffffffffffffffffffffffff1614612ab0576040517f08c379a0000000000000000000000000000000000000000000000000000000008152600401612aa790615902565b60405180910390fd5b5b806015541415612ac057600080fd5b8060158190555050565b606060078054600181600116156101000203166002900480601f016020809104026020016040519081016040528092919081815260200182805460018160011615610100020316600290048015612b625780601f10612b3757610100808354040283529160200191612b62565b820191906000526020600020905b815481529060010190602001808311612b4557829003601f168201915b5050505050905090565b60166020528060005260406000206000915090508060000154908060010160009054906101000a900473ffffffffffffffffffffffffffffffffffffffff16908060020160009054906101000a900473ffffffffffffffffffffffffffffffffffffffff16908060030160009054906101000a900473ffffffffffffffffffffffffffffffffffffffff16908060040154908060050154908060060160009054906101000a900460ff16905087565b601a6020528060005260406000206000915054906101000a900460ff1681565b612c43613c3f565b73ffffffffffffffffffffffffffffffffffffffff168273ffffffffffffffffffffffffffffffffffffffff161415612ce4576040517f08c379a00000000000000000000000000000000000000000000000000000000081526004018080602001828103825260198152602001807f4552433732313a20617070726f766520746f2063616c6c65720000000000000081525060200191505060405180910390fd5b8060056000612cf1613c3f565b73ffffffffffffffffffffffffffffffffffffffff1673ffffffffffffffffffffffffffffffffffffffff16815260200190815260200160002060008473ffffffffffffffffffffffffffffffffffffffff1673ffffffffffffffffffffffffffffffffffffffff16815260200190815260200160002060006101000a81548160ff0219169083151502179055508173ffffffffffffffffffffffffffffffffffffffff16612d9e613c3f565b73ffffffffffffffffffffffffffffffffffffffff167f17307eab39ab6107e8899845ad3d59bd9653f200f220920489ca2b5937696c318360405180821515815260200191505060405180910390a35050565b6019604051612dff90615835565b908152602001604051809103902060009054906101000a900460ff16612e5a576040517f08c379a0000000000000000000000000000000000000000000000000000000008152600401612e51906158c2565b60405180910390fd5b600073ffffffffffffffffffffffffffffffffffffffff163373ffffffffffffffffffffffffffffffffffffffff161415612e9457600080fd5b612e9d81613c22565b612ea657600080fd5b6000612eb182611f4e565b90503373ffffffffffffffffffffffffffffffffffffffff168173ffffffffffffffffffffffffffffffffffffffff1614612eeb57600080fd5b6000601660008481526020019081526020016000206040518060e0016040529081600082015481526020016001820160009054906101000a900473ffffffffffffffffffffffffffffffffffffffff1673ffffffffffffffffffffffffffffffffffffffff1673ffffffffffffffffffffffffffffffffffffffff1681526020016002820160009054906101000a900473ffffffffffffffffffffffffffffffffffffffff1673ffffffffffffffffffffffffffffffffffffffff1673ffffffffffffffffffffffffffffffffffffffff1681526020016003820160009054906101000a900473ffffffffffffffffffffffffffffffffffffffff1673ffffffffffffffffffffffffffffffffffffffff1673ffffffffffffffffffffffffffffffffffffffff16815260200160048201548152602001600582015481526020016006820160009054906101000a900460ff16151515158152505090508060c00151156130685760008160c001901515908115158152505061307a565b60018160c00190151590811515815250505b80601660008581526020019081526020016000206000820151816000015560208201518160010160006101000a81548173ffffffffffffffffffffffffffffffffffffffff021916908373ffffffffffffffffffffffffffffffffffffffff16021790555060408201518160020160006101000a81548173ffffffffffffffffffffffffffffffffffffffff021916908373ffffffffffffffffffffffffffffffffffffffff16021790555060608201518160030160006101000a81548173ffffffffffffffffffffffffffffffffffffffff021916908373ffffffffffffffffffffffffffffffffffffffff1602179055506080820151816004015560a0820151816005015560c08201518160060160006101000a81548160ff021916908315150217905550905050505050565b6000806131b583611f4e565b905080915050919050565b60125481565b6131d76131d1613c3f565b83613ea7565b61322c576040517f08c379a0000000000000000000000000000000000000000000000000000000008152600401808060200182810382526031815260200180615de46031913960400191505060405180910390fd5b613238848484846144ee565b50505050565b60105481565b6000600d54905090565b606061325982613c22565b6132ae576040517f08c379a000000000000000000000000000000000000000000000000000000000815260040180806020018281038252602f815260200180615d94602f913960400191505060405180910390fd5b6000600860008481526020019081526020016000208054600181600116156101000203166002900480601f0160208091040260200160405190810160405280929190818152602001828054600181600116156101000203166002900480156133575780601f1061332c57610100808354040283529160200191613357565b820191906000526020600020905b81548152906001019060200180831161333a57829003601f168201915b50505050509050600061336861234f565b905060008151141561337e57819250505061351a565b60008251111561344f5780826040516020018083805190602001908083835b602083106133c0578051825260208201915060208101905060208303925061339d565b6001836020036101000a03801982511681845116808217855250505050505090500182805190602001908083835b6020831061341157805182526020820191506020810190506020830392506133ee565b6001836020036101000a038019825116818451168082178552505050505050905001925050506040516020818303038152906040529250505061351a565b8061345985614560565b6040516020018083805190602001908083835b6020831061348f578051825260208201915060208101905060208303925061346c565b6001836020036101000a03801982511681845116808217855250505050505090500182805190602001908083835b602083106134e057805182526020820191506020810190506020830392506134bd565b6001836020036101000a03801982511681845116808217855250505050505090500192505050604051602081830303815290604052925050505b919050565b601960405161352d9061580b565b908152602001604051809103902060009054906101000a900460ff16613588576040517f08c379a000000000000000000000000000000000000000000000000000000000815260040161357f906158a2565b60405180910390fd5b6000613592611218565b9050601d548111156135a357600080fd5b6135f581601c60003373ffffffffffffffffffffffffffffffffffffffff1673ffffffffffffffffffffffffffffffffffffffff168152602001908152602001600020546141de90919063ffffffff16565b601c60003373ffffffffffffffffffffffffffffffffffffffff1673ffffffffffffffffffffffffffffffffffffffff1681526020019081526020016000208190555060003373ffffffffffffffffffffffffffffffffffffffff168260405161365e90615820565b60006040518083038185875af1925050503d806000811461369b576040519150601f19603f3d011682016040523d82523d6000602084013e6136a0565b606091505b50509050806136ae57600080fd5b5050565b6000806136bd61132d565b90508091505090565b601360009054906101000a900473ffffffffffffffffffffffffffffffffffffffff1673ffffffffffffffffffffffffffffffffffffffff163373ffffffffffffffffffffffffffffffffffffffff16146137ac57601460009054906101000a900473ffffffffffffffffffffffffffffffffffffffff1673ffffffffffffffffffffffffffffffffffffffff163373ffffffffffffffffffffffffffffffffffffffff16146137ab576040517f08c379a00000000000000000000000000000000000000000000000000000000081526004016137a290615902565b60405180910390fd5b5b8060108190555050565b601360009054906101000a900473ffffffffffffffffffffffffffffffffffffffff1673ffffffffffffffffffffffffffffffffffffffff163373ffffffffffffffffffffffffffffffffffffffff161461381057600080fd5b600073ffffffffffffffffffffffffffffffffffffffff168173ffffffffffffffffffffffffffffffffffffffff16141561384a57600080fd5b601460009054906101000a900473ffffffffffffffffffffffffffffffffffffffff1673ffffffffffffffffffffffffffffffffffffffff168173ffffffffffffffffffffffffffffffffffffffff1614156138a557600080fd5b80601460006101000a81548173ffffffffffffffffffffffffffffffffffffffff021916908373ffffffffffffffffffffffffffffffffffffffff16021790555050565b600c5481565b6000601460009054906101000a900473ffffffffffffffffffffffffffffffffffffffff16905090565b600e5481565b601360009054906101000a900473ffffffffffffffffffffffffffffffffffffffff1673ffffffffffffffffffffffffffffffffffffffff163373ffffffffffffffffffffffffffffffffffffffff1614613a0557601460009054906101000a900473ffffffffffffffffffffffffffffffffffffffff1673ffffffffffffffffffffffffffffffffffffffff163373ffffffffffffffffffffffffffffffffffffffff1614613a04576040517f08c379a00000000000000000000000000000000000000000000000000000000081526004016139fb90615902565b60405180910390fd5b5b6019604051613a13906157f6565b908152602001604051809103902060009054906101000a900460ff16613a3857600080fd5b601a60008273ffffffffffffffffffffffffffffffffffffffff1673ffffffffffffffffffffffffffffffffffffffff16815260200190815260200160002060009054906101000a900460ff1615613a8f57600080fd5b6001601a60008373ffffffffffffffffffffffffffffffffffffffff1673ffffffffffffffffffffffffffffffffffffffff16815260200190815260200160002060006101000a81548160ff02191690831515021790555050565b600a8054600181600116156101000203166002900480601f016020809104026020016040519081016040528092919081815260200182805460018160011615610100020316600290048015613b805780601f10613b5557610100808354040283529160200191613b80565b820191906000526020600020905b815481529060010190602001808311613b6357829003601f168201915b505050505081565b6000600560008473ffffffffffffffffffffffffffffffffffffffff1673ffffffffffffffffffffffffffffffffffffffff16815260200190815260200160002060008373ffffffffffffffffffffffffffffffffffffffff1673ffffffffffffffffffffffffffffffffffffffff16815260200190815260200160002060009054906101000a900460ff16905092915050565b60115481565b6000613c388260026146a790919063ffffffff16565b9050919050565b600033905090565b816004600083815260200190815260200160002060006101000a81548173ffffffffffffffffffffffffffffffffffffffff021916908373ffffffffffffffffffffffffffffffffffffffff160217905550808273ffffffffffffffffffffffffffffffffffffffff16613cba83611f4e565b73ffffffffffffffffffffffffffffffffffffffff167f8c5be1e5ebec7d5bd14f71427d1e84f3dd0314c0f7b2291e5b200ac8c7c3b92560405160405180910390a45050565b6000808211613d77576040517f08c379a000000000000000000000000000000000000000000000000000000000815260040180806020018281038252601a8152602001807f536166654d6174683a206469766973696f6e206279207a65726f00000000000081525060200191505060405180910390fd5b818381613d8057fe5b04905092915050565b600080831415613d9c5760009050613e09565b6000828402905082848281613dad57fe5b0414613e04576040517f08c379a0000000000000000000000000000000000000000000000000000000008152600401808060200182810382526021815260200180615d1e6021913960400191505060405180910390fd5b809150505b92915050565b600082821115613e87576040517f08c379a000000000000000000000000000000000000000000000000000000000815260040180806020018281038252601e8152602001807f536166654d6174683a207375627472616374696f6e206f766572666c6f77000081525060200191505060405180910390fd5b818303905092915050565b6000613ea0826000016146c1565b9050919050565b6000613eb282613c22565b613f07576040517f08c379a000000000000000000000000000000000000000000000000000000000815260040180806020018281038252602c815260200180615c45602c913960400191505060405180910390fd5b6000613f1283611f4e565b90508073ffffffffffffffffffffffffffffffffffffffff168473ffffffffffffffffffffffffffffffffffffffff161480613f8157508373ffffffffffffffffffffffffffffffffffffffff16613f6984611039565b73ffffffffffffffffffffffffffffffffffffffff16145b80613f925750613f918185613b88565b5b91505092915050565b8273ffffffffffffffffffffffffffffffffffffffff16613fbb82611f4e565b73ffffffffffffffffffffffffffffffffffffffff1614614027576040517f08c379a0000000000000000000000000000000000000000000000000000000008152600401808060200182810382526029815260200180615d6b6029913960400191505060405180910390fd5b600073ffffffffffffffffffffffffffffffffffffffff168273ffffffffffffffffffffffffffffffffffffffff1614156140ad576040517f08c379a0000000000000000000000000000000000000000000000000000000008152600401808060200182810382526024815260200180615bfb6024913960400191505060405180910390fd5b6140b88383836146d2565b6140c3600082613c47565b61411481600160008673ffffffffffffffffffffffffffffffffffffffff1673ffffffffffffffffffffffffffffffffffffffff1681526020019081526020016000206146d790919063ffffffff16565b5061416681600160008573ffffffffffffffffffffffffffffffffffffffff1673ffffffffffffffffffffffffffffffffffffffff1681526020019081526020016000206146f190919063ffffffff16565b5061417d8183600261470b9092919063ffffffff16565b50808273ffffffffffffffffffffffffffffffffffffffff168473ffffffffffffffffffffffffffffffffffffffff167fddf252ad1be2c89b69c2b068fc378daa952ba7f163c4a11628f55a4df523b3ef60405160405180910390a4505050565b60008082840190508381101561425c576040517f08c379a000000000000000000000000000000000000000000000000000000000815260040180806020018281038252601b8152602001807f536166654d6174683a206164646974696f6e206f766572666c6f77000000000081525060200191505060405180910390fd5b8091505092915050565b60006142758360000183614740565b60001c905092915050565b60008060008061429386600001866147c3565b915091508160001c8160001c9350935050509250929050565b80600990805190602001906142c2929190615095565b5050565b60006142d9846000018460001b8461485c565b60001c90509392505050565b600073ffffffffffffffffffffffffffffffffffffffff168273ffffffffffffffffffffffffffffffffffffffff161415614388576040517f08c379a00000000000000000000000000000000000000000000000000000000081526004018080602001828103825260208152602001807f4552433732313a206d696e7420746f20746865207a65726f206164647265737381525060200191505060405180910390fd5b61439181613c22565b15614404576040517f08c379a000000000000000000000000000000000000000000000000000000000815260040180806020018281038252601c8152602001807f4552433732313a20746f6b656e20616c7265616479206d696e7465640000000081525060200191505060405180910390fd5b614410600083836146d2565b61446181600160008573ffffffffffffffffffffffffffffffffffffffff1673ffffffffffffffffffffffffffffffffffffffff1681526020019081526020016000206146f190919063ffffffff16565b506144788183600261470b9092919063ffffffff16565b50808273ffffffffffffffffffffffffffffffffffffffff16600073ffffffffffffffffffffffffffffffffffffffff167fddf252ad1be2c89b69c2b068fc378daa952ba7f163c4a11628f55a4df523b3ef60405160405180910390a45050565b60006144e782600001614952565b9050919050565b6144f9848484613f9b565b61450584848484614963565b61455a576040517f08c379a0000000000000000000000000000000000000000000000000000000008152600401808060200182810382526032815260200180615bc96032913960400191505060405180910390fd5b50505050565b606060008214156145a8576040518060400160405280600181526020017f300000000000000000000000000000000000000000000000000000000000000081525090506146a2565b600082905060005b600082146145d2578080600101915050600a82816145ca57fe5b0491506145b0565b60008167ffffffffffffffff811180156145eb57600080fd5b506040519080825280601f01601f19166020018201604052801561461e5781602001600182028036833780820191505090505b50905060006001830390508593505b6000841461469a57600a848161463f57fe5b0660300160f81b8282806001900393508151811061465957fe5b60200101907effffffffffffffffffffffffffffffffffffffffffffffffffffffffffffff1916908160001a905350600a848161469257fe5b04935061462d565b819450505050505b919050565b60006146b9836000018360001b614b7c565b905092915050565b600081600001805490509050919050565b505050565b60006146e9836000018360001b614b9f565b905092915050565b6000614703836000018360001b614c87565b905092915050565b6000614737846000018460001b8473ffffffffffffffffffffffffffffffffffffffff1660001b614cf7565b90509392505050565b6000818360000180549050116147a1576040517f08c379a0000000000000000000000000000000000000000000000000000000008152600401808060200182810382526022815260200180615ba76022913960400191505060405180910390fd5b8260000182815481106147b057fe5b9060005260206000200154905092915050565b60008082846000018054905011614825576040517f08c379a0000000000000000000000000000000000000000000000000000000008152600401808060200182810382526022815260200180615cfc6022913960400191505060405180910390fd5b600084600001848154811061483657fe5b906000526020600020906002020190508060000154816001015492509250509250929050565b60008084600101600085815260200190815260200160002054905060008114158390614923576040517f08c379a00000000000000000000000000000000000000000000000000000000081526004018080602001828103825283818151815260200191508051906020019080838360005b838110156148e85780820151818401526020810190506148cd565b50505050905090810190601f1680156149155780820380516001836020036101000a031916815260200191505b509250505060405180910390fd5b5084600001600182038154811061493657fe5b9060005260206000209060020201600101549150509392505050565b600081600001805490509050919050565b60006149848473ffffffffffffffffffffffffffffffffffffffff16614dd3565b6149915760019050614b74565b6000614afb63150b7a0260e01b6149a6613c3f565b888787604051602401808573ffffffffffffffffffffffffffffffffffffffff1681526020018473ffffffffffffffffffffffffffffffffffffffff16815260200183815260200180602001828103825283818151815260200191508051906020019080838360005b83811015614a2a578082015181840152602081019050614a0f565b50505050905090810190601f168015614a575780820380516001836020036101000a031916815260200191505b5095505050505050604051602081830303815290604052907bffffffffffffffffffffffffffffffffffffffffffffffffffffffff19166020820180517bffffffffffffffffffffffffffffffffffffffffffffffffffffffff8381831617835250505050604051806060016040528060328152602001615bc9603291398773ffffffffffffffffffffffffffffffffffffffff16614de69092919063ffffffff16565b90506000818060200190516020811015614b1457600080fd5b8101908080519060200190929190505050905063150b7a0260e01b7bffffffffffffffffffffffffffffffffffffffffffffffffffffffff1916817bffffffffffffffffffffffffffffffffffffffffffffffffffffffff191614925050505b949350505050565b600080836001016000848152602001908152602001600020541415905092915050565b60008083600101600084815260200190815260200160002054905060008114614c7b5760006001820390506000600186600001805490500390506000866000018281548110614bea57fe5b9060005260206000200154905080876000018481548110614c0757fe5b9060005260206000200181905550600183018760010160008381526020019081526020016000208190555086600001805480614c3f57fe5b60019003818190600052602060002001600090559055866001016000878152602001908152602001600020600090556001945050505050614c81565b60009150505b92915050565b6000614c938383614dfe565b614cec578260000182908060018154018082558091505060019003906000526020600020016000909190919091505582600001805490508360010160008481526020019081526020016000208190555060019050614cf1565b600090505b92915050565b6000808460010160008581526020019081526020016000205490506000811415614d9e57846000016040518060400160405280868152602001858152509080600181540180825580915050600190039060005260206000209060020201600090919091909150600082015181600001556020820151816001015550508460000180549050856001016000868152602001908152602001600020819055506001915050614dcc565b82856000016001830381548110614db157fe5b90600052602060002090600202016001018190555060009150505b9392505050565b600080823b905060008111915050919050565b6060614df58484600085614e21565b90509392505050565b600080836001016000848152602001908152602001600020541415905092915050565b606082471015614e7c576040517f08c379a0000000000000000000000000000000000000000000000000000000008152600401808060200182810382526026815260200180615c1f6026913960400191505060405180910390fd5b614e8585614dd3565b614ef7576040517f08c379a000000000000000000000000000000000000000000000000000000000815260040180806020018281038252601d8152602001807f416464726573733a2063616c6c20746f206e6f6e2d636f6e747261637400000081525060200191505060405180910390fd5b6000808673ffffffffffffffffffffffffffffffffffffffff1685876040518082805190602001908083835b60208310614f465780518252602082019150602081019050602083039250614f23565b6001836020036101000a03801982511681845116808217855250505050505090500191505060006040518083038185875af1925050503d8060008114614fa8576040519150601f19603f3d011682016040523d82523d6000602084013e614fad565b606091505b5091509150614fbd828286614fc9565b92505050949350505050565b60608315614fd95782905061508e565b600083511115614fec5782518084602001fd5b816040517f08c379a00000000000000000000000000000000000000000000000000000000081526004018080602001828103825283818151815260200191508051906020019080838360005b83811015615053578082015181840152602081019050615038565b50505050905090810190601f1680156150805780820380516001836020036101000a031916815260200191505b509250505060405180910390fd5b9392505050565b828054600181600116156101000203166002900490600052602060002090601f0160209004810192826150cb5760008555615112565b82601f106150e457805160ff1916838001178555615112565b82800160010185558215615112579182015b828111156151115782518255916020019190600101906150f6565b5b50905061511f9190615123565b5090565b5b8082111561513c576000816000905550600101615124565b5090565b600061515361514e846159dd565b6159ac565b90508281526020810184848401111561516b57600080fd5b615176848285615af5565b509392505050565b600061519161518c84615a0d565b6159ac565b9050828152602081018484840111156151a957600080fd5b6151b4848285615af5565b509392505050565b6000813590506151cb81615b4a565b92915050565b6000813590506151e081615b61565b92915050565b6000813590506151f581615b78565b92915050565b600082601f83011261520c57600080fd5b813561521c848260208601615140565b91505092915050565b60008083601f84011261523757600080fd5b8235905067ffffffffffffffff81111561525057600080fd5b60208301915083600182028301111561526857600080fd5b9250929050565b600082601f83011261528057600080fd5b813561529084826020860161517e565b91505092915050565b6000813590506152a881615b8f565b92915050565b6000602082840312156152c057600080fd5b60006152ce848285016151bc565b91505092915050565b600080604083850312156152ea57600080fd5b60006152f8858286016151bc565b9250506020615309858286016151bc565b9150509250929050565b60008060006060848603121561532857600080fd5b6000615336868287016151bc565b9350506020615347868287016151bc565b925050604061535886828701615299565b9150509250925092565b6000806000806080858703121561537857600080fd5b6000615386878288016151bc565b9450506020615397878288016151bc565b93505060406153a887828801615299565b925050606085013567ffffffffffffffff8111156153c557600080fd5b6153d1878288016151fb565b91505092959194509250565b600080604083850312156153f057600080fd5b60006153fe858286016151bc565b925050602061540f858286016151d1565b9150509250929050565b6000806040838503121561542c57600080fd5b600061543a858286016151bc565b925050602061544b85828601615299565b9150509250929050565b60006020828403121561546757600080fd5b6000615475848285016151e6565b91505092915050565b6000806020838503121561549157600080fd5b600083013567ffffffffffffffff8111156154ab57600080fd5b6154b785828601615225565b92509250509250929050565b6000602082840312156154d557600080fd5b600082013567ffffffffffffffff8111156154ef57600080fd5b6154fb8482850161526f565b91505092915050565b60006020828403121561551657600080fd5b600061552484828501615299565b91505092915050565b6000806040838503121561554057600080fd5b600061554e85828601615299565b925050602061555f85828601615299565b9150509250929050565b61557281615a81565b82525050565b61558181615a6f565b82525050565b61559081615a93565b82525050565b60006155a28385615a64565b93506155af838584615af5565b82840190509392505050565b60006155c682615a3d565b6155d08185615a53565b93506155e0818560208601615b04565b6155e981615b39565b840191505092915050565b6000615601600b83615a64565b91507f697357686974656c6973740000000000000000000000000000000000000000006000830152600b82019050919050565b6000615641601183615a53565b91507f57697468647261772064697361626c65640000000000000000000000000000006000830152602082019050919050565b6000615681601583615a53565b91507f4d61726b6574706c6163652064697361626c65642e00000000000000000000006000830152602082019050919050565b60006156c1600a83615a64565b91507f69735769746864726177000000000000000000000000000000000000000000006000830152600a82019050919050565b6000615701600083615a48565b9150600082019050919050565b600061571b601083615a53565b91507f206e6f742077686974656c6973746564000000000000000000000000000000006000830152602082019050919050565b600061575b600d83615a64565b91507f69734d61726b6574706c616365000000000000000000000000000000000000006000830152600d82019050919050565b600061579b600d83615a53565b91507f6e6f742061206d616e61676572000000000000000000000000000000000000006000830152602082019050919050565b6157d781615aeb565b82525050565b60006157ea828486615596565b91508190509392505050565b6000615801826155f4565b9150819050919050565b6000615816826156b4565b9150819050919050565b600061582b826156f4565b9150819050919050565b60006158408261574e565b9150819050919050565b600060208201905061585f6000830184615578565b92915050565b600060208201905061587a6000830184615587565b92915050565b6000602082019050818103600083015261589a81846155bb565b905092915050565b600060208201905081810360008301526158bb81615634565b9050919050565b600060208201905081810360008301526158db81615674565b9050919050565b600060208201905081810360008301526158fb8161570e565b9050919050565b6000602082019050818103600083015261591b8161578e565b9050919050565b600060208201905061593760008301846157ce565b92915050565b600060e082019050615952600083018a6157ce565b61595f6020830189615569565b61596c6040830188615569565b6159796060830187615569565b61598660808301866157ce565b61599360a08301856157ce565b6159a060c0830184615587565b98975050505050505050565b6000604051905081810181811067ffffffffffffffff821117156159d3576159d2615b37565b5b8060405250919050565b600067ffffffffffffffff8211156159f8576159f7615b37565b5b601f19601f8301169050602081019050919050565b600067ffffffffffffffff821115615a2857615a27615b37565b5b601f19601f8301169050602081019050919050565b600081519050919050565b600081905092915050565b600082825260208201905092915050565b600081905092915050565b6000615a7a82615acb565b9050919050565b6000615a8c82615acb565b9050919050565b60008115159050919050565b60007fffffffff0000000000000000000000000000000000000000000000000000000082169050919050565b600073ffffffffffffffffffffffffffffffffffffffff82169050919050565b6000819050919050565b82818337600083830152505050565b60005b83811015615b22578082015181840152602081019050615b07565b83811115615b31576000848401525b50505050565bfe5b6000601f19601f8301169050919050565b615b5381615a6f565b8114615b5e57600080fd5b50565b615b6a81615a93565b8114615b7557600080fd5b50565b615b8181615a9f565b8114615b8c57600080fd5b50565b615b9881615aeb565b8114615ba357600080fd5b5056fe456e756d657261626c655365743a20696e646578206f7574206f6620626f756e64734552433732313a207472616e7366657220746f206e6f6e20455243373231526563656976657220696d706c656d656e7465724552433732313a207472616e7366657220746f20746865207a65726f2061646472657373416464726573733a20696e73756666696369656e742062616c616e636520666f722063616c6c4552433732313a206f70657261746f7220717565727920666f72206e6f6e6578697374656e7420746f6b656e4552433732313a20617070726f76652063616c6c6572206973206e6f74206f776e6572206e6f7220617070726f76656420666f7220616c6c4552433732313a2062616c616e636520717565727920666f7220746865207a65726f20616464726573734552433732313a206f776e657220717565727920666f72206e6f6e6578697374656e7420746f6b656e456e756d657261626c654d61703a20696e646578206f7574206f6620626f756e6473536166654d6174683a206d756c7469706c69636174696f6e206f766572666c6f774552433732313a20617070726f76656420717565727920666f72206e6f6e6578697374656e7420746f6b656e4552433732313a207472616e73666572206f6620746f6b656e2074686174206973206e6f74206f776e4552433732314d657461646174613a2055524920717565727920666f72206e6f6e6578697374656e7420746f6b656e4552433732313a20617070726f76616c20746f2063757272656e74206f776e65724552433732313a207472616e736665722063616c6c6572206973206e6f74206f776e6572206e6f7220617070726f766564a26469706673582212200259aaa8e7d534b05797bd4f705dd868e79ffcb53b394cd5abfff30a01929adf64736f6c63430007060033",
  "immutableReferences": {},
  "source": "// SPDX-License-Identifier: MIT\npragma solidity <0.8.0;\npragma abicoder v2;\n\n// import ERC721 iterface\nimport \"./ERC721.sol\";\n\n// CroSkulls smart contract inherits ERC721 interface\ncontract CroSkulls is ERC721 {\n  using SafeMath for uint256;\n\n  string public collectionName;\n  string public collectionNameSymbol;\n  uint256 public croSkullCounter;\n  uint256 public cost = 1 ether;\n  uint256 public maxSupply = 6666;\n  uint256 public maxMintAmount = 5;\n  uint256 public nftPerAddressLimit = 100;\n  uint256 public rewardPoolsCounter;\n  uint256 public totalRewardPercent;\n  address public owner;\n  address public manager;\n  uint256 public marketplaceFee = 4;\n  //diego\n\n  mapping(uint256 => CroSkull) public allCroSkulls;\n  mapping(address => uint256) public addressMintedBalance;\n  mapping(string => bool) public tokenURIExists;\n  mapping(string => bool) public settings;\n  mapping(address => bool) public whitelist;\n  mapping(address => uint256) public rewardableUsers; //keep track of rewardable users\n  mapping(address => uint256) public userClaimedRewards; // keep track of withdrawed amount\n  uint256 public totalCROVolume = 0;//keep track of total rewardable CRO volume, used to calculate rewards\n\n  struct CroSkull {\n    uint256 tokenId;\n    address payable mintedBy;\n    address payable currentOwner;\n    address payable previousOwner;\n    uint256 price;\n    uint256 numberOfTransfers;\n    bool forSale;\n  }\n\n\n  modifier isWithdrable() {\n    require(settings['isWithdraw'], \"Withdraw disabled\");\n    _;\n  }\n\n  modifier onlyManager() {\n    if( msg.sender != owner ){\n      require(msg.sender == manager, \"not a manager\");\n    }\n    _;\n  }\n\n  modifier onlyOwner() {\n    require(msg.sender == owner);\n    _;\n  }\n\n  modifier isWhitelisted() {\n    if( settings['isWhitelist'] ){\n      require( whitelist[msg.sender], \" not whitelisted\" );\n    }\n    _;\n  }\n\n  modifier marketplaceEnabled() {\n    require( settings['isMarketplace'], \"Marketplace disabled.\");\n    _;\n  }\n\n  // initialize contract while deployment with contract's collection name and token\n  constructor( bool _isMarketplace, bool _isWhitelist, bool _isWithdraw ) ERC721(\"CROSkull\", \"CRS\") {\n    owner = msg.sender;\n    collectionName = name();\n    collectionNameSymbol = symbol();\n    settings['isMarketplace'] = _isMarketplace;\n    settings['isWhitelist'] = _isWhitelist;\n    settings['isWithdraw'] = _isWithdraw;\n  }\n\n  function setBaseURI( string memory baseURI ) public onlyOwner {\n    _setBaseURI(baseURI);\n  }\n\n  //retunr allowed max supply\n  function getMaxSupply( ) public view returns(uint256){\n    return maxSupply;\n  }\n\n  function getCost() public view returns(uint256){\n    return cost;\n  }\n\n  function addToWhitelist( address _address ) public onlyManager {\n    require( settings['isWhitelist'] );\n    require( ! whitelist[_address]);\n    whitelist[_address] = true; \n  }\n\n  function setMarketplaceFee( uint _fee) public onlyManager {\n    require(marketplaceFee != _fee);\n    marketplaceFee = _fee;\n  }\n\n  // mint a new crypto boy\n  function mintCroSkull(uint256 _mintAmount ) isWhitelisted payable external {\n    require(msg.sender != address(0));\n    require(_mintAmount > 0);\n    require(_mintAmount <= maxMintAmount);\n    require(msg.value >= cost * _mintAmount);\n\n\n    uint256 supply = totalSupply();\n    require(supply + _mintAmount <= maxSupply);\n    \n    for (uint256 i = 1; i <= _mintAmount; i++) {\n      croSkullCounter++;\n      require(!_exists(croSkullCounter));\n\n      addressMintedBalance[msg.sender]++;\n      _mint(msg.sender, croSkullCounter);\n      CroSkull memory newCroSkull = CroSkull(\n        croSkullCounter,\n        msg.sender,\n        msg.sender,\n        address(0),\n        cost,\n        0,\n        false\n      );\n      allCroSkulls[croSkullCounter] = newCroSkull;\n    }\n    totalCROVolume = totalCROVolume.add( msg.value );\n  }\n\n  function getOwner() public view returns(address) {\n    return owner;\n  }\n\n  function getManager() public view returns(address) {\n    return manager;\n  }\n\n  function setManager(address _manager) public onlyOwner() {\n    require(_manager != address(0));\n    require(_manager != manager);\n    manager = _manager;\n  }\n  function getTokenOwner(uint256 _tokenId) public view returns(address) {\n    address _tokenOwner = ownerOf(_tokenId);\n    return _tokenOwner;\n  }\n\n  function getTokenMetaData(uint _tokenId) public view returns(string memory) {\n    string memory tokenMetaData = tokenURI(_tokenId);\n    return tokenMetaData;\n  }\n\n  function getNumberOfTokensMinted() public view returns(uint256) {\n    uint256 totalNumberOfTokensMinted = totalSupply();\n    return totalNumberOfTokensMinted;\n  }\n\n  function getTotalNumberOfTokensOwnedByAnAddress(address _owner) public view returns(uint256) {\n    uint256 totalNumberOfTokensOwned = balanceOf(_owner);\n    return totalNumberOfTokensOwned;\n  }\n  function getTokenExists(uint256 _tokenId) public view returns(bool) {\n    bool tokenExists = _exists(_tokenId);\n    return tokenExists;\n  }\n  function buyToken(uint256 _tokenId) public marketplaceEnabled payable {\n    require( settings['isMarketplace']);\n    require(msg.sender != address(0));\n    require(_exists(_tokenId));\n\n    address tokenOwner = ownerOf(_tokenId);\n\n    require(tokenOwner != address(0));\n    require(tokenOwner != msg.sender);\n\n    CroSkull memory croskull = allCroSkulls[_tokenId];\n\n    require(msg.value >= croskull.price);\n    require(croskull.forSale);\n\n    _transfer(tokenOwner, msg.sender, _tokenId);\n    address payable sendTo = croskull.currentOwner;\n    uint256 sellerAmout = msg.value\n      .mul( 100 - marketplaceFee )\n      .div(100);\n    sendTo.transfer(sellerAmout);\n    croskull.previousOwner = croskull.currentOwner;\n    croskull.currentOwner = msg.sender;\n    croskull.numberOfTransfers += 1;\n    croskull.forSale = false;\n    allCroSkulls[_tokenId] = croskull;\n    \n    totalCROVolume = totalCROVolume.add( msg.value.sub(sellerAmout) );\n  }\n\n  function changeTokenPrice(uint256 _tokenId, uint256 _newPrice) public marketplaceEnabled {\n    require(msg.sender != address(0));\n    require(_exists(_tokenId));\n    address tokenOwner = ownerOf(_tokenId);\n    require(tokenOwner == msg.sender);\n    CroSkull memory croskull = allCroSkulls[_tokenId];\n    croskull.price = _newPrice;\n    allCroSkulls[_tokenId] = croskull;\n  }\n\n  function toggleForSale(uint256 _tokenId) public marketplaceEnabled {\n    require(msg.sender != address(0));\n    require(_exists(_tokenId));\n    address tokenOwner = ownerOf(_tokenId);\n    require(tokenOwner == msg.sender);\n    CroSkull memory croskull = allCroSkulls[_tokenId];\n    if(croskull.forSale) {\n      croskull.forSale = false;\n    } else {\n      croskull.forSale = true;\n    }\n    allCroSkulls[_tokenId] = croskull;\n  }\n\n  function toggleSetting( string calldata _settings) public onlyManager {\n    settings[_settings] = !settings[_settings];\n  }\n\n  function setNftPerAddressLimit(uint256 _limit) public onlyManager {\n    nftPerAddressLimit = _limit;\n  }\n  \n  function setCost(uint256 _newCost) public onlyManager {\n    cost = _newCost;\n  }\n\n  function setmaxMintAmount(uint256 _newmaxMintAmount) public onlyManager {\n    maxMintAmount = _newmaxMintAmount;\n  }\n\n  function addRewardable(address _rewardableAddress, uint256 percent) public onlyOwner {\n    require( rewardableUsers[_rewardableAddress] <= 0 );\n    require( totalRewardPercent + percent <= 1000 );\n    require( percent < 231);\n    rewardableUsers[_rewardableAddress] = percent;\n    userClaimedRewards[_rewardableAddress] = 0;\n  }\n\n  function withdrawReward() public payable isWithdrable {\n    uint256 calculatedReward = getRewardValue();\n    require( calculatedReward <= totalCROVolume );\n    userClaimedRewards[msg.sender] = userClaimedRewards[msg.sender].add(calculatedReward);\n    (bool os, ) = payable(msg.sender).call{value: calculatedReward}(\"\");\n    require(os);\n  }\n\n  function getRewardValue() public view returns(uint256){\n    uint256 fee = rewardableUsers[msg.sender];\n    require( fee > 0);\n    //check already recived rewards\n    uint256 rawRewards = totalCROVolume\n      .div(1000)\n      .mul(fee);\n\n    uint256 alreadyClaimed = userClaimedRewards[msg.sender];\n    uint256 claimableRewards = rawRewards.sub(alreadyClaimed);\n    assert(rawRewards >= claimableRewards);\n    assert(address(this).balance >= claimableRewards);\n    return claimableRewards;\n  }\n\n  function getRewardFee() public view returns(uint256){\n    return rewardableUsers[msg.sender];\n  }\n}",
  "sourcePath": "/Users/alessandrodecristofaro/Desktop/DeFi Code/cryptoboys-nft-marketplace/src/contracts/CroSkulls.sol",
  "compiler": {
    "name": "solc",
    "version": "0.7.6+commit.7338295f.Emscripten.clang"
  },
  "schemaVersion": "3.4.3",
  "updatedAt": "2021-12-26T18:34:05.041Z",
  "networkType": "ethereum",
  "devdoc": {
    "kind": "dev",
    "methods": {
      "approve(address,uint256)": {
        "details": "See {IERC721-approve}."
      },
      "balanceOf(address)": {
        "details": "See {IERC721-balanceOf}."
      },
      "baseURI()": {
        "details": "Returns the base URI set via {_setBaseURI}. This will be automatically added as a prefix in {tokenURI} to each token's URI, or to the token ID if no specific URI is set for that token ID."
      },
      "getApproved(uint256)": {
        "details": "See {IERC721-getApproved}."
      },
      "isApprovedForAll(address,address)": {
        "details": "See {IERC721-isApprovedForAll}."
      },
      "name()": {
        "details": "See {IERC721Metadata-name}."
      },
      "ownerOf(uint256)": {
        "details": "See {IERC721-ownerOf}."
      },
      "safeTransferFrom(address,address,uint256)": {
        "details": "See {IERC721-safeTransferFrom}."
      },
      "safeTransferFrom(address,address,uint256,bytes)": {
        "details": "See {IERC721-safeTransferFrom}."
      },
      "setApprovalForAll(address,bool)": {
        "details": "See {IERC721-setApprovalForAll}."
      },
      "supportsInterface(bytes4)": {
        "details": "See {IERC165-supportsInterface}. Time complexity O(1), guaranteed to always use less than 30 000 gas."
      },
      "symbol()": {
        "details": "See {IERC721Metadata-symbol}."
      },
      "tokenByIndex(uint256)": {
        "details": "See {IERC721Enumerable-tokenByIndex}."
      },
      "tokenOfOwnerByIndex(address,uint256)": {
        "details": "See {IERC721Enumerable-tokenOfOwnerByIndex}."
      },
      "tokenURI(uint256)": {
        "details": "See {IERC721Metadata-tokenURI}."
      },
      "totalSupply()": {
        "details": "See {IERC721Enumerable-totalSupply}."
      },
      "transferFrom(address,address,uint256)": {
        "details": "See {IERC721-transferFrom}."
      }
    },
    "version": 1
  },
  "userdoc": {
    "kind": "user",
    "methods": {},
    "version": 1
  }
}