{
  "contractName": "CroSkullsRedPotions",
  "abi": [
    {
      "inputs": [],
      "stateMutability": "nonpayable",
      "type": "constructor"
    },
    {
      "anonymous": false,
      "inputs": [
        {
          "indexed": true,
          "internalType": "address",
          "name": "owner",
          "type": "address"
        },
        {
          "indexed": true,
          "internalType": "address",
          "name": "approved",
          "type": "address"
        },
        {
          "indexed": true,
          "internalType": "uint256",
          "name": "tokenId",
          "type": "uint256"
        }
      ],
      "name": "Approval",
      "type": "event"
    },
    {
      "anonymous": false,
      "inputs": [
        {
          "indexed": true,
          "internalType": "address",
          "name": "owner",
          "type": "address"
        },
        {
          "indexed": true,
          "internalType": "address",
          "name": "operator",
          "type": "address"
        },
        {
          "indexed": false,
          "internalType": "bool",
          "name": "approved",
          "type": "bool"
        }
      ],
      "name": "ApprovalForAll",
      "type": "event"
    },
    {
      "anonymous": false,
      "inputs": [
        {
          "indexed": true,
          "internalType": "address",
          "name": "from",
          "type": "address"
        },
        {
          "indexed": true,
          "internalType": "address",
          "name": "to",
          "type": "address"
        },
        {
          "indexed": true,
          "internalType": "uint256",
          "name": "tokenId",
          "type": "uint256"
        }
      ],
      "name": "Transfer",
      "type": "event"
    },
    {
      "inputs": [
        {
          "internalType": "address",
          "name": "to",
          "type": "address"
        },
        {
          "internalType": "uint256",
          "name": "tokenId",
          "type": "uint256"
        }
      ],
      "name": "approve",
      "outputs": [],
      "stateMutability": "nonpayable",
      "type": "function"
    },
    {
      "inputs": [
        {
          "internalType": "address",
          "name": "owner",
          "type": "address"
        }
      ],
      "name": "balanceOf",
      "outputs": [
        {
          "internalType": "uint256",
          "name": "",
          "type": "uint256"
        }
      ],
      "stateMutability": "view",
      "type": "function"
    },
    {
      "inputs": [],
      "name": "baseURI",
      "outputs": [
        {
          "internalType": "string",
          "name": "",
          "type": "string"
        }
      ],
      "stateMutability": "view",
      "type": "function"
    },
    {
      "inputs": [],
      "name": "collectionName",
      "outputs": [
        {
          "internalType": "string",
          "name": "",
          "type": "string"
        }
      ],
      "stateMutability": "view",
      "type": "function"
    },
    {
      "inputs": [],
      "name": "collectionNameSymbol",
      "outputs": [
        {
          "internalType": "string",
          "name": "",
          "type": "string"
        }
      ],
      "stateMutability": "view",
      "type": "function"
    },
    {
      "inputs": [
        {
          "internalType": "uint256",
          "name": "tokenId",
          "type": "uint256"
        }
      ],
      "name": "getApproved",
      "outputs": [
        {
          "internalType": "address",
          "name": "",
          "type": "address"
        }
      ],
      "stateMutability": "view",
      "type": "function"
    },
    {
      "inputs": [
        {
          "internalType": "address",
          "name": "owner",
          "type": "address"
        },
        {
          "internalType": "address",
          "name": "operator",
          "type": "address"
        }
      ],
      "name": "isApprovedForAll",
      "outputs": [
        {
          "internalType": "bool",
          "name": "",
          "type": "bool"
        }
      ],
      "stateMutability": "view",
      "type": "function"
    },
    {
      "inputs": [],
      "name": "name",
      "outputs": [
        {
          "internalType": "string",
          "name": "",
          "type": "string"
        }
      ],
      "stateMutability": "view",
      "type": "function"
    },
    {
      "inputs": [],
      "name": "owner",
      "outputs": [
        {
          "internalType": "address",
          "name": "",
          "type": "address"
        }
      ],
      "stateMutability": "view",
      "type": "function"
    },
    {
      "inputs": [
        {
          "internalType": "uint256",
          "name": "tokenId",
          "type": "uint256"
        }
      ],
      "name": "ownerOf",
      "outputs": [
        {
          "internalType": "address",
          "name": "",
          "type": "address"
        }
      ],
      "stateMutability": "view",
      "type": "function"
    },
    {
      "inputs": [],
      "name": "potionsCounter",
      "outputs": [
        {
          "internalType": "uint256",
          "name": "",
          "type": "uint256"
        }
      ],
      "stateMutability": "view",
      "type": "function"
    },
    {
      "inputs": [
        {
          "internalType": "address",
          "name": "from",
          "type": "address"
        },
        {
          "internalType": "address",
          "name": "to",
          "type": "address"
        },
        {
          "internalType": "uint256",
          "name": "tokenId",
          "type": "uint256"
        }
      ],
      "name": "safeTransferFrom",
      "outputs": [],
      "stateMutability": "nonpayable",
      "type": "function"
    },
    {
      "inputs": [
        {
          "internalType": "address",
          "name": "from",
          "type": "address"
        },
        {
          "internalType": "address",
          "name": "to",
          "type": "address"
        },
        {
          "internalType": "uint256",
          "name": "tokenId",
          "type": "uint256"
        },
        {
          "internalType": "bytes",
          "name": "_data",
          "type": "bytes"
        }
      ],
      "name": "safeTransferFrom",
      "outputs": [],
      "stateMutability": "nonpayable",
      "type": "function"
    },
    {
      "inputs": [
        {
          "internalType": "address",
          "name": "operator",
          "type": "address"
        },
        {
          "internalType": "bool",
          "name": "approved",
          "type": "bool"
        }
      ],
      "name": "setApprovalForAll",
      "outputs": [],
      "stateMutability": "nonpayable",
      "type": "function"
    },
    {
      "inputs": [
        {
          "internalType": "bytes4",
          "name": "interfaceId",
          "type": "bytes4"
        }
      ],
      "name": "supportsInterface",
      "outputs": [
        {
          "internalType": "bool",
          "name": "",
          "type": "bool"
        }
      ],
      "stateMutability": "view",
      "type": "function"
    },
    {
      "inputs": [],
      "name": "symbol",
      "outputs": [
        {
          "internalType": "string",
          "name": "",
          "type": "string"
        }
      ],
      "stateMutability": "view",
      "type": "function"
    },
    {
      "inputs": [
        {
          "internalType": "uint256",
          "name": "index",
          "type": "uint256"
        }
      ],
      "name": "tokenByIndex",
      "outputs": [
        {
          "internalType": "uint256",
          "name": "",
          "type": "uint256"
        }
      ],
      "stateMutability": "view",
      "type": "function"
    },
    {
      "inputs": [
        {
          "internalType": "address",
          "name": "owner",
          "type": "address"
        },
        {
          "internalType": "uint256",
          "name": "index",
          "type": "uint256"
        }
      ],
      "name": "tokenOfOwnerByIndex",
      "outputs": [
        {
          "internalType": "uint256",
          "name": "",
          "type": "uint256"
        }
      ],
      "stateMutability": "view",
      "type": "function"
    },
    {
      "inputs": [
        {
          "internalType": "uint256",
          "name": "tokenId",
          "type": "uint256"
        }
      ],
      "name": "tokenURI",
      "outputs": [
        {
          "internalType": "string",
          "name": "",
          "type": "string"
        }
      ],
      "stateMutability": "view",
      "type": "function"
    },
    {
      "inputs": [],
      "name": "totalSupply",
      "outputs": [
        {
          "internalType": "uint256",
          "name": "",
          "type": "uint256"
        }
      ],
      "stateMutability": "view",
      "type": "function"
    },
    {
      "inputs": [
        {
          "internalType": "address",
          "name": "from",
          "type": "address"
        },
        {
          "internalType": "address",
          "name": "to",
          "type": "address"
        },
        {
          "internalType": "uint256",
          "name": "tokenId",
          "type": "uint256"
        }
      ],
      "name": "transferFrom",
      "outputs": [],
      "stateMutability": "nonpayable",
      "type": "function"
    },
    {
      "inputs": [
        {
          "internalType": "string",
          "name": "baseURI",
          "type": "string"
        }
      ],
      "name": "setBaseURI",
      "outputs": [],
      "stateMutability": "nonpayable",
      "type": "function"
    },
    {
      "inputs": [
        {
          "internalType": "address[]",
          "name": "_to",
          "type": "address[]"
        }
      ],
      "name": "adminMintCroSkull",
      "outputs": [],
      "stateMutability": "nonpayable",
      "type": "function"
    },
    {
      "inputs": [],
      "name": "getOwner",
      "outputs": [
        {
          "internalType": "address",
          "name": "",
          "type": "address"
        }
      ],
      "stateMutability": "view",
      "type": "function"
    },
    {
      "inputs": [
        {
          "internalType": "uint256",
          "name": "_tokenId",
          "type": "uint256"
        }
      ],
      "name": "getTokenOwner",
      "outputs": [
        {
          "internalType": "address",
          "name": "",
          "type": "address"
        }
      ],
      "stateMutability": "view",
      "type": "function"
    },
    {
      "inputs": [
        {
          "internalType": "uint256",
          "name": "_tokenId",
          "type": "uint256"
        }
      ],
      "name": "getTokenMetaData",
      "outputs": [
        {
          "internalType": "string",
          "name": "",
          "type": "string"
        }
      ],
      "stateMutability": "view",
      "type": "function"
    },
    {
      "inputs": [],
      "name": "getNumberOfTokensMinted",
      "outputs": [
        {
          "internalType": "uint256",
          "name": "",
          "type": "uint256"
        }
      ],
      "stateMutability": "view",
      "type": "function"
    },
    {
      "inputs": [
        {
          "internalType": "address",
          "name": "_owner",
          "type": "address"
        }
      ],
      "name": "getTotalNumberOfTokensOwnedByAnAddress",
      "outputs": [
        {
          "internalType": "uint256",
          "name": "",
          "type": "uint256"
        }
      ],
      "stateMutability": "view",
      "type": "function"
    },
    {
      "inputs": [
        {
          "internalType": "uint256",
          "name": "_tokenId",
          "type": "uint256"
        }
      ],
      "name": "getTokenExists",
      "outputs": [
        {
          "internalType": "bool",
          "name": "",
          "type": "bool"
        }
      ],
      "stateMutability": "view",
      "type": "function"
    }
  ],
  "bytecode": "0x60806040523480156200001157600080fd5b506040518060400160405280601381526020017f43726f536b756c6c73526564506f74696f6e73000000000000000000000000008152506040518060400160405280600481526020017f4353525000000000000000000000000000000000000000000000000000000000815250620000966301ffc9a760e01b620001a960201b60201c565b8160069080519060200190620000ae929190620003b5565b508060079080519060200190620000c7929190620003b5565b50620000e06380ac58cd60e01b620001a960201b60201c565b620000f8635b5e139f60e01b620001a960201b60201c565b6200011063780e9d6360e01b620001a960201b60201c565b505033600d60006101000a81548173ffffffffffffffffffffffffffffffffffffffff021916908373ffffffffffffffffffffffffffffffffffffffff160217905550620001636200028160201b60201c565b600a90805190602001906200017a929190620003b5565b506200018b6200031b60201b60201c565b600b9080519060200190620001a2929190620003b5565b506200054d565b63ffffffff60e01b817bffffffffffffffffffffffffffffffffffffffffffffffffffffffff1916141562000215576040517f08c379a00000000000000000000000000000000000000000000000000000000081526004016200020c90620004c6565b60405180910390fd5b6001600080837bffffffffffffffffffffffffffffffffffffffffffffffffffffffff19167bffffffffffffffffffffffffffffffffffffffffffffffffffffffff1916815260200190815260200160002060006101000a81548160ff02191690831515021790555050565b606060068054620002929062000517565b80601f0160208091040260200160405190810160405280929190818152602001828054620002c09062000517565b8015620003115780601f10620002e55761010080835404028352916020019162000311565b820191906000526020600020905b815481529060010190602001808311620002f357829003601f168201915b5050505050905090565b6060600780546200032c9062000517565b80601f01602080910402602001604051908101604052809291908181526020018280546200035a9062000517565b8015620003ab5780601f106200037f57610100808354040283529160200191620003ab565b820191906000526020600020905b8154815290600101906020018083116200038d57829003601f168201915b5050505050905090565b828054620003c39062000517565b90600052602060002090601f016020900481019282620003e7576000855562000433565b82601f106200040257805160ff191683800117855562000433565b8280016001018555821562000433579182015b828111156200043257825182559160200191906001019062000415565b5b50905062000442919062000446565b5090565b5b808211156200046157600081600090555060010162000447565b5090565b600082825260208201905092915050565b7f4552433136353a20696e76616c696420696e7465726661636520696400000000600082015250565b6000620004ae601c8362000465565b9150620004bb8262000476565b602082019050919050565b60006020820190508181036000830152620004e1816200049f565b9050919050565b7f4e487b7100000000000000000000000000000000000000000000000000000000600052602260045260246000fd5b600060028204905060018216806200053057607f821691505b60208210811415620005475762000546620004e8565b5b50919050565b6138d5806200055d6000396000f3fe608060405234801561001057600080fd5b50600436106101cf5760003560e01c80636c0360eb11610104578063a22cb465116100a2578063c87b56dd11610071578063c87b56dd14610568578063cc151f3a14610598578063e5326ab1146105b6578063e985e9c5146105d4576101cf565b8063a22cb465146104e4578063a4674cbc14610500578063a5cd761f1461051c578063b88d4fde1461054c576101cf565b806387310f62116100de57806387310f621461046c578063893d20e81461048a5780638da5cb5b146104a857806395d89b41146104c6576101cf565b80636c0360eb146104005780636f9507f91461041e57806370a082311461043c576101cf565b80632f745c59116101715780634f6ccce71161014b5780634f6ccce71461035457806355f804b3146103845780636352211e146103a057806367c623cf146103d0576101cf565b80632f745c59146102d857806342842e0e146103085780634390285014610324576101cf565b8063095ea7b3116101ad578063095ea7b314610252578063142687f31461026e57806318160ddd1461029e57806323b872dd146102bc576101cf565b806301ffc9a7146101d457806306fdde0314610204578063081812fc14610222575b600080fd5b6101ee60048036038101906101e991906123c6565b610604565b6040516101fb919061240e565b60405180910390f35b61020c61066b565b60405161021991906124c2565b60405180910390f35b61023c6004803603810190610237919061251a565b6106fd565b6040516102499190612588565b60405180910390f35b61026c600480360381019061026791906125cf565b610782565b005b6102886004803603810190610283919061251a565b61089a565b604051610295919061240e565b60405180910390f35b6102a66108b1565b6040516102b3919061261e565b60405180910390f35b6102d660048036038101906102d19190612639565b6108c2565b005b6102f260048036038101906102ed91906125cf565b610922565b6040516102ff919061261e565b60405180910390f35b610322600480360381019061031d9190612639565b61097d565b005b61033e6004803603810190610339919061268c565b61099d565b60405161034b919061261e565b60405180910390f35b61036e6004803603810190610369919061251a565b6109b4565b60405161037b919061261e565b60405180910390f35b61039e600480360381019061039991906127ee565b6109d7565b005b6103ba60048036038101906103b5919061251a565b610a3d565b6040516103c79190612588565b60405180910390f35b6103ea60048036038101906103e5919061251a565b610a74565b6040516103f791906124c2565b60405180910390f35b610408610a8c565b60405161041591906124c2565b60405180910390f35b610426610b1e565b60405161043391906124c2565b60405180910390f35b6104566004803603810190610451919061268c565b610bac565b604051610463919061261e565b60405180910390f35b610474610c6b565b604051610481919061261e565b60405180910390f35b610492610c71565b60405161049f9190612588565b60405180910390f35b6104b0610c9b565b6040516104bd9190612588565b60405180910390f35b6104ce610cc1565b6040516104db91906124c2565b60405180910390f35b6104fe60048036038101906104f99190612863565b610d53565b005b61051a6004803603810190610515919061296b565b610ed4565b005b6105366004803603810190610531919061251a565b610faf565b6040516105439190612588565b60405180910390f35b61056660048036038101906105619190612a55565b610fc6565b005b610582600480360381019061057d919061251a565b611028565b60405161058f91906124c2565b60405180910390f35b6105a061119b565b6040516105ad919061261e565b60405180910390f35b6105be6111af565b6040516105cb91906124c2565b60405180910390f35b6105ee60048036038101906105e99190612ad8565b61123d565b6040516105fb919061240e565b60405180910390f35b6000806000837bffffffffffffffffffffffffffffffffffffffffffffffffffffffff19167bffffffffffffffffffffffffffffffffffffffffffffffffffffffff1916815260200190815260200160002060009054906101000a900460ff169050919050565b60606006805461067a90612b47565b80601f01602080910402602001604051908101604052809291908181526020018280546106a690612b47565b80156106f35780601f106106c8576101008083540402835291602001916106f3565b820191906000526020600020905b8154815290600101906020018083116106d657829003601f168201915b5050505050905090565b6000610708826112d1565b610747576040517f08c379a000000000000000000000000000000000000000000000000000000000815260040161073e90612beb565b60405180910390fd5b6004600083815260200190815260200160002060009054906101000a900473ffffffffffffffffffffffffffffffffffffffff169050919050565b600061078d82610a3d565b90508073ffffffffffffffffffffffffffffffffffffffff168373ffffffffffffffffffffffffffffffffffffffff1614156107fe576040517f08c379a00000000000000000000000000000000000000000000000000000000081526004016107f590612c7d565b60405180910390fd5b8073ffffffffffffffffffffffffffffffffffffffff1661081d6112ee565b73ffffffffffffffffffffffffffffffffffffffff16148061084c575061084b816108466112ee565b61123d565b5b61088b576040517f08c379a000000000000000000000000000000000000000000000000000000000815260040161088290612d0f565b60405180910390fd5b61089583836112f6565b505050565b6000806108a6836112d1565b905080915050919050565b60006108bd60026113af565b905090565b6108d36108cd6112ee565b826113c4565b610912576040517f08c379a000000000000000000000000000000000000000000000000000000000815260040161090990612da1565b60405180910390fd5b61091d8383836114a2565b505050565b600061097582600160008673ffffffffffffffffffffffffffffffffffffffff1673ffffffffffffffffffffffffffffffffffffffff1681526020019081526020016000206116b990919063ffffffff16565b905092915050565b61099883838360405180602001604052806000815250610fc6565b505050565b6000806109a983610bac565b905080915050919050565b6000806109cb8360026116d390919063ffffffff16565b50905080915050919050565b600d60009054906101000a900473ffffffffffffffffffffffffffffffffffffffff1673ffffffffffffffffffffffffffffffffffffffff163373ffffffffffffffffffffffffffffffffffffffff1614610a3157600080fd5b610a3a816116ff565b50565b6000610a6d826040518060600160405280602981526020016138776029913960026117199092919063ffffffff16565b9050919050565b60606000610a8183611028565b905080915050919050565b606060098054610a9b90612b47565b80601f0160208091040260200160405190810160405280929190818152602001828054610ac790612b47565b8015610b145780601f10610ae957610100808354040283529160200191610b14565b820191906000526020600020905b815481529060010190602001808311610af757829003601f168201915b5050505050905090565b600b8054610b2b90612b47565b80601f0160208091040260200160405190810160405280929190818152602001828054610b5790612b47565b8015610ba45780601f10610b7957610100808354040283529160200191610ba4565b820191906000526020600020905b815481529060010190602001808311610b8757829003601f168201915b505050505081565b60008073ffffffffffffffffffffffffffffffffffffffff168273ffffffffffffffffffffffffffffffffffffffff161415610c1d576040517f08c379a0000000000000000000000000000000000000000000000000000000008152600401610c1490612e33565b60405180910390fd5b610c64600160008473ffffffffffffffffffffffffffffffffffffffff1673ffffffffffffffffffffffffffffffffffffffff168152602001908152602001600020611738565b9050919050565b600c5481565b6000600d60009054906101000a900473ffffffffffffffffffffffffffffffffffffffff16905090565b600d60009054906101000a900473ffffffffffffffffffffffffffffffffffffffff1681565b606060078054610cd090612b47565b80601f0160208091040260200160405190810160405280929190818152602001828054610cfc90612b47565b8015610d495780601f10610d1e57610100808354040283529160200191610d49565b820191906000526020600020905b815481529060010190602001808311610d2c57829003601f168201915b5050505050905090565b610d5b6112ee565b73ffffffffffffffffffffffffffffffffffffffff168273ffffffffffffffffffffffffffffffffffffffff161415610dc9576040517f08c379a0000000000000000000000000000000000000000000000000000000008152600401610dc090612e9f565b60405180910390fd5b8060056000610dd66112ee565b73ffffffffffffffffffffffffffffffffffffffff1673ffffffffffffffffffffffffffffffffffffffff16815260200190815260200160002060008473ffffffffffffffffffffffffffffffffffffffff1673ffffffffffffffffffffffffffffffffffffffff16815260200190815260200160002060006101000a81548160ff0219169083151502179055508173ffffffffffffffffffffffffffffffffffffffff16610e836112ee565b73ffffffffffffffffffffffffffffffffffffffff167f17307eab39ab6107e8899845ad3d59bd9653f200f220920489ca2b5937696c3183604051610ec8919061240e565b60405180910390a35050565b600d60009054906101000a900473ffffffffffffffffffffffffffffffffffffffff1673ffffffffffffffffffffffffffffffffffffffff163373ffffffffffffffffffffffffffffffffffffffff1614610f2e57600080fd5b60005b60018251610f3f9190612eee565b8111610fab57600c6000815480929190610f5890612f22565b9190505550610f68600c546112d1565b15610f7257600080fd5b610f98828281518110610f8857610f87612f6b565b5b6020026020010151600c5461174d565b8080610fa390612f22565b915050610f31565b5050565b600080610fbb83610a3d565b905080915050919050565b610fd7610fd16112ee565b836113c4565b611016576040517f08c379a000000000000000000000000000000000000000000000000000000000815260040161100d90612da1565b60405180910390fd5b611022848484846118db565b50505050565b6060611033826112d1565b611072576040517f08c379a00000000000000000000000000000000000000000000000000000000081526004016110699061300c565b60405180910390fd5b600060086000848152602001908152602001600020805461109290612b47565b80601f01602080910402602001604051908101604052809291908181526020018280546110be90612b47565b801561110b5780601f106110e05761010080835404028352916020019161110b565b820191906000526020600020905b8154815290600101906020018083116110ee57829003601f168201915b50505050509050600061111c610a8c565b9050600081511415611132578192505050611196565b60008251111561116757808260405160200161114f929190613068565b60405160208183030381529060405292505050611196565b8061117185611937565b604051602001611182929190613068565b604051602081830303815290604052925050505b919050565b6000806111a66108b1565b90508091505090565b600a80546111bc90612b47565b80601f01602080910402602001604051908101604052809291908181526020018280546111e890612b47565b80156112355780601f1061120a57610100808354040283529160200191611235565b820191906000526020600020905b81548152906001019060200180831161121857829003601f168201915b505050505081565b6000600560008473ffffffffffffffffffffffffffffffffffffffff1673ffffffffffffffffffffffffffffffffffffffff16815260200190815260200160002060008373ffffffffffffffffffffffffffffffffffffffff1673ffffffffffffffffffffffffffffffffffffffff16815260200190815260200160002060009054906101000a900460ff16905092915050565b60006112e7826002611aaa90919063ffffffff16565b9050919050565b600033905090565b816004600083815260200190815260200160002060006101000a81548173ffffffffffffffffffffffffffffffffffffffff021916908373ffffffffffffffffffffffffffffffffffffffff160217905550808273ffffffffffffffffffffffffffffffffffffffff1661136983610a3d565b73ffffffffffffffffffffffffffffffffffffffff167f8c5be1e5ebec7d5bd14f71427d1e84f3dd0314c0f7b2291e5b200ac8c7c3b92560405160405180910390a45050565b60006113bd82600001611ac4565b9050919050565b60006113cf826112d1565b61140e576040517f08c379a0000000000000000000000000000000000000000000000000000000008152600401611405906130fe565b60405180910390fd5b600061141983610a3d565b90508073ffffffffffffffffffffffffffffffffffffffff168473ffffffffffffffffffffffffffffffffffffffff16148061148857508373ffffffffffffffffffffffffffffffffffffffff16611470846106fd565b73ffffffffffffffffffffffffffffffffffffffff16145b806114995750611498818561123d565b5b91505092915050565b8273ffffffffffffffffffffffffffffffffffffffff166114c282610a3d565b73ffffffffffffffffffffffffffffffffffffffff1614611518576040517f08c379a000000000000000000000000000000000000000000000000000000000815260040161150f90613190565b60405180910390fd5b600073ffffffffffffffffffffffffffffffffffffffff168273ffffffffffffffffffffffffffffffffffffffff161415611588576040517f08c379a000000000000000000000000000000000000000000000000000000000815260040161157f90613222565b60405180910390fd5b611593838383611ad5565b61159e6000826112f6565b6115ef81600160008673ffffffffffffffffffffffffffffffffffffffff1673ffffffffffffffffffffffffffffffffffffffff168152602001908152602001600020611ada90919063ffffffff16565b5061164181600160008573ffffffffffffffffffffffffffffffffffffffff1673ffffffffffffffffffffffffffffffffffffffff168152602001908152602001600020611af490919063ffffffff16565b5061165881836002611b0e9092919063ffffffff16565b50808273ffffffffffffffffffffffffffffffffffffffff168473ffffffffffffffffffffffffffffffffffffffff167fddf252ad1be2c89b69c2b068fc378daa952ba7f163c4a11628f55a4df523b3ef60405160405180910390a4505050565b60006116c88360000183611b43565b60001c905092915050565b6000806000806116e68660000186611bb7565b915091508160001c8160001c9350935050509250929050565b80600990805190602001906117159291906122b7565b5050565b600061172c846000018460001b84611c41565b60001c90509392505050565b600061174682600001611ce2565b9050919050565b600073ffffffffffffffffffffffffffffffffffffffff168273ffffffffffffffffffffffffffffffffffffffff1614156117bd576040517f08c379a00000000000000000000000000000000000000000000000000000000081526004016117b49061328e565b60405180910390fd5b6117c6816112d1565b15611806576040517f08c379a00000000000000000000000000000000000000000000000000000000081526004016117fd906132fa565b60405180910390fd5b61181260008383611ad5565b61186381600160008573ffffffffffffffffffffffffffffffffffffffff1673ffffffffffffffffffffffffffffffffffffffff168152602001908152602001600020611af490919063ffffffff16565b5061187a81836002611b0e9092919063ffffffff16565b50808273ffffffffffffffffffffffffffffffffffffffff16600073ffffffffffffffffffffffffffffffffffffffff167fddf252ad1be2c89b69c2b068fc378daa952ba7f163c4a11628f55a4df523b3ef60405160405180910390a45050565b6118e68484846114a2565b6118f284848484611cf3565b611931576040517f08c379a00000000000000000000000000000000000000000000000000000000081526004016119289061338c565b60405180910390fd5b50505050565b6060600082141561197f576040518060400160405280600181526020017f30000000000000000000000000000000000000000000000000000000000000008152509050611aa5565b600082905060005b600082146119b157808061199a90612f22565b915050600a826119aa91906133db565b9150611987565b60008167ffffffffffffffff8111156119cd576119cc6126c3565b5b6040519080825280601f01601f1916602001820160405280156119ff5781602001600182028036833780820191505090505b5090506000600183611a119190612eee565b90508593505b60008414611a9d57600a84611a2c919061340c565b6030611a38919061343d565b60f81b828280611a4790613493565b935081518110611a5a57611a59612f6b565b5b60200101907effffffffffffffffffffffffffffffffffffffffffffffffffffffffffffff1916908160001a905350600a84611a9691906133db565b9350611a17565b819450505050505b919050565b6000611abc836000018360001b611e57565b905092915050565b600081600001805490509050919050565b505050565b6000611aec836000018360001b611e7a565b905092915050565b6000611b06836000018360001b611f92565b905092915050565b6000611b3a846000018460001b8473ffffffffffffffffffffffffffffffffffffffff1660001b612002565b90509392505050565b600081836000018054905011611b8e576040517f08c379a0000000000000000000000000000000000000000000000000000000008152600401611b859061352f565b60405180910390fd5b826000018281548110611ba457611ba3612f6b565b5b9060005260206000200154905092915050565b60008082846000018054905011611c03576040517f08c379a0000000000000000000000000000000000000000000000000000000008152600401611bfa906135c1565b60405180910390fd5b6000846000018481548110611c1b57611c1a612f6b565b5b906000526020600020906002020190508060000154816001015492509250509250929050565b60008084600101600085815260200190815260200160002054905060008114158390611ca3576040517f08c379a0000000000000000000000000000000000000000000000000000000008152600401611c9a91906124c2565b60405180910390fd5b5084600001600182611cb59190612eee565b81548110611cc657611cc5612f6b565b5b9060005260206000209060020201600101549150509392505050565b600081600001805490509050919050565b6000611d148473ffffffffffffffffffffffffffffffffffffffff166120ee565b611d215760019050611e4f565b6000611de863150b7a0260e01b611d366112ee565b888787604051602401611d4c9493929190613636565b604051602081830303815290604052907bffffffffffffffffffffffffffffffffffffffffffffffffffffffff19166020820180517bffffffffffffffffffffffffffffffffffffffffffffffffffffffff8381831617835250505050604051806060016040528060328152602001613845603291398773ffffffffffffffffffffffffffffffffffffffff166121019092919063ffffffff16565b9050600081806020019051810190611e009190613697565b905063150b7a0260e01b7bffffffffffffffffffffffffffffffffffffffffffffffffffffffff1916817bffffffffffffffffffffffffffffffffffffffffffffffffffffffff191614925050505b949350505050565b600080836001016000848152602001908152602001600020541415905092915050565b60008083600101600084815260200190815260200160002054905060008114611f86576000600182611eac9190612eee565b9050600060018660000180549050611ec49190612eee565b90506000866000018281548110611ede57611edd612f6b565b5b9060005260206000200154905080876000018481548110611f0257611f01612f6b565b5b9060005260206000200181905550600183611f1d919061343d565b8760010160008381526020019081526020016000208190555086600001805480611f4a57611f496136c4565b5b60019003818190600052602060002001600090559055866001016000878152602001908152602001600020600090556001945050505050611f8c565b60009150505b92915050565b6000611f9e8383612119565b611ff7578260000182908060018154018082558091505060019003906000526020600020016000909190919091505582600001805490508360010160008481526020019081526020016000208190555060019050611ffc565b600090505b92915050565b60008084600101600085815260200190815260200160002054905060008114156120a9578460000160405180604001604052808681526020018581525090806001815401808255809150506001900390600052602060002090600202016000909190919091506000820151816000015560208201518160010155505084600001805490508560010160008681526020019081526020016000208190555060019150506120e7565b82856000016001836120bb9190612eee565b815481106120cc576120cb612f6b565b5b90600052602060002090600202016001018190555060009150505b9392505050565b600080823b905060008111915050919050565b6060612110848460008561213c565b90509392505050565b600080836001016000848152602001908152602001600020541415905092915050565b606082471015612181576040517f08c379a000000000000000000000000000000000000000000000000000000000815260040161217890613765565b60405180910390fd5b61218a856120ee565b6121c9576040517f08c379a00000000000000000000000000000000000000000000000000000000081526004016121c0906137d1565b60405180910390fd5b6000808673ffffffffffffffffffffffffffffffffffffffff1685876040516121f2919061382d565b60006040518083038185875af1925050503d806000811461222f576040519150601f19603f3d011682016040523d82523d6000602084013e612234565b606091505b5091509150612244828286612250565b92505050949350505050565b60608315612260578290506122b0565b6000835111156122735782518084602001fd5b816040517f08c379a00000000000000000000000000000000000000000000000000000000081526004016122a791906124c2565b60405180910390fd5b9392505050565b8280546122c390612b47565b90600052602060002090601f0160209004810192826122e5576000855561232c565b82601f106122fe57805160ff191683800117855561232c565b8280016001018555821561232c579182015b8281111561232b578251825591602001919060010190612310565b5b509050612339919061233d565b5090565b5b8082111561235657600081600090555060010161233e565b5090565b6000604051905090565b600080fd5b600080fd5b60007fffffffff0000000000000000000000000000000000000000000000000000000082169050919050565b6123a38161236e565b81146123ae57600080fd5b50565b6000813590506123c08161239a565b92915050565b6000602082840312156123dc576123db612364565b5b60006123ea848285016123b1565b91505092915050565b60008115159050919050565b612408816123f3565b82525050565b600060208201905061242360008301846123ff565b92915050565b600081519050919050565b600082825260208201905092915050565b60005b83811015612463578082015181840152602081019050612448565b83811115612472576000848401525b50505050565b6000601f19601f8301169050919050565b600061249482612429565b61249e8185612434565b93506124ae818560208601612445565b6124b781612478565b840191505092915050565b600060208201905081810360008301526124dc8184612489565b905092915050565b6000819050919050565b6124f7816124e4565b811461250257600080fd5b50565b600081359050612514816124ee565b92915050565b6000602082840312156125305761252f612364565b5b600061253e84828501612505565b91505092915050565b600073ffffffffffffffffffffffffffffffffffffffff82169050919050565b600061257282612547565b9050919050565b61258281612567565b82525050565b600060208201905061259d6000830184612579565b92915050565b6125ac81612567565b81146125b757600080fd5b50565b6000813590506125c9816125a3565b92915050565b600080604083850312156125e6576125e5612364565b5b60006125f4858286016125ba565b925050602061260585828601612505565b9150509250929050565b612618816124e4565b82525050565b6000602082019050612633600083018461260f565b92915050565b60008060006060848603121561265257612651612364565b5b6000612660868287016125ba565b9350506020612671868287016125ba565b925050604061268286828701612505565b9150509250925092565b6000602082840312156126a2576126a1612364565b5b60006126b0848285016125ba565b91505092915050565b600080fd5b600080fd5b7f4e487b7100000000000000000000000000000000000000000000000000000000600052604160045260246000fd5b6126fb82612478565b810181811067ffffffffffffffff8211171561271a576127196126c3565b5b80604052505050565b600061272d61235a565b905061273982826126f2565b919050565b600067ffffffffffffffff821115612759576127586126c3565b5b61276282612478565b9050602081019050919050565b82818337600083830152505050565b600061279161278c8461273e565b612723565b9050828152602081018484840111156127ad576127ac6126be565b5b6127b884828561276f565b509392505050565b600082601f8301126127d5576127d46126b9565b5b81356127e584826020860161277e565b91505092915050565b60006020828403121561280457612803612364565b5b600082013567ffffffffffffffff81111561282257612821612369565b5b61282e848285016127c0565b91505092915050565b612840816123f3565b811461284b57600080fd5b50565b60008135905061285d81612837565b92915050565b6000806040838503121561287a57612879612364565b5b6000612888858286016125ba565b92505060206128998582860161284e565b9150509250929050565b600067ffffffffffffffff8211156128be576128bd6126c3565b5b602082029050602081019050919050565b600080fd5b60006128e76128e2846128a3565b612723565b9050808382526020820190506020840283018581111561290a576129096128cf565b5b835b81811015612933578061291f88826125ba565b84526020840193505060208101905061290c565b5050509392505050565b600082601f830112612952576129516126b9565b5b81356129628482602086016128d4565b91505092915050565b60006020828403121561298157612980612364565b5b600082013567ffffffffffffffff81111561299f5761299e612369565b5b6129ab8482850161293d565b91505092915050565b600067ffffffffffffffff8211156129cf576129ce6126c3565b5b6129d882612478565b9050602081019050919050565b60006129f86129f3846129b4565b612723565b905082815260208101848484011115612a1457612a136126be565b5b612a1f84828561276f565b509392505050565b600082601f830112612a3c57612a3b6126b9565b5b8135612a4c8482602086016129e5565b91505092915050565b60008060008060808587031215612a6f57612a6e612364565b5b6000612a7d878288016125ba565b9450506020612a8e878288016125ba565b9350506040612a9f87828801612505565b925050606085013567ffffffffffffffff811115612ac057612abf612369565b5b612acc87828801612a27565b91505092959194509250565b60008060408385031215612aef57612aee612364565b5b6000612afd858286016125ba565b9250506020612b0e858286016125ba565b9150509250929050565b7f4e487b7100000000000000000000000000000000000000000000000000000000600052602260045260246000fd5b60006002820490506001821680612b5f57607f821691505b60208210811415612b7357612b72612b18565b5b50919050565b7f4552433732313a20617070726f76656420717565727920666f72206e6f6e657860008201527f697374656e7420746f6b656e0000000000000000000000000000000000000000602082015250565b6000612bd5602c83612434565b9150612be082612b79565b604082019050919050565b60006020820190508181036000830152612c0481612bc8565b9050919050565b7f4552433732313a20617070726f76616c20746f2063757272656e74206f776e6560008201527f7200000000000000000000000000000000000000000000000000000000000000602082015250565b6000612c67602183612434565b9150612c7282612c0b565b604082019050919050565b60006020820190508181036000830152612c9681612c5a565b9050919050565b7f4552433732313a20617070726f76652063616c6c6572206973206e6f74206f7760008201527f6e6572206e6f7220617070726f76656420666f7220616c6c0000000000000000602082015250565b6000612cf9603883612434565b9150612d0482612c9d565b604082019050919050565b60006020820190508181036000830152612d2881612cec565b9050919050565b7f4552433732313a207472616e736665722063616c6c6572206973206e6f74206f60008201527f776e6572206e6f7220617070726f766564000000000000000000000000000000602082015250565b6000612d8b603183612434565b9150612d9682612d2f565b604082019050919050565b60006020820190508181036000830152612dba81612d7e565b9050919050565b7f4552433732313a2062616c616e636520717565727920666f7220746865207a6560008201527f726f206164647265737300000000000000000000000000000000000000000000602082015250565b6000612e1d602a83612434565b9150612e2882612dc1565b604082019050919050565b60006020820190508181036000830152612e4c81612e10565b9050919050565b7f4552433732313a20617070726f766520746f2063616c6c657200000000000000600082015250565b6000612e89601983612434565b9150612e9482612e53565b602082019050919050565b60006020820190508181036000830152612eb881612e7c565b9050919050565b7f4e487b7100000000000000000000000000000000000000000000000000000000600052601160045260246000fd5b6000612ef9826124e4565b9150612f04836124e4565b925082821015612f1757612f16612ebf565b5b828203905092915050565b6000612f2d826124e4565b91507fffffffffffffffffffffffffffffffffffffffffffffffffffffffffffffffff821415612f6057612f5f612ebf565b5b600182019050919050565b7f4e487b7100000000000000000000000000000000000000000000000000000000600052603260045260246000fd5b7f4552433732314d657461646174613a2055524920717565727920666f72206e6f60008201527f6e6578697374656e7420746f6b656e0000000000000000000000000000000000602082015250565b6000612ff6602f83612434565b915061300182612f9a565b604082019050919050565b6000602082019050818103600083015261302581612fe9565b9050919050565b600081905092915050565b600061304282612429565b61304c818561302c565b935061305c818560208601612445565b80840191505092915050565b60006130748285613037565b91506130808284613037565b91508190509392505050565b7f4552433732313a206f70657261746f7220717565727920666f72206e6f6e657860008201527f697374656e7420746f6b656e0000000000000000000000000000000000000000602082015250565b60006130e8602c83612434565b91506130f38261308c565b604082019050919050565b60006020820190508181036000830152613117816130db565b9050919050565b7f4552433732313a207472616e73666572206f6620746f6b656e2074686174206960008201527f73206e6f74206f776e0000000000000000000000000000000000000000000000602082015250565b600061317a602983612434565b91506131858261311e565b604082019050919050565b600060208201905081810360008301526131a98161316d565b9050919050565b7f4552433732313a207472616e7366657220746f20746865207a65726f2061646460008201527f7265737300000000000000000000000000000000000000000000000000000000602082015250565b600061320c602483612434565b9150613217826131b0565b604082019050919050565b6000602082019050818103600083015261323b816131ff565b9050919050565b7f4552433732313a206d696e7420746f20746865207a65726f2061646472657373600082015250565b6000613278602083612434565b915061328382613242565b602082019050919050565b600060208201905081810360008301526132a78161326b565b9050919050565b7f4552433732313a20746f6b656e20616c7265616479206d696e74656400000000600082015250565b60006132e4601c83612434565b91506132ef826132ae565b602082019050919050565b60006020820190508181036000830152613313816132d7565b9050919050565b7f4552433732313a207472616e7366657220746f206e6f6e20455243373231526560008201527f63656976657220696d706c656d656e7465720000000000000000000000000000602082015250565b6000613376603283612434565b91506133818261331a565b604082019050919050565b600060208201905081810360008301526133a581613369565b9050919050565b7f4e487b7100000000000000000000000000000000000000000000000000000000600052601260045260246000fd5b60006133e6826124e4565b91506133f1836124e4565b925082613401576134006133ac565b5b828204905092915050565b6000613417826124e4565b9150613422836124e4565b925082613432576134316133ac565b5b828206905092915050565b6000613448826124e4565b9150613453836124e4565b9250827fffffffffffffffffffffffffffffffffffffffffffffffffffffffffffffffff0382111561348857613487612ebf565b5b828201905092915050565b600061349e826124e4565b915060008214156134b2576134b1612ebf565b5b600182039050919050565b7f456e756d657261626c655365743a20696e646578206f7574206f6620626f756e60008201527f6473000000000000000000000000000000000000000000000000000000000000602082015250565b6000613519602283612434565b9150613524826134bd565b604082019050919050565b600060208201905081810360008301526135488161350c565b9050919050565b7f456e756d657261626c654d61703a20696e646578206f7574206f6620626f756e60008201527f6473000000000000000000000000000000000000000000000000000000000000602082015250565b60006135ab602283612434565b91506135b68261354f565b604082019050919050565b600060208201905081810360008301526135da8161359e565b9050919050565b600081519050919050565b600082825260208201905092915050565b6000613608826135e1565b61361281856135ec565b9350613622818560208601612445565b61362b81612478565b840191505092915050565b600060808201905061364b6000830187612579565b6136586020830186612579565b613665604083018561260f565b818103606083015261367781846135fd565b905095945050505050565b6000815190506136918161239a565b92915050565b6000602082840312156136ad576136ac612364565b5b60006136bb84828501613682565b91505092915050565b7f4e487b7100000000000000000000000000000000000000000000000000000000600052603160045260246000fd5b7f416464726573733a20696e73756666696369656e742062616c616e636520666f60008201527f722063616c6c0000000000000000000000000000000000000000000000000000602082015250565b600061374f602683612434565b915061375a826136f3565b604082019050919050565b6000602082019050818103600083015261377e81613742565b9050919050565b7f416464726573733a2063616c6c20746f206e6f6e2d636f6e7472616374000000600082015250565b60006137bb601d83612434565b91506137c682613785565b602082019050919050565b600060208201905081810360008301526137ea816137ae565b9050919050565b600081905092915050565b6000613807826135e1565b61381181856137f1565b9350613821818560208601612445565b80840191505092915050565b600061383982846137fc565b91508190509291505056fe4552433732313a207472616e7366657220746f206e6f6e20455243373231526563656976657220696d706c656d656e7465724552433732313a206f776e657220717565727920666f72206e6f6e6578697374656e7420746f6b656ea26469706673582212204b6f355fc677a60dd87e2191e44105d87922c71887a40f2e41b81564677a866464736f6c634300080b0033",
  "immutableReferences": {},
  "source": "// SPDX-License-Identifier: MIT\npragma solidity >=0.8.0;\npragma abicoder v2;\n\n// import ERC721 iterface\nimport \"./ERC721.sol\";\n\n// CroSkulls smart contract inherits ERC721 interface\ncontract CroSkullsRedPotions is ERC721 {\n  using SafeMath for uint256;\n\n  string public collectionName;\n  string public collectionNameSymbol;\n  uint256 public potionsCounter;\n  address public owner;\n\n  modifier onlyOwner() {\n    require(msg.sender == owner);\n    _;\n  }\n\n  // initialize contract while deployment with contract's collection name and token\n  constructor( ) ERC721(\"CroSkullsRedPotions\", \"CSRP\") {\n    owner = msg.sender;\n    collectionName = name();\n    collectionNameSymbol = symbol();\n  }\n\n  function setBaseURI( string memory baseURI ) public onlyOwner {\n    _setBaseURI(baseURI);\n  }\n\n  // mint a new crypto boy\n  function adminMintCroSkull(address[] memory  _to) onlyOwner external {\n    for (uint256 i = 0; i <= _to.length - 1; i++) {\n      potionsCounter++;\n      require(!_exists(potionsCounter));\n      _mint(_to[i], potionsCounter);\n    }\n  }\n\n  function getOwner() public view returns(address) {\n    return owner;\n  }\n\n  function getTokenOwner(uint256 _tokenId) public view returns(address) {\n    address _tokenOwner = ownerOf(_tokenId);\n    return _tokenOwner;\n  }\n\n  function getTokenMetaData(uint _tokenId) public view returns(string memory) {\n    string memory tokenMetaData = tokenURI(_tokenId);\n    return tokenMetaData;\n  }\n\n  function getNumberOfTokensMinted() public view returns(uint256) {\n    uint256 totalNumberOfTokensMinted = totalSupply();\n    return totalNumberOfTokensMinted;\n  }\n\n  function getTotalNumberOfTokensOwnedByAnAddress(address _owner) public view returns(uint256) {\n    uint256 totalNumberOfTokensOwned = balanceOf(_owner);\n    return totalNumberOfTokensOwned;\n  }\n\n  function getTokenExists(uint256 _tokenId) public view returns(bool) {\n    bool tokenExists = _exists(_tokenId);\n    return tokenExists;\n  }\n}",
  "sourcePath": "/Users/alessandrodecristofaro/Desktop/DeFi Code/cryptoboys-nft-marketplace/src/contracts/RedPostions.sol",
  "compiler": {
    "name": "solc",
    "version": "0.8.11+commit.d7f03943.Emscripten.clang"
  },
  "schemaVersion": "3.4.3",
  "updatedAt": "2022-02-02T15:51:14.160Z",
  "devdoc": {
    "kind": "dev",
    "methods": {
      "approve(address,uint256)": {
        "details": "See {IERC721-approve}."
      },
      "balanceOf(address)": {
        "details": "See {IERC721-balanceOf}."
      },
      "baseURI()": {
        "details": "Returns the base URI set via {_setBaseURI}. This will be automatically added as a prefix in {tokenURI} to each token's URI, or to the token ID if no specific URI is set for that token ID."
      },
      "getApproved(uint256)": {
        "details": "See {IERC721-getApproved}."
      },
      "isApprovedForAll(address,address)": {
        "details": "See {IERC721-isApprovedForAll}."
      },
      "name()": {
        "details": "See {IERC721Metadata-name}."
      },
      "ownerOf(uint256)": {
        "details": "See {IERC721-ownerOf}."
      },
      "safeTransferFrom(address,address,uint256)": {
        "details": "See {IERC721-safeTransferFrom}."
      },
      "safeTransferFrom(address,address,uint256,bytes)": {
        "details": "See {IERC721-safeTransferFrom}."
      },
      "setApprovalForAll(address,bool)": {
        "details": "See {IERC721-setApprovalForAll}."
      },
      "supportsInterface(bytes4)": {
        "details": "See {IERC165-supportsInterface}. Time complexity O(1), guaranteed to always use less than 30 000 gas."
      },
      "symbol()": {
        "details": "See {IERC721Metadata-symbol}."
      },
      "tokenByIndex(uint256)": {
        "details": "See {IERC721Enumerable-tokenByIndex}."
      },
      "tokenOfOwnerByIndex(address,uint256)": {
        "details": "See {IERC721Enumerable-tokenOfOwnerByIndex}."
      },
      "tokenURI(uint256)": {
        "details": "See {IERC721Metadata-tokenURI}."
      },
      "totalSupply()": {
        "details": "See {IERC721Enumerable-totalSupply}."
      },
      "transferFrom(address,address,uint256)": {
        "details": "See {IERC721-transferFrom}."
      }
    },
    "version": 1
  },
  "userdoc": {
    "kind": "user",
    "methods": {},
    "version": 1
  }
}