{
    "_format": "hh-sol-artifact-1",
    "contractName": "ERC721evo",
    "sourceName": "contracts/ERC721evo.sol",
    "abi": [
        {
            "inputs": [
                {
                    "internalType": "contract IERC721",
                    "name": "_baseNft",
                    "type": "address"
                },
                {
                    "internalType": "contract IERC721",
                    "name": "_upgradeNft",
                    "type": "address"
                },
                {
                    "internalType": "contract IERC20Burnable",
                    "name": "_experienceToken",
                    "type": "address"
                },
                {
                    "internalType": "contract IERC20Burnable",
                    "name": "_levelerToken",
                    "type": "address"
                },
                {
                    "internalType": "contract IERC20Burnable",
                    "name": "_rewardToken",
                    "type": "address"
                },
                {
                    "internalType": "string",
                    "name": "_tokenName",
                    "type": "string"
                },
                {
                    "internalType": "string",
                    "name": "_tokenSymbol",
                    "type": "string"
                }
            ],
            "stateMutability": "nonpayable",
            "type": "constructor"
        },
        {
            "anonymous": false,
            "inputs": [
                {
                    "indexed": true,
                    "internalType": "address",
                    "name": "owner",
                    "type": "address"
                },
                {
                    "indexed": true,
                    "internalType": "address",
                    "name": "approved",
                    "type": "address"
                },
                {
                    "indexed": true,
                    "internalType": "uint256",
                    "name": "tokenId",
                    "type": "uint256"
                }
            ],
            "name": "Approval",
            "type": "event"
        },
        {
            "anonymous": false,
            "inputs": [
                {
                    "indexed": true,
                    "internalType": "address",
                    "name": "owner",
                    "type": "address"
                },
                {
                    "indexed": true,
                    "internalType": "address",
                    "name": "operator",
                    "type": "address"
                },
                {
                    "indexed": false,
                    "internalType": "bool",
                    "name": "approved",
                    "type": "bool"
                }
            ],
            "name": "ApprovalForAll",
            "type": "event"
        },
        {
            "anonymous": false,
            "inputs": [
                {
                    "indexed": true,
                    "internalType": "uint256",
                    "name": "tokenWinner",
                    "type": "uint256"
                },
                {
                    "indexed": true,
                    "internalType": "uint256",
                    "name": "tokenLoser",
                    "type": "uint256"
                }
            ],
            "name": "EvoBattle",
            "type": "event"
        },
        {
            "anonymous": false,
            "inputs": [
                {
                    "indexed": true,
                    "internalType": "uint256",
                    "name": "tokenId",
                    "type": "uint256"
                },
                {
                    "indexed": false,
                    "internalType": "uint256",
                    "name": "unfreezeTimestamp",
                    "type": "uint256"
                }
            ],
            "name": "EvoFreezeMalus",
            "type": "event"
        },
        {
            "anonymous": false,
            "inputs": [
                {
                    "indexed": true,
                    "internalType": "uint256",
                    "name": "tokenId",
                    "type": "uint256"
                },
                {
                    "indexed": false,
                    "internalType": "uint256",
                    "name": "stamina",
                    "type": "uint256"
                }
            ],
            "name": "EvoHungryMalus",
            "type": "event"
        },
        {
            "anonymous": false,
            "inputs": [
                {
                    "indexed": true,
                    "internalType": "uint256",
                    "name": "tokenId",
                    "type": "uint256"
                },
                {
                    "indexed": false,
                    "internalType": "uint256",
                    "name": "level",
                    "type": "uint256"
                },
                {
                    "indexed": false,
                    "internalType": "uint256",
                    "name": "timestamp",
                    "type": "uint256"
                }
            ],
            "name": "EvoLevelUp",
            "type": "event"
        },
        {
            "anonymous": false,
            "inputs": [
                {
                    "indexed": true,
                    "internalType": "uint256",
                    "name": "tokenId",
                    "type": "uint256"
                },
                {
                    "indexed": false,
                    "internalType": "uint256",
                    "name": "timestamp",
                    "type": "uint256"
                }
            ],
            "name": "EvoOutOfStamina",
            "type": "event"
        },
        {
            "anonymous": false,
            "inputs": [
                {
                    "indexed": true,
                    "internalType": "uint256",
                    "name": "tokenId",
                    "type": "uint256"
                },
                {
                    "indexed": false,
                    "internalType": "uint256",
                    "name": "power",
                    "type": "uint256"
                }
            ],
            "name": "EvoSadMalus",
            "type": "event"
        },
        {
            "anonymous": false,
            "inputs": [
                {
                    "indexed": true,
                    "internalType": "uint256",
                    "name": "tokenId",
                    "type": "uint256"
                },
                {
                    "indexed": false,
                    "internalType": "uint256",
                    "name": "power",
                    "type": "uint256"
                },
                {
                    "indexed": false,
                    "internalType": "address",
                    "name": "owner",
                    "type": "address"
                },
                {
                    "indexed": false,
                    "internalType": "uint256",
                    "name": "timestamp",
                    "type": "uint256"
                }
            ],
            "name": "Evocation",
            "type": "event"
        },
        {
            "anonymous": false,
            "inputs": [
                {
                    "indexed": true,
                    "internalType": "uint256",
                    "name": "tokenId",
                    "type": "uint256"
                },
                {
                    "indexed": false,
                    "internalType": "address",
                    "name": "owner",
                    "type": "address"
                },
                {
                    "indexed": false,
                    "internalType": "uint256",
                    "name": "amount",
                    "type": "uint256"
                }
            ],
            "name": "RewardClaim",
            "type": "event"
        },
        {
            "anonymous": false,
            "inputs": [
                {
                    "indexed": true,
                    "internalType": "bytes32",
                    "name": "role",
                    "type": "bytes32"
                },
                {
                    "indexed": true,
                    "internalType": "bytes32",
                    "name": "previousAdminRole",
                    "type": "bytes32"
                },
                {
                    "indexed": true,
                    "internalType": "bytes32",
                    "name": "newAdminRole",
                    "type": "bytes32"
                }
            ],
            "name": "RoleAdminChanged",
            "type": "event"
        },
        {
            "anonymous": false,
            "inputs": [
                {
                    "indexed": true,
                    "internalType": "bytes32",
                    "name": "role",
                    "type": "bytes32"
                },
                {
                    "indexed": true,
                    "internalType": "address",
                    "name": "account",
                    "type": "address"
                },
                {
                    "indexed": true,
                    "internalType": "address",
                    "name": "sender",
                    "type": "address"
                }
            ],
            "name": "RoleGranted",
            "type": "event"
        },
        {
            "anonymous": false,
            "inputs": [
                {
                    "indexed": true,
                    "internalType": "bytes32",
                    "name": "role",
                    "type": "bytes32"
                },
                {
                    "indexed": true,
                    "internalType": "address",
                    "name": "account",
                    "type": "address"
                },
                {
                    "indexed": true,
                    "internalType": "address",
                    "name": "sender",
                    "type": "address"
                }
            ],
            "name": "RoleRevoked",
            "type": "event"
        },
        {
            "anonymous": false,
            "inputs": [
                {
                    "indexed": true,
                    "internalType": "address",
                    "name": "from",
                    "type": "address"
                },
                {
                    "indexed": true,
                    "internalType": "address",
                    "name": "to",
                    "type": "address"
                },
                {
                    "indexed": true,
                    "internalType": "uint256",
                    "name": "tokenId",
                    "type": "uint256"
                }
            ],
            "name": "Transfer",
            "type": "event"
        },
        {
            "inputs": [],
            "name": "DEFAULT_ADMIN_ROLE",
            "outputs": [
                {
                    "internalType": "bytes32",
                    "name": "",
                    "type": "bytes32"
                }
            ],
            "stateMutability": "view",
            "type": "function"
        },
        {
            "inputs": [],
            "name": "HEALER_ROLE",
            "outputs": [
                {
                    "internalType": "bytes32",
                    "name": "",
                    "type": "bytes32"
                }
            ],
            "stateMutability": "view",
            "type": "function"
        },
        {
            "inputs": [],
            "name": "MINTER_ROLE",
            "outputs": [
                {
                    "internalType": "bytes32",
                    "name": "",
                    "type": "bytes32"
                }
            ],
            "stateMutability": "view",
            "type": "function"
        },
        {
            "inputs": [],
            "name": "PVP_ROLE",
            "outputs": [
                {
                    "internalType": "bytes32",
                    "name": "",
                    "type": "bytes32"
                }
            ],
            "stateMutability": "view",
            "type": "function"
        },
        {
            "inputs": [],
            "name": "UPGRADER_ROLE",
            "outputs": [
                {
                    "internalType": "bytes32",
                    "name": "",
                    "type": "bytes32"
                }
            ],
            "stateMutability": "view",
            "type": "function"
        },
        {
            "inputs": [
                {
                    "internalType": "uint256",
                    "name": "_tokenId",
                    "type": "uint256"
                },
                {
                    "internalType": "uint256",
                    "name": "_amount",
                    "type": "uint256"
                }
            ],
            "name": "addExperience",
            "outputs": [],
            "stateMutability": "nonpayable",
            "type": "function"
        },
        {
            "inputs": [
                {
                    "internalType": "address",
                    "name": "to",
                    "type": "address"
                },
                {
                    "internalType": "uint256",
                    "name": "tokenId",
                    "type": "uint256"
                }
            ],
            "name": "approve",
            "outputs": [],
            "stateMutability": "nonpayable",
            "type": "function"
        },
        {
            "inputs": [
                {
                    "internalType": "address",
                    "name": "owner",
                    "type": "address"
                }
            ],
            "name": "balanceOf",
            "outputs": [
                {
                    "internalType": "uint256",
                    "name": "",
                    "type": "uint256"
                }
            ],
            "stateMutability": "view",
            "type": "function"
        },
        {
            "inputs": [],
            "name": "baseNft",
            "outputs": [
                {
                    "internalType": "contract IERC721",
                    "name": "",
                    "type": "address"
                }
            ],
            "stateMutability": "view",
            "type": "function"
        },
        {
            "inputs": [],
            "name": "baseStamina",
            "outputs": [
                {
                    "internalType": "uint256",
                    "name": "",
                    "type": "uint256"
                }
            ],
            "stateMutability": "view",
            "type": "function"
        },
        {
            "inputs": [
                {
                    "internalType": "uint256",
                    "name": "_tokenId",
                    "type": "uint256"
                }
            ],
            "name": "claimRewards",
            "outputs": [],
            "stateMutability": "nonpayable",
            "type": "function"
        },
        {
            "inputs": [],
            "name": "decimals",
            "outputs": [
                {
                    "internalType": "uint256",
                    "name": "",
                    "type": "uint256"
                }
            ],
            "stateMutability": "view",
            "type": "function"
        },
        {
            "inputs": [
                {
                    "internalType": "uint256",
                    "name": "_baseTokenId",
                    "type": "uint256"
                },
                {
                    "internalType": "uint256",
                    "name": "_upgradeNftId",
                    "type": "uint256"
                },
                {
                    "internalType": "string",
                    "name": "_ipfsUri",
                    "type": "string"
                }
            ],
            "name": "evocation",
            "outputs": [],
            "stateMutability": "nonpayable",
            "type": "function"
        },
        {
            "inputs": [],
            "name": "experienceToken",
            "outputs": [
                {
                    "internalType": "contract IERC20Burnable",
                    "name": "",
                    "type": "address"
                }
            ],
            "stateMutability": "view",
            "type": "function"
        },
        {
            "inputs": [],
            "name": "freezeInterval",
            "outputs": [
                {
                    "internalType": "uint256",
                    "name": "",
                    "type": "uint256"
                }
            ],
            "stateMutability": "view",
            "type": "function"
        },
        {
            "inputs": [
                {
                    "internalType": "uint256",
                    "name": "tokenId",
                    "type": "uint256"
                }
            ],
            "name": "getApproved",
            "outputs": [
                {
                    "internalType": "address",
                    "name": "",
                    "type": "address"
                }
            ],
            "stateMutability": "view",
            "type": "function"
        },
        {
            "inputs": [
                {
                    "internalType": "bytes32",
                    "name": "role",
                    "type": "bytes32"
                }
            ],
            "name": "getRoleAdmin",
            "outputs": [
                {
                    "internalType": "bytes32",
                    "name": "",
                    "type": "bytes32"
                }
            ],
            "stateMutability": "view",
            "type": "function"
        },
        {
            "inputs": [
                {
                    "internalType": "uint256",
                    "name": "_tokenId",
                    "type": "uint256"
                }
            ],
            "name": "getToken",
            "outputs": [
                {
                    "components": [
                        {
                            "internalType": "bool",
                            "name": "sad",
                            "type": "bool"
                        },
                        {
                            "internalType": "bool",
                            "name": "hungry",
                            "type": "bool"
                        },
                        {
                            "internalType": "uint256",
                            "name": "unfreezeBlock",
                            "type": "uint256"
                        },
                        {
                            "internalType": "uint256",
                            "name": "stamina",
                            "type": "uint256"
                        },
                        {
                            "internalType": "uint256",
                            "name": "level",
                            "type": "uint256"
                        },
                        {
                            "internalType": "uint256",
                            "name": "experience",
                            "type": "uint256"
                        },
                        {
                            "internalType": "uint256",
                            "name": "influence",
                            "type": "uint256"
                        },
                        {
                            "internalType": "uint256",
                            "name": "win",
                            "type": "uint256"
                        },
                        {
                            "internalType": "uint256",
                            "name": "lose",
                            "type": "uint256"
                        },
                        {
                            "internalType": "uint256",
                            "name": "power",
                            "type": "uint256"
                        },
                        {
                            "internalType": "uint256",
                            "name": "charisma",
                            "type": "uint256"
                        },
                        {
                            "internalType": "uint256",
                            "name": "strength",
                            "type": "uint256"
                        },
                        {
                            "internalType": "uint256",
                            "name": "dexterity",
                            "type": "uint256"
                        },
                        {
                            "internalType": "uint256",
                            "name": "constitution",
                            "type": "uint256"
                        },
                        {
                            "internalType": "uint256",
                            "name": "intelligence",
                            "type": "uint256"
                        },
                        {
                            "internalType": "uint256",
                            "name": "wisdom",
                            "type": "uint256"
                        },
                        {
                            "internalType": "uint256",
                            "name": "lastActionBlock",
                            "type": "uint256"
                        },
                        {
                            "internalType": "uint256",
                            "name": "lastClaimTimestamp",
                            "type": "uint256"
                        }
                    ],
                    "internalType": "struct ERC721evo.EvoToken",
                    "name": "currentToken",
                    "type": "tuple"
                },
                {
                    "internalType": "string",
                    "name": "tokenIPFS",
                    "type": "string"
                },
                {
                    "internalType": "bool",
                    "name": "isLevelable",
                    "type": "bool"
                },
                {
                    "internalType": "uint256",
                    "name": "nextLvlExp",
                    "type": "uint256"
                },
                {
                    "internalType": "bool",
                    "name": "isUsable",
                    "type": "bool"
                },
                {
                    "internalType": "bool",
                    "name": "isClaimable",
                    "type": "bool"
                }
            ],
            "stateMutability": "view",
            "type": "function"
        },
        {
            "inputs": [
                {
                    "internalType": "uint256",
                    "name": "_tokenId",
                    "type": "uint256"
                }
            ],
            "name": "getUpgradeCost",
            "outputs": [
                {
                    "internalType": "uint256",
                    "name": "upgradeCost",
                    "type": "uint256"
                }
            ],
            "stateMutability": "view",
            "type": "function"
        },
        {
            "inputs": [
                {
                    "internalType": "bytes32",
                    "name": "role",
                    "type": "bytes32"
                },
                {
                    "internalType": "address",
                    "name": "account",
                    "type": "address"
                }
            ],
            "name": "grantRole",
            "outputs": [],
            "stateMutability": "nonpayable",
            "type": "function"
        },
        {
            "inputs": [
                {
                    "internalType": "bytes32",
                    "name": "role",
                    "type": "bytes32"
                },
                {
                    "internalType": "address",
                    "name": "account",
                    "type": "address"
                }
            ],
            "name": "hasRole",
            "outputs": [
                {
                    "internalType": "bool",
                    "name": "",
                    "type": "bool"
                }
            ],
            "stateMutability": "view",
            "type": "function"
        },
        {
            "inputs": [],
            "name": "healInterval",
            "outputs": [
                {
                    "internalType": "uint256",
                    "name": "",
                    "type": "uint256"
                }
            ],
            "stateMutability": "view",
            "type": "function"
        },
        {
            "inputs": [
                {
                    "internalType": "uint256",
                    "name": "_tokenId",
                    "type": "uint256"
                }
            ],
            "name": "healerRemoveFreeze",
            "outputs": [],
            "stateMutability": "nonpayable",
            "type": "function"
        },
        {
            "inputs": [
                {
                    "internalType": "uint256",
                    "name": "_tokenId",
                    "type": "uint256"
                }
            ],
            "name": "healerRemoveHungry",
            "outputs": [],
            "stateMutability": "nonpayable",
            "type": "function"
        },
        {
            "inputs": [
                {
                    "internalType": "uint256",
                    "name": "_tokenId",
                    "type": "uint256"
                }
            ],
            "name": "healerRemoveSad",
            "outputs": [],
            "stateMutability": "nonpayable",
            "type": "function"
        },
        {
            "inputs": [
                {
                    "internalType": "uint256",
                    "name": "_tokenId",
                    "type": "uint256"
                }
            ],
            "name": "healerRestoreStamina",
            "outputs": [],
            "stateMutability": "nonpayable",
            "type": "function"
        },
        {
            "inputs": [
                {
                    "internalType": "address",
                    "name": "owner",
                    "type": "address"
                },
                {
                    "internalType": "address",
                    "name": "operator",
                    "type": "address"
                }
            ],
            "name": "isApprovedForAll",
            "outputs": [
                {
                    "internalType": "bool",
                    "name": "",
                    "type": "bool"
                }
            ],
            "stateMutability": "view",
            "type": "function"
        },
        {
            "inputs": [
                {
                    "internalType": "uint256",
                    "name": "_tokenId",
                    "type": "uint256"
                }
            ],
            "name": "levelUp",
            "outputs": [],
            "stateMutability": "nonpayable",
            "type": "function"
        },
        {
            "inputs": [],
            "name": "levelerToken",
            "outputs": [
                {
                    "internalType": "contract IERC20Burnable",
                    "name": "",
                    "type": "address"
                }
            ],
            "stateMutability": "view",
            "type": "function"
        },
        {
            "inputs": [],
            "name": "maxLevel",
            "outputs": [
                {
                    "internalType": "uint256",
                    "name": "",
                    "type": "uint256"
                }
            ],
            "stateMutability": "view",
            "type": "function"
        },
        {
            "inputs": [],
            "name": "maxSupply",
            "outputs": [
                {
                    "internalType": "uint256",
                    "name": "",
                    "type": "uint256"
                }
            ],
            "stateMutability": "view",
            "type": "function"
        },
        {
            "inputs": [],
            "name": "name",
            "outputs": [
                {
                    "internalType": "string",
                    "name": "",
                    "type": "string"
                }
            ],
            "stateMutability": "view",
            "type": "function"
        },
        {
            "inputs": [
                {
                    "internalType": "address",
                    "name": "",
                    "type": "address"
                },
                {
                    "internalType": "address",
                    "name": "",
                    "type": "address"
                },
                {
                    "internalType": "uint256",
                    "name": "",
                    "type": "uint256"
                },
                {
                    "internalType": "bytes",
                    "name": "",
                    "type": "bytes"
                }
            ],
            "name": "onERC721Received",
            "outputs": [
                {
                    "internalType": "bytes4",
                    "name": "",
                    "type": "bytes4"
                }
            ],
            "stateMutability": "nonpayable",
            "type": "function"
        },
        {
            "inputs": [
                {
                    "internalType": "uint256",
                    "name": "tokenId",
                    "type": "uint256"
                }
            ],
            "name": "ownerOf",
            "outputs": [
                {
                    "internalType": "address",
                    "name": "",
                    "type": "address"
                }
            ],
            "stateMutability": "view",
            "type": "function"
        },
        {
            "inputs": [
                {
                    "internalType": "uint256",
                    "name": "_tokenId",
                    "type": "uint256"
                }
            ],
            "name": "pvpAssignFreeze",
            "outputs": [],
            "stateMutability": "nonpayable",
            "type": "function"
        },
        {
            "inputs": [
                {
                    "internalType": "uint256",
                    "name": "_tokenId",
                    "type": "uint256"
                }
            ],
            "name": "pvpAssignHungry",
            "outputs": [],
            "stateMutability": "nonpayable",
            "type": "function"
        },
        {
            "inputs": [
                {
                    "internalType": "uint256",
                    "name": "_tokenId",
                    "type": "uint256"
                }
            ],
            "name": "pvpAssignLose",
            "outputs": [],
            "stateMutability": "nonpayable",
            "type": "function"
        },
        {
            "inputs": [
                {
                    "internalType": "uint256",
                    "name": "_tokenId",
                    "type": "uint256"
                }
            ],
            "name": "pvpAssignSad",
            "outputs": [],
            "stateMutability": "nonpayable",
            "type": "function"
        },
        {
            "inputs": [
                {
                    "internalType": "uint256",
                    "name": "_tokenId",
                    "type": "uint256"
                }
            ],
            "name": "pvpAssignWin",
            "outputs": [],
            "stateMutability": "nonpayable",
            "type": "function"
        },
        {
            "inputs": [
                {
                    "internalType": "uint256",
                    "name": "_tokenIdWin",
                    "type": "uint256"
                },
                {
                    "internalType": "uint256",
                    "name": "_tokenIdLose",
                    "type": "uint256"
                },
                {
                    "internalType": "bool",
                    "name": "_isMalus",
                    "type": "bool"
                }
            ],
            "name": "pvpHandleBattle",
            "outputs": [],
            "stateMutability": "nonpayable",
            "type": "function"
        },
        {
            "inputs": [
                {
                    "internalType": "bytes32",
                    "name": "role",
                    "type": "bytes32"
                },
                {
                    "internalType": "address",
                    "name": "account",
                    "type": "address"
                }
            ],
            "name": "renounceRole",
            "outputs": [],
            "stateMutability": "nonpayable",
            "type": "function"
        },
        {
            "inputs": [
                {
                    "internalType": "bytes32",
                    "name": "role",
                    "type": "bytes32"
                },
                {
                    "internalType": "address",
                    "name": "account",
                    "type": "address"
                }
            ],
            "name": "revokeRole",
            "outputs": [],
            "stateMutability": "nonpayable",
            "type": "function"
        },
        {
            "inputs": [],
            "name": "rewardToken",
            "outputs": [
                {
                    "internalType": "contract IERC20Burnable",
                    "name": "",
                    "type": "address"
                }
            ],
            "stateMutability": "view",
            "type": "function"
        },
        {
            "inputs": [],
            "name": "rewardsPerDay",
            "outputs": [
                {
                    "internalType": "uint256",
                    "name": "",
                    "type": "uint256"
                }
            ],
            "stateMutability": "view",
            "type": "function"
        },
        {
            "inputs": [
                {
                    "internalType": "address",
                    "name": "from",
                    "type": "address"
                },
                {
                    "internalType": "address",
                    "name": "to",
                    "type": "address"
                },
                {
                    "internalType": "uint256",
                    "name": "tokenId",
                    "type": "uint256"
                }
            ],
            "name": "safeTransferFrom",
            "outputs": [],
            "stateMutability": "nonpayable",
            "type": "function"
        },
        {
            "inputs": [
                {
                    "internalType": "address",
                    "name": "from",
                    "type": "address"
                },
                {
                    "internalType": "address",
                    "name": "to",
                    "type": "address"
                },
                {
                    "internalType": "uint256",
                    "name": "tokenId",
                    "type": "uint256"
                },
                {
                    "internalType": "bytes",
                    "name": "_data",
                    "type": "bytes"
                }
            ],
            "name": "safeTransferFrom",
            "outputs": [],
            "stateMutability": "nonpayable",
            "type": "function"
        },
        {
            "inputs": [
                {
                    "internalType": "address",
                    "name": "operator",
                    "type": "address"
                },
                {
                    "internalType": "bool",
                    "name": "approved",
                    "type": "bool"
                }
            ],
            "name": "setApprovalForAll",
            "outputs": [],
            "stateMutability": "nonpayable",
            "type": "function"
        },
        {
            "inputs": [
                {
                    "internalType": "uint256",
                    "name": "_baseStamina",
                    "type": "uint256"
                }
            ],
            "name": "setBaseStamina",
            "outputs": [],
            "stateMutability": "nonpayable",
            "type": "function"
        },
        {
            "inputs": [
                {
                    "internalType": "uint256",
                    "name": "_freezeInterval",
                    "type": "uint256"
                }
            ],
            "name": "setFreezeInterval",
            "outputs": [],
            "stateMutability": "nonpayable",
            "type": "function"
        },
        {
            "inputs": [
                {
                    "internalType": "uint256",
                    "name": "_healInterval",
                    "type": "uint256"
                }
            ],
            "name": "setHealInterval",
            "outputs": [],
            "stateMutability": "nonpayable",
            "type": "function"
        },
        {
            "inputs": [
                {
                    "internalType": "uint256",
                    "name": "_maxLevel",
                    "type": "uint256"
                }
            ],
            "name": "setMaxLevel",
            "outputs": [],
            "stateMutability": "nonpayable",
            "type": "function"
        },
        {
            "inputs": [
                {
                    "internalType": "uint256",
                    "name": "_tokenId",
                    "type": "uint256"
                },
                {
                    "internalType": "string",
                    "name": "_ipfsURI",
                    "type": "string"
                }
            ],
            "name": "setTokenURI",
            "outputs": [],
            "stateMutability": "nonpayable",
            "type": "function"
        },
        {
            "inputs": [
                {
                    "internalType": "bytes4",
                    "name": "interfaceId",
                    "type": "bytes4"
                }
            ],
            "name": "supportsInterface",
            "outputs": [
                {
                    "internalType": "bool",
                    "name": "",
                    "type": "bool"
                }
            ],
            "stateMutability": "view",
            "type": "function"
        },
        {
            "inputs": [],
            "name": "symbol",
            "outputs": [
                {
                    "internalType": "string",
                    "name": "",
                    "type": "string"
                }
            ],
            "stateMutability": "view",
            "type": "function"
        },
        {
            "inputs": [
                {
                    "internalType": "uint256",
                    "name": "index",
                    "type": "uint256"
                }
            ],
            "name": "tokenByIndex",
            "outputs": [
                {
                    "internalType": "uint256",
                    "name": "",
                    "type": "uint256"
                }
            ],
            "stateMutability": "view",
            "type": "function"
        },
        {
            "inputs": [
                {
                    "internalType": "address",
                    "name": "owner",
                    "type": "address"
                },
                {
                    "internalType": "uint256",
                    "name": "index",
                    "type": "uint256"
                }
            ],
            "name": "tokenOfOwnerByIndex",
            "outputs": [
                {
                    "internalType": "uint256",
                    "name": "",
                    "type": "uint256"
                }
            ],
            "stateMutability": "view",
            "type": "function"
        },
        {
            "inputs": [
                {
                    "internalType": "uint256",
                    "name": "tokenId",
                    "type": "uint256"
                }
            ],
            "name": "tokenURI",
            "outputs": [
                {
                    "internalType": "string",
                    "name": "",
                    "type": "string"
                }
            ],
            "stateMutability": "view",
            "type": "function"
        },
        {
            "inputs": [],
            "name": "totalSupply",
            "outputs": [
                {
                    "internalType": "uint256",
                    "name": "",
                    "type": "uint256"
                }
            ],
            "stateMutability": "view",
            "type": "function"
        },
        {
            "inputs": [
                {
                    "internalType": "address",
                    "name": "from",
                    "type": "address"
                },
                {
                    "internalType": "address",
                    "name": "to",
                    "type": "address"
                },
                {
                    "internalType": "uint256",
                    "name": "tokenId",
                    "type": "uint256"
                }
            ],
            "name": "transferFrom",
            "outputs": [],
            "stateMutability": "nonpayable",
            "type": "function"
        },
        {
            "inputs": [],
            "name": "upgradeNft",
            "outputs": [
                {
                    "internalType": "contract IERC721",
                    "name": "",
                    "type": "address"
                }
            ],
            "stateMutability": "view",
            "type": "function"
        },
        {
            "inputs": [
                {
                    "internalType": "uint256",
                    "name": "_tokenId",
                    "type": "uint256"
                },
                {
                    "internalType": "uint256",
                    "name": "_amount",
                    "type": "uint256"
                }
            ],
            "name": "upgraderAddExperience",
            "outputs": [],
            "stateMutability": "nonpayable",
            "type": "function"
        }
    ],
    "bytecode": "0x6080604052670de0b6b3a7640000600c556013805460ff1916905561014d601455600a6015819055610190601655612580601755601855677ce66c50e28400006019553480156200004f57600080fd5b5060405162004f3038038062004f30833981016040819052620000729162000342565b8151829082906200008b906000906020850190620001e9565b508051620000a1906001906020840190620001e9565b50620000b39150600090503362000144565b620000df7f9f2df0fed2c77648de5860a4cc508cd0818c85b8b8a1ab4ceeef8d981c8956a63362000144565b5050600d80546001600160a01b03199081166001600160a01b0397881617909155600e8054821695871695909517909455600f805485169386169390931790925560108054841691851691909117905560118054909216921691909117905562000481565b6000828152600b602090815260408083206001600160a01b038516845290915290205460ff16620001e5576000828152600b602090815260408083206001600160a01b03851684529091529020805460ff19166001179055620001a43390565b6001600160a01b0316816001600160a01b0316837f2f8788117e7eff1d82e926ec794901d17c78024a50270940304540a733656f0d60405160405180910390a45b5050565b828054620001f79062000415565b90600052602060002090601f0160209004810192826200021b576000855562000266565b82601f106200023657805160ff191683800117855562000266565b8280016001018555821562000266579182015b828111156200026657825182559160200191906001019062000249565b506200027492915062000278565b5090565b5b8082111562000274576000815560010162000279565b600082601f830112620002a0578081fd5b81516001600160401b0380821115620002bd57620002bd62000452565b604051601f8301601f19908116603f01168101908282118183101715620002e857620002e862000452565b8160405283815260209250868385880101111562000304578485fd5b8491505b8382101562000327578582018301518183018401529082019062000308565b838211156200033857848385830101525b9695505050505050565b600080600080600080600060e0888a0312156200035d578283fd5b87516200036a8162000468565b60208901519097506200037d8162000468565b6040890151909650620003908162000468565b6060890151909550620003a38162000468565b6080890151909450620003b68162000468565b60a08901519093506001600160401b0380821115620003d3578384fd5b620003e18b838c016200028f565b935060c08a0151915080821115620003f7578283fd5b50620004068a828b016200028f565b91505092959891949750929550565b600181811c908216806200042a57607f821691505b602082108114156200044c57634e487b7160e01b600052602260045260246000fd5b50919050565b634e487b7160e01b600052604160045260246000fd5b6001600160a01b03811681146200047e57600080fd5b50565b614a9f80620004916000396000f3fe608060405234801561001057600080fd5b50600436106103af5760003560e01c806363b13d7b116101f4578063b999bbcf1161011a578063d5abeb01116100ad578063e985e9c51161007c578063e985e9c514610816578063f72c0d8b14610852578063f7c618c114610879578063ff329e7c1461088c57600080fd5b8063d5abeb01146107cc578063d6ffbd96146107d5578063dd790bcc146107de578063e4b50cb8146107f157600080fd5b8063cc06c359116100e9578063cc06c35914610776578063d53913931461077f578063d547741f146107a6578063d597099f146107b957600080fd5b8063b999bbcf14610734578063bb1125e314610747578063c87b56dd1461075a578063c96cf3fd1461076d57600080fd5b8063981d2e7811610192578063a22cb46511610161578063a22cb465146106f2578063a803001614610705578063b2aca3e61461070e578063b88d4fde1461072157600080fd5b8063981d2e78146106af5780639af7e9c6146106c2578063a1694ffe146106d7578063a217fddf146106ea57600080fd5b80637233c7b8116101ce5780637233c7b81461067857806391d148541461068b578063958b1d571461069e57806395d89b41146106a757600080fd5b806363b13d7b1461063f5780636f9c89611461065257806370a082311461066557600080fd5b80632f2ff15d116102d957806341d995f2116102775780635c643e8f116102465780635c643e8f146105f35780635d240c58146106065780635e76dbd0146106195780636352211e1461062c57600080fd5b806341d995f2146105a557806342842e0e146105b8578063455d94d6146105cb5780634f6ccce7146105e057600080fd5b8063344f1ba5116102b3578063344f1ba51461055957806336568abe1461056c5780633a1937211461057f5780633cfe8c151461059257600080fd5b80632f2ff15d1461052a5780632f745c591461053d578063313ce5671461055057600080fd5b8063150b7a02116103515780631d048136116103205780631d048136146104ce57806323b872dd146104e1578063248a9ca3146104f45780632c87f2ff1461051757600080fd5b8063150b7a021461046a578063162094c41461049657806318160ddd146104a95780631a07585d146104bb57600080fd5b8063095ea7b31161038d578063095ea7b31461041c5780630962ef79146104315780630ce90ec2146104445780630cfed7191461045757600080fd5b806301ffc9a7146103b457806306fdde03146103dc578063081812fc146103f1575b600080fd5b6103c76103c2366004614327565b61089f565b60405190151581526020015b60405180910390f35b6103e46108b0565b6040516103d39190614566565b6104046103ff3660046142eb565b610942565b6040516001600160a01b0390911681526020016103d3565b61042f61042a3660046142a4565b6109cf565b005b61042f61043f3660046142eb565b610ae5565b61042f6104523660046142eb565b610ea8565b600d54610404906001600160a01b031681565b61047d6104783660046141fa565b6110af565b6040516001600160e01b031990911681526020016103d3565b61042f6104a4366004614377565b6110c0565b6008545b6040519081526020016103d3565b600f54610404906001600160a01b031681565b61042f6104dc3660046142eb565b61111a565b61042f6104ef3660046141ba565b611167565b6104ad6105023660046142eb565b6000908152600b602052604090206001015490565b61042f610525366004614415565b611198565b61042f610538366004614303565b611848565b6104ad61054b3660046142a4565b61186e565b6104ad600c5481565b61042f6105673660046142eb565b611904565b61042f61057a366004614303565b611950565b61042f61058d3660046142eb565b6119ce565b61042f6105a03660046142eb565b6119f0565b61042f6105b33660046142eb565b611a3d565b61042f6105c63660046141ba565b611a5f565b6104ad600080516020614a4a83398151915281565b6104ad6105ee3660046142eb565b611a7a565b61042f6106013660046142eb565b611b1b565b61042f6106143660046143bc565b611b4f565b61042f6106273660046143bc565b611d39565b61040461063a3660046142eb565b611df4565b61042f61064d3660046142eb565b611e6b565b61042f6106603660046143dd565b611eb5565b6104ad61067336600461414a565b611edf565b61042f6106863660046142eb565b611f66565b6103c7610699366004614303565b611f9e565b6104ad60165481565b6103e4611fc9565b61042f6106bd3660046142eb565b611fd8565b6104ad600080516020614a2a83398151915281565b61042f6106e53660046142eb565b612053565b6104ad600081565b61042f610700366004614277565b612075565b6104ad60175481565b61042f61071c3660046142eb565b612080565b61042f61072f3660046141fa565b6120ab565b600e54610404906001600160a01b031681565b61042f6107553660046142eb565b6120dd565b6103e46107683660046142eb565b612158565b6104ad60195481565b6104ad60155481565b6104ad7f9f2df0fed2c77648de5860a4cc508cd0818c85b8b8a1ab4ceeef8d981c8956a681565b61042f6107b4366004614303565b612163565b601054610404906001600160a01b031681565b6104ad60145481565b6104ad60185481565b61042f6107ec3660046142eb565b612189565b6108046107ff3660046142eb565b6121c2565b6040516103d396959493929190614698565b6103c7610824366004614182565b6001600160a01b03918216600090815260056020908152604080832093909416825291909152205460ff1690565b6104ad7f189ab7a9244df0848122154315af71fe140f3db0fe014031783b0946b8c9d2e381565b601154610404906001600160a01b031681565b6104ad61089a3660046142eb565b61228f565b60006108aa826122c0565b92915050565b6060600080546108bf90614941565b80601f01602080910402602001604051908101604052809291908181526020018280546108eb90614941565b80156109385780601f1061090d57610100808354040283529160200191610938565b820191906000526020600020905b81548152906001019060200180831161091b57829003601f168201915b5050505050905090565b600061094d826122e5565b6109b35760405162461bcd60e51b815260206004820152602c60248201527f4552433732313a20617070726f76656420717565727920666f72206e6f6e657860448201526b34b9ba32b73a103a37b5b2b760a11b60648201526084015b60405180910390fd5b506000908152600460205260409020546001600160a01b031690565b60006109da82611df4565b9050806001600160a01b0316836001600160a01b03161415610a485760405162461bcd60e51b815260206004820152602160248201527f4552433732313a20617070726f76616c20746f2063757272656e74206f776e656044820152603960f91b60648201526084016109aa565b336001600160a01b0382161480610a645750610a648133610824565b610ad65760405162461bcd60e51b815260206004820152603860248201527f4552433732313a20617070726f76652063616c6c6572206973206e6f74206f7760448201527f6e6572206e6f7220617070726f76656420666f7220616c6c000000000000000060648201526084016109aa565b610ae08383612302565b505050565b60135460ff1615610b085760405162461bcd60e51b81526004016109aa906145cb565b6013805460ff191660011790556040516331a9108f60e11b81526004810182905233903090636352211e9060240160206040518083038186803b158015610b4e57600080fd5b505afa158015610b62573d6000803e3d6000fd5b505050506040513d601f19601f82011682018060405250810190610b869190614166565b6001600160a01b031614610bac5760405162461bcd60e51b81526004016109aa9061460c565b6000610bb782612370565b905060008111610bef5760405162461bcd60e51b815260206004820152600360248201526252414360e81b60448201526064016109aa565b6000828152601a6020526040908190204260109091015560195460115491516370a0823160e01b815230600482015290916001600160a01b0316906370a082319060240160206040518083038186803b158015610c4b57600080fd5b505afa158015610c5f573d6000803e3d6000fd5b505050506040513d601f19601f82011682018060405250810190610c83919061435f565b1015610cb75760405162461bcd60e51b815260206004820152600360248201526249525760e81b60448201526064016109aa565b60115460195460405163a9059cbb60e01b815233600482015260248101919091526001600160a01b039091169063a9059cbb90604401602060405180830381600087803b158015610d0757600080fd5b505af1158015610d1b573d6000803e3d6000fd5b505050506040513d601f19601f82011682018060405250810190610d3f91906142cf565b50610d49826123bb565b600181118015610ddd5750610d5f8160016123f0565b6011546040516370a0823160e01b81523060048201526001600160a01b03909116906370a082319060240160206040518083038186803b158015610da257600080fd5b505afa158015610db6573d6000803e3d6000fd5b505050506040513d601f19601f82011682018060405250810190610dda919061435f565b10155b15610e5b576011546001600160a01b03166342966c68610e0a610e018460016123f0565b60195490612403565b6040518263ffffffff1660e01b8152600401610e2891815260200190565b600060405180830381600087803b158015610e4257600080fd5b505af1158015610e56573d6000803e3d6000fd5b505050505b60195460408051338152602081019290925283917ff8a016136ec23af173a9a6d969a9fa0582a5099a74e1b53d91328789f14577f3910160405180910390a250506013805460ff19169055565b60135460ff1615610ecb5760405162461bcd60e51b81526004016109aa906145cb565b6013805460ff191660011790556040516331a9108f60e11b81526004810182905233903090636352211e9060240160206040518083038186803b158015610f1157600080fd5b505afa158015610f25573d6000803e3d6000fd5b505050506040513d601f19601f82011682018060405250810190610f499190614166565b6001600160a01b031614610f6f5760405162461bcd60e51b81526004016109aa9061460c565b6000610f7a8261228f565b601054604051636eb1769f60e11b815233600482015230602482015291925082916001600160a01b039091169063dd62ed3e9060440160206040518083038186803b158015610fc857600080fd5b505afa158015610fdc573d6000803e3d6000fd5b505050506040513d601f19601f82011682018060405250810190611000919061435f565b10156110345760405162461bcd60e51b81526020600482015260036024820152624c544160e81b60448201526064016109aa565b60105460405163079cc67960e41b8152336004820152602481018390526001600160a01b03909116906379cc679090604401600060405180830381600087803b15801561108057600080fd5b505af1158015611094573d6000803e3d6000fd5b505050506110a18261240f565b50506013805460ff19169055565b630a85bd0160e11b5b949350505050565b60006110cc8133612702565b6000838152601a60205260409020600f01546111105760405162461bcd60e51b8152602060048201526003602482015262544e4560e81b60448201526064016109aa565b610ae08383612766565b60006111268133612702565b8160185414156111615760405162461bcd60e51b81526004016109aa9060208082526004908201526342534e5360e01b604082015260600190565b50601855565b61117133826127f1565b61118d5760405162461bcd60e51b81526004016109aa90614647565b610ae08383836128d7565b600d5460405163e985e9c560e01b81523360048201523060248201526001600160a01b0390911690819063e985e9c59060440160206040518083038186803b1580156111e357600080fd5b505afa1580156111f7573d6000803e3d6000fd5b505050506040513d601f19601f8201168201806040525081019061121b91906142cf565b61124f5760405162461bcd60e51b81526020600482015260056024820152643732314e4160d81b60448201526064016109aa565b600e5460405163e985e9c560e01b81523360048201523060248201526001600160a01b0390911690819063e985e9c59060440160206040518083038186803b15801561129a57600080fd5b505afa1580156112ae573d6000803e3d6000fd5b505050506040513d601f19601f820116820180604052508101906112d291906142cf565b6113065760405162461bcd60e51b81526020600482015260056024820152643732314e4160d81b60448201526064016109aa565b60135460ff16156113295760405162461bcd60e51b81526004016109aa906145cb565b6013805460ff19166001179055600061134160125490565b9050601454811061137a5760405162461bcd60e51b815260206004820152600360248201526226a9a960e91b60448201526064016109aa565b600d546040516331a9108f60e11b81526004810188905233916001600160a01b031690636352211e9060240160206040518083038186803b1580156113be57600080fd5b505afa1580156113d2573d6000803e3d6000fd5b505050506040513d601f19601f820116820180604052508101906113f69190614166565b6001600160a01b0316146114355760405162461bcd60e51b81526004016109aa90602080825260049082015263554e424f60e01b604082015260600190565b600e546040516331a9108f60e11b81526004810187905233916001600160a01b031690636352211e9060240160206040518083038186803b15801561147957600080fd5b505afa15801561148d573d6000803e3d6000fd5b505050506040513d601f19601f820116820180604052508101906114b19190614166565b6001600160a01b0316146114f05760405162461bcd60e51b81526004016109aa90602080825260049082015263554e554f60e01b604082015260600190565b600e54604051632142170760e11b8152336004820152306024820152604481018790526001600160a01b03909116906342842e0e90606401600060405180830381600087803b15801561154257600080fd5b505af1158015611556573d6000803e3d6000fd5b5050600e546040516331a9108f60e11b8152600481018990523093506001600160a01b039091169150636352211e9060240160206040518083038186803b1580156115a057600080fd5b505afa1580156115b4573d6000803e3d6000fd5b505050506040513d601f19601f820116820180604052508101906115d89190614166565b6001600160a01b0316146116175760405162461bcd60e51b81526004016109aa90602080825260049082015263434e554f60e01b604082015260600190565b611625601280546001019055565b600061163060125490565b905061163c3382612a7e565b6116468186612766565b61164e613f8d565b6000600561169c611660866004612403565b604080514360208083019190915242828401523360608301526080808301949094528251808303909401845260a0909101909152815191012090565b6116a69190614997565b60006080840181905260a0840152601854606084015261014083018190526005610160840181905261018084018190526101a084018190526101c084018190526101e084015242610220840152436102008401529050611707816019612a98565b61012083019081526000848152601a6020908152604091829020855181548388015161ffff1990911691151561ff00191691909117610100911515820217825583870151600183015560608088015160028401556080880151600384015560a0880151600484015560c0880151600584015560e088015160068401559087015160078301559351600882018190556101408701516009830155610160870151600a830155610180870151600b8301556101a0870151600c8301556101c0870151600d8301556101e0870151600e830155610200870151600f83015561022087015160109092019190915582519081523391810191909152429181019190915284917f59c7b48bb1e89e5310af528c6e8eb78c8e2d7b7f4d1881b5d6c9ab3e86a0fcd6910160405180910390a250506013805460ff1916905550505050505050565b6000828152600b60205260409020600101546118648133612702565b610ae08383612aa4565b600061187983611edf565b82106118db5760405162461bcd60e51b815260206004820152602b60248201527f455243373231456e756d657261626c653a206f776e657220696e646578206f7560448201526a74206f6620626f756e647360a81b60648201526084016109aa565b506001600160a01b03919091166000908152600660209081526040808320938352929052205490565b60006119108133612702565b601554821161194a5760405162461bcd60e51b81526004016109aa906020808252600490820152634c47544560e01b604082015260600190565b50601555565b6001600160a01b03811633146119c05760405162461bcd60e51b815260206004820152602f60248201527f416363657373436f6e74726f6c3a2063616e206f6e6c792072656e6f756e636560448201526e103937b632b9903337b91039b2b63360891b60648201526084016109aa565b6119ca8282612b2a565b5050565b600080516020614a4a8339815191526119e78133612702565b6119ca82612b91565b60006119fc8133612702565b816017541415611a375760405162461bcd60e51b81526004016109aa9060208082526004908201526346494e5360e01b604082015260600190565b50601755565b600080516020614a4a833981519152611a568133612702565b6119ca82612bec565b610ae0838383604051806020016040528060008152506120ab565b6000611a8560085490565b8210611ae85760405162461bcd60e51b815260206004820152602c60248201527f455243373231456e756d657261626c653a20676c6f62616c20696e646578206f60448201526b7574206f6620626f756e647360a01b60648201526084016109aa565b60088281548110611b0957634e487b7160e01b600052603260045260246000fd5b90600052602060002001549050919050565b600080516020614a2a833981519152611b348133612702565b6000828152601a60205260408120600101556119ca826123bb565b60135460ff1615611b725760405162461bcd60e51b81526004016109aa906145cb565b6013805460ff191660011790556040516331a9108f60e11b81526004810183905233903090636352211e9060240160206040518083038186803b158015611bb857600080fd5b505afa158015611bcc573d6000803e3d6000fd5b505050506040513d601f19601f82011682018060405250810190611bf09190614166565b6001600160a01b031614611c165760405162461bcd60e51b81526004016109aa9061460c565b600f54604051636eb1769f60e11b815233600482015230602482015282916001600160a01b03169063dd62ed3e9060440160206040518083038186803b158015611c5f57600080fd5b505afa158015611c73573d6000803e3d6000fd5b505050506040513d601f19601f82011682018060405250810190611c97919061435f565b1015611ccb5760405162461bcd60e51b815260206004820152600360248201526245544160e81b60448201526064016109aa565b600f5460405163079cc67960e41b8152336004820152602481018390526001600160a01b03909116906379cc679090604401600060405180830381600087803b158015611d1757600080fd5b505af1158015611d2b573d6000803e3d6000fd5b505050506110a18282612c30565b7f189ab7a9244df0848122154315af71fe140f3db0fe014031783b0946b8c9d2e3611d648133612702565b6001611d6f84612c60565b11611d8c5760405162461bcd60e51b81526004016109aa906145ee565b6000838152601a6020526040902060010154431015611dbd5760405162461bcd60e51b81526004016109aa9061462a565b611dc78383612c30565b6000838152601a6020526040812043600f820155600201805491611dea8361492a565b9190505550505050565b6000818152600260205260408120546001600160a01b0316806108aa5760405162461bcd60e51b815260206004820152602960248201527f4552433732313a206f776e657220717565727920666f72206e6f6e657869737460448201526832b73a103a37b5b2b760b91b60648201526084016109aa565b6000611e778133612702565b816016541415611eaf5760405162461bcd60e51b8152602060048201526003602482015262484e5360e81b60448201526064016109aa565b50601655565b600080516020614a4a833981519152611ece8133612702565b611ed9848484612cf0565b50505050565b60006001600160a01b038216611f4a5760405162461bcd60e51b815260206004820152602a60248201527f4552433732313a2062616c616e636520717565727920666f7220746865207a65604482015269726f206164647265737360b01b60648201526084016109aa565b506001600160a01b031660009081526003602052604090205490565b600080516020614a2a833981519152611f7f8133612702565b6000828152601a60205260409020805460ff191690556119ca826123bb565b6000918252600b602090815260408084206001600160a01b0393909316845291905290205460ff1690565b6060600180546108bf90614941565b600080516020614a4a833981519152611ff18133612702565b6001611ffc83612c60565b116120195760405162461bcd60e51b81526004016109aa906145ee565b6000828152601a602052604090206001015443101561204a5760405162461bcd60e51b81526004016109aa9061462a565b6119ca82612eaa565b600080516020614a4a83398151915261206c8133612702565b6119ca82612f4b565b6119ca338383612fa0565b600080516020614a2a8339815191526120998133612702565b6119ca826120a68461306f565b61308d565b6120b533836127f1565b6120d15760405162461bcd60e51b81526004016109aa90614647565b611ed984848484613102565b600080516020614a4a8339815191526120f68133612702565b600161210183612c60565b1161211e5760405162461bcd60e51b81526004016109aa906145ee565b6000828152601a602052604090206001015443101561214f5760405162461bcd60e51b81526004016109aa9061462a565b6119ca82613135565b60606108aa826131a7565b6000828152600b602052604090206001015461217f8133612702565b610ae08383612b2a565b600080516020614a2a8339815191526121a28133612702565b6000828152601a60205260409020805461ff00191690556119ca826123bb565b6121ca613f8d565b60606000806000806121db87613316565b95506121e687612158565b94506121f187613424565b6000888152601a602052604090206001015490945043108061221557506060860151155b612220576001612223565b60005b9150600060155487608001511061223b576000612241565b86608001515b90508660a0015161225182613486565b101561225e576000612275565b6122758760a0015161226f83613486565b906123f0565b9350600061228289612370565b1191505091939550919395565b600c546000828152601a602052604081206003015490916108aa916122ba90600a9082906001612a98565b90612403565b60006001600160e01b03198216637965db0b60e01b14806108aa57506108aa82613498565b6000908152600260205260409020546001600160a01b0316151590565b600081815260046020526040902080546001600160a01b0319166001600160a01b038416908117909155819061233782611df4565b6001600160a01b03167f8c5be1e5ebec7d5bd14f71427d1e84f3dd0314c0f7b2291e5b200ac8c7c3b92560405160405180910390a45050565b6000818152601a60205260408120601001548161238d42836123f0565b90506201518081106123b15760006123a882620151806134bd565b95945050505050565b5060009392505050565b60006123c6826134c9565b905080156119ca576123d8828261308d565b506000908152601a6020526040902043600f90910155565b60006123fc82846148e7565b9392505050565b60006123fc82846148c8565b6000818152601a6020908152604091829020825161024081018452815460ff8082161515835261010091829004161515938201939093526001820154938101939093526002810154606084015260038101546080840152600481015460a0840152600581015460c0840152600681015460e084015260078101549183019190915260088101546101208301526009810154610140830152600a810154610160830152600b810154610180830152600c8101546101a0830152600d8101546101c0830152600e8101546101e0830152600f810154610200830152601001546102208201526124fb82613424565b61252d5760405162461bcd60e51b815260206004820152600360248201526215139360ea1b60448201526064016109aa565b6080810180519061253d8261497c565b90525061014081018051906125518261497c565b90525061016081018051906125658261497c565b90525061018081018051906125798261497c565b9052506101a0810180519061258d8261497c565b9052506101c081018051906125a18261497c565b9052506101e081018051906125b58261497c565b81525050600681610120018181516125cd91906147b1565b90525060808101516018546125e191612a98565b606082019081526000838152601a6020908152604091829020845181548387015161ffff1990911691151561ff0019169190911761010091151582021782558386015160018301559351600282015560808501516003820181905560a0860151600483015560c0860151600583015560e0860151600683015593850151600782015561012085015160088201556101408501516009820155610160850151600a820155610180850151600b8201556101a0850151600c8201556101c0850151600d8201556101e0850151600e820155610200850151600f8201556102208501516010909101558151928352429083015283917fe1d3fc5f5089928f1481e78d7763c14b241ab61b580c7207e81a1e2ffaab374a910160405180910390a25050565b61270c8282611f9e565b6119ca57612724816001600160a01b03166014613516565b61272f836020613516565b6040516020016127409291906144be565b60408051601f198184030181529082905262461bcd60e51b82526109aa91600401614566565b61276f826122e5565b6127d25760405162461bcd60e51b815260206004820152602e60248201527f45524337323155524953746f726167653a2055524920736574206f66206e6f6e60448201526d32bc34b9ba32b73a103a37b5b2b760911b60648201526084016109aa565b6000828152600a602090815260409091208251610ae09284019061401c565b60006127fc826122e5565b61285d5760405162461bcd60e51b815260206004820152602c60248201527f4552433732313a206f70657261746f7220717565727920666f72206e6f6e657860448201526b34b9ba32b73a103a37b5b2b760a11b60648201526084016109aa565b600061286883611df4565b9050806001600160a01b0316846001600160a01b031614806128a35750836001600160a01b031661289884610942565b6001600160a01b0316145b806110b857506001600160a01b0380821660009081526005602090815260408083209388168352929052205460ff166110b8565b826001600160a01b03166128ea82611df4565b6001600160a01b03161461294e5760405162461bcd60e51b815260206004820152602560248201527f4552433732313a207472616e736665722066726f6d20696e636f72726563742060448201526437bbb732b960d91b60648201526084016109aa565b6001600160a01b0382166129b05760405162461bcd60e51b8152602060048201526024808201527f4552433732313a207472616e7366657220746f20746865207a65726f206164646044820152637265737360e01b60648201526084016109aa565b6129bb8383836136f8565b6129c6600082612302565b6001600160a01b03831660009081526003602052604081208054600192906129ef9084906148e7565b90915550506001600160a01b0382166000908152600360205260408120805460019290612a1d9084906147b1565b909155505060008181526002602052604080822080546001600160a01b0319166001600160a01b0386811691821790925591518493918716917fddf252ad1be2c89b69c2b068fc378daa952ba7f163c4a11628f55a4df523b3ef91a4505050565b6119ca828260405180602001604052806000815250613703565b60006123fc82846147b1565b612aae8282611f9e565b6119ca576000828152600b602090815260408083206001600160a01b03851684529091529020805460ff19166001179055612ae63390565b6001600160a01b0316816001600160a01b0316837f2f8788117e7eff1d82e926ec794901d17c78024a50270940304540a733656f0d60405160405180910390a45050565b612b348282611f9e565b156119ca576000828152600b602090815260408083206001600160a01b0385168085529252808320805460ff1916905551339285917ff6391f5c32d9c69d2a47ea670b442974b53935d1edc7fd64eb21e047a839171b9190a45050565b6000818152601a60205260409020805461ff001916610100179055807f35e3ac246b7a4b9f249293ca1954b39f007c9e4a40868c94f91a179a18268369612bd782612c60565b6040519081526020015b60405180910390a250565b6000818152601a60205260409020805460ff19166001179055807fd6ca2a93bc36d42fbf40ffcb8888f239fbc11e044ccaed118729f1777fbf445d612bd782613736565b6000828152601a602052604081206004018054839290612c519084906147b1565b909155506119ca9050826123bb565b6000818152601a60205260408120600281015490548290610100900460ff16612c8a576000612c9c565b6005821015612c995781612c9c565b60055b90506000612ca9856134c9565b90506000612cb68661306f565b905080612cc38584612a98565b1115612cd857612cd381846123f0565b612ce6565b612ce68361226f8685612a98565b9695505050505050565b6000838152601a6020526040902060010154431015612d3a5760405162461bcd60e51b81526004016109aa906020808252600490820152630544b46360e41b604082015260600190565b6000612d4584612c60565b11612d7b5760405162461bcd60e51b81526004016109aa906020808252600490820152630544f53360e41b604082015260600190565b6000828152601a6020526040902060010154431015612dc55760405162461bcd60e51b81526004016109aa90602080825260049082015263544b463160e01b604082015260600190565b6000612dd083612c60565b11612e065760405162461bcd60e51b81526004016109aa90602080825260049082015263544f533160e01b604082015260600190565b612e0f83613135565b612e1882612eaa565b8015612e785760408051808201825284815260208082018590526000868152601a9091529190912060050154612e76908290612e7190612e59906001612a98565b6000878152601a602052604090206007015490612a98565b613764565b505b604051829084907f3539b699ec09261d431aa5818ef50029f0a70631d5c37d481af79909c568bb3990600090a3505050565b612eb3816123bb565b6000818152601a60205260408120600201805491612ed08361492a565b90915550506000818152601a60205260408120600701805491612ef28361497c565b90915550506000818152601a6020526040902060050154612f14576000612f36565b6000818152601a60205260408120600501805491612f318361492a565b919050555b6000918252601a602052604090912060050155565b601754612f59904390612a98565b6000828152601a6020526040908190206001018290555182917ff1e92b78cecd1f423e00705e6b8594be5d98220c702ed078fd5e69ac543e9b8291612be191815260200190565b816001600160a01b0316836001600160a01b031614156130025760405162461bcd60e51b815260206004820152601960248201527f4552433732313a20617070726f766520746f2063616c6c65720000000000000060448201526064016109aa565b6001600160a01b03838116600081815260056020908152604080832094871680845294825291829020805460ff191686151590811790915591519182527f17307eab39ab6107e8899845ad3d59bd9653f200f220920489ca2b5937696c31910160405180910390a3505050565b6000818152601a60205260408120600301546018546108aa91612a98565b6130968261306f565b6000838152601a60205260409020600201546130b29083612a98565b116130e3576000828152601a6020526040812060020180548392906130d89084906147b1565b909155506119ca9050565b6130ec8261306f565b6000838152601a60205260409020600201555050565b61310d8484846128d7565b61311984848484613891565b611ed95760405162461bcd60e51b81526004016109aa90614579565b61313e816123bb565b6000818152601a6020526040812060020180549161315b8361492a565b90915550506000818152601a6020526040812060060180549161317d8361497c565b90915550506000818152601a6020526040812060050180549161319f8361497c565b919050555050565b60606131b2826122e5565b6132185760405162461bcd60e51b815260206004820152603160248201527f45524337323155524953746f726167653a2055524920717565727920666f72206044820152703737b732bc34b9ba32b73a103a37b5b2b760791b60648201526084016109aa565b6000828152600a60205260408120805461323190614941565b80601f016020809104026020016040519081016040528092919081815260200182805461325d90614941565b80156132aa5780601f1061327f576101008083540402835291602001916132aa565b820191906000526020600020905b81548152906001019060200180831161328d57829003601f168201915b5050505050905060006132c860408051602081019091526000815290565b90508051600014156132db575092915050565b81511561330d5780826040516020016132f592919061448f565b60405160208183030381529060405292505050919050565b6110b88461399b565b61331e613f8d565b506000818152601a6020908152604091829020825161024081018452815460ff8082161515835261010091829004161515938201939093526001820154938101939093526002810154606084015260038101546080840152600481015460a0840152600581015460c0840152600681015460e084015260078101549183019190915260088101546101208301526009810154610140830152600a810154610160830152600b810154610180830152600c8101546101a0830152600d8101546101c0830152600e8101546101e0830152600f8101546102008301526010015461022082015261340b82612c60565b606082015261341982613736565b610120820152919050565b6015546000828152601a6020526040812060030154909111801561347357506000828152601a602052604090206003015461345e90613486565b6000838152601a602052604090206004015410155b61347e5760006108aa565b600192915050565b60006108aa600a6122ba846002614820565b60006001600160e01b0319821663780e9d6360e01b14806108aa57506108aa82613a72565b60006123fc82846147c9565b6000818152601a60205260408120600f015481438211156134eb5760006134f5565b6134f543836123f0565b90506016548110156135085760006110b8565b6016546110b89082906134bd565b606060006135258360026148c8565b6135309060026147b1565b67ffffffffffffffff81111561355657634e487b7160e01b600052604160045260246000fd5b6040519080825280601f01601f191660200182016040528015613580576020820181803683370190505b509050600360fc1b816000815181106135a957634e487b7160e01b600052603260045260246000fd5b60200101906001600160f81b031916908160001a905350600f60fb1b816001815181106135e657634e487b7160e01b600052603260045260246000fd5b60200101906001600160f81b031916908160001a905350600061360a8460026148c8565b6136159060016147b1565b90505b60018111156136a9576f181899199a1a9b1b9c1cb0b131b232b360811b85600f166010811061365757634e487b7160e01b600052603260045260246000fd5b1a60f81b82828151811061367b57634e487b7160e01b600052603260045260246000fd5b60200101906001600160f81b031916908160001a90535060049490941c936136a28161492a565b9050613618565b5083156123fc5760405162461bcd60e51b815260206004820181905260248201527f537472696e67733a20686578206c656e67746820696e73756666696369656e7460448201526064016109aa565b610ae0838383613ac2565b61370d8383613b7a565b61371a6000848484613891565b610ae05760405162461bcd60e51b81526004016109aa90614579565b6000818152601a602052604081206008810154905460ff168061375957816110b8565b6110b88260056123f0565b60006103e89050600081613801611660601060009054906101000a90046001600160a01b03166001600160a01b03166318160ddd6040518163ffffffff1660e01b815260040160206040518083038186803b1580156137c257600080fd5b505afa1580156137d6573d6000803e3d6000fd5b505050506040513d601f19601f820116820180604052508101906137fa919061435f565b8690612403565b61380b9190614997565b9050610320811115611ed95760008161382960026122ba83826134bd565b1461383857602085015161383b565b84515b9050600061384984846123f0565b90506042811015801561385c5750608481105b1561386f5761386a82612bec565b613889565b608481106138805761386a82612b91565b61388982612f4b565b505050505050565b60006001600160a01b0384163b1561399357604051630a85bd0160e11b81526001600160a01b0385169063150b7a02906138d5903390899088908890600401614533565b602060405180830381600087803b1580156138ef57600080fd5b505af192505050801561391f575060408051601f3d908101601f1916820190925261391c91810190614343565b60015b613979573d80801561394d576040519150601f19603f3d011682016040523d82523d6000602084013e613952565b606091505b5080516139715760405162461bcd60e51b81526004016109aa90614579565b805181602001fd5b6001600160e01b031916630a85bd0160e11b1490506110b8565b5060016110b8565b60606139a6826122e5565b613a0a5760405162461bcd60e51b815260206004820152602f60248201527f4552433732314d657461646174613a2055524920717565727920666f72206e6f60448201526e3732bc34b9ba32b73a103a37b5b2b760891b60648201526084016109aa565b6000613a2160408051602081019091526000815290565b90506000815111613a4157604051806020016040528060008152506123fc565b80613a4b84613cb9565b604051602001613a5c92919061448f565b6040516020818303038152906040529392505050565b60006001600160e01b031982166380ac58cd60e01b1480613aa357506001600160e01b03198216635b5e139f60e01b145b806108aa57506301ffc9a760e01b6001600160e01b03198316146108aa565b6001600160a01b038316613b1d57613b1881600880546000838152600960205260408120829055600182018355919091527ff3f7a9fe364faab93b216da50a3214154f22a0a2b415b23a84c8169e8b636ee30155565b613b40565b816001600160a01b0316836001600160a01b031614613b4057613b408382613dd3565b6001600160a01b038216613b5757610ae081613e70565b826001600160a01b0316826001600160a01b031614610ae057610ae08282613f49565b6001600160a01b038216613bd05760405162461bcd60e51b815260206004820181905260248201527f4552433732313a206d696e7420746f20746865207a65726f206164647265737360448201526064016109aa565b613bd9816122e5565b15613c265760405162461bcd60e51b815260206004820152601c60248201527f4552433732313a20746f6b656e20616c7265616479206d696e7465640000000060448201526064016109aa565b613c32600083836136f8565b6001600160a01b0382166000908152600360205260408120805460019290613c5b9084906147b1565b909155505060008181526002602052604080822080546001600160a01b0319166001600160a01b03861690811790915590518392907fddf252ad1be2c89b69c2b068fc378daa952ba7f163c4a11628f55a4df523b3ef908290a45050565b606081613cdd5750506040805180820190915260018152600360fc1b602082015290565b8160005b8115613d075780613cf18161497c565b9150613d009050600a836147c9565b9150613ce1565b60008167ffffffffffffffff811115613d3057634e487b7160e01b600052604160045260246000fd5b6040519080825280601f01601f191660200182016040528015613d5a576020820181803683370190505b5090505b84156110b857613d6f6001836148e7565b9150613d7c600a86614997565b613d879060306147b1565b60f81b818381518110613daa57634e487b7160e01b600052603260045260246000fd5b60200101906001600160f81b031916908160001a905350613dcc600a866147c9565b9450613d5e565b60006001613de084611edf565b613dea91906148e7565b600083815260076020526040902054909150808214613e3d576001600160a01b03841660009081526006602090815260408083208584528252808320548484528184208190558352600790915290208190555b5060009182526007602090815260408084208490556001600160a01b039094168352600681528383209183525290812055565b600854600090613e82906001906148e7565b60008381526009602052604081205460088054939450909284908110613eb857634e487b7160e01b600052603260045260246000fd5b906000526020600020015490508060088381548110613ee757634e487b7160e01b600052603260045260246000fd5b6000918252602080832090910192909255828152600990915260408082208490558582528120556008805480613f2d57634e487b7160e01b600052603160045260246000fd5b6001900381819060005260206000200160009055905550505050565b6000613f5483611edf565b6001600160a01b039093166000908152600660209081526040808320868452825280832085905593825260079052919091209190915550565b604051806102400160405280600015158152602001600015158152602001600081526020016000815260200160008152602001600081526020016000815260200160008152602001600081526020016000815260200160008152602001600081526020016000815260200160008152602001600081526020016000815260200160008152602001600081525090565b82805461402890614941565b90600052602060002090601f01602090048101928261404a5760008555614090565b82601f1061406357805160ff1916838001178555614090565b82800160010185558215614090579182015b82811115614090578251825591602001919060010190614075565b5061409c9291506140a0565b5090565b5b8082111561409c57600081556001016140a1565b600067ffffffffffffffff808411156140d0576140d06149d7565b604051601f8501601f19908116603f011681019082821181831017156140f8576140f86149d7565b8160405280935085815286868601111561411157600080fd5b858560208301376000602087830101525050509392505050565b600082601f83011261413b578081fd5b6123fc838335602085016140b5565b60006020828403121561415b578081fd5b81356123fc816149ed565b600060208284031215614177578081fd5b81516123fc816149ed565b60008060408385031215614194578081fd5b823561419f816149ed565b915060208301356141af816149ed565b809150509250929050565b6000806000606084860312156141ce578081fd5b83356141d9816149ed565b925060208401356141e9816149ed565b929592945050506040919091013590565b6000806000806080858703121561420f578081fd5b843561421a816149ed565b9350602085013561422a816149ed565b925060408501359150606085013567ffffffffffffffff81111561424c578182fd5b8501601f8101871361425c578182fd5b61426b878235602084016140b5565b91505092959194509250565b60008060408385031215614289578182fd5b8235614294816149ed565b915060208301356141af81614a05565b600080604083850312156142b6578182fd5b82356142c1816149ed565b946020939093013593505050565b6000602082840312156142e0578081fd5b81516123fc81614a05565b6000602082840312156142fc578081fd5b5035919050565b60008060408385031215614315578182fd5b8235915060208301356141af816149ed565b600060208284031215614338578081fd5b81356123fc81614a13565b600060208284031215614354578081fd5b81516123fc81614a13565b600060208284031215614370578081fd5b5051919050565b60008060408385031215614389578182fd5b82359150602083013567ffffffffffffffff8111156143a6578182fd5b6143b28582860161412b565b9150509250929050565b600080604083850312156143ce578182fd5b50508035926020909101359150565b6000806000606084860312156143f1578081fd5b8335925060208401359150604084013561440a81614a05565b809150509250925092565b600080600060608486031215614429578081fd5b8335925060208401359150604084013567ffffffffffffffff81111561444d578182fd5b6144598682870161412b565b9150509250925092565b6000815180845261447b8160208601602086016148fe565b601f01601f19169290920160200192915050565b600083516144a18184602088016148fe565b8351908301906144b58183602088016148fe565b01949350505050565b7f416363657373436f6e74726f6c3a206163636f756e74200000000000000000008152600083516144f68160178501602088016148fe565b7001034b99036b4b9b9b4b733903937b6329607d1b60179184019182015283516145278160288401602088016148fe565b01602801949350505050565b6001600160a01b0385811682528416602082015260408101839052608060608201819052600090612ce690830184614463565b6020815260006123fc6020830184614463565b60208082526032908201527f4552433732313a207472616e7366657220746f206e6f6e20455243373231526560408201527131b2b4bb32b91034b6b83632b6b2b73a32b960711b606082015260800190565b60208082526009908201526814915153951490539560ba1b604082015260600190565b602080825260049082015263544f535560e01b604082015260600190565b6020808252600490820152632727aba760e11b604082015260600190565b6020808252600390820152622a24a360e91b604082015260600190565b60208082526031908201527f4552433732313a207472616e736665722063616c6c6572206973206e6f74206f6040820152701ddb995c881b9bdc88185c1c1c9bdd9959607a1b606082015260800190565b86511515815260006102e060208901516146b6602085018215159052565b50604089810151908401526060808a0151908401526080808a01519084015260a0808a01519084015260c0808a01519084015260e0808a015190840152610100808a015190840152610120808a015190840152610140808a015190840152610160808a015190840152610180808a0151908401526101a0808a0151908401526101c0808a0151908401526101e0808a015190840152610200808a015190840152610220808a015190840152610240830181905261477581840189614463565b91505061478761026083018715159052565b8461028083015261479d6102a083018515159052565b8215156102c0830152979650505050505050565b600082198211156147c4576147c46149ab565b500190565b6000826147d8576147d86149c1565b500490565b600181815b808511156148185781600019048211156147fe576147fe6149ab565b8085161561480b57918102915b93841c93908002906147e2565b509250929050565b60006123fc8383600082614836575060016108aa565b81614843575060006108aa565b816001811461485957600281146148635761487f565b60019150506108aa565b60ff841115614874576148746149ab565b50506001821b6108aa565b5060208310610133831016604e8410600b84101617156148a2575081810a6108aa565b6148ac83836147dd565b80600019048211156148c0576148c06149ab565b029392505050565b60008160001904831182151516156148e2576148e26149ab565b500290565b6000828210156148f9576148f96149ab565b500390565b60005b83811015614919578181015183820152602001614901565b83811115611ed95750506000910152565b600081614939576149396149ab565b506000190190565b600181811c9082168061495557607f821691505b6020821081141561497657634e487b7160e01b600052602260045260246000fd5b50919050565b6000600019821415614990576149906149ab565b5060010190565b6000826149a6576149a66149c1565b500690565b634e487b7160e01b600052601160045260246000fd5b634e487b7160e01b600052601260045260246000fd5b634e487b7160e01b600052604160045260246000fd5b6001600160a01b0381168114614a0257600080fd5b50565b8015158114614a0257600080fd5b6001600160e01b031981168114614a0257600080fdfedefec61f15714564dcc2f77124956c34fb4e12ad8954e2b15254889ef8372363ed8c6c0ae258ca7c7af99a80a2fb816ece9f83742eb158fbb27a22e34f976e11a264697066735822122092d497eb16df5a51d21380d5735ffcf55c374f92273f6f4935a85a89f8d7519f64736f6c63430008040033",
    "linkReferences": {},
    "deployedLinkReferences": {}
}