{
  "contractName": "Grave",
  "abi": [
    {
      "inputs": [],
      "stateMutability": "nonpayable",
      "type": "constructor"
    },
    {
      "anonymous": false,
      "inputs": [
        {
          "indexed": true,
          "internalType": "address",
          "name": "owner",
          "type": "address"
        },
        {
          "indexed": true,
          "internalType": "address",
          "name": "spender",
          "type": "address"
        },
        {
          "indexed": false,
          "internalType": "uint256",
          "name": "value",
          "type": "uint256"
        }
      ],
      "name": "Approval",
      "type": "event"
    },
    {
      "anonymous": false,
      "inputs": [
        {
          "indexed": true,
          "internalType": "address",
          "name": "delegator",
          "type": "address"
        },
        {
          "indexed": true,
          "internalType": "address",
          "name": "fromDelegate",
          "type": "address"
        },
        {
          "indexed": true,
          "internalType": "address",
          "name": "toDelegate",
          "type": "address"
        }
      ],
      "name": "DelegateChanged",
      "type": "event"
    },
    {
      "anonymous": false,
      "inputs": [
        {
          "indexed": true,
          "internalType": "address",
          "name": "delegate",
          "type": "address"
        },
        {
          "indexed": false,
          "internalType": "uint256",
          "name": "previousBalance",
          "type": "uint256"
        },
        {
          "indexed": false,
          "internalType": "uint256",
          "name": "newBalance",
          "type": "uint256"
        }
      ],
      "name": "DelegateVotesChanged",
      "type": "event"
    },
    {
      "anonymous": false,
      "inputs": [
        {
          "indexed": true,
          "internalType": "bytes32",
          "name": "role",
          "type": "bytes32"
        },
        {
          "indexed": true,
          "internalType": "bytes32",
          "name": "previousAdminRole",
          "type": "bytes32"
        },
        {
          "indexed": true,
          "internalType": "bytes32",
          "name": "newAdminRole",
          "type": "bytes32"
        }
      ],
      "name": "RoleAdminChanged",
      "type": "event"
    },
    {
      "anonymous": false,
      "inputs": [
        {
          "indexed": true,
          "internalType": "bytes32",
          "name": "role",
          "type": "bytes32"
        },
        {
          "indexed": true,
          "internalType": "address",
          "name": "account",
          "type": "address"
        },
        {
          "indexed": true,
          "internalType": "address",
          "name": "sender",
          "type": "address"
        }
      ],
      "name": "RoleGranted",
      "type": "event"
    },
    {
      "anonymous": false,
      "inputs": [
        {
          "indexed": true,
          "internalType": "bytes32",
          "name": "role",
          "type": "bytes32"
        },
        {
          "indexed": true,
          "internalType": "address",
          "name": "account",
          "type": "address"
        },
        {
          "indexed": true,
          "internalType": "address",
          "name": "sender",
          "type": "address"
        }
      ],
      "name": "RoleRevoked",
      "type": "event"
    },
    {
      "anonymous": false,
      "inputs": [
        {
          "indexed": true,
          "internalType": "address",
          "name": "from",
          "type": "address"
        },
        {
          "indexed": true,
          "internalType": "address",
          "name": "to",
          "type": "address"
        },
        {
          "indexed": false,
          "internalType": "uint256",
          "name": "value",
          "type": "uint256"
        }
      ],
      "name": "Transfer",
      "type": "event"
    },
    {
      "inputs": [],
      "name": "DEFAULT_ADMIN_ROLE",
      "outputs": [
        {
          "internalType": "bytes32",
          "name": "",
          "type": "bytes32"
        }
      ],
      "stateMutability": "view",
      "type": "function"
    },
    {
      "inputs": [],
      "name": "DOMAIN_SEPARATOR",
      "outputs": [
        {
          "internalType": "bytes32",
          "name": "",
          "type": "bytes32"
        }
      ],
      "stateMutability": "view",
      "type": "function"
    },
    {
      "inputs": [],
      "name": "MINTER_ROLE",
      "outputs": [
        {
          "internalType": "bytes32",
          "name": "",
          "type": "bytes32"
        }
      ],
      "stateMutability": "view",
      "type": "function"
    },
    {
      "inputs": [
        {
          "internalType": "address",
          "name": "owner",
          "type": "address"
        },
        {
          "internalType": "address",
          "name": "spender",
          "type": "address"
        }
      ],
      "name": "allowance",
      "outputs": [
        {
          "internalType": "uint256",
          "name": "",
          "type": "uint256"
        }
      ],
      "stateMutability": "view",
      "type": "function"
    },
    {
      "inputs": [
        {
          "internalType": "address",
          "name": "spender",
          "type": "address"
        },
        {
          "internalType": "uint256",
          "name": "amount",
          "type": "uint256"
        }
      ],
      "name": "approve",
      "outputs": [
        {
          "internalType": "bool",
          "name": "",
          "type": "bool"
        }
      ],
      "stateMutability": "nonpayable",
      "type": "function"
    },
    {
      "inputs": [
        {
          "internalType": "address",
          "name": "account",
          "type": "address"
        }
      ],
      "name": "balanceOf",
      "outputs": [
        {
          "internalType": "uint256",
          "name": "",
          "type": "uint256"
        }
      ],
      "stateMutability": "view",
      "type": "function"
    },
    {
      "inputs": [
        {
          "internalType": "uint256",
          "name": "amount",
          "type": "uint256"
        }
      ],
      "name": "burn",
      "outputs": [],
      "stateMutability": "nonpayable",
      "type": "function"
    },
    {
      "inputs": [
        {
          "internalType": "address",
          "name": "account",
          "type": "address"
        },
        {
          "internalType": "uint256",
          "name": "amount",
          "type": "uint256"
        }
      ],
      "name": "burnFrom",
      "outputs": [],
      "stateMutability": "nonpayable",
      "type": "function"
    },
    {
      "inputs": [
        {
          "internalType": "address",
          "name": "account",
          "type": "address"
        },
        {
          "internalType": "uint32",
          "name": "pos",
          "type": "uint32"
        }
      ],
      "name": "checkpoints",
      "outputs": [
        {
          "components": [
            {
              "internalType": "uint32",
              "name": "fromBlock",
              "type": "uint32"
            },
            {
              "internalType": "uint224",
              "name": "votes",
              "type": "uint224"
            }
          ],
          "internalType": "struct ERC20Votes.Checkpoint",
          "name": "",
          "type": "tuple"
        }
      ],
      "stateMutability": "view",
      "type": "function"
    },
    {
      "inputs": [],
      "name": "decimals",
      "outputs": [
        {
          "internalType": "uint8",
          "name": "",
          "type": "uint8"
        }
      ],
      "stateMutability": "view",
      "type": "function"
    },
    {
      "inputs": [
        {
          "internalType": "address",
          "name": "spender",
          "type": "address"
        },
        {
          "internalType": "uint256",
          "name": "subtractedValue",
          "type": "uint256"
        }
      ],
      "name": "decreaseAllowance",
      "outputs": [
        {
          "internalType": "bool",
          "name": "",
          "type": "bool"
        }
      ],
      "stateMutability": "nonpayable",
      "type": "function"
    },
    {
      "inputs": [
        {
          "internalType": "address",
          "name": "delegatee",
          "type": "address"
        }
      ],
      "name": "delegate",
      "outputs": [],
      "stateMutability": "nonpayable",
      "type": "function"
    },
    {
      "inputs": [
        {
          "internalType": "address",
          "name": "delegatee",
          "type": "address"
        },
        {
          "internalType": "uint256",
          "name": "nonce",
          "type": "uint256"
        },
        {
          "internalType": "uint256",
          "name": "expiry",
          "type": "uint256"
        },
        {
          "internalType": "uint8",
          "name": "v",
          "type": "uint8"
        },
        {
          "internalType": "bytes32",
          "name": "r",
          "type": "bytes32"
        },
        {
          "internalType": "bytes32",
          "name": "s",
          "type": "bytes32"
        }
      ],
      "name": "delegateBySig",
      "outputs": [],
      "stateMutability": "nonpayable",
      "type": "function"
    },
    {
      "inputs": [
        {
          "internalType": "address",
          "name": "account",
          "type": "address"
        }
      ],
      "name": "delegates",
      "outputs": [
        {
          "internalType": "address",
          "name": "",
          "type": "address"
        }
      ],
      "stateMutability": "view",
      "type": "function"
    },
    {
      "inputs": [
        {
          "internalType": "uint256",
          "name": "blockNumber",
          "type": "uint256"
        }
      ],
      "name": "getPastTotalSupply",
      "outputs": [
        {
          "internalType": "uint256",
          "name": "",
          "type": "uint256"
        }
      ],
      "stateMutability": "view",
      "type": "function"
    },
    {
      "inputs": [
        {
          "internalType": "address",
          "name": "account",
          "type": "address"
        },
        {
          "internalType": "uint256",
          "name": "blockNumber",
          "type": "uint256"
        }
      ],
      "name": "getPastVotes",
      "outputs": [
        {
          "internalType": "uint256",
          "name": "",
          "type": "uint256"
        }
      ],
      "stateMutability": "view",
      "type": "function"
    },
    {
      "inputs": [
        {
          "internalType": "bytes32",
          "name": "role",
          "type": "bytes32"
        }
      ],
      "name": "getRoleAdmin",
      "outputs": [
        {
          "internalType": "bytes32",
          "name": "",
          "type": "bytes32"
        }
      ],
      "stateMutability": "view",
      "type": "function"
    },
    {
      "inputs": [
        {
          "internalType": "address",
          "name": "account",
          "type": "address"
        }
      ],
      "name": "getVotes",
      "outputs": [
        {
          "internalType": "uint256",
          "name": "",
          "type": "uint256"
        }
      ],
      "stateMutability": "view",
      "type": "function"
    },
    {
      "inputs": [
        {
          "internalType": "bytes32",
          "name": "role",
          "type": "bytes32"
        },
        {
          "internalType": "address",
          "name": "account",
          "type": "address"
        }
      ],
      "name": "grantRole",
      "outputs": [],
      "stateMutability": "nonpayable",
      "type": "function"
    },
    {
      "inputs": [
        {
          "internalType": "bytes32",
          "name": "role",
          "type": "bytes32"
        },
        {
          "internalType": "address",
          "name": "account",
          "type": "address"
        }
      ],
      "name": "hasRole",
      "outputs": [
        {
          "internalType": "bool",
          "name": "",
          "type": "bool"
        }
      ],
      "stateMutability": "view",
      "type": "function"
    },
    {
      "inputs": [
        {
          "internalType": "address",
          "name": "spender",
          "type": "address"
        },
        {
          "internalType": "uint256",
          "name": "addedValue",
          "type": "uint256"
        }
      ],
      "name": "increaseAllowance",
      "outputs": [
        {
          "internalType": "bool",
          "name": "",
          "type": "bool"
        }
      ],
      "stateMutability": "nonpayable",
      "type": "function"
    },
    {
      "inputs": [],
      "name": "name",
      "outputs": [
        {
          "internalType": "string",
          "name": "",
          "type": "string"
        }
      ],
      "stateMutability": "view",
      "type": "function"
    },
    {
      "inputs": [
        {
          "internalType": "address",
          "name": "owner",
          "type": "address"
        }
      ],
      "name": "nonces",
      "outputs": [
        {
          "internalType": "uint256",
          "name": "",
          "type": "uint256"
        }
      ],
      "stateMutability": "view",
      "type": "function"
    },
    {
      "inputs": [
        {
          "internalType": "address",
          "name": "account",
          "type": "address"
        }
      ],
      "name": "numCheckpoints",
      "outputs": [
        {
          "internalType": "uint32",
          "name": "",
          "type": "uint32"
        }
      ],
      "stateMutability": "view",
      "type": "function"
    },
    {
      "inputs": [
        {
          "internalType": "address",
          "name": "owner",
          "type": "address"
        },
        {
          "internalType": "address",
          "name": "spender",
          "type": "address"
        },
        {
          "internalType": "uint256",
          "name": "value",
          "type": "uint256"
        },
        {
          "internalType": "uint256",
          "name": "deadline",
          "type": "uint256"
        },
        {
          "internalType": "uint8",
          "name": "v",
          "type": "uint8"
        },
        {
          "internalType": "bytes32",
          "name": "r",
          "type": "bytes32"
        },
        {
          "internalType": "bytes32",
          "name": "s",
          "type": "bytes32"
        }
      ],
      "name": "permit",
      "outputs": [],
      "stateMutability": "nonpayable",
      "type": "function"
    },
    {
      "inputs": [
        {
          "internalType": "bytes32",
          "name": "role",
          "type": "bytes32"
        },
        {
          "internalType": "address",
          "name": "account",
          "type": "address"
        }
      ],
      "name": "renounceRole",
      "outputs": [],
      "stateMutability": "nonpayable",
      "type": "function"
    },
    {
      "inputs": [
        {
          "internalType": "bytes32",
          "name": "role",
          "type": "bytes32"
        },
        {
          "internalType": "address",
          "name": "account",
          "type": "address"
        }
      ],
      "name": "revokeRole",
      "outputs": [],
      "stateMutability": "nonpayable",
      "type": "function"
    },
    {
      "inputs": [
        {
          "internalType": "bytes4",
          "name": "interfaceId",
          "type": "bytes4"
        }
      ],
      "name": "supportsInterface",
      "outputs": [
        {
          "internalType": "bool",
          "name": "",
          "type": "bool"
        }
      ],
      "stateMutability": "view",
      "type": "function"
    },
    {
      "inputs": [],
      "name": "symbol",
      "outputs": [
        {
          "internalType": "string",
          "name": "",
          "type": "string"
        }
      ],
      "stateMutability": "view",
      "type": "function"
    },
    {
      "inputs": [],
      "name": "totalSupply",
      "outputs": [
        {
          "internalType": "uint256",
          "name": "",
          "type": "uint256"
        }
      ],
      "stateMutability": "view",
      "type": "function"
    },
    {
      "inputs": [
        {
          "internalType": "address",
          "name": "recipient",
          "type": "address"
        },
        {
          "internalType": "uint256",
          "name": "amount",
          "type": "uint256"
        }
      ],
      "name": "transfer",
      "outputs": [
        {
          "internalType": "bool",
          "name": "",
          "type": "bool"
        }
      ],
      "stateMutability": "nonpayable",
      "type": "function"
    },
    {
      "inputs": [
        {
          "internalType": "address",
          "name": "sender",
          "type": "address"
        },
        {
          "internalType": "address",
          "name": "recipient",
          "type": "address"
        },
        {
          "internalType": "uint256",
          "name": "amount",
          "type": "uint256"
        }
      ],
      "name": "transferFrom",
      "outputs": [
        {
          "internalType": "bool",
          "name": "",
          "type": "bool"
        }
      ],
      "stateMutability": "nonpayable",
      "type": "function"
    },
    {
      "inputs": [
        {
          "internalType": "address",
          "name": "to",
          "type": "address"
        },
        {
          "internalType": "uint256",
          "name": "amount",
          "type": "uint256"
        }
      ],
      "name": "mint",
      "outputs": [],
      "stateMutability": "nonpayable",
      "type": "function"
    }
  ],
  "bytecode": "0x6101606040527f6e71edae12b1b97f4d1f60370fef10105fa2faae0126114a169c64845d6126c9610140908152503480156200003a57600080fd5b506040518060400160405280600581526020017f4772617665000000000000000000000000000000000000000000000000000000815250806040518060400160405280600181526020017f31000000000000000000000000000000000000000000000000000000000000008152506040518060400160405280600581526020017f47726176650000000000000000000000000000000000000000000000000000008152506040518060400160405280600481526020017f475256450000000000000000000000000000000000000000000000000000000081525081600390805190602001906200012c92919062000dc9565b5080600490805190602001906200014592919062000dc9565b50505060008280519060200120905060008280519060200120905060007f8b73c3c69bb8fe3d512ecc4cf759cc79239f7b179b0ffacaa9a75d522b39400f90508260e081815250508161010081815250504660a08181525050620001b18184846200028b60201b60201c565b608081815250503073ffffffffffffffffffffffffffffffffffffffff1660c08173ffffffffffffffffffffffffffffffffffffffff1660601b815250508061012081815250505050505050506200023e3362000213620002c760201b60201c565b600a6200022191906200121e565b6302bdc0706200023291906200135b565b620002d060201b60201c565b620002536000801b33620002eb60201b60201c565b620002857f9f2df0fed2c77648de5860a4cc508cd0818c85b8b8a1ab4ceeef8d981c8956a633620002eb60201b60201c565b620014ed565b60008383834630604051602001620002a895949392919062001026565b6040516020818303038152906040528051906020012090509392505050565b60006012905090565b620002e78282620003dd60201b620015711760201c565b5050565b620002fd82826200049b60201b60201c565b620003d95760016005600084815260200190815260200160002060000160008373ffffffffffffffffffffffffffffffffffffffff1673ffffffffffffffffffffffffffffffffffffffff16815260200190815260200160002060006101000a81548160ff0219169083151502179055506200037e6200050660201b60201c565b73ffffffffffffffffffffffffffffffffffffffff168173ffffffffffffffffffffffffffffffffffffffff16837f2f8788117e7eff1d82e926ec794901d17c78024a50270940304540a733656f0d60405160405180910390a45b5050565b620003f482826200050e60201b620015fe1760201c565b620004046200068760201b60201c565b7bffffffffffffffffffffffffffffffffffffffffffffffffffffffff1662000432620006ab60201b60201c565b111562000476576040517f08c379a00000000000000000000000000000000000000000000000000000000081526004016200046d9062001083565b60405180910390fd5b620004956009620006b560201b6200175e1783620006cd60201b60201c565b50505050565b60006005600084815260200190815260200160002060000160008373ffffffffffffffffffffffffffffffffffffffff1673ffffffffffffffffffffffffffffffffffffffff16815260200190815260200160002060009054906101000a900460ff16905092915050565b600033905090565b600073ffffffffffffffffffffffffffffffffffffffff168273ffffffffffffffffffffffffffffffffffffffff16141562000581576040517f08c379a00000000000000000000000000000000000000000000000000000000081526004016200057890620010e9565b60405180910390fd5b6200059560008383620009ea60201b60201c565b8060026000828254620005a9919062001166565b92505081905550806000808473ffffffffffffffffffffffffffffffffffffffff1673ffffffffffffffffffffffffffffffffffffffff168152602001908152602001600020600082825462000600919062001166565b925050819055508173ffffffffffffffffffffffffffffffffffffffff16600073ffffffffffffffffffffffffffffffffffffffff167fddf252ad1be2c89b69c2b068fc378daa952ba7f163c4a11628f55a4df523b3ef836040516200066791906200110b565b60405180910390a36200068360008383620009ef60201b60201c565b5050565b60007bffffffffffffffffffffffffffffffffffffffffffffffffffffffff905090565b6000600254905090565b60008183620006c5919062001166565b905092915050565b60008060008580549050905060008114620007665785600182620006f29190620013bc565b815481106200072a577f4e487b7100000000000000000000000000000000000000000000000000000000600052603260045260246000fd5b9060005260206000200160000160049054906101000a90047bffffffffffffffffffffffffffffffffffffffffffffffffffffffff1662000769565b60005b7bffffffffffffffffffffffffffffffffffffffffffffffffffffffff1692506200079583858760201c565b91506000811180156200081257504386600183620007b49190620013bc565b81548110620007ec577f4e487b7100000000000000000000000000000000000000000000000000000000600052603260045260246000fd5b9060005260206000200160000160009054906101000a900463ffffffff1663ffffffff16145b15620008d7576200082e8262000a0c60201b620017741760201c565b866001836200083e9190620013bc565b8154811062000876577f4e487b7100000000000000000000000000000000000000000000000000000000600052603260045260246000fd5b9060005260206000200160000160046101000a8154817bffffffffffffffffffffffffffffffffffffffffffffffffffffffff02191690837bffffffffffffffffffffffffffffffffffffffffffffffffffffffff160217905550620009e1565b856040518060400160405280620008f94362000a7a60201b620017df1760201c565b63ffffffff1681526020016200091a8562000a0c60201b620017741760201c565b7bffffffffffffffffffffffffffffffffffffffffffffffffffffffff168152509080600181540180825580915050600190039060005260206000200160009091909190915060008201518160000160006101000a81548163ffffffff021916908363ffffffff16021790555060208201518160000160046101000a8154817bffffffffffffffffffffffffffffffffffffffffffffffffffffffff02191690837bffffffffffffffffffffffffffffffffffffffffffffffffffffffff16021790555050505b50935093915050565b505050565b62000a0783838362000ad060201b620018321760201c565b505050565b60007bffffffffffffffffffffffffffffffffffffffffffffffffffffffff801682111562000a72576040517f08c379a000000000000000000000000000000000000000000000000000000000815260040162000a6990620010a5565b60405180910390fd5b819050919050565b600063ffffffff801682111562000ac8576040517f08c379a000000000000000000000000000000000000000000000000000000000815260040162000abf90620010c7565b60405180910390fd5b819050919050565b62000ae883838362000b2060201b6200185d1760201c565b62000b1b62000afd8462000b2560201b60201c565b62000b0e8462000b2560201b60201c565b8362000b8e60201b60201c565b505050565b505050565b6000600760008373ffffffffffffffffffffffffffffffffffffffff1673ffffffffffffffffffffffffffffffffffffffff16815260200190815260200160002060009054906101000a900473ffffffffffffffffffffffffffffffffffffffff169050919050565b8173ffffffffffffffffffffffffffffffffffffffff168373ffffffffffffffffffffffffffffffffffffffff161415801562000bcb5750600081115b1562000dac57600073ffffffffffffffffffffffffffffffffffffffff168373ffffffffffffffffffffffffffffffffffffffff161462000cbe5760008062000c65600860008773ffffffffffffffffffffffffffffffffffffffff1673ffffffffffffffffffffffffffffffffffffffff16815260200190815260200160002062000db160201b620018621785620006cd60201b60201c565b915091508473ffffffffffffffffffffffffffffffffffffffff167fdec2bacdd2f05b59de34da9b523dff8be42e5e38e818c82fdb0bae774387a724838360405162000cb392919062001128565b60405180910390a250505b600073ffffffffffffffffffffffffffffffffffffffff168273ffffffffffffffffffffffffffffffffffffffff161462000dab5760008062000d52600860008673ffffffffffffffffffffffffffffffffffffffff1673ffffffffffffffffffffffffffffffffffffffff168152602001908152602001600020620006b560201b6200175e1785620006cd60201b60201c565b915091508373ffffffffffffffffffffffffffffffffffffffff167fdec2bacdd2f05b59de34da9b523dff8be42e5e38e818c82fdb0bae774387a724838360405162000da092919062001128565b60405180910390a250505b5b505050565b6000818362000dc19190620013bc565b905092915050565b82805462000dd7906200144c565b90600052602060002090601f01602090048101928262000dfb576000855562000e47565b82601f1062000e1657805160ff191683800117855562000e47565b8280016001018555821562000e47579182015b8281111562000e4657825182559160200191906001019062000e29565b5b50905062000e56919062000e5a565b5090565b5b8082111562000e7557600081600090555060010162000e5b565b5090565b62000e8481620013f7565b82525050565b62000e95816200140b565b82525050565b600062000eaa60308362001155565b91507f4552433230566f7465733a20746f74616c20737570706c79207269736b73206f60008301527f766572666c6f77696e6720766f746573000000000000000000000000000000006020830152604082019050919050565b600062000f1260278362001155565b91507f53616665436173743a2076616c756520646f65736e27742066697420696e203260008301527f32342062697473000000000000000000000000000000000000000000000000006020830152604082019050919050565b600062000f7a60268362001155565b91507f53616665436173743a2076616c756520646f65736e27742066697420696e203360008301527f32206269747300000000000000000000000000000000000000000000000000006020830152604082019050919050565b600062000fe2601f8362001155565b91507f45524332303a206d696e7420746f20746865207a65726f2061646472657373006000830152602082019050919050565b620010208162001435565b82525050565b600060a0820190506200103d600083018862000e8a565b6200104c602083018762000e8a565b6200105b604083018662000e8a565b6200106a606083018562001015565b62001079608083018462000e79565b9695505050505050565b600060208201905081810360008301526200109e8162000e9b565b9050919050565b60006020820190508181036000830152620010c08162000f03565b9050919050565b60006020820190508181036000830152620010e28162000f6b565b9050919050565b60006020820190508181036000830152620011048162000fd3565b9050919050565b600060208201905062001122600083018462001015565b92915050565b60006040820190506200113f600083018562001015565b6200114e602083018462001015565b9392505050565b600082825260208201905092915050565b6000620011738262001435565b9150620011808362001435565b9250827fffffffffffffffffffffffffffffffffffffffffffffffffffffffffffffffff03821115620011b857620011b762001482565b5b828201905092915050565b6000808291508390505b60018511156200121557808604811115620011ed57620011ec62001482565b5b6001851615620011fd5780820291505b80810290506200120d85620014e0565b9450620011cd565b94509492505050565b60006200122b8262001435565b915062001238836200143f565b9250620012677fffffffffffffffffffffffffffffffffffffffffffffffffffffffffffffffff84846200126f565b905092915050565b60008262001281576001905062001354565b8162001291576000905062001354565b8160018114620012aa5760028114620012b557620012eb565b600191505062001354565b60ff841115620012ca57620012c962001482565b5b8360020a915084821115620012e457620012e362001482565b5b5062001354565b5060208310610133831016604e8410600b8410161715620013255782820a9050838111156200131f576200131e62001482565b5b62001354565b620013348484846001620011c3565b925090508184048111156200134e576200134d62001482565b5b81810290505b9392505050565b6000620013688262001435565b9150620013758362001435565b9250817fffffffffffffffffffffffffffffffffffffffffffffffffffffffffffffffff0483118215151615620013b157620013b062001482565b5b828202905092915050565b6000620013c98262001435565b9150620013d68362001435565b925082821015620013ec57620013eb62001482565b5b828203905092915050565b6000620014048262001415565b9050919050565b6000819050919050565b600073ffffffffffffffffffffffffffffffffffffffff82169050919050565b6000819050919050565b600060ff82169050919050565b600060028204905060018216806200146557607f821691505b602082108114156200147c576200147b620014b1565b5b50919050565b7f4e487b7100000000000000000000000000000000000000000000000000000000600052601160045260246000fd5b7f4e487b7100000000000000000000000000000000000000000000000000000000600052602260045260246000fd5b60008160011c9050919050565b60805160a05160c05160601c60e051610100516101205161014051614b1c6200154b600039600061126c01526000611f6201526000611fa401526000611f8301526000611eb801526000611f0e01526000611f370152614b1c6000f3fe608060405234801561001057600080fd5b50600436106101fb5760003560e01c80636fcfff451161011a578063a217fddf116100ad578063d505accf1161007c578063d505accf14610648578063d539139314610664578063d547741f14610682578063dd62ed3e1461069e578063f1127ed8146106ce576101fb565b8063a217fddf146105ae578063a457c2d7146105cc578063a9059cbb146105fc578063c3cda5201461062c576101fb565b80638e539e8c116100e95780638e539e8c1461050057806391d148541461053057806395d89b41146105605780639ab24eb01461057e576101fb565b80636fcfff451461045457806370a082311461048457806379cc6790146104b45780637ecebe00146104d0576101fb565b80633644e5151161019257806340c10f191161016157806340c10f19146103d057806342966c68146103ec578063587cde1e146104085780635c19a95c14610438576101fb565b80633644e5151461033657806336568abe1461035457806339509351146103705780633a46b1a8146103a0576101fb565b806323b872dd116101ce57806323b872dd1461029c578063248a9ca3146102cc5780632f2ff15d146102fc578063313ce56714610318576101fb565b806301ffc9a71461020057806306fdde0314610230578063095ea7b31461024e57806318160ddd1461027e575b600080fd5b61021a60048036038101906102159190613675565b6106fe565b60405161022791906141db565b60405180910390f35b610238610778565b604051610245919061434f565b60405180910390f35b6102686004803603810190610263919061350f565b61080a565b60405161027591906141db565b60405180910390f35b610286610828565b60405161029391906146ac565b60405180910390f35b6102b660048036038101906102b19190613422565b610832565b6040516102c391906141db565b60405180910390f35b6102e660048036038101906102e19190613610565b61092a565b6040516102f391906141f6565b60405180910390f35b61031660048036038101906103119190613639565b61094a565b005b610320610973565b60405161032d919061470b565b60405180910390f35b61033e61097c565b60405161034b91906141f6565b60405180910390f35b61036e60048036038101906103699190613639565b61098b565b005b61038a6004803603810190610385919061350f565b610a0e565b60405161039791906141db565b60405180910390f35b6103ba60048036038101906103b5919061350f565b610aba565b6040516103c791906146ac565b60405180910390f35b6103ea60048036038101906103e5919061350f565b610b4e565b005b6104066004803603810190610401919061369e565b610b8f565b005b610422600480360381019061041d91906133bd565b610ba3565b60405161042f91906141c0565b60405180910390f35b610452600480360381019061044d91906133bd565b610c0c565b005b61046e600480360381019061046991906133bd565b610c20565b60405161047b91906146f0565b60405180910390f35b61049e600480360381019061049991906133bd565b610c74565b6040516104ab91906146ac565b60405180910390f35b6104ce60048036038101906104c9919061350f565b610cbc565b005b6104ea60048036038101906104e591906133bd565b610d37565b6040516104f791906146ac565b60405180910390f35b61051a6004803603810190610515919061369e565b610d87565b60405161052791906146ac565b60405180910390f35b61054a60048036038101906105459190613639565b610ddd565b60405161055791906141db565b60405180910390f35b610568610e48565b604051610575919061434f565b60405180910390f35b610598600480360381019061059391906133bd565b610eda565b6040516105a591906146ac565b60405180910390f35b6105b6611011565b6040516105c391906141f6565b60405180910390f35b6105e660048036038101906105e1919061350f565b611018565b6040516105f391906141db565b60405180910390f35b6106166004803603810190610611919061350f565b611103565b60405161062391906141db565b60405180910390f35b6106466004803603810190610641919061354b565b611121565b005b610662600480360381019061065d9190613471565b611225565b005b61066c611367565b60405161067991906141f6565b60405180910390f35b61069c60048036038101906106979190613639565b61138b565b005b6106b860048036038101906106b391906133e6565b6113b4565b6040516106c591906146ac565b60405180910390f35b6106e860048036038101906106e391906135d4565b61143b565b6040516106f59190614691565b60405180910390f35b60007f7965db0b000000000000000000000000000000000000000000000000000000007bffffffffffffffffffffffffffffffffffffffffffffffffffffffff1916827bffffffffffffffffffffffffffffffffffffffffffffffffffffffff19161480610771575061077082611878565b5b9050919050565b60606003805461078790614982565b80601f01602080910402602001604051908101604052809291908181526020018280546107b390614982565b80156108005780601f106107d557610100808354040283529160200191610800565b820191906000526020600020905b8154815290600101906020018083116107e357829003601f168201915b5050505050905090565b600061081e6108176118e2565b84846118ea565b6001905092915050565b6000600254905090565b600061083f848484611ab5565b6000600160008673ffffffffffffffffffffffffffffffffffffffff1673ffffffffffffffffffffffffffffffffffffffff168152602001908152602001600020600061088a6118e2565b73ffffffffffffffffffffffffffffffffffffffff1673ffffffffffffffffffffffffffffffffffffffff1681526020019081526020016000205490508281101561090a576040517f08c379a000000000000000000000000000000000000000000000000000000000815260040161090190614531565b60405180910390fd5b61091e856109166118e2565b8584036118ea565b60019150509392505050565b600060056000838152602001908152602001600020600101549050919050565b6109538261092a565b6109648161095f6118e2565b611d36565b61096e8383611dd3565b505050565b60006012905090565b6000610986611eb4565b905090565b6109936118e2565b73ffffffffffffffffffffffffffffffffffffffff168173ffffffffffffffffffffffffffffffffffffffff1614610a00576040517f08c379a00000000000000000000000000000000000000000000000000000000081526004016109f790614651565b60405180910390fd5b610a0a8282611fce565b5050565b6000610ab0610a1b6118e2565b848460016000610a296118e2565b73ffffffffffffffffffffffffffffffffffffffff1673ffffffffffffffffffffffffffffffffffffffff16815260200190815260200160002060008873ffffffffffffffffffffffffffffffffffffffff1673ffffffffffffffffffffffffffffffffffffffff16815260200190815260200160002054610aab919061474d565b6118ea565b6001905092915050565b6000438210610afe576040517f08c379a0000000000000000000000000000000000000000000000000000000008152600401610af5906143d1565b60405180910390fd5b610b46600860008573ffffffffffffffffffffffffffffffffffffffff1673ffffffffffffffffffffffffffffffffffffffff168152602001908152602001600020836120b0565b905092915050565b7f9f2df0fed2c77648de5860a4cc508cd0818c85b8b8a1ab4ceeef8d981c8956a6610b8081610b7b6118e2565b611d36565b610b8a8383612208565b505050565b610ba0610b9a6118e2565b82612216565b50565b6000600760008373ffffffffffffffffffffffffffffffffffffffff1673ffffffffffffffffffffffffffffffffffffffff16815260200190815260200160002060009054906101000a900473ffffffffffffffffffffffffffffffffffffffff169050919050565b610c1d610c176118e2565b82612224565b50565b6000610c6d600860008473ffffffffffffffffffffffffffffffffffffffff1673ffffffffffffffffffffffffffffffffffffffff168152602001908152602001600020805490506117df565b9050919050565b60008060008373ffffffffffffffffffffffffffffffffffffffff1673ffffffffffffffffffffffffffffffffffffffff168152602001908152602001600020549050919050565b6000610ccf83610cca6118e2565b6113b4565b905081811015610d14576040517f08c379a0000000000000000000000000000000000000000000000000000000008152600401610d0b90614591565b60405180910390fd5b610d2883610d206118e2565b8484036118ea565b610d328383612216565b505050565b6000610d80600660008473ffffffffffffffffffffffffffffffffffffffff1673ffffffffffffffffffffffffffffffffffffffff16815260200190815260200160002061233e565b9050919050565b6000438210610dcb576040517f08c379a0000000000000000000000000000000000000000000000000000000008152600401610dc2906143d1565b60405180910390fd5b610dd66009836120b0565b9050919050565b60006005600084815260200190815260200160002060000160008373ffffffffffffffffffffffffffffffffffffffff1673ffffffffffffffffffffffffffffffffffffffff16815260200190815260200160002060009054906101000a900460ff16905092915050565b606060048054610e5790614982565b80601f0160208091040260200160405190810160405280929190818152602001828054610e8390614982565b8015610ed05780601f10610ea557610100808354040283529160200191610ed0565b820191906000526020600020905b815481529060010190602001808311610eb357829003601f168201915b5050505050905090565b600080600860008473ffffffffffffffffffffffffffffffffffffffff1673ffffffffffffffffffffffffffffffffffffffff16815260200190815260200160002080549050905060008114610fe857600860008473ffffffffffffffffffffffffffffffffffffffff1673ffffffffffffffffffffffffffffffffffffffff168152602001908152602001600020600182610f76919061482e565b81548110610fad577f4e487b7100000000000000000000000000000000000000000000000000000000600052603260045260246000fd5b9060005260206000200160000160049054906101000a90047bffffffffffffffffffffffffffffffffffffffffffffffffffffffff16610feb565b60005b7bffffffffffffffffffffffffffffffffffffffffffffffffffffffff16915050919050565b6000801b81565b600080600160006110276118e2565b73ffffffffffffffffffffffffffffffffffffffff1673ffffffffffffffffffffffffffffffffffffffff16815260200190815260200160002060008573ffffffffffffffffffffffffffffffffffffffff1673ffffffffffffffffffffffffffffffffffffffff168152602001908152602001600020549050828110156110e4576040517f08c379a00000000000000000000000000000000000000000000000000000000081526004016110db90614631565b60405180910390fd5b6110f86110ef6118e2565b858584036118ea565b600191505092915050565b60006111176111106118e2565b8484611ab5565b6001905092915050565b83421115611164576040517f08c379a000000000000000000000000000000000000000000000000000000000815260040161115b906143f1565b60405180910390fd5b60006111c66111be7fe48329057bfd03d55e49b547132e39cffd9c1820ad7b9d4c5307691425d15adf8989896040516020016111a39493929190614272565b6040516020818303038152906040528051906020012061234c565b858585612366565b90506111d181612391565b8614611212576040517f08c379a000000000000000000000000000000000000000000000000000000000815260040161120990614451565b60405180910390fd5b61121c8188612224565b50505050505050565b83421115611268576040517f08c379a000000000000000000000000000000000000000000000000000000000815260040161125f90614491565b60405180910390fd5b60007f00000000000000000000000000000000000000000000000000000000000000008888886112978c612391565b896040516020016112ad96959493929190614211565b60405160208183030381529060405280519060200120905060006112d08261234c565b905060006112e082878787612366565b90508973ffffffffffffffffffffffffffffffffffffffff168173ffffffffffffffffffffffffffffffffffffffff1614611350576040517f08c379a000000000000000000000000000000000000000000000000000000000815260040161134790614511565b60405180910390fd5b61135b8a8a8a6118ea565b50505050505050505050565b7f9f2df0fed2c77648de5860a4cc508cd0818c85b8b8a1ab4ceeef8d981c8956a681565b6113948261092a565b6113a5816113a06118e2565b611d36565b6113af8383611fce565b505050565b6000600160008473ffffffffffffffffffffffffffffffffffffffff1673ffffffffffffffffffffffffffffffffffffffff16815260200190815260200160002060008373ffffffffffffffffffffffffffffffffffffffff1673ffffffffffffffffffffffffffffffffffffffff16815260200190815260200160002054905092915050565b611443613301565b600860008473ffffffffffffffffffffffffffffffffffffffff1673ffffffffffffffffffffffffffffffffffffffff1681526020019081526020016000208263ffffffff16815481106114c0577f4e487b7100000000000000000000000000000000000000000000000000000000600052603260045260246000fd5b906000526020600020016040518060400160405290816000820160009054906101000a900463ffffffff1663ffffffff1663ffffffff1681526020016000820160049054906101000a90047bffffffffffffffffffffffffffffffffffffffffffffffffffffffff167bffffffffffffffffffffffffffffffffffffffffffffffffffffffff167bffffffffffffffffffffffffffffffffffffffffffffffffffffffff1681525050905092915050565b61157b82826115fe565b6115836123ef565b7bffffffffffffffffffffffffffffffffffffffffffffffffffffffff166115a9610828565b11156115ea576040517f08c379a00000000000000000000000000000000000000000000000000000000081526004016115e190614551565b60405180910390fd5b6115f8600961175e83612413565b50505050565b600073ffffffffffffffffffffffffffffffffffffffff168273ffffffffffffffffffffffffffffffffffffffff16141561166e576040517f08c379a000000000000000000000000000000000000000000000000000000000815260040161166590614671565b60405180910390fd5b61167a600083836126fd565b806002600082825461168c919061474d565b92505081905550806000808473ffffffffffffffffffffffffffffffffffffffff1673ffffffffffffffffffffffffffffffffffffffff16815260200190815260200160002060008282546116e1919061474d565b925050819055508173ffffffffffffffffffffffffffffffffffffffff16600073ffffffffffffffffffffffffffffffffffffffff167fddf252ad1be2c89b69c2b068fc378daa952ba7f163c4a11628f55a4df523b3ef8360405161174691906146ac565b60405180910390a361175a60008383612702565b5050565b6000818361176c919061474d565b905092915050565b60007bffffffffffffffffffffffffffffffffffffffffffffffffffffffff80168211156117d7576040517f08c379a00000000000000000000000000000000000000000000000000000000081526004016117ce90614571565b60405180910390fd5b819050919050565b600063ffffffff801682111561182a576040517f08c379a0000000000000000000000000000000000000000000000000000000008152600401611821906145f1565b60405180910390fd5b819050919050565b61183d83838361185d565b61185861184984610ba3565b61185284610ba3565b83612712565b505050565b505050565b60008183611870919061482e565b905092915050565b60007f01ffc9a7000000000000000000000000000000000000000000000000000000007bffffffffffffffffffffffffffffffffffffffffffffffffffffffff1916827bffffffffffffffffffffffffffffffffffffffffffffffffffffffff1916149050919050565b600033905090565b600073ffffffffffffffffffffffffffffffffffffffff168373ffffffffffffffffffffffffffffffffffffffff16141561195a576040517f08c379a000000000000000000000000000000000000000000000000000000000815260040161195190614611565b60405180910390fd5b600073ffffffffffffffffffffffffffffffffffffffff168273ffffffffffffffffffffffffffffffffffffffff1614156119ca576040517f08c379a00000000000000000000000000000000000000000000000000000000081526004016119c190614471565b60405180910390fd5b80600160008573ffffffffffffffffffffffffffffffffffffffff1673ffffffffffffffffffffffffffffffffffffffff16815260200190815260200160002060008473ffffffffffffffffffffffffffffffffffffffff1673ffffffffffffffffffffffffffffffffffffffff168152602001908152602001600020819055508173ffffffffffffffffffffffffffffffffffffffff168373ffffffffffffffffffffffffffffffffffffffff167f8c5be1e5ebec7d5bd14f71427d1e84f3dd0314c0f7b2291e5b200ac8c7c3b92583604051611aa891906146ac565b60405180910390a3505050565b600073ffffffffffffffffffffffffffffffffffffffff168373ffffffffffffffffffffffffffffffffffffffff161415611b25576040517f08c379a0000000000000000000000000000000000000000000000000000000008152600401611b1c906145d1565b60405180910390fd5b600073ffffffffffffffffffffffffffffffffffffffff168273ffffffffffffffffffffffffffffffffffffffff161415611b95576040517f08c379a0000000000000000000000000000000000000000000000000000000008152600401611b8c906143b1565b60405180910390fd5b611ba08383836126fd565b60008060008573ffffffffffffffffffffffffffffffffffffffff1673ffffffffffffffffffffffffffffffffffffffff16815260200190815260200160002054905081811015611c26576040517f08c379a0000000000000000000000000000000000000000000000000000000008152600401611c1d906144b1565b60405180910390fd5b8181036000808673ffffffffffffffffffffffffffffffffffffffff1673ffffffffffffffffffffffffffffffffffffffff16815260200190815260200160002081905550816000808573ffffffffffffffffffffffffffffffffffffffff1673ffffffffffffffffffffffffffffffffffffffff1681526020019081526020016000206000828254611cb9919061474d565b925050819055508273ffffffffffffffffffffffffffffffffffffffff168473ffffffffffffffffffffffffffffffffffffffff167fddf252ad1be2c89b69c2b068fc378daa952ba7f163c4a11628f55a4df523b3ef84604051611d1d91906146ac565b60405180910390a3611d30848484612702565b50505050565b611d408282610ddd565b611dcf57611d658173ffffffffffffffffffffffffffffffffffffffff16601461290b565b611d738360001c602061290b565b604051602001611d84929190614186565b6040516020818303038152906040526040517f08c379a0000000000000000000000000000000000000000000000000000000008152600401611dc6919061434f565b60405180910390fd5b5050565b611ddd8282610ddd565b611eb05760016005600084815260200190815260200160002060000160008373ffffffffffffffffffffffffffffffffffffffff1673ffffffffffffffffffffffffffffffffffffffff16815260200190815260200160002060006101000a81548160ff021916908315150217905550611e556118e2565b73ffffffffffffffffffffffffffffffffffffffff168173ffffffffffffffffffffffffffffffffffffffff16837f2f8788117e7eff1d82e926ec794901d17c78024a50270940304540a733656f0d60405160405180910390a45b5050565b60007f000000000000000000000000000000000000000000000000000000000000000073ffffffffffffffffffffffffffffffffffffffff163073ffffffffffffffffffffffffffffffffffffffff16148015611f3057507f000000000000000000000000000000000000000000000000000000000000000046145b15611f5d577f00000000000000000000000000000000000000000000000000000000000000009050611fcb565b611fc87f00000000000000000000000000000000000000000000000000000000000000007f00000000000000000000000000000000000000000000000000000000000000007f0000000000000000000000000000000000000000000000000000000000000000612c05565b90505b90565b611fd88282610ddd565b156120ac5760006005600084815260200190815260200160002060000160008373ffffffffffffffffffffffffffffffffffffffff1673ffffffffffffffffffffffffffffffffffffffff16815260200190815260200160002060006101000a81548160ff0219169083151502179055506120516118e2565b73ffffffffffffffffffffffffffffffffffffffff168173ffffffffffffffffffffffffffffffffffffffff16837ff6391f5c32d9c69d2a47ea670b442974b53935d1edc7fd64eb21e047a839171b60405160405180910390a45b5050565b6000808380549050905060005b818110156121555760006120d18284612c3f565b90508486828154811061210d577f4e487b7100000000000000000000000000000000000000000000000000000000600052603260045260246000fd5b9060005260206000200160000160009054906101000a900463ffffffff1663ffffffff16111561213f5780925061214f565b60018161214c919061474d565b91505b506120bd565b600082146121dd578460018361216b919061482e565b815481106121a2577f4e487b7100000000000000000000000000000000000000000000000000000000600052603260045260246000fd5b9060005260206000200160000160049054906101000a90047bffffffffffffffffffffffffffffffffffffffffffffffffffffffff166121e0565b60005b7bffffffffffffffffffffffffffffffffffffffffffffffffffffffff169250505092915050565b6122128282611571565b5050565b6122208282612c65565b5050565b600061222f83610ba3565b9050600061223c84610c74565b905082600760008673ffffffffffffffffffffffffffffffffffffffff1673ffffffffffffffffffffffffffffffffffffffff16815260200190815260200160002060006101000a81548173ffffffffffffffffffffffffffffffffffffffff021916908373ffffffffffffffffffffffffffffffffffffffff1602179055508273ffffffffffffffffffffffffffffffffffffffff168273ffffffffffffffffffffffffffffffffffffffff168573ffffffffffffffffffffffffffffffffffffffff167f3134e8a2e6d97e929a7e54011ea5485d7d196dd5f0ba4d4ef95803e8e3fc257f60405160405180910390a4612338828483612712565b50505050565b600081600001549050919050565b600061235f612359611eb4565b83612c83565b9050919050565b600080600061237787878787612cb6565b9150915061238481612dc3565b8192505050949350505050565b600080600660008473ffffffffffffffffffffffffffffffffffffffff1673ffffffffffffffffffffffffffffffffffffffff16815260200190815260200160002090506123de8161233e565b91506123e981613114565b50919050565b60007bffffffffffffffffffffffffffffffffffffffffffffffffffffffff905090565b600080600085805490509050600081146124a75785600182612435919061482e565b8154811061246c577f4e487b7100000000000000000000000000000000000000000000000000000000600052603260045260246000fd5b9060005260206000200160000160049054906101000a90047bffffffffffffffffffffffffffffffffffffffffffffffffffffffff166124aa565b60005b7bffffffffffffffffffffffffffffffffffffffffffffffffffffffff1692506124d883858763ffffffff16565b9150600081118015612551575043866001836124f4919061482e565b8154811061252b577f4e487b7100000000000000000000000000000000000000000000000000000000600052603260045260246000fd5b9060005260206000200160000160009054906101000a900463ffffffff1663ffffffff16145b156126045761255f82611774565b8660018361256d919061482e565b815481106125a4577f4e487b7100000000000000000000000000000000000000000000000000000000600052603260045260246000fd5b9060005260206000200160000160046101000a8154817bffffffffffffffffffffffffffffffffffffffffffffffffffffffff02191690837bffffffffffffffffffffffffffffffffffffffffffffffffffffffff1602179055506126f4565b856040518060400160405280612619436117df565b63ffffffff16815260200161262d85611774565b7bffffffffffffffffffffffffffffffffffffffffffffffffffffffff168152509080600181540180825580915050600190039060005260206000200160009091909190915060008201518160000160006101000a81548163ffffffff021916908363ffffffff16021790555060208201518160000160046101000a8154817bffffffffffffffffffffffffffffffffffffffffffffffffffffffff02191690837bffffffffffffffffffffffffffffffffffffffffffffffffffffffff16021790555050505b50935093915050565b505050565b61270d838383611832565b505050565b8173ffffffffffffffffffffffffffffffffffffffff168373ffffffffffffffffffffffffffffffffffffffff161415801561274e5750600081115b1561290657600073ffffffffffffffffffffffffffffffffffffffff168373ffffffffffffffffffffffffffffffffffffffff161461282c576000806127d5600860008773ffffffffffffffffffffffffffffffffffffffff1673ffffffffffffffffffffffffffffffffffffffff16815260200190815260200160002061186285612413565b915091508473ffffffffffffffffffffffffffffffffffffffff167fdec2bacdd2f05b59de34da9b523dff8be42e5e38e818c82fdb0bae774387a72483836040516128219291906146c7565b60405180910390a250505b600073ffffffffffffffffffffffffffffffffffffffff168273ffffffffffffffffffffffffffffffffffffffff1614612905576000806128ae600860008673ffffffffffffffffffffffffffffffffffffffff1673ffffffffffffffffffffffffffffffffffffffff16815260200190815260200160002061175e85612413565b915091508373ffffffffffffffffffffffffffffffffffffffff167fdec2bacdd2f05b59de34da9b523dff8be42e5e38e818c82fdb0bae774387a72483836040516128fa9291906146c7565b60405180910390a250505b5b505050565b60606000600283600261291e91906147d4565b612928919061474d565b67ffffffffffffffff811115612967577f4e487b7100000000000000000000000000000000000000000000000000000000600052604160045260246000fd5b6040519080825280601f01601f1916602001820160405280156129995781602001600182028036833780820191505090505b5090507f3000000000000000000000000000000000000000000000000000000000000000816000815181106129f7577f4e487b7100000000000000000000000000000000000000000000000000000000600052603260045260246000fd5b60200101907effffffffffffffffffffffffffffffffffffffffffffffffffffffffffffff1916908160001a9053507f780000000000000000000000000000000000000000000000000000000000000081600181518110612a81577f4e487b7100000000000000000000000000000000000000000000000000000000600052603260045260246000fd5b60200101907effffffffffffffffffffffffffffffffffffffffffffffffffffffffffffff1916908160001a90535060006001846002612ac191906147d4565b612acb919061474d565b90505b6001811115612bb7577f3031323334353637383961626364656600000000000000000000000000000000600f861660108110612b33577f4e487b7100000000000000000000000000000000000000000000000000000000600052603260045260246000fd5b1a60f81b828281518110612b70577f4e487b7100000000000000000000000000000000000000000000000000000000600052603260045260246000fd5b60200101907effffffffffffffffffffffffffffffffffffffffffffffffffffffffffffff1916908160001a905350600485901c945080612bb090614958565b9050612ace565b5060008414612bfb576040517f08c379a0000000000000000000000000000000000000000000000000000000008152600401612bf290614391565b60405180910390fd5b8091505092915050565b60008383834630604051602001612c209594939291906142b7565b6040516020818303038152906040528051906020012090509392505050565b60006002828418612c5091906147a3565b828416612c5d919061474d565b905092915050565b612c6f828261312a565b612c7d600961186283612413565b50505050565b60008282604051602001612c9892919061414f565b60405160208183030381529060405280519060200120905092915050565b6000807f7fffffffffffffffffffffffffffffff5d576e7357a4501ddfe92f46681b20a08360001c1115612cf1576000600391509150612dba565b601b8560ff1614158015612d095750601c8560ff1614155b15612d1b576000600491509150612dba565b600060018787878760405160008152602001604052604051612d40949392919061430a565b6020604051602081039080840390855afa158015612d62573d6000803e3d6000fd5b505050602060405103519050600073ffffffffffffffffffffffffffffffffffffffff168173ffffffffffffffffffffffffffffffffffffffff161415612db157600060019250925050612dba565b80600092509250505b94509492505050565b60006004811115612dfd577f4e487b7100000000000000000000000000000000000000000000000000000000600052602160045260246000fd5b816004811115612e36577f4e487b7100000000000000000000000000000000000000000000000000000000600052602160045260246000fd5b1415612e4157613111565b60016004811115612e7b577f4e487b7100000000000000000000000000000000000000000000000000000000600052602160045260246000fd5b816004811115612eb4577f4e487b7100000000000000000000000000000000000000000000000000000000600052602160045260246000fd5b1415612ef5576040517f08c379a0000000000000000000000000000000000000000000000000000000008152600401612eec90614371565b60405180910390fd5b60026004811115612f2f577f4e487b7100000000000000000000000000000000000000000000000000000000600052602160045260246000fd5b816004811115612f68577f4e487b7100000000000000000000000000000000000000000000000000000000600052602160045260246000fd5b1415612fa9576040517f08c379a0000000000000000000000000000000000000000000000000000000008152600401612fa090614431565b60405180910390fd5b60036004811115612fe3577f4e487b7100000000000000000000000000000000000000000000000000000000600052602160045260246000fd5b81600481111561301c577f4e487b7100000000000000000000000000000000000000000000000000000000600052602160045260246000fd5b141561305d576040517f08c379a0000000000000000000000000000000000000000000000000000000008152600401613054906144d1565b60405180910390fd5b600480811115613096577f4e487b7100000000000000000000000000000000000000000000000000000000600052602160045260246000fd5b8160048111156130cf577f4e487b7100000000000000000000000000000000000000000000000000000000600052602160045260246000fd5b1415613110576040517f08c379a0000000000000000000000000000000000000000000000000000000008152600401613107906144f1565b60405180910390fd5b5b50565b6001816000016000828254019250508190555050565b600073ffffffffffffffffffffffffffffffffffffffff168273ffffffffffffffffffffffffffffffffffffffff16141561319a576040517f08c379a0000000000000000000000000000000000000000000000000000000008152600401613191906145b1565b60405180910390fd5b6131a6826000836126fd565b60008060008473ffffffffffffffffffffffffffffffffffffffff1673ffffffffffffffffffffffffffffffffffffffff1681526020019081526020016000205490508181101561322c576040517f08c379a000000000000000000000000000000000000000000000000000000000815260040161322390614411565b60405180910390fd5b8181036000808573ffffffffffffffffffffffffffffffffffffffff1673ffffffffffffffffffffffffffffffffffffffff168152602001908152602001600020819055508160026000828254613283919061482e565b92505081905550600073ffffffffffffffffffffffffffffffffffffffff168373ffffffffffffffffffffffffffffffffffffffff167fddf252ad1be2c89b69c2b068fc378daa952ba7f163c4a11628f55a4df523b3ef846040516132e891906146ac565b60405180910390a36132fc83600084612702565b505050565b6040518060400160405280600063ffffffff16815260200160007bffffffffffffffffffffffffffffffffffffffffffffffffffffffff1681525090565b60008135905061334e81614a5c565b92915050565b60008135905061336381614a73565b92915050565b60008135905061337881614a8a565b92915050565b60008135905061338d81614aa1565b92915050565b6000813590506133a281614ab8565b92915050565b6000813590506133b781614acf565b92915050565b6000602082840312156133cf57600080fd5b60006133dd8482850161333f565b91505092915050565b600080604083850312156133f957600080fd5b60006134078582860161333f565b92505060206134188582860161333f565b9150509250929050565b60008060006060848603121561343757600080fd5b60006134458682870161333f565b93505060206134568682870161333f565b92505060406134678682870161337e565b9150509250925092565b600080600080600080600060e0888a03121561348c57600080fd5b600061349a8a828b0161333f565b97505060206134ab8a828b0161333f565b96505060406134bc8a828b0161337e565b95505060606134cd8a828b0161337e565b94505060806134de8a828b016133a8565b93505060a06134ef8a828b01613354565b92505060c06135008a828b01613354565b91505092959891949750929550565b6000806040838503121561352257600080fd5b60006135308582860161333f565b92505060206135418582860161337e565b9150509250929050565b60008060008060008060c0878903121561356457600080fd5b600061357289828a0161333f565b965050602061358389828a0161337e565b955050604061359489828a0161337e565b94505060606135a589828a016133a8565b93505060806135b689828a01613354565b92505060a06135c789828a01613354565b9150509295509295509295565b600080604083850312156135e757600080fd5b60006135f58582860161333f565b925050602061360685828601613393565b9150509250929050565b60006020828403121561362257600080fd5b600061363084828501613354565b91505092915050565b6000806040838503121561364c57600080fd5b600061365a85828601613354565b925050602061366b8582860161333f565b9150509250929050565b60006020828403121561368757600080fd5b600061369584828501613369565b91505092915050565b6000602082840312156136b057600080fd5b60006136be8482850161337e565b91505092915050565b6136d081614862565b82525050565b6136df81614874565b82525050565b6136ee81614880565b82525050565b61370561370082614880565b6149b4565b82525050565b600061371682614726565b6137208185614731565b9350613730818560208601614925565b61373981614a4b565b840191505092915050565b600061374f82614726565b6137598185614742565b9350613769818560208601614925565b80840191505092915050565b6000613782601883614731565b91507f45434453413a20696e76616c6964207369676e617475726500000000000000006000830152602082019050919050565b60006137c2602083614731565b91507f537472696e67733a20686578206c656e67746820696e73756666696369656e746000830152602082019050919050565b6000613802602383614731565b91507f45524332303a207472616e7366657220746f20746865207a65726f206164647260008301527f65737300000000000000000000000000000000000000000000000000000000006020830152604082019050919050565b6000613868601f83614731565b91507f4552433230566f7465733a20626c6f636b206e6f7420796574206d696e6564006000830152602082019050919050565b60006138a8601d83614731565b91507f4552433230566f7465733a207369676e617475726520657870697265640000006000830152602082019050919050565b60006138e8602283614731565b91507f45524332303a206275726e20616d6f756e7420657863656564732062616c616e60008301527f63650000000000000000000000000000000000000000000000000000000000006020830152604082019050919050565b600061394e601f83614731565b91507f45434453413a20696e76616c6964207369676e6174757265206c656e677468006000830152602082019050919050565b600061398e601983614731565b91507f4552433230566f7465733a20696e76616c6964206e6f6e6365000000000000006000830152602082019050919050565b60006139ce602283614731565b91507f45524332303a20617070726f766520746f20746865207a65726f20616464726560008301527f73730000000000000000000000000000000000000000000000000000000000006020830152604082019050919050565b6000613a34600283614742565b91507f19010000000000000000000000000000000000000000000000000000000000006000830152600282019050919050565b6000613a74601d83614731565b91507f45524332305065726d69743a206578706972656420646561646c696e650000006000830152602082019050919050565b6000613ab4602683614731565b91507f45524332303a207472616e7366657220616d6f756e742065786365656473206260008301527f616c616e636500000000000000000000000000000000000000000000000000006020830152604082019050919050565b6000613b1a602283614731565b91507f45434453413a20696e76616c6964207369676e6174757265202773272076616c60008301527f75650000000000000000000000000000000000000000000000000000000000006020830152604082019050919050565b6000613b80602283614731565b91507f45434453413a20696e76616c6964207369676e6174757265202776272076616c60008301527f75650000000000000000000000000000000000000000000000000000000000006020830152604082019050919050565b6000613be6601e83614731565b91507f45524332305065726d69743a20696e76616c6964207369676e617475726500006000830152602082019050919050565b6000613c26602883614731565b91507f45524332303a207472616e7366657220616d6f756e742065786365656473206160008301527f6c6c6f77616e63650000000000000000000000000000000000000000000000006020830152604082019050919050565b6000613c8c603083614731565b91507f4552433230566f7465733a20746f74616c20737570706c79207269736b73206f60008301527f766572666c6f77696e6720766f746573000000000000000000000000000000006020830152604082019050919050565b6000613cf2602783614731565b91507f53616665436173743a2076616c756520646f65736e27742066697420696e203260008301527f32342062697473000000000000000000000000000000000000000000000000006020830152604082019050919050565b6000613d58602483614731565b91507f45524332303a206275726e20616d6f756e74206578636565647320616c6c6f7760008301527f616e6365000000000000000000000000000000000000000000000000000000006020830152604082019050919050565b6000613dbe602183614731565b91507f45524332303a206275726e2066726f6d20746865207a65726f2061646472657360008301527f73000000000000000000000000000000000000000000000000000000000000006020830152604082019050919050565b6000613e24602583614731565b91507f45524332303a207472616e736665722066726f6d20746865207a65726f20616460008301527f64726573730000000000000000000000000000000000000000000000000000006020830152604082019050919050565b6000613e8a602683614731565b91507f53616665436173743a2076616c756520646f65736e27742066697420696e203360008301527f32206269747300000000000000000000000000000000000000000000000000006020830152604082019050919050565b6000613ef0602483614731565b91507f45524332303a20617070726f76652066726f6d20746865207a65726f2061646460008301527f72657373000000000000000000000000000000000000000000000000000000006020830152604082019050919050565b6000613f56601783614742565b91507f416363657373436f6e74726f6c3a206163636f756e74200000000000000000006000830152601782019050919050565b6000613f96602583614731565b91507f45524332303a2064656372656173656420616c6c6f77616e63652062656c6f7760008301527f207a65726f0000000000000000000000000000000000000000000000000000006020830152604082019050919050565b6000613ffc601183614742565b91507f206973206d697373696e6720726f6c65200000000000000000000000000000006000830152601182019050919050565b600061403c602f83614731565b91507f416363657373436f6e74726f6c3a2063616e206f6e6c792072656e6f756e636560008301527f20726f6c657320666f722073656c6600000000000000000000000000000000006020830152604082019050919050565b60006140a2601f83614731565b91507f45524332303a206d696e7420746f20746865207a65726f2061646472657373006000830152602082019050919050565b6040820160008201516140eb6000850182614122565b5060208201516140fe6020850182614104565b50505050565b61410d816148d6565b82525050565b61411c816148fe565b82525050565b61412b81614908565b82525050565b61413a81614908565b82525050565b61414981614918565b82525050565b600061415a82613a27565b915061416682856136f4565b60208201915061417682846136f4565b6020820191508190509392505050565b600061419182613f49565b915061419d8285613744565b91506141a882613fef565b91506141b48284613744565b91508190509392505050565b60006020820190506141d560008301846136c7565b92915050565b60006020820190506141f060008301846136d6565b92915050565b600060208201905061420b60008301846136e5565b92915050565b600060c08201905061422660008301896136e5565b61423360208301886136c7565b61424060408301876136c7565b61424d6060830186614113565b61425a6080830185614113565b61426760a0830184614113565b979650505050505050565b600060808201905061428760008301876136e5565b61429460208301866136c7565b6142a16040830185614113565b6142ae6060830184614113565b95945050505050565b600060a0820190506142cc60008301886136e5565b6142d960208301876136e5565b6142e660408301866136e5565b6142f36060830185614113565b61430060808301846136c7565b9695505050505050565b600060808201905061431f60008301876136e5565b61432c6020830186614140565b61433960408301856136e5565b61434660608301846136e5565b95945050505050565b60006020820190508181036000830152614369818461370b565b905092915050565b6000602082019050818103600083015261438a81613775565b9050919050565b600060208201905081810360008301526143aa816137b5565b9050919050565b600060208201905081810360008301526143ca816137f5565b9050919050565b600060208201905081810360008301526143ea8161385b565b9050919050565b6000602082019050818103600083015261440a8161389b565b9050919050565b6000602082019050818103600083015261442a816138db565b9050919050565b6000602082019050818103600083015261444a81613941565b9050919050565b6000602082019050818103600083015261446a81613981565b9050919050565b6000602082019050818103600083015261448a816139c1565b9050919050565b600060208201905081810360008301526144aa81613a67565b9050919050565b600060208201905081810360008301526144ca81613aa7565b9050919050565b600060208201905081810360008301526144ea81613b0d565b9050919050565b6000602082019050818103600083015261450a81613b73565b9050919050565b6000602082019050818103600083015261452a81613bd9565b9050919050565b6000602082019050818103600083015261454a81613c19565b9050919050565b6000602082019050818103600083015261456a81613c7f565b9050919050565b6000602082019050818103600083015261458a81613ce5565b9050919050565b600060208201905081810360008301526145aa81613d4b565b9050919050565b600060208201905081810360008301526145ca81613db1565b9050919050565b600060208201905081810360008301526145ea81613e17565b9050919050565b6000602082019050818103600083015261460a81613e7d565b9050919050565b6000602082019050818103600083015261462a81613ee3565b9050919050565b6000602082019050818103600083015261464a81613f89565b9050919050565b6000602082019050818103600083015261466a8161402f565b9050919050565b6000602082019050818103600083015261468a81614095565b9050919050565b60006040820190506146a660008301846140d5565b92915050565b60006020820190506146c16000830184614113565b92915050565b60006040820190506146dc6000830185614113565b6146e96020830184614113565b9392505050565b60006020820190506147056000830184614131565b92915050565b60006020820190506147206000830184614140565b92915050565b600081519050919050565b600082825260208201905092915050565b600081905092915050565b6000614758826148fe565b9150614763836148fe565b9250827fffffffffffffffffffffffffffffffffffffffffffffffffffffffffffffffff03821115614798576147976149be565b5b828201905092915050565b60006147ae826148fe565b91506147b9836148fe565b9250826147c9576147c86149ed565b5b828204905092915050565b60006147df826148fe565b91506147ea836148fe565b9250817fffffffffffffffffffffffffffffffffffffffffffffffffffffffffffffffff0483118215151615614823576148226149be565b5b828202905092915050565b6000614839826148fe565b9150614844836148fe565b925082821015614857576148566149be565b5b828203905092915050565b600061486d826148b6565b9050919050565b60008115159050919050565b6000819050919050565b60007fffffffff0000000000000000000000000000000000000000000000000000000082169050919050565b600073ffffffffffffffffffffffffffffffffffffffff82169050919050565b60007bffffffffffffffffffffffffffffffffffffffffffffffffffffffff82169050919050565b6000819050919050565b600063ffffffff82169050919050565b600060ff82169050919050565b60005b83811015614943578082015181840152602081019050614928565b83811115614952576000848401525b50505050565b6000614963826148fe565b91506000821415614977576149766149be565b5b600182039050919050565b6000600282049050600182168061499a57607f821691505b602082108114156149ae576149ad614a1c565b5b50919050565b6000819050919050565b7f4e487b7100000000000000000000000000000000000000000000000000000000600052601160045260246000fd5b7f4e487b7100000000000000000000000000000000000000000000000000000000600052601260045260246000fd5b7f4e487b7100000000000000000000000000000000000000000000000000000000600052602260045260246000fd5b6000601f19601f8301169050919050565b614a6581614862565b8114614a7057600080fd5b50565b614a7c81614880565b8114614a8757600080fd5b50565b614a938161488a565b8114614a9e57600080fd5b50565b614aaa816148fe565b8114614ab557600080fd5b50565b614ac181614908565b8114614acc57600080fd5b50565b614ad881614918565b8114614ae357600080fd5b5056fea2646970667358221220f9204e53ae580e9638e8c3a5506c1b106b98599aa450e0794c0b688d4849e6a064736f6c63430008000033",
  "immutableReferences": {
    "1766": [
      {
        "length": 32,
        "start": 4716
      }
    ],
    "2638": [
      {
        "length": 32,
        "start": 7991
      }
    ],
    "2640": [
      {
        "length": 32,
        "start": 7950
      }
    ],
    "2642": [
      {
        "length": 32,
        "start": 7864
      }
    ],
    "2644": [
      {
        "length": 32,
        "start": 8067
      }
    ],
    "2646": [
      {
        "length": 32,
        "start": 8100
      }
    ],
    "2648": [
      {
        "length": 32,
        "start": 8034
      }
    ]
  },
  "source": "// SPDX-License-Identifier: MIT\npragma solidity <=0.8.2;\n\nimport \"@openzeppelin/contracts/token/ERC20/ERC20.sol\";\nimport \"@openzeppelin/contracts/token/ERC20/extensions/ERC20Burnable.sol\";\nimport \"@openzeppelin/contracts/access/AccessControl.sol\";\nimport \"@openzeppelin/contracts/token/ERC20/extensions/draft-ERC20Permit.sol\";\nimport \"@openzeppelin/contracts/token/ERC20/extensions/ERC20Votes.sol\";\n\ncontract Grave is ERC20, ERC20Burnable, AccessControl, ERC20Permit, ERC20Votes {\n    bytes32 public constant MINTER_ROLE = keccak256(\"MINTER_ROLE\");\n\n    constructor() ERC20(\"Grave\", \"GRVE\") ERC20Permit(\"Grave\") {\n        _mint(msg.sender, 45990000 * 10 ** decimals());\n        _grantRole(DEFAULT_ADMIN_ROLE, msg.sender);\n        _grantRole(MINTER_ROLE, msg.sender);\n    }\n\n    function mint(address to, uint256 amount) public onlyRole(MINTER_ROLE) {\n        _mint(to, amount);\n    }\n\n    // The following functions are overrides required by Solidity.\n\n    function _afterTokenTransfer(address from, address to, uint256 amount)\n        internal\n        override(ERC20, ERC20Votes)\n    {\n        super._afterTokenTransfer(from, to, amount);\n    }\n\n    function _mint(address to, uint256 amount)\n        internal\n        override(ERC20, ERC20Votes)\n    {\n        super._mint(to, amount);\n    }\n\n    function _burn(address account, uint256 amount)\n        internal\n        override(ERC20, ERC20Votes)\n    {\n        super._burn(account, amount);\n    }\n}",
  "sourcePath": "/Users/alessandrodecristofaro/Desktop/DeFi Code/cryptoboys-nft-marketplace/src/contracts/Grave.sol",
  "compiler": {
    "name": "solc",
    "version": "0.8.0+commit.c7dfd78e.Emscripten.clang"
  },
  "schemaVersion": "3.4.3",
  "updatedAt": "2022-02-09T17:14:20.238Z",
  "devdoc": {
    "kind": "dev",
    "methods": {
      "DOMAIN_SEPARATOR()": {
        "details": "See {IERC20Permit-DOMAIN_SEPARATOR}."
      },
      "allowance(address,address)": {
        "details": "See {IERC20-allowance}."
      },
      "approve(address,uint256)": {
        "details": "See {IERC20-approve}. Requirements: - `spender` cannot be the zero address."
      },
      "balanceOf(address)": {
        "details": "See {IERC20-balanceOf}."
      },
      "burn(uint256)": {
        "details": "Destroys `amount` tokens from the caller. See {ERC20-_burn}."
      },
      "burnFrom(address,uint256)": {
        "details": "Destroys `amount` tokens from `account`, deducting from the caller's allowance. See {ERC20-_burn} and {ERC20-allowance}. Requirements: - the caller must have allowance for ``accounts``'s tokens of at least `amount`."
      },
      "checkpoints(address,uint32)": {
        "details": "Get the `pos`-th checkpoint for `account`."
      },
      "decimals()": {
        "details": "Returns the number of decimals used to get its user representation. For example, if `decimals` equals `2`, a balance of `505` tokens should be displayed to a user as `5.05` (`505 / 10 ** 2`). Tokens usually opt for a value of 18, imitating the relationship between Ether and Wei. This is the value {ERC20} uses, unless this function is overridden; NOTE: This information is only used for _display_ purposes: it in no way affects any of the arithmetic of the contract, including {IERC20-balanceOf} and {IERC20-transfer}."
      },
      "decreaseAllowance(address,uint256)": {
        "details": "Atomically decreases the allowance granted to `spender` by the caller. This is an alternative to {approve} that can be used as a mitigation for problems described in {IERC20-approve}. Emits an {Approval} event indicating the updated allowance. Requirements: - `spender` cannot be the zero address. - `spender` must have allowance for the caller of at least `subtractedValue`."
      },
      "delegate(address)": {
        "details": "Delegate votes from the sender to `delegatee`."
      },
      "delegateBySig(address,uint256,uint256,uint8,bytes32,bytes32)": {
        "details": "Delegates votes from signer to `delegatee`"
      },
      "delegates(address)": {
        "details": "Get the address `account` is currently delegating to."
      },
      "getPastTotalSupply(uint256)": {
        "details": "Retrieve the `totalSupply` at the end of `blockNumber`. Note, this value is the sum of all balances. It is but NOT the sum of all the delegated votes! Requirements: - `blockNumber` must have been already mined"
      },
      "getPastVotes(address,uint256)": {
        "details": "Retrieve the number of votes for `account` at the end of `blockNumber`. Requirements: - `blockNumber` must have been already mined"
      },
      "getRoleAdmin(bytes32)": {
        "details": "Returns the admin role that controls `role`. See {grantRole} and {revokeRole}. To change a role's admin, use {_setRoleAdmin}."
      },
      "getVotes(address)": {
        "details": "Gets the current votes balance for `account`"
      },
      "grantRole(bytes32,address)": {
        "details": "Grants `role` to `account`. If `account` had not been already granted `role`, emits a {RoleGranted} event. Requirements: - the caller must have ``role``'s admin role."
      },
      "hasRole(bytes32,address)": {
        "details": "Returns `true` if `account` has been granted `role`."
      },
      "increaseAllowance(address,uint256)": {
        "details": "Atomically increases the allowance granted to `spender` by the caller. This is an alternative to {approve} that can be used as a mitigation for problems described in {IERC20-approve}. Emits an {Approval} event indicating the updated allowance. Requirements: - `spender` cannot be the zero address."
      },
      "name()": {
        "details": "Returns the name of the token."
      },
      "nonces(address)": {
        "details": "See {IERC20Permit-nonces}."
      },
      "numCheckpoints(address)": {
        "details": "Get number of checkpoints for `account`."
      },
      "permit(address,address,uint256,uint256,uint8,bytes32,bytes32)": {
        "details": "See {IERC20Permit-permit}."
      },
      "renounceRole(bytes32,address)": {
        "details": "Revokes `role` from the calling account. Roles are often managed via {grantRole} and {revokeRole}: this function's purpose is to provide a mechanism for accounts to lose their privileges if they are compromised (such as when a trusted device is misplaced). If the calling account had been revoked `role`, emits a {RoleRevoked} event. Requirements: - the caller must be `account`."
      },
      "revokeRole(bytes32,address)": {
        "details": "Revokes `role` from `account`. If `account` had been granted `role`, emits a {RoleRevoked} event. Requirements: - the caller must have ``role``'s admin role."
      },
      "supportsInterface(bytes4)": {
        "details": "See {IERC165-supportsInterface}."
      },
      "symbol()": {
        "details": "Returns the symbol of the token, usually a shorter version of the name."
      },
      "totalSupply()": {
        "details": "See {IERC20-totalSupply}."
      },
      "transfer(address,uint256)": {
        "details": "See {IERC20-transfer}. Requirements: - `recipient` cannot be the zero address. - the caller must have a balance of at least `amount`."
      },
      "transferFrom(address,address,uint256)": {
        "details": "See {IERC20-transferFrom}. Emits an {Approval} event indicating the updated allowance. This is not required by the EIP. See the note at the beginning of {ERC20}. Requirements: - `sender` and `recipient` cannot be the zero address. - `sender` must have a balance of at least `amount`. - the caller must have allowance for ``sender``'s tokens of at least `amount`."
      }
    },
    "version": 1
  },
  "userdoc": {
    "kind": "user",
    "methods": {},
    "version": 1
  }
}