{
  "contractName": "Grave",
  "abi": [
    {
      "inputs": [],
      "stateMutability": "nonpayable",
      "type": "constructor"
    },
    {
      "anonymous": false,
      "inputs": [
        {
          "indexed": true,
          "internalType": "address",
          "name": "owner",
          "type": "address"
        },
        {
          "indexed": true,
          "internalType": "address",
          "name": "spender",
          "type": "address"
        },
        {
          "indexed": false,
          "internalType": "uint256",
          "name": "value",
          "type": "uint256"
        }
      ],
      "name": "Approval",
      "type": "event"
    },
    {
      "anonymous": false,
      "inputs": [
        {
          "indexed": true,
          "internalType": "address",
          "name": "delegator",
          "type": "address"
        },
        {
          "indexed": true,
          "internalType": "address",
          "name": "fromDelegate",
          "type": "address"
        },
        {
          "indexed": true,
          "internalType": "address",
          "name": "toDelegate",
          "type": "address"
        }
      ],
      "name": "DelegateChanged",
      "type": "event"
    },
    {
      "anonymous": false,
      "inputs": [
        {
          "indexed": true,
          "internalType": "address",
          "name": "delegate",
          "type": "address"
        },
        {
          "indexed": false,
          "internalType": "uint256",
          "name": "previousBalance",
          "type": "uint256"
        },
        {
          "indexed": false,
          "internalType": "uint256",
          "name": "newBalance",
          "type": "uint256"
        }
      ],
      "name": "DelegateVotesChanged",
      "type": "event"
    },
    {
      "anonymous": false,
      "inputs": [
        {
          "indexed": true,
          "internalType": "bytes32",
          "name": "role",
          "type": "bytes32"
        },
        {
          "indexed": true,
          "internalType": "bytes32",
          "name": "previousAdminRole",
          "type": "bytes32"
        },
        {
          "indexed": true,
          "internalType": "bytes32",
          "name": "newAdminRole",
          "type": "bytes32"
        }
      ],
      "name": "RoleAdminChanged",
      "type": "event"
    },
    {
      "anonymous": false,
      "inputs": [
        {
          "indexed": true,
          "internalType": "bytes32",
          "name": "role",
          "type": "bytes32"
        },
        {
          "indexed": true,
          "internalType": "address",
          "name": "account",
          "type": "address"
        },
        {
          "indexed": true,
          "internalType": "address",
          "name": "sender",
          "type": "address"
        }
      ],
      "name": "RoleGranted",
      "type": "event"
    },
    {
      "anonymous": false,
      "inputs": [
        {
          "indexed": true,
          "internalType": "bytes32",
          "name": "role",
          "type": "bytes32"
        },
        {
          "indexed": true,
          "internalType": "address",
          "name": "account",
          "type": "address"
        },
        {
          "indexed": true,
          "internalType": "address",
          "name": "sender",
          "type": "address"
        }
      ],
      "name": "RoleRevoked",
      "type": "event"
    },
    {
      "anonymous": false,
      "inputs": [
        {
          "indexed": true,
          "internalType": "address",
          "name": "from",
          "type": "address"
        },
        {
          "indexed": true,
          "internalType": "address",
          "name": "to",
          "type": "address"
        },
        {
          "indexed": false,
          "internalType": "uint256",
          "name": "value",
          "type": "uint256"
        }
      ],
      "name": "Transfer",
      "type": "event"
    },
    {
      "inputs": [],
      "name": "DEFAULT_ADMIN_ROLE",
      "outputs": [
        {
          "internalType": "bytes32",
          "name": "",
          "type": "bytes32"
        }
      ],
      "stateMutability": "view",
      "type": "function"
    },
    {
      "inputs": [],
      "name": "DOMAIN_SEPARATOR",
      "outputs": [
        {
          "internalType": "bytes32",
          "name": "",
          "type": "bytes32"
        }
      ],
      "stateMutability": "view",
      "type": "function"
    },
    {
      "inputs": [],
      "name": "MINTER_ROLE",
      "outputs": [
        {
          "internalType": "bytes32",
          "name": "",
          "type": "bytes32"
        }
      ],
      "stateMutability": "view",
      "type": "function"
    },
    {
      "inputs": [
        {
          "internalType": "address",
          "name": "owner",
          "type": "address"
        },
        {
          "internalType": "address",
          "name": "spender",
          "type": "address"
        }
      ],
      "name": "allowance",
      "outputs": [
        {
          "internalType": "uint256",
          "name": "",
          "type": "uint256"
        }
      ],
      "stateMutability": "view",
      "type": "function"
    },
    {
      "inputs": [
        {
          "internalType": "address",
          "name": "spender",
          "type": "address"
        },
        {
          "internalType": "uint256",
          "name": "amount",
          "type": "uint256"
        }
      ],
      "name": "approve",
      "outputs": [
        {
          "internalType": "bool",
          "name": "",
          "type": "bool"
        }
      ],
      "stateMutability": "nonpayable",
      "type": "function"
    },
    {
      "inputs": [
        {
          "internalType": "address",
          "name": "account",
          "type": "address"
        }
      ],
      "name": "balanceOf",
      "outputs": [
        {
          "internalType": "uint256",
          "name": "",
          "type": "uint256"
        }
      ],
      "stateMutability": "view",
      "type": "function"
    },
    {
      "inputs": [
        {
          "internalType": "uint256",
          "name": "amount",
          "type": "uint256"
        }
      ],
      "name": "burn",
      "outputs": [],
      "stateMutability": "nonpayable",
      "type": "function"
    },
    {
      "inputs": [
        {
          "internalType": "address",
          "name": "account",
          "type": "address"
        },
        {
          "internalType": "uint256",
          "name": "amount",
          "type": "uint256"
        }
      ],
      "name": "burnFrom",
      "outputs": [],
      "stateMutability": "nonpayable",
      "type": "function"
    },
    {
      "inputs": [],
      "name": "burnedAmount",
      "outputs": [
        {
          "internalType": "uint256",
          "name": "",
          "type": "uint256"
        }
      ],
      "stateMutability": "view",
      "type": "function"
    },
    {
      "inputs": [
        {
          "internalType": "address",
          "name": "account",
          "type": "address"
        },
        {
          "internalType": "uint32",
          "name": "pos",
          "type": "uint32"
        }
      ],
      "name": "checkpoints",
      "outputs": [
        {
          "components": [
            {
              "internalType": "uint32",
              "name": "fromBlock",
              "type": "uint32"
            },
            {
              "internalType": "uint224",
              "name": "votes",
              "type": "uint224"
            }
          ],
          "internalType": "struct ERC20Votes.Checkpoint",
          "name": "",
          "type": "tuple"
        }
      ],
      "stateMutability": "view",
      "type": "function"
    },
    {
      "inputs": [],
      "name": "decimals",
      "outputs": [
        {
          "internalType": "uint8",
          "name": "",
          "type": "uint8"
        }
      ],
      "stateMutability": "view",
      "type": "function"
    },
    {
      "inputs": [
        {
          "internalType": "address",
          "name": "spender",
          "type": "address"
        },
        {
          "internalType": "uint256",
          "name": "subtractedValue",
          "type": "uint256"
        }
      ],
      "name": "decreaseAllowance",
      "outputs": [
        {
          "internalType": "bool",
          "name": "",
          "type": "bool"
        }
      ],
      "stateMutability": "nonpayable",
      "type": "function"
    },
    {
      "inputs": [
        {
          "internalType": "address",
          "name": "delegatee",
          "type": "address"
        }
      ],
      "name": "delegate",
      "outputs": [],
      "stateMutability": "nonpayable",
      "type": "function"
    },
    {
      "inputs": [
        {
          "internalType": "address",
          "name": "delegatee",
          "type": "address"
        },
        {
          "internalType": "uint256",
          "name": "nonce",
          "type": "uint256"
        },
        {
          "internalType": "uint256",
          "name": "expiry",
          "type": "uint256"
        },
        {
          "internalType": "uint8",
          "name": "v",
          "type": "uint8"
        },
        {
          "internalType": "bytes32",
          "name": "r",
          "type": "bytes32"
        },
        {
          "internalType": "bytes32",
          "name": "s",
          "type": "bytes32"
        }
      ],
      "name": "delegateBySig",
      "outputs": [],
      "stateMutability": "nonpayable",
      "type": "function"
    },
    {
      "inputs": [
        {
          "internalType": "address",
          "name": "account",
          "type": "address"
        }
      ],
      "name": "delegates",
      "outputs": [
        {
          "internalType": "address",
          "name": "",
          "type": "address"
        }
      ],
      "stateMutability": "view",
      "type": "function"
    },
    {
      "inputs": [
        {
          "internalType": "uint256",
          "name": "blockNumber",
          "type": "uint256"
        }
      ],
      "name": "getPastTotalSupply",
      "outputs": [
        {
          "internalType": "uint256",
          "name": "",
          "type": "uint256"
        }
      ],
      "stateMutability": "view",
      "type": "function"
    },
    {
      "inputs": [
        {
          "internalType": "address",
          "name": "account",
          "type": "address"
        },
        {
          "internalType": "uint256",
          "name": "blockNumber",
          "type": "uint256"
        }
      ],
      "name": "getPastVotes",
      "outputs": [
        {
          "internalType": "uint256",
          "name": "",
          "type": "uint256"
        }
      ],
      "stateMutability": "view",
      "type": "function"
    },
    {
      "inputs": [
        {
          "internalType": "bytes32",
          "name": "role",
          "type": "bytes32"
        }
      ],
      "name": "getRoleAdmin",
      "outputs": [
        {
          "internalType": "bytes32",
          "name": "",
          "type": "bytes32"
        }
      ],
      "stateMutability": "view",
      "type": "function"
    },
    {
      "inputs": [
        {
          "internalType": "address",
          "name": "account",
          "type": "address"
        }
      ],
      "name": "getVotes",
      "outputs": [
        {
          "internalType": "uint256",
          "name": "",
          "type": "uint256"
        }
      ],
      "stateMutability": "view",
      "type": "function"
    },
    {
      "inputs": [
        {
          "internalType": "bytes32",
          "name": "role",
          "type": "bytes32"
        },
        {
          "internalType": "address",
          "name": "account",
          "type": "address"
        }
      ],
      "name": "grantRole",
      "outputs": [],
      "stateMutability": "nonpayable",
      "type": "function"
    },
    {
      "inputs": [
        {
          "internalType": "bytes32",
          "name": "role",
          "type": "bytes32"
        },
        {
          "internalType": "address",
          "name": "account",
          "type": "address"
        }
      ],
      "name": "hasRole",
      "outputs": [
        {
          "internalType": "bool",
          "name": "",
          "type": "bool"
        }
      ],
      "stateMutability": "view",
      "type": "function"
    },
    {
      "inputs": [
        {
          "internalType": "address",
          "name": "spender",
          "type": "address"
        },
        {
          "internalType": "uint256",
          "name": "addedValue",
          "type": "uint256"
        }
      ],
      "name": "increaseAllowance",
      "outputs": [
        {
          "internalType": "bool",
          "name": "",
          "type": "bool"
        }
      ],
      "stateMutability": "nonpayable",
      "type": "function"
    },
    {
      "inputs": [],
      "name": "name",
      "outputs": [
        {
          "internalType": "string",
          "name": "",
          "type": "string"
        }
      ],
      "stateMutability": "view",
      "type": "function"
    },
    {
      "inputs": [
        {
          "internalType": "address",
          "name": "owner",
          "type": "address"
        }
      ],
      "name": "nonces",
      "outputs": [
        {
          "internalType": "uint256",
          "name": "",
          "type": "uint256"
        }
      ],
      "stateMutability": "view",
      "type": "function"
    },
    {
      "inputs": [
        {
          "internalType": "address",
          "name": "account",
          "type": "address"
        }
      ],
      "name": "numCheckpoints",
      "outputs": [
        {
          "internalType": "uint32",
          "name": "",
          "type": "uint32"
        }
      ],
      "stateMutability": "view",
      "type": "function"
    },
    {
      "inputs": [
        {
          "internalType": "address",
          "name": "owner",
          "type": "address"
        },
        {
          "internalType": "address",
          "name": "spender",
          "type": "address"
        },
        {
          "internalType": "uint256",
          "name": "value",
          "type": "uint256"
        },
        {
          "internalType": "uint256",
          "name": "deadline",
          "type": "uint256"
        },
        {
          "internalType": "uint8",
          "name": "v",
          "type": "uint8"
        },
        {
          "internalType": "bytes32",
          "name": "r",
          "type": "bytes32"
        },
        {
          "internalType": "bytes32",
          "name": "s",
          "type": "bytes32"
        }
      ],
      "name": "permit",
      "outputs": [],
      "stateMutability": "nonpayable",
      "type": "function"
    },
    {
      "inputs": [
        {
          "internalType": "bytes32",
          "name": "role",
          "type": "bytes32"
        },
        {
          "internalType": "address",
          "name": "account",
          "type": "address"
        }
      ],
      "name": "renounceRole",
      "outputs": [],
      "stateMutability": "nonpayable",
      "type": "function"
    },
    {
      "inputs": [
        {
          "internalType": "bytes32",
          "name": "role",
          "type": "bytes32"
        },
        {
          "internalType": "address",
          "name": "account",
          "type": "address"
        }
      ],
      "name": "revokeRole",
      "outputs": [],
      "stateMutability": "nonpayable",
      "type": "function"
    },
    {
      "inputs": [
        {
          "internalType": "bytes4",
          "name": "interfaceId",
          "type": "bytes4"
        }
      ],
      "name": "supportsInterface",
      "outputs": [
        {
          "internalType": "bool",
          "name": "",
          "type": "bool"
        }
      ],
      "stateMutability": "view",
      "type": "function"
    },
    {
      "inputs": [],
      "name": "symbol",
      "outputs": [
        {
          "internalType": "string",
          "name": "",
          "type": "string"
        }
      ],
      "stateMutability": "view",
      "type": "function"
    },
    {
      "inputs": [],
      "name": "totalSupply",
      "outputs": [
        {
          "internalType": "uint256",
          "name": "",
          "type": "uint256"
        }
      ],
      "stateMutability": "view",
      "type": "function"
    },
    {
      "inputs": [
        {
          "internalType": "address",
          "name": "recipient",
          "type": "address"
        },
        {
          "internalType": "uint256",
          "name": "amount",
          "type": "uint256"
        }
      ],
      "name": "transfer",
      "outputs": [
        {
          "internalType": "bool",
          "name": "",
          "type": "bool"
        }
      ],
      "stateMutability": "nonpayable",
      "type": "function"
    },
    {
      "inputs": [
        {
          "internalType": "address",
          "name": "sender",
          "type": "address"
        },
        {
          "internalType": "address",
          "name": "recipient",
          "type": "address"
        },
        {
          "internalType": "uint256",
          "name": "amount",
          "type": "uint256"
        }
      ],
      "name": "transferFrom",
      "outputs": [
        {
          "internalType": "bool",
          "name": "",
          "type": "bool"
        }
      ],
      "stateMutability": "nonpayable",
      "type": "function"
    }
  ],
  "bytecode": "0x6101606040527f6e71edae12b1b97f4d1f60370fef10105fa2faae0126114a169c64845d6126c9610140908152506000600a553480156200003f57600080fd5b506040518060400160405280600581526020017f4772617665000000000000000000000000000000000000000000000000000000815250806040518060400160405280600181526020017f31000000000000000000000000000000000000000000000000000000000000008152506040518060400160405280600581526020017f47726176650000000000000000000000000000000000000000000000000000008152506040518060400160405280600481526020017f475256450000000000000000000000000000000000000000000000000000000081525081600390805190602001906200013192919062000dce565b5080600490805190602001906200014a92919062000dce565b50505060008280519060200120905060008280519060200120905060007f8b73c3c69bb8fe3d512ecc4cf759cc79239f7b179b0ffacaa9a75d522b39400f90508260e081815250508161010081815250504660a08181525050620001b68184846200029060201b60201c565b608081815250503073ffffffffffffffffffffffffffffffffffffffff1660c08173ffffffffffffffffffffffffffffffffffffffff1660601b81525050806101208181525050505050505050620002433362000218620002cc60201b60201c565b600a62000226919062001145565b6302bdc07062000237919062001282565b620002d560201b60201c565b620002586000801b33620002f060201b60201c565b6200028a7f9f2df0fed2c77648de5860a4cc508cd0818c85b8b8a1ab4ceeef8d981c8956a633620002f060201b60201c565b6200152a565b60008383834630604051602001620002ad95949392919062000f4d565b6040516020818303038152906040528051906020012090509392505050565b60006012905090565b620002ec8282620003e260201b620015381760201c565b5050565b620003028282620004a060201b60201c565b620003de5760016005600084815260200190815260200160002060000160008373ffffffffffffffffffffffffffffffffffffffff1673ffffffffffffffffffffffffffffffffffffffff16815260200190815260200160002060006101000a81548160ff021916908315150217905550620003836200050b60201b60201c565b73ffffffffffffffffffffffffffffffffffffffff168173ffffffffffffffffffffffffffffffffffffffff16837f2f8788117e7eff1d82e926ec794901d17c78024a50270940304540a733656f0d60405160405180910390a45b5050565b620003f982826200051360201b620015c51760201c565b620004096200068c60201b60201c565b7bffffffffffffffffffffffffffffffffffffffffffffffffffffffff1662000437620006b060201b60201c565b11156200047b576040517f08c379a0000000000000000000000000000000000000000000000000000000008152600401620004729062000faa565b60405180910390fd5b6200049a6009620006ba60201b620017251783620006d260201b60201c565b50505050565b60006005600084815260200190815260200160002060000160008373ffffffffffffffffffffffffffffffffffffffff1673ffffffffffffffffffffffffffffffffffffffff16815260200190815260200160002060009054906101000a900460ff16905092915050565b600033905090565b600073ffffffffffffffffffffffffffffffffffffffff168273ffffffffffffffffffffffffffffffffffffffff16141562000586576040517f08c379a00000000000000000000000000000000000000000000000000000000081526004016200057d9062001010565b60405180910390fd5b6200059a60008383620009ef60201b60201c565b8060026000828254620005ae91906200108d565b92505081905550806000808473ffffffffffffffffffffffffffffffffffffffff1673ffffffffffffffffffffffffffffffffffffffff16815260200190815260200160002060008282546200060591906200108d565b925050819055508173ffffffffffffffffffffffffffffffffffffffff16600073ffffffffffffffffffffffffffffffffffffffff167fddf252ad1be2c89b69c2b068fc378daa952ba7f163c4a11628f55a4df523b3ef836040516200066c919062001032565b60405180910390a36200068860008383620009f460201b60201c565b5050565b60007bffffffffffffffffffffffffffffffffffffffffffffffffffffffff905090565b6000600254905090565b60008183620006ca91906200108d565b905092915050565b600080600085805490509050600081146200076b5785600182620006f79190620012e3565b815481106200072f577f4e487b7100000000000000000000000000000000000000000000000000000000600052603260045260246000fd5b9060005260206000200160000160049054906101000a90047bffffffffffffffffffffffffffffffffffffffffffffffffffffffff166200076e565b60005b7bffffffffffffffffffffffffffffffffffffffffffffffffffffffff1692506200079a83858760201c565b91506000811180156200081757504386600183620007b99190620012e3565b81548110620007f1577f4e487b7100000000000000000000000000000000000000000000000000000000600052603260045260246000fd5b9060005260206000200160000160009054906101000a900463ffffffff1663ffffffff16145b15620008dc57620008338262000a1160201b6200173b1760201c565b86600183620008439190620012e3565b815481106200087b577f4e487b7100000000000000000000000000000000000000000000000000000000600052603260045260246000fd5b9060005260206000200160000160046101000a8154817bffffffffffffffffffffffffffffffffffffffffffffffffffffffff02191690837bffffffffffffffffffffffffffffffffffffffffffffffffffffffff160217905550620009e6565b856040518060400160405280620008fe4362000a7f60201b620017a61760201c565b63ffffffff1681526020016200091f8562000a1160201b6200173b1760201c565b7bffffffffffffffffffffffffffffffffffffffffffffffffffffffff168152509080600181540180825580915050600190039060005260206000200160009091909190915060008201518160000160006101000a81548163ffffffff021916908363ffffffff16021790555060208201518160000160046101000a8154817bffffffffffffffffffffffffffffffffffffffffffffffffffffffff02191690837bffffffffffffffffffffffffffffffffffffffffffffffffffffffff16021790555050505b50935093915050565b505050565b62000a0c83838362000ad560201b620017f91760201c565b505050565b60007bffffffffffffffffffffffffffffffffffffffffffffffffffffffff801682111562000a77576040517f08c379a000000000000000000000000000000000000000000000000000000000815260040162000a6e9062000fcc565b60405180910390fd5b819050919050565b600063ffffffff801682111562000acd576040517f08c379a000000000000000000000000000000000000000000000000000000000815260040162000ac49062000fee565b60405180910390fd5b819050919050565b62000aed83838362000b2560201b620018241760201c565b62000b2062000b028462000b2a60201b60201c565b62000b138462000b2a60201b60201c565b8362000b9360201b60201c565b505050565b505050565b6000600760008373ffffffffffffffffffffffffffffffffffffffff1673ffffffffffffffffffffffffffffffffffffffff16815260200190815260200160002060009054906101000a900473ffffffffffffffffffffffffffffffffffffffff169050919050565b8173ffffffffffffffffffffffffffffffffffffffff168373ffffffffffffffffffffffffffffffffffffffff161415801562000bd05750600081115b1562000db157600073ffffffffffffffffffffffffffffffffffffffff168373ffffffffffffffffffffffffffffffffffffffff161462000cc35760008062000c6a600860008773ffffffffffffffffffffffffffffffffffffffff1673ffffffffffffffffffffffffffffffffffffffff16815260200190815260200160002062000db660201b620018291785620006d260201b60201c565b915091508473ffffffffffffffffffffffffffffffffffffffff167fdec2bacdd2f05b59de34da9b523dff8be42e5e38e818c82fdb0bae774387a724838360405162000cb89291906200104f565b60405180910390a250505b600073ffffffffffffffffffffffffffffffffffffffff168273ffffffffffffffffffffffffffffffffffffffff161462000db05760008062000d57600860008673ffffffffffffffffffffffffffffffffffffffff1673ffffffffffffffffffffffffffffffffffffffff168152602001908152602001600020620006ba60201b620017251785620006d260201b60201c565b915091508373ffffffffffffffffffffffffffffffffffffffff167fdec2bacdd2f05b59de34da9b523dff8be42e5e38e818c82fdb0bae774387a724838360405162000da59291906200104f565b60405180910390a250505b5b505050565b6000818362000dc69190620012e3565b905092915050565b82805462000ddc9062001373565b90600052602060002090601f01602090048101928262000e00576000855562000e4c565b82601f1062000e1b57805160ff191683800117855562000e4c565b8280016001018555821562000e4c579182015b8281111562000e4b57825182559160200191906001019062000e2e565b5b50905062000e5b919062000e5f565b5090565b5b8082111562000e7a57600081600090555060010162000e60565b5090565b62000e89816200131e565b82525050565b62000e9a8162001332565b82525050565b600062000eaf6030836200107c565b915062000ebc8262001414565b604082019050919050565b600062000ed66027836200107c565b915062000ee38262001463565b604082019050919050565b600062000efd6026836200107c565b915062000f0a82620014b2565b604082019050919050565b600062000f24601f836200107c565b915062000f318262001501565b602082019050919050565b62000f47816200135c565b82525050565b600060a08201905062000f64600083018862000e8f565b62000f73602083018762000e8f565b62000f82604083018662000e8f565b62000f91606083018562000f3c565b62000fa0608083018462000e7e565b9695505050505050565b6000602082019050818103600083015262000fc58162000ea0565b9050919050565b6000602082019050818103600083015262000fe78162000ec7565b9050919050565b60006020820190508181036000830152620010098162000eee565b9050919050565b600060208201905081810360008301526200102b8162000f15565b9050919050565b600060208201905062001049600083018462000f3c565b92915050565b600060408201905062001066600083018562000f3c565b62001075602083018462000f3c565b9392505050565b600082825260208201905092915050565b60006200109a826200135c565b9150620010a7836200135c565b9250827fffffffffffffffffffffffffffffffffffffffffffffffffffffffffffffffff03821115620010df57620010de620013a9565b5b828201905092915050565b6000808291508390505b60018511156200113c57808604811115620011145762001113620013a9565b5b6001851615620011245780820291505b8081029050620011348562001407565b9450620010f4565b94509492505050565b600062001152826200135c565b91506200115f8362001366565b92506200118e7fffffffffffffffffffffffffffffffffffffffffffffffffffffffffffffffff848462001196565b905092915050565b600082620011a857600190506200127b565b81620011b857600090506200127b565b8160018114620011d15760028114620011dc5762001212565b60019150506200127b565b60ff841115620011f157620011f0620013a9565b5b8360020a9150848211156200120b576200120a620013a9565b5b506200127b565b5060208310610133831016604e8410600b84101617156200124c5782820a905083811115620012465762001245620013a9565b5b6200127b565b6200125b8484846001620010ea565b92509050818404811115620012755762001274620013a9565b5b81810290505b9392505050565b60006200128f826200135c565b91506200129c836200135c565b9250817fffffffffffffffffffffffffffffffffffffffffffffffffffffffffffffffff0483118215151615620012d857620012d7620013a9565b5b828202905092915050565b6000620012f0826200135c565b9150620012fd836200135c565b925082821015620013135762001312620013a9565b5b828203905092915050565b60006200132b826200133c565b9050919050565b6000819050919050565b600073ffffffffffffffffffffffffffffffffffffffff82169050919050565b6000819050919050565b600060ff82169050919050565b600060028204905060018216806200138c57607f821691505b60208210811415620013a357620013a2620013d8565b5b50919050565b7f4e487b7100000000000000000000000000000000000000000000000000000000600052601160045260246000fd5b7f4e487b7100000000000000000000000000000000000000000000000000000000600052602260045260246000fd5b60008160011c9050919050565b7f4552433230566f7465733a20746f74616c20737570706c79207269736b73206f60008201527f766572666c6f77696e6720766f74657300000000000000000000000000000000602082015250565b7f53616665436173743a2076616c756520646f65736e27742066697420696e203260008201527f3234206269747300000000000000000000000000000000000000000000000000602082015250565b7f53616665436173743a2076616c756520646f65736e27742066697420696e203360008201527f3220626974730000000000000000000000000000000000000000000000000000602082015250565b7f45524332303a206d696e7420746f20746865207a65726f206164647265737300600082015250565b60805160a05160c05160601c60e051610100516101205161014051614c3e62001588600039600061123301526000611f2901526000611f6b01526000611f4a01526000611e7f01526000611ed501526000611efe0152614c3e6000f3fe608060405234801561001057600080fd5b50600436106101fb5760003560e01c80636fcfff451161011a578063a217fddf116100ad578063d505accf1161007c578063d505accf1461064a578063d539139314610666578063d547741f14610684578063dd62ed3e146106a0578063f1127ed8146106d0576101fb565b8063a217fddf146105b0578063a457c2d7146105ce578063a9059cbb146105fe578063c3cda5201461062e576101fb565b80638e539e8c116100e95780638e539e8c1461050257806391d148541461053257806395d89b41146105625780639ab24eb014610580576101fb565b80636fcfff451461045657806370a082311461048657806379cc6790146104b65780637ecebe00146104d2576101fb565b80633644e5151161019257806342966c681161016157806342966c68146103d057806350e15fdd146103ec578063587cde1e1461040a5780635c19a95c1461043a576101fb565b80633644e5151461033657806336568abe1461035457806339509351146103705780633a46b1a8146103a0576101fb565b806323b872dd116101ce57806323b872dd1461029c578063248a9ca3146102cc5780632f2ff15d146102fc578063313ce56714610318576101fb565b806301ffc9a71461020057806306fdde0314610230578063095ea7b31461024e57806318160ddd1461027e575b600080fd5b61021a60048036038101906102159190613647565b610700565b6040516102279190613c21565b60405180910390f35b61023861077a565b6040516102459190613d95565b60405180910390f35b610268600480360381019061026391906134e1565b61080c565b6040516102759190613c21565b60405180910390f35b61028661082a565b60405161029391906140f2565b60405180910390f35b6102b660048036038101906102b191906133f4565b610834565b6040516102c39190613c21565b60405180910390f35b6102e660048036038101906102e191906135e2565b61092c565b6040516102f39190613c3c565b60405180910390f35b6103166004803603810190610311919061360b565b61094c565b005b610320610975565b60405161032d9190614151565b60405180910390f35b61033e61097e565b60405161034b9190613c3c565b60405180910390f35b61036e6004803603810190610369919061360b565b61098d565b005b61038a600480360381019061038591906134e1565b610a10565b6040516103979190613c21565b60405180910390f35b6103ba60048036038101906103b591906134e1565b610abc565b6040516103c791906140f2565b60405180910390f35b6103ea60048036038101906103e59190613670565b610b50565b005b6103f4610b64565b60405161040191906140f2565b60405180910390f35b610424600480360381019061041f919061338f565b610b6a565b6040516104319190613c06565b60405180910390f35b610454600480360381019061044f919061338f565b610bd3565b005b610470600480360381019061046b919061338f565b610be7565b60405161047d9190614136565b60405180910390f35b6104a0600480360381019061049b919061338f565b610c3b565b6040516104ad91906140f2565b60405180910390f35b6104d060048036038101906104cb91906134e1565b610c83565b005b6104ec60048036038101906104e7919061338f565b610cfe565b6040516104f991906140f2565b60405180910390f35b61051c60048036038101906105179190613670565b610d4e565b60405161052991906140f2565b60405180910390f35b61054c6004803603810190610547919061360b565b610da4565b6040516105599190613c21565b60405180910390f35b61056a610e0f565b6040516105779190613d95565b60405180910390f35b61059a6004803603810190610595919061338f565b610ea1565b6040516105a791906140f2565b60405180910390f35b6105b8610fd8565b6040516105c59190613c3c565b60405180910390f35b6105e860048036038101906105e391906134e1565b610fdf565b6040516105f59190613c21565b60405180910390f35b610618600480360381019061061391906134e1565b6110ca565b6040516106259190613c21565b60405180910390f35b6106486004803603810190610643919061351d565b6110e8565b005b610664600480360381019061065f9190613443565b6111ec565b005b61066e61132e565b60405161067b9190613c3c565b60405180910390f35b61069e6004803603810190610699919061360b565b611352565b005b6106ba60048036038101906106b591906133b8565b61137b565b6040516106c791906140f2565b60405180910390f35b6106ea60048036038101906106e591906135a6565b611402565b6040516106f791906140d7565b60405180910390f35b60007f7965db0b000000000000000000000000000000000000000000000000000000007bffffffffffffffffffffffffffffffffffffffffffffffffffffffff1916827bffffffffffffffffffffffffffffffffffffffffffffffffffffffff1916148061077357506107728261183f565b5b9050919050565b606060038054610789906143c8565b80601f01602080910402602001604051908101604052809291908181526020018280546107b5906143c8565b80156108025780601f106107d757610100808354040283529160200191610802565b820191906000526020600020905b8154815290600101906020018083116107e557829003601f168201915b5050505050905090565b60006108206108196118a9565b84846118b1565b6001905092915050565b6000600254905090565b6000610841848484611a7c565b6000600160008673ffffffffffffffffffffffffffffffffffffffff1673ffffffffffffffffffffffffffffffffffffffff168152602001908152602001600020600061088c6118a9565b73ffffffffffffffffffffffffffffffffffffffff1673ffffffffffffffffffffffffffffffffffffffff1681526020019081526020016000205490508281101561090c576040517f08c379a000000000000000000000000000000000000000000000000000000000815260040161090390613f77565b60405180910390fd5b610920856109186118a9565b8584036118b1565b60019150509392505050565b600060056000838152602001908152602001600020600101549050919050565b6109558261092c565b610966816109616118a9565b611cfd565b6109708383611d9a565b505050565b60006012905090565b6000610988611e7b565b905090565b6109956118a9565b73ffffffffffffffffffffffffffffffffffffffff168173ffffffffffffffffffffffffffffffffffffffff1614610a02576040517f08c379a00000000000000000000000000000000000000000000000000000000081526004016109f990614097565b60405180910390fd5b610a0c8282611f95565b5050565b6000610ab2610a1d6118a9565b848460016000610a2b6118a9565b73ffffffffffffffffffffffffffffffffffffffff1673ffffffffffffffffffffffffffffffffffffffff16815260200190815260200160002060008873ffffffffffffffffffffffffffffffffffffffff1673ffffffffffffffffffffffffffffffffffffffff16815260200190815260200160002054610aad9190614193565b6118b1565b6001905092915050565b6000438210610b00576040517f08c379a0000000000000000000000000000000000000000000000000000000008152600401610af790613e17565b60405180910390fd5b610b48600860008573ffffffffffffffffffffffffffffffffffffffff1673ffffffffffffffffffffffffffffffffffffffff16815260200190815260200160002083612077565b905092915050565b610b61610b5b6118a9565b826121cf565b50565b600a5481565b6000600760008373ffffffffffffffffffffffffffffffffffffffff1673ffffffffffffffffffffffffffffffffffffffff16815260200190815260200160002060009054906101000a900473ffffffffffffffffffffffffffffffffffffffff169050919050565b610be4610bde6118a9565b826121f6565b50565b6000610c34600860008473ffffffffffffffffffffffffffffffffffffffff1673ffffffffffffffffffffffffffffffffffffffff168152602001908152602001600020805490506117a6565b9050919050565b60008060008373ffffffffffffffffffffffffffffffffffffffff1673ffffffffffffffffffffffffffffffffffffffff168152602001908152602001600020549050919050565b6000610c9683610c916118a9565b61137b565b905081811015610cdb576040517f08c379a0000000000000000000000000000000000000000000000000000000008152600401610cd290613fd7565b60405180910390fd5b610cef83610ce76118a9565b8484036118b1565b610cf983836121cf565b505050565b6000610d47600660008473ffffffffffffffffffffffffffffffffffffffff1673ffffffffffffffffffffffffffffffffffffffff168152602001908152602001600020612310565b9050919050565b6000438210610d92576040517f08c379a0000000000000000000000000000000000000000000000000000000008152600401610d8990613e17565b60405180910390fd5b610d9d600983612077565b9050919050565b60006005600084815260200190815260200160002060000160008373ffffffffffffffffffffffffffffffffffffffff1673ffffffffffffffffffffffffffffffffffffffff16815260200190815260200160002060009054906101000a900460ff16905092915050565b606060048054610e1e906143c8565b80601f0160208091040260200160405190810160405280929190818152602001828054610e4a906143c8565b8015610e975780601f10610e6c57610100808354040283529160200191610e97565b820191906000526020600020905b815481529060010190602001808311610e7a57829003601f168201915b5050505050905090565b600080600860008473ffffffffffffffffffffffffffffffffffffffff1673ffffffffffffffffffffffffffffffffffffffff16815260200190815260200160002080549050905060008114610faf57600860008473ffffffffffffffffffffffffffffffffffffffff1673ffffffffffffffffffffffffffffffffffffffff168152602001908152602001600020600182610f3d9190614274565b81548110610f74577f4e487b7100000000000000000000000000000000000000000000000000000000600052603260045260246000fd5b9060005260206000200160000160049054906101000a90047bffffffffffffffffffffffffffffffffffffffffffffffffffffffff16610fb2565b60005b7bffffffffffffffffffffffffffffffffffffffffffffffffffffffff16915050919050565b6000801b81565b60008060016000610fee6118a9565b73ffffffffffffffffffffffffffffffffffffffff1673ffffffffffffffffffffffffffffffffffffffff16815260200190815260200160002060008573ffffffffffffffffffffffffffffffffffffffff1673ffffffffffffffffffffffffffffffffffffffff168152602001908152602001600020549050828110156110ab576040517f08c379a00000000000000000000000000000000000000000000000000000000081526004016110a290614077565b60405180910390fd5b6110bf6110b66118a9565b858584036118b1565b600191505092915050565b60006110de6110d76118a9565b8484611a7c565b6001905092915050565b8342111561112b576040517f08c379a000000000000000000000000000000000000000000000000000000000815260040161112290613e37565b60405180910390fd5b600061118d6111857fe48329057bfd03d55e49b547132e39cffd9c1820ad7b9d4c5307691425d15adf89898960405160200161116a9493929190613cb8565b6040516020818303038152906040528051906020012061231e565b858585612338565b905061119881612363565b86146111d9576040517f08c379a00000000000000000000000000000000000000000000000000000000081526004016111d090613e97565b60405180910390fd5b6111e381886121f6565b50505050505050565b8342111561122f576040517f08c379a000000000000000000000000000000000000000000000000000000000815260040161122690613ed7565b60405180910390fd5b60007f000000000000000000000000000000000000000000000000000000000000000088888861125e8c612363565b8960405160200161127496959493929190613c57565b60405160208183030381529060405280519060200120905060006112978261231e565b905060006112a782878787612338565b90508973ffffffffffffffffffffffffffffffffffffffff168173ffffffffffffffffffffffffffffffffffffffff1614611317576040517f08c379a000000000000000000000000000000000000000000000000000000000815260040161130e90613f57565b60405180910390fd5b6113228a8a8a6118b1565b50505050505050505050565b7f9f2df0fed2c77648de5860a4cc508cd0818c85b8b8a1ab4ceeef8d981c8956a681565b61135b8261092c565b61136c816113676118a9565b611cfd565b6113768383611f95565b505050565b6000600160008473ffffffffffffffffffffffffffffffffffffffff1673ffffffffffffffffffffffffffffffffffffffff16815260200190815260200160002060008373ffffffffffffffffffffffffffffffffffffffff1673ffffffffffffffffffffffffffffffffffffffff16815260200190815260200160002054905092915050565b61140a6132d3565b600860008473ffffffffffffffffffffffffffffffffffffffff1673ffffffffffffffffffffffffffffffffffffffff1681526020019081526020016000208263ffffffff1681548110611487577f4e487b7100000000000000000000000000000000000000000000000000000000600052603260045260246000fd5b906000526020600020016040518060400160405290816000820160009054906101000a900463ffffffff1663ffffffff1663ffffffff1681526020016000820160049054906101000a90047bffffffffffffffffffffffffffffffffffffffffffffffffffffffff167bffffffffffffffffffffffffffffffffffffffffffffffffffffffff167bffffffffffffffffffffffffffffffffffffffffffffffffffffffff1681525050905092915050565b61154282826115c5565b61154a6123c1565b7bffffffffffffffffffffffffffffffffffffffffffffffffffffffff1661157061082a565b11156115b1576040517f08c379a00000000000000000000000000000000000000000000000000000000081526004016115a890613f97565b60405180910390fd5b6115bf6009611725836123e5565b50505050565b600073ffffffffffffffffffffffffffffffffffffffff168273ffffffffffffffffffffffffffffffffffffffff161415611635576040517f08c379a000000000000000000000000000000000000000000000000000000000815260040161162c906140b7565b60405180910390fd5b611641600083836126cf565b80600260008282546116539190614193565b92505081905550806000808473ffffffffffffffffffffffffffffffffffffffff1673ffffffffffffffffffffffffffffffffffffffff16815260200190815260200160002060008282546116a89190614193565b925050819055508173ffffffffffffffffffffffffffffffffffffffff16600073ffffffffffffffffffffffffffffffffffffffff167fddf252ad1be2c89b69c2b068fc378daa952ba7f163c4a11628f55a4df523b3ef8360405161170d91906140f2565b60405180910390a3611721600083836126d4565b5050565b600081836117339190614193565b905092915050565b60007bffffffffffffffffffffffffffffffffffffffffffffffffffffffff801682111561179e576040517f08c379a000000000000000000000000000000000000000000000000000000000815260040161179590613fb7565b60405180910390fd5b819050919050565b600063ffffffff80168211156117f1576040517f08c379a00000000000000000000000000000000000000000000000000000000081526004016117e890614037565b60405180910390fd5b819050919050565b611804838383611824565b61181f61181084610b6a565b61181984610b6a565b836126e4565b505050565b505050565b600081836118379190614274565b905092915050565b60007f01ffc9a7000000000000000000000000000000000000000000000000000000007bffffffffffffffffffffffffffffffffffffffffffffffffffffffff1916827bffffffffffffffffffffffffffffffffffffffffffffffffffffffff1916149050919050565b600033905090565b600073ffffffffffffffffffffffffffffffffffffffff168373ffffffffffffffffffffffffffffffffffffffff161415611921576040517f08c379a000000000000000000000000000000000000000000000000000000000815260040161191890614057565b60405180910390fd5b600073ffffffffffffffffffffffffffffffffffffffff168273ffffffffffffffffffffffffffffffffffffffff161415611991576040517f08c379a000000000000000000000000000000000000000000000000000000000815260040161198890613eb7565b60405180910390fd5b80600160008573ffffffffffffffffffffffffffffffffffffffff1673ffffffffffffffffffffffffffffffffffffffff16815260200190815260200160002060008473ffffffffffffffffffffffffffffffffffffffff1673ffffffffffffffffffffffffffffffffffffffff168152602001908152602001600020819055508173ffffffffffffffffffffffffffffffffffffffff168373ffffffffffffffffffffffffffffffffffffffff167f8c5be1e5ebec7d5bd14f71427d1e84f3dd0314c0f7b2291e5b200ac8c7c3b92583604051611a6f91906140f2565b60405180910390a3505050565b600073ffffffffffffffffffffffffffffffffffffffff168373ffffffffffffffffffffffffffffffffffffffff161415611aec576040517f08c379a0000000000000000000000000000000000000000000000000000000008152600401611ae390614017565b60405180910390fd5b600073ffffffffffffffffffffffffffffffffffffffff168273ffffffffffffffffffffffffffffffffffffffff161415611b5c576040517f08c379a0000000000000000000000000000000000000000000000000000000008152600401611b5390613df7565b60405180910390fd5b611b678383836126cf565b60008060008573ffffffffffffffffffffffffffffffffffffffff1673ffffffffffffffffffffffffffffffffffffffff16815260200190815260200160002054905081811015611bed576040517f08c379a0000000000000000000000000000000000000000000000000000000008152600401611be490613ef7565b60405180910390fd5b8181036000808673ffffffffffffffffffffffffffffffffffffffff1673ffffffffffffffffffffffffffffffffffffffff16815260200190815260200160002081905550816000808573ffffffffffffffffffffffffffffffffffffffff1673ffffffffffffffffffffffffffffffffffffffff1681526020019081526020016000206000828254611c809190614193565b925050819055508273ffffffffffffffffffffffffffffffffffffffff168473ffffffffffffffffffffffffffffffffffffffff167fddf252ad1be2c89b69c2b068fc378daa952ba7f163c4a11628f55a4df523b3ef84604051611ce491906140f2565b60405180910390a3611cf78484846126d4565b50505050565b611d078282610da4565b611d9657611d2c8173ffffffffffffffffffffffffffffffffffffffff1660146128dd565b611d3a8360001c60206128dd565b604051602001611d4b929190613bcc565b6040516020818303038152906040526040517f08c379a0000000000000000000000000000000000000000000000000000000008152600401611d8d9190613d95565b60405180910390fd5b5050565b611da48282610da4565b611e775760016005600084815260200190815260200160002060000160008373ffffffffffffffffffffffffffffffffffffffff1673ffffffffffffffffffffffffffffffffffffffff16815260200190815260200160002060006101000a81548160ff021916908315150217905550611e1c6118a9565b73ffffffffffffffffffffffffffffffffffffffff168173ffffffffffffffffffffffffffffffffffffffff16837f2f8788117e7eff1d82e926ec794901d17c78024a50270940304540a733656f0d60405160405180910390a45b5050565b60007f000000000000000000000000000000000000000000000000000000000000000073ffffffffffffffffffffffffffffffffffffffff163073ffffffffffffffffffffffffffffffffffffffff16148015611ef757507f000000000000000000000000000000000000000000000000000000000000000046145b15611f24577f00000000000000000000000000000000000000000000000000000000000000009050611f92565b611f8f7f00000000000000000000000000000000000000000000000000000000000000007f00000000000000000000000000000000000000000000000000000000000000007f0000000000000000000000000000000000000000000000000000000000000000612bd7565b90505b90565b611f9f8282610da4565b156120735760006005600084815260200190815260200160002060000160008373ffffffffffffffffffffffffffffffffffffffff1673ffffffffffffffffffffffffffffffffffffffff16815260200190815260200160002060006101000a81548160ff0219169083151502179055506120186118a9565b73ffffffffffffffffffffffffffffffffffffffff168173ffffffffffffffffffffffffffffffffffffffff16837ff6391f5c32d9c69d2a47ea670b442974b53935d1edc7fd64eb21e047a839171b60405160405180910390a45b5050565b6000808380549050905060005b8181101561211c5760006120988284612c11565b9050848682815481106120d4577f4e487b7100000000000000000000000000000000000000000000000000000000600052603260045260246000fd5b9060005260206000200160000160009054906101000a900463ffffffff1663ffffffff16111561210657809250612116565b6001816121139190614193565b91505b50612084565b600082146121a457846001836121329190614274565b81548110612169577f4e487b7100000000000000000000000000000000000000000000000000000000600052603260045260246000fd5b9060005260206000200160000160049054906101000a90047bffffffffffffffffffffffffffffffffffffffffffffffffffffffff166121a7565b60005b7bffffffffffffffffffffffffffffffffffffffffffffffffffffffff169250505092915050565b6121d98282612c37565b80600a60008282546121eb9190614193565b925050819055505050565b600061220183610b6a565b9050600061220e84610c3b565b905082600760008673ffffffffffffffffffffffffffffffffffffffff1673ffffffffffffffffffffffffffffffffffffffff16815260200190815260200160002060006101000a81548173ffffffffffffffffffffffffffffffffffffffff021916908373ffffffffffffffffffffffffffffffffffffffff1602179055508273ffffffffffffffffffffffffffffffffffffffff168273ffffffffffffffffffffffffffffffffffffffff168573ffffffffffffffffffffffffffffffffffffffff167f3134e8a2e6d97e929a7e54011ea5485d7d196dd5f0ba4d4ef95803e8e3fc257f60405160405180910390a461230a8284836126e4565b50505050565b600081600001549050919050565b600061233161232b611e7b565b83612c55565b9050919050565b600080600061234987878787612c88565b9150915061235681612d95565b8192505050949350505050565b600080600660008473ffffffffffffffffffffffffffffffffffffffff1673ffffffffffffffffffffffffffffffffffffffff16815260200190815260200160002090506123b081612310565b91506123bb816130e6565b50919050565b60007bffffffffffffffffffffffffffffffffffffffffffffffffffffffff905090565b6000806000858054905090506000811461247957856001826124079190614274565b8154811061243e577f4e487b7100000000000000000000000000000000000000000000000000000000600052603260045260246000fd5b9060005260206000200160000160049054906101000a90047bffffffffffffffffffffffffffffffffffffffffffffffffffffffff1661247c565b60005b7bffffffffffffffffffffffffffffffffffffffffffffffffffffffff1692506124aa83858763ffffffff16565b9150600081118015612523575043866001836124c69190614274565b815481106124fd577f4e487b7100000000000000000000000000000000000000000000000000000000600052603260045260246000fd5b9060005260206000200160000160009054906101000a900463ffffffff1663ffffffff16145b156125d6576125318261173b565b8660018361253f9190614274565b81548110612576577f4e487b7100000000000000000000000000000000000000000000000000000000600052603260045260246000fd5b9060005260206000200160000160046101000a8154817bffffffffffffffffffffffffffffffffffffffffffffffffffffffff02191690837bffffffffffffffffffffffffffffffffffffffffffffffffffffffff1602179055506126c6565b8560405180604001604052806125eb436117a6565b63ffffffff1681526020016125ff8561173b565b7bffffffffffffffffffffffffffffffffffffffffffffffffffffffff168152509080600181540180825580915050600190039060005260206000200160009091909190915060008201518160000160006101000a81548163ffffffff021916908363ffffffff16021790555060208201518160000160046101000a8154817bffffffffffffffffffffffffffffffffffffffffffffffffffffffff02191690837bffffffffffffffffffffffffffffffffffffffffffffffffffffffff16021790555050505b50935093915050565b505050565b6126df8383836117f9565b505050565b8173ffffffffffffffffffffffffffffffffffffffff168373ffffffffffffffffffffffffffffffffffffffff16141580156127205750600081115b156128d857600073ffffffffffffffffffffffffffffffffffffffff168373ffffffffffffffffffffffffffffffffffffffff16146127fe576000806127a7600860008773ffffffffffffffffffffffffffffffffffffffff1673ffffffffffffffffffffffffffffffffffffffff168152602001908152602001600020611829856123e5565b915091508473ffffffffffffffffffffffffffffffffffffffff167fdec2bacdd2f05b59de34da9b523dff8be42e5e38e818c82fdb0bae774387a72483836040516127f392919061410d565b60405180910390a250505b600073ffffffffffffffffffffffffffffffffffffffff168273ffffffffffffffffffffffffffffffffffffffff16146128d757600080612880600860008673ffffffffffffffffffffffffffffffffffffffff1673ffffffffffffffffffffffffffffffffffffffff168152602001908152602001600020611725856123e5565b915091508373ffffffffffffffffffffffffffffffffffffffff167fdec2bacdd2f05b59de34da9b523dff8be42e5e38e818c82fdb0bae774387a72483836040516128cc92919061410d565b60405180910390a250505b5b505050565b6060600060028360026128f0919061421a565b6128fa9190614193565b67ffffffffffffffff811115612939577f4e487b7100000000000000000000000000000000000000000000000000000000600052604160045260246000fd5b6040519080825280601f01601f19166020018201604052801561296b5781602001600182028036833780820191505090505b5090507f3000000000000000000000000000000000000000000000000000000000000000816000815181106129c9577f4e487b7100000000000000000000000000000000000000000000000000000000600052603260045260246000fd5b60200101907effffffffffffffffffffffffffffffffffffffffffffffffffffffffffffff1916908160001a9053507f780000000000000000000000000000000000000000000000000000000000000081600181518110612a53577f4e487b7100000000000000000000000000000000000000000000000000000000600052603260045260246000fd5b60200101907effffffffffffffffffffffffffffffffffffffffffffffffffffffffffffff1916908160001a90535060006001846002612a93919061421a565b612a9d9190614193565b90505b6001811115612b89577f3031323334353637383961626364656600000000000000000000000000000000600f861660108110612b05577f4e487b7100000000000000000000000000000000000000000000000000000000600052603260045260246000fd5b1a60f81b828281518110612b42577f4e487b7100000000000000000000000000000000000000000000000000000000600052603260045260246000fd5b60200101907effffffffffffffffffffffffffffffffffffffffffffffffffffffffffffff1916908160001a905350600485901c945080612b829061439e565b9050612aa0565b5060008414612bcd576040517f08c379a0000000000000000000000000000000000000000000000000000000008152600401612bc490613dd7565b60405180910390fd5b8091505092915050565b60008383834630604051602001612bf2959493929190613cfd565b6040516020818303038152906040528051906020012090509392505050565b60006002828418612c2291906141e9565b828416612c2f9190614193565b905092915050565b612c4182826130fc565b612c4f6009611829836123e5565b50505050565b60008282604051602001612c6a929190613b95565b60405160208183030381529060405280519060200120905092915050565b6000807f7fffffffffffffffffffffffffffffff5d576e7357a4501ddfe92f46681b20a08360001c1115612cc3576000600391509150612d8c565b601b8560ff1614158015612cdb5750601c8560ff1614155b15612ced576000600491509150612d8c565b600060018787878760405160008152602001604052604051612d129493929190613d50565b6020604051602081039080840390855afa158015612d34573d6000803e3d6000fd5b505050602060405103519050600073ffffffffffffffffffffffffffffffffffffffff168173ffffffffffffffffffffffffffffffffffffffff161415612d8357600060019250925050612d8c565b80600092509250505b94509492505050565b60006004811115612dcf577f4e487b7100000000000000000000000000000000000000000000000000000000600052602160045260246000fd5b816004811115612e08577f4e487b7100000000000000000000000000000000000000000000000000000000600052602160045260246000fd5b1415612e13576130e3565b60016004811115612e4d577f4e487b7100000000000000000000000000000000000000000000000000000000600052602160045260246000fd5b816004811115612e86577f4e487b7100000000000000000000000000000000000000000000000000000000600052602160045260246000fd5b1415612ec7576040517f08c379a0000000000000000000000000000000000000000000000000000000008152600401612ebe90613db7565b60405180910390fd5b60026004811115612f01577f4e487b7100000000000000000000000000000000000000000000000000000000600052602160045260246000fd5b816004811115612f3a577f4e487b7100000000000000000000000000000000000000000000000000000000600052602160045260246000fd5b1415612f7b576040517f08c379a0000000000000000000000000000000000000000000000000000000008152600401612f7290613e77565b60405180910390fd5b60036004811115612fb5577f4e487b7100000000000000000000000000000000000000000000000000000000600052602160045260246000fd5b816004811115612fee577f4e487b7100000000000000000000000000000000000000000000000000000000600052602160045260246000fd5b141561302f576040517f08c379a000000000000000000000000000000000000000000000000000000000815260040161302690613f17565b60405180910390fd5b600480811115613068577f4e487b7100000000000000000000000000000000000000000000000000000000600052602160045260246000fd5b8160048111156130a1577f4e487b7100000000000000000000000000000000000000000000000000000000600052602160045260246000fd5b14156130e2576040517f08c379a00000000000000000000000000000000000000000000000000000000081526004016130d990613f37565b60405180910390fd5b5b50565b6001816000016000828254019250508190555050565b600073ffffffffffffffffffffffffffffffffffffffff168273ffffffffffffffffffffffffffffffffffffffff16141561316c576040517f08c379a000000000000000000000000000000000000000000000000000000000815260040161316390613ff7565b60405180910390fd5b613178826000836126cf565b60008060008473ffffffffffffffffffffffffffffffffffffffff1673ffffffffffffffffffffffffffffffffffffffff168152602001908152602001600020549050818110156131fe576040517f08c379a00000000000000000000000000000000000000000000000000000000081526004016131f590613e57565b60405180910390fd5b8181036000808573ffffffffffffffffffffffffffffffffffffffff1673ffffffffffffffffffffffffffffffffffffffff1681526020019081526020016000208190555081600260008282546132559190614274565b92505081905550600073ffffffffffffffffffffffffffffffffffffffff168373ffffffffffffffffffffffffffffffffffffffff167fddf252ad1be2c89b69c2b068fc378daa952ba7f163c4a11628f55a4df523b3ef846040516132ba91906140f2565b60405180910390a36132ce836000846126d4565b505050565b6040518060400160405280600063ffffffff16815260200160007bffffffffffffffffffffffffffffffffffffffffffffffffffffffff1681525090565b60008135905061332081614b7e565b92915050565b60008135905061333581614b95565b92915050565b60008135905061334a81614bac565b92915050565b60008135905061335f81614bc3565b92915050565b60008135905061337481614bda565b92915050565b60008135905061338981614bf1565b92915050565b6000602082840312156133a157600080fd5b60006133af84828501613311565b91505092915050565b600080604083850312156133cb57600080fd5b60006133d985828601613311565b92505060206133ea85828601613311565b9150509250929050565b60008060006060848603121561340957600080fd5b600061341786828701613311565b935050602061342886828701613311565b925050604061343986828701613350565b9150509250925092565b600080600080600080600060e0888a03121561345e57600080fd5b600061346c8a828b01613311565b975050602061347d8a828b01613311565b965050604061348e8a828b01613350565b955050606061349f8a828b01613350565b94505060806134b08a828b0161337a565b93505060a06134c18a828b01613326565b92505060c06134d28a828b01613326565b91505092959891949750929550565b600080604083850312156134f457600080fd5b600061350285828601613311565b925050602061351385828601613350565b9150509250929050565b60008060008060008060c0878903121561353657600080fd5b600061354489828a01613311565b965050602061355589828a01613350565b955050604061356689828a01613350565b945050606061357789828a0161337a565b935050608061358889828a01613326565b92505060a061359989828a01613326565b9150509295509295509295565b600080604083850312156135b957600080fd5b60006135c785828601613311565b92505060206135d885828601613365565b9150509250929050565b6000602082840312156135f457600080fd5b600061360284828501613326565b91505092915050565b6000806040838503121561361e57600080fd5b600061362c85828601613326565b925050602061363d85828601613311565b9150509250929050565b60006020828403121561365957600080fd5b60006136678482850161333b565b91505092915050565b60006020828403121561368257600080fd5b600061369084828501613350565b91505092915050565b6136a2816142a8565b82525050565b6136b1816142ba565b82525050565b6136c0816142c6565b82525050565b6136d76136d2826142c6565b6143fa565b82525050565b60006136e88261416c565b6136f28185614177565b935061370281856020860161436b565b61370b81614491565b840191505092915050565b60006137218261416c565b61372b8185614188565b935061373b81856020860161436b565b80840191505092915050565b6000613754601883614177565b915061375f826144a2565b602082019050919050565b6000613777602083614177565b9150613782826144cb565b602082019050919050565b600061379a602383614177565b91506137a5826144f4565b604082019050919050565b60006137bd601f83614177565b91506137c882614543565b602082019050919050565b60006137e0601d83614177565b91506137eb8261456c565b602082019050919050565b6000613803602283614177565b915061380e82614595565b604082019050919050565b6000613826601f83614177565b9150613831826145e4565b602082019050919050565b6000613849601983614177565b91506138548261460d565b602082019050919050565b600061386c602283614177565b915061387782614636565b604082019050919050565b600061388f600283614188565b915061389a82614685565b600282019050919050565b60006138b2601d83614177565b91506138bd826146ae565b602082019050919050565b60006138d5602683614177565b91506138e0826146d7565b604082019050919050565b60006138f8602283614177565b915061390382614726565b604082019050919050565b600061391b602283614177565b915061392682614775565b604082019050919050565b600061393e601e83614177565b9150613949826147c4565b602082019050919050565b6000613961602883614177565b915061396c826147ed565b604082019050919050565b6000613984603083614177565b915061398f8261483c565b604082019050919050565b60006139a7602783614177565b91506139b28261488b565b604082019050919050565b60006139ca602483614177565b91506139d5826148da565b604082019050919050565b60006139ed602183614177565b91506139f882614929565b604082019050919050565b6000613a10602583614177565b9150613a1b82614978565b604082019050919050565b6000613a33602683614177565b9150613a3e826149c7565b604082019050919050565b6000613a56602483614177565b9150613a6182614a16565b604082019050919050565b6000613a79601783614188565b9150613a8482614a65565b601782019050919050565b6000613a9c602583614177565b9150613aa782614a8e565b604082019050919050565b6000613abf601183614188565b9150613aca82614add565b601182019050919050565b6000613ae2602f83614177565b9150613aed82614b06565b604082019050919050565b6000613b05601f83614177565b9150613b1082614b55565b602082019050919050565b604082016000820151613b316000850182613b68565b506020820151613b446020850182613b4a565b50505050565b613b538161431c565b82525050565b613b6281614344565b82525050565b613b718161434e565b82525050565b613b808161434e565b82525050565b613b8f8161435e565b82525050565b6000613ba082613882565b9150613bac82856136c6565b602082019150613bbc82846136c6565b6020820191508190509392505050565b6000613bd782613a6c565b9150613be38285613716565b9150613bee82613ab2565b9150613bfa8284613716565b91508190509392505050565b6000602082019050613c1b6000830184613699565b92915050565b6000602082019050613c3660008301846136a8565b92915050565b6000602082019050613c5160008301846136b7565b92915050565b600060c082019050613c6c60008301896136b7565b613c796020830188613699565b613c866040830187613699565b613c936060830186613b59565b613ca06080830185613b59565b613cad60a0830184613b59565b979650505050505050565b6000608082019050613ccd60008301876136b7565b613cda6020830186613699565b613ce76040830185613b59565b613cf46060830184613b59565b95945050505050565b600060a082019050613d1260008301886136b7565b613d1f60208301876136b7565b613d2c60408301866136b7565b613d396060830185613b59565b613d466080830184613699565b9695505050505050565b6000608082019050613d6560008301876136b7565b613d726020830186613b86565b613d7f60408301856136b7565b613d8c60608301846136b7565b95945050505050565b60006020820190508181036000830152613daf81846136dd565b905092915050565b60006020820190508181036000830152613dd081613747565b9050919050565b60006020820190508181036000830152613df08161376a565b9050919050565b60006020820190508181036000830152613e108161378d565b9050919050565b60006020820190508181036000830152613e30816137b0565b9050919050565b60006020820190508181036000830152613e50816137d3565b9050919050565b60006020820190508181036000830152613e70816137f6565b9050919050565b60006020820190508181036000830152613e9081613819565b9050919050565b60006020820190508181036000830152613eb08161383c565b9050919050565b60006020820190508181036000830152613ed08161385f565b9050919050565b60006020820190508181036000830152613ef0816138a5565b9050919050565b60006020820190508181036000830152613f10816138c8565b9050919050565b60006020820190508181036000830152613f30816138eb565b9050919050565b60006020820190508181036000830152613f508161390e565b9050919050565b60006020820190508181036000830152613f7081613931565b9050919050565b60006020820190508181036000830152613f9081613954565b9050919050565b60006020820190508181036000830152613fb081613977565b9050919050565b60006020820190508181036000830152613fd08161399a565b9050919050565b60006020820190508181036000830152613ff0816139bd565b9050919050565b60006020820190508181036000830152614010816139e0565b9050919050565b6000602082019050818103600083015261403081613a03565b9050919050565b6000602082019050818103600083015261405081613a26565b9050919050565b6000602082019050818103600083015261407081613a49565b9050919050565b6000602082019050818103600083015261409081613a8f565b9050919050565b600060208201905081810360008301526140b081613ad5565b9050919050565b600060208201905081810360008301526140d081613af8565b9050919050565b60006040820190506140ec6000830184613b1b565b92915050565b60006020820190506141076000830184613b59565b92915050565b60006040820190506141226000830185613b59565b61412f6020830184613b59565b9392505050565b600060208201905061414b6000830184613b77565b92915050565b60006020820190506141666000830184613b86565b92915050565b600081519050919050565b600082825260208201905092915050565b600081905092915050565b600061419e82614344565b91506141a983614344565b9250827fffffffffffffffffffffffffffffffffffffffffffffffffffffffffffffffff038211156141de576141dd614404565b5b828201905092915050565b60006141f482614344565b91506141ff83614344565b92508261420f5761420e614433565b5b828204905092915050565b600061422582614344565b915061423083614344565b9250817fffffffffffffffffffffffffffffffffffffffffffffffffffffffffffffffff048311821515161561426957614268614404565b5b828202905092915050565b600061427f82614344565b915061428a83614344565b92508282101561429d5761429c614404565b5b828203905092915050565b60006142b3826142fc565b9050919050565b60008115159050919050565b6000819050919050565b60007fffffffff0000000000000000000000000000000000000000000000000000000082169050919050565b600073ffffffffffffffffffffffffffffffffffffffff82169050919050565b60007bffffffffffffffffffffffffffffffffffffffffffffffffffffffff82169050919050565b6000819050919050565b600063ffffffff82169050919050565b600060ff82169050919050565b60005b8381101561438957808201518184015260208101905061436e565b83811115614398576000848401525b50505050565b60006143a982614344565b915060008214156143bd576143bc614404565b5b600182039050919050565b600060028204905060018216806143e057607f821691505b602082108114156143f4576143f3614462565b5b50919050565b6000819050919050565b7f4e487b7100000000000000000000000000000000000000000000000000000000600052601160045260246000fd5b7f4e487b7100000000000000000000000000000000000000000000000000000000600052601260045260246000fd5b7f4e487b7100000000000000000000000000000000000000000000000000000000600052602260045260246000fd5b6000601f19601f8301169050919050565b7f45434453413a20696e76616c6964207369676e61747572650000000000000000600082015250565b7f537472696e67733a20686578206c656e67746820696e73756666696369656e74600082015250565b7f45524332303a207472616e7366657220746f20746865207a65726f206164647260008201527f6573730000000000000000000000000000000000000000000000000000000000602082015250565b7f4552433230566f7465733a20626c6f636b206e6f7420796574206d696e656400600082015250565b7f4552433230566f7465733a207369676e61747572652065787069726564000000600082015250565b7f45524332303a206275726e20616d6f756e7420657863656564732062616c616e60008201527f6365000000000000000000000000000000000000000000000000000000000000602082015250565b7f45434453413a20696e76616c6964207369676e6174757265206c656e67746800600082015250565b7f4552433230566f7465733a20696e76616c6964206e6f6e636500000000000000600082015250565b7f45524332303a20617070726f766520746f20746865207a65726f20616464726560008201527f7373000000000000000000000000000000000000000000000000000000000000602082015250565b7f1901000000000000000000000000000000000000000000000000000000000000600082015250565b7f45524332305065726d69743a206578706972656420646561646c696e65000000600082015250565b7f45524332303a207472616e7366657220616d6f756e742065786365656473206260008201527f616c616e63650000000000000000000000000000000000000000000000000000602082015250565b7f45434453413a20696e76616c6964207369676e6174757265202773272076616c60008201527f7565000000000000000000000000000000000000000000000000000000000000602082015250565b7f45434453413a20696e76616c6964207369676e6174757265202776272076616c60008201527f7565000000000000000000000000000000000000000000000000000000000000602082015250565b7f45524332305065726d69743a20696e76616c6964207369676e61747572650000600082015250565b7f45524332303a207472616e7366657220616d6f756e742065786365656473206160008201527f6c6c6f77616e6365000000000000000000000000000000000000000000000000602082015250565b7f4552433230566f7465733a20746f74616c20737570706c79207269736b73206f60008201527f766572666c6f77696e6720766f74657300000000000000000000000000000000602082015250565b7f53616665436173743a2076616c756520646f65736e27742066697420696e203260008201527f3234206269747300000000000000000000000000000000000000000000000000602082015250565b7f45524332303a206275726e20616d6f756e74206578636565647320616c6c6f7760008201527f616e636500000000000000000000000000000000000000000000000000000000602082015250565b7f45524332303a206275726e2066726f6d20746865207a65726f2061646472657360008201527f7300000000000000000000000000000000000000000000000000000000000000602082015250565b7f45524332303a207472616e736665722066726f6d20746865207a65726f20616460008201527f6472657373000000000000000000000000000000000000000000000000000000602082015250565b7f53616665436173743a2076616c756520646f65736e27742066697420696e203360008201527f3220626974730000000000000000000000000000000000000000000000000000602082015250565b7f45524332303a20617070726f76652066726f6d20746865207a65726f2061646460008201527f7265737300000000000000000000000000000000000000000000000000000000602082015250565b7f416363657373436f6e74726f6c3a206163636f756e7420000000000000000000600082015250565b7f45524332303a2064656372656173656420616c6c6f77616e63652062656c6f7760008201527f207a65726f000000000000000000000000000000000000000000000000000000602082015250565b7f206973206d697373696e6720726f6c6520000000000000000000000000000000600082015250565b7f416363657373436f6e74726f6c3a2063616e206f6e6c792072656e6f756e636560008201527f20726f6c657320666f722073656c660000000000000000000000000000000000602082015250565b7f45524332303a206d696e7420746f20746865207a65726f206164647265737300600082015250565b614b87816142a8565b8114614b9257600080fd5b50565b614b9e816142c6565b8114614ba957600080fd5b50565b614bb5816142d0565b8114614bc057600080fd5b50565b614bcc81614344565b8114614bd757600080fd5b50565b614be38161434e565b8114614bee57600080fd5b50565b614bfa8161435e565b8114614c0557600080fd5b5056fea26469706673582212208c0b6300d4d308c9bb34f04e3bde6e13b300bf183919c368bf18ae8e460aa7c264736f6c63430008010033",
  "immutableReferences": {
    "1766": [
      {
        "length": 32,
        "start": 4659
      }
    ],
    "2772": [
      {
        "length": 32,
        "start": 7934
      }
    ],
    "2774": [
      {
        "length": 32,
        "start": 7893
      }
    ],
    "2776": [
      {
        "length": 32,
        "start": 7807
      }
    ],
    "2778": [
      {
        "length": 32,
        "start": 8010
      }
    ],
    "2780": [
      {
        "length": 32,
        "start": 8043
      }
    ],
    "2782": [
      {
        "length": 32,
        "start": 7977
      }
    ]
  },
  "source": "// SPDX-License-Identifier: MIT\npragma solidity <=0.8.2;\n\nimport \"@openzeppelin/contracts/token/ERC20/ERC20.sol\";\nimport \"@openzeppelin/contracts/token/ERC20/extensions/ERC20Burnable.sol\";\nimport \"@openzeppelin/contracts/access/AccessControl.sol\";\nimport \"@openzeppelin/contracts/token/ERC20/extensions/draft-ERC20Permit.sol\";\nimport \"@openzeppelin/contracts/token/ERC20/extensions/ERC20Votes.sol\";\n\ncontract Grave is ERC20, ERC20Burnable, AccessControl, ERC20Permit, ERC20Votes {\n    bytes32 public constant MINTER_ROLE = keccak256(\"MINTER_ROLE\");\n    uint public burnedAmount = 0;\n\n    constructor() ERC20(\"Grave\", \"GRVE\") ERC20Permit(\"Grave\") {\n        _mint(msg.sender, 45990000 * 10 ** decimals());\n        _grantRole(DEFAULT_ADMIN_ROLE, msg.sender);\n        _grantRole(MINTER_ROLE, msg.sender);\n    }\n\n    // The following functions are overrides required by Solidity.\n\n    function _afterTokenTransfer(address from, address to, uint256 amount)\n        internal\n        override(ERC20, ERC20Votes)\n    {\n        super._afterTokenTransfer(from, to, amount);\n    }\n\n    function _mint(address to, uint256 amount)\n        internal\n        override(ERC20, ERC20Votes)\n    {\n        super._mint(to, amount);\n    }\n\n    function _burn(address account, uint256 amount)\n        internal\n        override(ERC20, ERC20Votes)\n    {\n        super._burn(account, amount);\n        burnedAmount += amount;\n    }\n}",
  "sourcePath": "/Users/alessandrodecristofaro/Desktop/DeFi Code/croskull-repo/src/contracts/Grave.sol",
  "compiler": {
    "name": "solc",
    "version": "0.8.1+commit.df193b15.Emscripten.clang"
  },
  "schemaVersion": "3.4.3",
  "updatedAt": "2022-02-28T23:32:50.744Z",
  "devdoc": {
    "kind": "dev",
    "methods": {
      "DOMAIN_SEPARATOR()": {
        "details": "See {IERC20Permit-DOMAIN_SEPARATOR}."
      },
      "allowance(address,address)": {
        "details": "See {IERC20-allowance}."
      },
      "approve(address,uint256)": {
        "details": "See {IERC20-approve}. Requirements: - `spender` cannot be the zero address."
      },
      "balanceOf(address)": {
        "details": "See {IERC20-balanceOf}."
      },
      "burn(uint256)": {
        "details": "Destroys `amount` tokens from the caller. See {ERC20-_burn}."
      },
      "burnFrom(address,uint256)": {
        "details": "Destroys `amount` tokens from `account`, deducting from the caller's allowance. See {ERC20-_burn} and {ERC20-allowance}. Requirements: - the caller must have allowance for ``accounts``'s tokens of at least `amount`."
      },
      "checkpoints(address,uint32)": {
        "details": "Get the `pos`-th checkpoint for `account`."
      },
      "decimals()": {
        "details": "Returns the number of decimals used to get its user representation. For example, if `decimals` equals `2`, a balance of `505` tokens should be displayed to a user as `5.05` (`505 / 10 ** 2`). Tokens usually opt for a value of 18, imitating the relationship between Ether and Wei. This is the value {ERC20} uses, unless this function is overridden; NOTE: This information is only used for _display_ purposes: it in no way affects any of the arithmetic of the contract, including {IERC20-balanceOf} and {IERC20-transfer}."
      },
      "decreaseAllowance(address,uint256)": {
        "details": "Atomically decreases the allowance granted to `spender` by the caller. This is an alternative to {approve} that can be used as a mitigation for problems described in {IERC20-approve}. Emits an {Approval} event indicating the updated allowance. Requirements: - `spender` cannot be the zero address. - `spender` must have allowance for the caller of at least `subtractedValue`."
      },
      "delegate(address)": {
        "details": "Delegate votes from the sender to `delegatee`."
      },
      "delegateBySig(address,uint256,uint256,uint8,bytes32,bytes32)": {
        "details": "Delegates votes from signer to `delegatee`"
      },
      "delegates(address)": {
        "details": "Get the address `account` is currently delegating to."
      },
      "getPastTotalSupply(uint256)": {
        "details": "Retrieve the `totalSupply` at the end of `blockNumber`. Note, this value is the sum of all balances. It is but NOT the sum of all the delegated votes! Requirements: - `blockNumber` must have been already mined"
      },
      "getPastVotes(address,uint256)": {
        "details": "Retrieve the number of votes for `account` at the end of `blockNumber`. Requirements: - `blockNumber` must have been already mined"
      },
      "getRoleAdmin(bytes32)": {
        "details": "Returns the admin role that controls `role`. See {grantRole} and {revokeRole}. To change a role's admin, use {_setRoleAdmin}."
      },
      "getVotes(address)": {
        "details": "Gets the current votes balance for `account`"
      },
      "grantRole(bytes32,address)": {
        "details": "Grants `role` to `account`. If `account` had not been already granted `role`, emits a {RoleGranted} event. Requirements: - the caller must have ``role``'s admin role."
      },
      "hasRole(bytes32,address)": {
        "details": "Returns `true` if `account` has been granted `role`."
      },
      "increaseAllowance(address,uint256)": {
        "details": "Atomically increases the allowance granted to `spender` by the caller. This is an alternative to {approve} that can be used as a mitigation for problems described in {IERC20-approve}. Emits an {Approval} event indicating the updated allowance. Requirements: - `spender` cannot be the zero address."
      },
      "name()": {
        "details": "Returns the name of the token."
      },
      "nonces(address)": {
        "details": "See {IERC20Permit-nonces}."
      },
      "numCheckpoints(address)": {
        "details": "Get number of checkpoints for `account`."
      },
      "permit(address,address,uint256,uint256,uint8,bytes32,bytes32)": {
        "details": "See {IERC20Permit-permit}."
      },
      "renounceRole(bytes32,address)": {
        "details": "Revokes `role` from the calling account. Roles are often managed via {grantRole} and {revokeRole}: this function's purpose is to provide a mechanism for accounts to lose their privileges if they are compromised (such as when a trusted device is misplaced). If the calling account had been revoked `role`, emits a {RoleRevoked} event. Requirements: - the caller must be `account`."
      },
      "revokeRole(bytes32,address)": {
        "details": "Revokes `role` from `account`. If `account` had been granted `role`, emits a {RoleRevoked} event. Requirements: - the caller must have ``role``'s admin role."
      },
      "supportsInterface(bytes4)": {
        "details": "See {IERC165-supportsInterface}."
      },
      "symbol()": {
        "details": "Returns the symbol of the token, usually a shorter version of the name."
      },
      "totalSupply()": {
        "details": "See {IERC20-totalSupply}."
      },
      "transfer(address,uint256)": {
        "details": "See {IERC20-transfer}. Requirements: - `recipient` cannot be the zero address. - the caller must have a balance of at least `amount`."
      },
      "transferFrom(address,address,uint256)": {
        "details": "See {IERC20-transferFrom}. Emits an {Approval} event indicating the updated allowance. This is not required by the EIP. See the note at the beginning of {ERC20}. Requirements: - `sender` and `recipient` cannot be the zero address. - `sender` must have a balance of at least `amount`. - the caller must have allowance for ``sender``'s tokens of at least `amount`."
      }
    },
    "version": 1
  },
  "userdoc": {
    "kind": "user",
    "methods": {},
    "version": 1
  }
}