{
  "contractName": "nftDescription",
  "abi": [
    {
      "inputs": [],
      "stateMutability": "nonpayable",
      "type": "constructor"
    },
    {
      "anonymous": false,
      "inputs": [
        {
          "indexed": false,
          "internalType": "address",
          "name": "ownerOf",
          "type": "address"
        },
        {
          "indexed": true,
          "internalType": "uint256",
          "name": "tokenId",
          "type": "uint256"
        },
        {
          "indexed": false,
          "internalType": "string",
          "name": "ipfsHash",
          "type": "string"
        }
      ],
      "name": "DescriptionUpdate",
      "type": "event"
    },
    {
      "inputs": [],
      "name": "ICroSkull",
      "outputs": [
        {
          "internalType": "contract IERC721",
          "name": "",
          "type": "address"
        }
      ],
      "stateMutability": "view",
      "type": "function",
      "constant": true
    },
    {
      "inputs": [],
      "name": "IGrave",
      "outputs": [
        {
          "internalType": "contract IERC20",
          "name": "",
          "type": "address"
        }
      ],
      "stateMutability": "view",
      "type": "function",
      "constant": true
    },
    {
      "inputs": [
        {
          "internalType": "uint256",
          "name": "",
          "type": "uint256"
        }
      ],
      "name": "descriptionHashes",
      "outputs": [
        {
          "internalType": "string",
          "name": "",
          "type": "string"
        }
      ],
      "stateMutability": "view",
      "type": "function",
      "constant": true
    },
    {
      "inputs": [],
      "name": "owner",
      "outputs": [
        {
          "internalType": "address",
          "name": "",
          "type": "address"
        }
      ],
      "stateMutability": "view",
      "type": "function",
      "constant": true
    },
    {
      "inputs": [
        {
          "internalType": "uint256",
          "name": "skullId",
          "type": "uint256"
        },
        {
          "internalType": "string",
          "name": "ipfsHash",
          "type": "string"
        }
      ],
      "name": "updateUsingCRO",
      "outputs": [],
      "stateMutability": "payable",
      "type": "function",
      "payable": true
    },
    {
      "inputs": [
        {
          "internalType": "uint256",
          "name": "skullId",
          "type": "uint256"
        },
        {
          "internalType": "string",
          "name": "ipfsHash",
          "type": "string"
        }
      ],
      "name": "updateUsingGrave",
      "outputs": [],
      "stateMutability": "nonpayable",
      "type": "function"
    },
    {
      "inputs": [],
      "name": "_getCostInGrave",
      "outputs": [
        {
          "internalType": "uint256",
          "name": "",
          "type": "uint256"
        }
      ],
      "stateMutability": "view",
      "type": "function",
      "constant": true
    },
    {
      "inputs": [],
      "name": "_getcostInCRO",
      "outputs": [
        {
          "internalType": "uint256",
          "name": "",
          "type": "uint256"
        }
      ],
      "stateMutability": "view",
      "type": "function",
      "constant": true
    },
    {
      "inputs": [
        {
          "internalType": "address",
          "name": "ownerOf",
          "type": "address"
        },
        {
          "internalType": "uint256",
          "name": "tokenId",
          "type": "uint256"
        },
        {
          "internalType": "string",
          "name": "ipfsHash",
          "type": "string"
        }
      ],
      "name": "AdminUpdateDescription",
      "outputs": [],
      "stateMutability": "nonpayable",
      "type": "function"
    },
    {
      "inputs": [
        {
          "internalType": "uint256",
          "name": "CROCost",
          "type": "uint256"
        },
        {
          "internalType": "uint256",
          "name": "GraveCost",
          "type": "uint256"
        }
      ],
      "name": "AdminUpdateCost",
      "outputs": [],
      "stateMutability": "nonpayable",
      "type": "function"
    },
    {
      "inputs": [
        {
          "internalType": "contract IERC20",
          "name": "graveContract",
          "type": "address"
        },
        {
          "internalType": "contract IERC721",
          "name": "croSkullContract",
          "type": "address"
        }
      ],
      "name": "AdminSetContracts",
      "outputs": [],
      "stateMutability": "nonpayable",
      "type": "function"
    },
    {
      "inputs": [
        {
          "internalType": "address payable",
          "name": "_reciever",
          "type": "address"
        }
      ],
      "name": "AdminWithdraw",
      "outputs": [],
      "stateMutability": "nonpayable",
      "type": "function"
    },
    {
      "inputs": [
        {
          "internalType": "address payable",
          "name": "_reciever",
          "type": "address"
        }
      ],
      "name": "AdminWithdrawCRO",
      "outputs": [],
      "stateMutability": "nonpayable",
      "type": "function"
    },
    {
      "inputs": [
        {
          "internalType": "address",
          "name": "_reciever",
          "type": "address"
        }
      ],
      "name": "AdminWithdrawGraves",
      "outputs": [],
      "stateMutability": "nonpayable",
      "type": "function"
    }
  ],
  "bytecode": "0x608060405260c86004556032600555670de0b6b3a764000060065534801561002657600080fd5b50336000806101000a81548173ffffffffffffffffffffffffffffffffffffffff021916908373ffffffffffffffffffffffffffffffffffffffff160217905550611b06806100766000396000f3fe6080604052600436106100dd5760003560e01c8063a6c6eb571161007f578063e97ea04211610059578063e97ea04214610275578063f4d9400a1461029e578063f82e9529146102c9578063f9f58dbd14610306576100dd565b8063a6c6eb57146101f8578063c1c414a014610223578063d93b1a2b1461024c576100dd565b80637a2bc8d1116100bb5780637a2bc8d11461015f5780638da5cb5b146101885780638eae6b99146101b3578063a2ef3015146101dc576100dd565b80631519e568146100e25780633d4b7eb71461010d5780636c18e33a14610136575b600080fd5b3480156100ee57600080fd5b506100f7610331565b604051610104919061103c565b60405180910390f35b34801561011957600080fd5b50610134600480360381019061012f91906110c9565b61034f565b005b34801561014257600080fd5b5061015d60048036038101906101589190611122565b61052e565b005b34801561016b57600080fd5b50610186600480360381019061018191906112a8565b6105e2565b005b34801561019457600080fd5b5061019d610680565b6040516101aa9190611326565b60405180910390f35b3480156101bf57600080fd5b506101da60048036038101906101d5919061137f565b6106a4565b005b6101f660048036038101906101f191906113ac565b610747565b005b34801561020457600080fd5b5061020d6108aa565b60405161021a9190611467565b60405180910390f35b34801561022f57600080fd5b5061024a600480360381019061024591906114fe565b6108d0565b005b34801561025857600080fd5b50610273600480360381019061026e91906113ac565b610a4e565b005b34801561028157600080fd5b5061029c6004803603810190610297919061137f565b610d37565b005b3480156102aa57600080fd5b506102b3610e1f565b6040516102c0919061103c565b60405180910390f35b3480156102d557600080fd5b506102f060048036038101906102eb919061153e565b610e3d565b6040516102fd91906115f3565b60405180910390f35b34801561031257600080fd5b5061031b610edd565b6040516103289190611636565b60405180910390f35b600061034a600654600454610f0390919063ffffffff16565b905090565b3373ffffffffffffffffffffffffffffffffffffffff1660008054906101000a900473ffffffffffffffffffffffffffffffffffffffff1673ffffffffffffffffffffffffffffffffffffffff16146103dd576040517f08c379a00000000000000000000000000000000000000000000000000000000081526004016103d49061169d565b60405180910390fd5b6000600260009054906101000a900473ffffffffffffffffffffffffffffffffffffffff1673ffffffffffffffffffffffffffffffffffffffff166370a08231306040518263ffffffff1660e01b815260040161043a9190611326565b602060405180830381865afa158015610457573d6000803e3d6000fd5b505050506040513d601f19601f8201168201806040525081019061047b91906116d2565b9050600081111561052a57600260009054906101000a900473ffffffffffffffffffffffffffffffffffffffff1673ffffffffffffffffffffffffffffffffffffffff166323b872dd3084846040518463ffffffff1660e01b81526004016104e5939291906116ff565b6020604051808303816000875af1158015610504573d6000803e3d6000fd5b505050506040513d601f19601f82011682018060405250810190610528919061176e565b505b5050565b3373ffffffffffffffffffffffffffffffffffffffff1660008054906101000a900473ffffffffffffffffffffffffffffffffffffffff1673ffffffffffffffffffffffffffffffffffffffff16146105bc576040517f08c379a00000000000000000000000000000000000000000000000000000000081526004016105b39061169d565b60405180910390fd5b60008211156105cd57816005819055505b60008111156105de57806004819055505b5050565b3373ffffffffffffffffffffffffffffffffffffffff1660008054906101000a900473ffffffffffffffffffffffffffffffffffffffff1673ffffffffffffffffffffffffffffffffffffffff1614610670576040517f08c379a00000000000000000000000000000000000000000000000000000000081526004016106679061169d565b60405180910390fd5b61067b838383610f19565b505050565b60008054906101000a900473ffffffffffffffffffffffffffffffffffffffff1681565b3373ffffffffffffffffffffffffffffffffffffffff1660008054906101000a900473ffffffffffffffffffffffffffffffffffffffff1673ffffffffffffffffffffffffffffffffffffffff1614610732576040517f08c379a00000000000000000000000000000000000000000000000000000000081526004016107299061169d565b60405180910390fd5b61073b81610d37565b6107448161034f565b50565b813373ffffffffffffffffffffffffffffffffffffffff16600360009054906101000a900473ffffffffffffffffffffffffffffffffffffffff1673ffffffffffffffffffffffffffffffffffffffff16636352211e836040518263ffffffff1660e01b81526004016107ba919061103c565b602060405180830381865afa1580156107d7573d6000803e3d6000fd5b505050506040513d601f19601f820116820180604052508101906107fb91906117b0565b73ffffffffffffffffffffffffffffffffffffffff1614610851576040517f08c379a000000000000000000000000000000000000000000000000000000000815260040161084890611829565b60405180910390fd5b3461085a610e1f565b1461089a576040517f08c379a000000000000000000000000000000000000000000000000000000000815260040161089190611895565b60405180910390fd5b6108a5338484610f19565b505050565b600260009054906101000a900473ffffffffffffffffffffffffffffffffffffffff1681565b3373ffffffffffffffffffffffffffffffffffffffff1660008054906101000a900473ffffffffffffffffffffffffffffffffffffffff1673ffffffffffffffffffffffffffffffffffffffff161461095e576040517f08c379a00000000000000000000000000000000000000000000000000000000081526004016109559061169d565b60405180910390fd5b8173ffffffffffffffffffffffffffffffffffffffff16600073ffffffffffffffffffffffffffffffffffffffff16146109d45781600260006101000a81548173ffffffffffffffffffffffffffffffffffffffff021916908373ffffffffffffffffffffffffffffffffffffffff1602179055505b8073ffffffffffffffffffffffffffffffffffffffff16600073ffffffffffffffffffffffffffffffffffffffff1614610a4a5780600360006101000a81548173ffffffffffffffffffffffffffffffffffffffff021916908373ffffffffffffffffffffffffffffffffffffffff1602179055505b5050565b813373ffffffffffffffffffffffffffffffffffffffff16600360009054906101000a900473ffffffffffffffffffffffffffffffffffffffff1673ffffffffffffffffffffffffffffffffffffffff16636352211e836040518263ffffffff1660e01b8152600401610ac1919061103c565b602060405180830381865afa158015610ade573d6000803e3d6000fd5b505050506040513d601f19601f82011682018060405250810190610b0291906117b0565b73ffffffffffffffffffffffffffffffffffffffff1614610b58576040517f08c379a0000000000000000000000000000000000000000000000000000000008152600401610b4f90611829565b60405180910390fd5b600260009054906101000a900473ffffffffffffffffffffffffffffffffffffffff1673ffffffffffffffffffffffffffffffffffffffff1663dd62ed3e33306040518363ffffffff1660e01b8152600401610bb59291906118b5565b602060405180830381865afa158015610bd2573d6000803e3d6000fd5b505050506040513d601f19601f82011682018060405250810190610bf691906116d2565b610bfe610331565b1115610c3f576040517f08c379a0000000000000000000000000000000000000000000000000000000008152600401610c369061192a565b60405180910390fd5b600260009054906101000a900473ffffffffffffffffffffffffffffffffffffffff1673ffffffffffffffffffffffffffffffffffffffff166323b872dd3330610c87610331565b6040518463ffffffff1660e01b8152600401610ca5939291906116ff565b6020604051808303816000875af1158015610cc4573d6000803e3d6000fd5b505050506040513d601f19601f82011682018060405250810190610ce8919061176e565b610d27576040517f08c379a0000000000000000000000000000000000000000000000000000000008152600401610d1e90611996565b60405180910390fd5b610d32338484610f19565b505050565b3373ffffffffffffffffffffffffffffffffffffffff1660008054906101000a900473ffffffffffffffffffffffffffffffffffffffff1673ffffffffffffffffffffffffffffffffffffffff1614610dc5576040517f08c379a0000000000000000000000000000000000000000000000000000000008152600401610dbc9061169d565b60405180910390fd5b60004790506000811115610e1b578173ffffffffffffffffffffffffffffffffffffffff166108fc829081150290604051600060405180830381858888f19350505050158015610e19573d6000803e3d6000fd5b505b5050565b6000610e38600654600554610f0390919063ffffffff16565b905090565b60016020528060005260406000206000915090508054610e5c906119e5565b80601f0160208091040260200160405190810160405280929190818152602001828054610e88906119e5565b8015610ed55780601f10610eaa57610100808354040283529160200191610ed5565b820191906000526020600020905b815481529060010190602001808311610eb857829003601f168201915b505050505081565b600360009054906101000a900473ffffffffffffffffffffffffffffffffffffffff1681565b60008183610f119190611a46565b905092915050565b80600160008481526020019081526020016000209080519060200190610f40929190610f80565b50817f7e1bf3a69238618bdc40efcc6263c68cd8b4d6409fcc02a192683cec15dc59b48483604051610f73929190611aa0565b60405180910390a2505050565b828054610f8c906119e5565b90600052602060002090601f016020900481019282610fae5760008555610ff5565b82601f10610fc757805160ff1916838001178555610ff5565b82800160010185558215610ff5579182015b82811115610ff4578251825591602001919060010190610fd9565b5b5090506110029190611006565b5090565b5b8082111561101f576000816000905550600101611007565b5090565b6000819050919050565b61103681611023565b82525050565b6000602082019050611051600083018461102d565b92915050565b6000604051905090565b600080fd5b600080fd5b600073ffffffffffffffffffffffffffffffffffffffff82169050919050565b60006110968261106b565b9050919050565b6110a68161108b565b81146110b157600080fd5b50565b6000813590506110c38161109d565b92915050565b6000602082840312156110df576110de611061565b5b60006110ed848285016110b4565b91505092915050565b6110ff81611023565b811461110a57600080fd5b50565b60008135905061111c816110f6565b92915050565b6000806040838503121561113957611138611061565b5b60006111478582860161110d565b92505060206111588582860161110d565b9150509250929050565b600080fd5b600080fd5b6000601f19601f8301169050919050565b7f4e487b7100000000000000000000000000000000000000000000000000000000600052604160045260246000fd5b6111b58261116c565b810181811067ffffffffffffffff821117156111d4576111d361117d565b5b80604052505050565b60006111e7611057565b90506111f382826111ac565b919050565b600067ffffffffffffffff8211156112135761121261117d565b5b61121c8261116c565b9050602081019050919050565b82818337600083830152505050565b600061124b611246846111f8565b6111dd565b90508281526020810184848401111561126757611266611167565b5b611272848285611229565b509392505050565b600082601f83011261128f5761128e611162565b5b813561129f848260208601611238565b91505092915050565b6000806000606084860312156112c1576112c0611061565b5b60006112cf868287016110b4565b93505060206112e08682870161110d565b925050604084013567ffffffffffffffff81111561130157611300611066565b5b61130d8682870161127a565b9150509250925092565b6113208161108b565b82525050565b600060208201905061133b6000830184611317565b92915050565b600061134c8261106b565b9050919050565b61135c81611341565b811461136757600080fd5b50565b60008135905061137981611353565b92915050565b60006020828403121561139557611394611061565b5b60006113a38482850161136a565b91505092915050565b600080604083850312156113c3576113c2611061565b5b60006113d18582860161110d565b925050602083013567ffffffffffffffff8111156113f2576113f1611066565b5b6113fe8582860161127a565b9150509250929050565b6000819050919050565b600061142d6114286114238461106b565b611408565b61106b565b9050919050565b600061143f82611412565b9050919050565b600061145182611434565b9050919050565b61146181611446565b82525050565b600060208201905061147c6000830184611458565b92915050565b600061148d8261108b565b9050919050565b61149d81611482565b81146114a857600080fd5b50565b6000813590506114ba81611494565b92915050565b60006114cb8261108b565b9050919050565b6114db816114c0565b81146114e657600080fd5b50565b6000813590506114f8816114d2565b92915050565b6000806040838503121561151557611514611061565b5b6000611523858286016114ab565b9250506020611534858286016114e9565b9150509250929050565b60006020828403121561155457611553611061565b5b60006115628482850161110d565b91505092915050565b600081519050919050565b600082825260208201905092915050565b60005b838110156115a557808201518184015260208101905061158a565b838111156115b4576000848401525b50505050565b60006115c58261156b565b6115cf8185611576565b93506115df818560208601611587565b6115e88161116c565b840191505092915050565b6000602082019050818103600083015261160d81846115ba565b905092915050565b600061162082611434565b9050919050565b61163081611615565b82525050565b600060208201905061164b6000830184611627565b92915050565b7f4552525f4e4f545f4f574e455200000000000000000000000000000000000000600082015250565b6000611687600d83611576565b915061169282611651565b602082019050919050565b600060208201905081810360008301526116b68161167a565b9050919050565b6000815190506116cc816110f6565b92915050565b6000602082840312156116e8576116e7611061565b5b60006116f6848285016116bd565b91505092915050565b60006060820190506117146000830186611317565b6117216020830185611317565b61172e604083018461102d565b949350505050565b60008115159050919050565b61174b81611736565b811461175657600080fd5b50565b60008151905061176881611742565b92915050565b60006020828403121561178457611783611061565b5b600061179284828501611759565b91505092915050565b6000815190506117aa8161109d565b92915050565b6000602082840312156117c6576117c5611061565b5b60006117d48482850161179b565b91505092915050565b7f4552525f4e4f545f4f574e45525f4f465f544f4b454e00000000000000000000600082015250565b6000611813601683611576565b915061181e826117dd565b602082019050919050565b6000602082019050818103600083015261184281611806565b9050919050565b7f4552525f494e53554646494349454e545f43524f000000000000000000000000600082015250565b600061187f601483611576565b915061188a82611849565b602082019050919050565b600060208201905081810360008301526118ae81611872565b9050919050565b60006040820190506118ca6000830185611317565b6118d76020830184611317565b9392505050565b7f4552525f494e4352454153455f4752415645535f414c4c4f57414e4345000000600082015250565b6000611914601d83611576565b915061191f826118de565b602082019050919050565b6000602082019050818103600083015261194381611907565b9050919050565b7f4552525f47524156455f5041594d454e545f4641494c45440000000000000000600082015250565b6000611980601883611576565b915061198b8261194a565b602082019050919050565b600060208201905081810360008301526119af81611973565b9050919050565b7f4e487b7100000000000000000000000000000000000000000000000000000000600052602260045260246000fd5b600060028204905060018216806119fd57607f821691505b60208210811415611a1157611a106119b6565b5b50919050565b7f4e487b7100000000000000000000000000000000000000000000000000000000600052601160045260246000fd5b6000611a5182611023565b9150611a5c83611023565b9250817fffffffffffffffffffffffffffffffffffffffffffffffffffffffffffffffff0483118215151615611a9557611a94611a17565b5b828202905092915050565b6000604082019050611ab56000830185611317565b8181036020830152611ac781846115ba565b9050939250505056fea26469706673582212200050fe6de8a0eeab22b8edecfc5250b1e99a1c86407f51e5800785b278b4872e64736f6c634300080b0033",
  "immutableReferences": {},
  "source": "pragma solidity >0.8.0;\n\nimport \"@openzeppelin/contracts/token/ERC20/IERC20.sol\";\nimport \"@openzeppelin/contracts/token/ERC721/IERC721.sol\";\nimport \"@openzeppelin/contracts/token/ERC721/IERC721Receiver.sol\";\nimport \"@openzeppelin/contracts/utils/math/SafeMath.sol\";\n\n/** \n    A simple and powerful layer 2 smartcontract for ERC721 NFT.\n    Use this contract to assign a specific IPFS Hash to NFT Tokens, this ipfs file can\n    include NFT story, Race, Birth Date and other info that can be updated by the Token's owner.\n    Contract support both IERC721 and IERC20 interfaces, this mean that user can update their\n    NFT hash using both ERC20 Tokens and Governance Token ( ETH, CRO ecc )\n*/\ncontract nftDescription {\n    using SafeMath for uint;\n\n    address public owner;\n    mapping (uint => string) public descriptionHashes;\n\n    IERC20 public IGrave;\n    IERC721 public ICroSkull;\n\n    uint private graveCost = 200;\n    uint private croCost = 50;\n    uint private decimals = 10 ** 18;\n\n    modifier isOwner() {\n        require(\n            owner == msg.sender,\n            \"ERR_NOT_OWNER\"\n        );\n        _;\n    }\n\n    modifier isApprovedCRO( ) {\n        require( \n            _getcostInCRO() == msg.value,\n            \"ERR_INSUFFICIENT_CRO\" \n        );\n        _;\n    }\n\n    modifier isApprovedGrave( ) {\n        require( \n            _getCostInGrave() <= IGrave.allowance( msg.sender, address(this) ),\n            \"ERR_INCREASE_GRAVES_ALLOWANCE\"\n        );\n        _;\n    }\n\n    modifier isSkullOwner( uint tokenId ) {\n        require( \n            ICroSkull.ownerOf( tokenId ) == msg.sender,\n            \"ERR_NOT_OWNER_OF_TOKEN\"\n        );\n        _;\n    }\n\n    event DescriptionUpdate( address ownerOf, uint indexed tokenId, string ipfsHash );\n\n    constructor ( ) {\n        owner = msg.sender;\n    }\n\n    /** \n        public functions\n    */\n    function updateUsingCRO( uint skullId, string memory ipfsHash ) public payable isSkullOwner( skullId ) isApprovedCRO( ) {\n        _updateSkullDescription( msg.sender, skullId, ipfsHash );\n    }\n\n    function updateUsingGrave( uint skullId, string memory ipfsHash ) public isSkullOwner( skullId ) isApprovedGrave( ) {\n        require( \n            IGrave.transferFrom( msg.sender, address(this), _getCostInGrave() ),\n            \"ERR_GRAVE_PAYMENT_FAILED\"\n        );\n        _updateSkullDescription( msg.sender, skullId, ipfsHash );\n    }\n\n    function _getCostInGrave() public view returns( uint ) {\n        return graveCost\n            .mul(decimals);\n    }\n\n    function _getcostInCRO() public view returns(uint) {\n        return croCost\n            .mul(decimals);\n    }\n\n    /**\n        admin functions\n    */\n    \n    function AdminUpdateDescription( address ownerOf, uint tokenId, string memory ipfsHash ) public isOwner() {\n        _updateSkullDescription( ownerOf, tokenId, ipfsHash );\n    }\n\n    function AdminUpdateCost( uint CROCost, uint GraveCost ) public isOwner() {\n        if( CROCost > 0 ){\n            croCost = CROCost;\n        }\n\n        if( GraveCost > 0 ){\n            graveCost = GraveCost;\n        }\n    }\n\n    function AdminSetContracts( IERC20 graveContract, IERC721 croSkullContract ) public isOwner() {\n        if( IERC20(address(0)) != graveContract ){\n            IGrave = graveContract;\n        }\n\n        if( IERC721(address(0)) != croSkullContract ){\n            ICroSkull = croSkullContract;\n        }\n    }\n\n    function AdminWithdraw( address payable _reciever ) public isOwner() {\n        AdminWithdrawCRO( _reciever );\n        AdminWithdrawGraves( _reciever );\n    }\n\n    function AdminWithdrawCRO( address payable _reciever ) public isOwner() {\n        uint balance = address(this).balance;\n        if( balance > 0 ) {\n            _reciever.transfer( balance );\n        }\n    }\n\n    function AdminWithdrawGraves( address _reciever ) public isOwner() {\n        uint balance = IGrave.balanceOf( address( this ) );\n        if( balance > 0 ){\n            IGrave.transferFrom( \n                address(this), \n                _reciever,\n                balance\n            );\n        }\n    }\n\n    /** \n        internal functions\n    */\n\n    function _updateSkullDescription( address sender, uint skullId, string memory ipfsHash ) internal {\n        descriptionHashes[skullId] = ipfsHash;\n        emit DescriptionUpdate( sender, skullId, ipfsHash );\n    }\n}",
  "sourcePath": "/Users/alessandrodecristofaro/Desktop/DeFi Code/cryptoboys-nft-marketplace/src/contracts/CroSkullDescription.sol",
  "compiler": {
    "name": "solc",
    "version": "0.8.11+commit.d7f03943.Emscripten.clang"
  },
  "schemaVersion": "3.4.3",
  "updatedAt": "2022-02-03T13:01:50.056Z",
  "networkType": "ethereum",
  "devdoc": {
    "kind": "dev",
    "methods": {},
    "version": 1
  },
  "userdoc": {
    "kind": "user",
    "methods": {
      "AdminUpdateDescription(address,uint256,string)": {
        "notice": "admin functions"
      },
      "updateUsingCRO(uint256,string)": {
        "notice": "public functions"
      }
    },
    "notice": "A simple and powerful layer 2 smartcontract for ERC721 NFT. Use this contract to assign a specific IPFS Hash to NFT Tokens, this ipfs file can include NFT story, Race, Birth Date and other info that can be updated by the Token's owner. Contract support both IERC721 and IERC20 interfaces, this mean that user can update their NFT hash using both ERC20 Tokens and Governance Token ( ETH, CRO ecc )",
    "version": 1
  }
}