{
  "contractName": "nftDescription",
  "abi": [
    {
      "inputs": [],
      "stateMutability": "nonpayable",
      "type": "constructor"
    },
    {
      "anonymous": false,
      "inputs": [
        {
          "indexed": false,
          "internalType": "address",
          "name": "ownerOf",
          "type": "address"
        },
        {
          "indexed": true,
          "internalType": "uint256",
          "name": "tokenId",
          "type": "uint256"
        },
        {
          "indexed": false,
          "internalType": "string",
          "name": "ipfsHash",
          "type": "string"
        }
      ],
      "name": "DescriptionUpdate",
      "type": "event"
    },
    {
      "inputs": [],
      "name": "ICroSkull",
      "outputs": [
        {
          "internalType": "contract IERC721",
          "name": "",
          "type": "address"
        }
      ],
      "stateMutability": "view",
      "type": "function"
    },
    {
      "inputs": [],
      "name": "IGrave",
      "outputs": [
        {
          "internalType": "contract IERC20Burnable",
          "name": "",
          "type": "address"
        }
      ],
      "stateMutability": "view",
      "type": "function"
    },
    {
      "inputs": [
        {
          "internalType": "uint256",
          "name": "",
          "type": "uint256"
        }
      ],
      "name": "descriptionHashes",
      "outputs": [
        {
          "internalType": "string",
          "name": "",
          "type": "string"
        }
      ],
      "stateMutability": "view",
      "type": "function"
    },
    {
      "inputs": [],
      "name": "owner",
      "outputs": [
        {
          "internalType": "address",
          "name": "",
          "type": "address"
        }
      ],
      "stateMutability": "view",
      "type": "function"
    },
    {
      "inputs": [
        {
          "internalType": "uint256",
          "name": "skullId",
          "type": "uint256"
        },
        {
          "internalType": "string",
          "name": "ipfsHash",
          "type": "string"
        }
      ],
      "name": "updateUsingGrave",
      "outputs": [],
      "stateMutability": "nonpayable",
      "type": "function"
    },
    {
      "inputs": [],
      "name": "_getCostInGrave",
      "outputs": [
        {
          "internalType": "uint256",
          "name": "",
          "type": "uint256"
        }
      ],
      "stateMutability": "view",
      "type": "function"
    },
    {
      "inputs": [
        {
          "internalType": "address",
          "name": "ownerOf",
          "type": "address"
        },
        {
          "internalType": "uint256",
          "name": "tokenId",
          "type": "uint256"
        },
        {
          "internalType": "string",
          "name": "ipfsHash",
          "type": "string"
        }
      ],
      "name": "AdminUpdateDescription",
      "outputs": [],
      "stateMutability": "nonpayable",
      "type": "function"
    },
    {
      "inputs": [
        {
          "internalType": "uint256",
          "name": "GraveCost",
          "type": "uint256"
        }
      ],
      "name": "AdminUpdateCost",
      "outputs": [],
      "stateMutability": "nonpayable",
      "type": "function"
    },
    {
      "inputs": [
        {
          "internalType": "contract IERC20Burnable",
          "name": "graveContract",
          "type": "address"
        },
        {
          "internalType": "contract IERC721",
          "name": "croSkullContract",
          "type": "address"
        }
      ],
      "name": "AdminSetContracts",
      "outputs": [],
      "stateMutability": "nonpayable",
      "type": "function"
    }
  ],
  "bytecode": "0x6080604052600a600455670de0b6b3a764000060055534801561002157600080fd5b50336000806101000a81548173ffffffffffffffffffffffffffffffffffffffff021916908373ffffffffffffffffffffffffffffffffffffffff160217905550611191806100716000396000f3fe608060405234801561001057600080fd5b50600436106100935760003560e01c8063c1c414a011610066578063c1c414a01461010e578063d93b1a2b1461012a578063eab325de14610146578063f82e952914610162578063f9f58dbd1461019257610093565b80631519e568146100985780637a2bc8d1146100b65780638da5cb5b146100d2578063a6c6eb57146100f0575b600080fd5b6100a06101b0565b6040516100ad9190610e53565b60405180910390f35b6100d060048036038101906100cb9190610a80565b6101ce565b005b6100da61026c565b6040516100e79190610cfe565b60405180910390f35b6100f8610290565b6040516101059190610d9b565b60405180910390f35b61012860048036038101906101239190610ae7565b6102b6565b005b610144600480360381019061013f9190610b75565b610434565b005b610160600480360381019061015b9190610b23565b6106e9565b005b61017c60048036038101906101779190610b23565b61078b565b6040516101899190610dd1565b60405180910390f35b61019a61082b565b6040516101a79190610db6565b60405180910390f35b60006101c960055460045461085190919063ffffffff16565b905090565b3373ffffffffffffffffffffffffffffffffffffffff1660008054906101000a900473ffffffffffffffffffffffffffffffffffffffff1673ffffffffffffffffffffffffffffffffffffffff161461025c576040517f08c379a000000000000000000000000000000000000000000000000000000000815260040161025390610df3565b60405180910390fd5b610267838383610867565b505050565b60008054906101000a900473ffffffffffffffffffffffffffffffffffffffff1681565b600260009054906101000a900473ffffffffffffffffffffffffffffffffffffffff1681565b3373ffffffffffffffffffffffffffffffffffffffff1660008054906101000a900473ffffffffffffffffffffffffffffffffffffffff1673ffffffffffffffffffffffffffffffffffffffff1614610344576040517f08c379a000000000000000000000000000000000000000000000000000000000815260040161033b90610df3565b60405180910390fd5b8173ffffffffffffffffffffffffffffffffffffffff16600073ffffffffffffffffffffffffffffffffffffffff16146103ba5781600260006101000a81548173ffffffffffffffffffffffffffffffffffffffff021916908373ffffffffffffffffffffffffffffffffffffffff1602179055505b8073ffffffffffffffffffffffffffffffffffffffff16600073ffffffffffffffffffffffffffffffffffffffff16146104305780600360006101000a81548173ffffffffffffffffffffffffffffffffffffffff021916908373ffffffffffffffffffffffffffffffffffffffff1602179055505b5050565b813373ffffffffffffffffffffffffffffffffffffffff16600360009054906101000a900473ffffffffffffffffffffffffffffffffffffffff1673ffffffffffffffffffffffffffffffffffffffff16636352211e836040518263ffffffff1660e01b81526004016104a79190610e53565b60206040518083038186803b1580156104bf57600080fd5b505afa1580156104d3573d6000803e3d6000fd5b505050506040513d601f19601f820116820180604052508101906104f79190610a57565b73ffffffffffffffffffffffffffffffffffffffff161461054d576040517f08c379a000000000000000000000000000000000000000000000000000000000815260040161054490610e33565b60405180910390fd5b600260009054906101000a900473ffffffffffffffffffffffffffffffffffffffff1673ffffffffffffffffffffffffffffffffffffffff1663dd62ed3e33306040518363ffffffff1660e01b81526004016105aa929190610d19565b60206040518083038186803b1580156105c257600080fd5b505afa1580156105d6573d6000803e3d6000fd5b505050506040513d601f19601f820116820180604052508101906105fa9190610b4c565b6106026101b0565b1115610643576040517f08c379a000000000000000000000000000000000000000000000000000000000815260040161063a90610e13565b60405180910390fd5b600260009054906101000a900473ffffffffffffffffffffffffffffffffffffffff1673ffffffffffffffffffffffffffffffffffffffff166379cc67903361068a6101b0565b6040518363ffffffff1660e01b81526004016106a7929190610d72565b600060405180830381600087803b1580156106c157600080fd5b505af11580156106d5573d6000803e3d6000fd5b505050506106e4338484610867565b505050565b3373ffffffffffffffffffffffffffffffffffffffff1660008054906101000a900473ffffffffffffffffffffffffffffffffffffffff1673ffffffffffffffffffffffffffffffffffffffff1614610777576040517f08c379a000000000000000000000000000000000000000000000000000000000815260040161076e90610df3565b60405180910390fd5b600081111561078857806004819055505b50565b600160205280600052604060002060009150905080546107aa9061102f565b80601f01602080910402602001604051908101604052809291908181526020018280546107d69061102f565b80156108235780601f106107f857610100808354040283529160200191610823565b820191906000526020600020905b81548152906001019060200180831161080657829003601f168201915b505050505081565b600360009054906101000a900473ffffffffffffffffffffffffffffffffffffffff1681565b6000818361085f9190610eeb565b905092915050565b8060016000848152602001908152602001600020908051906020019061088e9291906108ce565b50817f7e1bf3a69238618bdc40efcc6263c68cd8b4d6409fcc02a192683cec15dc59b484836040516108c1929190610d42565b60405180910390a2505050565b8280546108da9061102f565b90600052602060002090601f0160209004810192826108fc5760008555610943565b82601f1061091557805160ff1916838001178555610943565b82800160010185558215610943579182015b82811115610942578251825591602001919060010190610927565b5b5090506109509190610954565b5090565b5b8082111561096d576000816000905550600101610955565b5090565b600061098461097f84610e9f565b610e6e565b90508281526020810184848401111561099c57600080fd5b6109a7848285610fed565b509392505050565b6000813590506109be816110ff565b92915050565b6000815190506109d3816110ff565b92915050565b6000813590506109e881611116565b92915050565b6000813590506109fd8161112d565b92915050565b600082601f830112610a1457600080fd5b8135610a24848260208601610971565b91505092915050565b600081359050610a3c81611144565b92915050565b600081519050610a5181611144565b92915050565b600060208284031215610a6957600080fd5b6000610a77848285016109c4565b91505092915050565b600080600060608486031215610a9557600080fd5b6000610aa3868287016109af565b9350506020610ab486828701610a2d565b925050604084013567ffffffffffffffff811115610ad157600080fd5b610add86828701610a03565b9150509250925092565b60008060408385031215610afa57600080fd5b6000610b08858286016109d9565b9250506020610b19858286016109ee565b9150509250929050565b600060208284031215610b3557600080fd5b6000610b4384828501610a2d565b91505092915050565b600060208284031215610b5e57600080fd5b6000610b6c84828501610a42565b91505092915050565b60008060408385031215610b8857600080fd5b6000610b9685828601610a2d565b925050602083013567ffffffffffffffff811115610bb357600080fd5b610bbf85828601610a03565b9150509250929050565b610bd281610f45565b82525050565b610be181610fa5565b82525050565b610bf081610fc9565b82525050565b6000610c0182610ecf565b610c0b8185610eda565b9350610c1b818560208601610ffc565b610c24816110ee565b840191505092915050565b6000610c3c600d83610eda565b91507f4552525f4e4f545f4f574e4552000000000000000000000000000000000000006000830152602082019050919050565b6000610c7c601d83610eda565b91507f4552525f494e4352454153455f4752415645535f414c4c4f57414e43450000006000830152602082019050919050565b6000610cbc601683610eda565b91507f4552525f4e4f545f4f574e45525f4f465f544f4b454e000000000000000000006000830152602082019050919050565b610cf881610f9b565b82525050565b6000602082019050610d136000830184610bc9565b92915050565b6000604082019050610d2e6000830185610bc9565b610d3b6020830184610bc9565b9392505050565b6000604082019050610d576000830185610bc9565b8181036020830152610d698184610bf6565b90509392505050565b6000604082019050610d876000830185610bc9565b610d946020830184610cef565b9392505050565b6000602082019050610db06000830184610bd8565b92915050565b6000602082019050610dcb6000830184610be7565b92915050565b60006020820190508181036000830152610deb8184610bf6565b905092915050565b60006020820190508181036000830152610e0c81610c2f565b9050919050565b60006020820190508181036000830152610e2c81610c6f565b9050919050565b60006020820190508181036000830152610e4c81610caf565b9050919050565b6000602082019050610e686000830184610cef565b92915050565b6000604051905081810181811067ffffffffffffffff82111715610e9557610e946110bf565b5b8060405250919050565b600067ffffffffffffffff821115610eba57610eb96110bf565b5b601f19601f8301169050602081019050919050565b600081519050919050565b600082825260208201905092915050565b6000610ef682610f9b565b9150610f0183610f9b565b9250817fffffffffffffffffffffffffffffffffffffffffffffffffffffffffffffffff0483118215151615610f3a57610f39611061565b5b828202905092915050565b6000610f5082610f7b565b9050919050565b6000610f6282610f45565b9050919050565b6000610f7482610f45565b9050919050565b600073ffffffffffffffffffffffffffffffffffffffff82169050919050565b6000819050919050565b6000610fb082610fb7565b9050919050565b6000610fc282610f7b565b9050919050565b6000610fd482610fdb565b9050919050565b6000610fe682610f7b565b9050919050565b82818337600083830152505050565b60005b8381101561101a578082015181840152602081019050610fff565b83811115611029576000848401525b50505050565b6000600282049050600182168061104757607f821691505b6020821081141561105b5761105a611090565b5b50919050565b7f4e487b7100000000000000000000000000000000000000000000000000000000600052601160045260246000fd5b7f4e487b7100000000000000000000000000000000000000000000000000000000600052602260045260246000fd5b7f4e487b7100000000000000000000000000000000000000000000000000000000600052604160045260246000fd5b6000601f19601f8301169050919050565b61110881610f45565b811461111357600080fd5b50565b61111f81610f57565b811461112a57600080fd5b50565b61113681610f69565b811461114157600080fd5b50565b61114d81610f9b565b811461115857600080fd5b5056fea26469706673582212205dd4df174d51de8b4d7c6bf690b1bc2ddedc538a712c2526c2f728e93209d62c64736f6c63430008000033",
  "immutableReferences": {},
  "source": "// SPDX-License-Identifier: MIT\npragma solidity >=0.8.0;\n\nimport \"./interface/IERC20Burnable.sol\";\nimport \"@openzeppelin/contracts/token/ERC721/IERC721.sol\";\nimport \"@openzeppelin/contracts/token/ERC721/IERC721Receiver.sol\";\nimport \"@openzeppelin/contracts/utils/math/SafeMath.sol\";\n\n/** \n    A simple and powerful layer 2 smartcontract for ERC721 NFT.\n    Use this contract to assign a specific IPFS Hash to NFT Tokens, this ipfs file can\n    include NFT story, Race, Birth Date and other info that can be updated by the Token's owner.\n    Contract support both IERC721 and IERC20 interfaces, this mean that user can update their\n    NFT hash using both ERC20 Tokens and Governance Token ( ETH, CRO ecc )\n*/\ncontract nftDescription {\n    using SafeMath for uint;\n\n    address public owner;\n    mapping (uint => string) public descriptionHashes;\n\n    IERC20Burnable public IGrave;\n    IERC721 public ICroSkull;\n\n    uint private graveCost = 10;\n    uint private decimals = 10 ** 18;\n\n    modifier isOwner() {\n        require(\n            owner == msg.sender,\n            \"ERR_NOT_OWNER\"\n        );\n        _;\n    }\n\n    modifier isApprovedGrave( ) {\n        require( \n            _getCostInGrave() <= IGrave.allowance( msg.sender, address(this) ),\n            \"ERR_INCREASE_GRAVES_ALLOWANCE\"\n        );\n        _;\n    }\n\n    modifier isSkullOwner( uint tokenId ) {\n        require( \n            ICroSkull.ownerOf( tokenId ) == msg.sender,\n            \"ERR_NOT_OWNER_OF_TOKEN\"\n        );\n        _;\n    }\n\n    event DescriptionUpdate( address ownerOf, uint indexed tokenId, string ipfsHash );\n\n    constructor ( ) {\n        owner = msg.sender;\n    }\n\n    /** \n        public functions\n    */\n\n    function updateUsingGrave( uint skullId, string memory ipfsHash ) public isSkullOwner( skullId ) isApprovedGrave( ) {\n        IGrave.burnFrom( msg.sender, _getCostInGrave() );\n        _updateSkullDescription( msg.sender, skullId, ipfsHash );\n    }\n\n    function _getCostInGrave() public view returns( uint ) {\n        return graveCost\n            .mul(decimals);\n    }\n\n    /**\n        admin functions\n    */\n    \n    function AdminUpdateDescription( address ownerOf, uint tokenId, string memory ipfsHash ) public isOwner() {\n        _updateSkullDescription( ownerOf, tokenId, ipfsHash );\n    }\n\n    function AdminUpdateCost( uint GraveCost ) public isOwner() {\n\n        if( GraveCost > 0 ){\n            graveCost = GraveCost;\n        }\n    }\n\n    function AdminSetContracts( IERC20Burnable graveContract, IERC721 croSkullContract ) public isOwner() {\n        if( IERC20Burnable(address(0)) != graveContract ){\n            IGrave = graveContract;\n        }\n\n        if( IERC721(address(0)) != croSkullContract ){\n            ICroSkull = croSkullContract;\n        }\n    }\n\n    /** \n        internal functions\n    */\n\n    function _updateSkullDescription( address sender, uint skullId, string memory ipfsHash ) internal {\n        descriptionHashes[skullId] = ipfsHash;\n        emit DescriptionUpdate( sender, skullId, ipfsHash );\n    }\n}",
  "sourcePath": "/Users/alessandrodecristofaro/Desktop/DeFi Code/croskull-repo/src/contracts/nftDescription.sol",
  "compiler": {
    "name": "solc",
    "version": "0.8.0+commit.c7dfd78e.Emscripten.clang"
  },
  "schemaVersion": "3.4.3",
  "updatedAt": "2022-03-03T18:07:06.087Z",
  "devdoc": {
    "kind": "dev",
    "methods": {},
    "version": 1
  },
  "userdoc": {
    "kind": "user",
    "methods": {
      "AdminUpdateDescription(address,uint256,string)": {
        "notice": "admin functions"
      },
      "updateUsingGrave(uint256,string)": {
        "notice": "public functions"
      }
    },
    "notice": "A simple and powerful layer 2 smartcontract for ERC721 NFT. Use this contract to assign a specific IPFS Hash to NFT Tokens, this ipfs file can include NFT story, Race, Birth Date and other info that can be updated by the Token's owner. Contract support both IERC721 and IERC20 interfaces, this mean that user can update their NFT hash using both ERC20 Tokens and Governance Token ( ETH, CRO ecc )",
    "version": 1
  }
}