{
  "contractName": "PurplePotions",
  "abi": [
    {
      "inputs": [
        {
          "internalType": "contract IERC721",
          "name": "_blue",
          "type": "address"
        },
        {
          "internalType": "contract IERC721",
          "name": "_red",
          "type": "address"
        },
        {
          "internalType": "contract IERC20Burnable",
          "name": "_grave",
          "type": "address"
        }
      ],
      "stateMutability": "nonpayable",
      "type": "constructor"
    },
    {
      "anonymous": false,
      "inputs": [
        {
          "indexed": true,
          "internalType": "address",
          "name": "owner",
          "type": "address"
        },
        {
          "indexed": true,
          "internalType": "address",
          "name": "approved",
          "type": "address"
        },
        {
          "indexed": true,
          "internalType": "uint256",
          "name": "tokenId",
          "type": "uint256"
        }
      ],
      "name": "Approval",
      "type": "event"
    },
    {
      "anonymous": false,
      "inputs": [
        {
          "indexed": true,
          "internalType": "address",
          "name": "owner",
          "type": "address"
        },
        {
          "indexed": true,
          "internalType": "address",
          "name": "operator",
          "type": "address"
        },
        {
          "indexed": false,
          "internalType": "bool",
          "name": "approved",
          "type": "bool"
        }
      ],
      "name": "ApprovalForAll",
      "type": "event"
    },
    {
      "anonymous": false,
      "inputs": [
        {
          "indexed": true,
          "internalType": "address",
          "name": "previousOwner",
          "type": "address"
        },
        {
          "indexed": true,
          "internalType": "address",
          "name": "newOwner",
          "type": "address"
        }
      ],
      "name": "OwnershipTransferred",
      "type": "event"
    },
    {
      "anonymous": false,
      "inputs": [
        {
          "indexed": false,
          "internalType": "uint256",
          "name": "potionId",
          "type": "uint256"
        },
        {
          "indexed": false,
          "internalType": "address",
          "name": "owner",
          "type": "address"
        }
      ],
      "name": "PurpleBurn",
      "type": "event"
    },
    {
      "anonymous": false,
      "inputs": [
        {
          "indexed": true,
          "internalType": "address",
          "name": "from",
          "type": "address"
        },
        {
          "indexed": true,
          "internalType": "address",
          "name": "to",
          "type": "address"
        },
        {
          "indexed": true,
          "internalType": "uint256",
          "name": "tokenId",
          "type": "uint256"
        }
      ],
      "name": "Transfer",
      "type": "event"
    },
    {
      "inputs": [
        {
          "internalType": "address",
          "name": "to",
          "type": "address"
        },
        {
          "internalType": "uint256",
          "name": "tokenId",
          "type": "uint256"
        }
      ],
      "name": "approve",
      "outputs": [],
      "stateMutability": "nonpayable",
      "type": "function"
    },
    {
      "inputs": [
        {
          "internalType": "address",
          "name": "owner",
          "type": "address"
        }
      ],
      "name": "balanceOf",
      "outputs": [
        {
          "internalType": "uint256",
          "name": "",
          "type": "uint256"
        }
      ],
      "stateMutability": "view",
      "type": "function"
    },
    {
      "inputs": [],
      "name": "blue",
      "outputs": [
        {
          "internalType": "contract IERC721",
          "name": "",
          "type": "address"
        }
      ],
      "stateMutability": "view",
      "type": "function"
    },
    {
      "inputs": [
        {
          "internalType": "uint256",
          "name": "tokenId",
          "type": "uint256"
        }
      ],
      "name": "getApproved",
      "outputs": [
        {
          "internalType": "address",
          "name": "",
          "type": "address"
        }
      ],
      "stateMutability": "view",
      "type": "function"
    },
    {
      "inputs": [],
      "name": "grave",
      "outputs": [
        {
          "internalType": "contract IERC20Burnable",
          "name": "",
          "type": "address"
        }
      ],
      "stateMutability": "view",
      "type": "function"
    },
    {
      "inputs": [],
      "name": "graveCost",
      "outputs": [
        {
          "internalType": "uint256",
          "name": "",
          "type": "uint256"
        }
      ],
      "stateMutability": "view",
      "type": "function"
    },
    {
      "inputs": [
        {
          "internalType": "address",
          "name": "owner",
          "type": "address"
        },
        {
          "internalType": "address",
          "name": "operator",
          "type": "address"
        }
      ],
      "name": "isApprovedForAll",
      "outputs": [
        {
          "internalType": "bool",
          "name": "",
          "type": "bool"
        }
      ],
      "stateMutability": "view",
      "type": "function"
    },
    {
      "inputs": [],
      "name": "maxSupply",
      "outputs": [
        {
          "internalType": "uint256",
          "name": "",
          "type": "uint256"
        }
      ],
      "stateMutability": "view",
      "type": "function"
    },
    {
      "inputs": [],
      "name": "name",
      "outputs": [
        {
          "internalType": "string",
          "name": "",
          "type": "string"
        }
      ],
      "stateMutability": "view",
      "type": "function"
    },
    {
      "inputs": [],
      "name": "owner",
      "outputs": [
        {
          "internalType": "address",
          "name": "",
          "type": "address"
        }
      ],
      "stateMutability": "view",
      "type": "function"
    },
    {
      "inputs": [
        {
          "internalType": "uint256",
          "name": "tokenId",
          "type": "uint256"
        }
      ],
      "name": "ownerOf",
      "outputs": [
        {
          "internalType": "address",
          "name": "",
          "type": "address"
        }
      ],
      "stateMutability": "view",
      "type": "function"
    },
    {
      "inputs": [],
      "name": "red",
      "outputs": [
        {
          "internalType": "contract IERC721",
          "name": "",
          "type": "address"
        }
      ],
      "stateMutability": "view",
      "type": "function"
    },
    {
      "inputs": [],
      "name": "renounceOwnership",
      "outputs": [],
      "stateMutability": "nonpayable",
      "type": "function"
    },
    {
      "inputs": [
        {
          "internalType": "address",
          "name": "from",
          "type": "address"
        },
        {
          "internalType": "address",
          "name": "to",
          "type": "address"
        },
        {
          "internalType": "uint256",
          "name": "tokenId",
          "type": "uint256"
        }
      ],
      "name": "safeTransferFrom",
      "outputs": [],
      "stateMutability": "nonpayable",
      "type": "function"
    },
    {
      "inputs": [
        {
          "internalType": "address",
          "name": "from",
          "type": "address"
        },
        {
          "internalType": "address",
          "name": "to",
          "type": "address"
        },
        {
          "internalType": "uint256",
          "name": "tokenId",
          "type": "uint256"
        },
        {
          "internalType": "bytes",
          "name": "_data",
          "type": "bytes"
        }
      ],
      "name": "safeTransferFrom",
      "outputs": [],
      "stateMutability": "nonpayable",
      "type": "function"
    },
    {
      "inputs": [
        {
          "internalType": "address",
          "name": "operator",
          "type": "address"
        },
        {
          "internalType": "bool",
          "name": "approved",
          "type": "bool"
        }
      ],
      "name": "setApprovalForAll",
      "outputs": [],
      "stateMutability": "nonpayable",
      "type": "function"
    },
    {
      "inputs": [],
      "name": "symbol",
      "outputs": [
        {
          "internalType": "string",
          "name": "",
          "type": "string"
        }
      ],
      "stateMutability": "view",
      "type": "function"
    },
    {
      "inputs": [
        {
          "internalType": "uint256",
          "name": "index",
          "type": "uint256"
        }
      ],
      "name": "tokenByIndex",
      "outputs": [
        {
          "internalType": "uint256",
          "name": "",
          "type": "uint256"
        }
      ],
      "stateMutability": "view",
      "type": "function"
    },
    {
      "inputs": [],
      "name": "tokenCount",
      "outputs": [
        {
          "internalType": "uint256",
          "name": "",
          "type": "uint256"
        }
      ],
      "stateMutability": "view",
      "type": "function"
    },
    {
      "inputs": [
        {
          "internalType": "address",
          "name": "owner",
          "type": "address"
        },
        {
          "internalType": "uint256",
          "name": "index",
          "type": "uint256"
        }
      ],
      "name": "tokenOfOwnerByIndex",
      "outputs": [
        {
          "internalType": "uint256",
          "name": "",
          "type": "uint256"
        }
      ],
      "stateMutability": "view",
      "type": "function"
    },
    {
      "inputs": [],
      "name": "totalSupply",
      "outputs": [
        {
          "internalType": "uint256",
          "name": "",
          "type": "uint256"
        }
      ],
      "stateMutability": "view",
      "type": "function"
    },
    {
      "inputs": [
        {
          "internalType": "address",
          "name": "from",
          "type": "address"
        },
        {
          "internalType": "address",
          "name": "to",
          "type": "address"
        },
        {
          "internalType": "uint256",
          "name": "tokenId",
          "type": "uint256"
        }
      ],
      "name": "transferFrom",
      "outputs": [],
      "stateMutability": "nonpayable",
      "type": "function"
    },
    {
      "inputs": [
        {
          "internalType": "address",
          "name": "newOwner",
          "type": "address"
        }
      ],
      "name": "transferOwnership",
      "outputs": [],
      "stateMutability": "nonpayable",
      "type": "function"
    },
    {
      "inputs": [
        {
          "internalType": "uint256",
          "name": "blueId",
          "type": "uint256"
        },
        {
          "internalType": "uint256",
          "name": "redId",
          "type": "uint256"
        },
        {
          "internalType": "string",
          "name": "ipfsUri",
          "type": "string"
        }
      ],
      "name": "mergePotions",
      "outputs": [],
      "stateMutability": "nonpayable",
      "type": "function"
    },
    {
      "inputs": [
        {
          "internalType": "address",
          "name": "to",
          "type": "address"
        }
      ],
      "name": "safeMint",
      "outputs": [],
      "stateMutability": "nonpayable",
      "type": "function"
    },
    {
      "inputs": [
        {
          "internalType": "uint256",
          "name": "tokenId",
          "type": "uint256"
        }
      ],
      "name": "burn",
      "outputs": [],
      "stateMutability": "nonpayable",
      "type": "function"
    },
    {
      "inputs": [
        {
          "internalType": "uint256",
          "name": "tokenId",
          "type": "uint256"
        }
      ],
      "name": "tokenURI",
      "outputs": [
        {
          "internalType": "string",
          "name": "",
          "type": "string"
        }
      ],
      "stateMutability": "view",
      "type": "function"
    },
    {
      "inputs": [
        {
          "internalType": "bytes4",
          "name": "interfaceId",
          "type": "bytes4"
        }
      ],
      "name": "supportsInterface",
      "outputs": [
        {
          "internalType": "bool",
          "name": "",
          "type": "bool"
        }
      ],
      "stateMutability": "view",
      "type": "function"
    },
    {
      "inputs": [
        {
          "internalType": "address",
          "name": "",
          "type": "address"
        },
        {
          "internalType": "address",
          "name": "",
          "type": "address"
        },
        {
          "internalType": "uint256",
          "name": "",
          "type": "uint256"
        },
        {
          "internalType": "bytes",
          "name": "",
          "type": "bytes"
        }
      ],
      "name": "onERC721Received",
      "outputs": [
        {
          "internalType": "bytes4",
          "name": "",
          "type": "bytes4"
        }
      ],
      "stateMutability": "nonpayable",
      "type": "function"
    }
  ],
  "bytecode": "0x60806040526000600f5561014d6010556801158e460913d0000060115530601260006101000a81548173ffffffffffffffffffffffffffffffffffffffff021916908373ffffffffffffffffffffffffffffffffffffffff1602179055503480156200006a57600080fd5b5060405162005013380380620050138339818101604052810190620000909190620003c8565b6040518060400160405280601681526020017f43726f536b756c6c20507572706c6520506f74696f6e000000000000000000008152506040518060400160405280600481526020017f4353505000000000000000000000000000000000000000000000000000000000815250816000908051906020019062000114929190620002ea565b5080600190805190602001906200012d929190620002ea565b50505062000150620001446200021c60201b60201c565b6200022460201b60201c565b82600c60006101000a81548173ffffffffffffffffffffffffffffffffffffffff021916908373ffffffffffffffffffffffffffffffffffffffff16021790555081600d60006101000a81548173ffffffffffffffffffffffffffffffffffffffff021916908373ffffffffffffffffffffffffffffffffffffffff16021790555080600e60006101000a81548173ffffffffffffffffffffffffffffffffffffffff021916908373ffffffffffffffffffffffffffffffffffffffff16021790555050505062000513565b600033905090565b6000600b60009054906101000a900473ffffffffffffffffffffffffffffffffffffffff16905081600b60006101000a81548173ffffffffffffffffffffffffffffffffffffffff021916908373ffffffffffffffffffffffffffffffffffffffff1602179055508173ffffffffffffffffffffffffffffffffffffffff168173ffffffffffffffffffffffffffffffffffffffff167f8be0079c531659141344cd1fd0a4f28419497f9722a3daafe3b4186f6b6457e060405160405180910390a35050565b828054620002f8906200047a565b90600052602060002090601f0160209004810192826200031c576000855562000368565b82601f106200033757805160ff191683800117855562000368565b8280016001018555821562000368579182015b82811115620003675782518255916020019190600101906200034a565b5b5090506200037791906200037b565b5090565b5b80821115620003965760008160009055506001016200037c565b5090565b600081519050620003ab81620004df565b92915050565b600081519050620003c281620004f9565b92915050565b600080600060608486031215620003de57600080fd5b6000620003ee86828701620003b1565b93505060206200040186828701620003b1565b925050604062000414868287016200039a565b9150509250925092565b60006200042b826200045a565b9050919050565b60006200043f826200041e565b9050919050565b600062000453826200041e565b9050919050565b600073ffffffffffffffffffffffffffffffffffffffff82169050919050565b600060028204905060018216806200049357607f821691505b60208210811415620004aa57620004a9620004b0565b5b50919050565b7f4e487b7100000000000000000000000000000000000000000000000000000000600052602260045260246000fd5b620004ea8162000432565b8114620004f657600080fd5b50565b620005048162000446565b81146200051057600080fd5b50565b614af080620005236000396000f3fe608060405234801561001057600080fd5b50600436106101cf5760003560e01c806370a0823111610104578063b2189745116100a2578063e985e9c511610071578063e985e9c514610530578063ed18f0a714610560578063f2fde38b1461057e578063f8d057681461059a576101cf565b8063b2189745146104a8578063b88d4fde146104c6578063c87b56dd146104e2578063d5abeb0114610512576101cf565b806395d89b41116100de57806395d89b41146104325780639f181b5e14610450578063a22cb4651461046e578063a41cd0341461048a576101cf565b806370a08231146103da578063715018a61461040a5780638da5cb5b14610414576101cf565b80632930cf241161017157806342842e0e1161014b57806342842e0e1461034257806342966c681461035e5780634f6ccce71461037a5780636352211e146103aa576101cf565b80632930cf24146102d85780632f745c59146102f657806340d097c314610326576101cf565b8063095ea7b3116101ad578063095ea7b314610252578063150b7a021461026e57806318160ddd1461029e57806323b872dd146102bc576101cf565b806301ffc9a7146101d457806306fdde0314610204578063081812fc14610222575b600080fd5b6101ee60048036038101906101e9919061358a565b6105b6565b6040516101fb9190614206565b60405180910390f35b61020c6105c8565b6040516102199190614272565b60405180910390f35b61023c600480360381019061023791906135dc565b61065a565b6040516102499190614116565b60405180910390f35b61026c60048036038101906102679190613525565b6106df565b005b6102886004803603810190610283919061346e565b6107f7565b6040516102959190614221565b60405180910390f35b6102a661080b565b6040516102b39190614614565b60405180910390f35b6102d660048036038101906102d1919061341f565b610818565b005b6102e0610878565b6040516102ed9190614257565b60405180910390f35b610310600480360381019061030b9190613525565b61089e565b60405161031d9190614614565b60405180910390f35b610340600480360381019061033b9190613391565b610943565b005b61035c6004803603810190610357919061341f565b610a47565b005b610378600480360381019061037391906135dc565b610a67565b005b610394600480360381019061038f91906135dc565b610aac565b6040516103a19190614614565b60405180910390f35b6103c460048036038101906103bf91906135dc565b610b43565b6040516103d19190614116565b60405180910390f35b6103f460048036038101906103ef9190613391565b610bf5565b6040516104019190614614565b60405180910390f35b610412610cad565b005b61041c610d35565b6040516104299190614116565b60405180910390f35b61043a610d5f565b6040516104479190614272565b60405180910390f35b610458610df1565b6040516104659190614614565b60405180910390f35b610488600480360381019061048391906134e9565b610df7565b005b610492610e0d565b60405161049f919061423c565b60405180910390f35b6104b0610e33565b6040516104bd9190614614565b60405180910390f35b6104e060048036038101906104db919061346e565b610e39565b005b6104fc60048036038101906104f791906135dc565b610e9b565b6040516105099190614272565b60405180910390f35b61051a610ead565b6040516105279190614614565b60405180910390f35b61054a600480360381019061054591906133e3565b610eb3565b6040516105579190614206565b60405180910390f35b610568610f47565b6040516105759190614257565b60405180910390f35b61059860048036038101906105939190613391565b610f6d565b005b6105b460048036038101906105af919061362e565b611065565b005b60006105c182611a31565b9050919050565b6060600080546105d7906148e5565b80601f0160208091040260200160405190810160405280929190818152602001828054610603906148e5565b80156106505780601f1061062557610100808354040283529160200191610650565b820191906000526020600020905b81548152906001019060200180831161063357829003601f168201915b5050505050905090565b600061066582611aab565b6106a4576040517f08c379a000000000000000000000000000000000000000000000000000000000815260040161069b906144b4565b60405180910390fd5b6004600083815260200190815260200160002060009054906101000a900473ffffffffffffffffffffffffffffffffffffffff169050919050565b60006106ea82610b43565b90508073ffffffffffffffffffffffffffffffffffffffff168373ffffffffffffffffffffffffffffffffffffffff16141561075b576040517f08c379a000000000000000000000000000000000000000000000000000000000815260040161075290614554565b60405180910390fd5b8073ffffffffffffffffffffffffffffffffffffffff1661077a611b17565b73ffffffffffffffffffffffffffffffffffffffff1614806107a957506107a8816107a3611b17565b610eb3565b5b6107e8576040517f08c379a00000000000000000000000000000000000000000000000000000000081526004016107df906143b4565b60405180910390fd5b6107f28383611b1f565b505050565b600063150b7a0260e01b9050949350505050565b6000600880549050905090565b610829610823611b17565b82611bd8565b610868576040517f08c379a000000000000000000000000000000000000000000000000000000000815260040161085f90614594565b60405180910390fd5b610873838383611cb6565b505050565b600d60009054906101000a900473ffffffffffffffffffffffffffffffffffffffff1681565b60006108a983610bf5565b82106108ea576040517f08c379a00000000000000000000000000000000000000000000000000000000081526004016108e190614294565b60405180910390fd5b600660008473ffffffffffffffffffffffffffffffffffffffff1673ffffffffffffffffffffffffffffffffffffffff168152602001908152602001600020600083815260200190815260200160002054905092915050565b61094b611b17565b73ffffffffffffffffffffffffffffffffffffffff16610969610d35565b73ffffffffffffffffffffffffffffffffffffffff16146109bf576040517f08c379a00000000000000000000000000000000000000000000000000000000081526004016109b6906144d4565b60405180910390fd5b601054600f5410610a05576040517f08c379a00000000000000000000000000000000000000000000000000000000081526004016109fc906145f4565b60405180910390fd5b600f6000815480929190610a1890614917565b9190505550610a2981600f54611f12565b610a44600f5460405180602001604052806000815250611f30565b50565b610a6283838360405180602001604052806000815250610e39565b505050565b610a7081611fa4565b7f80b6d649a268228baa57d76eff0392b16e65be3663d848f1eb68b7ad973995e18133604051610aa192919061462f565b60405180910390a150565b6000610ab661080b565b8210610af7576040517f08c379a0000000000000000000000000000000000000000000000000000000008152600401610aee906145d4565b60405180910390fd5b60088281548110610b31577f4e487b7100000000000000000000000000000000000000000000000000000000600052603260045260246000fd5b90600052602060002001549050919050565b6000806002600084815260200190815260200160002060009054906101000a900473ffffffffffffffffffffffffffffffffffffffff169050600073ffffffffffffffffffffffffffffffffffffffff168173ffffffffffffffffffffffffffffffffffffffff161415610bec576040517f08c379a0000000000000000000000000000000000000000000000000000000008152600401610be3906143f4565b60405180910390fd5b80915050919050565b60008073ffffffffffffffffffffffffffffffffffffffff168273ffffffffffffffffffffffffffffffffffffffff161415610c66576040517f08c379a0000000000000000000000000000000000000000000000000000000008152600401610c5d906143d4565b60405180910390fd5b600360008373ffffffffffffffffffffffffffffffffffffffff1673ffffffffffffffffffffffffffffffffffffffff168152602001908152602001600020549050919050565b610cb5611b17565b73ffffffffffffffffffffffffffffffffffffffff16610cd3610d35565b73ffffffffffffffffffffffffffffffffffffffff1614610d29576040517f08c379a0000000000000000000000000000000000000000000000000000000008152600401610d20906144d4565b60405180910390fd5b610d336000611fb0565b565b6000600b60009054906101000a900473ffffffffffffffffffffffffffffffffffffffff16905090565b606060018054610d6e906148e5565b80601f0160208091040260200160405190810160405280929190818152602001828054610d9a906148e5565b8015610de75780601f10610dbc57610100808354040283529160200191610de7565b820191906000526020600020905b815481529060010190602001808311610dca57829003601f168201915b5050505050905090565b600f5481565b610e09610e02611b17565b8383612076565b5050565b600e60009054906101000a900473ffffffffffffffffffffffffffffffffffffffff1681565b60115481565b610e4a610e44611b17565b83611bd8565b610e89576040517f08c379a0000000000000000000000000000000000000000000000000000000008152600401610e8090614594565b60405180910390fd5b610e95848484846121e3565b50505050565b6060610ea68261223f565b9050919050565b60105481565b6000600560008473ffffffffffffffffffffffffffffffffffffffff1673ffffffffffffffffffffffffffffffffffffffff16815260200190815260200160002060008373ffffffffffffffffffffffffffffffffffffffff1673ffffffffffffffffffffffffffffffffffffffff16815260200190815260200160002060009054906101000a900460ff16905092915050565b600c60009054906101000a900473ffffffffffffffffffffffffffffffffffffffff1681565b610f75611b17565b73ffffffffffffffffffffffffffffffffffffffff16610f93610d35565b73ffffffffffffffffffffffffffffffffffffffff1614610fe9576040517f08c379a0000000000000000000000000000000000000000000000000000000008152600401610fe0906144d4565b60405180910390fd5b600073ffffffffffffffffffffffffffffffffffffffff168173ffffffffffffffffffffffffffffffffffffffff161415611059576040517f08c379a0000000000000000000000000000000000000000000000000000000008152600401611050906142d4565b60405180910390fd5b61106281611fb0565b50565b601054600f54106110ab576040517f08c379a00000000000000000000000000000000000000000000000000000000081526004016110a2906145f4565b60405180910390fd5b60003390506000600e60009054906101000a900473ffffffffffffffffffffffffffffffffffffffff1673ffffffffffffffffffffffffffffffffffffffff166370a08231836040518263ffffffff1660e01b815260040161110d9190614116565b60206040518083038186803b15801561112557600080fd5b505afa158015611139573d6000803e3d6000fd5b505050506040513d601f19601f8201168201806040525081019061115d9190613605565b9050601154600e60009054906101000a900473ffffffffffffffffffffffffffffffffffffffff1673ffffffffffffffffffffffffffffffffffffffff1663dd62ed3e84601260009054906101000a900473ffffffffffffffffffffffffffffffffffffffff166040518363ffffffff1660e01b81526004016111e1929190614131565b60206040518083038186803b1580156111f957600080fd5b505afa15801561120d573d6000803e3d6000fd5b505050506040513d601f19601f820116820180604052508101906112319190613605565b1015611272576040517f08c379a000000000000000000000000000000000000000000000000000000000815260040161126990614374565b60405180910390fd5b6011548110156112b7576040517f08c379a00000000000000000000000000000000000000000000000000000000081526004016112ae90614574565b60405180910390fd5b600e60009054906101000a900473ffffffffffffffffffffffffffffffffffffffff1673ffffffffffffffffffffffffffffffffffffffff166379cc6790836011546040518363ffffffff1660e01b81526004016113169291906141dd565b600060405180830381600087803b15801561133057600080fd5b505af1158015611344573d6000803e3d6000fd5b5050505061135d6011548261239190919063ffffffff16565b600e60009054906101000a900473ffffffffffffffffffffffffffffffffffffffff1673ffffffffffffffffffffffffffffffffffffffff166370a08231846040518263ffffffff1660e01b81526004016113b89190614116565b60206040518083038186803b1580156113d057600080fd5b505afa1580156113e4573d6000803e3d6000fd5b505050506040513d601f19601f820116820180604052508101906114089190613605565b14611448576040517f08c379a000000000000000000000000000000000000000000000000000000000815260040161143f90614474565b60405180910390fd5b600c60009054906101000a900473ffffffffffffffffffffffffffffffffffffffff1673ffffffffffffffffffffffffffffffffffffffff1663e985e9c583601260009054906101000a900473ffffffffffffffffffffffffffffffffffffffff166040518363ffffffff1660e01b81526004016114c7929190614131565b60206040518083038186803b1580156114df57600080fd5b505afa1580156114f3573d6000803e3d6000fd5b505050506040513d601f19601f820116820180604052508101906115179190613561565b611556576040517f08c379a000000000000000000000000000000000000000000000000000000000815260040161154d90614314565b60405180910390fd5b8173ffffffffffffffffffffffffffffffffffffffff16600c60009054906101000a900473ffffffffffffffffffffffffffffffffffffffff1673ffffffffffffffffffffffffffffffffffffffff16636352211e876040518263ffffffff1660e01b81526004016115c89190614614565b60206040518083038186803b1580156115e057600080fd5b505afa1580156115f4573d6000803e3d6000fd5b505050506040513d601f19601f8201168201806040525081019061161891906133ba565b73ffffffffffffffffffffffffffffffffffffffff161461166e576040517f08c379a000000000000000000000000000000000000000000000000000000000815260040161166590614494565b60405180910390fd5b600c60009054906101000a900473ffffffffffffffffffffffffffffffffffffffff1673ffffffffffffffffffffffffffffffffffffffff166323b872dd83601260009054906101000a900473ffffffffffffffffffffffffffffffffffffffff16886040518463ffffffff1660e01b81526004016116ef9392919061415a565b600060405180830381600087803b15801561170957600080fd5b505af115801561171d573d6000803e3d6000fd5b50505050600d60009054906101000a900473ffffffffffffffffffffffffffffffffffffffff1673ffffffffffffffffffffffffffffffffffffffff1663e985e9c583601260009054906101000a900473ffffffffffffffffffffffffffffffffffffffff166040518363ffffffff1660e01b81526004016117a0929190614131565b60206040518083038186803b1580156117b857600080fd5b505afa1580156117cc573d6000803e3d6000fd5b505050506040513d601f19601f820116820180604052508101906117f09190613561565b61182f576040517f08c379a000000000000000000000000000000000000000000000000000000000815260040161182690614534565b60405180910390fd5b8173ffffffffffffffffffffffffffffffffffffffff16600d60009054906101000a900473ffffffffffffffffffffffffffffffffffffffff1673ffffffffffffffffffffffffffffffffffffffff16636352211e866040518263ffffffff1660e01b81526004016118a19190614614565b60206040518083038186803b1580156118b957600080fd5b505afa1580156118cd573d6000803e3d6000fd5b505050506040513d601f19601f820116820180604052508101906118f191906133ba565b73ffffffffffffffffffffffffffffffffffffffff1614611947576040517f08c379a000000000000000000000000000000000000000000000000000000000815260040161193e906145b4565b60405180910390fd5b600d60009054906101000a900473ffffffffffffffffffffffffffffffffffffffff1673ffffffffffffffffffffffffffffffffffffffff166323b872dd83601260009054906101000a900473ffffffffffffffffffffffffffffffffffffffff16876040518463ffffffff1660e01b81526004016119c89392919061415a565b600060405180830381600087803b1580156119e257600080fd5b505af11580156119f6573d6000803e3d6000fd5b50505050600f6000815480929190611a0d90614917565b9190505550611a1e82600f54611f12565b611a2a600f5484611f30565b5050505050565b60007f780e9d63000000000000000000000000000000000000000000000000000000007bffffffffffffffffffffffffffffffffffffffffffffffffffffffff1916827bffffffffffffffffffffffffffffffffffffffffffffffffffffffff19161480611aa45750611aa3826123a7565b5b9050919050565b60008073ffffffffffffffffffffffffffffffffffffffff166002600084815260200190815260200160002060009054906101000a900473ffffffffffffffffffffffffffffffffffffffff1673ffffffffffffffffffffffffffffffffffffffff1614159050919050565b600033905090565b816004600083815260200190815260200160002060006101000a81548173ffffffffffffffffffffffffffffffffffffffff021916908373ffffffffffffffffffffffffffffffffffffffff160217905550808273ffffffffffffffffffffffffffffffffffffffff16611b9283610b43565b73ffffffffffffffffffffffffffffffffffffffff167f8c5be1e5ebec7d5bd14f71427d1e84f3dd0314c0f7b2291e5b200ac8c7c3b92560405160405180910390a45050565b6000611be382611aab565b611c22576040517f08c379a0000000000000000000000000000000000000000000000000000000008152600401611c1990614394565b60405180910390fd5b6000611c2d83610b43565b90508073ffffffffffffffffffffffffffffffffffffffff168473ffffffffffffffffffffffffffffffffffffffff161480611c9c57508373ffffffffffffffffffffffffffffffffffffffff16611c848461065a565b73ffffffffffffffffffffffffffffffffffffffff16145b80611cad5750611cac8185610eb3565b5b91505092915050565b8273ffffffffffffffffffffffffffffffffffffffff16611cd682610b43565b73ffffffffffffffffffffffffffffffffffffffff1614611d2c576040517f08c379a0000000000000000000000000000000000000000000000000000000008152600401611d23906144f4565b60405180910390fd5b600073ffffffffffffffffffffffffffffffffffffffff168273ffffffffffffffffffffffffffffffffffffffff161415611d9c576040517f08c379a0000000000000000000000000000000000000000000000000000000008152600401611d9390614334565b60405180910390fd5b611da7838383612489565b611db2600082611b1f565b6001600360008573ffffffffffffffffffffffffffffffffffffffff1673ffffffffffffffffffffffffffffffffffffffff1681526020019081526020016000206000828254611e0291906147b3565b925050819055506001600360008473ffffffffffffffffffffffffffffffffffffffff1673ffffffffffffffffffffffffffffffffffffffff1681526020019081526020016000206000828254611e59919061472c565b92505081905550816002600083815260200190815260200160002060006101000a81548173ffffffffffffffffffffffffffffffffffffffff021916908373ffffffffffffffffffffffffffffffffffffffff160217905550808273ffffffffffffffffffffffffffffffffffffffff168473ffffffffffffffffffffffffffffffffffffffff167fddf252ad1be2c89b69c2b068fc378daa952ba7f163c4a11628f55a4df523b3ef60405160405180910390a4505050565b611f2c828260405180602001604052806000815250612499565b5050565b611f3982611aab565b611f78576040517f08c379a0000000000000000000000000000000000000000000000000000000008152600401611f6f90614414565b60405180910390fd5b80600a60008481526020019081526020016000209080519060200190611f9f929190613136565b505050565b611fad816124f4565b50565b6000600b60009054906101000a900473ffffffffffffffffffffffffffffffffffffffff16905081600b60006101000a81548173ffffffffffffffffffffffffffffffffffffffff021916908373ffffffffffffffffffffffffffffffffffffffff1602179055508173ffffffffffffffffffffffffffffffffffffffff168173ffffffffffffffffffffffffffffffffffffffff167f8be0079c531659141344cd1fd0a4f28419497f9722a3daafe3b4186f6b6457e060405160405180910390a35050565b8173ffffffffffffffffffffffffffffffffffffffff168373ffffffffffffffffffffffffffffffffffffffff1614156120e5576040517f08c379a00000000000000000000000000000000000000000000000000000000081526004016120dc90614354565b60405180910390fd5b80600560008573ffffffffffffffffffffffffffffffffffffffff1673ffffffffffffffffffffffffffffffffffffffff16815260200190815260200160002060008473ffffffffffffffffffffffffffffffffffffffff1673ffffffffffffffffffffffffffffffffffffffff16815260200190815260200160002060006101000a81548160ff0219169083151502179055508173ffffffffffffffffffffffffffffffffffffffff168373ffffffffffffffffffffffffffffffffffffffff167f17307eab39ab6107e8899845ad3d59bd9653f200f220920489ca2b5937696c31836040516121d69190614206565b60405180910390a3505050565b6121ee848484611cb6565b6121fa84848484612547565b612239576040517f08c379a0000000000000000000000000000000000000000000000000000000008152600401612230906142b4565b60405180910390fd5b50505050565b606061224a82611aab565b612289576040517f08c379a000000000000000000000000000000000000000000000000000000000815260040161228090614454565b60405180910390fd5b6000600a600084815260200190815260200160002080546122a9906148e5565b80601f01602080910402602001604051908101604052809291908181526020018280546122d5906148e5565b80156123225780601f106122f757610100808354040283529160200191612322565b820191906000526020600020905b81548152906001019060200180831161230557829003601f168201915b5050505050905060006123336126de565b905060008151141561234957819250505061238c565b60008251111561237e5780826040516020016123669291906140f2565b6040516020818303038152906040529250505061238c565b612387846126f5565b925050505b919050565b6000818361239f91906147b3565b905092915050565b60007f80ac58cd000000000000000000000000000000000000000000000000000000007bffffffffffffffffffffffffffffffffffffffffffffffffffffffff1916827bffffffffffffffffffffffffffffffffffffffffffffffffffffffff1916148061247257507f5b5e139f000000000000000000000000000000000000000000000000000000007bffffffffffffffffffffffffffffffffffffffffffffffffffffffff1916827bffffffffffffffffffffffffffffffffffffffffffffffffffffffff1916145b8061248257506124818261279c565b5b9050919050565b612494838383612806565b505050565b6124a3838361291a565b6124b06000848484612547565b6124ef576040517f08c379a00000000000000000000000000000000000000000000000000000000081526004016124e6906142b4565b60405180910390fd5b505050565b6124fd81612ae8565b6000600a6000838152602001908152602001600020805461251d906148e5565b90501461254457600a6000828152602001908152602001600020600061254391906131bc565b5b50565b60006125688473ffffffffffffffffffffffffffffffffffffffff16612bf9565b156126d1578373ffffffffffffffffffffffffffffffffffffffff1663150b7a02612591611b17565b8786866040518563ffffffff1660e01b81526004016125b39493929190614191565b602060405180830381600087803b1580156125cd57600080fd5b505af19250505080156125fe57506040513d601f19601f820116820180604052508101906125fb91906135b3565b60015b612681573d806000811461262e576040519150601f19603f3d011682016040523d82523d6000602084013e612633565b606091505b50600081511415612679576040517f08c379a0000000000000000000000000000000000000000000000000000000008152600401612670906142b4565b60405180910390fd5b805181602001fd5b63150b7a0260e01b7bffffffffffffffffffffffffffffffffffffffffffffffffffffffff1916817bffffffffffffffffffffffffffffffffffffffffffffffffffffffff1916149150506126d6565b600190505b949350505050565b606060405180602001604052806000815250905090565b606061270082611aab565b61273f576040517f08c379a000000000000000000000000000000000000000000000000000000000815260040161273690614514565b60405180910390fd5b60006127496126de565b905060008151116127695760405180602001604052806000815250612794565b8061277384612c0c565b6040516020016127849291906140f2565b6040516020818303038152906040525b915050919050565b60007f01ffc9a7000000000000000000000000000000000000000000000000000000007bffffffffffffffffffffffffffffffffffffffffffffffffffffffff1916827bffffffffffffffffffffffffffffffffffffffffffffffffffffffff1916149050919050565b612811838383612db9565b600073ffffffffffffffffffffffffffffffffffffffff168373ffffffffffffffffffffffffffffffffffffffff1614156128545761284f81612dbe565b612893565b8173ffffffffffffffffffffffffffffffffffffffff168373ffffffffffffffffffffffffffffffffffffffff1614612892576128918382612e07565b5b5b600073ffffffffffffffffffffffffffffffffffffffff168273ffffffffffffffffffffffffffffffffffffffff1614156128d6576128d181612f74565b612915565b8273ffffffffffffffffffffffffffffffffffffffff168273ffffffffffffffffffffffffffffffffffffffff16146129145761291382826130b7565b5b5b505050565b600073ffffffffffffffffffffffffffffffffffffffff168273ffffffffffffffffffffffffffffffffffffffff16141561298a576040517f08c379a000000000000000000000000000000000000000000000000000000000815260040161298190614434565b60405180910390fd5b61299381611aab565b156129d3576040517f08c379a00000000000000000000000000000000000000000000000000000000081526004016129ca906142f4565b60405180910390fd5b6129df60008383612489565b6001600360008473ffffffffffffffffffffffffffffffffffffffff1673ffffffffffffffffffffffffffffffffffffffff1681526020019081526020016000206000828254612a2f919061472c565b92505081905550816002600083815260200190815260200160002060006101000a81548173ffffffffffffffffffffffffffffffffffffffff021916908373ffffffffffffffffffffffffffffffffffffffff160217905550808273ffffffffffffffffffffffffffffffffffffffff16600073ffffffffffffffffffffffffffffffffffffffff167fddf252ad1be2c89b69c2b068fc378daa952ba7f163c4a11628f55a4df523b3ef60405160405180910390a45050565b6000612af382610b43565b9050612b0181600084612489565b612b0c600083611b1f565b6001600360008373ffffffffffffffffffffffffffffffffffffffff1673ffffffffffffffffffffffffffffffffffffffff1681526020019081526020016000206000828254612b5c91906147b3565b925050819055506002600083815260200190815260200160002060006101000a81549073ffffffffffffffffffffffffffffffffffffffff021916905581600073ffffffffffffffffffffffffffffffffffffffff168273ffffffffffffffffffffffffffffffffffffffff167fddf252ad1be2c89b69c2b068fc378daa952ba7f163c4a11628f55a4df523b3ef60405160405180910390a45050565b600080823b905060008111915050919050565b60606000821415612c54576040518060400160405280600181526020017f30000000000000000000000000000000000000000000000000000000000000008152509050612db4565b600082905060005b60008214612c86578080612c6f90614917565b915050600a82612c7f9190614782565b9150612c5c565b60008167ffffffffffffffff811115612cc8577f4e487b7100000000000000000000000000000000000000000000000000000000600052604160045260246000fd5b6040519080825280601f01601f191660200182016040528015612cfa5781602001600182028036833780820191505090505b5090505b60008514612dad57600182612d1391906147b3565b9150600a85612d229190614960565b6030612d2e919061472c565b60f81b818381518110612d6a577f4e487b7100000000000000000000000000000000000000000000000000000000600052603260045260246000fd5b60200101907effffffffffffffffffffffffffffffffffffffffffffffffffffffffffffff1916908160001a905350600a85612da69190614782565b9450612cfe565b8093505050505b919050565b505050565b6008805490506009600083815260200190815260200160002081905550600881908060018154018082558091505060019003906000526020600020016000909190919091505550565b60006001612e1484610bf5565b612e1e91906147b3565b9050600060076000848152602001908152602001600020549050818114612f03576000600660008673ffffffffffffffffffffffffffffffffffffffff1673ffffffffffffffffffffffffffffffffffffffff168152602001908152602001600020600084815260200190815260200160002054905080600660008773ffffffffffffffffffffffffffffffffffffffff1673ffffffffffffffffffffffffffffffffffffffff168152602001908152602001600020600084815260200190815260200160002081905550816007600083815260200190815260200160002081905550505b6007600084815260200190815260200160002060009055600660008573ffffffffffffffffffffffffffffffffffffffff1673ffffffffffffffffffffffffffffffffffffffff16815260200190815260200160002060008381526020019081526020016000206000905550505050565b60006001600880549050612f8891906147b3565b9050600060096000848152602001908152602001600020549050600060088381548110612fde577f4e487b7100000000000000000000000000000000000000000000000000000000600052603260045260246000fd5b906000526020600020015490508060088381548110613026577f4e487b7100000000000000000000000000000000000000000000000000000000600052603260045260246000fd5b90600052602060002001819055508160096000838152602001908152602001600020819055506009600085815260200190815260200160002060009055600880548061309b577f4e487b7100000000000000000000000000000000000000000000000000000000600052603160045260246000fd5b6001900381819060005260206000200160009055905550505050565b60006130c283610bf5565b905081600660008573ffffffffffffffffffffffffffffffffffffffff1673ffffffffffffffffffffffffffffffffffffffff168152602001908152602001600020600083815260200190815260200160002081905550806007600084815260200190815260200160002081905550505050565b828054613142906148e5565b90600052602060002090601f01602090048101928261316457600085556131ab565b82601f1061317d57805160ff19168380011785556131ab565b828001600101855582156131ab579182015b828111156131aa57825182559160200191906001019061318f565b5b5090506131b891906131fc565b5090565b5080546131c8906148e5565b6000825580601f106131da57506131f9565b601f0160209004906000526020600020908101906131f891906131fc565b5b50565b5b808211156132155760008160009055506001016131fd565b5090565b600061322c61322784614689565b614658565b90508281526020810184848401111561324457600080fd5b61324f8482856148a3565b509392505050565b600061326a613265846146b9565b614658565b90508281526020810184848401111561328257600080fd5b61328d8482856148a3565b509392505050565b6000813590506132a481614a5e565b92915050565b6000815190506132b981614a5e565b92915050565b6000813590506132ce81614a75565b92915050565b6000815190506132e381614a75565b92915050565b6000813590506132f881614a8c565b92915050565b60008151905061330d81614a8c565b92915050565b600082601f83011261332457600080fd5b8135613334848260208601613219565b91505092915050565b600082601f83011261334e57600080fd5b813561335e848260208601613257565b91505092915050565b60008135905061337681614aa3565b92915050565b60008151905061338b81614aa3565b92915050565b6000602082840312156133a357600080fd5b60006133b184828501613295565b91505092915050565b6000602082840312156133cc57600080fd5b60006133da848285016132aa565b91505092915050565b600080604083850312156133f657600080fd5b600061340485828601613295565b925050602061341585828601613295565b9150509250929050565b60008060006060848603121561343457600080fd5b600061344286828701613295565b935050602061345386828701613295565b925050604061346486828701613367565b9150509250925092565b6000806000806080858703121561348457600080fd5b600061349287828801613295565b94505060206134a387828801613295565b93505060406134b487828801613367565b925050606085013567ffffffffffffffff8111156134d157600080fd5b6134dd87828801613313565b91505092959194509250565b600080604083850312156134fc57600080fd5b600061350a85828601613295565b925050602061351b858286016132bf565b9150509250929050565b6000806040838503121561353857600080fd5b600061354685828601613295565b925050602061355785828601613367565b9150509250929050565b60006020828403121561357357600080fd5b6000613581848285016132d4565b91505092915050565b60006020828403121561359c57600080fd5b60006135aa848285016132e9565b91505092915050565b6000602082840312156135c557600080fd5b60006135d3848285016132fe565b91505092915050565b6000602082840312156135ee57600080fd5b60006135fc84828501613367565b91505092915050565b60006020828403121561361757600080fd5b60006136258482850161337c565b91505092915050565b60008060006060848603121561364357600080fd5b600061365186828701613367565b935050602061366286828701613367565b925050604084013567ffffffffffffffff81111561367f57600080fd5b61368b8682870161333d565b9150509250925092565b61369e816147e7565b82525050565b6136ad816147f9565b82525050565b6136bc81614805565b82525050565b60006136cd826146e9565b6136d781856146ff565b93506136e78185602086016148b2565b6136f081614a4d565b840191505092915050565b6137048161485b565b82525050565b6137138161487f565b82525050565b6000613724826146f4565b61372e8185614710565b935061373e8185602086016148b2565b61374781614a4d565b840191505092915050565b600061375d826146f4565b6137678185614721565b93506137778185602086016148b2565b80840191505092915050565b6000613790602b83614710565b91507f455243373231456e756d657261626c653a206f776e657220696e646578206f7560008301527f74206f6620626f756e64730000000000000000000000000000000000000000006020830152604082019050919050565b60006137f6603283614710565b91507f4552433732313a207472616e7366657220746f206e6f6e20455243373231526560008301527f63656976657220696d706c656d656e74657200000000000000000000000000006020830152604082019050919050565b600061385c602683614710565b91507f4f776e61626c653a206e6577206f776e657220697320746865207a65726f206160008301527f64647265737300000000000000000000000000000000000000000000000000006020830152604082019050919050565b60006138c2601c83614710565b91507f4552433732313a20746f6b656e20616c7265616479206d696e746564000000006000830152602082019050919050565b6000613902601183614710565b91507f4552525f424c55455f415050524f56414c0000000000000000000000000000006000830152602082019050919050565b6000613942602483614710565b91507f4552433732313a207472616e7366657220746f20746865207a65726f2061646460008301527f72657373000000000000000000000000000000000000000000000000000000006020830152604082019050919050565b60006139a8601983614710565b91507f4552433732313a20617070726f766520746f2063616c6c6572000000000000006000830152602082019050919050565b60006139e8601683614710565b91507f4552525f494e4352454153455f414c4c4f57414e4345000000000000000000006000830152602082019050919050565b6000613a28602c83614710565b91507f4552433732313a206f70657261746f7220717565727920666f72206e6f6e657860008301527f697374656e7420746f6b656e00000000000000000000000000000000000000006020830152604082019050919050565b6000613a8e603883614710565b91507f4552433732313a20617070726f76652063616c6c6572206973206e6f74206f7760008301527f6e6572206e6f7220617070726f76656420666f7220616c6c00000000000000006020830152604082019050919050565b6000613af4602a83614710565b91507f4552433732313a2062616c616e636520717565727920666f7220746865207a6560008301527f726f2061646472657373000000000000000000000000000000000000000000006020830152604082019050919050565b6000613b5a602983614710565b91507f4552433732313a206f776e657220717565727920666f72206e6f6e657869737460008301527f656e7420746f6b656e00000000000000000000000000000000000000000000006020830152604082019050919050565b6000613bc0602e83614710565b91507f45524337323155524953746f726167653a2055524920736574206f66206e6f6e60008301527f6578697374656e7420746f6b656e0000000000000000000000000000000000006020830152604082019050919050565b6000613c26602083614710565b91507f4552433732313a206d696e7420746f20746865207a65726f20616464726573736000830152602082019050919050565b6000613c66603183614710565b91507f45524337323155524953746f726167653a2055524920717565727920666f722060008301527f6e6f6e6578697374656e7420746f6b656e0000000000000000000000000000006020830152604082019050919050565b6000613ccc601083614710565b91507f47524156455f4255524e5f4552524f52000000000000000000000000000000006000830152602082019050919050565b6000613d0c600e83614710565b91507f4e4f545f424c55455f4f574e45520000000000000000000000000000000000006000830152602082019050919050565b6000613d4c602c83614710565b91507f4552433732313a20617070726f76656420717565727920666f72206e6f6e657860008301527f697374656e7420746f6b656e00000000000000000000000000000000000000006020830152604082019050919050565b6000613db2602083614710565b91507f4f776e61626c653a2063616c6c6572206973206e6f7420746865206f776e65726000830152602082019050919050565b6000613df2602983614710565b91507f4552433732313a207472616e73666572206f6620746f6b656e2074686174206960008301527f73206e6f74206f776e00000000000000000000000000000000000000000000006020830152604082019050919050565b6000613e58602f83614710565b91507f4552433732314d657461646174613a2055524920717565727920666f72206e6f60008301527f6e6578697374656e7420746f6b656e00000000000000000000000000000000006020830152604082019050919050565b6000613ebe601083614710565b91507f4552525f5245445f415050524f56414c000000000000000000000000000000006000830152602082019050919050565b6000613efe602183614710565b91507f4552433732313a20617070726f76616c20746f2063757272656e74206f776e6560008301527f72000000000000000000000000000000000000000000000000000000000000006020830152604082019050919050565b6000613f64600d83614710565b91507f4552525f4255595f4752415645000000000000000000000000000000000000006000830152602082019050919050565b6000613fa4603183614710565b91507f4552433732313a207472616e736665722063616c6c6572206973206e6f74206f60008301527f776e6572206e6f7220617070726f7665640000000000000000000000000000006020830152604082019050919050565b600061400a600d83614710565b91507f4e4f545f5245445f4f574e4552000000000000000000000000000000000000006000830152602082019050919050565b600061404a602c83614710565b91507f455243373231456e756d657261626c653a20676c6f62616c20696e646578206f60008301527f7574206f6620626f756e647300000000000000000000000000000000000000006020830152604082019050919050565b60006140b0600e83614710565b91507f4552525f4d41585f535550504c590000000000000000000000000000000000006000830152602082019050919050565b6140ec81614851565b82525050565b60006140fe8285613752565b915061410a8284613752565b91508190509392505050565b600060208201905061412b6000830184613695565b92915050565b60006040820190506141466000830185613695565b6141536020830184613695565b9392505050565b600060608201905061416f6000830186613695565b61417c6020830185613695565b61418960408301846140e3565b949350505050565b60006080820190506141a66000830187613695565b6141b36020830186613695565b6141c060408301856140e3565b81810360608301526141d281846136c2565b905095945050505050565b60006040820190506141f26000830185613695565b6141ff60208301846140e3565b9392505050565b600060208201905061421b60008301846136a4565b92915050565b600060208201905061423660008301846136b3565b92915050565b600060208201905061425160008301846136fb565b92915050565b600060208201905061426c600083018461370a565b92915050565b6000602082019050818103600083015261428c8184613719565b905092915050565b600060208201905081810360008301526142ad81613783565b9050919050565b600060208201905081810360008301526142cd816137e9565b9050919050565b600060208201905081810360008301526142ed8161384f565b9050919050565b6000602082019050818103600083015261430d816138b5565b9050919050565b6000602082019050818103600083015261432d816138f5565b9050919050565b6000602082019050818103600083015261434d81613935565b9050919050565b6000602082019050818103600083015261436d8161399b565b9050919050565b6000602082019050818103600083015261438d816139db565b9050919050565b600060208201905081810360008301526143ad81613a1b565b9050919050565b600060208201905081810360008301526143cd81613a81565b9050919050565b600060208201905081810360008301526143ed81613ae7565b9050919050565b6000602082019050818103600083015261440d81613b4d565b9050919050565b6000602082019050818103600083015261442d81613bb3565b9050919050565b6000602082019050818103600083015261444d81613c19565b9050919050565b6000602082019050818103600083015261446d81613c59565b9050919050565b6000602082019050818103600083015261448d81613cbf565b9050919050565b600060208201905081810360008301526144ad81613cff565b9050919050565b600060208201905081810360008301526144cd81613d3f565b9050919050565b600060208201905081810360008301526144ed81613da5565b9050919050565b6000602082019050818103600083015261450d81613de5565b9050919050565b6000602082019050818103600083015261452d81613e4b565b9050919050565b6000602082019050818103600083015261454d81613eb1565b9050919050565b6000602082019050818103600083015261456d81613ef1565b9050919050565b6000602082019050818103600083015261458d81613f57565b9050919050565b600060208201905081810360008301526145ad81613f97565b9050919050565b600060208201905081810360008301526145cd81613ffd565b9050919050565b600060208201905081810360008301526145ed8161403d565b9050919050565b6000602082019050818103600083015261460d816140a3565b9050919050565b600060208201905061462960008301846140e3565b92915050565b600060408201905061464460008301856140e3565b6146516020830184613695565b9392505050565b6000604051905081810181811067ffffffffffffffff8211171561467f5761467e614a1e565b5b8060405250919050565b600067ffffffffffffffff8211156146a4576146a3614a1e565b5b601f19601f8301169050602081019050919050565b600067ffffffffffffffff8211156146d4576146d3614a1e565b5b601f19601f8301169050602081019050919050565b600081519050919050565b600081519050919050565b600082825260208201905092915050565b600082825260208201905092915050565b600081905092915050565b600061473782614851565b915061474283614851565b9250827fffffffffffffffffffffffffffffffffffffffffffffffffffffffffffffffff0382111561477757614776614991565b5b828201905092915050565b600061478d82614851565b915061479883614851565b9250826147a8576147a76149c0565b5b828204905092915050565b60006147be82614851565b91506147c983614851565b9250828210156147dc576147db614991565b5b828203905092915050565b60006147f282614831565b9050919050565b60008115159050919050565b60007fffffffff0000000000000000000000000000000000000000000000000000000082169050919050565b600073ffffffffffffffffffffffffffffffffffffffff82169050919050565b6000819050919050565b60006148668261486d565b9050919050565b600061487882614831565b9050919050565b600061488a82614891565b9050919050565b600061489c82614831565b9050919050565b82818337600083830152505050565b60005b838110156148d05780820151818401526020810190506148b5565b838111156148df576000848401525b50505050565b600060028204905060018216806148fd57607f821691505b60208210811415614911576149106149ef565b5b50919050565b600061492282614851565b91507fffffffffffffffffffffffffffffffffffffffffffffffffffffffffffffffff82141561495557614954614991565b5b600182019050919050565b600061496b82614851565b915061497683614851565b925082614986576149856149c0565b5b828206905092915050565b7f4e487b7100000000000000000000000000000000000000000000000000000000600052601160045260246000fd5b7f4e487b7100000000000000000000000000000000000000000000000000000000600052601260045260246000fd5b7f4e487b7100000000000000000000000000000000000000000000000000000000600052602260045260246000fd5b7f4e487b7100000000000000000000000000000000000000000000000000000000600052604160045260246000fd5b6000601f19601f8301169050919050565b614a67816147e7565b8114614a7257600080fd5b50565b614a7e816147f9565b8114614a8957600080fd5b50565b614a9581614805565b8114614aa057600080fd5b50565b614aac81614851565b8114614ab757600080fd5b5056fea264697066735822122013c65ed377e69d7f11d320cc43979ed4b172b08edf371350dca1c3a65b49d68764736f6c63430008000033",
  "immutableReferences": {},
  "source": "// SPDX-License-Identifier: MIT\npragma solidity ^0.8.0;\n\nimport \"@openzeppelin/contracts/token/ERC721/ERC721.sol\";\nimport \"@openzeppelin/contracts/token/ERC721/IERC721.sol\";\nimport \"@openzeppelin/contracts/token/ERC721/extensions/ERC721Enumerable.sol\";\nimport \"@openzeppelin/contracts/token/ERC721/extensions/ERC721URIStorage.sol\";\nimport \"@openzeppelin/contracts/access/Ownable.sol\";\nimport \"@openzeppelin/contracts/utils/math/SafeMath.sol\";\nimport \"./interface/IERC20Burnable.sol\";\n\ncontract PurplePotions is ERC721, ERC721Enumerable, ERC721URIStorage, Ownable {\n    using SafeMath for uint;\n    IERC721 public blue;\n    IERC721 public red;\n    IERC20Burnable public  grave;\n    uint public tokenCount = 0;\n    uint public maxSupply = 333;\n    uint public graveCost = 20 * 10**18;\n    address private thisAddress = address(this);\n\n    constructor(\n        IERC721 _blue,\n        IERC721 _red,\n        IERC20Burnable _grave\n    ) ERC721(\"CroSkull Purple Potion\", \"CSPP\") {\n        blue = _blue;\n        red = _red;\n        grave = _grave;\n    }\n\n    event PurpleBurn(uint256 potionId, address owner);\n\n    function mergePotions(uint blueId, uint redId, string memory ipfsUri) public {\n        require( tokenCount < maxSupply, \"ERR_MAX_SUPPLY\" );\n        address user = msg.sender;\n        //grave check\n        uint preGraveBal = grave.balanceOf(user);\n        require( grave.allowance(user, thisAddress) >= graveCost, \"ERR_INCREASE_ALLOWANCE\");\n        require( preGraveBal >= graveCost, \"ERR_BUY_GRAVE\");\n        grave.burnFrom(user, graveCost);\n        require( grave.balanceOf(user) == preGraveBal.sub(graveCost), \"GRAVE_BURN_ERROR\" );\n        //blue check\n        require( blue.isApprovedForAll(user, thisAddress), \"ERR_BLUE_APPROVAL\" );\n        require( blue.ownerOf(blueId) == user, \"NOT_BLUE_OWNER\" );\n        blue.transferFrom(user, thisAddress, blueId);\n        //red check\n        require( red.isApprovedForAll(user, thisAddress), \"ERR_RED_APPROVAL\");\n        require( red.ownerOf(redId) == user, \"NOT_RED_OWNER\" );\n        red.transferFrom(user, thisAddress, redId);\n        //minting\n        tokenCount++;\n        _safeMint(user, tokenCount);\n        _setTokenURI(tokenCount, ipfsUri);\n    }\n\n    function safeMint(address to)\n        public\n        onlyOwner\n    {\n        require( tokenCount < maxSupply, \"ERR_MAX_SUPPLY\" );\n        tokenCount++;\n        _safeMint(to, tokenCount);\n        _setTokenURI(tokenCount, \"\");\n    }\n\n    function burn(uint256 tokenId) public {\n        _burn(tokenId);\n        emit PurpleBurn(tokenId, msg.sender);\n    }\n\n    // The following functions are overrides required by Solidity.\n\n    function _beforeTokenTransfer(address from, address to, uint256 tokenId)\n        internal\n        override(ERC721, ERC721Enumerable)\n    {\n        super._beforeTokenTransfer(from, to, tokenId);\n    }\n\n    function _burn(uint256 tokenId) internal override(ERC721, ERC721URIStorage) {\n        super._burn(tokenId);\n    }\n\n    function tokenURI(uint256 tokenId)\n        public\n        view\n        override(ERC721, ERC721URIStorage)\n        returns (string memory)\n    {\n        return super.tokenURI(tokenId);\n    }\n\n    function supportsInterface(bytes4 interfaceId)\n        public\n        view\n        override(ERC721, ERC721Enumerable)\n        returns (bool)\n    {\n        return super.supportsInterface(interfaceId);\n    }\n    //ERC721\n    function onERC721Received(address, address, uint256, bytes memory) public virtual returns (bytes4) {\n        return this.onERC721Received.selector;\n    }\n}",
  "sourcePath": "/Users/alessandrodecristofaro/Desktop/DeFi Code/croskull-repo/src/contracts/PurplePotions.sol",
  "compiler": {
    "name": "solc",
    "version": "0.8.0+commit.c7dfd78e.Emscripten.clang"
  },
  "schemaVersion": "3.4.3",
  "updatedAt": "2022-04-27T19:54:39.200Z",
  "devdoc": {
    "kind": "dev",
    "methods": {
      "approve(address,uint256)": {
        "details": "See {IERC721-approve}."
      },
      "balanceOf(address)": {
        "details": "See {IERC721-balanceOf}."
      },
      "getApproved(uint256)": {
        "details": "See {IERC721-getApproved}."
      },
      "isApprovedForAll(address,address)": {
        "details": "See {IERC721-isApprovedForAll}."
      },
      "name()": {
        "details": "See {IERC721Metadata-name}."
      },
      "owner()": {
        "details": "Returns the address of the current owner."
      },
      "ownerOf(uint256)": {
        "details": "See {IERC721-ownerOf}."
      },
      "renounceOwnership()": {
        "details": "Leaves the contract without owner. It will not be possible to call `onlyOwner` functions anymore. Can only be called by the current owner. NOTE: Renouncing ownership will leave the contract without an owner, thereby removing any functionality that is only available to the owner."
      },
      "safeTransferFrom(address,address,uint256)": {
        "details": "See {IERC721-safeTransferFrom}."
      },
      "safeTransferFrom(address,address,uint256,bytes)": {
        "details": "See {IERC721-safeTransferFrom}."
      },
      "setApprovalForAll(address,bool)": {
        "details": "See {IERC721-setApprovalForAll}."
      },
      "symbol()": {
        "details": "See {IERC721Metadata-symbol}."
      },
      "tokenByIndex(uint256)": {
        "details": "See {IERC721Enumerable-tokenByIndex}."
      },
      "tokenOfOwnerByIndex(address,uint256)": {
        "details": "See {IERC721Enumerable-tokenOfOwnerByIndex}."
      },
      "totalSupply()": {
        "details": "See {IERC721Enumerable-totalSupply}."
      },
      "transferFrom(address,address,uint256)": {
        "details": "See {IERC721-transferFrom}."
      },
      "transferOwnership(address)": {
        "details": "Transfers ownership of the contract to a new account (`newOwner`). Can only be called by the current owner."
      }
    },
    "version": 1
  },
  "userdoc": {
    "kind": "user",
    "methods": {},
    "version": 1
  }
}