{
  "contractName": "SkullsRaffle",
  "abi": [
    {
      "inputs": [
        {
          "internalType": "contract IERC20Burnable",
          "name": "_grave",
          "type": "address"
        }
      ],
      "stateMutability": "nonpayable",
      "type": "constructor"
    },
    {
      "anonymous": false,
      "inputs": [
        {
          "indexed": true,
          "internalType": "bytes32",
          "name": "raffleHash",
          "type": "bytes32"
        },
        {
          "indexed": false,
          "internalType": "address",
          "name": "_token",
          "type": "address"
        },
        {
          "indexed": false,
          "internalType": "uint256",
          "name": "_raffleCounter",
          "type": "uint256"
        },
        {
          "indexed": false,
          "internalType": "uint256",
          "name": "_cost",
          "type": "uint256"
        },
        {
          "indexed": false,
          "internalType": "uint256",
          "name": "_winnersCount",
          "type": "uint256"
        },
        {
          "indexed": false,
          "internalType": "uint256",
          "name": "_endTimestamp",
          "type": "uint256"
        },
        {
          "indexed": false,
          "internalType": "string",
          "name": "_ipfsHash",
          "type": "string"
        }
      ],
      "name": "RaffleCreation",
      "type": "event"
    },
    {
      "anonymous": false,
      "inputs": [
        {
          "indexed": true,
          "internalType": "bytes32",
          "name": "raffleHash",
          "type": "bytes32"
        },
        {
          "indexed": false,
          "internalType": "uint256",
          "name": "raffleId",
          "type": "uint256"
        },
        {
          "indexed": false,
          "internalType": "uint256",
          "name": "winnersCount",
          "type": "uint256"
        }
      ],
      "name": "RaffleEnd",
      "type": "event"
    },
    {
      "inputs": [],
      "name": "GRAVE",
      "outputs": [
        {
          "internalType": "contract IERC20Burnable",
          "name": "",
          "type": "address"
        }
      ],
      "stateMutability": "view",
      "type": "function",
      "constant": true
    },
    {
      "inputs": [],
      "name": "fastRafflePercent",
      "outputs": [
        {
          "internalType": "uint256",
          "name": "",
          "type": "uint256"
        }
      ],
      "stateMutability": "view",
      "type": "function",
      "constant": true
    },
    {
      "inputs": [
        {
          "internalType": "address",
          "name": "",
          "type": "address"
        }
      ],
      "name": "managers",
      "outputs": [
        {
          "internalType": "bool",
          "name": "",
          "type": "bool"
        }
      ],
      "stateMutability": "view",
      "type": "function",
      "constant": true
    },
    {
      "inputs": [],
      "name": "maxWinners",
      "outputs": [
        {
          "internalType": "uint256",
          "name": "",
          "type": "uint256"
        }
      ],
      "stateMutability": "view",
      "type": "function",
      "constant": true
    },
    {
      "inputs": [],
      "name": "owner",
      "outputs": [
        {
          "internalType": "address",
          "name": "",
          "type": "address"
        }
      ],
      "stateMutability": "view",
      "type": "function",
      "constant": true
    },
    {
      "inputs": [
        {
          "internalType": "bytes32",
          "name": "",
          "type": "bytes32"
        }
      ],
      "name": "participants",
      "outputs": [
        {
          "internalType": "address",
          "name": "",
          "type": "address"
        }
      ],
      "stateMutability": "view",
      "type": "function",
      "constant": true
    },
    {
      "inputs": [
        {
          "internalType": "bytes32",
          "name": "",
          "type": "bytes32"
        }
      ],
      "name": "players",
      "outputs": [
        {
          "internalType": "bool",
          "name": "",
          "type": "bool"
        }
      ],
      "stateMutability": "view",
      "type": "function",
      "constant": true
    },
    {
      "inputs": [],
      "name": "raffleCounter",
      "outputs": [
        {
          "internalType": "uint256",
          "name": "",
          "type": "uint256"
        }
      ],
      "stateMutability": "view",
      "type": "function",
      "constant": true
    },
    {
      "inputs": [
        {
          "internalType": "bytes32",
          "name": "",
          "type": "bytes32"
        }
      ],
      "name": "raffles",
      "outputs": [
        {
          "internalType": "uint256",
          "name": "playersCount",
          "type": "uint256"
        },
        {
          "internalType": "uint256",
          "name": "winnersCount",
          "type": "uint256"
        },
        {
          "internalType": "uint256",
          "name": "claimedAmount",
          "type": "uint256"
        },
        {
          "internalType": "uint256",
          "name": "cost",
          "type": "uint256"
        },
        {
          "internalType": "uint256",
          "name": "fastRaffle",
          "type": "uint256"
        },
        {
          "internalType": "uint256",
          "name": "endTimestamp",
          "type": "uint256"
        },
        {
          "internalType": "uint256",
          "name": "createdAt",
          "type": "uint256"
        },
        {
          "internalType": "uint256",
          "name": "maxParticipants",
          "type": "uint256"
        },
        {
          "internalType": "address",
          "name": "createdBy",
          "type": "address"
        },
        {
          "internalType": "address",
          "name": "tokenAddress",
          "type": "address"
        },
        {
          "internalType": "string",
          "name": "ipfsHash",
          "type": "string"
        }
      ],
      "stateMutability": "view",
      "type": "function",
      "constant": true
    },
    {
      "inputs": [
        {
          "internalType": "uint256",
          "name": "",
          "type": "uint256"
        }
      ],
      "name": "rafflesHash",
      "outputs": [
        {
          "internalType": "bytes32",
          "name": "",
          "type": "bytes32"
        }
      ],
      "stateMutability": "view",
      "type": "function",
      "constant": true
    },
    {
      "inputs": [
        {
          "internalType": "bytes32",
          "name": "",
          "type": "bytes32"
        },
        {
          "internalType": "uint256",
          "name": "",
          "type": "uint256"
        }
      ],
      "name": "winners",
      "outputs": [
        {
          "internalType": "address",
          "name": "",
          "type": "address"
        }
      ],
      "stateMutability": "view",
      "type": "function",
      "constant": true
    },
    {
      "inputs": [
        {
          "internalType": "address",
          "name": "_newManager",
          "type": "address"
        }
      ],
      "name": "addManager",
      "outputs": [],
      "stateMutability": "nonpayable",
      "type": "function"
    },
    {
      "inputs": [
        {
          "internalType": "address",
          "name": "_oldManager",
          "type": "address"
        }
      ],
      "name": "removeManager",
      "outputs": [],
      "stateMutability": "nonpayable",
      "type": "function"
    },
    {
      "inputs": [
        {
          "internalType": "uint256",
          "name": "_winnersCount",
          "type": "uint256"
        },
        {
          "internalType": "address",
          "name": "_token",
          "type": "address"
        },
        {
          "internalType": "uint256",
          "name": "_cost",
          "type": "uint256"
        },
        {
          "internalType": "uint256",
          "name": "_endTimestamp",
          "type": "uint256"
        },
        {
          "internalType": "string",
          "name": "_ipfsHash",
          "type": "string"
        },
        {
          "internalType": "uint256",
          "name": "_fastRaffle",
          "type": "uint256"
        },
        {
          "internalType": "uint256",
          "name": "_maxParticipants",
          "type": "uint256"
        }
      ],
      "name": "addRaffle",
      "outputs": [],
      "stateMutability": "nonpayable",
      "type": "function"
    },
    {
      "inputs": [
        {
          "internalType": "uint256",
          "name": "_raffleId",
          "type": "uint256"
        }
      ],
      "name": "getWinners",
      "outputs": [
        {
          "internalType": "address[]",
          "name": "",
          "type": "address[]"
        }
      ],
      "stateMutability": "view",
      "type": "function",
      "constant": true
    },
    {
      "inputs": [
        {
          "internalType": "uint256",
          "name": "_raffleId",
          "type": "uint256"
        }
      ],
      "name": "generateWinners",
      "outputs": [],
      "stateMutability": "nonpayable",
      "type": "function"
    },
    {
      "inputs": [
        {
          "components": [
            {
              "internalType": "uint256",
              "name": "playersCount",
              "type": "uint256"
            },
            {
              "internalType": "uint256",
              "name": "winnersCount",
              "type": "uint256"
            },
            {
              "internalType": "uint256",
              "name": "claimedAmount",
              "type": "uint256"
            },
            {
              "internalType": "uint256",
              "name": "cost",
              "type": "uint256"
            },
            {
              "internalType": "uint256",
              "name": "fastRaffle",
              "type": "uint256"
            },
            {
              "internalType": "uint256",
              "name": "endTimestamp",
              "type": "uint256"
            },
            {
              "internalType": "uint256",
              "name": "createdAt",
              "type": "uint256"
            },
            {
              "internalType": "uint256",
              "name": "maxParticipants",
              "type": "uint256"
            },
            {
              "internalType": "address",
              "name": "createdBy",
              "type": "address"
            },
            {
              "internalType": "address",
              "name": "tokenAddress",
              "type": "address"
            },
            {
              "internalType": "string",
              "name": "ipfsHash",
              "type": "string"
            }
          ],
          "internalType": "struct SkullsRaffle.Raffle",
          "name": "_raffle",
          "type": "tuple"
        },
        {
          "internalType": "bytes32",
          "name": "_raffleHash",
          "type": "bytes32"
        },
        {
          "internalType": "uint256",
          "name": "_raffleId",
          "type": "uint256"
        }
      ],
      "name": "_generateWinners",
      "outputs": [],
      "stateMutability": "nonpayable",
      "type": "function"
    },
    {
      "inputs": [
        {
          "internalType": "uint256",
          "name": "_raffleId",
          "type": "uint256"
        }
      ],
      "name": "participateRaffle",
      "outputs": [],
      "stateMutability": "nonpayable",
      "type": "function"
    },
    {
      "inputs": [
        {
          "internalType": "uint256",
          "name": "_raffleId",
          "type": "uint256"
        }
      ],
      "name": "getRaffle",
      "outputs": [
        {
          "components": [
            {
              "internalType": "uint256",
              "name": "playersCount",
              "type": "uint256"
            },
            {
              "internalType": "uint256",
              "name": "winnersCount",
              "type": "uint256"
            },
            {
              "internalType": "uint256",
              "name": "claimedAmount",
              "type": "uint256"
            },
            {
              "internalType": "uint256",
              "name": "cost",
              "type": "uint256"
            },
            {
              "internalType": "uint256",
              "name": "fastRaffle",
              "type": "uint256"
            },
            {
              "internalType": "uint256",
              "name": "endTimestamp",
              "type": "uint256"
            },
            {
              "internalType": "uint256",
              "name": "createdAt",
              "type": "uint256"
            },
            {
              "internalType": "uint256",
              "name": "maxParticipants",
              "type": "uint256"
            },
            {
              "internalType": "address",
              "name": "createdBy",
              "type": "address"
            },
            {
              "internalType": "address",
              "name": "tokenAddress",
              "type": "address"
            },
            {
              "internalType": "string",
              "name": "ipfsHash",
              "type": "string"
            }
          ],
          "internalType": "struct SkullsRaffle.Raffle",
          "name": "",
          "type": "tuple"
        }
      ],
      "stateMutability": "view",
      "type": "function",
      "constant": true
    }
  ],
  "bytecode": "0x608060405260c8600355600a6004553480156200001b57600080fd5b50604051620033ee380380620033ee8339818101604052810190620000419190620000e0565b336000806101000a81548173ffffffffffffffffffffffffffffffffffffffff021916908373ffffffffffffffffffffffffffffffffffffffff16021790555080600160006101000a81548173ffffffffffffffffffffffffffffffffffffffff021916908373ffffffffffffffffffffffffffffffffffffffff160217905550506200016e565b600081519050620000da8162000154565b92915050565b600060208284031215620000f357600080fd5b60006200010384828501620000c9565b91505092915050565b6000620001198262000134565b9050919050565b60006200012d826200010c565b9050919050565b600073ffffffffffffffffffffffffffffffffffffffff82169050919050565b6200015f8162000120565b81146200016b57600080fd5b50565b613270806200017e6000396000f3fe608060405234801561001057600080fd5b50600436106101215760003560e01c80639424732e116100ad578063e31ef12c11610071578063e31ef12c14610308578063e4dafec914610342578063e726b7c514610372578063fdff9b4d1461038e578063fe151967146103be57610121565b80639424732e14610250578063ac18de4314610280578063c2f306a51461029c578063c700ce6e146102ba578063cde8e5d3146102ea57610121565b8063433b0482116100f4578063433b04821461019857806347a80620146101b4578063653e0f7f146101d25780636b1426a4146102025780638da5cb5b1461023257610121565b8063213f9ad4146101265780632d06177a14610142578063325182d41461015e5780633ddec61f1461017c575b600080fd5b610140600480360381019061013b9190612123565b6103ee565b005b61015c6004803603810190610157919061202e565b610742565b005b61016661097a565b6040516101739190612c3e565b60405180910390f35b61019660048036038101906101919190612175565b610980565b005b6101b260048036038101906101ad9190612123565b610e00565b005b6101bc611449565b6040516101c99190612a21565b60405180910390f35b6101ec60048036038101906101e79190612057565b61146f565b6040516101f991906128f4565b60405180910390f35b61021c60048036038101906102179190612123565b6114a2565b60405161022991906129c9565b60405180910390f35b61023a611570565b60405161024791906128f4565b60405180910390f35b61026a60048036038101906102659190612057565b611594565b60405161027791906129eb565b60405180910390f35b61029a6004803603810190610295919061202e565b6115b4565b005b6102a4611729565b6040516102b19190612c3e565b60405180910390f35b6102d460048036038101906102cf9190612123565b61172f565b6040516102e19190612a06565b60405180910390f35b6102f2611747565b6040516102ff9190612c3e565b60405180910390f35b610322600480360381019061031d9190612057565b61174d565b6040516103399b9a99989796959493929190612cc7565b60405180910390f35b61035c60048036038101906103579190612123565b61186f565b6040516103699190612c1c565b60405180910390f35b61038c600480360381019061038791906120bc565b611a4a565b005b6103a860048036038101906103a3919061202e565b611c7d565b6040516103b591906129eb565b60405180910390f35b6103d860048036038101906103d39190612080565b611c9d565b6040516103e591906128f4565b60405180910390f35b60008054906101000a900473ffffffffffffffffffffffffffffffffffffffff1673ffffffffffffffffffffffffffffffffffffffff163373ffffffffffffffffffffffffffffffffffffffff16146104ce57600660003373ffffffffffffffffffffffffffffffffffffffff1673ffffffffffffffffffffffffffffffffffffffff16815260200190815260200160002060009054906101000a900460ff166104cd576040517f08c379a00000000000000000000000000000000000000000000000000000000081526004016104c490612b7c565b60405180910390fd5b5b60008110156104dc57600080fd5b6000600760008381526020019081526020016000205490506000600860008381526020019081526020016000206040518061016001604052908160008201548152602001600182015481526020016002820154815260200160038201548152602001600482015481526020016005820154815260200160068201548152602001600782015481526020016008820160009054906101000a900473ffffffffffffffffffffffffffffffffffffffff1673ffffffffffffffffffffffffffffffffffffffff1673ffffffffffffffffffffffffffffffffffffffff1681526020016009820160009054906101000a900473ffffffffffffffffffffffffffffffffffffffff1673ffffffffffffffffffffffffffffffffffffffff1673ffffffffffffffffffffffffffffffffffffffff168152602001600a8201805461062190613037565b80601f016020809104026020016040519081016040528092919081815260200182805461064d90613037565b801561069a5780601f1061066f5761010080835404028352916020019161069a565b820191906000526020600020905b81548152906001019060200180831161067d57829003601f168201915b5050505050815250509050428160a00151106106eb576040517f08c379a00000000000000000000000000000000000000000000000000000000081526004016106e290612bfc565b60405180910390fd5b6000816040015111610732576040517f08c379a000000000000000000000000000000000000000000000000000000000815260040161072990612a3c565b60405180910390fd5b61073d818385611a4a565b505050565b3373ffffffffffffffffffffffffffffffffffffffff1660008054906101000a900473ffffffffffffffffffffffffffffffffffffffff1673ffffffffffffffffffffffffffffffffffffffff16146107d0576040517f08c379a00000000000000000000000000000000000000000000000000000000081526004016107c790612a7c565b60405180910390fd5b600073ffffffffffffffffffffffffffffffffffffffff168173ffffffffffffffffffffffffffffffffffffffff161415610840576040517f08c379a000000000000000000000000000000000000000000000000000000000815260040161083790612abc565b60405180910390fd5b600660008273ffffffffffffffffffffffffffffffffffffffff1673ffffffffffffffffffffffffffffffffffffffff16815260200190815260200160002060009054906101000a900460ff16156108cd576040517f08c379a00000000000000000000000000000000000000000000000000000000081526004016108c490612bdc565b60405180910390fd5b600660008273ffffffffffffffffffffffffffffffffffffffff1673ffffffffffffffffffffffffffffffffffffffff16815260200190815260200160002060009054906101000a900460ff16610977576001600660008373ffffffffffffffffffffffffffffffffffffffff1673ffffffffffffffffffffffffffffffffffffffff16815260200190815260200160002060006101000a81548160ff0219169083151502179055505b50565b60035481565b60008054906101000a900473ffffffffffffffffffffffffffffffffffffffff1673ffffffffffffffffffffffffffffffffffffffff163373ffffffffffffffffffffffffffffffffffffffff1614610a6057600660003373ffffffffffffffffffffffffffffffffffffffff1673ffffffffffffffffffffffffffffffffffffffff16815260200190815260200160002060009054906101000a900460ff16610a5f576040517f08c379a0000000000000000000000000000000000000000000000000000000008152600401610a5690612b7c565b60405180910390fd5b5b6000811115610aad5780871115610aac576040517f08c379a0000000000000000000000000000000000000000000000000000000008152600401610aa390612adc565b60405180910390fd5b5b600087118015610abf57506004548711155b610afe576040517f08c379a0000000000000000000000000000000000000000000000000000000008152600401610af590612b9c565b60405180910390fd5b60008511610b0b57600080fd5b60008411610b1857600080fd5b6000821480610b275750603182115b610b66576040517f08c379a0000000000000000000000000000000000000000000000000000000008152600401610b5d90612a5c565b60405180910390fd5b600086600254604051602001610b7d929190612870565b604051602081830303815290604052805190602001209050610b9d611d29565b8781610120019073ffffffffffffffffffffffffffffffffffffffff16908173ffffffffffffffffffffffffffffffffffffffff16815250506000816000018181525050888160200181815250508881604001818152505086816060018181525050858160a0018181525050428160c00181815250503381610100019073ffffffffffffffffffffffffffffffffffffffff16908173ffffffffffffffffffffffffffffffffffffffff16815250508381608001818152505084816101400181905250828160e001818152505081600760006002548152602001908152602001600020819055508060086000848152602001908152602001600020600082015181600001556020820151816001015560408201518160020155606082015181600301556080820151816004015560a0820151816005015560c0820151816006015560e082015181600701556101008201518160080160006101000a81548173ffffffffffffffffffffffffffffffffffffffff021916908373ffffffffffffffffffffffffffffffffffffffff1602179055506101208201518160090160006101000a81548173ffffffffffffffffffffffffffffffffffffffff021916908373ffffffffffffffffffffffffffffffffffffffff16021790555061014082015181600a019080519060200190610d95929190611daf565b50905050817f5cf19c9c9ef8c49754ce144697aca07ccc8edec7a95d0e7b00a8e0cc0b9c8b79896002548a8d8b8b604051610dd596959493929190612961565b60405180910390a260026000815480929190610df090613069565b9190505550505050505050505050565b6000811015610e0e57600080fd5b6000600760008381526020019081526020016000205490506000600860008381526020019081526020016000206040518061016001604052908160008201548152602001600182015481526020016002820154815260200160038201548152602001600482015481526020016005820154815260200160068201548152602001600782015481526020016008820160009054906101000a900473ffffffffffffffffffffffffffffffffffffffff1673ffffffffffffffffffffffffffffffffffffffff1673ffffffffffffffffffffffffffffffffffffffff1681526020016009820160009054906101000a900473ffffffffffffffffffffffffffffffffffffffff1673ffffffffffffffffffffffffffffffffffffffff1673ffffffffffffffffffffffffffffffffffffffff168152602001600a82018054610f5390613037565b80601f0160208091040260200160405190810160405280929190818152602001828054610f7f90613037565b8015610fcc5780601f10610fa157610100808354040283529160200191610fcc565b820191906000526020600020905b815481529060010190602001808311610faf57829003601f168201915b505050505081525050905060008160c001511161101e576040517f08c379a000000000000000000000000000000000000000000000000000000000815260040161101590612b5c565b60405180910390fd5b6000823360405160200161103392919061289c565b604051602081830303815290604052805190602001209050600a600082815260200190815260200160002060009054906101000a900460ff16156110ac576040517f08c379a00000000000000000000000000000000000000000000000000000000081526004016110a390612a9c565b60405180910390fd5b60008260e0015111156111045781600001518260e0015111611103576040517f08c379a00000000000000000000000000000000000000000000000000000000081526004016110fa90612afc565b60405180910390fd5b5b8160600151600160009054906101000a900473ffffffffffffffffffffffffffffffffffffffff1673ffffffffffffffffffffffffffffffffffffffff1663dd62ed3e33306040518363ffffffff1660e01b815260040161116692919061290f565b60206040518083038186803b15801561117e57600080fd5b505afa158015611192573d6000803e3d6000fd5b505050506040513d601f19601f820116820180604052508101906111b6919061214c565b10156111f7576040517f08c379a00000000000000000000000000000000000000000000000000000000081526004016111ee90612b3c565b60405180910390fd5b600160009054906101000a900473ffffffffffffffffffffffffffffffffffffffff1673ffffffffffffffffffffffffffffffffffffffff166379cc67903384606001516040518363ffffffff1660e01b8152600401611258929190612938565b600060405180830381600087803b15801561127257600080fd5b505af1158015611286573d6000803e3d6000fd5b505050508160a0015142106112d0576040517f08c379a00000000000000000000000000000000000000000000000000000000081526004016112c790612bbc565b60405180910390fd5b6000826080015111156113395760008260a00151426112ef9190612f21565b90506127108360800151826113049190612ec7565b61130e9190612e96565b8360a0015161131d9190612f21565b6008600086815260200190815260200160002060050181905550505b60008383600001516040516020016113529291906128c8565b604051602081830303815290604052805190602001209050336009600083815260200190815260200160002060006101000a81548173ffffffffffffffffffffffffffffffffffffffff021916908373ffffffffffffffffffffffffffffffffffffffff1602179055506001600a600084815260200190815260200160002060006101000a81548160ff02191690831515021790555060086000858152602001908152602001600020600001600081548092919061140f90613069565b91905055508260e001516008600086815260200190815260200160002060000154141561144257611441838587611a4a565b5b5050505050565b600160009054906101000a900473ffffffffffffffffffffffffffffffffffffffff1681565b60096020528060005260406000206000915054906101000a900473ffffffffffffffffffffffffffffffffffffffff1681565b606060008210156114b257600080fd5b6000600760008481526020019081526020016000205490506000600b600083815260200190815260200160002080548060200260200160405190810160405280929190818152602001828054801561155f57602002820191906000526020600020905b8160009054906101000a900473ffffffffffffffffffffffffffffffffffffffff1673ffffffffffffffffffffffffffffffffffffffff1681526020019060010190808311611515575b505050505090508092505050919050565b60008054906101000a900473ffffffffffffffffffffffffffffffffffffffff1681565b600a6020528060005260406000206000915054906101000a900460ff1681565b3373ffffffffffffffffffffffffffffffffffffffff1660008054906101000a900473ffffffffffffffffffffffffffffffffffffffff1673ffffffffffffffffffffffffffffffffffffffff1614611642576040517f08c379a000000000000000000000000000000000000000000000000000000000815260040161163990612a7c565b60405180910390fd5b600660008273ffffffffffffffffffffffffffffffffffffffff1673ffffffffffffffffffffffffffffffffffffffff16815260200190815260200160002060009054906101000a900460ff166116ce576040517f08c379a00000000000000000000000000000000000000000000000000000000081526004016116c590612b1c565b60405180910390fd5b6000600660008373ffffffffffffffffffffffffffffffffffffffff1673ffffffffffffffffffffffffffffffffffffffff16815260200190815260200160002060006101000a81548160ff02191690831515021790555050565b60025481565b60076020528060005260406000206000915090505481565b60045481565b60086020528060005260406000206000915090508060000154908060010154908060020154908060030154908060040154908060050154908060060154908060070154908060080160009054906101000a900473ffffffffffffffffffffffffffffffffffffffff16908060090160009054906101000a900473ffffffffffffffffffffffffffffffffffffffff169080600a0180546117ec90613037565b80601f016020809104026020016040519081016040528092919081815260200182805461181890613037565b80156118655780601f1061183a57610100808354040283529160200191611865565b820191906000526020600020905b81548152906001019060200180831161184857829003601f168201915b505050505090508b565b611877611d29565b6000600760008481526020019081526020016000205490506000600860008381526020019081526020016000206040518061016001604052908160008201548152602001600182015481526020016002820154815260200160038201548152602001600482015481526020016005820154815260200160068201548152602001600782015481526020016008820160009054906101000a900473ffffffffffffffffffffffffffffffffffffffff1673ffffffffffffffffffffffffffffffffffffffff1673ffffffffffffffffffffffffffffffffffffffff1681526020016009820160009054906101000a900473ffffffffffffffffffffffffffffffffffffffff1673ffffffffffffffffffffffffffffffffffffffff1673ffffffffffffffffffffffffffffffffffffffff168152602001600a820180546119bc90613037565b80601f01602080910402602001604051908101604052809291908181526020018280546119e890613037565b8015611a355780601f10611a0a57610100808354040283529160200191611a35565b820191906000526020600020905b815481529060010190602001808311611a1857829003601f168201915b50505050508152505090508092505050919050565b6000600190505b600060086000858152602001908152602001600020600201541115611c39576000818560000151611a829190612e40565b611a8a611ceb565b611a9491906130ea565b905060008482604051602001611aab9291906128c8565b60405160208183030381529060405280519060200120905060006009600083815260200190815260200160002060009054906101000a900473ffffffffffffffffffffffffffffffffffffffff1690508073ffffffffffffffffffffffffffffffffffffffff16600073ffffffffffffffffffffffffffffffffffffffff1614611c2357600b6000878152602001908152602001600020819080600181540180825580915050600190039060005260206000200160009091909190916101000a81548173ffffffffffffffffffffffffffffffffffffffff021916908373ffffffffffffffffffffffffffffffffffffffff16021790555060006009600084815260200190815260200160002060006101000a81548173ffffffffffffffffffffffffffffffffffffffff021916908373ffffffffffffffffffffffffffffffffffffffff160217905550600860008781526020019081526020016000206002016000815480929190611c1d9061300d565b91905055505b8380611c2e90613069565b945050505050611a51565b827f27b118a56abe67ba33bd016c02185e51627bc94dc7abedc7dd5231028173d23b838660200151604051611c6f929190612c59565b60405180910390a250505050565b60066020528060005260406000206000915054906101000a900460ff1681565b600b6020528160005260406000208181548110611cb957600080fd5b906000526020600020016000915091509054906101000a900473ffffffffffffffffffffffffffffffffffffffff1681565b600080434233600254604051602001611d079493929190612c82565b6040516020818303038152906040528051906020012060001c90508091505090565b6040518061016001604052806000815260200160008152602001600081526020016000815260200160008152602001600081526020016000815260200160008152602001600073ffffffffffffffffffffffffffffffffffffffff168152602001600073ffffffffffffffffffffffffffffffffffffffff168152602001606081525090565b828054611dbb90613037565b90600052602060002090601f016020900481019282611ddd5760008555611e24565b82601f10611df657805160ff1916838001178555611e24565b82800160010185558215611e24579182015b82811115611e23578251825591602001919060010190611e08565b5b509050611e319190611e35565b5090565b5b80821115611e4e576000816000905550600101611e36565b5090565b6000611e65611e6084612daa565b612d79565b905082815260208101848484011115611e7d57600080fd5b611e88848285612fcb565b509392505050565b600081359050611e9f816131f5565b92915050565b600081359050611eb48161320c565b92915050565b600082601f830112611ecb57600080fd5b8135611edb848260208601611e52565b91505092915050565b60006101608284031215611ef757600080fd5b611f02610160612d79565b90506000611f1284828501612004565b6000830152506020611f2684828501612004565b6020830152506040611f3a84828501612004565b6040830152506060611f4e84828501612004565b6060830152506080611f6284828501612004565b60808301525060a0611f7684828501612004565b60a08301525060c0611f8a84828501612004565b60c08301525060e0611f9e84828501612004565b60e083015250610100611fb384828501611e90565b61010083015250610120611fc984828501611e90565b6101208301525061014082013567ffffffffffffffff811115611feb57600080fd5b611ff784828501611eba565b6101408301525092915050565b60008135905061201381613223565b92915050565b60008151905061202881613223565b92915050565b60006020828403121561204057600080fd5b600061204e84828501611e90565b91505092915050565b60006020828403121561206957600080fd5b600061207784828501611ea5565b91505092915050565b6000806040838503121561209357600080fd5b60006120a185828601611ea5565b92505060206120b285828601612004565b9150509250929050565b6000806000606084860312156120d157600080fd5b600084013567ffffffffffffffff8111156120eb57600080fd5b6120f786828701611ee4565b935050602061210886828701611ea5565b925050604061211986828701612004565b9150509250925092565b60006020828403121561213557600080fd5b600061214384828501612004565b91505092915050565b60006020828403121561215e57600080fd5b600061216c84828501612019565b91505092915050565b600080600080600080600060e0888a03121561219057600080fd5b600061219e8a828b01612004565b97505060206121af8a828b01611e90565b96505060406121c08a828b01612004565b95505060606121d18a828b01612004565b945050608088013567ffffffffffffffff8111156121ee57600080fd5b6121fa8a828b01611eba565b93505060a061220b8a828b01612004565b92505060c061221c8a828b01612004565b91505092959891949750929550565b60006122378383612243565b60208301905092915050565b61224c81612f55565b82525050565b61225b81612f55565b82525050565b61227261226d82612f55565b6130b2565b82525050565b600061228382612dea565b61228d8185612e0d565b935061229883612dda565b8060005b838110156122c95781516122b0888261222b565b97506122bb83612e00565b92505060018101905061229c565b5085935050505092915050565b6122df81612f67565b82525050565b6122ee81612f73565b82525050565b61230561230082612f73565b6130c4565b82525050565b61231481612fa7565b82525050565b600061232582612df5565b61232f8185612e1e565b935061233f818560208601612fda565b612348816131d7565b840191505092915050565b600061235e82612df5565b6123688185612e2f565b9350612378818560208601612fda565b612381816131d7565b840191505092915050565b6000612399601583612e2f565b91507f4552525f57494e4e4552535f47454e45524154454400000000000000000000006000830152602082019050919050565b60006123d9601183612e2f565b91507f4552525f464153545f305f4f525f3e34390000000000000000000000000000006000830152602082019050919050565b6000612419600d83612e2f565b91507f4552525f4e4f545f4f574e4552000000000000000000000000000000000000006000830152602082019050919050565b6000612459601883612e2f565b91507f4552525f414c52454144595f50415254494349504154454400000000000000006000830152602082019050919050565b6000612499601183612e2f565b91507f4552525f414444525f4e4f545f5a45524f0000000000000000000000000000006000830152602082019050919050565b60006124d9601783612e2f565b91507f4552525f57494e4e45525f4d494e5f4d41585f504152540000000000000000006000830152602082019050919050565b6000612519601683612e2f565b91507f4552525f4c494d49545f5041525449434950414e5453000000000000000000006000830152602082019050919050565b6000612559601883612e2f565b91507f4552525f4d414e414745525f4e4f545f4558495354494e4700000000000000006000830152602082019050919050565b6000612599601683612e2f565b91507f4552525f494e4352454153455f414c4c4f57414e4345000000000000000000006000830152602082019050919050565b60006125d9601483612e2f565b91507f4552525f524146464c455f4e4f545f45584953540000000000000000000000006000830152602082019050919050565b6000612619600f83612e2f565b91507f4552525f4e4f545f4d414e4147455200000000000000000000000000000000006000830152602082019050919050565b6000612659601483612e2f565b91507f4552525f4d41585f5041525449434950414e54530000000000000000000000006000830152602082019050919050565b6000612699600e83612e2f565b91507f4552525f524146464c455f454e440000000000000000000000000000000000006000830152602082019050919050565b60006126d9601883612e2f565b91507f4552525f414444525f414c52454144595f4d414e4147455200000000000000006000830152602082019050919050565b6000612719601483612e2f565b91507f4552525f524146464c455f4e4f545f454e4445440000000000000000000000006000830152602082019050919050565b600061016083016000830151612765600086018261283b565b506020830151612778602086018261283b565b50604083015161278b604086018261283b565b50606083015161279e606086018261283b565b5060808301516127b1608086018261283b565b5060a08301516127c460a086018261283b565b5060c08301516127d760c086018261283b565b5060e08301516127ea60e086018261283b565b506101008301516127ff610100860182612243565b50610120830151612814610120860182612243565b5061014083015184820361014086015261282e828261231a565b9150508091505092915050565b61284481612f9d565b82525050565b61285381612f9d565b82525050565b61286a61286582612f9d565b6130e0565b82525050565b600061287c8285612261565b60148201915061288c8284612859565b6020820191508190509392505050565b60006128a882856122f4565b6020820191506128b88284612261565b6014820191508190509392505050565b60006128d482856122f4565b6020820191506128e48284612859565b6020820191508190509392505050565b60006020820190506129096000830184612252565b92915050565b60006040820190506129246000830185612252565b6129316020830184612252565b9392505050565b600060408201905061294d6000830185612252565b61295a602083018461284a565b9392505050565b600060c0820190506129766000830189612252565b612983602083018861284a565b612990604083018761284a565b61299d606083018661284a565b6129aa608083018561284a565b81810360a08301526129bc8184612353565b9050979650505050505050565b600060208201905081810360008301526129e38184612278565b905092915050565b6000602082019050612a0060008301846122d6565b92915050565b6000602082019050612a1b60008301846122e5565b92915050565b6000602082019050612a36600083018461230b565b92915050565b60006020820190508181036000830152612a558161238c565b9050919050565b60006020820190508181036000830152612a75816123cc565b9050919050565b60006020820190508181036000830152612a958161240c565b9050919050565b60006020820190508181036000830152612ab58161244c565b9050919050565b60006020820190508181036000830152612ad58161248c565b9050919050565b60006020820190508181036000830152612af5816124cc565b9050919050565b60006020820190508181036000830152612b158161250c565b9050919050565b60006020820190508181036000830152612b358161254c565b9050919050565b60006020820190508181036000830152612b558161258c565b9050919050565b60006020820190508181036000830152612b75816125cc565b9050919050565b60006020820190508181036000830152612b958161260c565b9050919050565b60006020820190508181036000830152612bb58161264c565b9050919050565b60006020820190508181036000830152612bd58161268c565b9050919050565b60006020820190508181036000830152612bf5816126cc565b9050919050565b60006020820190508181036000830152612c158161270c565b9050919050565b60006020820190508181036000830152612c36818461274c565b905092915050565b6000602082019050612c53600083018461284a565b92915050565b6000604082019050612c6e600083018561284a565b612c7b602083018461284a565b9392505050565b6000608082019050612c97600083018761284a565b612ca4602083018661284a565b612cb16040830185612252565b612cbe606083018461284a565b95945050505050565b600061016082019050612cdd600083018e61284a565b612cea602083018d61284a565b612cf7604083018c61284a565b612d04606083018b61284a565b612d11608083018a61284a565b612d1e60a083018961284a565b612d2b60c083018861284a565b612d3860e083018761284a565b612d46610100830186612252565b612d54610120830185612252565b818103610140830152612d678184612353565b90509c9b505050505050505050505050565b6000604051905081810181811067ffffffffffffffff82111715612da057612d9f6131a8565b5b8060405250919050565b600067ffffffffffffffff821115612dc557612dc46131a8565b5b601f19601f8301169050602081019050919050565b6000819050602082019050919050565b600081519050919050565b600081519050919050565b6000602082019050919050565b600082825260208201905092915050565b600082825260208201905092915050565b600082825260208201905092915050565b6000612e4b82612f9d565b9150612e5683612f9d565b9250827fffffffffffffffffffffffffffffffffffffffffffffffffffffffffffffffff03821115612e8b57612e8a61311b565b5b828201905092915050565b6000612ea182612f9d565b9150612eac83612f9d565b925082612ebc57612ebb61314a565b5b828204905092915050565b6000612ed282612f9d565b9150612edd83612f9d565b9250817fffffffffffffffffffffffffffffffffffffffffffffffffffffffffffffffff0483118215151615612f1657612f1561311b565b5b828202905092915050565b6000612f2c82612f9d565b9150612f3783612f9d565b925082821015612f4a57612f4961311b565b5b828203905092915050565b6000612f6082612f7d565b9050919050565b60008115159050919050565b6000819050919050565b600073ffffffffffffffffffffffffffffffffffffffff82169050919050565b6000819050919050565b6000612fb282612fb9565b9050919050565b6000612fc482612f7d565b9050919050565b82818337600083830152505050565b60005b83811015612ff8578082015181840152602081019050612fdd565b83811115613007576000848401525b50505050565b600061301882612f9d565b9150600082141561302c5761302b61311b565b5b600182039050919050565b6000600282049050600182168061304f57607f821691505b6020821081141561306357613062613179565b5b50919050565b600061307482612f9d565b91507fffffffffffffffffffffffffffffffffffffffffffffffffffffffffffffffff8214156130a7576130a661311b565b5b600182019050919050565b60006130bd826130ce565b9050919050565b6000819050919050565b60006130d9826131e8565b9050919050565b6000819050919050565b60006130f582612f9d565b915061310083612f9d565b9250826131105761310f61314a565b5b828206905092915050565b7f4e487b7100000000000000000000000000000000000000000000000000000000600052601160045260246000fd5b7f4e487b7100000000000000000000000000000000000000000000000000000000600052601260045260246000fd5b7f4e487b7100000000000000000000000000000000000000000000000000000000600052602260045260246000fd5b7f4e487b7100000000000000000000000000000000000000000000000000000000600052604160045260246000fd5b6000601f19601f8301169050919050565b60008160601b9050919050565b6131fe81612f55565b811461320957600080fd5b50565b61321581612f73565b811461322057600080fd5b50565b61322c81612f9d565b811461323757600080fd5b5056fea26469706673582212204f384dfeb01e53fb544ddf06498d5991098860967374ec534fffaa5049e8a93f64736f6c63430008000033",
  "immutableReferences": {},
  "source": "// SPDX-License-Identifier: GPL-3.0\nimport \"./interface/IERC20Burnable.sol\";\npragma solidity <=0.8.12;\npragma abicoder v2;\n/** \n * @title Raffle\n * @dev \n */\n\ncontract SkullsRaffle {\n    address public owner;\n    IERC20Burnable public GRAVE;\n    uint public raffleCounter;\n    uint public fastRafflePercent = 200;\n    uint public maxWinners = 10;\n    bool private locked;\n\n    mapping(address => bool) public managers;\n\n    mapping(uint => bytes32) public rafflesHash;// raffle id => tokenAddress,raffleId\n    mapping(bytes32 => Raffle) public raffles;// tokenAddress,raffleId => Raffle\n\n    mapping(bytes32 => address) public participants;//raffleHash,playersCount => address\n    mapping(bytes32 => bool) public players;//raffleHash,\n    mapping(bytes32 => address[]) public winners;\n\n    struct Raffle {\n        uint playersCount;\n        uint winnersCount;\n        uint claimedAmount;\n        uint cost;\n        uint fastRaffle;\n        uint endTimestamp;\n        uint createdAt;\n        uint maxParticipants;\n        address createdBy;\n        address tokenAddress;\n        string ipfsHash;\n    }\n\n    //EVENTS\n    event RaffleCreation(bytes32 indexed raffleHash, address _token, uint _raffleCounter, uint _cost, uint _winnersCount, uint _endTimestamp, string _ipfsHash);\n    event RaffleEnd(bytes32 indexed raffleHash, uint raffleId, uint winnersCount );\n    //MODIFIERS\n    modifier isOwner {\n        require(\n            owner == msg.sender,\n            \"ERR_NOT_OWNER\"\n        );\n        _;\n    }\n\n    modifier isManager {\n        if( msg.sender != owner ){\n            require(\n                managers[msg.sender],\n                \"ERR_NOT_MANAGER\"\n            );\n        }\n        _;\n    }\n\n    modifier notReentrant {\n        require( ! locked, \"ERR_NOT_REENTRANT\");\n\n        _;\n    }\n\n    //CONSTRUCTOR\n    constructor (\n       IERC20Burnable _grave\n    ) {\n        owner = msg.sender;\n        GRAVE = _grave;\n    }\n\n    //ADMIN FUNCTIONS\n    function addManager(address _newManager) public isOwner {\n        require(\n            _newManager != address(0),\n            \"ERR_ADDR_NOT_ZERO\"\n        );\n        require(\n            ! managers[_newManager],\n            \"ERR_ADDR_ALREADY_MANAGER\"\n        );\n        if( ! managers[_newManager] ) {\n            managers[_newManager] = true;\n        }\n    }\n\n    function removeManager(address _oldManager) public isOwner {\n        require(\n            managers[_oldManager],\n            \"ERR_MANAGER_NOT_EXISTING\"\n        );\n        managers[_oldManager] = false;\n    }\n\n    //MANAGER FUNCTIONS\n    function addRaffle(uint _winnersCount, address _token , uint _cost, uint _endTimestamp, string memory _ipfsHash, uint _fastRaffle, uint _maxParticipants) public isManager {\n        if( _maxParticipants > 0 )\n            require( _winnersCount <= _maxParticipants, \"ERR_WINNER_MIN_MAX_PART\" );\n        require( _winnersCount > 0 && _winnersCount <= maxWinners, \"ERR_MAX_PARTICIPANTS\" );\n        require( _cost > 0 );\n        require( _endTimestamp > 0 );\n        require( _fastRaffle == 0 || _fastRaffle > 49, \"ERR_FAST_0_OR_>49\" );\n        bytes32 raffleHash = keccak256(\n            abi.encodePacked(\n                _token,\n                raffleCounter\n            )\n        );\n        Raffle memory newRaffle;\n        newRaffle.tokenAddress = _token;\n        newRaffle.playersCount = 0;\n        newRaffle.winnersCount = _winnersCount;\n        newRaffle.claimedAmount = _winnersCount;\n        newRaffle.cost = _cost;\n        newRaffle.endTimestamp = _endTimestamp;\n        newRaffle.createdAt = block.timestamp;\n        newRaffle.createdBy = msg.sender;\n        newRaffle.fastRaffle = _fastRaffle;\n        newRaffle.ipfsHash = _ipfsHash;\n        newRaffle.maxParticipants = _maxParticipants;\n        rafflesHash[raffleCounter] = raffleHash;\n        raffles[raffleHash] = newRaffle;\n        emit RaffleCreation(raffleHash, _token, raffleCounter, _cost, _winnersCount, _endTimestamp, _ipfsHash);\n        raffleCounter++;\n    }\n\n    function getWinners(uint _raffleId) public view returns(address[] memory ) {\n        require( _raffleId >= 0 );\n        bytes32 raffleHash = rafflesHash[_raffleId];\n        address[] memory winnersList = winners[raffleHash];\n        return winnersList;\n    }\n\n    function generateWinners(uint _raffleId) public isManager {\n        require( _raffleId >= 0 );\n        bytes32 raffleHash = rafflesHash[_raffleId];\n        Raffle memory _raffle = raffles[raffleHash];\n        require( \n            _raffle.endTimestamp < block.timestamp,\n            \"ERR_RAFFLE_NOT_ENDED\"\n        );\n        require(\n            _raffle.claimedAmount > 0, \n            \"ERR_WINNERS_GENERATED\"\n        );\n        _generateWinners(_raffle, raffleHash, _raffleId);\n    }\n\n    function _generateWinners(Raffle memory _raffle, bytes32 _raffleHash, uint _raffleId) public {\n        uint i = 1;\n        while( raffles[_raffleHash].claimedAmount > 0 ){\n            uint rgnPlayer = random() % ( _raffle.playersCount + i );\n            bytes32 partecipationHash = keccak256(\n                abi.encodePacked(\n                    _raffleHash,\n                    rgnPlayer\n                )\n            );\n            address maybeWinner = participants[partecipationHash];\n            if( address(0) != maybeWinner ) {\n                winners[_raffleHash].push(maybeWinner);\n                participants[partecipationHash] = address(0);\n                raffles[_raffleHash].claimedAmount--;\n            }\n            i++;\n        }\n        emit RaffleEnd(_raffleHash, _raffleId, _raffle.winnersCount );\n    }\n\n    //PUBLIC FUNCTIONS\n    function participateRaffle(uint _raffleId) public {\n        require( _raffleId >= 0 );\n        bytes32 raffleHash = rafflesHash[_raffleId];\n        Raffle memory _raffle = raffles[raffleHash];\n        require( \n            _raffle.createdAt > 0,\n            \"ERR_RAFFLE_NOT_EXIST\" \n        );\n        bytes32 playerHash = keccak256(\n            abi.encodePacked(\n                raffleHash,\n                msg.sender\n            )\n        );\n        require( \n            ! players[playerHash],\n            \"ERR_ALREADY_PARTICIPATED\"\n        );\n        if( _raffle.maxParticipants > 0 ){\n            require(\n                _raffle.maxParticipants > _raffle.playersCount,\n                \"ERR_LIMIT_PARTICIPANTS\"\n            );\n        }\n        require( \n            GRAVE.allowance(msg.sender, address(this)) >= _raffle.cost,\n            \"ERR_INCREASE_ALLOWANCE\"\n        );\n        GRAVE.burnFrom( msg.sender, _raffle.cost );\n        require( \n            block.timestamp < _raffle.endTimestamp,\n            \"ERR_RAFFLE_END\"\n        );\n        \n        if( _raffle.fastRaffle > 0 ){\n            uint endDiff = block.timestamp - _raffle.endTimestamp;\n            raffles[raffleHash].endTimestamp = _raffle.endTimestamp - ( endDiff * _raffle.fastRaffle / 10000 );\n        }\n        bytes32 partecipationHash = keccak256(\n            abi.encodePacked(\n                raffleHash,\n                _raffle.playersCount\n            )\n        );\n        participants[partecipationHash] = msg.sender;\n        players[playerHash] = true;\n        raffles[raffleHash].playersCount++;\n        if( raffles[raffleHash].playersCount == _raffle.maxParticipants )\n            _generateWinners(_raffle, raffleHash, _raffleId);\n\n    }\n\n    function getRaffle(uint _raffleId) public view returns(Raffle memory){\n        bytes32 raffleHash = rafflesHash[_raffleId];\n        Raffle memory _raffle = raffles[raffleHash];\n        return _raffle;\n    }\n\n    //INTERNAL FUNCTIONS\n    function random() internal view returns (uint) {\n        uint randomNumber = uint(keccak256(\n            abi.encode(\n                block.number, \n                block.timestamp,\n                msg.sender,\n                raffleCounter\n            ) \n        ));\n        return randomNumber;\n    }\n}\n",
  "sourcePath": "/Users/alessandrodecristofaro/Desktop/DeFi Code/croskull-repo/src/contracts/SkullsRaffle.sol",
  "compiler": {
    "name": "solc",
    "version": "0.8.0+commit.c7dfd78e.Emscripten.clang"
  },
  "schemaVersion": "3.4.3",
  "updatedAt": "2022-03-23T18:43:26.147Z",
  "networkType": "ethereum",
  "devdoc": {
    "kind": "dev",
    "methods": {},
    "title": "Raffle",
    "version": 1
  },
  "userdoc": {
    "kind": "user",
    "methods": {},
    "version": 1
  }
}