{
  "contractName": "Souls",
  "abi": [
    {
      "inputs": [],
      "stateMutability": "nonpayable",
      "type": "constructor"
    },
    {
      "anonymous": false,
      "inputs": [
        {
          "indexed": true,
          "internalType": "address",
          "name": "owner",
          "type": "address"
        },
        {
          "indexed": true,
          "internalType": "address",
          "name": "spender",
          "type": "address"
        },
        {
          "indexed": false,
          "internalType": "uint256",
          "name": "value",
          "type": "uint256"
        }
      ],
      "name": "Approval",
      "type": "event"
    },
    {
      "anonymous": false,
      "inputs": [
        {
          "indexed": true,
          "internalType": "address",
          "name": "delegator",
          "type": "address"
        },
        {
          "indexed": true,
          "internalType": "address",
          "name": "fromDelegate",
          "type": "address"
        },
        {
          "indexed": true,
          "internalType": "address",
          "name": "toDelegate",
          "type": "address"
        }
      ],
      "name": "DelegateChanged",
      "type": "event"
    },
    {
      "anonymous": false,
      "inputs": [
        {
          "indexed": true,
          "internalType": "address",
          "name": "delegate",
          "type": "address"
        },
        {
          "indexed": false,
          "internalType": "uint256",
          "name": "previousBalance",
          "type": "uint256"
        },
        {
          "indexed": false,
          "internalType": "uint256",
          "name": "newBalance",
          "type": "uint256"
        }
      ],
      "name": "DelegateVotesChanged",
      "type": "event"
    },
    {
      "anonymous": false,
      "inputs": [
        {
          "indexed": true,
          "internalType": "bytes32",
          "name": "role",
          "type": "bytes32"
        },
        {
          "indexed": true,
          "internalType": "bytes32",
          "name": "previousAdminRole",
          "type": "bytes32"
        },
        {
          "indexed": true,
          "internalType": "bytes32",
          "name": "newAdminRole",
          "type": "bytes32"
        }
      ],
      "name": "RoleAdminChanged",
      "type": "event"
    },
    {
      "anonymous": false,
      "inputs": [
        {
          "indexed": true,
          "internalType": "bytes32",
          "name": "role",
          "type": "bytes32"
        },
        {
          "indexed": true,
          "internalType": "address",
          "name": "account",
          "type": "address"
        },
        {
          "indexed": true,
          "internalType": "address",
          "name": "sender",
          "type": "address"
        }
      ],
      "name": "RoleGranted",
      "type": "event"
    },
    {
      "anonymous": false,
      "inputs": [
        {
          "indexed": true,
          "internalType": "bytes32",
          "name": "role",
          "type": "bytes32"
        },
        {
          "indexed": true,
          "internalType": "address",
          "name": "account",
          "type": "address"
        },
        {
          "indexed": true,
          "internalType": "address",
          "name": "sender",
          "type": "address"
        }
      ],
      "name": "RoleRevoked",
      "type": "event"
    },
    {
      "anonymous": false,
      "inputs": [
        {
          "indexed": true,
          "internalType": "address",
          "name": "from",
          "type": "address"
        },
        {
          "indexed": true,
          "internalType": "address",
          "name": "to",
          "type": "address"
        },
        {
          "indexed": false,
          "internalType": "uint256",
          "name": "value",
          "type": "uint256"
        }
      ],
      "name": "Transfer",
      "type": "event"
    },
    {
      "inputs": [],
      "name": "DEFAULT_ADMIN_ROLE",
      "outputs": [
        {
          "internalType": "bytes32",
          "name": "",
          "type": "bytes32"
        }
      ],
      "stateMutability": "view",
      "type": "function",
      "constant": true
    },
    {
      "inputs": [],
      "name": "DOMAIN_SEPARATOR",
      "outputs": [
        {
          "internalType": "bytes32",
          "name": "",
          "type": "bytes32"
        }
      ],
      "stateMutability": "view",
      "type": "function",
      "constant": true
    },
    {
      "inputs": [],
      "name": "MINTER_ROLE",
      "outputs": [
        {
          "internalType": "bytes32",
          "name": "",
          "type": "bytes32"
        }
      ],
      "stateMutability": "view",
      "type": "function",
      "constant": true
    },
    {
      "inputs": [
        {
          "internalType": "address",
          "name": "owner",
          "type": "address"
        },
        {
          "internalType": "address",
          "name": "spender",
          "type": "address"
        }
      ],
      "name": "allowance",
      "outputs": [
        {
          "internalType": "uint256",
          "name": "",
          "type": "uint256"
        }
      ],
      "stateMutability": "view",
      "type": "function",
      "constant": true
    },
    {
      "inputs": [
        {
          "internalType": "address",
          "name": "spender",
          "type": "address"
        },
        {
          "internalType": "uint256",
          "name": "amount",
          "type": "uint256"
        }
      ],
      "name": "approve",
      "outputs": [
        {
          "internalType": "bool",
          "name": "",
          "type": "bool"
        }
      ],
      "stateMutability": "nonpayable",
      "type": "function"
    },
    {
      "inputs": [
        {
          "internalType": "address",
          "name": "account",
          "type": "address"
        }
      ],
      "name": "balanceOf",
      "outputs": [
        {
          "internalType": "uint256",
          "name": "",
          "type": "uint256"
        }
      ],
      "stateMutability": "view",
      "type": "function",
      "constant": true
    },
    {
      "inputs": [
        {
          "internalType": "uint256",
          "name": "amount",
          "type": "uint256"
        }
      ],
      "name": "burn",
      "outputs": [],
      "stateMutability": "nonpayable",
      "type": "function"
    },
    {
      "inputs": [
        {
          "internalType": "address",
          "name": "account",
          "type": "address"
        },
        {
          "internalType": "uint256",
          "name": "amount",
          "type": "uint256"
        }
      ],
      "name": "burnFrom",
      "outputs": [],
      "stateMutability": "nonpayable",
      "type": "function"
    },
    {
      "inputs": [
        {
          "internalType": "address",
          "name": "account",
          "type": "address"
        },
        {
          "internalType": "uint32",
          "name": "pos",
          "type": "uint32"
        }
      ],
      "name": "checkpoints",
      "outputs": [
        {
          "components": [
            {
              "internalType": "uint32",
              "name": "fromBlock",
              "type": "uint32"
            },
            {
              "internalType": "uint224",
              "name": "votes",
              "type": "uint224"
            }
          ],
          "internalType": "struct ERC20Votes.Checkpoint",
          "name": "",
          "type": "tuple"
        }
      ],
      "stateMutability": "view",
      "type": "function",
      "constant": true
    },
    {
      "inputs": [
        {
          "internalType": "address",
          "name": "spender",
          "type": "address"
        },
        {
          "internalType": "uint256",
          "name": "subtractedValue",
          "type": "uint256"
        }
      ],
      "name": "decreaseAllowance",
      "outputs": [
        {
          "internalType": "bool",
          "name": "",
          "type": "bool"
        }
      ],
      "stateMutability": "nonpayable",
      "type": "function"
    },
    {
      "inputs": [
        {
          "internalType": "address",
          "name": "delegatee",
          "type": "address"
        }
      ],
      "name": "delegate",
      "outputs": [],
      "stateMutability": "nonpayable",
      "type": "function"
    },
    {
      "inputs": [
        {
          "internalType": "address",
          "name": "delegatee",
          "type": "address"
        },
        {
          "internalType": "uint256",
          "name": "nonce",
          "type": "uint256"
        },
        {
          "internalType": "uint256",
          "name": "expiry",
          "type": "uint256"
        },
        {
          "internalType": "uint8",
          "name": "v",
          "type": "uint8"
        },
        {
          "internalType": "bytes32",
          "name": "r",
          "type": "bytes32"
        },
        {
          "internalType": "bytes32",
          "name": "s",
          "type": "bytes32"
        }
      ],
      "name": "delegateBySig",
      "outputs": [],
      "stateMutability": "nonpayable",
      "type": "function"
    },
    {
      "inputs": [
        {
          "internalType": "address",
          "name": "account",
          "type": "address"
        }
      ],
      "name": "delegates",
      "outputs": [
        {
          "internalType": "address",
          "name": "",
          "type": "address"
        }
      ],
      "stateMutability": "view",
      "type": "function",
      "constant": true
    },
    {
      "inputs": [
        {
          "internalType": "uint256",
          "name": "blockNumber",
          "type": "uint256"
        }
      ],
      "name": "getPastTotalSupply",
      "outputs": [
        {
          "internalType": "uint256",
          "name": "",
          "type": "uint256"
        }
      ],
      "stateMutability": "view",
      "type": "function",
      "constant": true
    },
    {
      "inputs": [
        {
          "internalType": "address",
          "name": "account",
          "type": "address"
        },
        {
          "internalType": "uint256",
          "name": "blockNumber",
          "type": "uint256"
        }
      ],
      "name": "getPastVotes",
      "outputs": [
        {
          "internalType": "uint256",
          "name": "",
          "type": "uint256"
        }
      ],
      "stateMutability": "view",
      "type": "function",
      "constant": true
    },
    {
      "inputs": [
        {
          "internalType": "bytes32",
          "name": "role",
          "type": "bytes32"
        }
      ],
      "name": "getRoleAdmin",
      "outputs": [
        {
          "internalType": "bytes32",
          "name": "",
          "type": "bytes32"
        }
      ],
      "stateMutability": "view",
      "type": "function",
      "constant": true
    },
    {
      "inputs": [
        {
          "internalType": "address",
          "name": "account",
          "type": "address"
        }
      ],
      "name": "getVotes",
      "outputs": [
        {
          "internalType": "uint256",
          "name": "",
          "type": "uint256"
        }
      ],
      "stateMutability": "view",
      "type": "function",
      "constant": true
    },
    {
      "inputs": [
        {
          "internalType": "bytes32",
          "name": "role",
          "type": "bytes32"
        },
        {
          "internalType": "address",
          "name": "account",
          "type": "address"
        }
      ],
      "name": "grantRole",
      "outputs": [],
      "stateMutability": "nonpayable",
      "type": "function"
    },
    {
      "inputs": [
        {
          "internalType": "bytes32",
          "name": "role",
          "type": "bytes32"
        },
        {
          "internalType": "address",
          "name": "account",
          "type": "address"
        }
      ],
      "name": "hasRole",
      "outputs": [
        {
          "internalType": "bool",
          "name": "",
          "type": "bool"
        }
      ],
      "stateMutability": "view",
      "type": "function",
      "constant": true
    },
    {
      "inputs": [
        {
          "internalType": "address",
          "name": "spender",
          "type": "address"
        },
        {
          "internalType": "uint256",
          "name": "addedValue",
          "type": "uint256"
        }
      ],
      "name": "increaseAllowance",
      "outputs": [
        {
          "internalType": "bool",
          "name": "",
          "type": "bool"
        }
      ],
      "stateMutability": "nonpayable",
      "type": "function"
    },
    {
      "inputs": [],
      "name": "name",
      "outputs": [
        {
          "internalType": "string",
          "name": "",
          "type": "string"
        }
      ],
      "stateMutability": "view",
      "type": "function",
      "constant": true
    },
    {
      "inputs": [
        {
          "internalType": "address",
          "name": "owner",
          "type": "address"
        }
      ],
      "name": "nonces",
      "outputs": [
        {
          "internalType": "uint256",
          "name": "",
          "type": "uint256"
        }
      ],
      "stateMutability": "view",
      "type": "function",
      "constant": true
    },
    {
      "inputs": [
        {
          "internalType": "address",
          "name": "account",
          "type": "address"
        }
      ],
      "name": "numCheckpoints",
      "outputs": [
        {
          "internalType": "uint32",
          "name": "",
          "type": "uint32"
        }
      ],
      "stateMutability": "view",
      "type": "function",
      "constant": true
    },
    {
      "inputs": [
        {
          "internalType": "address",
          "name": "owner",
          "type": "address"
        },
        {
          "internalType": "address",
          "name": "spender",
          "type": "address"
        },
        {
          "internalType": "uint256",
          "name": "value",
          "type": "uint256"
        },
        {
          "internalType": "uint256",
          "name": "deadline",
          "type": "uint256"
        },
        {
          "internalType": "uint8",
          "name": "v",
          "type": "uint8"
        },
        {
          "internalType": "bytes32",
          "name": "r",
          "type": "bytes32"
        },
        {
          "internalType": "bytes32",
          "name": "s",
          "type": "bytes32"
        }
      ],
      "name": "permit",
      "outputs": [],
      "stateMutability": "nonpayable",
      "type": "function"
    },
    {
      "inputs": [
        {
          "internalType": "bytes32",
          "name": "role",
          "type": "bytes32"
        },
        {
          "internalType": "address",
          "name": "account",
          "type": "address"
        }
      ],
      "name": "renounceRole",
      "outputs": [],
      "stateMutability": "nonpayable",
      "type": "function"
    },
    {
      "inputs": [
        {
          "internalType": "bytes32",
          "name": "role",
          "type": "bytes32"
        },
        {
          "internalType": "address",
          "name": "account",
          "type": "address"
        }
      ],
      "name": "revokeRole",
      "outputs": [],
      "stateMutability": "nonpayable",
      "type": "function"
    },
    {
      "inputs": [
        {
          "internalType": "bytes4",
          "name": "interfaceId",
          "type": "bytes4"
        }
      ],
      "name": "supportsInterface",
      "outputs": [
        {
          "internalType": "bool",
          "name": "",
          "type": "bool"
        }
      ],
      "stateMutability": "view",
      "type": "function",
      "constant": true
    },
    {
      "inputs": [],
      "name": "symbol",
      "outputs": [
        {
          "internalType": "string",
          "name": "",
          "type": "string"
        }
      ],
      "stateMutability": "view",
      "type": "function",
      "constant": true
    },
    {
      "inputs": [],
      "name": "totalSupply",
      "outputs": [
        {
          "internalType": "uint256",
          "name": "",
          "type": "uint256"
        }
      ],
      "stateMutability": "view",
      "type": "function",
      "constant": true
    },
    {
      "inputs": [
        {
          "internalType": "address",
          "name": "recipient",
          "type": "address"
        },
        {
          "internalType": "uint256",
          "name": "amount",
          "type": "uint256"
        }
      ],
      "name": "transfer",
      "outputs": [
        {
          "internalType": "bool",
          "name": "",
          "type": "bool"
        }
      ],
      "stateMutability": "nonpayable",
      "type": "function"
    },
    {
      "inputs": [
        {
          "internalType": "address",
          "name": "sender",
          "type": "address"
        },
        {
          "internalType": "address",
          "name": "recipient",
          "type": "address"
        },
        {
          "internalType": "uint256",
          "name": "amount",
          "type": "uint256"
        }
      ],
      "name": "transferFrom",
      "outputs": [
        {
          "internalType": "bool",
          "name": "",
          "type": "bool"
        }
      ],
      "stateMutability": "nonpayable",
      "type": "function"
    },
    {
      "inputs": [
        {
          "internalType": "address",
          "name": "to",
          "type": "address"
        },
        {
          "internalType": "uint256",
          "name": "amount",
          "type": "uint256"
        }
      ],
      "name": "mint",
      "outputs": [],
      "stateMutability": "nonpayable",
      "type": "function"
    },
    {
      "inputs": [],
      "name": "decimals",
      "outputs": [
        {
          "internalType": "uint8",
          "name": "",
          "type": "uint8"
        }
      ],
      "stateMutability": "pure",
      "type": "function",
      "constant": true
    }
  ],
  "bytecode": "0x6101606040527f6e71edae12b1b97f4d1f60370fef10105fa2faae0126114a169c64845d6126c9610140908152503480156200003a57600080fd5b506040518060400160405280600581526020017f536f756c73000000000000000000000000000000000000000000000000000000815250806040518060400160405280600181526020017f31000000000000000000000000000000000000000000000000000000000000008152506040518060400160405280600581526020017f536f756c730000000000000000000000000000000000000000000000000000008152506040518060400160405280600381526020017f534c53000000000000000000000000000000000000000000000000000000000081525081600390805190602001906200012c92919062000dc3565b5080600490805190602001906200014592919062000dc3565b50505060008280519060200120905060008280519060200120905060007f8b73c3c69bb8fe3d512ecc4cf759cc79239f7b179b0ffacaa9a75d522b39400f90508260e081815250508161010081815250504660a08181525050620001b18184846200028960201b60201c565b608081815250503073ffffffffffffffffffffffffffffffffffffffff1660c08173ffffffffffffffffffffffffffffffffffffffff1660601b815250508061012081815250505050505050506200023c3362000213620002c560201b60201c565b600a6200022191906200113a565b6103e862000230919062001277565b620002ca60201b60201c565b620002516000801b33620002e560201b60201c565b620002837f9f2df0fed2c77648de5860a4cc508cd0818c85b8b8a1ab4ceeef8d981c8956a633620002e560201b60201c565b6200151f565b60008383834630604051602001620002a695949392919062000f42565b6040516020818303038152906040528051906020012090509392505050565b600090565b620002e18282620003d760201b6200156d1760201c565b5050565b620002f782826200049560201b60201c565b620003d35760016005600084815260200190815260200160002060000160008373ffffffffffffffffffffffffffffffffffffffff1673ffffffffffffffffffffffffffffffffffffffff16815260200190815260200160002060006101000a81548160ff021916908315150217905550620003786200050060201b60201c565b73ffffffffffffffffffffffffffffffffffffffff168173ffffffffffffffffffffffffffffffffffffffff16837f2f8788117e7eff1d82e926ec794901d17c78024a50270940304540a733656f0d60405160405180910390a45b5050565b620003ee82826200050860201b620015fa1760201c565b620003fe6200068160201b60201c565b7bffffffffffffffffffffffffffffffffffffffffffffffffffffffff166200042c620006a560201b60201c565b111562000470576040517f08c379a0000000000000000000000000000000000000000000000000000000008152600401620004679062000f9f565b60405180910390fd5b6200048f6009620006af60201b6200175a1783620006c760201b60201c565b50505050565b60006005600084815260200190815260200160002060000160008373ffffffffffffffffffffffffffffffffffffffff1673ffffffffffffffffffffffffffffffffffffffff16815260200190815260200160002060009054906101000a900460ff16905092915050565b600033905090565b600073ffffffffffffffffffffffffffffffffffffffff168273ffffffffffffffffffffffffffffffffffffffff1614156200057b576040517f08c379a0000000000000000000000000000000000000000000000000000000008152600401620005729062001005565b60405180910390fd5b6200058f60008383620009e460201b60201c565b8060026000828254620005a3919062001082565b92505081905550806000808473ffffffffffffffffffffffffffffffffffffffff1673ffffffffffffffffffffffffffffffffffffffff1681526020019081526020016000206000828254620005fa919062001082565b925050819055508173ffffffffffffffffffffffffffffffffffffffff16600073ffffffffffffffffffffffffffffffffffffffff167fddf252ad1be2c89b69c2b068fc378daa952ba7f163c4a11628f55a4df523b3ef8360405162000661919062001027565b60405180910390a36200067d60008383620009e960201b60201c565b5050565b60007bffffffffffffffffffffffffffffffffffffffffffffffffffffffff905090565b6000600254905090565b60008183620006bf919062001082565b905092915050565b60008060008580549050905060008114620007605785600182620006ec9190620012d8565b8154811062000724577f4e487b7100000000000000000000000000000000000000000000000000000000600052603260045260246000fd5b9060005260206000200160000160049054906101000a90047bffffffffffffffffffffffffffffffffffffffffffffffffffffffff1662000763565b60005b7bffffffffffffffffffffffffffffffffffffffffffffffffffffffff1692506200078f83858760201c565b91506000811180156200080c57504386600183620007ae9190620012d8565b81548110620007e6577f4e487b7100000000000000000000000000000000000000000000000000000000600052603260045260246000fd5b9060005260206000200160000160009054906101000a900463ffffffff1663ffffffff16145b15620008d157620008288262000a0660201b620017701760201c565b86600183620008389190620012d8565b8154811062000870577f4e487b7100000000000000000000000000000000000000000000000000000000600052603260045260246000fd5b9060005260206000200160000160046101000a8154817bffffffffffffffffffffffffffffffffffffffffffffffffffffffff02191690837bffffffffffffffffffffffffffffffffffffffffffffffffffffffff160217905550620009db565b856040518060400160405280620008f34362000a7460201b620017db1760201c565b63ffffffff168152602001620009148562000a0660201b620017701760201c565b7bffffffffffffffffffffffffffffffffffffffffffffffffffffffff168152509080600181540180825580915050600190039060005260206000200160009091909190915060008201518160000160006101000a81548163ffffffff021916908363ffffffff16021790555060208201518160000160046101000a8154817bffffffffffffffffffffffffffffffffffffffffffffffffffffffff02191690837bffffffffffffffffffffffffffffffffffffffffffffffffffffffff16021790555050505b50935093915050565b505050565b62000a0183838362000aca60201b6200182e1760201c565b505050565b60007bffffffffffffffffffffffffffffffffffffffffffffffffffffffff801682111562000a6c576040517f08c379a000000000000000000000000000000000000000000000000000000000815260040162000a639062000fc1565b60405180910390fd5b819050919050565b600063ffffffff801682111562000ac2576040517f08c379a000000000000000000000000000000000000000000000000000000000815260040162000ab99062000fe3565b60405180910390fd5b819050919050565b62000ae283838362000b1a60201b620018591760201c565b62000b1562000af78462000b1f60201b60201c565b62000b088462000b1f60201b60201c565b8362000b8860201b60201c565b505050565b505050565b6000600760008373ffffffffffffffffffffffffffffffffffffffff1673ffffffffffffffffffffffffffffffffffffffff16815260200190815260200160002060009054906101000a900473ffffffffffffffffffffffffffffffffffffffff169050919050565b8173ffffffffffffffffffffffffffffffffffffffff168373ffffffffffffffffffffffffffffffffffffffff161415801562000bc55750600081115b1562000da657600073ffffffffffffffffffffffffffffffffffffffff168373ffffffffffffffffffffffffffffffffffffffff161462000cb85760008062000c5f600860008773ffffffffffffffffffffffffffffffffffffffff1673ffffffffffffffffffffffffffffffffffffffff16815260200190815260200160002062000dab60201b6200185e1785620006c760201b60201c565b915091508473ffffffffffffffffffffffffffffffffffffffff167fdec2bacdd2f05b59de34da9b523dff8be42e5e38e818c82fdb0bae774387a724838360405162000cad92919062001044565b60405180910390a250505b600073ffffffffffffffffffffffffffffffffffffffff168273ffffffffffffffffffffffffffffffffffffffff161462000da55760008062000d4c600860008673ffffffffffffffffffffffffffffffffffffffff1673ffffffffffffffffffffffffffffffffffffffff168152602001908152602001600020620006af60201b6200175a1785620006c760201b60201c565b915091508373ffffffffffffffffffffffffffffffffffffffff167fdec2bacdd2f05b59de34da9b523dff8be42e5e38e818c82fdb0bae774387a724838360405162000d9a92919062001044565b60405180910390a250505b5b505050565b6000818362000dbb9190620012d8565b905092915050565b82805462000dd19062001368565b90600052602060002090601f01602090048101928262000df5576000855562000e41565b82601f1062000e1057805160ff191683800117855562000e41565b8280016001018555821562000e41579182015b8281111562000e4057825182559160200191906001019062000e23565b5b50905062000e50919062000e54565b5090565b5b8082111562000e6f57600081600090555060010162000e55565b5090565b62000e7e8162001313565b82525050565b62000e8f8162001327565b82525050565b600062000ea460308362001071565b915062000eb18262001409565b604082019050919050565b600062000ecb60278362001071565b915062000ed88262001458565b604082019050919050565b600062000ef260268362001071565b915062000eff82620014a7565b604082019050919050565b600062000f19601f8362001071565b915062000f2682620014f6565b602082019050919050565b62000f3c8162001351565b82525050565b600060a08201905062000f59600083018862000e84565b62000f68602083018762000e84565b62000f77604083018662000e84565b62000f86606083018562000f31565b62000f95608083018462000e73565b9695505050505050565b6000602082019050818103600083015262000fba8162000e95565b9050919050565b6000602082019050818103600083015262000fdc8162000ebc565b9050919050565b6000602082019050818103600083015262000ffe8162000ee3565b9050919050565b60006020820190508181036000830152620010208162000f0a565b9050919050565b60006020820190506200103e600083018462000f31565b92915050565b60006040820190506200105b600083018562000f31565b6200106a602083018462000f31565b9392505050565b600082825260208201905092915050565b60006200108f8262001351565b91506200109c8362001351565b9250827fffffffffffffffffffffffffffffffffffffffffffffffffffffffffffffffff03821115620010d457620010d36200139e565b5b828201905092915050565b6000808291508390505b600185111562001131578086048111156200110957620011086200139e565b5b6001851615620011195780820291505b80810290506200112985620013fc565b9450620010e9565b94509492505050565b6000620011478262001351565b915062001154836200135b565b9250620011837fffffffffffffffffffffffffffffffffffffffffffffffffffffffffffffffff84846200118b565b905092915050565b6000826200119d576001905062001270565b81620011ad576000905062001270565b8160018114620011c65760028114620011d15762001207565b600191505062001270565b60ff841115620011e657620011e56200139e565b5b8360020a9150848211156200120057620011ff6200139e565b5b5062001270565b5060208310610133831016604e8410600b8410161715620012415782820a9050838111156200123b576200123a6200139e565b5b62001270565b620012508484846001620010df565b925090508184048111156200126a57620012696200139e565b5b81810290505b9392505050565b6000620012848262001351565b9150620012918362001351565b9250817fffffffffffffffffffffffffffffffffffffffffffffffffffffffffffffffff0483118215151615620012cd57620012cc6200139e565b5b828202905092915050565b6000620012e58262001351565b9150620012f28362001351565b9250828210156200130857620013076200139e565b5b828203905092915050565b6000620013208262001331565b9050919050565b6000819050919050565b600073ffffffffffffffffffffffffffffffffffffffff82169050919050565b6000819050919050565b600060ff82169050919050565b600060028204905060018216806200138157607f821691505b60208210811415620013985762001397620013cd565b5b50919050565b7f4e487b7100000000000000000000000000000000000000000000000000000000600052601160045260246000fd5b7f4e487b7100000000000000000000000000000000000000000000000000000000600052602260045260246000fd5b60008160011c9050919050565b7f4552433230566f7465733a20746f74616c20737570706c79207269736b73206f60008201527f766572666c6f77696e6720766f74657300000000000000000000000000000000602082015250565b7f53616665436173743a2076616c756520646f65736e27742066697420696e203260008201527f3234206269747300000000000000000000000000000000000000000000000000602082015250565b7f53616665436173743a2076616c756520646f65736e27742066697420696e203360008201527f3220626974730000000000000000000000000000000000000000000000000000602082015250565b7f45524332303a206d696e7420746f20746865207a65726f206164647265737300600082015250565b60805160a05160c05160601c60e051610100516101205161014051614c686200157d600039600061126801526000611f5e01526000611fa001526000611f7f01526000611eb401526000611f0a01526000611f330152614c686000f3fe608060405234801561001057600080fd5b50600436106101fb5760003560e01c80636fcfff451161011a578063a217fddf116100ad578063d505accf1161007c578063d505accf14610648578063d539139314610664578063d547741f14610682578063dd62ed3e1461069e578063f1127ed8146106ce576101fb565b8063a217fddf146105ae578063a457c2d7146105cc578063a9059cbb146105fc578063c3cda5201461062c576101fb565b80638e539e8c116100e95780638e539e8c1461050057806391d148541461053057806395d89b41146105605780639ab24eb01461057e576101fb565b80636fcfff451461045457806370a082311461048457806379cc6790146104b45780637ecebe00146104d0576101fb565b80633644e5151161019257806340c10f191161016157806340c10f19146103d057806342966c68146103ec578063587cde1e146104085780635c19a95c14610438576101fb565b80633644e5151461033657806336568abe1461035457806339509351146103705780633a46b1a8146103a0576101fb565b806323b872dd116101ce57806323b872dd1461029c578063248a9ca3146102cc5780632f2ff15d146102fc578063313ce56714610318576101fb565b806301ffc9a71461020057806306fdde0314610230578063095ea7b31461024e57806318160ddd1461027e575b600080fd5b61021a60048036038101906102159190613671565b6106fe565b6040516102279190613c4b565b60405180910390f35b610238610778565b6040516102459190613dbf565b60405180910390f35b6102686004803603810190610263919061350b565b61080a565b6040516102759190613c4b565b60405180910390f35b610286610828565b604051610293919061411c565b60405180910390f35b6102b660048036038101906102b1919061341e565b610832565b6040516102c39190613c4b565b60405180910390f35b6102e660048036038101906102e1919061360c565b61092a565b6040516102f39190613c66565b60405180910390f35b61031660048036038101906103119190613635565b61094a565b005b610320610973565b60405161032d919061417b565b60405180910390f35b61033e610978565b60405161034b9190613c66565b60405180910390f35b61036e60048036038101906103699190613635565b610987565b005b61038a6004803603810190610385919061350b565b610a0a565b6040516103979190613c4b565b60405180910390f35b6103ba60048036038101906103b5919061350b565b610ab6565b6040516103c7919061411c565b60405180910390f35b6103ea60048036038101906103e5919061350b565b610b4a565b005b6104066004803603810190610401919061369a565b610b8b565b005b610422600480360381019061041d91906133b9565b610b9f565b60405161042f9190613c30565b60405180910390f35b610452600480360381019061044d91906133b9565b610c08565b005b61046e600480360381019061046991906133b9565b610c1c565b60405161047b9190614160565b60405180910390f35b61049e600480360381019061049991906133b9565b610c70565b6040516104ab919061411c565b60405180910390f35b6104ce60048036038101906104c9919061350b565b610cb8565b005b6104ea60048036038101906104e591906133b9565b610d33565b6040516104f7919061411c565b60405180910390f35b61051a6004803603810190610515919061369a565b610d83565b604051610527919061411c565b60405180910390f35b61054a60048036038101906105459190613635565b610dd9565b6040516105579190613c4b565b60405180910390f35b610568610e44565b6040516105759190613dbf565b60405180910390f35b610598600480360381019061059391906133b9565b610ed6565b6040516105a5919061411c565b60405180910390f35b6105b661100d565b6040516105c39190613c66565b60405180910390f35b6105e660048036038101906105e1919061350b565b611014565b6040516105f39190613c4b565b60405180910390f35b6106166004803603810190610611919061350b565b6110ff565b6040516106239190613c4b565b60405180910390f35b61064660048036038101906106419190613547565b61111d565b005b610662600480360381019061065d919061346d565b611221565b005b61066c611363565b6040516106799190613c66565b60405180910390f35b61069c60048036038101906106979190613635565b611387565b005b6106b860048036038101906106b391906133e2565b6113b0565b6040516106c5919061411c565b60405180910390f35b6106e860048036038101906106e391906135d0565b611437565b6040516106f59190614101565b60405180910390f35b60007f7965db0b000000000000000000000000000000000000000000000000000000007bffffffffffffffffffffffffffffffffffffffffffffffffffffffff1916827bffffffffffffffffffffffffffffffffffffffffffffffffffffffff19161480610771575061077082611874565b5b9050919050565b606060038054610787906143f2565b80601f01602080910402602001604051908101604052809291908181526020018280546107b3906143f2565b80156108005780601f106107d557610100808354040283529160200191610800565b820191906000526020600020905b8154815290600101906020018083116107e357829003601f168201915b5050505050905090565b600061081e6108176118de565b84846118e6565b6001905092915050565b6000600254905090565b600061083f848484611ab1565b6000600160008673ffffffffffffffffffffffffffffffffffffffff1673ffffffffffffffffffffffffffffffffffffffff168152602001908152602001600020600061088a6118de565b73ffffffffffffffffffffffffffffffffffffffff1673ffffffffffffffffffffffffffffffffffffffff1681526020019081526020016000205490508281101561090a576040517f08c379a000000000000000000000000000000000000000000000000000000000815260040161090190613fa1565b60405180910390fd5b61091e856109166118de565b8584036118e6565b60019150509392505050565b600060056000838152602001908152602001600020600101549050919050565b6109538261092a565b6109648161095f6118de565b611d32565b61096e8383611dcf565b505050565b600090565b6000610982611eb0565b905090565b61098f6118de565b73ffffffffffffffffffffffffffffffffffffffff168173ffffffffffffffffffffffffffffffffffffffff16146109fc576040517f08c379a00000000000000000000000000000000000000000000000000000000081526004016109f3906140c1565b60405180910390fd5b610a068282611fca565b5050565b6000610aac610a176118de565b848460016000610a256118de565b73ffffffffffffffffffffffffffffffffffffffff1673ffffffffffffffffffffffffffffffffffffffff16815260200190815260200160002060008873ffffffffffffffffffffffffffffffffffffffff1673ffffffffffffffffffffffffffffffffffffffff16815260200190815260200160002054610aa791906141bd565b6118e6565b6001905092915050565b6000438210610afa576040517f08c379a0000000000000000000000000000000000000000000000000000000008152600401610af190613e41565b60405180910390fd5b610b42600860008573ffffffffffffffffffffffffffffffffffffffff1673ffffffffffffffffffffffffffffffffffffffff168152602001908152602001600020836120ac565b905092915050565b7f9f2df0fed2c77648de5860a4cc508cd0818c85b8b8a1ab4ceeef8d981c8956a6610b7c81610b776118de565b611d32565b610b868383612204565b505050565b610b9c610b966118de565b82612212565b50565b6000600760008373ffffffffffffffffffffffffffffffffffffffff1673ffffffffffffffffffffffffffffffffffffffff16815260200190815260200160002060009054906101000a900473ffffffffffffffffffffffffffffffffffffffff169050919050565b610c19610c136118de565b82612220565b50565b6000610c69600860008473ffffffffffffffffffffffffffffffffffffffff1673ffffffffffffffffffffffffffffffffffffffff168152602001908152602001600020805490506117db565b9050919050565b60008060008373ffffffffffffffffffffffffffffffffffffffff1673ffffffffffffffffffffffffffffffffffffffff168152602001908152602001600020549050919050565b6000610ccb83610cc66118de565b6113b0565b905081811015610d10576040517f08c379a0000000000000000000000000000000000000000000000000000000008152600401610d0790614001565b60405180910390fd5b610d2483610d1c6118de565b8484036118e6565b610d2e8383612212565b505050565b6000610d7c600660008473ffffffffffffffffffffffffffffffffffffffff1673ffffffffffffffffffffffffffffffffffffffff16815260200190815260200160002061233a565b9050919050565b6000438210610dc7576040517f08c379a0000000000000000000000000000000000000000000000000000000008152600401610dbe90613e41565b60405180910390fd5b610dd26009836120ac565b9050919050565b60006005600084815260200190815260200160002060000160008373ffffffffffffffffffffffffffffffffffffffff1673ffffffffffffffffffffffffffffffffffffffff16815260200190815260200160002060009054906101000a900460ff16905092915050565b606060048054610e53906143f2565b80601f0160208091040260200160405190810160405280929190818152602001828054610e7f906143f2565b8015610ecc5780601f10610ea157610100808354040283529160200191610ecc565b820191906000526020600020905b815481529060010190602001808311610eaf57829003601f168201915b5050505050905090565b600080600860008473ffffffffffffffffffffffffffffffffffffffff1673ffffffffffffffffffffffffffffffffffffffff16815260200190815260200160002080549050905060008114610fe457600860008473ffffffffffffffffffffffffffffffffffffffff1673ffffffffffffffffffffffffffffffffffffffff168152602001908152602001600020600182610f72919061429e565b81548110610fa9577f4e487b7100000000000000000000000000000000000000000000000000000000600052603260045260246000fd5b9060005260206000200160000160049054906101000a90047bffffffffffffffffffffffffffffffffffffffffffffffffffffffff16610fe7565b60005b7bffffffffffffffffffffffffffffffffffffffffffffffffffffffff16915050919050565b6000801b81565b600080600160006110236118de565b73ffffffffffffffffffffffffffffffffffffffff1673ffffffffffffffffffffffffffffffffffffffff16815260200190815260200160002060008573ffffffffffffffffffffffffffffffffffffffff1673ffffffffffffffffffffffffffffffffffffffff168152602001908152602001600020549050828110156110e0576040517f08c379a00000000000000000000000000000000000000000000000000000000081526004016110d7906140a1565b60405180910390fd5b6110f46110eb6118de565b858584036118e6565b600191505092915050565b600061111361110c6118de565b8484611ab1565b6001905092915050565b83421115611160576040517f08c379a000000000000000000000000000000000000000000000000000000000815260040161115790613e61565b60405180910390fd5b60006111c26111ba7fe48329057bfd03d55e49b547132e39cffd9c1820ad7b9d4c5307691425d15adf89898960405160200161119f9493929190613ce2565b60405160208183030381529060405280519060200120612348565b858585612362565b90506111cd8161238d565b861461120e576040517f08c379a000000000000000000000000000000000000000000000000000000000815260040161120590613ec1565b60405180910390fd5b6112188188612220565b50505050505050565b83421115611264576040517f08c379a000000000000000000000000000000000000000000000000000000000815260040161125b90613f01565b60405180910390fd5b60007f00000000000000000000000000000000000000000000000000000000000000008888886112938c61238d565b896040516020016112a996959493929190613c81565b60405160208183030381529060405280519060200120905060006112cc82612348565b905060006112dc82878787612362565b90508973ffffffffffffffffffffffffffffffffffffffff168173ffffffffffffffffffffffffffffffffffffffff161461134c576040517f08c379a000000000000000000000000000000000000000000000000000000000815260040161134390613f81565b60405180910390fd5b6113578a8a8a6118e6565b50505050505050505050565b7f9f2df0fed2c77648de5860a4cc508cd0818c85b8b8a1ab4ceeef8d981c8956a681565b6113908261092a565b6113a18161139c6118de565b611d32565b6113ab8383611fca565b505050565b6000600160008473ffffffffffffffffffffffffffffffffffffffff1673ffffffffffffffffffffffffffffffffffffffff16815260200190815260200160002060008373ffffffffffffffffffffffffffffffffffffffff1673ffffffffffffffffffffffffffffffffffffffff16815260200190815260200160002054905092915050565b61143f6132fd565b600860008473ffffffffffffffffffffffffffffffffffffffff1673ffffffffffffffffffffffffffffffffffffffff1681526020019081526020016000208263ffffffff16815481106114bc577f4e487b7100000000000000000000000000000000000000000000000000000000600052603260045260246000fd5b906000526020600020016040518060400160405290816000820160009054906101000a900463ffffffff1663ffffffff1663ffffffff1681526020016000820160049054906101000a90047bffffffffffffffffffffffffffffffffffffffffffffffffffffffff167bffffffffffffffffffffffffffffffffffffffffffffffffffffffff167bffffffffffffffffffffffffffffffffffffffffffffffffffffffff1681525050905092915050565b61157782826115fa565b61157f6123eb565b7bffffffffffffffffffffffffffffffffffffffffffffffffffffffff166115a5610828565b11156115e6576040517f08c379a00000000000000000000000000000000000000000000000000000000081526004016115dd90613fc1565b60405180910390fd5b6115f4600961175a8361240f565b50505050565b600073ffffffffffffffffffffffffffffffffffffffff168273ffffffffffffffffffffffffffffffffffffffff16141561166a576040517f08c379a0000000000000000000000000000000000000000000000000000000008152600401611661906140e1565b60405180910390fd5b611676600083836126f9565b806002600082825461168891906141bd565b92505081905550806000808473ffffffffffffffffffffffffffffffffffffffff1673ffffffffffffffffffffffffffffffffffffffff16815260200190815260200160002060008282546116dd91906141bd565b925050819055508173ffffffffffffffffffffffffffffffffffffffff16600073ffffffffffffffffffffffffffffffffffffffff167fddf252ad1be2c89b69c2b068fc378daa952ba7f163c4a11628f55a4df523b3ef83604051611742919061411c565b60405180910390a3611756600083836126fe565b5050565b6000818361176891906141bd565b905092915050565b60007bffffffffffffffffffffffffffffffffffffffffffffffffffffffff80168211156117d3576040517f08c379a00000000000000000000000000000000000000000000000000000000081526004016117ca90613fe1565b60405180910390fd5b819050919050565b600063ffffffff8016821115611826576040517f08c379a000000000000000000000000000000000000000000000000000000000815260040161181d90614061565b60405180910390fd5b819050919050565b611839838383611859565b61185461184584610b9f565b61184e84610b9f565b8361270e565b505050565b505050565b6000818361186c919061429e565b905092915050565b60007f01ffc9a7000000000000000000000000000000000000000000000000000000007bffffffffffffffffffffffffffffffffffffffffffffffffffffffff1916827bffffffffffffffffffffffffffffffffffffffffffffffffffffffff1916149050919050565b600033905090565b600073ffffffffffffffffffffffffffffffffffffffff168373ffffffffffffffffffffffffffffffffffffffff161415611956576040517f08c379a000000000000000000000000000000000000000000000000000000000815260040161194d90614081565b60405180910390fd5b600073ffffffffffffffffffffffffffffffffffffffff168273ffffffffffffffffffffffffffffffffffffffff1614156119c6576040517f08c379a00000000000000000000000000000000000000000000000000000000081526004016119bd90613ee1565b60405180910390fd5b80600160008573ffffffffffffffffffffffffffffffffffffffff1673ffffffffffffffffffffffffffffffffffffffff16815260200190815260200160002060008473ffffffffffffffffffffffffffffffffffffffff1673ffffffffffffffffffffffffffffffffffffffff168152602001908152602001600020819055508173ffffffffffffffffffffffffffffffffffffffff168373ffffffffffffffffffffffffffffffffffffffff167f8c5be1e5ebec7d5bd14f71427d1e84f3dd0314c0f7b2291e5b200ac8c7c3b92583604051611aa4919061411c565b60405180910390a3505050565b600073ffffffffffffffffffffffffffffffffffffffff168373ffffffffffffffffffffffffffffffffffffffff161415611b21576040517f08c379a0000000000000000000000000000000000000000000000000000000008152600401611b1890614041565b60405180910390fd5b600073ffffffffffffffffffffffffffffffffffffffff168273ffffffffffffffffffffffffffffffffffffffff161415611b91576040517f08c379a0000000000000000000000000000000000000000000000000000000008152600401611b8890613e21565b60405180910390fd5b611b9c8383836126f9565b60008060008573ffffffffffffffffffffffffffffffffffffffff1673ffffffffffffffffffffffffffffffffffffffff16815260200190815260200160002054905081811015611c22576040517f08c379a0000000000000000000000000000000000000000000000000000000008152600401611c1990613f21565b60405180910390fd5b8181036000808673ffffffffffffffffffffffffffffffffffffffff1673ffffffffffffffffffffffffffffffffffffffff16815260200190815260200160002081905550816000808573ffffffffffffffffffffffffffffffffffffffff1673ffffffffffffffffffffffffffffffffffffffff1681526020019081526020016000206000828254611cb591906141bd565b925050819055508273ffffffffffffffffffffffffffffffffffffffff168473ffffffffffffffffffffffffffffffffffffffff167fddf252ad1be2c89b69c2b068fc378daa952ba7f163c4a11628f55a4df523b3ef84604051611d19919061411c565b60405180910390a3611d2c8484846126fe565b50505050565b611d3c8282610dd9565b611dcb57611d618173ffffffffffffffffffffffffffffffffffffffff166014612907565b611d6f8360001c6020612907565b604051602001611d80929190613bf6565b6040516020818303038152906040526040517f08c379a0000000000000000000000000000000000000000000000000000000008152600401611dc29190613dbf565b60405180910390fd5b5050565b611dd98282610dd9565b611eac5760016005600084815260200190815260200160002060000160008373ffffffffffffffffffffffffffffffffffffffff1673ffffffffffffffffffffffffffffffffffffffff16815260200190815260200160002060006101000a81548160ff021916908315150217905550611e516118de565b73ffffffffffffffffffffffffffffffffffffffff168173ffffffffffffffffffffffffffffffffffffffff16837f2f8788117e7eff1d82e926ec794901d17c78024a50270940304540a733656f0d60405160405180910390a45b5050565b60007f000000000000000000000000000000000000000000000000000000000000000073ffffffffffffffffffffffffffffffffffffffff163073ffffffffffffffffffffffffffffffffffffffff16148015611f2c57507f000000000000000000000000000000000000000000000000000000000000000046145b15611f59577f00000000000000000000000000000000000000000000000000000000000000009050611fc7565b611fc47f00000000000000000000000000000000000000000000000000000000000000007f00000000000000000000000000000000000000000000000000000000000000007f0000000000000000000000000000000000000000000000000000000000000000612c01565b90505b90565b611fd48282610dd9565b156120a85760006005600084815260200190815260200160002060000160008373ffffffffffffffffffffffffffffffffffffffff1673ffffffffffffffffffffffffffffffffffffffff16815260200190815260200160002060006101000a81548160ff02191690831515021790555061204d6118de565b73ffffffffffffffffffffffffffffffffffffffff168173ffffffffffffffffffffffffffffffffffffffff16837ff6391f5c32d9c69d2a47ea670b442974b53935d1edc7fd64eb21e047a839171b60405160405180910390a45b5050565b6000808380549050905060005b818110156121515760006120cd8284612c3b565b905084868281548110612109577f4e487b7100000000000000000000000000000000000000000000000000000000600052603260045260246000fd5b9060005260206000200160000160009054906101000a900463ffffffff1663ffffffff16111561213b5780925061214b565b60018161214891906141bd565b91505b506120b9565b600082146121d95784600183612167919061429e565b8154811061219e577f4e487b7100000000000000000000000000000000000000000000000000000000600052603260045260246000fd5b9060005260206000200160000160049054906101000a90047bffffffffffffffffffffffffffffffffffffffffffffffffffffffff166121dc565b60005b7bffffffffffffffffffffffffffffffffffffffffffffffffffffffff169250505092915050565b61220e828261156d565b5050565b61221c8282612c61565b5050565b600061222b83610b9f565b9050600061223884610c70565b905082600760008673ffffffffffffffffffffffffffffffffffffffff1673ffffffffffffffffffffffffffffffffffffffff16815260200190815260200160002060006101000a81548173ffffffffffffffffffffffffffffffffffffffff021916908373ffffffffffffffffffffffffffffffffffffffff1602179055508273ffffffffffffffffffffffffffffffffffffffff168273ffffffffffffffffffffffffffffffffffffffff168573ffffffffffffffffffffffffffffffffffffffff167f3134e8a2e6d97e929a7e54011ea5485d7d196dd5f0ba4d4ef95803e8e3fc257f60405160405180910390a461233482848361270e565b50505050565b600081600001549050919050565b600061235b612355611eb0565b83612c7f565b9050919050565b600080600061237387878787612cb2565b9150915061238081612dbf565b8192505050949350505050565b600080600660008473ffffffffffffffffffffffffffffffffffffffff1673ffffffffffffffffffffffffffffffffffffffff16815260200190815260200160002090506123da8161233a565b91506123e581613110565b50919050565b60007bffffffffffffffffffffffffffffffffffffffffffffffffffffffff905090565b600080600085805490509050600081146124a35785600182612431919061429e565b81548110612468577f4e487b7100000000000000000000000000000000000000000000000000000000600052603260045260246000fd5b9060005260206000200160000160049054906101000a90047bffffffffffffffffffffffffffffffffffffffffffffffffffffffff166124a6565b60005b7bffffffffffffffffffffffffffffffffffffffffffffffffffffffff1692506124d483858763ffffffff16565b915060008111801561254d575043866001836124f0919061429e565b81548110612527577f4e487b7100000000000000000000000000000000000000000000000000000000600052603260045260246000fd5b9060005260206000200160000160009054906101000a900463ffffffff1663ffffffff16145b156126005761255b82611770565b86600183612569919061429e565b815481106125a0577f4e487b7100000000000000000000000000000000000000000000000000000000600052603260045260246000fd5b9060005260206000200160000160046101000a8154817bffffffffffffffffffffffffffffffffffffffffffffffffffffffff02191690837bffffffffffffffffffffffffffffffffffffffffffffffffffffffff1602179055506126f0565b856040518060400160405280612615436117db565b63ffffffff16815260200161262985611770565b7bffffffffffffffffffffffffffffffffffffffffffffffffffffffff168152509080600181540180825580915050600190039060005260206000200160009091909190915060008201518160000160006101000a81548163ffffffff021916908363ffffffff16021790555060208201518160000160046101000a8154817bffffffffffffffffffffffffffffffffffffffffffffffffffffffff02191690837bffffffffffffffffffffffffffffffffffffffffffffffffffffffff16021790555050505b50935093915050565b505050565b61270983838361182e565b505050565b8173ffffffffffffffffffffffffffffffffffffffff168373ffffffffffffffffffffffffffffffffffffffff161415801561274a5750600081115b1561290257600073ffffffffffffffffffffffffffffffffffffffff168373ffffffffffffffffffffffffffffffffffffffff1614612828576000806127d1600860008773ffffffffffffffffffffffffffffffffffffffff1673ffffffffffffffffffffffffffffffffffffffff16815260200190815260200160002061185e8561240f565b915091508473ffffffffffffffffffffffffffffffffffffffff167fdec2bacdd2f05b59de34da9b523dff8be42e5e38e818c82fdb0bae774387a724838360405161281d929190614137565b60405180910390a250505b600073ffffffffffffffffffffffffffffffffffffffff168273ffffffffffffffffffffffffffffffffffffffff1614612901576000806128aa600860008673ffffffffffffffffffffffffffffffffffffffff1673ffffffffffffffffffffffffffffffffffffffff16815260200190815260200160002061175a8561240f565b915091508373ffffffffffffffffffffffffffffffffffffffff167fdec2bacdd2f05b59de34da9b523dff8be42e5e38e818c82fdb0bae774387a72483836040516128f6929190614137565b60405180910390a250505b5b505050565b60606000600283600261291a9190614244565b61292491906141bd565b67ffffffffffffffff811115612963577f4e487b7100000000000000000000000000000000000000000000000000000000600052604160045260246000fd5b6040519080825280601f01601f1916602001820160405280156129955781602001600182028036833780820191505090505b5090507f3000000000000000000000000000000000000000000000000000000000000000816000815181106129f3577f4e487b7100000000000000000000000000000000000000000000000000000000600052603260045260246000fd5b60200101907effffffffffffffffffffffffffffffffffffffffffffffffffffffffffffff1916908160001a9053507f780000000000000000000000000000000000000000000000000000000000000081600181518110612a7d577f4e487b7100000000000000000000000000000000000000000000000000000000600052603260045260246000fd5b60200101907effffffffffffffffffffffffffffffffffffffffffffffffffffffffffffff1916908160001a90535060006001846002612abd9190614244565b612ac791906141bd565b90505b6001811115612bb3577f3031323334353637383961626364656600000000000000000000000000000000600f861660108110612b2f577f4e487b7100000000000000000000000000000000000000000000000000000000600052603260045260246000fd5b1a60f81b828281518110612b6c577f4e487b7100000000000000000000000000000000000000000000000000000000600052603260045260246000fd5b60200101907effffffffffffffffffffffffffffffffffffffffffffffffffffffffffffff1916908160001a905350600485901c945080612bac906143c8565b9050612aca565b5060008414612bf7576040517f08c379a0000000000000000000000000000000000000000000000000000000008152600401612bee90613e01565b60405180910390fd5b8091505092915050565b60008383834630604051602001612c1c959493929190613d27565b6040516020818303038152906040528051906020012090509392505050565b60006002828418612c4c9190614213565b828416612c5991906141bd565b905092915050565b612c6b8282613126565b612c79600961185e8361240f565b50505050565b60008282604051602001612c94929190613bbf565b60405160208183030381529060405280519060200120905092915050565b6000807f7fffffffffffffffffffffffffffffff5d576e7357a4501ddfe92f46681b20a08360001c1115612ced576000600391509150612db6565b601b8560ff1614158015612d055750601c8560ff1614155b15612d17576000600491509150612db6565b600060018787878760405160008152602001604052604051612d3c9493929190613d7a565b6020604051602081039080840390855afa158015612d5e573d6000803e3d6000fd5b505050602060405103519050600073ffffffffffffffffffffffffffffffffffffffff168173ffffffffffffffffffffffffffffffffffffffff161415612dad57600060019250925050612db6565b80600092509250505b94509492505050565b60006004811115612df9577f4e487b7100000000000000000000000000000000000000000000000000000000600052602160045260246000fd5b816004811115612e32577f4e487b7100000000000000000000000000000000000000000000000000000000600052602160045260246000fd5b1415612e3d5761310d565b60016004811115612e77577f4e487b7100000000000000000000000000000000000000000000000000000000600052602160045260246000fd5b816004811115612eb0577f4e487b7100000000000000000000000000000000000000000000000000000000600052602160045260246000fd5b1415612ef1576040517f08c379a0000000000000000000000000000000000000000000000000000000008152600401612ee890613de1565b60405180910390fd5b60026004811115612f2b577f4e487b7100000000000000000000000000000000000000000000000000000000600052602160045260246000fd5b816004811115612f64577f4e487b7100000000000000000000000000000000000000000000000000000000600052602160045260246000fd5b1415612fa5576040517f08c379a0000000000000000000000000000000000000000000000000000000008152600401612f9c90613ea1565b60405180910390fd5b60036004811115612fdf577f4e487b7100000000000000000000000000000000000000000000000000000000600052602160045260246000fd5b816004811115613018577f4e487b7100000000000000000000000000000000000000000000000000000000600052602160045260246000fd5b1415613059576040517f08c379a000000000000000000000000000000000000000000000000000000000815260040161305090613f41565b60405180910390fd5b600480811115613092577f4e487b7100000000000000000000000000000000000000000000000000000000600052602160045260246000fd5b8160048111156130cb577f4e487b7100000000000000000000000000000000000000000000000000000000600052602160045260246000fd5b141561310c576040517f08c379a000000000000000000000000000000000000000000000000000000000815260040161310390613f61565b60405180910390fd5b5b50565b6001816000016000828254019250508190555050565b600073ffffffffffffffffffffffffffffffffffffffff168273ffffffffffffffffffffffffffffffffffffffff161415613196576040517f08c379a000000000000000000000000000000000000000000000000000000000815260040161318d90614021565b60405180910390fd5b6131a2826000836126f9565b60008060008473ffffffffffffffffffffffffffffffffffffffff1673ffffffffffffffffffffffffffffffffffffffff16815260200190815260200160002054905081811015613228576040517f08c379a000000000000000000000000000000000000000000000000000000000815260040161321f90613e81565b60405180910390fd5b8181036000808573ffffffffffffffffffffffffffffffffffffffff1673ffffffffffffffffffffffffffffffffffffffff16815260200190815260200160002081905550816002600082825461327f919061429e565b92505081905550600073ffffffffffffffffffffffffffffffffffffffff168373ffffffffffffffffffffffffffffffffffffffff167fddf252ad1be2c89b69c2b068fc378daa952ba7f163c4a11628f55a4df523b3ef846040516132e4919061411c565b60405180910390a36132f8836000846126fe565b505050565b6040518060400160405280600063ffffffff16815260200160007bffffffffffffffffffffffffffffffffffffffffffffffffffffffff1681525090565b60008135905061334a81614ba8565b92915050565b60008135905061335f81614bbf565b92915050565b60008135905061337481614bd6565b92915050565b60008135905061338981614bed565b92915050565b60008135905061339e81614c04565b92915050565b6000813590506133b381614c1b565b92915050565b6000602082840312156133cb57600080fd5b60006133d98482850161333b565b91505092915050565b600080604083850312156133f557600080fd5b60006134038582860161333b565b92505060206134148582860161333b565b9150509250929050565b60008060006060848603121561343357600080fd5b60006134418682870161333b565b93505060206134528682870161333b565b92505060406134638682870161337a565b9150509250925092565b600080600080600080600060e0888a03121561348857600080fd5b60006134968a828b0161333b565b97505060206134a78a828b0161333b565b96505060406134b88a828b0161337a565b95505060606134c98a828b0161337a565b94505060806134da8a828b016133a4565b93505060a06134eb8a828b01613350565b92505060c06134fc8a828b01613350565b91505092959891949750929550565b6000806040838503121561351e57600080fd5b600061352c8582860161333b565b925050602061353d8582860161337a565b9150509250929050565b60008060008060008060c0878903121561356057600080fd5b600061356e89828a0161333b565b965050602061357f89828a0161337a565b955050604061359089828a0161337a565b94505060606135a189828a016133a4565b93505060806135b289828a01613350565b92505060a06135c389828a01613350565b9150509295509295509295565b600080604083850312156135e357600080fd5b60006135f18582860161333b565b92505060206136028582860161338f565b9150509250929050565b60006020828403121561361e57600080fd5b600061362c84828501613350565b91505092915050565b6000806040838503121561364857600080fd5b600061365685828601613350565b92505060206136678582860161333b565b9150509250929050565b60006020828403121561368357600080fd5b600061369184828501613365565b91505092915050565b6000602082840312156136ac57600080fd5b60006136ba8482850161337a565b91505092915050565b6136cc816142d2565b82525050565b6136db816142e4565b82525050565b6136ea816142f0565b82525050565b6137016136fc826142f0565b614424565b82525050565b600061371282614196565b61371c81856141a1565b935061372c818560208601614395565b613735816144bb565b840191505092915050565b600061374b82614196565b61375581856141b2565b9350613765818560208601614395565b80840191505092915050565b600061377e6018836141a1565b9150613789826144cc565b602082019050919050565b60006137a16020836141a1565b91506137ac826144f5565b602082019050919050565b60006137c46023836141a1565b91506137cf8261451e565b604082019050919050565b60006137e7601f836141a1565b91506137f28261456d565b602082019050919050565b600061380a601d836141a1565b915061381582614596565b602082019050919050565b600061382d6022836141a1565b9150613838826145bf565b604082019050919050565b6000613850601f836141a1565b915061385b8261460e565b602082019050919050565b60006138736019836141a1565b915061387e82614637565b602082019050919050565b60006138966022836141a1565b91506138a182614660565b604082019050919050565b60006138b96002836141b2565b91506138c4826146af565b600282019050919050565b60006138dc601d836141a1565b91506138e7826146d8565b602082019050919050565b60006138ff6026836141a1565b915061390a82614701565b604082019050919050565b60006139226022836141a1565b915061392d82614750565b604082019050919050565b60006139456022836141a1565b91506139508261479f565b604082019050919050565b6000613968601e836141a1565b9150613973826147ee565b602082019050919050565b600061398b6028836141a1565b915061399682614817565b604082019050919050565b60006139ae6030836141a1565b91506139b982614866565b604082019050919050565b60006139d16027836141a1565b91506139dc826148b5565b604082019050919050565b60006139f46024836141a1565b91506139ff82614904565b604082019050919050565b6000613a176021836141a1565b9150613a2282614953565b604082019050919050565b6000613a3a6025836141a1565b9150613a45826149a2565b604082019050919050565b6000613a5d6026836141a1565b9150613a68826149f1565b604082019050919050565b6000613a806024836141a1565b9150613a8b82614a40565b604082019050919050565b6000613aa36017836141b2565b9150613aae82614a8f565b601782019050919050565b6000613ac66025836141a1565b9150613ad182614ab8565b604082019050919050565b6000613ae96011836141b2565b9150613af482614b07565b601182019050919050565b6000613b0c602f836141a1565b9150613b1782614b30565b604082019050919050565b6000613b2f601f836141a1565b9150613b3a82614b7f565b602082019050919050565b604082016000820151613b5b6000850182613b92565b506020820151613b6e6020850182613b74565b50505050565b613b7d81614346565b82525050565b613b8c8161436e565b82525050565b613b9b81614378565b82525050565b613baa81614378565b82525050565b613bb981614388565b82525050565b6000613bca826138ac565b9150613bd682856136f0565b602082019150613be682846136f0565b6020820191508190509392505050565b6000613c0182613a96565b9150613c0d8285613740565b9150613c1882613adc565b9150613c248284613740565b91508190509392505050565b6000602082019050613c4560008301846136c3565b92915050565b6000602082019050613c6060008301846136d2565b92915050565b6000602082019050613c7b60008301846136e1565b92915050565b600060c082019050613c9660008301896136e1565b613ca360208301886136c3565b613cb060408301876136c3565b613cbd6060830186613b83565b613cca6080830185613b83565b613cd760a0830184613b83565b979650505050505050565b6000608082019050613cf760008301876136e1565b613d0460208301866136c3565b613d116040830185613b83565b613d1e6060830184613b83565b95945050505050565b600060a082019050613d3c60008301886136e1565b613d4960208301876136e1565b613d5660408301866136e1565b613d636060830185613b83565b613d7060808301846136c3565b9695505050505050565b6000608082019050613d8f60008301876136e1565b613d9c6020830186613bb0565b613da960408301856136e1565b613db660608301846136e1565b95945050505050565b60006020820190508181036000830152613dd98184613707565b905092915050565b60006020820190508181036000830152613dfa81613771565b9050919050565b60006020820190508181036000830152613e1a81613794565b9050919050565b60006020820190508181036000830152613e3a816137b7565b9050919050565b60006020820190508181036000830152613e5a816137da565b9050919050565b60006020820190508181036000830152613e7a816137fd565b9050919050565b60006020820190508181036000830152613e9a81613820565b9050919050565b60006020820190508181036000830152613eba81613843565b9050919050565b60006020820190508181036000830152613eda81613866565b9050919050565b60006020820190508181036000830152613efa81613889565b9050919050565b60006020820190508181036000830152613f1a816138cf565b9050919050565b60006020820190508181036000830152613f3a816138f2565b9050919050565b60006020820190508181036000830152613f5a81613915565b9050919050565b60006020820190508181036000830152613f7a81613938565b9050919050565b60006020820190508181036000830152613f9a8161395b565b9050919050565b60006020820190508181036000830152613fba8161397e565b9050919050565b60006020820190508181036000830152613fda816139a1565b9050919050565b60006020820190508181036000830152613ffa816139c4565b9050919050565b6000602082019050818103600083015261401a816139e7565b9050919050565b6000602082019050818103600083015261403a81613a0a565b9050919050565b6000602082019050818103600083015261405a81613a2d565b9050919050565b6000602082019050818103600083015261407a81613a50565b9050919050565b6000602082019050818103600083015261409a81613a73565b9050919050565b600060208201905081810360008301526140ba81613ab9565b9050919050565b600060208201905081810360008301526140da81613aff565b9050919050565b600060208201905081810360008301526140fa81613b22565b9050919050565b60006040820190506141166000830184613b45565b92915050565b60006020820190506141316000830184613b83565b92915050565b600060408201905061414c6000830185613b83565b6141596020830184613b83565b9392505050565b60006020820190506141756000830184613ba1565b92915050565b60006020820190506141906000830184613bb0565b92915050565b600081519050919050565b600082825260208201905092915050565b600081905092915050565b60006141c88261436e565b91506141d38361436e565b9250827fffffffffffffffffffffffffffffffffffffffffffffffffffffffffffffffff038211156142085761420761442e565b5b828201905092915050565b600061421e8261436e565b91506142298361436e565b9250826142395761423861445d565b5b828204905092915050565b600061424f8261436e565b915061425a8361436e565b9250817fffffffffffffffffffffffffffffffffffffffffffffffffffffffffffffffff04831182151516156142935761429261442e565b5b828202905092915050565b60006142a98261436e565b91506142b48361436e565b9250828210156142c7576142c661442e565b5b828203905092915050565b60006142dd82614326565b9050919050565b60008115159050919050565b6000819050919050565b60007fffffffff0000000000000000000000000000000000000000000000000000000082169050919050565b600073ffffffffffffffffffffffffffffffffffffffff82169050919050565b60007bffffffffffffffffffffffffffffffffffffffffffffffffffffffff82169050919050565b6000819050919050565b600063ffffffff82169050919050565b600060ff82169050919050565b60005b838110156143b3578082015181840152602081019050614398565b838111156143c2576000848401525b50505050565b60006143d38261436e565b915060008214156143e7576143e661442e565b5b600182039050919050565b6000600282049050600182168061440a57607f821691505b6020821081141561441e5761441d61448c565b5b50919050565b6000819050919050565b7f4e487b7100000000000000000000000000000000000000000000000000000000600052601160045260246000fd5b7f4e487b7100000000000000000000000000000000000000000000000000000000600052601260045260246000fd5b7f4e487b7100000000000000000000000000000000000000000000000000000000600052602260045260246000fd5b6000601f19601f8301169050919050565b7f45434453413a20696e76616c6964207369676e61747572650000000000000000600082015250565b7f537472696e67733a20686578206c656e67746820696e73756666696369656e74600082015250565b7f45524332303a207472616e7366657220746f20746865207a65726f206164647260008201527f6573730000000000000000000000000000000000000000000000000000000000602082015250565b7f4552433230566f7465733a20626c6f636b206e6f7420796574206d696e656400600082015250565b7f4552433230566f7465733a207369676e61747572652065787069726564000000600082015250565b7f45524332303a206275726e20616d6f756e7420657863656564732062616c616e60008201527f6365000000000000000000000000000000000000000000000000000000000000602082015250565b7f45434453413a20696e76616c6964207369676e6174757265206c656e67746800600082015250565b7f4552433230566f7465733a20696e76616c6964206e6f6e636500000000000000600082015250565b7f45524332303a20617070726f766520746f20746865207a65726f20616464726560008201527f7373000000000000000000000000000000000000000000000000000000000000602082015250565b7f1901000000000000000000000000000000000000000000000000000000000000600082015250565b7f45524332305065726d69743a206578706972656420646561646c696e65000000600082015250565b7f45524332303a207472616e7366657220616d6f756e742065786365656473206260008201527f616c616e63650000000000000000000000000000000000000000000000000000602082015250565b7f45434453413a20696e76616c6964207369676e6174757265202773272076616c60008201527f7565000000000000000000000000000000000000000000000000000000000000602082015250565b7f45434453413a20696e76616c6964207369676e6174757265202776272076616c60008201527f7565000000000000000000000000000000000000000000000000000000000000602082015250565b7f45524332305065726d69743a20696e76616c6964207369676e61747572650000600082015250565b7f45524332303a207472616e7366657220616d6f756e742065786365656473206160008201527f6c6c6f77616e6365000000000000000000000000000000000000000000000000602082015250565b7f4552433230566f7465733a20746f74616c20737570706c79207269736b73206f60008201527f766572666c6f77696e6720766f74657300000000000000000000000000000000602082015250565b7f53616665436173743a2076616c756520646f65736e27742066697420696e203260008201527f3234206269747300000000000000000000000000000000000000000000000000602082015250565b7f45524332303a206275726e20616d6f756e74206578636565647320616c6c6f7760008201527f616e636500000000000000000000000000000000000000000000000000000000602082015250565b7f45524332303a206275726e2066726f6d20746865207a65726f2061646472657360008201527f7300000000000000000000000000000000000000000000000000000000000000602082015250565b7f45524332303a207472616e736665722066726f6d20746865207a65726f20616460008201527f6472657373000000000000000000000000000000000000000000000000000000602082015250565b7f53616665436173743a2076616c756520646f65736e27742066697420696e203360008201527f3220626974730000000000000000000000000000000000000000000000000000602082015250565b7f45524332303a20617070726f76652066726f6d20746865207a65726f2061646460008201527f7265737300000000000000000000000000000000000000000000000000000000602082015250565b7f416363657373436f6e74726f6c3a206163636f756e7420000000000000000000600082015250565b7f45524332303a2064656372656173656420616c6c6f77616e63652062656c6f7760008201527f207a65726f000000000000000000000000000000000000000000000000000000602082015250565b7f206973206d697373696e6720726f6c6520000000000000000000000000000000600082015250565b7f416363657373436f6e74726f6c3a2063616e206f6e6c792072656e6f756e636560008201527f20726f6c657320666f722073656c660000000000000000000000000000000000602082015250565b7f45524332303a206d696e7420746f20746865207a65726f206164647265737300600082015250565b614bb1816142d2565b8114614bbc57600080fd5b50565b614bc8816142f0565b8114614bd357600080fd5b50565b614bdf816142fa565b8114614bea57600080fd5b50565b614bf68161436e565b8114614c0157600080fd5b50565b614c0d81614378565b8114614c1857600080fd5b50565b614c2481614388565b8114614c2f57600080fd5b5056fea2646970667358221220318b5c985ccc18a0ba41dc763c0e550ea76475ff97da15241a74e92964a441ed64736f6c63430008010033",
  "immutableReferences": {
    "1766": [
      {
        "length": 32,
        "start": 4712
      }
    ],
    "2638": [
      {
        "length": 32,
        "start": 7987
      }
    ],
    "2640": [
      {
        "length": 32,
        "start": 7946
      }
    ],
    "2642": [
      {
        "length": 32,
        "start": 7860
      }
    ],
    "2644": [
      {
        "length": 32,
        "start": 8063
      }
    ],
    "2646": [
      {
        "length": 32,
        "start": 8096
      }
    ],
    "2648": [
      {
        "length": 32,
        "start": 8030
      }
    ]
  },
  "source": "// SPDX-License-Identifier: MIT\npragma solidity <=0.8.2;\n\nimport \"@openzeppelin/contracts/token/ERC20/ERC20.sol\";\nimport \"@openzeppelin/contracts/token/ERC20/extensions/ERC20Burnable.sol\";\nimport \"@openzeppelin/contracts/access/AccessControl.sol\";\nimport \"@openzeppelin/contracts/token/ERC20/extensions/draft-ERC20Permit.sol\";\nimport \"@openzeppelin/contracts/token/ERC20/extensions/ERC20Votes.sol\";\n\ncontract Souls is ERC20, ERC20Burnable, AccessControl, ERC20Permit, ERC20Votes {\n    bytes32 public constant MINTER_ROLE = keccak256(\"MINTER_ROLE\");\n\n    constructor() ERC20(\"Souls\", \"SLS\") ERC20Permit(\"Souls\") {\n        _mint(msg.sender, 1000 * 10 ** decimals());\n        _grantRole(DEFAULT_ADMIN_ROLE, msg.sender);\n        _grantRole(MINTER_ROLE, msg.sender);\n    }\n\n    function mint(address to, uint256 amount) public onlyRole(MINTER_ROLE) {\n        _mint(to, amount);\n    }\n\n    function decimals() public override pure returns(uint8) {\n        return 0;\n    }\n\n    // The following functions are overrides required by Solidity.\n\n    function _afterTokenTransfer(address from, address to, uint256 amount)\n        internal\n        override(ERC20, ERC20Votes)\n    {\n        super._afterTokenTransfer(from, to, amount);\n    }\n\n    function _mint(address to, uint256 amount)\n        internal\n        override(ERC20, ERC20Votes)\n    {\n        super._mint(to, amount);\n    }\n\n    function _burn(address account, uint256 amount)\n        internal\n        override(ERC20, ERC20Votes)\n    {\n        super._burn(account, amount);\n    }\n}",
  "sourcePath": "/Users/alessandrodecristofaro/Desktop/DeFi Code/croskull-repo/src/contracts/Souls.sol",
  "compiler": {
    "name": "solc",
    "version": "0.8.1+commit.df193b15.Emscripten.clang"
  },
  "schemaVersion": "3.4.3",
  "updatedAt": "2022-02-22T16:41:39.555Z",
  "networkType": "ethereum",
  "devdoc": {
    "kind": "dev",
    "methods": {
      "DOMAIN_SEPARATOR()": {
        "details": "See {IERC20Permit-DOMAIN_SEPARATOR}."
      },
      "allowance(address,address)": {
        "details": "See {IERC20-allowance}."
      },
      "approve(address,uint256)": {
        "details": "See {IERC20-approve}. Requirements: - `spender` cannot be the zero address."
      },
      "balanceOf(address)": {
        "details": "See {IERC20-balanceOf}."
      },
      "burn(uint256)": {
        "details": "Destroys `amount` tokens from the caller. See {ERC20-_burn}."
      },
      "burnFrom(address,uint256)": {
        "details": "Destroys `amount` tokens from `account`, deducting from the caller's allowance. See {ERC20-_burn} and {ERC20-allowance}. Requirements: - the caller must have allowance for ``accounts``'s tokens of at least `amount`."
      },
      "checkpoints(address,uint32)": {
        "details": "Get the `pos`-th checkpoint for `account`."
      },
      "decimals()": {
        "details": "Returns the number of decimals used to get its user representation. For example, if `decimals` equals `2`, a balance of `505` tokens should be displayed to a user as `5.05` (`505 / 10 ** 2`). Tokens usually opt for a value of 18, imitating the relationship between Ether and Wei. This is the value {ERC20} uses, unless this function is overridden; NOTE: This information is only used for _display_ purposes: it in no way affects any of the arithmetic of the contract, including {IERC20-balanceOf} and {IERC20-transfer}."
      },
      "decreaseAllowance(address,uint256)": {
        "details": "Atomically decreases the allowance granted to `spender` by the caller. This is an alternative to {approve} that can be used as a mitigation for problems described in {IERC20-approve}. Emits an {Approval} event indicating the updated allowance. Requirements: - `spender` cannot be the zero address. - `spender` must have allowance for the caller of at least `subtractedValue`."
      },
      "delegate(address)": {
        "details": "Delegate votes from the sender to `delegatee`."
      },
      "delegateBySig(address,uint256,uint256,uint8,bytes32,bytes32)": {
        "details": "Delegates votes from signer to `delegatee`"
      },
      "delegates(address)": {
        "details": "Get the address `account` is currently delegating to."
      },
      "getPastTotalSupply(uint256)": {
        "details": "Retrieve the `totalSupply` at the end of `blockNumber`. Note, this value is the sum of all balances. It is but NOT the sum of all the delegated votes! Requirements: - `blockNumber` must have been already mined"
      },
      "getPastVotes(address,uint256)": {
        "details": "Retrieve the number of votes for `account` at the end of `blockNumber`. Requirements: - `blockNumber` must have been already mined"
      },
      "getRoleAdmin(bytes32)": {
        "details": "Returns the admin role that controls `role`. See {grantRole} and {revokeRole}. To change a role's admin, use {_setRoleAdmin}."
      },
      "getVotes(address)": {
        "details": "Gets the current votes balance for `account`"
      },
      "grantRole(bytes32,address)": {
        "details": "Grants `role` to `account`. If `account` had not been already granted `role`, emits a {RoleGranted} event. Requirements: - the caller must have ``role``'s admin role."
      },
      "hasRole(bytes32,address)": {
        "details": "Returns `true` if `account` has been granted `role`."
      },
      "increaseAllowance(address,uint256)": {
        "details": "Atomically increases the allowance granted to `spender` by the caller. This is an alternative to {approve} that can be used as a mitigation for problems described in {IERC20-approve}. Emits an {Approval} event indicating the updated allowance. Requirements: - `spender` cannot be the zero address."
      },
      "name()": {
        "details": "Returns the name of the token."
      },
      "nonces(address)": {
        "details": "See {IERC20Permit-nonces}."
      },
      "numCheckpoints(address)": {
        "details": "Get number of checkpoints for `account`."
      },
      "permit(address,address,uint256,uint256,uint8,bytes32,bytes32)": {
        "details": "See {IERC20Permit-permit}."
      },
      "renounceRole(bytes32,address)": {
        "details": "Revokes `role` from the calling account. Roles are often managed via {grantRole} and {revokeRole}: this function's purpose is to provide a mechanism for accounts to lose their privileges if they are compromised (such as when a trusted device is misplaced). If the calling account had been revoked `role`, emits a {RoleRevoked} event. Requirements: - the caller must be `account`."
      },
      "revokeRole(bytes32,address)": {
        "details": "Revokes `role` from `account`. If `account` had been granted `role`, emits a {RoleRevoked} event. Requirements: - the caller must have ``role``'s admin role."
      },
      "supportsInterface(bytes4)": {
        "details": "See {IERC165-supportsInterface}."
      },
      "symbol()": {
        "details": "Returns the symbol of the token, usually a shorter version of the name."
      },
      "totalSupply()": {
        "details": "See {IERC20-totalSupply}."
      },
      "transfer(address,uint256)": {
        "details": "See {IERC20-transfer}. Requirements: - `recipient` cannot be the zero address. - the caller must have a balance of at least `amount`."
      },
      "transferFrom(address,address,uint256)": {
        "details": "See {IERC20-transferFrom}. Emits an {Approval} event indicating the updated allowance. This is not required by the EIP. See the note at the beginning of {ERC20}. Requirements: - `sender` and `recipient` cannot be the zero address. - `sender` must have a balance of at least `amount`. - the caller must have allowance for ``sender``'s tokens of at least `amount`."
      }
    },
    "version": 1
  },
  "userdoc": {
    "kind": "user",
    "methods": {},
    "version": 1
  }
}